{
  "contractName": "Blacksmith",
  "abi": [
    {
      "anonymous": false,
      "inputs": [
        {
          "indexed": true,
          "internalType": "address",
          "name": "owner",
          "type": "address"
        },
        {
          "indexed": false,
          "internalType": "uint256",
          "name": "tier",
          "type": "uint256"
        },
        {
          "indexed": false,
          "internalType": "uint256",
          "name": "price",
          "type": "uint256"
        },
        {
          "indexed": false,
          "internalType": "uint256",
          "name": "currency",
          "type": "uint256"
        }
      ],
      "name": "CBKLandPurchased",
      "type": "event"
    },
    {
      "anonymous": false,
      "inputs": [
        {
          "indexed": true,
          "internalType": "bytes32",
          "name": "role",
          "type": "bytes32"
        },
        {
          "indexed": true,
          "internalType": "bytes32",
          "name": "previousAdminRole",
          "type": "bytes32"
        },
        {
          "indexed": true,
          "internalType": "bytes32",
          "name": "newAdminRole",
          "type": "bytes32"
        }
      ],
      "name": "RoleAdminChanged",
      "type": "event"
    },
    {
      "anonymous": false,
      "inputs": [
        {
          "indexed": true,
          "internalType": "bytes32",
          "name": "role",
          "type": "bytes32"
        },
        {
          "indexed": true,
          "internalType": "address",
          "name": "account",
          "type": "address"
        },
        {
          "indexed": true,
          "internalType": "address",
          "name": "sender",
          "type": "address"
        }
      ],
      "name": "RoleGranted",
      "type": "event"
    },
    {
      "anonymous": false,
      "inputs": [
        {
          "indexed": true,
          "internalType": "bytes32",
          "name": "role",
          "type": "bytes32"
        },
        {
          "indexed": true,
          "internalType": "address",
          "name": "account",
          "type": "address"
        },
        {
          "indexed": true,
          "internalType": "address",
          "name": "sender",
          "type": "address"
        }
      ],
      "name": "RoleRevoked",
      "type": "event"
    },
    {
      "inputs": [],
      "name": "CURRENCY_SKILL",
      "outputs": [
        {
          "internalType": "uint256",
          "name": "",
          "type": "uint256"
        }
      ],
      "stateMutability": "view",
      "type": "function",
      "constant": true
    },
    {
      "inputs": [],
      "name": "DEFAULT_ADMIN_ROLE",
      "outputs": [
        {
          "internalType": "bytes32",
          "name": "",
          "type": "bytes32"
        }
      ],
      "stateMutability": "view",
      "type": "function",
      "constant": true
    },
    {
      "inputs": [],
      "name": "GAME",
      "outputs": [
        {
          "internalType": "bytes32",
          "name": "",
          "type": "bytes32"
        }
      ],
      "stateMutability": "view",
      "type": "function",
      "constant": true
    },
    {
      "inputs": [],
      "name": "ITEM_CHARACTER_RENAME",
      "outputs": [
        {
          "internalType": "uint256",
          "name": "",
          "type": "uint256"
        }
      ],
      "stateMutability": "view",
      "type": "function",
      "constant": true
    },
    {
      "inputs": [],
      "name": "ITEM_CHARACTER_TRAITCHANGE_EARTH",
      "outputs": [
        {
          "internalType": "uint256",
          "name": "",
          "type": "uint256"
        }
      ],
      "stateMutability": "view",
      "type": "function",
      "constant": true
    },
    {
      "inputs": [],
      "name": "ITEM_CHARACTER_TRAITCHANGE_FIRE",
      "outputs": [
        {
          "internalType": "uint256",
          "name": "",
          "type": "uint256"
        }
      ],
      "stateMutability": "view",
      "type": "function",
      "constant": true
    },
    {
      "inputs": [],
      "name": "ITEM_CHARACTER_TRAITCHANGE_LIGHTNING",
      "outputs": [
        {
          "internalType": "uint256",
          "name": "",
          "type": "uint256"
        }
      ],
      "stateMutability": "view",
      "type": "function",
      "constant": true
    },
    {
      "inputs": [],
      "name": "ITEM_CHARACTER_TRAITCHANGE_WATER",
      "outputs": [
        {
          "internalType": "uint256",
          "name": "",
          "type": "uint256"
        }
      ],
      "stateMutability": "view",
      "type": "function",
      "constant": true
    },
    {
      "inputs": [],
      "name": "ITEM_COSMETIC_CHARACTER",
      "outputs": [
        {
          "internalType": "uint256",
          "name": "",
          "type": "uint256"
        }
      ],
      "stateMutability": "view",
      "type": "function",
      "constant": true
    },
    {
      "inputs": [],
      "name": "ITEM_COSMETIC_WEAPON",
      "outputs": [
        {
          "internalType": "uint256",
          "name": "",
          "type": "uint256"
        }
      ],
      "stateMutability": "view",
      "type": "function",
      "constant": true
    },
    {
      "inputs": [],
      "name": "ITEM_SHIELD",
      "outputs": [
        {
          "internalType": "uint256",
          "name": "",
          "type": "uint256"
        }
      ],
      "stateMutability": "view",
      "type": "function",
      "constant": true
    },
    {
      "inputs": [],
      "name": "ITEM_WEAPON_RENAME",
      "outputs": [
        {
          "internalType": "uint256",
          "name": "",
          "type": "uint256"
        }
      ],
      "stateMutability": "view",
      "type": "function",
      "constant": true
    },
    {
      "inputs": [],
      "name": "LINK_KING_ORACLE",
      "outputs": [
        {
          "internalType": "uint256",
          "name": "",
          "type": "uint256"
        }
      ],
      "stateMutability": "view",
      "type": "function",
      "constant": true
    },
    {
      "inputs": [],
      "name": "LINK_SKILL_ORACLE_2",
      "outputs": [
        {
          "internalType": "uint256",
          "name": "",
          "type": "uint256"
        }
      ],
      "stateMutability": "view",
      "type": "function",
      "constant": true
    },
    {
      "inputs": [],
      "name": "VAR_PURCHASE_SHIELD_SUPPLY",
      "outputs": [
        {
          "internalType": "uint256",
          "name": "",
          "type": "uint256"
        }
      ],
      "stateMutability": "view",
      "type": "function",
      "constant": true
    },
    {
      "inputs": [],
      "name": "VAR_PURCHASE_SHIELD_TYPE",
      "outputs": [
        {
          "internalType": "uint256",
          "name": "",
          "type": "uint256"
        }
      ],
      "stateMutability": "view",
      "type": "function",
      "constant": true
    },
    {
      "inputs": [],
      "name": "cbkLandSale",
      "outputs": [
        {
          "internalType": "contract CBKLandSale",
          "name": "",
          "type": "address"
        }
      ],
      "stateMutability": "view",
      "type": "function",
      "constant": true
    },
    {
      "inputs": [],
      "name": "game",
      "outputs": [
        {
          "internalType": "contract CryptoBlades",
          "name": "",
          "type": "address"
        }
      ],
      "stateMutability": "view",
      "type": "function",
      "constant": true
    },
    {
      "inputs": [
        {
          "internalType": "bytes32",
          "name": "role",
          "type": "bytes32"
        }
      ],
      "name": "getRoleAdmin",
      "outputs": [
        {
          "internalType": "bytes32",
          "name": "",
          "type": "bytes32"
        }
      ],
      "stateMutability": "view",
      "type": "function",
      "constant": true
    },
    {
      "inputs": [
        {
          "internalType": "bytes32",
          "name": "role",
          "type": "bytes32"
        },
        {
          "internalType": "uint256",
          "name": "index",
          "type": "uint256"
        }
      ],
      "name": "getRoleMember",
      "outputs": [
        {
          "internalType": "address",
          "name": "",
          "type": "address"
        }
      ],
      "stateMutability": "view",
      "type": "function",
      "constant": true
    },
    {
      "inputs": [
        {
          "internalType": "bytes32",
          "name": "role",
          "type": "bytes32"
        }
      ],
      "name": "getRoleMemberCount",
      "outputs": [
        {
          "internalType": "uint256",
          "name": "",
          "type": "uint256"
        }
      ],
      "stateMutability": "view",
      "type": "function",
      "constant": true
    },
    {
      "inputs": [
        {
          "internalType": "bytes32",
          "name": "role",
          "type": "bytes32"
        },
        {
          "internalType": "address",
          "name": "account",
          "type": "address"
        }
      ],
      "name": "grantRole",
      "outputs": [],
      "stateMutability": "nonpayable",
      "type": "function"
    },
    {
      "inputs": [
        {
          "internalType": "bytes32",
          "name": "role",
          "type": "bytes32"
        },
        {
          "internalType": "address",
          "name": "account",
          "type": "address"
        }
      ],
      "name": "hasRole",
      "outputs": [
        {
          "internalType": "bool",
          "name": "",
          "type": "bool"
        }
      ],
      "stateMutability": "view",
      "type": "function",
      "constant": true
    },
    {
      "inputs": [
        {
          "internalType": "uint256",
          "name": "",
          "type": "uint256"
        }
      ],
      "name": "itemAddresses",
      "outputs": [
        {
          "internalType": "address",
          "name": "",
          "type": "address"
        }
      ],
      "stateMutability": "view",
      "type": "function",
      "constant": true
    },
    {
      "inputs": [
        {
          "internalType": "uint256",
          "name": "",
          "type": "uint256"
        }
      ],
      "name": "itemFlatPrices",
      "outputs": [
        {
          "internalType": "uint256",
          "name": "",
          "type": "uint256"
        }
      ],
      "stateMutability": "view",
      "type": "function",
      "constant": true
    },
    {
      "inputs": [
        {
          "internalType": "uint256",
          "name": "",
          "type": "uint256"
        },
        {
          "internalType": "uint256",
          "name": "",
          "type": "uint256"
        }
      ],
      "name": "itemSeriesFlatPrices",
      "outputs": [
        {
          "internalType": "uint256",
          "name": "",
          "type": "uint256"
        }
      ],
      "stateMutability": "view",
      "type": "function",
      "constant": true
    },
    {
      "inputs": [
        {
          "internalType": "uint256",
          "name": "",
          "type": "uint256"
        },
        {
          "internalType": "uint256",
          "name": "",
          "type": "uint256"
        }
      ],
      "name": "landPrices",
      "outputs": [
        {
          "internalType": "uint256",
          "name": "",
          "type": "uint256"
        }
      ],
      "stateMutability": "view",
      "type": "function",
      "constant": true
    },
    {
      "inputs": [
        {
          "internalType": "uint256",
          "name": "",
          "type": "uint256"
        }
      ],
      "name": "links",
      "outputs": [
        {
          "internalType": "address",
          "name": "",
          "type": "address"
        }
      ],
      "stateMutability": "view",
      "type": "function",
      "constant": true
    },
    {
      "inputs": [
        {
          "internalType": "uint256",
          "name": "",
          "type": "uint256"
        }
      ],
      "name": "numberParameters",
      "outputs": [
        {
          "internalType": "uint256",
          "name": "",
          "type": "uint256"
        }
      ],
      "stateMutability": "view",
      "type": "function",
      "constant": true
    },
    {
      "inputs": [],
      "name": "randoms",
      "outputs": [
        {
          "internalType": "contract IRandoms",
          "name": "",
          "type": "address"
        }
      ],
      "stateMutability": "view",
      "type": "function",
      "constant": true
    },
    {
      "inputs": [
        {
          "internalType": "bytes32",
          "name": "role",
          "type": "bytes32"
        },
        {
          "internalType": "address",
          "name": "account",
          "type": "address"
        }
      ],
      "name": "renounceRole",
      "outputs": [],
      "stateMutability": "nonpayable",
      "type": "function"
    },
    {
      "inputs": [
        {
          "internalType": "bytes32",
          "name": "role",
          "type": "bytes32"
        },
        {
          "internalType": "address",
          "name": "account",
          "type": "address"
        }
      ],
      "name": "revokeRole",
      "outputs": [],
      "stateMutability": "nonpayable",
      "type": "function"
    },
    {
      "inputs": [],
      "name": "shields",
      "outputs": [
        {
          "internalType": "contract Shields",
          "name": "",
          "type": "address"
        }
      ],
      "stateMutability": "view",
      "type": "function",
      "constant": true
    },
    {
      "inputs": [
        {
          "internalType": "address",
          "name": "",
          "type": "address"
        }
      ],
      "name": "tickets",
      "outputs": [
        {
          "internalType": "uint32",
          "name": "",
          "type": "uint32"
        }
      ],
      "stateMutability": "view",
      "type": "function",
      "constant": true
    },
    {
      "inputs": [],
      "name": "weapons",
      "outputs": [
        {
          "internalType": "contract Weapons",
          "name": "",
          "type": "address"
        }
      ],
      "stateMutability": "view",
      "type": "function",
      "constant": true
    },
    {
      "inputs": [
        {
          "internalType": "contract Weapons",
          "name": "_weapons",
          "type": "address"
        },
        {
          "internalType": "contract IRandoms",
          "name": "_randoms",
          "type": "address"
        }
      ],
      "name": "initialize",
      "outputs": [],
      "stateMutability": "nonpayable",
      "type": "function"
    },
    {
      "inputs": [
        {
          "internalType": "contract IRandoms",
          "name": "_newRandoms",
          "type": "address"
        }
      ],
      "name": "migrateRandoms",
      "outputs": [],
      "stateMutability": "nonpayable",
      "type": "function"
    },
    {
      "inputs": [
        {
          "internalType": "contract Shields",
          "name": "_shields",
          "type": "address"
        },
        {
          "internalType": "contract CryptoBlades",
          "name": "_game",
          "type": "address"
        }
      ],
      "name": "migrateTo_61c10da",
      "outputs": [],
      "stateMutability": "nonpayable",
      "type": "function"
    },
    {
      "inputs": [
        {
          "internalType": "address",
          "name": "_characterRename",
          "type": "address"
        },
        {
          "internalType": "address",
          "name": "_weaponRename",
          "type": "address"
        },
        {
          "internalType": "address",
          "name": "_charFireTraitChange",
          "type": "address"
        },
        {
          "internalType": "address",
          "name": "_charEarthTraitChange",
          "type": "address"
        },
        {
          "internalType": "address",
          "name": "_charWaterTraitChange",
          "type": "address"
        },
        {
          "internalType": "address",
          "name": "_charLightningTraitChange",
          "type": "address"
        }
      ],
      "name": "migrateTo_16884dd",
      "outputs": [],
      "stateMutability": "nonpayable",
      "type": "function"
    },
    {
      "inputs": [
        {
          "internalType": "contract CBKLandSale",
          "name": "_cbkLandSale",
          "type": "address"
        }
      ],
      "name": "migrateTo_bcdf4c",
      "outputs": [],
      "stateMutability": "nonpayable",
      "type": "function"
    },
    {
      "inputs": [
        {
          "internalType": "address",
          "name": "tokenAddress",
          "type": "address"
        },
        {
          "internalType": "uint256",
          "name": "amount",
          "type": "uint256"
        }
      ],
      "name": "recoverToken",
      "outputs": [],
      "stateMutability": "nonpayable",
      "type": "function"
    },
    {
      "inputs": [],
      "name": "purchaseShield",
      "outputs": [],
      "stateMutability": "nonpayable",
      "type": "function"
    },
    {
      "inputs": [
        {
          "internalType": "uint256",
          "name": "itemIndex",
          "type": "uint256"
        }
      ],
      "name": "getAddressOfItem",
      "outputs": [
        {
          "internalType": "address",
          "name": "",
          "type": "address"
        }
      ],
      "stateMutability": "view",
      "type": "function",
      "constant": true
    },
    {
      "inputs": [
        {
          "internalType": "uint256",
          "name": "itemIndex",
          "type": "uint256"
        }
      ],
      "name": "getFlatPriceOfItem",
      "outputs": [
        {
          "internalType": "uint256",
          "name": "",
          "type": "uint256"
        }
      ],
      "stateMutability": "view",
      "type": "function",
      "constant": true
    },
    {
      "inputs": [
        {
          "internalType": "uint256",
          "name": "itemIndex",
          "type": "uint256"
        },
        {
          "internalType": "uint256",
          "name": "seriesIndex",
          "type": "uint256"
        }
      ],
      "name": "getFlatPriceOfSeriesItem",
      "outputs": [
        {
          "internalType": "uint256",
          "name": "",
          "type": "uint256"
        }
      ],
      "stateMutability": "view",
      "type": "function",
      "constant": true
    },
    {
      "inputs": [
        {
          "internalType": "uint256",
          "name": "currency",
          "type": "uint256"
        }
      ],
      "name": "getCurrency",
      "outputs": [
        {
          "internalType": "address",
          "name": "",
          "type": "address"
        }
      ],
      "stateMutability": "view",
      "type": "function",
      "constant": true
    },
    {
      "inputs": [
        {
          "internalType": "uint256",
          "name": "linkId",
          "type": "uint256"
        }
      ],
      "name": "getLink",
      "outputs": [
        {
          "internalType": "address",
          "name": "",
          "type": "address"
        }
      ],
      "stateMutability": "view",
      "type": "function",
      "constant": true
    },
    {
      "inputs": [
        {
          "internalType": "uint256",
          "name": "varField",
          "type": "uint256"
        }
      ],
      "name": "vars",
      "outputs": [
        {
          "internalType": "uint256",
          "name": "",
          "type": "uint256"
        }
      ],
      "stateMutability": "view",
      "type": "function",
      "constant": true
    },
    {
      "inputs": [
        {
          "internalType": "uint256",
          "name": "itemIndex",
          "type": "uint256"
        },
        {
          "internalType": "address",
          "name": "to",
          "type": "address"
        }
      ],
      "name": "setAddressOfItem",
      "outputs": [],
      "stateMutability": "nonpayable",
      "type": "function"
    },
    {
      "inputs": [
        {
          "internalType": "uint256",
          "name": "itemIndex",
          "type": "uint256"
        },
        {
          "internalType": "uint256",
          "name": "flatWeiPrice",
          "type": "uint256"
        }
      ],
      "name": "setFlatPriceOfItem",
      "outputs": [],
      "stateMutability": "nonpayable",
      "type": "function"
    },
    {
      "inputs": [
        {
          "internalType": "uint256",
          "name": "itemIndex",
          "type": "uint256"
        },
        {
          "internalType": "uint256[]",
          "name": "seriesIndices",
          "type": "uint256[]"
        },
        {
          "internalType": "uint256[]",
          "name": "seriesPrices",
          "type": "uint256[]"
        }
      ],
      "name": "setFlatPriceOfItemSeries",
      "outputs": [],
      "stateMutability": "nonpayable",
      "type": "function"
    },
    {
      "inputs": [
        {
          "internalType": "uint256",
          "name": "currency",
          "type": "uint256"
        },
        {
          "internalType": "address",
          "name": "currencyAddress",
          "type": "address"
        },
        {
          "internalType": "bool",
          "name": "forced",
          "type": "bool"
        }
      ],
      "name": "setCurrency",
      "outputs": [],
      "stateMutability": "nonpayable",
      "type": "function"
    },
    {
      "inputs": [
        {
          "internalType": "uint256",
          "name": "linkId",
          "type": "uint256"
        },
        {
          "internalType": "address",
          "name": "linkAddress",
          "type": "address"
        }
      ],
      "name": "setLink",
      "outputs": [],
      "stateMutability": "nonpayable",
      "type": "function"
    },
    {
      "inputs": [
        {
          "internalType": "uint256",
          "name": "varField",
          "type": "uint256"
        },
        {
          "internalType": "uint256",
          "name": "value",
          "type": "uint256"
        }
      ],
      "name": "setVar",
      "outputs": [],
      "stateMutability": "nonpayable",
      "type": "function"
    },
    {
      "inputs": [
        {
          "internalType": "uint256[]",
          "name": "varFields",
          "type": "uint256[]"
        },
        {
          "internalType": "uint256[]",
          "name": "values",
          "type": "uint256[]"
        }
      ],
      "name": "setVars",
      "outputs": [],
      "stateMutability": "nonpayable",
      "type": "function"
    },
    {
      "inputs": [
        {
          "internalType": "uint256",
          "name": "newPrice",
          "type": "uint256"
        }
      ],
      "name": "setCharacterRenamePrice",
      "outputs": [],
      "stateMutability": "nonpayable",
      "type": "function"
    },
    {
      "inputs": [],
      "name": "characterRenamePrice",
      "outputs": [
        {
          "internalType": "uint256",
          "name": "",
          "type": "uint256"
        }
      ],
      "stateMutability": "view",
      "type": "function",
      "constant": true
    },
    {
      "inputs": [
        {
          "internalType": "uint256",
          "name": "paying",
          "type": "uint256"
        }
      ],
      "name": "purchaseCharacterRenameTag",
      "outputs": [],
      "stateMutability": "nonpayable",
      "type": "function"
    },
    {
      "inputs": [
        {
          "internalType": "uint256",
          "name": "paying",
          "type": "uint256"
        }
      ],
      "name": "purchaseCharacterRenameTagDeal",
      "outputs": [],
      "stateMutability": "nonpayable",
      "type": "function"
    },
    {
      "inputs": [
        {
          "internalType": "uint256",
          "name": "newPrice",
          "type": "uint256"
        }
      ],
      "name": "setWeaponRenamePrice",
      "outputs": [],
      "stateMutability": "nonpayable",
      "type": "function"
    },
    {
      "inputs": [],
      "name": "weaponRenamePrice",
      "outputs": [
        {
          "internalType": "uint256",
          "name": "",
          "type": "uint256"
        }
      ],
      "stateMutability": "view",
      "type": "function",
      "constant": true
    },
    {
      "inputs": [
        {
          "internalType": "uint256",
          "name": "paying",
          "type": "uint256"
        }
      ],
      "name": "purchaseWeaponRenameTag",
      "outputs": [],
      "stateMutability": "nonpayable",
      "type": "function"
    },
    {
      "inputs": [
        {
          "internalType": "uint256",
          "name": "paying",
          "type": "uint256"
        }
      ],
      "name": "purchaseWeaponRenameTagDeal",
      "outputs": [],
      "stateMutability": "nonpayable",
      "type": "function"
    },
    {
      "inputs": [
        {
          "internalType": "uint256",
          "name": "newPrice",
          "type": "uint256"
        }
      ],
      "name": "setCharacterTraitChangePrice",
      "outputs": [],
      "stateMutability": "nonpayable",
      "type": "function"
    },
    {
      "inputs": [],
      "name": "characterTraitChangePrice",
      "outputs": [
        {
          "internalType": "uint256",
          "name": "",
          "type": "uint256"
        }
      ],
      "stateMutability": "view",
      "type": "function",
      "constant": true
    },
    {
      "inputs": [
        {
          "internalType": "uint256",
          "name": "paying",
          "type": "uint256"
        }
      ],
      "name": "purchaseCharacterFireTraitChange",
      "outputs": [],
      "stateMutability": "nonpayable",
      "type": "function"
    },
    {
      "inputs": [
        {
          "internalType": "uint256",
          "name": "paying",
          "type": "uint256"
        }
      ],
      "name": "purchaseCharacterEarthTraitChange",
      "outputs": [],
      "stateMutability": "nonpayable",
      "type": "function"
    },
    {
      "inputs": [
        {
          "internalType": "uint256",
          "name": "paying",
          "type": "uint256"
        }
      ],
      "name": "purchaseCharacterWaterTraitChange",
      "outputs": [],
      "stateMutability": "nonpayable",
      "type": "function"
    },
    {
      "inputs": [
        {
          "internalType": "uint256",
          "name": "paying",
          "type": "uint256"
        }
      ],
      "name": "purchaseCharacterLightningTraitChange",
      "outputs": [],
      "stateMutability": "nonpayable",
      "type": "function"
    },
    {
      "inputs": [
        {
          "internalType": "uint32",
          "name": "cosmetic",
          "type": "uint32"
        },
        {
          "internalType": "uint256",
          "name": "newPrice",
          "type": "uint256"
        }
      ],
      "name": "setWeaponCosmeticPrice",
      "outputs": [],
      "stateMutability": "nonpayable",
      "type": "function"
    },
    {
      "inputs": [
        {
          "internalType": "uint32",
          "name": "cosmetic",
          "type": "uint32"
        }
      ],
      "name": "getWeaponCosmeticPrice",
      "outputs": [
        {
          "internalType": "uint256",
          "name": "",
          "type": "uint256"
        }
      ],
      "stateMutability": "view",
      "type": "function",
      "constant": true
    },
    {
      "inputs": [
        {
          "internalType": "uint32",
          "name": "cosmetic",
          "type": "uint32"
        },
        {
          "internalType": "uint256",
          "name": "paying",
          "type": "uint256"
        }
      ],
      "name": "purchaseWeaponCosmetic",
      "outputs": [],
      "stateMutability": "nonpayable",
      "type": "function"
    },
    {
      "inputs": [
        {
          "internalType": "uint32",
          "name": "cosmetic",
          "type": "uint32"
        },
        {
          "internalType": "uint256",
          "name": "newPrice",
          "type": "uint256"
        }
      ],
      "name": "setCharacterCosmeticPrice",
      "outputs": [],
      "stateMutability": "nonpayable",
      "type": "function"
    },
    {
      "inputs": [
        {
          "internalType": "uint32",
          "name": "cosmetic",
          "type": "uint32"
        }
      ],
      "name": "getCharacterCosmeticPrice",
      "outputs": [
        {
          "internalType": "uint256",
          "name": "",
          "type": "uint256"
        }
      ],
      "stateMutability": "view",
      "type": "function",
      "constant": true
    },
    {
      "inputs": [
        {
          "internalType": "uint32",
          "name": "cosmetic",
          "type": "uint32"
        },
        {
          "internalType": "uint256",
          "name": "paying",
          "type": "uint256"
        }
      ],
      "name": "purchaseCharacterCosmetic",
      "outputs": [],
      "stateMutability": "nonpayable",
      "type": "function"
    },
    {
      "inputs": [
        {
          "internalType": "uint256",
          "name": "paying",
          "type": "uint256"
        },
        {
          "internalType": "uint256",
          "name": "currency",
          "type": "uint256"
        }
      ],
      "name": "purchaseT1CBKLand",
      "outputs": [],
      "stateMutability": "nonpayable",
      "type": "function"
    },
    {
      "inputs": [
        {
          "internalType": "uint256",
          "name": "paying",
          "type": "uint256"
        },
        {
          "internalType": "uint256",
          "name": "chunkId",
          "type": "uint256"
        },
        {
          "internalType": "uint256",
          "name": "currency",
          "type": "uint256"
        }
      ],
      "name": "purchaseT2CBKLand",
      "outputs": [],
      "stateMutability": "nonpayable",
      "type": "function"
    },
    {
      "inputs": [
        {
          "internalType": "uint256",
          "name": "paying",
          "type": "uint256"
        },
        {
          "internalType": "uint256",
          "name": "chunkId",
          "type": "uint256"
        },
        {
          "internalType": "uint256",
          "name": "currency",
          "type": "uint256"
        }
      ],
      "name": "purchaseT3CBKLand",
      "outputs": [],
      "stateMutability": "nonpayable",
      "type": "function"
    },
    {
      "inputs": [
        {
          "internalType": "uint256",
          "name": "tier",
          "type": "uint256"
        },
        {
          "internalType": "uint256",
          "name": "currency",
          "type": "uint256"
        }
      ],
      "name": "getCBKLandPrice",
      "outputs": [
        {
          "internalType": "uint256",
          "name": "",
          "type": "uint256"
        }
      ],
      "stateMutability": "view",
      "type": "function",
      "constant": true
    },
    {
      "inputs": [
        {
          "internalType": "uint256",
          "name": "currency",
          "type": "uint256"
        }
      ],
      "name": "getOracledTokenPerUSD",
      "outputs": [
        {
          "internalType": "uint256",
          "name": "",
          "type": "uint256"
        }
      ],
      "stateMutability": "view",
      "type": "function",
      "constant": true
    },
    {
      "inputs": [
        {
          "internalType": "uint256",
          "name": "tier",
          "type": "uint256"
        },
        {
          "internalType": "uint256",
          "name": "newPrice",
          "type": "uint256"
        },
        {
          "internalType": "uint256",
          "name": "currency",
          "type": "uint256"
        }
      ],
      "name": "setCBKLandPrice",
      "outputs": [],
      "stateMutability": "nonpayable",
      "type": "function"
    }
  ],
  "bytecode": "0x608060405234801561001057600080fd5b50613b90806100206000396000f3fe608060405234801561001057600080fd5b506004361061048b5760003560e01c80638a911d7011610262578063c3fe3e2811610151578063d69803eb116100ce578063ea3584ba11610092578063ea3584ba14610e17578063eb99e86914610e1f578063ee7e079714610e3c578063f0f1b02e14610e6a578063f0f629e114610e87578063fb218ef014610ea45761048b565b8063d69803eb14610d6b578063d9f8322614610d94578063e1dfd96d14610db7578063e4a0f56614610dd4578063e71a136a14610dfa5761048b565b8063cdf9b77e11610115578063cdf9b77e14610cd4578063cf90057714610cf1578063cfa58a5b14610d1a578063d1dac34d14610d37578063d547741f14610d3f5761048b565b8063c3fe3e2814610c69578063c6b2f6e014610c71578063c816a3ea14610c94578063c833a9ae14610490578063ca15c87314610cb75761048b565b8063ad13ace3116101df578063b7e1cd86116101a3578063b7e1cd8614610bcb578063ba6fca5714610bd3578063be12911414610bf6578063bee666d814610c44578063c01cb3cb14610c4c5761048b565b8063ad13ace314610b3c578063af80b6df14610758578063b29a814014610b59578063b5e60fe014610b85578063b60b799b14610ba25761048b565b80639e00de82116102265780639e00de8214610b1c578063a0c617f814610b24578063a217fddf146106d6578063a938636e14610b2c578063ac6dc85014610b345761048b565b80638a911d7014610a565780639010d07c14610a7357806391d1485414610a9657806393db3ce214610ad6578063965e5ee214610af95761048b565b806341c7468e1161037e57806360e8cc2d116102fb5780637689ab0d116102bf5780637689ab0d146109f7578063787b8e1714610a145780637c4baa0614610a1c578063881d8a4014610a395780638821ff73146104905761048b565b806360e8cc2d1461094157806366931e031461096a5780636c992a551461098d5780636dcbf2a3146109b05780636f59c9bf146109ef5761048b565b8063592c73e811610342578063592c73e8146108b65780635e29204d146108e25780635e71b3aa146107585780635fc86693146109165780635fdb757a146109395761048b565b806341c7468e146108085780634203b1f314610831578063485cc9551461084e57806355b197011461087c57806358181425146108995761048b565b806324a507541161040c57806333050bf8116103d057806333050bf81461075857806336568abe14610760578063393b6df31461078c5780633c6ce2e3146107c55780633cabbfa2146107e25761048b565b806324a50754146106d657806327730d12146106de5780632b827396146106e65780632dd4bc19146107035780632f2ff15d1461072c5761048b565b80630d753f35116104535780630d753f35146105bb5780630e5dae0d146105c3578063182f549a146105ec5780631e0da840146105f4578063248a9ca3146106b95761048b565b806305cf9011146104905780630601ceb2146104aa578063067ee145146104c95780630a7501bb146104f55780630c05126a146105b3575b600080fd5b610498610eac565b60408051918252519081900360200190f35b6104c7600480360360208110156104c057600080fd5b5035610eb1565b005b6104c7600480360360408110156104df57600080fd5b50803590602001356001600160a01b0316610fd1565b6104c76004803603604081101561050b57600080fd5b810190602081018135600160201b81111561052557600080fd5b82018360208201111561053757600080fd5b803590602001918460208302840111600160201b8311171561055857600080fd5b919390929091602081019035600160201b81111561057557600080fd5b82018360208201111561058757600080fd5b803590602001918460208302840111600160201b831117156105a857600080fd5b509092509050611007565b61049861105f565b610498611064565b6104c7600480360360608110156105d957600080fd5b5080359060208101359060400135611069565b61049861127f565b6104c76004803603606081101561060a57600080fd5b81359190810190604081016020820135600160201b81111561062b57600080fd5b82018360208201111561063d57600080fd5b803590602001918460208302840111600160201b8311171561065e57600080fd5b919390929091602081019035600160201b81111561067b57600080fd5b82018360208201111561068d57600080fd5b803590602001918460208302840111600160201b831117156106ae57600080fd5b509092509050611284565b610498600480360360208110156106cf57600080fd5b50356112f5565b61049861130d565b610498611312565b6104c7600480360360208110156106fc57600080fd5b503561132e565b6104c76004803603604081101561071957600080fd5b5063ffffffff813516906020013561142b565b6104c76004803603604081101561074257600080fd5b50803590602001356001600160a01b03166114b2565b61049861151e565b6104c76004803603604081101561077657600080fd5b50803590602001356001600160a01b0316611523565b6107a9600480360360208110156107a257600080fd5b5035611584565b604080516001600160a01b039092168252519081900360200190f35b6104c7600480360360208110156107db57600080fd5b503561159f565b6104c7600480360360208110156107f857600080fd5b50356001600160a01b031661163e565b6104c76004803603604081101561081e57600080fd5b5063ffffffff81351690602001356116a8565b6104c76004803603602081101561084757600080fd5b50356117e1565b6104c76004803603604081101561086457600080fd5b506001600160a01b038135811691602001351661184a565b6104c76004803603602081101561089257600080fd5b5035611931565b610498600480360360208110156108af57600080fd5b5035611a2e565b6104c7600480360360408110156108cc57600080fd5b50803590602001356001600160a01b0316611a40565b6104c7600480360360608110156108f857600080fd5b508035906001600160a01b0360208201351690604001351515611a76565b6104986004803603604081101561092c57600080fd5b5080359060200135611b13565b610498611b30565b6104c76004803603606081101561095757600080fd5b5080359060208101359060400135611b4d565b6104c76004803603604081101561098057600080fd5b5080359060200135611cfa565b6104c7600480360360408110156109a357600080fd5b5080359060200135611d14565b6109d6600480360360208110156109c657600080fd5b50356001600160a01b0316611d2e565b6040805163ffffffff9092168252519081900360200190f35b6104c7611d46565b6104c760048036036020811015610a0d57600080fd5b5035611f0e565b610498611f77565b61049860048036036020811015610a3257600080fd5b5035611f94565b6107a960048036036020811015610a4f57600080fd5b5035611fa6565b6104c760048036036020811015610a6c57600080fd5b5035611fc1565b6107a960048036036040811015610a8957600080fd5b50803590602001356120be565b610ac260048036036040811015610aac57600080fd5b50803590602001356001600160a01b03166120e5565b604080519115158252519081900360200190f35b61049860048036036020811015610aec57600080fd5b503563ffffffff16612103565b61049860048036036040811015610b0f57600080fd5b5080359060200135612128565b6107a9612145565b610498612154565b610498612171565b6107a9612176565b61049860048036036020811015610b5257600080fd5b5035612185565b6104c760048036036040811015610b6f57600080fd5b506001600160a01b038135169060200135612197565b6104c760048036036020811015610b9b57600080fd5b50356121f9565b6104c760048036036040811015610bb857600080fd5b5063ffffffff81351690602001356122f6565b6107a961237d565b61049860048036036040811015610be957600080fd5b508035906020013561238c565b6104c7600480360360c0811015610c0c57600080fd5b506001600160a01b038135811691602081013582169160408201358116916060810135821691608082013581169160a00135166123ba565b6107a96125ac565b6104c760048036036020811015610c6257600080fd5b50356125bb565b6107a96126bb565b61049860048036036040811015610c8757600080fd5b50803590602001356126ca565b61049860048036036020811015610caa57600080fd5b503563ffffffff166126e7565b61049860048036036020811015610ccd57600080fd5b503561270c565b6107a960048036036020811015610cea57600080fd5b5035612723565b6104c760048036036060811015610d0757600080fd5b508035906020810135906040013561273e565b6104c760048036036020811015610d3057600080fd5b50356128d2565b6104986129d1565b6104c760048036036040811015610d5557600080fd5b50803590602001356001600160a01b03166129d6565b6104c760048036036040811015610d8157600080fd5b5063ffffffff8135169060200135612a2f565b6104c760048036036040811015610daa57600080fd5b5080359060200135612b54565b6107a960048036036020811015610dcd57600080fd5b5035612d30565b6104c760048036036020811015610dea57600080fd5b50356001600160a01b0316612d4b565b61049860048036036020811015610e1057600080fd5b5035612db5565b610498612dc7565b6104c760048036036020811015610e3557600080fd5b5035612dcc565b6104c760048036036040811015610e5257600080fd5b506001600160a01b0381358116916020013516612ed1565b6107a960048036036020811015610e8057600080fd5b5035612f47565b61049860048036036020811015610e9d57600080fd5b5035612f62565b610498613070565b600281565b6001600052606b60205260008051602061399e833981519152546003028114610f11576040805162461bcd60e51b815260206004820152600d60248201526c496e76616c696420707269636560981b604482015290519081900360640190fd5b60016000908152606b60205260008051602061399e83398151915254610f3c91339160030290613075565b60016000908152606a6020527ff585789965ba69220d5ce3dc1b444eb22ff546f2650694fef8fafe9c26560af954604080516309a6ea2560e31b815233600482810191909152602482015290516001600160a01b0390921692634d3751289260448084019382900301818387803b158015610fb657600080fd5b505af1158015610fca573d6000803e3d6000fd5b5050505050565b610fd9613195565b6000918252606a602052604090912080546001600160a01b0319166001600160a01b03909216919091179055565b61100f613195565b60005b83811015610fca5782828281811061102657fe5b90506020020135606c600087878581811061103d57fe5b6020908102929092013583525081019190915260400160002055600101611012565b600881565b600981565b60006110ee606e60009054906101000a90046001600160a01b03166001600160a01b031663d52a37366040518163ffffffff1660e01b815260040160206040518083038186803b1580156110bc57600080fd5b505afa1580156110d0573d6000803e3d6000fd5b505050506040513d60208110156110e657600080fd5b50518361238c565b90506000841180156110ff57508381145b611140576040805162461bcd60e51b815260206004820152600d60248201526c496e76616c696420707269636560981b604482015290519081900360640190fd5b61114b338284613075565b606e54604080516310ea5ae360e11b81523360048201526024810186905290516001600160a01b03909216916321d4b5c69160448082019260009290919082900301818387803b15801561119e57600080fd5b505af11580156111b2573d6000803e3d6000fd5b50505050336001600160a01b03167f05b2506e8008d97a1714995cb312c9e597fe5a4d41e50d3410a28653e2065c9c606e60009054906101000a90046001600160a01b03166001600160a01b031663d52a37366040518163ffffffff1660e01b815260040160206040518083038186803b15801561122f57600080fd5b505afa158015611243573d6000803e3d6000fd5b505050506040513d602081101561125957600080fd5b50516040805191825260208201859052818101869052519081900360600190a250505050565b600781565b61128c613195565b60005b838110156112ed578282828181106112a357fe5b90506020020135606d600088815260200190815260200160002060008787858181106112cb57fe5b602090810292909201358352508101919091526040016000205560010161128f565b505050505050565b6000818152603360205260409020600201545b919050565b600081565b604080516347414d4560e01b8152905190819003600401902081565b6003600052606b602052600080516020613aa283398151915254811461138b576040805162461bcd60e51b815260206004820152600d60248201526c496e76616c696420707269636560981b604482015290519081900360640190fd5b60036000908152606b602052600080516020613aa2833981519152546113b391339190613075565b60036000908152606a6020527f165f0fc496c6f74e1376579ffc36bcfc90ef4779c44b9232cf0d606db3cc69d154604080516309a6ea2560e31b81523360048201526001602482015290516001600160a01b0390921692634d3751289260448084019382900301818387803b158015610fb657600080fd5b611433613195565b60008263ffffffff161180156114495750600081115b61148c576040805162461bcd60e51b815260206004820152600f60248201526e1a5b9d985b1a59081c995c5d595cdd608a1b604482015290519081900360640190fd5b63ffffffff9091166000908152600080516020613a248339815191526020526040902055565b6000828152603360205260409020600201546114d5906114d06131df565b6120e5565b6115105760405162461bcd60e51b815260040180806020018281038252602f81526020018061394f602f913960400191505060405180910390fd5b61151a82826131e3565b5050565b600181565b61152b6131df565b6001600160a01b0316816001600160a01b03161461157a5760405162461bcd60e51b815260040180806020018281038252602f815260200180613b2c602f913960400191505060405180910390fd5b61151a8282613252565b6000908152607160205260409020546001600160a01b031690565b6115a7613195565b600081116115ec576040805162461bcd60e51b815260206004820152600d60248201526c696e76616c696420707269636560981b604482015290519081900360640190fd5b606b602052600080516020613aa283398151915281905560008051602061397e833981519152819055600080516020613a0483398151915281905560066000526000805160206139be83398151915255565b6116496000336120e5565b611686576040805162461bcd60e51b81526020600482015260096024820152682737ba1030b236b4b760b91b604482015290519081900360640190fd5b606e80546001600160a01b0319166001600160a01b0392909216919091179055565b6000811180156116d9575063ffffffff82166000908152600080516020613ae2833981519152602052604090205481145b61171a576040805162461bcd60e51b815260206004820152600d60248201526c496e76616c696420707269636560981b604482015290519081900360640190fd5b63ffffffff82166000908152600080516020613ae2833981519152602052604081205461174991339190613075565b60076000908152606a6020527f6f348b5cbf762421908c85f80163988839db0cf17e0afd19a09b08f2a62697c254604080516304cf925d60e21b815233600482015263ffffffff861660248201526001604482015290516001600160a01b039092169263133e49749260648084019382900301818387803b1580156117cd57600080fd5b505af11580156112ed573d6000803e3d6000fd5b6117e9613195565b6000811161182e576040805162461bcd60e51b815260206004820152600d60248201526c696e76616c696420707269636560981b604482015290519081900360640190fd5b6001600052606b60205260008051602061399e83398151915255565b600054610100900460ff168061186357506118636132c1565b80611871575060005460ff16155b6118ac5760405162461bcd60e51b815260040180806020018281038252602e815260200180613a74602e913960400191505060405180910390fd5b600054610100900460ff161580156118d7576000805460ff1961ff0019909116610100171660011790555b6118df6132d2565b6118ea600033611510565b606580546001600160a01b038086166001600160a01b0319928316179092556066805492851692909116919091179055801561192c576000805461ff00191690555b505050565b6005600052606b602052600080516020613a0483398151915254811461198e576040805162461bcd60e51b815260206004820152600d60248201526c496e76616c696420707269636560981b604482015290519081900360640190fd5b60056000908152606b602052600080516020613a04833981519152546119b691339190613075565b60056000908152606a6020527fa5a863a6e87c617d261de6bc343a49a7006a56c5a168ec687d4bc4027b10d67d54604080516309a6ea2560e31b81523360048201526001602482015290516001600160a01b0390921692634d3751289260448084019382900301818387803b158015610fb657600080fd5b606c6020526000908152604090205481565b611a48613195565b60009182526071602052604090912080546001600160a01b0319166001600160a01b03909216919091179055565b611a7e613195565b600083118015611aaa57508080611aaa57506000838152607060205260409020546001600160a01b0316155b611ae4576040805162461bcd60e51b815260206004808301919091526024820152631d5cd95960e21b604482015290519081900360640190fd5b5060009182526070602052604090912080546001600160a01b0319166001600160a01b03909216919091179055565b606d60209081526000928352604080842090915290825290205481565b6003600052606b602052600080516020613aa28339815191525490565b611b55613195565b60008211611b9a576040805162461bcd60e51b815260206004820152600d60248201526c696e76616c696420707269636560981b604482015290519081900360640190fd5b606e60009054906101000a90046001600160a01b03166001600160a01b0316631928ada46040518163ffffffff1660e01b815260040160206040518083038186803b158015611be857600080fd5b505afa158015611bfc573d6000803e3d6000fd5b505050506040513d6020811015611c1257600080fd5b50518310801590611c9c5750606e60009054906101000a90046001600160a01b03166001600160a01b03166334f054206040518163ffffffff1660e01b815260040160206040518083038186803b158015611c6c57600080fd5b505afa158015611c80573d6000803e3d6000fd5b505050506040513d6020811015611c9657600080fd5b50518311155b611cdc576040805162461bcd60e51b815260206004820152600c60248201526b24b73b30b634b2103a34b2b960a11b604482015290519081900360640190fd5b6000908152606f602090815260408083209483529390529190912055565b611d02613195565b6000918252606b602052604090912055565b611d1c613195565b6000918252606c602052604090912055565b60676020526000908152604090205463ffffffff1681565b6009600052606b6020527f166f967450f7c49b259ac3c5610ba41d6e4162a81bccd5686ebb5f5a26afdd3854611d7b57600080fd5b6001600052606c6020527fdcf345d7f6a8deb7427d0fee62009fa15100353a1c666b51bb5387b25addcfa9548015611e16576002600052606c6020527f10c710fd141eb7b17da922e1c4c969d8a9a32bbe01938fd92b572aa39acba48154611de257600080fd5b6002600052606c6020527f10c710fd141eb7b17da922e1c4c969d8a9a32bbe01938fd92b572aa39acba48180546000190190555b60096000908152606b6020527f166f967450f7c49b259ac3c5610ba41d6e4162a81bccd5686ebb5f5a26afdd3854611e5091339190613075565b6068546040805133606081901b6020808401919091526000194301406034808501919091528451808503909101815260548401808652815191830191909120630ab714fb60e11b909152605884019290925260788301869052609883019190915291516001600160a01b039093169263156e29f69260b8808401939192918290030181600087803b158015611ee457600080fd5b505af1158015611ef8573d6000803e3d6000fd5b505050506040513d602081101561192c57600080fd5b611f16613195565b60008111611f5b576040805162461bcd60e51b815260206004820152600d60248201526c696e76616c696420707269636560981b604482015290519081900360640190fd5b6002600052606b602052600080516020613ac283398151915255565b6002600052606b602052600080516020613ac28339815191525490565b6000908152606b602052604090205490565b6071602052600090815260409020546001600160a01b031681565b6006600052606b6020526000805160206139be83398151915254811461201e576040805162461bcd60e51b815260206004820152600d60248201526c496e76616c696420707269636560981b604482015290519081900360640190fd5b60066000908152606b6020526000805160206139be8339815191525461204691339190613075565b60066000908152606a6020527f2bc834ff3bba3d80acb54a3bdc4d46c19ade4e4f4db21022926ce2a8be43777a54604080516309a6ea2560e31b81523360048201526001602482015290516001600160a01b0390921692634d3751289260448084019382900301818387803b158015610fb657600080fd5b60008281526033602052604081206120dc908363ffffffff61338416565b90505b92915050565b60008281526033602052604081206120dc908363ffffffff61339016565b63ffffffff166000908152600080516020613ae2833981519152602052604090205490565b606f60209081526000928352604080842090915290825290205481565b6068546001600160a01b031681565b6001600052606b60205260008051602061399e8339815191525490565b600681565b606e546001600160a01b031681565b606b6020526000908152604090205481565b6121a26000336120e5565b6121df576040805162461bcd60e51b81526020600482015260096024820152682737ba1030b236b4b760b91b604482015290519081900360640190fd5b61151a6001600160a01b038316338363ffffffff6133a516565b6002600052606b602052600080516020613ac2833981519152548114612256576040805162461bcd60e51b815260206004820152600d60248201526c496e76616c696420707269636560981b604482015290519081900360640190fd5b60026000908152606b602052600080516020613ac28339815191525461227e91339190613075565b60026000908152606a6020527f18c8cb20752177317b25472820acbe91cedcc3d2bcb99162a7a3edff04a1bf3f54604080516309a6ea2560e31b81523360048201526001602482015290516001600160a01b0390921692634d3751289260448084019382900301818387803b158015610fb657600080fd5b6122fe613195565b60008263ffffffff161180156123145750600081115b612357576040805162461bcd60e51b815260206004820152600f60248201526e1a5b9d985b1a59081c995c5d595cdd608a1b604482015290519081900360640190fd5b63ffffffff9091166000908152600080516020613ae28339815191526020526040902055565b6065546001600160a01b031681565b600061239782612f62565b6000838152606f6020908152604080832087845290915290205402905092915050565b6123c56000336120e5565b612402576040805162461bcd60e51b81526020600482015260096024820152682737ba1030b236b4b760b91b604482015290519081900360640190fd5b7ff585789965ba69220d5ce3dc1b444eb22ff546f2650694fef8fafe9c26560af980546001600160a01b03199081166001600160a01b03978816179091557f18c8cb20752177317b25472820acbe91cedcc3d2bcb99162a7a3edff04a1bf3f80548216978716979097179096557f165f0fc496c6f74e1376579ffc36bcfc90ef4779c44b9232cf0d606db3cc69d180548716948616949094179093557f4a9a49808009f9d4fd675708985b79ca45a9711808670d5c7929ee09c0aa2e6e80548616928516929092179091557fa5a863a6e87c617d261de6bc343a49a7006a56c5a168ec687d4bc4027b10d67d805485169184169190911790557f2bc834ff3bba3d80acb54a3bdc4d46c19ade4e4f4db21022926ce2a8be43777a80549093169116179055606b60205267016345785d8a000060008051602061399e833981519152819055600080516020613ac2833981519152556702c68af0bb140000600080516020613aa283398151915281905560008051602061397e833981519152819055600080516020613a0483398151915281905560066000526000805160206139be83398151915255565b6066546001600160a01b031681565b6004600052606b60205260008051602061397e833981519152548114612618576040805162461bcd60e51b815260206004820152600d60248201526c496e76616c696420707269636560981b604482015290519081900360640190fd5b60046000908152606b60205260008051602061397e8339815191525461264091339190613075565b60046000818152606a6020527f4a9a49808009f9d4fd675708985b79ca45a9711808670d5c7929ee09c0aa2e6e54604080516309a6ea2560e31b8152339481019490945260016024850152516001600160a01b0390911692634d37512892604480830193919282900301818387803b158015610fb657600080fd5b6069546001600160a01b031681565b6000918252606d6020908152604080842092845291905290205490565b63ffffffff166000908152600080516020613a24833981519152602052604090205490565b60008181526033602052604081206120df906133f7565b6000908152607060205260409020546001600160a01b031690565b6000612791606e60009054906101000a90046001600160a01b03166001600160a01b03166334f054206040518163ffffffff1660e01b815260040160206040518083038186803b1580156110bc57600080fd5b90506000841180156127a257508381145b6127e3576040805162461bcd60e51b815260206004820152600d60248201526c496e76616c696420707269636560981b604482015290519081900360640190fd5b6127ee338284613075565b606e54604080516361c31f7160e01b81523360048201526024810186905290516001600160a01b03909216916361c31f719160448082019260009290919082900301818387803b15801561284157600080fd5b505af1158015612855573d6000803e3d6000fd5b50505050336001600160a01b03167f05b2506e8008d97a1714995cb312c9e597fe5a4d41e50d3410a28653e2065c9c606e60009054906101000a90046001600160a01b03166001600160a01b03166334f054206040518163ffffffff1660e01b815260040160206040518083038186803b15801561122f57600080fd5b6001600052606b60205260008051602061399e83398151915254811461292f576040805162461bcd60e51b815260206004820152600d60248201526c496e76616c696420707269636560981b604482015290519081900360640190fd5b60016000908152606b60205260008051602061399e8339815191525461295791339190613075565b60016000818152606a6020527ff585789965ba69220d5ce3dc1b444eb22ff546f2650694fef8fafe9c26560af954604080516309a6ea2560e31b81523360048201526024810194909452516001600160a01b0390911692634d37512892604480830193919282900301818387803b158015610fb657600080fd5b600481565b6000828152603360205260409020600201546129f4906114d06131df565b61157a5760405162461bcd60e51b8152600401808060200182810382526030815260200180613a446030913960400191505060405180910390fd5b600081118015612a60575063ffffffff82166000908152600080516020613a24833981519152602052604090205481145b612aa1576040805162461bcd60e51b815260206004820152600d60248201526c496e76616c696420707269636560981b604482015290519081900360640190fd5b63ffffffff82166000908152600080516020613a248339815191526020526040812054612ad091339190613075565b60086000908152606a6020527fb8383e69e9d31515f193f40bb66d9cbca6eb245866b7aa96b97eaabdb765ed1854604080516304cf925d60e21b815233600482015263ffffffff861660248201526001604482015290516001600160a01b039092169263133e49749260648084019382900301818387803b1580156117cd57600080fd5b6000612ba7606e60009054906101000a90046001600160a01b03166001600160a01b0316631928ada46040518163ffffffff1660e01b815260040160206040518083038186803b1580156110bc57600080fd5b9050600083118015612bb857508281145b612bf9576040805162461bcd60e51b815260206004820152600d60248201526c496e76616c696420707269636560981b604482015290519081900360640190fd5b612c04338284613075565b606e5460408051638453f58b60e01b815233600482015290516001600160a01b0390921691638453f58b9160248082019260009290919082900301818387803b158015612c5057600080fd5b505af1158015612c64573d6000803e3d6000fd5b50505050336001600160a01b03167f05b2506e8008d97a1714995cb312c9e597fe5a4d41e50d3410a28653e2065c9c606e60009054906101000a90046001600160a01b03166001600160a01b0316631928ada46040518163ffffffff1660e01b815260040160206040518083038186803b158015612ce157600080fd5b505afa158015612cf5573d6000803e3d6000fd5b505050506040513d6020811015612d0b57600080fd5b50516040805191825260208201859052818101869052519081900360600190a2505050565b6000908152606a60205260409020546001600160a01b031690565b612d566000336120e5565b612d93576040805162461bcd60e51b81526020600482015260096024820152682737ba1030b236b4b760b91b604482015290519081900360640190fd5b606680546001600160a01b0319166001600160a01b0392909216919091179055565b6000908152606c602052604090205490565b600581565b6002600052606b602052600080516020613ac2833981519152546003028114612e2c576040805162461bcd60e51b815260206004820152600d60248201526c496e76616c696420707269636560981b604482015290519081900360640190fd5b60026000908152606b602052600080516020613ac283398151915254612e5791339160030290613075565b60026000908152606a6020527f18c8cb20752177317b25472820acbe91cedcc3d2bcb99162a7a3edff04a1bf3f54604080516309a6ea2560e31b815233600482810191909152602482015290516001600160a01b0390921692634d3751289260448084019382900301818387803b158015610fb657600080fd5b612edc6000336120e5565b612f19576040805162461bcd60e51b81526020600482015260096024820152682737ba1030b236b4b760b91b604482015290519081900360640190fd5b606880546001600160a01b039384166001600160a01b03199182161790915560698054929093169116179055565b606a602052600090815260409020546001600160a01b031681565b600081613006576001600052607160209081527f169c6be1b0e6ab5de76b532e587a77340130ac65c5591db02be822dcf1dc0ed65460408051634e8da32560e11b815290516001600160a01b0390921692639d1b464a92600480840193829003018186803b158015612fd357600080fd5b505afa158015612fe7573d6000803e3d6000fd5b505050506040513d6020811015612ffd57600080fd5b50519050611308565b6002600052607160209081527f407a0f41a795ee56754450306f8233d035a9d8585a6839c0ed097e1e0ca2dc4b5460408051634e8da32560e11b815290516001600160a01b0390921692639d1b464a92600480840193829003018186803b158015612fd357600080fd5b600381565b806131025760695460408051630cc41c0560e21b81526001600160a01b038681166004830152602482018690529151919092169163331070149160448083019260809291908290030181600087803b1580156130d057600080fd5b505af11580156130e4573d6000803e3d6000fd5b505050506040513d60808110156130fa57600080fd5b5061192c9050565b60008181526070602090815260408083205481516323b872dd60e01b81526001600160a01b03888116600483015230602483015260448201889052925192909116936323b872dd9360648084019491939192918390030190829087803b15801561316b57600080fd5b505af115801561317f573d6000803e3d6000fd5b505050506040513d6020811015610fca57600080fd5b6131a06000336120e5565b6131dd576040805162461bcd60e51b81526020600482015260096024820152682737ba1030b236b4b760b91b604482015290519081900360640190fd5b565b3390565b6000828152603360205260409020613201908263ffffffff61340216565b1561151a5761320e6131df565b6001600160a01b0316816001600160a01b0316837f2f8788117e7eff1d82e926ec794901d17c78024a50270940304540a733656f0d60405160405180910390a45050565b6000828152603360205260409020613270908263ffffffff61341716565b1561151a5761327d6131df565b6001600160a01b0316816001600160a01b0316837ff6391f5c32d9c69d2a47ea670b442974b53935d1edc7fd64eb21e047a839171b60405160405180910390a45050565b60006132cc3061342c565b15905090565b600054610100900460ff16806132eb57506132eb6132c1565b806132f9575060005460ff16155b6133345760405162461bcd60e51b815260040180806020018281038252602e815260200180613a74602e913960400191505060405180910390fd5b600054610100900460ff1615801561335f576000805460ff1961ff0019909116610100171660011790555b613367613432565b61336f613432565b8015613381576000805461ff00191690555b50565b60006120dc83836134d2565b60006120dc836001600160a01b038416613536565b604080516001600160a01b038416602482015260448082018490528251808303909101815260649091019091526020810180516001600160e01b031663a9059cbb60e01b17905261192c90849061354e565b60006120df826135ff565b60006120dc836001600160a01b038416613603565b60006120dc836001600160a01b03841661364d565b3b151590565b600054610100900460ff168061344b575061344b6132c1565b80613459575060005460ff16155b6134945760405162461bcd60e51b815260040180806020018281038252602e815260200180613a74602e913960400191505060405180910390fd5b600054610100900460ff1615801561336f576000805460ff1961ff0019909116610100171660011790558015613381576000805461ff001916905550565b815460009082106135145760405162461bcd60e51b815260040180806020018281038252602281526020018061392d6022913960400191505060405180910390fd5b82600001828154811061352357fe5b9060005260206000200154905092915050565b60009081526001919091016020526040902054151590565b60606135a3826040518060400160405280602081526020017f5361666545524332303a206c6f772d6c6576656c2063616c6c206661696c6564815250856001600160a01b03166137139092919063ffffffff16565b80519091501561192c578080602001905160208110156135c257600080fd5b505161192c5760405162461bcd60e51b815260040180806020018281038252602a815260200180613b02602a913960400191505060405180910390fd5b5490565b600061360f8383613536565b613645575081546001818101845560008481526020808220909301849055845484825282860190935260409020919091556120df565b5060006120df565b60008181526001830160205260408120548015613709578354600019808301919081019060009087908390811061368057fe5b906000526020600020015490508087600001848154811061369d57fe5b6000918252602080832090910192909255828152600189810190925260409020908401905586548790806136cd57fe5b600190038181906000526020600020016000905590558660010160008781526020019081526020016000206000905560019450505050506120df565b60009150506120df565b6060613722848460008561372c565b90505b9392505050565b60608247101561376d5760405162461bcd60e51b81526004018080602001828103825260268152602001806139de6026913960400191505060405180910390fd5b6137768561342c565b6137c7576040805162461bcd60e51b815260206004820152601d60248201527f416464726573733a2063616c6c20746f206e6f6e2d636f6e7472616374000000604482015290519081900360640190fd5b60006060866001600160a01b031685876040518082805190602001908083835b602083106138065780518252601f1990920191602091820191016137e7565b6001836020036101000a03801982511681845116808217855250505050505090500191505060006040518083038185875af1925050503d8060008114613868576040519150601f19603f3d011682016040523d82523d6000602084013e61386d565b606091505b509150915061387d828286613888565b979650505050505050565b60608315613897575081613725565b8251156138a75782518084602001fd5b8160405162461bcd60e51b81526004018080602001828103825283818151815260200191508051906020019080838360005b838110156138f15781810151838201526020016138d9565b50505050905090810190601f16801561391e5780820380516001836020036101000a031916815260200191505b509250505060405180910390fdfe456e756d657261626c655365743a20696e646578206f7574206f6620626f756e6473416363657373436f6e74726f6c3a2073656e646572206d75737420626520616e2061646d696e20746f206772616e74f0ae10cbc4b7e5d41a3a6c7f530e4919b2e487e56976cad1b0bf6c5c77e67915a775687211c2b3346a0f5a2a0e7590e6c1838453e3785e6dd2a8efd6265ddf156796320b8e2c9b173941a03e2e3a92bfaece7583011e9e3f639fd17445641da7416464726573733a20696e73756666696369656e742062616c616e636520666f722063616c6c4c3f232ddb73d929a78df2f30606bfd05ea9acc478c461d082d1d84494100a58d35fb35c5ddada1fd380c631c8ea483dcb01db1ec428be98b90f130c9cf9a368416363657373436f6e74726f6c3a2073656e646572206d75737420626520616e2061646d696e20746f207265766f6b65496e697469616c697a61626c653a20636f6e747261637420697320616c726561647920696e697469616c697a65644e5c7e8f4b1f6c9808b80aae6c41bbd046930d99f67f4e24136b55524acbcb0eb507b92927105c30ff6e8afc661972d5ba73e86e28bafa70cb531ddda52bdf047cbf0039808492e2b98de94b6e6fc8c1c5c16d45085ac5be065e94b3e81d442d5361666545524332303a204552433230206f7065726174696f6e20646964206e6f742073756363656564416363657373436f6e74726f6c3a2063616e206f6e6c792072656e6f756e636520726f6c657320666f722073656c66a264697066735822122049faae2bf2c8de41bf43b209ac85daada2dab674def97456b5defeb580c8159d64736f6c63430006050033",
  "immutableReferences": {},
  "source": "pragma solidity ^0.6.5;\r\n\r\nimport \"@openzeppelin/contracts-upgradeable/proxy/Initializable.sol\";\r\nimport \"@openzeppelin/contracts-upgradeable/access/AccessControlUpgradeable.sol\";\r\nimport \"@openzeppelin/contracts/token/ERC20/IERC20.sol\";\r\nimport \"@openzeppelin/contracts/token/ERC20/SafeERC20.sol\";\r\nimport \"./interfaces/IPriceOracle.sol\";\r\nimport \"./interfaces/IRandoms.sol\";\r\nimport \"./shields.sol\";\r\nimport \"./Consumables.sol\";\r\nimport \"./Cosmetics.sol\";\r\nimport \"./weapons.sol\";\r\nimport \"./cryptoblades.sol\";\r\nimport \"./CBKLandSale.sol\";\r\n\r\ncontract Blacksmith is Initializable, AccessControlUpgradeable {\r\n    using SafeERC20 for IERC20;\r\n    /* ========== CONSTANTS ========== */\r\n\r\n    bytes32 public constant GAME = keccak256(\"GAME\");\r\n\r\n    uint256 public constant ITEM_WEAPON_RENAME = 1;\r\n    uint256 public constant ITEM_CHARACTER_RENAME = 2;\r\n    uint256 public constant ITEM_CHARACTER_TRAITCHANGE_FIRE = 3;\r\n    uint256 public constant ITEM_CHARACTER_TRAITCHANGE_EARTH = 4;\r\n    uint256 public constant ITEM_CHARACTER_TRAITCHANGE_WATER = 5;\r\n    uint256 public constant ITEM_CHARACTER_TRAITCHANGE_LIGHTNING = 6;\r\n    uint256 public constant ITEM_COSMETIC_WEAPON = 7; // series\r\n    uint256 public constant ITEM_COSMETIC_CHARACTER = 8; // series\r\n    uint256 public constant ITEM_SHIELD = 9;\r\n\r\n    uint256 public constant VAR_PURCHASE_SHIELD_TYPE = 1;\r\n    uint256 public constant VAR_PURCHASE_SHIELD_SUPPLY = 2; // only for non-0 type shields\r\n\r\n    uint256 public constant LINK_SKILL_ORACLE_2 = 1; // technically second skill oracle (it's separate)\r\n    uint256 public constant LINK_KING_ORACLE = 2;\r\n\r\n    uint256 public constant CURRENCY_SKILL = 0;\r\n    //uint256 public constant CURRENCY_KING = 1; // not referenced atm\r\n\r\n    /* ========== STATE VARIABLES ========== */\r\n\r\n    Weapons public weapons;\r\n    IRandoms public randoms;\r\n\r\n    mapping(address => uint32) public tickets;\r\n\r\n    Shields public shields;\r\n    CryptoBlades public game;\r\n\r\n\r\n    // keys: ITEM_ constant\r\n    mapping(uint256 => address) public itemAddresses;\r\n    mapping(uint256 => uint256) public itemFlatPrices;\r\n\r\n    mapping(uint256 => uint256) public numberParameters; // AKA \"vars\"\r\n\r\n    mapping(uint256 => mapping(uint256 => uint256)) public itemSeriesFlatPrices;\r\n    CBKLandSale public cbkLandSale;\r\n    // ERC20 => tier => price\r\n    mapping(uint256 => mapping(uint256 => uint256)) public landPrices;\r\n    mapping(uint256 => address) currencies;\r\n\r\n    mapping(uint256 => address) public links;\r\n\r\n    /* ========== INITIALIZERS AND MIGRATORS ========== */\r\n\r\n    function initialize(Weapons _weapons, IRandoms _randoms)\r\n        public\r\n        initializer\r\n    {\r\n        __AccessControl_init();\r\n\r\n        _setupRole(DEFAULT_ADMIN_ROLE, msg.sender);\r\n\r\n        weapons = _weapons;\r\n        randoms = _randoms;\r\n    }\r\n\r\n    function migrateRandoms(IRandoms _newRandoms) external {\r\n        require(hasRole(DEFAULT_ADMIN_ROLE, msg.sender), \"Not admin\");\r\n        randoms = _newRandoms;\r\n    }\r\n\r\n    function migrateTo_61c10da(Shields _shields, CryptoBlades _game) external {\r\n        require(hasRole(DEFAULT_ADMIN_ROLE, msg.sender), \"Not admin\");\r\n\r\n        shields = _shields;\r\n        game = _game;\r\n    }\r\n\r\n    function migrateTo_16884dd(\r\n        address _characterRename,\r\n        address _weaponRename,\r\n        address _charFireTraitChange,\r\n        address _charEarthTraitChange,\r\n        address _charWaterTraitChange,\r\n        address _charLightningTraitChange\r\n    ) external {\r\n        require(hasRole(DEFAULT_ADMIN_ROLE, msg.sender), \"Not admin\");\r\n        itemAddresses[ITEM_WEAPON_RENAME] = _weaponRename;\r\n        itemAddresses[ITEM_CHARACTER_RENAME] = _characterRename;\r\n        itemAddresses[ITEM_CHARACTER_TRAITCHANGE_FIRE] = _charFireTraitChange;\r\n        itemAddresses[ITEM_CHARACTER_TRAITCHANGE_EARTH] = _charEarthTraitChange;\r\n        itemAddresses[ITEM_CHARACTER_TRAITCHANGE_WATER] = _charWaterTraitChange;\r\n        itemAddresses[ITEM_CHARACTER_TRAITCHANGE_LIGHTNING] = _charLightningTraitChange;\r\n\r\n        itemFlatPrices[ITEM_WEAPON_RENAME] = 0.1 ether;\r\n        itemFlatPrices[ITEM_CHARACTER_RENAME] = 0.1 ether;\r\n        itemFlatPrices[ITEM_CHARACTER_TRAITCHANGE_FIRE] = 0.2 ether;\r\n        itemFlatPrices[ITEM_CHARACTER_TRAITCHANGE_EARTH] = 0.2 ether;\r\n        itemFlatPrices[ITEM_CHARACTER_TRAITCHANGE_WATER] = 0.2 ether;\r\n        itemFlatPrices[ITEM_CHARACTER_TRAITCHANGE_LIGHTNING] = 0.2 ether;\r\n    }\r\n\r\n    function migrateTo_bcdf4c(CBKLandSale _cbkLandSale) external {\r\n        require(hasRole(DEFAULT_ADMIN_ROLE, msg.sender), \"Not admin\");\r\n\r\n        cbkLandSale = _cbkLandSale;\r\n    }\r\n\r\n    /* ========== VIEWS ========== */\r\n\r\n    /* ========== MUTATIVE FUNCTIONS ========== */\r\n\r\n    function recoverToken(address tokenAddress, uint256 amount) public {\r\n        require(hasRole(DEFAULT_ADMIN_ROLE, msg.sender), \"Not admin\");\r\n\r\n        IERC20(tokenAddress).safeTransfer(msg.sender, amount);\r\n    }\r\n\r\n    function purchaseShield() public {\r\n        require(itemFlatPrices[ITEM_SHIELD] > 0);\r\n\r\n        uint256 shieldType = numberParameters[VAR_PURCHASE_SHIELD_TYPE];\r\n        if(shieldType != 0) {\r\n            require(numberParameters[VAR_PURCHASE_SHIELD_SUPPLY] > 0);\r\n            numberParameters[VAR_PURCHASE_SHIELD_SUPPLY] -= 1;\r\n        }\r\n        payCurrency(msg.sender, itemFlatPrices[ITEM_SHIELD], CURRENCY_SKILL);\r\n        shields.mint(msg.sender, shieldType,\r\n            uint256(keccak256(abi.encodePacked(msg.sender, blockhash(block.number - 1)))));\r\n    }\r\n\r\n    /* ========== MODIFIERS ========== */\r\n\r\n    modifier onlyGame() {\r\n        require(hasRole(GAME, msg.sender), \"Only game\");\r\n        _;\r\n    }\r\n\r\n    modifier isAdmin() {\r\n         _isAdmin();\r\n        _;\r\n    }\r\n    \r\n    function _isAdmin() internal view {\r\n         require(hasRole(DEFAULT_ADMIN_ROLE, msg.sender), \"Not admin\");\r\n    }\r\n\r\n    /* ========== Generic Getters ========== */\r\n\r\n    function getAddressOfItem(uint256 itemIndex) public view returns(address) {\r\n        return itemAddresses[itemIndex];\r\n    }\r\n\r\n    function getFlatPriceOfItem(uint256 itemIndex) public view returns(uint256) {\r\n        return itemFlatPrices[itemIndex];\r\n    }\r\n\r\n    function getFlatPriceOfSeriesItem(uint256 itemIndex, uint256 seriesIndex) public view returns(uint256) {\r\n        return itemSeriesFlatPrices[itemIndex][seriesIndex];\r\n    }\r\n\r\n    function getCurrency(uint256 currency) public view returns (address) {\r\n        return currencies[currency];\r\n    }\r\n\r\n    function getLink(uint256 linkId) public view returns (address) {\r\n        return links[linkId];\r\n    }\r\n\r\n    function vars(uint256 varField) public view returns (uint256) {\r\n        return numberParameters[varField];\r\n    }\r\n\r\n    /* ========== Generic Setters ========== */\r\n\r\n    function setAddressOfItem(uint256 itemIndex, address to) external isAdmin {\r\n        itemAddresses[itemIndex] = to;\r\n    }\r\n\r\n    function setFlatPriceOfItem(uint256 itemIndex, uint256 flatWeiPrice) external isAdmin {\r\n        itemFlatPrices[itemIndex] = flatWeiPrice;\r\n    }\r\n\r\n    function setFlatPriceOfItemSeries(uint256 itemIndex,\r\n        uint256[] calldata seriesIndices,\r\n        uint256[] calldata seriesPrices\r\n    ) external isAdmin {\r\n        for(uint i = 0; i < seriesIndices.length; i++) {\r\n            itemSeriesFlatPrices[itemIndex][seriesIndices[i]] = seriesPrices[i];\r\n        }\r\n    }\r\n\r\n    function setCurrency(uint256 currency, address currencyAddress, bool forced) external isAdmin {\r\n        require(currency > 0 && (forced || currencies[currency] == address(0)), 'used');\r\n        currencies[currency] = currencyAddress;\r\n    }\r\n\r\n    function setLink(uint256 linkId, address linkAddress) external isAdmin {\r\n        links[linkId] = linkAddress;\r\n    }\r\n\r\n    function setVar(uint256 varField, uint256 value) external isAdmin {\r\n        numberParameters[varField] = value;\r\n    }\r\n\r\n    function setVars(uint256[] calldata varFields, uint256[] calldata values) external isAdmin {\r\n        for(uint i = 0; i < varFields.length; i++) {\r\n            numberParameters[varFields[i]] = values[i];\r\n        }\r\n    }\r\n\r\n    /* ========== Character Rename ========== */\r\n\r\n    function setCharacterRenamePrice(uint256 newPrice) external isAdmin {\r\n        require(newPrice > 0, 'invalid price');\r\n        itemFlatPrices[ITEM_CHARACTER_RENAME] = newPrice;\r\n    }\r\n\r\n    function characterRenamePrice() public view returns (uint256){\r\n        return itemFlatPrices[ITEM_CHARACTER_RENAME];\r\n    }\r\n\r\n    function purchaseCharacterRenameTag(uint256 paying) public {\r\n        require(paying == itemFlatPrices[ITEM_CHARACTER_RENAME], 'Invalid price');\r\n        payCurrency(msg.sender, itemFlatPrices[ITEM_CHARACTER_RENAME], CURRENCY_SKILL);\r\n        Consumables(itemAddresses[ITEM_CHARACTER_RENAME]).giveItem(msg.sender, 1);\r\n    }\r\n\r\n    function purchaseCharacterRenameTagDeal(uint256 paying) public { // 4 for the price of 3\r\n        require(paying == itemFlatPrices[ITEM_CHARACTER_RENAME] * 3, 'Invalid price');\r\n        payCurrency(msg.sender, itemFlatPrices[ITEM_CHARACTER_RENAME] * 3, CURRENCY_SKILL);\r\n        Consumables(itemAddresses[ITEM_CHARACTER_RENAME]).giveItem(msg.sender, 4);\r\n    }\r\n\r\n    /* ========== Weapon Rename ========== */\r\n\r\n    function setWeaponRenamePrice(uint256 newPrice) external isAdmin {\r\n        require(newPrice > 0, 'invalid price');\r\n        itemFlatPrices[ITEM_WEAPON_RENAME] = newPrice;\r\n    }\r\n\r\n    function weaponRenamePrice() public view returns (uint256){\r\n        return itemFlatPrices[ITEM_WEAPON_RENAME];\r\n    }\r\n\r\n    function purchaseWeaponRenameTag(uint256 paying) public {\r\n        require(paying == itemFlatPrices[ITEM_WEAPON_RENAME], 'Invalid price');\r\n        payCurrency(msg.sender, itemFlatPrices[ITEM_WEAPON_RENAME], CURRENCY_SKILL);\r\n        Consumables(itemAddresses[ITEM_WEAPON_RENAME]).giveItem(msg.sender, 1);\r\n    }\r\n\r\n    function purchaseWeaponRenameTagDeal(uint256 paying) public { // 4 for the price of 3\r\n        require(paying == itemFlatPrices[ITEM_WEAPON_RENAME] * 3, 'Invalid price');\r\n        payCurrency(msg.sender, itemFlatPrices[ITEM_WEAPON_RENAME] * 3, CURRENCY_SKILL);\r\n        Consumables(itemAddresses[ITEM_WEAPON_RENAME]).giveItem(msg.sender, 4);\r\n    }\r\n\r\n     /* ========== Character Trait Change ========== */\r\n\r\n     function setCharacterTraitChangePrice(uint256 newPrice) external isAdmin {\r\n        require(newPrice > 0, 'invalid price');\r\n        itemFlatPrices[ITEM_CHARACTER_TRAITCHANGE_FIRE] = newPrice;\r\n        itemFlatPrices[ITEM_CHARACTER_TRAITCHANGE_EARTH] = newPrice;\r\n        itemFlatPrices[ITEM_CHARACTER_TRAITCHANGE_WATER] = newPrice;\r\n        itemFlatPrices[ITEM_CHARACTER_TRAITCHANGE_LIGHTNING] = newPrice;\r\n    }\r\n\r\n     function characterTraitChangePrice() public view returns (uint256){\r\n        return itemFlatPrices[ITEM_CHARACTER_TRAITCHANGE_FIRE];\r\n    }\r\n\r\n    function purchaseCharacterFireTraitChange(uint256 paying) public {\r\n        require(paying == itemFlatPrices[ITEM_CHARACTER_TRAITCHANGE_FIRE], 'Invalid price');\r\n        payCurrency(msg.sender, itemFlatPrices[ITEM_CHARACTER_TRAITCHANGE_FIRE], CURRENCY_SKILL);\r\n        Consumables(itemAddresses[ITEM_CHARACTER_TRAITCHANGE_FIRE]).giveItem(msg.sender, 1);\r\n    }\r\n\r\n    function purchaseCharacterEarthTraitChange(uint256 paying) public {\r\n        require(paying == itemFlatPrices[ITEM_CHARACTER_TRAITCHANGE_EARTH], 'Invalid price');\r\n        payCurrency(msg.sender, itemFlatPrices[ITEM_CHARACTER_TRAITCHANGE_EARTH], CURRENCY_SKILL);\r\n        Consumables(itemAddresses[ITEM_CHARACTER_TRAITCHANGE_EARTH]).giveItem(msg.sender, 1);\r\n    }\r\n\r\n    function purchaseCharacterWaterTraitChange(uint256 paying) public {\r\n        require(paying == itemFlatPrices[ITEM_CHARACTER_TRAITCHANGE_WATER], 'Invalid price');\r\n        payCurrency(msg.sender, itemFlatPrices[ITEM_CHARACTER_TRAITCHANGE_WATER], CURRENCY_SKILL);\r\n        Consumables(itemAddresses[ITEM_CHARACTER_TRAITCHANGE_WATER]).giveItem(msg.sender, 1);\r\n    }\r\n\r\n    function purchaseCharacterLightningTraitChange(uint256 paying) public {\r\n        require(paying == itemFlatPrices[ITEM_CHARACTER_TRAITCHANGE_LIGHTNING], 'Invalid price');\r\n        payCurrency(msg.sender, itemFlatPrices[ITEM_CHARACTER_TRAITCHANGE_LIGHTNING], CURRENCY_SKILL);\r\n        Consumables(itemAddresses[ITEM_CHARACTER_TRAITCHANGE_LIGHTNING]).giveItem(msg.sender, 1);\r\n    }\r\n\r\n\r\n    /* ========== Weapon cosmetics ========== */\r\n    function setWeaponCosmeticPrice(uint32 cosmetic, uint256 newPrice) external isAdmin {\r\n        require(cosmetic > 0 && newPrice > 0, 'invalid request');\r\n        itemSeriesFlatPrices[ITEM_COSMETIC_WEAPON][cosmetic] = newPrice;\r\n    }\r\n\r\n     function getWeaponCosmeticPrice(uint32 cosmetic) public view returns (uint256){\r\n        return itemSeriesFlatPrices[ITEM_COSMETIC_WEAPON][cosmetic];\r\n    }\r\n\r\n    function purchaseWeaponCosmetic(uint32 cosmetic, uint256 paying) public {\r\n        require(paying > 0 && paying == itemSeriesFlatPrices[ITEM_COSMETIC_WEAPON][cosmetic], 'Invalid price');\r\n        payCurrency(msg.sender, itemSeriesFlatPrices[ITEM_COSMETIC_WEAPON][cosmetic], CURRENCY_SKILL);\r\n        Cosmetics(itemAddresses[ITEM_COSMETIC_WEAPON]).giveCosmetic(msg.sender, cosmetic, 1);\r\n    }\r\n\r\n    /* ========== Character cosmetics ========== */\r\n    function setCharacterCosmeticPrice(uint32 cosmetic, uint256 newPrice) external isAdmin {\r\n        require(cosmetic > 0 && newPrice > 0, 'invalid request');\r\n        itemSeriesFlatPrices[ITEM_COSMETIC_CHARACTER][cosmetic] = newPrice;\r\n    }\r\n\r\n     function getCharacterCosmeticPrice(uint32 cosmetic) public view returns (uint256){\r\n        return itemSeriesFlatPrices[ITEM_COSMETIC_CHARACTER][cosmetic];\r\n    }\r\n\r\n    function purchaseCharacterCosmetic(uint32 cosmetic, uint256 paying) public {\r\n        require(paying > 0 && paying == itemSeriesFlatPrices[ITEM_COSMETIC_CHARACTER][cosmetic], 'Invalid price');\r\n        payCurrency(msg.sender, itemSeriesFlatPrices[ITEM_COSMETIC_CHARACTER][cosmetic], CURRENCY_SKILL);\r\n        Cosmetics(itemAddresses[ITEM_COSMETIC_CHARACTER]).giveCosmetic(msg.sender, cosmetic, 1);\r\n    }\r\n\r\n    /* ========== CBK Land sale ========== */\r\n\r\n    event CBKLandPurchased(address indexed owner, uint256 tier, uint256 price, uint256 currency);\r\n\r\n    function purchaseT1CBKLand(uint256 paying, uint256 currency) public {\r\n        uint256 price = getCBKLandPrice(cbkLandSale.TIER_ONE(), currency);\r\n        require(paying > 0 && price == paying, 'Invalid price');\r\n        payCurrency(msg.sender, price, currency);\r\n        cbkLandSale.giveT1Land(msg.sender);\r\n        emit CBKLandPurchased(msg.sender, cbkLandSale.TIER_ONE(), price, currency);\r\n    }\r\n\r\n    function purchaseT2CBKLand(uint256 paying, uint256 chunkId, uint256 currency) public {\r\n        uint256 price = getCBKLandPrice(cbkLandSale.TIER_TWO(), currency);\r\n        require(paying > 0 && price == paying,  'Invalid price');\r\n        payCurrency(msg.sender, price, currency);\r\n        cbkLandSale.giveT2Land(msg.sender, chunkId);\r\n        emit CBKLandPurchased(msg.sender, cbkLandSale.TIER_TWO(), price, currency);\r\n    }\r\n\r\n    function purchaseT3CBKLand(uint256 paying, uint256 chunkId, uint256 currency) public {\r\n        uint256 price = getCBKLandPrice(cbkLandSale.TIER_THREE(), currency);\r\n        require(paying > 0 && price == paying, 'Invalid price');\r\n        payCurrency(msg.sender, price, currency);\r\n        cbkLandSale.giveT3Land(msg.sender, chunkId);\r\n        emit CBKLandPurchased(msg.sender, cbkLandSale.TIER_THREE(), price, currency);\r\n    }\r\n\r\n    function getCBKLandPrice(uint256 tier, uint256 currency) public view returns (uint256){\r\n        return landPrices[currency][tier] * getOracledTokenPerUSD(currency);\r\n    }\r\n\r\n    function getOracledTokenPerUSD(uint256 currency) public view returns (uint256) {\r\n        if(currency == CURRENCY_SKILL) {\r\n            return IPriceOracle(links[LINK_SKILL_ORACLE_2]).currentPrice();\r\n        }\r\n        else {\r\n            return IPriceOracle(links[LINK_KING_ORACLE]).currentPrice();\r\n        }\r\n    }\r\n\r\n    function setCBKLandPrice(uint256 tier, uint256 newPrice, uint256 currency) external isAdmin {\r\n        require(newPrice > 0, 'invalid price');\r\n        require(tier >= cbkLandSale.TIER_ONE() && tier <= cbkLandSale.TIER_THREE(), \"Invalid tier\");\r\n        landPrices[currency][tier] = newPrice;\r\n    }\r\n\r\n    function payCurrency(address payer, uint256 paying, uint256 currency) internal {\r\n        if(currency == CURRENCY_SKILL){\r\n             game.payContractConvertedSupportingStaked(payer, paying);\r\n        }\r\n        else {\r\n            IERC20(currencies[currency]).transferFrom(payer, address(this), paying);\r\n        }\r\n    }\r\n}\r\n",
  "sourcePath": "K:\\\\cryptoblades1\\cryptoblades\\contracts\\Blacksmith.sol",
  "compiler": {
    "name": "solc",
    "version": "0.6.5+commit.f956cc89.Emscripten.clang"
  },
  "schemaVersion": "3.4.5",
  "updatedAt": "2022-09-25T08:09:46.515Z",
  "networkType": "ethereum",
  "devdoc": {
    "methods": {
      "getRoleAdmin(bytes32)": {
        "details": "Returns the admin role that controls `role`. See {grantRole} and {revokeRole}.     * To change a role's admin, use {_setRoleAdmin}."
      },
      "getRoleMember(bytes32,uint256)": {
        "details": "Returns one of the accounts that have `role`. `index` must be a value between 0 and {getRoleMemberCount}, non-inclusive.     * Role bearers are not sorted in any particular way, and their ordering may change at any point.     * WARNING: When using {getRoleMember} and {getRoleMemberCount}, make sure you perform all queries on the same block. See the following https://forum.openzeppelin.com/t/iterating-over-elements-on-enumerableset-in-openzeppelin-contracts/2296[forum post] for more information."
      },
      "getRoleMemberCount(bytes32)": {
        "details": "Returns the number of accounts that have `role`. Can be used together with {getRoleMember} to enumerate all bearers of a role."
      },
      "grantRole(bytes32,address)": {
        "details": "Grants `role` to `account`.     * If `account` had not been already granted `role`, emits a {RoleGranted} event.     * Requirements:     * - the caller must have ``role``'s admin role."
      },
      "hasRole(bytes32,address)": {
        "details": "Returns `true` if `account` has been granted `role`."
      },
      "renounceRole(bytes32,address)": {
        "details": "Revokes `role` from the calling account.     * Roles are often managed via {grantRole} and {revokeRole}: this function's purpose is to provide a mechanism for accounts to lose their privileges if they are compromised (such as when a trusted device is misplaced).     * If the calling account had been granted `role`, emits a {RoleRevoked} event.     * Requirements:     * - the caller must be `account`."
      },
      "revokeRole(bytes32,address)": {
        "details": "Revokes `role` from `account`.     * If `account` had been granted `role`, emits a {RoleRevoked} event.     * Requirements:     * - the caller must have ``role``'s admin role."
      }
    }
  },
  "userdoc": {
    "methods": {}
  }
}