{
  "contractName": "BurningManager",
  "abi": [
    {
      "anonymous": false,
      "inputs": [
        {
          "indexed": true,
          "internalType": "bytes32",
          "name": "role",
          "type": "bytes32"
        },
        {
          "indexed": true,
          "internalType": "bytes32",
          "name": "previousAdminRole",
          "type": "bytes32"
        },
        {
          "indexed": true,
          "internalType": "bytes32",
          "name": "newAdminRole",
          "type": "bytes32"
        }
      ],
      "name": "RoleAdminChanged",
      "type": "event"
    },
    {
      "anonymous": false,
      "inputs": [
        {
          "indexed": true,
          "internalType": "bytes32",
          "name": "role",
          "type": "bytes32"
        },
        {
          "indexed": true,
          "internalType": "address",
          "name": "account",
          "type": "address"
        },
        {
          "indexed": true,
          "internalType": "address",
          "name": "sender",
          "type": "address"
        }
      ],
      "name": "RoleGranted",
      "type": "event"
    },
    {
      "anonymous": false,
      "inputs": [
        {
          "indexed": true,
          "internalType": "bytes32",
          "name": "role",
          "type": "bytes32"
        },
        {
          "indexed": true,
          "internalType": "address",
          "name": "account",
          "type": "address"
        },
        {
          "indexed": true,
          "internalType": "address",
          "name": "sender",
          "type": "address"
        }
      ],
      "name": "RoleRevoked",
      "type": "event"
    },
    {
      "inputs": [],
      "name": "BURNER_ROLE",
      "outputs": [
        {
          "internalType": "bytes32",
          "name": "",
          "type": "bytes32"
        }
      ],
      "stateMutability": "view",
      "type": "function",
      "constant": true
    },
    {
      "inputs": [],
      "name": "DEFAULT_ADMIN_ROLE",
      "outputs": [
        {
          "internalType": "bytes32",
          "name": "",
          "type": "bytes32"
        }
      ],
      "stateMutability": "view",
      "type": "function",
      "constant": true
    },
    {
      "inputs": [],
      "name": "GAME_ADMIN",
      "outputs": [
        {
          "internalType": "bytes32",
          "name": "",
          "type": "bytes32"
        }
      ],
      "stateMutability": "view",
      "type": "function",
      "constant": true
    },
    {
      "inputs": [],
      "name": "PAYMENT_USING_STAKED_SKILL_COST_AFTER_DISCOUNT",
      "outputs": [
        {
          "internalType": "int128",
          "name": "",
          "type": "int128"
        }
      ],
      "stateMutability": "view",
      "type": "function",
      "constant": true
    },
    {
      "inputs": [],
      "name": "USERVAR_SOUL_SUPPLY",
      "outputs": [
        {
          "internalType": "uint256",
          "name": "",
          "type": "uint256"
        }
      ],
      "stateMutability": "view",
      "type": "function",
      "constant": true
    },
    {
      "inputs": [],
      "name": "VAR_BURN_POWER_MULTIPLIER",
      "outputs": [
        {
          "internalType": "uint256",
          "name": "",
          "type": "uint256"
        }
      ],
      "stateMutability": "view",
      "type": "function",
      "constant": true
    },
    {
      "inputs": [],
      "name": "VAR_ROI_DAYS",
      "outputs": [
        {
          "internalType": "uint256",
          "name": "",
          "type": "uint256"
        }
      ],
      "stateMutability": "view",
      "type": "function",
      "constant": true
    },
    {
      "inputs": [],
      "name": "burnWeaponFee",
      "outputs": [
        {
          "internalType": "int128",
          "name": "",
          "type": "int128"
        }
      ],
      "stateMutability": "view",
      "type": "function",
      "constant": true
    },
    {
      "inputs": [],
      "name": "characters",
      "outputs": [
        {
          "internalType": "contract Characters",
          "name": "",
          "type": "address"
        }
      ],
      "stateMutability": "view",
      "type": "function",
      "constant": true
    },
    {
      "inputs": [],
      "name": "game",
      "outputs": [
        {
          "internalType": "contract CryptoBlades",
          "name": "",
          "type": "address"
        }
      ],
      "stateMutability": "view",
      "type": "function",
      "constant": true
    },
    {
      "inputs": [],
      "name": "garrison",
      "outputs": [
        {
          "internalType": "contract Garrison",
          "name": "",
          "type": "address"
        }
      ],
      "stateMutability": "view",
      "type": "function",
      "constant": true
    },
    {
      "inputs": [
        {
          "internalType": "bytes32",
          "name": "role",
          "type": "bytes32"
        }
      ],
      "name": "getRoleAdmin",
      "outputs": [
        {
          "internalType": "bytes32",
          "name": "",
          "type": "bytes32"
        }
      ],
      "stateMutability": "view",
      "type": "function",
      "constant": true
    },
    {
      "inputs": [
        {
          "internalType": "bytes32",
          "name": "role",
          "type": "bytes32"
        },
        {
          "internalType": "uint256",
          "name": "index",
          "type": "uint256"
        }
      ],
      "name": "getRoleMember",
      "outputs": [
        {
          "internalType": "address",
          "name": "",
          "type": "address"
        }
      ],
      "stateMutability": "view",
      "type": "function",
      "constant": true
    },
    {
      "inputs": [
        {
          "internalType": "bytes32",
          "name": "role",
          "type": "bytes32"
        }
      ],
      "name": "getRoleMemberCount",
      "outputs": [
        {
          "internalType": "uint256",
          "name": "",
          "type": "uint256"
        }
      ],
      "stateMutability": "view",
      "type": "function",
      "constant": true
    },
    {
      "inputs": [
        {
          "internalType": "bytes32",
          "name": "role",
          "type": "bytes32"
        },
        {
          "internalType": "address",
          "name": "account",
          "type": "address"
        }
      ],
      "name": "grantRole",
      "outputs": [],
      "stateMutability": "nonpayable",
      "type": "function"
    },
    {
      "inputs": [
        {
          "internalType": "bytes32",
          "name": "role",
          "type": "bytes32"
        },
        {
          "internalType": "address",
          "name": "account",
          "type": "address"
        }
      ],
      "name": "hasRole",
      "outputs": [
        {
          "internalType": "bool",
          "name": "",
          "type": "bool"
        }
      ],
      "stateMutability": "view",
      "type": "function",
      "constant": true
    },
    {
      "inputs": [],
      "name": "priceOracleSkillPerUsd",
      "outputs": [
        {
          "internalType": "contract IPriceOracle",
          "name": "",
          "type": "address"
        }
      ],
      "stateMutability": "view",
      "type": "function",
      "constant": true
    },
    {
      "inputs": [],
      "name": "reforgeWeaponFee",
      "outputs": [
        {
          "internalType": "int128",
          "name": "",
          "type": "int128"
        }
      ],
      "stateMutability": "view",
      "type": "function",
      "constant": true
    },
    {
      "inputs": [],
      "name": "reforgeWeaponWithDustFee",
      "outputs": [
        {
          "internalType": "int128",
          "name": "",
          "type": "int128"
        }
      ],
      "stateMutability": "view",
      "type": "function",
      "constant": true
    },
    {
      "inputs": [
        {
          "internalType": "bytes32",
          "name": "role",
          "type": "bytes32"
        },
        {
          "internalType": "address",
          "name": "account",
          "type": "address"
        }
      ],
      "name": "renounceRole",
      "outputs": [],
      "stateMutability": "nonpayable",
      "type": "function"
    },
    {
      "inputs": [
        {
          "internalType": "bytes32",
          "name": "role",
          "type": "bytes32"
        },
        {
          "internalType": "address",
          "name": "account",
          "type": "address"
        }
      ],
      "name": "revokeRole",
      "outputs": [],
      "stateMutability": "nonpayable",
      "type": "function"
    },
    {
      "inputs": [
        {
          "internalType": "address",
          "name": "",
          "type": "address"
        },
        {
          "internalType": "uint256",
          "name": "",
          "type": "uint256"
        }
      ],
      "name": "userVars",
      "outputs": [
        {
          "internalType": "uint256",
          "name": "",
          "type": "uint256"
        }
      ],
      "stateMutability": "view",
      "type": "function",
      "constant": true
    },
    {
      "inputs": [
        {
          "internalType": "uint256",
          "name": "",
          "type": "uint256"
        }
      ],
      "name": "vars",
      "outputs": [
        {
          "internalType": "uint256",
          "name": "",
          "type": "uint256"
        }
      ],
      "stateMutability": "view",
      "type": "function",
      "constant": true
    },
    {
      "inputs": [],
      "name": "weapons",
      "outputs": [
        {
          "internalType": "contract Weapons",
          "name": "",
          "type": "address"
        }
      ],
      "stateMutability": "view",
      "type": "function",
      "constant": true
    },
    {
      "inputs": [
        {
          "internalType": "contract Characters",
          "name": "_characters",
          "type": "address"
        },
        {
          "internalType": "contract Garrison",
          "name": "_garrison",
          "type": "address"
        },
        {
          "internalType": "contract CryptoBlades",
          "name": "_game",
          "type": "address"
        }
      ],
      "name": "initialize",
      "outputs": [],
      "stateMutability": "nonpayable",
      "type": "function"
    },
    {
      "inputs": [
        {
          "internalType": "contract Weapons",
          "name": "_weapons",
          "type": "address"
        },
        {
          "internalType": "contract IPriceOracle",
          "name": "_priceOracleSkillPerUsd",
          "type": "address"
        }
      ],
      "name": "migrateTo_e1fe97c",
      "outputs": [],
      "stateMutability": "nonpayable",
      "type": "function"
    },
    {
      "inputs": [
        {
          "internalType": "uint256[]",
          "name": "burnIds",
          "type": "uint256[]"
        }
      ],
      "name": "burnCharactersFee",
      "outputs": [
        {
          "internalType": "uint256",
          "name": "",
          "type": "uint256"
        }
      ],
      "stateMutability": "view",
      "type": "function",
      "constant": true
    },
    {
      "inputs": [
        {
          "internalType": "uint256",
          "name": "burnId",
          "type": "uint256"
        }
      ],
      "name": "burnCharacterFee",
      "outputs": [
        {
          "internalType": "uint256",
          "name": "",
          "type": "uint256"
        }
      ],
      "stateMutability": "view",
      "type": "function",
      "constant": true
    },
    {
      "inputs": [
        {
          "internalType": "int128",
          "name": "usdAmount",
          "type": "int128"
        }
      ],
      "name": "usdToSkill",
      "outputs": [
        {
          "internalType": "uint256",
          "name": "",
          "type": "uint256"
        }
      ],
      "stateMutability": "view",
      "type": "function",
      "constant": true
    },
    {
      "inputs": [
        {
          "internalType": "uint256",
          "name": "burnId",
          "type": "uint256"
        }
      ],
      "name": "burnCharacterFromMarket",
      "outputs": [],
      "stateMutability": "nonpayable",
      "type": "function"
    },
    {
      "inputs": [
        {
          "internalType": "uint256[]",
          "name": "burnIds",
          "type": "uint256[]"
        },
        {
          "internalType": "uint256",
          "name": "targetId",
          "type": "uint256"
        }
      ],
      "name": "burnCharactersIntoCharacter",
      "outputs": [],
      "stateMutability": "nonpayable",
      "type": "function"
    },
    {
      "inputs": [
        {
          "internalType": "uint256[]",
          "name": "burnIds",
          "type": "uint256[]"
        }
      ],
      "name": "burnCharactersIntoSoul",
      "outputs": [],
      "stateMutability": "nonpayable",
      "type": "function"
    },
    {
      "inputs": [
        {
          "internalType": "address",
          "name": "targetAddress",
          "type": "address"
        },
        {
          "internalType": "uint256",
          "name": "soulAmount",
          "type": "uint256"
        }
      ],
      "name": "transferSoul",
      "outputs": [],
      "stateMutability": "nonpayable",
      "type": "function"
    },
    {
      "inputs": [
        {
          "internalType": "uint256",
          "name": "targetId",
          "type": "uint256"
        },
        {
          "internalType": "uint256",
          "name": "soulAmount",
          "type": "uint256"
        }
      ],
      "name": "upgradeCharacterWithSoul",
      "outputs": [],
      "stateMutability": "nonpayable",
      "type": "function"
    },
    {
      "inputs": [
        {
          "internalType": "uint256[]",
          "name": "burnIDs",
          "type": "uint256[]"
        }
      ],
      "name": "burnWeapons",
      "outputs": [],
      "stateMutability": "nonpayable",
      "type": "function"
    },
    {
      "inputs": [
        {
          "internalType": "uint256",
          "name": "reforgeID",
          "type": "uint256"
        },
        {
          "internalType": "uint256",
          "name": "burnID",
          "type": "uint256"
        }
      ],
      "name": "reforgeWeapon",
      "outputs": [],
      "stateMutability": "nonpayable",
      "type": "function"
    },
    {
      "inputs": [
        {
          "internalType": "uint256",
          "name": "reforgeID",
          "type": "uint256"
        },
        {
          "internalType": "uint8",
          "name": "amountLB",
          "type": "uint8"
        },
        {
          "internalType": "uint8",
          "name": "amount4B",
          "type": "uint8"
        },
        {
          "internalType": "uint8",
          "name": "amount5B",
          "type": "uint8"
        }
      ],
      "name": "reforgeWeaponWithDust",
      "outputs": [],
      "stateMutability": "nonpayable",
      "type": "function"
    },
    {
      "inputs": [
        {
          "internalType": "uint256[]",
          "name": "burnIDs",
          "type": "uint256[]"
        }
      ],
      "name": "burnWeaponsUsingStakedSkill",
      "outputs": [],
      "stateMutability": "nonpayable",
      "type": "function"
    },
    {
      "inputs": [
        {
          "internalType": "uint256",
          "name": "reforgeID",
          "type": "uint256"
        },
        {
          "internalType": "uint256",
          "name": "burnID",
          "type": "uint256"
        }
      ],
      "name": "reforgeWeaponUsingStakedSkill",
      "outputs": [],
      "stateMutability": "nonpayable",
      "type": "function"
    },
    {
      "inputs": [
        {
          "internalType": "uint256",
          "name": "reforgeID",
          "type": "uint256"
        },
        {
          "internalType": "uint8",
          "name": "amountLB",
          "type": "uint8"
        },
        {
          "internalType": "uint8",
          "name": "amount4B",
          "type": "uint8"
        },
        {
          "internalType": "uint8",
          "name": "amount5B",
          "type": "uint8"
        }
      ],
      "name": "reforgeWeaponWithDustUsingStakedSkill",
      "outputs": [],
      "stateMutability": "nonpayable",
      "type": "function"
    },
    {
      "inputs": [
        {
          "internalType": "address",
          "name": "user",
          "type": "address"
        },
        {
          "internalType": "uint256",
          "name": "soulAmount",
          "type": "uint256"
        }
      ],
      "name": "giveAwaySoul",
      "outputs": [],
      "stateMutability": "nonpayable",
      "type": "function"
    },
    {
      "inputs": [
        {
          "internalType": "address",
          "name": "user",
          "type": "address"
        },
        {
          "internalType": "uint256",
          "name": "soulAmount",
          "type": "uint256"
        }
      ],
      "name": "burnSoul",
      "outputs": [],
      "stateMutability": "nonpayable",
      "type": "function"
    },
    {
      "inputs": [
        {
          "internalType": "uint256",
          "name": "varField",
          "type": "uint256"
        },
        {
          "internalType": "uint256",
          "name": "value",
          "type": "uint256"
        }
      ],
      "name": "setVar",
      "outputs": [],
      "stateMutability": "nonpayable",
      "type": "function"
    },
    {
      "inputs": [
        {
          "internalType": "uint256",
          "name": "cents",
          "type": "uint256"
        }
      ],
      "name": "setBurnWeaponValue",
      "outputs": [],
      "stateMutability": "nonpayable",
      "type": "function"
    },
    {
      "inputs": [
        {
          "internalType": "uint256",
          "name": "cents",
          "type": "uint256"
        }
      ],
      "name": "setReforgeWeaponValue",
      "outputs": [],
      "stateMutability": "nonpayable",
      "type": "function"
    },
    {
      "inputs": [
        {
          "internalType": "uint256",
          "name": "cents",
          "type": "uint256"
        }
      ],
      "name": "setReforgeWeaponWithDustValue",
      "outputs": [],
      "stateMutability": "nonpayable",
      "type": "function"
    }
  ],
  "bytecode": "0x608060405234801561001057600080fd5b50612ec3806100206000396000f3fe608060405234801561001057600080fd5b506004361061028a5760003560e01c80639462fa191161015c578063ca15c873116100ce578063d5ac062b11610087578063d5ac062b146108c3578063e6a9076a146108e0578063e71a136a146108fd578063f927695c1461091a578063fa80757814610946578063fc198342146109695761028a565b8063ca15c87314610737578063ce3330f614610754578063d056fe96146107f5578063d070bb5414610863578063d47270de1461086b578063d547741f146108975761028a565b8063a217fddf11610120578063a217fddf146106d7578063aa22548b146106df578063b7e1cd86146106e7578063c0c53b8b146106ef578063c3fe3e2814610727578063c563145a1461072f5761028a565b80639462fa1914610676578063979aacf71461067e5780639b4ca2101461069b5780639e93089c146106c75780639f8c964c146106cf5761028a565b806336568abe116102005780636c992a55116101b95780636c992a551461057a5780637533e3571461059d57806379bb76671461059d5780638c5e36af146105a55780639010d07c1461061357806391d14854146106365761028a565b806336568abe146104c15780633f7e1dd5146104ed5780634389afa9146105115780634bfe0fa71461052e5780635504d3d21461055157806359995f55146105595761028a565b8063253a499311610252578063253a499314610367578063282c51f31461039f5780632ba7f34c146103a75780632f10ba3c146103d55780632f2ff15d14610478578063359238aa146104a45761028a565b80630a8a92151461028f5780630bbca154146102c15780630fcb3fb7146102e6578063199a10711461031e578063248a9ca31461034a575b600080fd5b6102af600480360360208110156102a557600080fd5b5035600f0b610a0a565b60408051918252519081900360200190f35b6102e4600480360360408110156102d757600080fd5b5080359060200135610aa0565b005b6102e4600480360360808110156102fc57600080fd5b5080359060ff6020820135811691604081013582169160609091013516610b6e565b6102af6004803603604081101561033457600080fd5b506001600160a01b038135169060200135610c3c565b6102af6004803603602081101561036057600080fd5b5035610c59565b6102e46004803603608081101561037d57600080fd5b5080359060ff6020820135811691604081013582169160609091013516610c6e565b6102af610d2d565b6102e4600480360360408110156103bd57600080fd5b506001600160a01b0381358116916020013516610d50565b6102e4600480360360408110156103eb57600080fd5b810190602081018135600160201b81111561040557600080fd5b82018360208201111561041757600080fd5b803590602001918460208302840111600160201b8311171561043857600080fd5b9190808060200260200160405190810160405280939291908181526020018383602002808284376000920191909152509295505091359250610e1e915050565b6102e46004803603604081101561048e57600080fd5b50803590602001356001600160a01b0316610f89565b6102e4600480360360208110156104ba57600080fd5b5035610ff5565b6102e4600480360360408110156104d757600080fd5b50803590602001356001600160a01b0316611030565b6104f5611091565b604080516001600160a01b039092168252519081900360200190f35b6102e46004803603602081101561052757600080fd5b50356110a0565b6102e46004803603604081101561054457600080fd5b508035906020013561138a565b6102af611450565b610561611472565b60408051600f92830b90920b8252519081900360200190f35b6102e46004803603604081101561059057600080fd5b508035906020013561147b565b6102af611495565b6102e4600480360360208110156105bb57600080fd5b810190602081018135600160201b8111156105d557600080fd5b8201836020820111156105e757600080fd5b803590602001918460208302840111600160201b8311171561060857600080fd5b50909250905061149a565b6104f56004803603604081101561062957600080fd5b50803590602001356115d8565b6106626004803603604081101561064c57600080fd5b50803590602001356001600160a01b03166115fd565b604080519115158252519081900360200190f35b6104f561161b565b6102e46004803603602081101561069457600080fd5b503561162a565b6102e4600480360360408110156106b157600080fd5b506001600160a01b038135169060200135611689565b6102af6116bf565b6105616116c4565b6102af6116cd565b6105616116d2565b6104f56116e2565b6102e46004803603606081101561070557600080fd5b506001600160a01b0381358116916020810135821691604090910135166116f1565b6104f561180e565b61056161181d565b6102af6004803603602081101561074d57600080fd5b5035611829565b6102e46004803603602081101561076a57600080fd5b810190602081018135600160201b81111561078457600080fd5b82018360208201111561079657600080fd5b803590602001918460208302840111600160201b831117156107b757600080fd5b919080806020026020016040519081016040528093929190818152602001838360200280828437600092019190915250929550611840945050505050565b6102e46004803603602081101561080b57600080fd5b810190602081018135600160201b81111561082557600080fd5b82018360208201111561083757600080fd5b803590602001918460208302840111600160201b8311171561085857600080fd5b5090925090506119eb565b6104f5611b6d565b6102e46004803603604081101561088157600080fd5b506001600160a01b038135169060200135611b7c565b6102e4600480360360408110156108ad57600080fd5b50803590602001356001600160a01b0316611c20565b6102af600480360360208110156108d957600080fd5b5035611c79565b6102e4600480360360208110156108f657600080fd5b5035611ef7565b6102af6004803603602081101561091357600080fd5b5035611f69565b6102e46004803603604081101561093057600080fd5b506001600160a01b038135169060200135611f7b565b6102e46004803603604081101561095c57600080fd5b5080359060200135611fb8565b6102af6004803603602081101561097f57600080fd5b810190602081018135600160201b81111561099957600080fd5b8201836020820111156109ab57600080fd5b803590602001918460208302840111600160201b831117156109cc57600080fd5b91908080602002602001604051908101604052809392919081815260200183836020028082843760009201919091525092955061205a945050505050565b6000610a9a606d60009054906101000a90046001600160a01b03166001600160a01b0316639d1b464a6040518163ffffffff1660e01b815260040160206040518083038186803b158015610a5d57600080fd5b505afa158015610a71573d6000803e3d6000fd5b505050506040513d6020811015610a8757600080fd5b5051600f84900b9063ffffffff61209716565b92915050565b81610aaa816120ff565b81610ab4816120ff565b606b54600090610ad990600f90810b900b67cccccccccccccccc63ffffffff61218c16565b6066549091506001600160a01b031662201e8b33610af684610a0a565b6040518363ffffffff1660e01b815260040180836001600160a01b03166001600160a01b0316815260200182815260200192505050600060405180830381600087803b158015610b4557600080fd5b505af1158015610b59573d6000803e3d6000fd5b50505050610b6785856121cc565b5050505050565b83610b78816120ff565b606a54600090610ba490600160801b9004600f90810b900b67cccccccccccccccc63ffffffff61218c16565b6066549091506001600160a01b031662201e8b33610bc184610a0a565b6040518363ffffffff1660e01b815260040180836001600160a01b03166001600160a01b0316815260200182815260200192505050600060405180830381600087803b158015610c1057600080fd5b505af1158015610c24573d6000803e3d6000fd5b50505050610c3486868686612220565b505050505050565b606860209081526000928352604080842090915290825290205481565b60009081526033602052604090206002015490565b83610c78816120ff565b606654606a546001600160a01b03909116906333107014903390610ca590600160801b9004600f0b610a0a565b6040518363ffffffff1660e01b815260040180836001600160a01b03166001600160a01b0316815260200182815260200192505050608060405180830381600087803b158015610cf457600080fd5b505af1158015610d08573d6000803e3d6000fd5b505050506040513d6080811015610d1e57600080fd5b50610b67905085858585612220565b604080516a4255524e45525f524f4c4560a81b8152905190819003600b01902081565b610d5b6000336115fd565b610d6457600080fd5b606c80546001600160a01b038085166001600160a01b031992831617909255606d805492841692909116919091179055610da06002600a6122a4565b606a8054600f9290920b6001600160801b03166001600160801b0319909216919091179055610dd16003600a6122a4565b606a80546001600160801b03908116600160801b600f94850b831681029190911792839055606b80546001600160801b031916918404850b93850b9390930190930b169190911790555050565b81610e28816122db565b610e3061245d565b6066546001600160a01b031663466cec3333610e4b8661205a565b6040518363ffffffff1660e01b815260040180836001600160a01b03166001600160a01b0316815260200182815260200192505050600060405180830381600087803b158015610e9a57600080fd5b505af1158015610eae573d6000803e3d6000fd5b50506065546002600090815260696020908152600080516020612dc083398151915254604051635f7b761360e11b815260248101899052604481018290526060600482019081528a5160648301528a516001600160a01b03909616975063bef6ec2696508a958a95939491938493608401928089019202908190849084905b83811015610f45578181015183820152602001610f2d565b50505050905001945050505050600060405180830381600087803b158015610f6c57600080fd5b505af1158015610f80573d6000803e3d6000fd5b50505050505050565b600082815260336020526040902060020154610fac90610fa76124bd565b6115fd565b610fe75760405162461bcd60e51b815260040180806020018281038252602f815260200180612d91602f913960400191505060405180910390fd5b610ff182826124c1565b5050565b610ffd612530565b6110088160646122a4565b606a8054600f9290920b6001600160801b03166001600160801b031990921691909117905550565b6110386124bd565b6001600160a01b0316816001600160a01b0316146110875760405162461bcd60e51b815260040180806020018281038252602f815260200180612e5f602f913960400191505060405180910390fd5b610ff18282612590565b606d546001600160a01b031681565b6110a861245d565b604080516a4255524e45525f524f4c4560a81b8152905190819003600b0190206110d290336115fd565b611110576040805162461bcd60e51b815260206004820152600a6024820152692737ba10313ab93732b960b11b604482015290519081900360640190fd5b6066546001600160a01b031663466cec333261112b84611c79565b6040518363ffffffff1660e01b815260040180836001600160a01b03166001600160a01b0316815260200182815260200192505050600060405180830381600087803b15801561117a57600080fd5b505af115801561118e573d6000803e3d6000fd5b50506040805160018082528183019092526060935091506020808301908036833701905050905081816000815181106111c357fe5b6020908102919091018101919091526002600090815260698252600080516020612dc08339815191525460655460405163b46e6c1760e01b8152600481018581528651602483015286516112ca96670de0b6b3a7640000966112be96956001600160a01b03169463b46e6c17948b949093849360449093019286820192909102908190849084905b8381101561126357818101518382015260200161124b565b505050509050019250505060206040518083038186803b15801561128657600080fd5b505afa15801561129a573d6000803e3d6000fd5b505050506040513d60208110156112b057600080fd5b50519063ffffffff6125ff16565b9063ffffffff61265816565b32600090815260686020908152604080832060018452825280832080549094019093556065549251633094e51960e11b8152600481018281528551602483015285516001600160a01b039590951694636129ca3294879492938493604490910192868201929102908190849084905b83811015611351578181015183820152602001611339565b5050505090500192505050600060405180830381600087803b15801561137657600080fd5b505af1158015610c34573d6000803e3d6000fd5b81611394816120ff565b8161139e816120ff565b606654606a546001600160a01b039091169063331070149033906113c490600f0b610a0a565b6040518363ffffffff1660e01b815260040180836001600160a01b03166001600160a01b0316815260200182815260200192505050608060405180830381600087803b15801561141357600080fd5b505af1158015611427573d6000803e3d6000fd5b505050506040513d608081101561143d57600080fd5b5061144a905084846121cc565b50505050565b604080516923a0a6a2afa0a226a4a760b11b8152905190819003600a01902081565b606a54600f0b81565b611483612530565b60009182526069602052604090912055565b600181565b8181808060200260200160405190810160405280939291908181526020018383602002808284376000920191909152506114d992508391506126bf9050565b600061151867cccccccccccccccc6115096114f386612771565b606a54600f90810b900b9063ffffffff61218c16565b600f0b9063ffffffff61218c16565b6066549091506001600160a01b031662201e8b3361153584610a0a565b6040518363ffffffff1660e01b815260040180836001600160a01b03166001600160a01b0316815260200182815260200192505050600060405180830381600087803b15801561158457600080fd5b505af1158015611598573d6000803e3d6000fd5b5050505061144a84848080602002602001604051908101604052809392919081815260200183836020028082843760009201919091525061278f92505050565b60008281526033602052604081206115f6908363ffffffff61282016565b9392505050565b60008281526033602052604081206115f6908363ffffffff61282c16565b6067546001600160a01b031681565b611632612530565b61163d8160646122a4565b606a80546001600160801b03908116600160801b600f94850b831681029190911792839055606b80546001600160801b031916918404850b93850b9390930190930b1691909117905550565b611691612530565b6001600160a01b03909116600090815260686020908152604080832060018452909152902080549091019055565b600281565b606b54600f0b81565b600081565b606a54600160801b9004600f0b81565b606c546001600160a01b031681565b600054610100900460ff168061170a575061170a612841565b80611718575060005460ff16155b6117535760405162461bcd60e51b815260040180806020018281038252602e815260200180612e10602e913960400191505060405180910390fd5b600054610100900460ff1615801561177e576000805460ff1961ff0019909116610100171660011790555b611786612852565b611791600033610fe7565b604080516923a0a6a2afa0a226a4a760b11b8152905190819003600a0190206117ba9033610fe7565b606580546001600160a01b038087166001600160a01b031992831617909255606780548684169083161790556066805492851692909116919091179055801561144a576000805461ff001916905550505050565b6066546001600160a01b031681565b67cccccccccccccccc81565b6000818152603360205260408120610a9a90612903565b8061184a816122db565b61185261245d565b6066546001600160a01b031663466cec333361186d8561205a565b6040518363ffffffff1660e01b815260040180836001600160a01b03166001600160a01b0316815260200182815260200192505050600060405180830381600087803b1580156118bc57600080fd5b505af11580156118d0573d6000803e3d6000fd5b50506002600090815260696020908152600080516020612dc08339815191525460655460405163b46e6c1760e01b8152600481018481528951602483015289516119679850670de0b6b3a764000097506112be9694956001600160a01b039094169463b46e6c17948c948493604490910192868301929190910290819084908490831561126357818101518382015260200161124b565b3360009081526068602090815260408083206001845282528083208054949094019093556065549251633094e51960e11b8152600481018281528651602483015286516001600160a01b0390951694636129ca3294889492938493604490910192868201929102908190849084908315611351578181015183820152602001611339565b818180806020026020016040519081016040528093929190818152602001838360200280828437600092019190915250611a2a92508391506126bf9050565b6066546001600160a01b031663331070143382630a8a9215611a4e6114f388612771565b6040518263ffffffff1660e01b81526004018082600f0b600f0b815260200191505060206040518083038186803b158015611a8857600080fd5b505afa158015611a9c573d6000803e3d6000fd5b505050506040513d6020811015611ab257600080fd5b5051604080516001600160e01b031960e086901b1681526001600160a01b03909316600484015260248301919091525160448083019260809291908290030181600087803b158015611b0357600080fd5b505af1158015611b17573d6000803e3d6000fd5b505050506040513d6080811015611b2d57600080fd5b50506040805160208481028281018201909352848252611b689286918691829185019084908082843760009201919091525061278f92505050565b505050565b6065546001600160a01b031681565b33600090815260686020908152604080832060018452909152902054611ba8908263ffffffff61290e16565b3360009081526068602081815260408084206001808652908352818520959095556001600160a01b0387168452918152818320938352929092522054611bf4908263ffffffff61296b16565b6001600160a01b0390921660009081526068602090815260408083206001845290915290209190915550565b600082815260336020526040902060020154611c3e90610fa76124bd565b6110875760405162461bcd60e51b8152600401808060200182810382526030815260200180612de06030913960400191505060405180910390fd5b60016000908152606960209081527fc073f36c05b6a60b24c30a48974b549770d8fa354751fb3170c9dfd8ca536add54606554604080516370b4670160e11b815260048101879052905192936001600160a01b039092169263e168ce0292602480840193919291829003018186803b158015611cf457600080fd5b505afa158015611d08573d6000803e3d6000fd5b505050506040513d6020811015611d1e57600080fd5b50516066546040805163cb7c7aa360e01b815290516001600160a01b039092169163e71a136a91839163cb7c7aa391600480820192602092909190829003018186803b158015611d6d57600080fd5b505afa158015611d81573d6000803e3d6000fd5b505050506040513d6020811015611d9757600080fd5b5051604080516001600160e01b031960e085901b1681526004810192909252516024808301926020929190829003018186803b158015611dd657600080fd5b505afa158015611dea573d6000803e3d6000fd5b505050506040513d6020811015611e0057600080fd5b5051606654604080516302c59f4b60e21b815290516001600160a01b039092169163e71a136a918391630b167d2c91600480820192602092909190829003018186803b158015611e4f57600080fd5b505afa158015611e63573d6000803e3d6000fd5b505050506040513d6020811015611e7957600080fd5b5051604080516001600160e01b031960e085901b1681526004810192909252516024808301926020929190829003018186803b158015611eb857600080fd5b505afa158015611ecc573d6000803e3d6000fd5b505050506040513d6020811015611ee257600080fd5b505181611eeb57fe5b04020260070292915050565b611eff612530565b6000611f0c8260646122a4565b606a54909150600f90810b810b9082900b13611f2757600080fd5b606a80546001600160801b03808216600160801b600f93840b8603840b83160217909255606b80546001600160801b0319169390910b90911691909117905550565b60696020526000908152604090205481565b611f83612530565b6001600160a01b038216600090815260686020908152604080832060018452909152902054611bf4908263ffffffff61290e16565b611fc061245d565b33600090815260686020908152604080832060018452909152902054611fec908263ffffffff61290e16565b336000908152606860209081526040808320600184529091528082209290925560655482516370d9d96b60e11b8152600481018690526024810185905292516001600160a01b039091169263e1b3b2d692604480830193919282900301818387803b15801561137657600080fd5b600080805b83518110156120905761208484828151811061207757fe5b6020026020010151611c79565b9091019060010161205f565b5092915050565b6000816120a657506000610a9a565b600083600f0b12156120b757600080fd5b600f83900b6001600160801b038316810260401c90608084901c026001600160c01b038111156120e657600080fd5b60401b81198111156120f757600080fd5b019392505050565b606c54604080516331a9108f60e11b815260048101849052905133926001600160a01b031691636352211e916024808301926020929190829003018186803b15801561214a57600080fd5b505afa15801561215e573d6000803e3d6000fd5b505050506040513d602081101561217457600080fd5b50516001600160a01b03161461218957600080fd5b50565b6000600f83810b9083900b0260401d6f7fffffffffffffffffffffffffffffff1981128015906121c3575060016001607f1b038113155b6115f657600080fd5b606c5460408051639abcafef60e01b8152600481018590526024810184905290516001600160a01b0390921691639abcafef9160448082019260009290919082900301818387803b15801561137657600080fd5b606c546040805163c394f9db60e01b81526004810187905260ff808716602483015280861660448301528416606482015290516001600160a01b039092169163c394f9db9160848082019260009290919082900301818387803b15801561228657600080fd5b505af115801561229a573d6000803e3d6000fd5b5050505050505050565b6000816122b057600080fd5b60006122bc84846129c5565b905060016001607f1b036001600160801b03821611156115f657600080fd5b60005b8151811015610ff157606554825133916001600160a01b031690636352211e9085908590811061230a57fe5b60200260200101516040518263ffffffff1660e01b81526004018082815260200191505060206040518083038186803b15801561234657600080fd5b505afa15801561235a573d6000803e3d6000fd5b505050506040513d602081101561237057600080fd5b50516001600160a01b031614806124185750606754825133916001600160a01b03169063b8cae950908590859081106123a557fe5b60200260200101516040518263ffffffff1660e01b81526004018082815260200191505060206040518083038186803b1580156123e157600080fd5b505afa1580156123f5573d6000803e3d6000fd5b505050506040513d602081101561240b57600080fd5b50516001600160a01b0316145b612455576040805162461bcd60e51b81526020600482015260096024820152682737ba1037bbb732b960b91b604482015290519081900360640190fd5b6001016122de565b60026000526069602052600080516020612dc0833981519152546124bb576040805162461bcd60e51b815260206004820152601060248201526f109d5c9b9a5b99c8191a5cd8589b195960821b604482015290519081900360640190fd5b565b3390565b60008281526033602052604090206124df908263ffffffff612b0e16565b15610ff1576124ec6124bd565b6001600160a01b0316816001600160a01b0316837f2f8788117e7eff1d82e926ec794901d17c78024a50270940304540a733656f0d60405160405180910390a45050565b604080516923a0a6a2afa0a226a4a760b11b8152905190819003600a01902061255990336115fd565b6124bb576040805162461bcd60e51b81526020600482015260036024820152624e474160e81b604482015290519081900360640190fd5b60008281526033602052604090206125ae908263ffffffff612b2316565b15610ff1576125bb6124bd565b6001600160a01b0316816001600160a01b0316837ff6391f5c32d9c69d2a47ea670b442974b53935d1edc7fd64eb21e047a839171b60405160405180910390a45050565b60008261260e57506000610a9a565b8282028284828161261b57fe5b04146115f65760405162461bcd60e51b8152600401808060200182810382526021815260200180612e3e6021913960400191505060405180910390fd5b60008082116126ae576040805162461bcd60e51b815260206004820152601a60248201527f536166654d6174683a206469766973696f6e206279207a65726f000000000000604482015290519081900360640190fd5b8183816126b757fe5b049392505050565b60005b8151811015610ff157606c54825133916001600160a01b031690636352211e908590859081106126ee57fe5b60200260200101516040518263ffffffff1660e01b81526004018082815260200191505060206040518083038186803b15801561272a57600080fd5b505afa15801561273e573d6000803e3d6000fd5b505050506040513d602081101561275457600080fd5b50516001600160a01b03161461276957600080fd5b6001016126c2565b6000677fffffffffffffff82111561278857600080fd5b5060401b90565b60005b8151811015610ff157606c5482516001600160a01b03909116906342966c68908490849081106127be57fe5b60200260200101516040518263ffffffff1660e01b815260040180828152602001915050600060405180830381600087803b1580156127fc57600080fd5b505af1158015612810573d6000803e3d6000fd5b5050600190920191506127929050565b60006115f68383612b38565b60006115f6836001600160a01b038416612b9c565b600061284c30612bb4565b15905090565b600054610100900460ff168061286b575061286b612841565b80612879575060005460ff16155b6128b45760405162461bcd60e51b815260040180806020018281038252602e815260200180612e10602e913960400191505060405180910390fd5b600054610100900460ff161580156128df576000805460ff1961ff0019909116610100171660011790555b6128e7612bba565b6128ef612bba565b8015612189576000805461ff001916905550565b6000610a9a82612c5a565b600082821115612965576040805162461bcd60e51b815260206004820152601e60248201527f536166654d6174683a207375627472616374696f6e206f766572666c6f770000604482015290519081900360640190fd5b50900390565b6000828201838110156115f6576040805162461bcd60e51b815260206004820152601b60248201527f536166654d6174683a206164646974696f6e206f766572666c6f770000000000604482015290519081900360640190fd5b6000816129d157600080fd5b60006001600160c01b0384116129f65782604085901b816129ee57fe5b049050612afa565b60c084811c600160201b8110612a0e576020918201911c5b620100008110612a20576010918201911c5b6101008110612a31576008918201911c5b60108110612a41576004918201911c5b60048110612a51576002918201911c5b60028110612a60576001820191505b60bf820360018603901c6001018260ff0387901b81612a7b57fe5b0492506001600160801b03831115612a9257600080fd5b608085901c83026001600160801b038616840260c088901c604089901b82811015612abe576001820391505b608084901b92900382811015612ad5576001820391505b829003608084901c8214612ae557fe5b888181612aee57fe5b04870196505050505050505b6001600160801b038111156115f657600080fd5b60006115f6836001600160a01b038416612c5e565b60006115f6836001600160a01b038416612ca8565b81546000908210612b7a5760405162461bcd60e51b8152600401808060200182810382526022815260200180612d6f6022913960400191505060405180910390fd5b826000018281548110612b8957fe5b9060005260206000200154905092915050565b60009081526001919091016020526040902054151590565b3b151590565b600054610100900460ff1680612bd35750612bd3612841565b80612be1575060005460ff16155b612c1c5760405162461bcd60e51b815260040180806020018281038252602e815260200180612e10602e913960400191505060405180910390fd5b600054610100900460ff161580156128ef576000805460ff1961ff0019909116610100171660011790558015612189576000805461ff001916905550565b5490565b6000612c6a8383612b9c565b612ca057508154600181810184556000848152602080822090930184905584548482528286019093526040902091909155610a9a565b506000610a9a565b60008181526001830160205260408120548015612d645783546000198083019190810190600090879083908110612cdb57fe5b9060005260206000200154905080876000018481548110612cf857fe5b600091825260208083209091019290925582815260018981019092526040902090840190558654879080612d2857fe5b60019003818190600052602060002001600090559055866001016000878152602001908152602001600020600090556001945050505050610a9a565b6000915050610a9a56fe456e756d657261626c655365743a20696e646578206f7574206f6620626f756e6473416363657373436f6e74726f6c3a2073656e646572206d75737420626520616e2061646d696e20746f206772616e740e06b3a0ac1d519392f9d33f9b92cd5a527ceb8ad2859e7bfebef5dd54cfca91416363657373436f6e74726f6c3a2073656e646572206d75737420626520616e2061646d696e20746f207265766f6b65496e697469616c697a61626c653a20636f6e747261637420697320616c726561647920696e697469616c697a6564536166654d6174683a206d756c7469706c69636174696f6e206f766572666c6f77416363657373436f6e74726f6c3a2063616e206f6e6c792072656e6f756e636520726f6c657320666f722073656c66a2646970667358221220886d76c7c4d78ec16b354c176dd79c075d811f6518ee30272ce176750017c88264736f6c63430006050033",
  "immutableReferences": {},
  "source": "pragma solidity ^0.6.2;\r\n\r\nimport \"@openzeppelin/contracts/math/SafeMath.sol\";\r\nimport \"abdk-libraries-solidity/ABDKMath64x64.sol\";\r\nimport \"./Promos.sol\";\r\nimport \"./util.sol\";\r\nimport \"./Garrison.sol\";\r\nimport \"./cryptoblades.sol\";\r\n\r\ncontract BurningManager is Initializable, AccessControlUpgradeable {\r\n    using SafeMath for uint256;\r\n    using ABDKMath64x64 for int128;\r\n\r\n    bytes32 public constant GAME_ADMIN = keccak256(\"GAME_ADMIN\");\r\n    bytes32 public constant BURNER_ROLE = keccak256(\"BURNER_ROLE\");\r\n\r\n    // STATE\r\n    Characters public characters;\r\n    CryptoBlades public game;\r\n    Garrison public garrison;\r\n\r\n    mapping(address => mapping(uint256 => uint256)) public userVars;\r\n    uint256 public constant USERVAR_SOUL_SUPPLY = 1;\r\n    mapping(uint256 => uint256) public vars;\r\n    uint256 public constant VAR_ROI_DAYS = 1;\r\n    uint256 public constant VAR_BURN_POWER_MULTIPLIER = 2;\r\n\r\n    int128 public burnWeaponFee;\r\n    int128 public reforgeWeaponWithDustFee;\r\n    int128 public reforgeWeaponFee;\r\n    int128 public constant PAYMENT_USING_STAKED_SKILL_COST_AFTER_DISCOUNT = 14757395258967641292; // 0.8 in fixed-point 64x64 format\r\n\r\n\r\n    Weapons public weapons;\r\n    IPriceOracle public priceOracleSkillPerUsd;\r\n\r\n    function initialize(Characters _characters, Garrison _garrison, CryptoBlades _game)\r\n        public\r\n        initializer\r\n    {\r\n        __AccessControl_init();\r\n        _setupRole(DEFAULT_ADMIN_ROLE, msg.sender);\r\n        _setupRole(GAME_ADMIN, msg.sender);\r\n\r\n        characters = _characters;\r\n        garrison = _garrison;\r\n        game = _game;\r\n    }\r\n\r\n    function migrateTo_e1fe97c(Weapons _weapons, IPriceOracle _priceOracleSkillPerUsd) external {\r\n        require(hasRole(DEFAULT_ADMIN_ROLE, msg.sender));\r\n        weapons = _weapons;\r\n        priceOracleSkillPerUsd = _priceOracleSkillPerUsd;\r\n        burnWeaponFee = ABDKMath64x64.divu(2, 10); // 0.2 USD\r\n        reforgeWeaponWithDustFee = ABDKMath64x64.divu(3, 10); // 0.3 USD\r\n        reforgeWeaponFee = burnWeaponFee + reforgeWeaponWithDustFee; // 0.5 USD\r\n    }\r\n\r\n    // MODIFIERS\r\n\r\n    modifier isCharactersOwner(uint256[] memory burnIds) {\r\n        _isCharactersOwner(burnIds);\r\n        _;\r\n    }\r\n\r\n    function _isCharactersOwner(uint256[] memory burnIds) internal view {\r\n        for(uint i = 0; i < burnIds.length; i++) {\r\n            require(characters.ownerOf(burnIds[i]) == msg.sender || garrison.characterOwner(burnIds[i]) == msg.sender, 'Not owner');\r\n        }\r\n    }\r\n\r\n    modifier isWeaponOwner(uint256 weapon) {\r\n        _isWeaponOwner(weapon);\r\n        _;\r\n    }\r\n\r\n    function _isWeaponOwner(uint256 weapon) internal view {\r\n        require(weapons.ownerOf(weapon) == msg.sender);\r\n    }\r\n\r\n    modifier isWeaponsOwner(uint256[] memory weaponArray) {\r\n        _isWeaponsOwner(weaponArray);\r\n        _;\r\n    }\r\n\r\n    function _isWeaponsOwner(uint256[] memory weaponArray) internal view {\r\n        for(uint i = 0; i < weaponArray.length; i++) {\r\n            require(weapons.ownerOf(weaponArray[i]) == msg.sender);\r\n        }\r\n    }\r\n\r\n    modifier restricted() {\r\n        _restricted();\r\n        _;\r\n    }\r\n\r\n    function _restricted() internal view {\r\n        require(hasRole(GAME_ADMIN, msg.sender), \"NGA\");\r\n    }\r\n\r\n    modifier burningEnabled() {\r\n        _burningEnabled();\r\n        _;\r\n    }\r\n\r\n    function _burningEnabled() internal view {\r\n        require(vars[VAR_BURN_POWER_MULTIPLIER] > 0, \"Burning disabled\");\r\n    }\r\n\r\n    // VIEWS\r\n\r\n    function burnCharactersFee(uint256[] memory burnIds) public view returns (uint256) {\r\n        uint256 burnFee = 0;\r\n        for(uint i = 0; i < burnIds.length; i++) {\r\n            burnFee += burnCharacterFee(burnIds[i]);\r\n        }\r\n        return burnFee;\r\n    }\r\n\r\n    function burnCharacterFee(uint256 burnId) public view returns (uint256) {\r\n        return (game.vars(game.VAR_HOURLY_PAY_PER_FIGHT()) / game.vars(game.VAR_HOURLY_MAX_POWER_AVERAGE())) * 7 * characters.getTotalPower(burnId) * vars[VAR_ROI_DAYS];\r\n    }\r\n\r\n    function usdToSkill(int128 usdAmount) public view returns (uint256) {\r\n        return usdAmount.mulu(priceOracleSkillPerUsd.currentPrice());\r\n    }\r\n\r\n    //FUNCTIONS\r\n\r\n    // Characters burning\r\n    function burnCharacterFromMarket(uint256 burnId) external burningEnabled {\r\n        require(hasRole(BURNER_ROLE, msg.sender), 'Not burner');\r\n        game.payContractTokenOnly(tx.origin, burnCharacterFee(burnId));\r\n        uint256[] memory burnIds = new uint256[](1);\r\n        burnIds[0] = burnId;\r\n        userVars[tx.origin][USERVAR_SOUL_SUPPLY] += characters.getSoulForBurns(burnIds).mul(vars[VAR_BURN_POWER_MULTIPLIER]).div(1e18);\r\n        characters.burnIntoSoul(burnIds);\r\n    }\r\n\r\n    function burnCharactersIntoCharacter(uint256[] memory burnIds, uint256 targetId) public isCharactersOwner(burnIds) burningEnabled {\r\n        game.payContractTokenOnly(msg.sender, burnCharactersFee(burnIds));\r\n        characters.burnIntoCharacter(burnIds, targetId, vars[VAR_BURN_POWER_MULTIPLIER]);\r\n    }\r\n\r\n    function burnCharactersIntoSoul(uint256[] memory burnIds) public isCharactersOwner(burnIds) burningEnabled {\r\n        game.payContractTokenOnly(msg.sender, burnCharactersFee(burnIds));\r\n        userVars[msg.sender][USERVAR_SOUL_SUPPLY] += characters.getSoulForBurns(burnIds).mul(vars[VAR_BURN_POWER_MULTIPLIER]).div(1e18);\r\n        characters.burnIntoSoul(burnIds);\r\n    }\r\n\r\n    function transferSoul(address targetAddress, uint256 soulAmount) public {\r\n        userVars[msg.sender][USERVAR_SOUL_SUPPLY] = userVars[msg.sender][USERVAR_SOUL_SUPPLY].sub(soulAmount);\r\n        userVars[targetAddress][USERVAR_SOUL_SUPPLY] = userVars[targetAddress][USERVAR_SOUL_SUPPLY].add(soulAmount);\r\n    }\r\n\r\n    function upgradeCharacterWithSoul(uint256 targetId, uint256 soulAmount) public burningEnabled {\r\n        userVars[msg.sender][USERVAR_SOUL_SUPPLY] = userVars[msg.sender][USERVAR_SOUL_SUPPLY].sub(soulAmount);\r\n        characters.upgradeWithSoul(targetId, soulAmount);\r\n    }\r\n\r\n    // Weapons burning\r\n\r\n    function burnWeapons(uint256[] calldata burnIDs) external isWeaponsOwner(burnIDs) {\r\n        game.payContractConvertedSupportingStaked(msg.sender, game.usdToSkill(burnWeaponFee.mul(ABDKMath64x64.fromUInt(burnIDs.length))));\r\n\r\n        _burnWeaponsLogic(burnIDs);\r\n    }\r\n\r\n    function reforgeWeapon(uint256 reforgeID, uint256 burnID) external isWeaponOwner(reforgeID) isWeaponOwner(burnID) {\r\n        game.payContractConvertedSupportingStaked(msg.sender, usdToSkill(burnWeaponFee));\r\n\r\n        _reforgeWeaponLogic(reforgeID, burnID);\r\n    }\r\n\r\n    function reforgeWeaponWithDust(uint256 reforgeID, uint8 amountLB, uint8 amount4B, uint8 amount5B) external isWeaponOwner(reforgeID) {\r\n        game.payContractConvertedSupportingStaked(msg.sender, usdToSkill(reforgeWeaponWithDustFee));\r\n\r\n        _reforgeWeaponWithDustLogic(reforgeID, amountLB, amount4B, amount5B);\r\n    }\r\n\r\n    function burnWeaponsUsingStakedSkill(uint256[] calldata burnIDs) external isWeaponsOwner(burnIDs) {\r\n        int128 discountedBurnWeaponFee =\r\n            burnWeaponFee\r\n                .mul(ABDKMath64x64.fromUInt(burnIDs.length))\r\n                .mul(PAYMENT_USING_STAKED_SKILL_COST_AFTER_DISCOUNT);\r\n        game.payContractStakedOnly(msg.sender, usdToSkill(discountedBurnWeaponFee));\r\n\r\n        _burnWeaponsLogic(burnIDs);\r\n    }\r\n\r\n    function reforgeWeaponUsingStakedSkill(uint256 reforgeID, uint256 burnID) external isWeaponOwner(reforgeID) isWeaponOwner(burnID) {\r\n        int128 discountedReforgeWeaponFee =\r\n            reforgeWeaponFee\r\n                .mul(PAYMENT_USING_STAKED_SKILL_COST_AFTER_DISCOUNT);\r\n        game.payContractStakedOnly(msg.sender, usdToSkill(discountedReforgeWeaponFee));\r\n\r\n        _reforgeWeaponLogic(reforgeID, burnID);\r\n    }\r\n\r\n    function reforgeWeaponWithDustUsingStakedSkill(uint256 reforgeID, uint8 amountLB, uint8 amount4B, uint8 amount5B) external isWeaponOwner(reforgeID) {\r\n        int128 discountedReforgeWeaponWithDustFee =\r\n            reforgeWeaponWithDustFee\r\n                .mul(PAYMENT_USING_STAKED_SKILL_COST_AFTER_DISCOUNT);\r\n        game.payContractStakedOnly(msg.sender, usdToSkill(discountedReforgeWeaponWithDustFee));\r\n\r\n        _reforgeWeaponWithDustLogic(reforgeID, amountLB, amount4B, amount5B);\r\n    }\r\n\r\n    function _burnWeaponLogic(uint256 burnID) internal {\r\n        weapons.burn(burnID);\r\n    }\r\n\r\n    function _burnWeaponsLogic(uint256[] memory burnIDs) internal {\r\n        for(uint i = 0; i < burnIDs.length; i++) {\r\n            weapons.burn(burnIDs[i]);\r\n        }\r\n    }\r\n\r\n    function _reforgeWeaponLogic(uint256 reforgeID, uint256 burnID) internal {\r\n        weapons.reforge(reforgeID, burnID);\r\n    }\r\n\r\n    function _reforgeWeaponWithDustLogic(uint256 reforgeID, uint8 amountLB, uint8 amount4B, uint8 amount5B) internal {\r\n        weapons.reforgeWithDust(reforgeID, amountLB, amount4B, amount5B);\r\n    }\r\n\r\n    function giveAwaySoul(address user, uint256 soulAmount) external restricted {\r\n        userVars[user][USERVAR_SOUL_SUPPLY] += soulAmount;\r\n    }\r\n\r\n    function burnSoul(address user, uint256 soulAmount) external restricted {\r\n        userVars[user][USERVAR_SOUL_SUPPLY] = userVars[user][USERVAR_SOUL_SUPPLY].sub(soulAmount);\r\n    }\r\n\r\n    // VARS SETTER\r\n\r\n    function setVar(uint256 varField, uint256 value) external restricted {\r\n        vars[varField] = value;\r\n    }\r\n\r\n    function setBurnWeaponValue(uint256 cents) public restricted {\r\n        burnWeaponFee = ABDKMath64x64.divu(cents, 100);\r\n    }\r\n\r\n    function setReforgeWeaponValue(uint256 cents) public restricted {\r\n        int128 newReforgeWeaponFee = ABDKMath64x64.divu(cents, 100);\r\n        require(newReforgeWeaponFee > burnWeaponFee);\r\n        reforgeWeaponWithDustFee = newReforgeWeaponFee - burnWeaponFee;\r\n        reforgeWeaponFee = newReforgeWeaponFee;\r\n    }\r\n\r\n    function setReforgeWeaponWithDustValue(uint256 cents) public restricted {\r\n        reforgeWeaponWithDustFee = ABDKMath64x64.divu(cents, 100);\r\n        reforgeWeaponFee = burnWeaponFee + reforgeWeaponWithDustFee;\r\n    }\r\n    \r\n}\r\n",
  "sourcePath": "K:\\\\cryptoblades1\\cryptoblades\\contracts\\BurningManager.sol",
  "compiler": {
    "name": "solc",
    "version": "0.6.5+commit.f956cc89.Emscripten.clang"
  },
  "schemaVersion": "3.4.5",
  "updatedAt": "2022-09-25T08:04:26.252Z",
  "networkType": "ethereum",
  "devdoc": {
    "methods": {
      "getRoleAdmin(bytes32)": {
        "details": "Returns the admin role that controls `role`. See {grantRole} and {revokeRole}.     * To change a role's admin, use {_setRoleAdmin}."
      },
      "getRoleMember(bytes32,uint256)": {
        "details": "Returns one of the accounts that have `role`. `index` must be a value between 0 and {getRoleMemberCount}, non-inclusive.     * Role bearers are not sorted in any particular way, and their ordering may change at any point.     * WARNING: When using {getRoleMember} and {getRoleMemberCount}, make sure you perform all queries on the same block. See the following https://forum.openzeppelin.com/t/iterating-over-elements-on-enumerableset-in-openzeppelin-contracts/2296[forum post] for more information."
      },
      "getRoleMemberCount(bytes32)": {
        "details": "Returns the number of accounts that have `role`. Can be used together with {getRoleMember} to enumerate all bearers of a role."
      },
      "grantRole(bytes32,address)": {
        "details": "Grants `role` to `account`.     * If `account` had not been already granted `role`, emits a {RoleGranted} event.     * Requirements:     * - the caller must have ``role``'s admin role."
      },
      "hasRole(bytes32,address)": {
        "details": "Returns `true` if `account` has been granted `role`."
      },
      "renounceRole(bytes32,address)": {
        "details": "Revokes `role` from the calling account.     * Roles are often managed via {grantRole} and {revokeRole}: this function's purpose is to provide a mechanism for accounts to lose their privileges if they are compromised (such as when a trusted device is misplaced).     * If the calling account had been granted `role`, emits a {RoleRevoked} event.     * Requirements:     * - the caller must be `account`."
      },
      "revokeRole(bytes32,address)": {
        "details": "Revokes `role` from `account`.     * If `account` had been granted `role`, emits a {RoleRevoked} event.     * Requirements:     * - the caller must have ``role``'s admin role."
      }
    }
  },
  "userdoc": {
    "methods": {}
  }
}