{
  "contractName": "BytesChunker",
  "abi": [
    {
      "inputs": [
        {
          "internalType": "bytes",
          "name": "data",
          "type": "bytes"
        }
      ],
      "name": "toBytes32Array",
      "outputs": [
        {
          "internalType": "bytes32[]",
          "name": "",
          "type": "bytes32[]"
        }
      ],
      "stateMutability": "pure",
      "type": "function"
    }
  ],
  "bytecode": "0x61020a610026600b82828239805160001a60731461001957fe5b30600052607381538281f3fe73000000000000000000000000000000000000000030146080604052600436106100355760003560e01c8063a16ab39b1461003a575b600080fd5b6100e06004803603602081101561005057600080fd5b81019060208101813564010000000081111561006b57600080fd5b82018360208201111561007d57600080fd5b8035906020019184600183028401116401000000008311171561009f57600080fd5b91908080601f016020809104026020016040519081016040528093929190818152602001838380828437600092019190915250929550610130945050505050565b60408051602080825283518183015283519192839290830191858101910280838360005b8381101561011c578181015183820152602001610104565b505050509050019250505060405180910390f35b60606000602083518161013f57fe5b04905060608167ffffffffffffffff8111801561015b57600080fd5b50604051908082528060200260200182016040528015610185578160200160208202803683370190505b509050600060205b855181116101ca576000818701519050808484815181106101aa57fe5b60200260200101818152505082806001019350505080602001905061018d565b509094935050505056fea2646970667358221220a5f8fd4a6de64c76be753f4e6e0559bcde2540509014b7e95f95d11c7562fd0564736f6c63430006050033",
  "immutableReferences": {},
  "source": "pragma solidity ^0.6.5;\r\n\r\nlibrary BytesChunker {\r\n    function toBytes32Array(bytes memory data)\r\n        public\r\n        pure\r\n        returns (bytes32[] memory)\r\n    {\r\n        // Find 32 bytes segments nb\r\n        uint256 dataNb = data.length / 32;\r\n        // Create an array of dataNb elements\r\n        bytes32[] memory dataList = new bytes32[](dataNb);\r\n        // Start array index at 0\r\n        uint256 index = 0;\r\n        // Loop all 32 bytes segments\r\n        for (uint256 i = 32; i <= data.length; i = i + 32) {\r\n            bytes32 temp;\r\n            // Get 32 bytes from data\r\n            assembly {\r\n                temp := mload(add(data, i))\r\n            }\r\n            // Add extracted 32 bytes to list\r\n            dataList[index] = temp;\r\n            index++;\r\n        }\r\n        // Return data list\r\n        return (dataList);\r\n    }\r\n}\r\n",
  "sourcePath": "K:\\下载\\cryptoblades1\\cryptoblades\\contracts\\BytesChunker.sol",
  "compiler": {
    "name": "solc",
    "version": "0.6.5+commit.f956cc89.Emscripten.clang"
  },
  "schemaVersion": "3.4.5",
  "updatedAt": "2022-09-25T07:39:13.319Z",
  "devdoc": {
    "methods": {}
  },
  "userdoc": {
    "methods": {}
  }
}