{
  "contractName": "CBKLandT1StakingRewardsUpgradeable",
  "abi": [
    {
      "anonymous": false,
      "inputs": [],
      "name": "FailsafeModeEnabled",
      "type": "event"
    },
    {
      "anonymous": false,
      "inputs": [
        {
          "indexed": false,
          "internalType": "uint256",
          "name": "newMinimumStakeAmount",
          "type": "uint256"
        }
      ],
      "name": "MinimumStakeAmountUpdated",
      "type": "event"
    },
    {
      "anonymous": false,
      "inputs": [
        {
          "indexed": false,
          "internalType": "uint256",
          "name": "newMinimumStakeTime",
          "type": "uint256"
        }
      ],
      "name": "MinimumStakeTimeUpdated",
      "type": "event"
    },
    {
      "anonymous": false,
      "inputs": [
        {
          "indexed": true,
          "internalType": "address",
          "name": "previousOwner",
          "type": "address"
        },
        {
          "indexed": true,
          "internalType": "address",
          "name": "newOwner",
          "type": "address"
        }
      ],
      "name": "OwnershipTransferred",
      "type": "event"
    },
    {
      "anonymous": false,
      "inputs": [
        {
          "indexed": false,
          "internalType": "address",
          "name": "account",
          "type": "address"
        }
      ],
      "name": "Paused",
      "type": "event"
    },
    {
      "anonymous": false,
      "inputs": [
        {
          "indexed": false,
          "internalType": "address",
          "name": "token",
          "type": "address"
        },
        {
          "indexed": false,
          "internalType": "uint256",
          "name": "amount",
          "type": "uint256"
        }
      ],
      "name": "Recovered",
      "type": "event"
    },
    {
      "anonymous": false,
      "inputs": [
        {
          "indexed": false,
          "internalType": "uint256",
          "name": "reward",
          "type": "uint256"
        }
      ],
      "name": "RewardAdded",
      "type": "event"
    },
    {
      "anonymous": false,
      "inputs": [
        {
          "indexed": true,
          "internalType": "address",
          "name": "user",
          "type": "address"
        },
        {
          "indexed": false,
          "internalType": "uint256",
          "name": "reward",
          "type": "uint256"
        }
      ],
      "name": "RewardPaid",
      "type": "event"
    },
    {
      "anonymous": false,
      "inputs": [
        {
          "indexed": false,
          "internalType": "uint256",
          "name": "newDuration",
          "type": "uint256"
        }
      ],
      "name": "RewardsDurationUpdated",
      "type": "event"
    },
    {
      "anonymous": false,
      "inputs": [
        {
          "indexed": true,
          "internalType": "address",
          "name": "user",
          "type": "address"
        },
        {
          "indexed": false,
          "internalType": "uint256",
          "name": "amount",
          "type": "uint256"
        }
      ],
      "name": "Staked",
      "type": "event"
    },
    {
      "anonymous": false,
      "inputs": [
        {
          "indexed": false,
          "internalType": "address",
          "name": "account",
          "type": "address"
        }
      ],
      "name": "Unpaused",
      "type": "event"
    },
    {
      "anonymous": false,
      "inputs": [
        {
          "indexed": true,
          "internalType": "address",
          "name": "user",
          "type": "address"
        },
        {
          "indexed": false,
          "internalType": "uint256",
          "name": "amount",
          "type": "uint256"
        }
      ],
      "name": "Withdrawn",
      "type": "event"
    },
    {
      "inputs": [
        {
          "internalType": "address",
          "name": "account",
          "type": "address"
        }
      ],
      "name": "balanceOf",
      "outputs": [
        {
          "internalType": "uint256",
          "name": "",
          "type": "uint256"
        }
      ],
      "stateMutability": "view",
      "type": "function"
    },
    {
      "inputs": [
        {
          "internalType": "uint256[]",
          "name": "ids",
          "type": "uint256[]"
        }
      ],
      "name": "bulkWithdraw",
      "outputs": [],
      "stateMutability": "nonpayable",
      "type": "function"
    },
    {
      "inputs": [
        {
          "internalType": "address",
          "name": "account",
          "type": "address"
        }
      ],
      "name": "earned",
      "outputs": [
        {
          "internalType": "uint256",
          "name": "",
          "type": "uint256"
        }
      ],
      "stateMutability": "view",
      "type": "function"
    },
    {
      "inputs": [],
      "name": "enableFailsafeMode",
      "outputs": [],
      "stateMutability": "nonpayable",
      "type": "function"
    },
    {
      "inputs": [],
      "name": "exit",
      "outputs": [],
      "stateMutability": "nonpayable",
      "type": "function"
    },
    {
      "inputs": [],
      "name": "failsafeModeActive",
      "outputs": [
        {
          "internalType": "bool",
          "name": "",
          "type": "bool"
        }
      ],
      "stateMutability": "view",
      "type": "function"
    },
    {
      "inputs": [],
      "name": "getReward",
      "outputs": [],
      "stateMutability": "nonpayable",
      "type": "function"
    },
    {
      "inputs": [],
      "name": "getRewardForDuration",
      "outputs": [
        {
          "internalType": "uint256",
          "name": "",
          "type": "uint256"
        }
      ],
      "stateMutability": "view",
      "type": "function"
    },
    {
      "inputs": [],
      "name": "getStakeRewardDistributionTimeLeft",
      "outputs": [
        {
          "internalType": "uint256",
          "name": "",
          "type": "uint256"
        }
      ],
      "stateMutability": "view",
      "type": "function"
    },
    {
      "inputs": [],
      "name": "getStakeUnlockTimeLeft",
      "outputs": [
        {
          "internalType": "uint256",
          "name": "",
          "type": "uint256"
        }
      ],
      "stateMutability": "view",
      "type": "function"
    },
    {
      "inputs": [],
      "name": "lastTimeRewardApplicable",
      "outputs": [
        {
          "internalType": "uint256",
          "name": "",
          "type": "uint256"
        }
      ],
      "stateMutability": "view",
      "type": "function"
    },
    {
      "inputs": [],
      "name": "lastUpdateTime",
      "outputs": [
        {
          "internalType": "uint256",
          "name": "",
          "type": "uint256"
        }
      ],
      "stateMutability": "view",
      "type": "function"
    },
    {
      "inputs": [],
      "name": "minimumStakeAmount",
      "outputs": [
        {
          "internalType": "uint256",
          "name": "",
          "type": "uint256"
        }
      ],
      "stateMutability": "view",
      "type": "function"
    },
    {
      "inputs": [],
      "name": "minimumStakeTime",
      "outputs": [
        {
          "internalType": "uint256",
          "name": "",
          "type": "uint256"
        }
      ],
      "stateMutability": "view",
      "type": "function"
    },
    {
      "inputs": [
        {
          "internalType": "uint256",
          "name": "reward",
          "type": "uint256"
        }
      ],
      "name": "notifyRewardAmount",
      "outputs": [],
      "stateMutability": "nonpayable",
      "type": "function"
    },
    {
      "inputs": [
        {
          "internalType": "address",
          "name": "",
          "type": "address"
        },
        {
          "internalType": "address",
          "name": "",
          "type": "address"
        },
        {
          "internalType": "uint256",
          "name": "_id",
          "type": "uint256"
        },
        {
          "internalType": "bytes",
          "name": "",
          "type": "bytes"
        }
      ],
      "name": "onERC721Received",
      "outputs": [
        {
          "internalType": "bytes4",
          "name": "",
          "type": "bytes4"
        }
      ],
      "stateMutability": "nonpayable",
      "type": "function"
    },
    {
      "inputs": [],
      "name": "owner",
      "outputs": [
        {
          "internalType": "address",
          "name": "",
          "type": "address"
        }
      ],
      "stateMutability": "view",
      "type": "function"
    },
    {
      "inputs": [],
      "name": "pause",
      "outputs": [],
      "stateMutability": "nonpayable",
      "type": "function"
    },
    {
      "inputs": [],
      "name": "paused",
      "outputs": [
        {
          "internalType": "bool",
          "name": "",
          "type": "bool"
        }
      ],
      "stateMutability": "view",
      "type": "function"
    },
    {
      "inputs": [],
      "name": "periodFinish",
      "outputs": [
        {
          "internalType": "uint256",
          "name": "",
          "type": "uint256"
        }
      ],
      "stateMutability": "view",
      "type": "function"
    },
    {
      "inputs": [
        {
          "internalType": "address",
          "name": "tokenAddress",
          "type": "address"
        },
        {
          "internalType": "uint256",
          "name": "tokenAmount",
          "type": "uint256"
        }
      ],
      "name": "recoverERC20",
      "outputs": [],
      "stateMutability": "nonpayable",
      "type": "function"
    },
    {
      "inputs": [],
      "name": "recoverOwnStake",
      "outputs": [],
      "stateMutability": "nonpayable",
      "type": "function"
    },
    {
      "inputs": [],
      "name": "renounceOwnership",
      "outputs": [],
      "stateMutability": "nonpayable",
      "type": "function"
    },
    {
      "inputs": [],
      "name": "rewardPerToken",
      "outputs": [
        {
          "internalType": "uint256",
          "name": "",
          "type": "uint256"
        }
      ],
      "stateMutability": "view",
      "type": "function"
    },
    {
      "inputs": [],
      "name": "rewardPerTokenStored",
      "outputs": [
        {
          "internalType": "uint256",
          "name": "",
          "type": "uint256"
        }
      ],
      "stateMutability": "view",
      "type": "function"
    },
    {
      "inputs": [],
      "name": "rewardRate",
      "outputs": [
        {
          "internalType": "uint256",
          "name": "",
          "type": "uint256"
        }
      ],
      "stateMutability": "view",
      "type": "function"
    },
    {
      "inputs": [
        {
          "internalType": "address",
          "name": "",
          "type": "address"
        }
      ],
      "name": "rewards",
      "outputs": [
        {
          "internalType": "uint256",
          "name": "",
          "type": "uint256"
        }
      ],
      "stateMutability": "view",
      "type": "function"
    },
    {
      "inputs": [],
      "name": "rewardsDistribution",
      "outputs": [
        {
          "internalType": "address",
          "name": "",
          "type": "address"
        }
      ],
      "stateMutability": "view",
      "type": "function"
    },
    {
      "inputs": [],
      "name": "rewardsDuration",
      "outputs": [
        {
          "internalType": "uint256",
          "name": "",
          "type": "uint256"
        }
      ],
      "stateMutability": "view",
      "type": "function"
    },
    {
      "inputs": [],
      "name": "rewardsToken",
      "outputs": [
        {
          "internalType": "contract IERC20",
          "name": "",
          "type": "address"
        }
      ],
      "stateMutability": "view",
      "type": "function"
    },
    {
      "inputs": [
        {
          "internalType": "uint256",
          "name": "_minimumStakeAmount",
          "type": "uint256"
        }
      ],
      "name": "setMinimumStakeAmount",
      "outputs": [],
      "stateMutability": "nonpayable",
      "type": "function"
    },
    {
      "inputs": [
        {
          "internalType": "uint256",
          "name": "_minimumStakeTime",
          "type": "uint256"
        }
      ],
      "name": "setMinimumStakeTime",
      "outputs": [],
      "stateMutability": "nonpayable",
      "type": "function"
    },
    {
      "inputs": [
        {
          "internalType": "address",
          "name": "_rewardsDistribution",
          "type": "address"
        }
      ],
      "name": "setRewardsDistribution",
      "outputs": [],
      "stateMutability": "nonpayable",
      "type": "function"
    },
    {
      "inputs": [
        {
          "internalType": "uint256",
          "name": "_rewardsDuration",
          "type": "uint256"
        }
      ],
      "name": "setRewardsDuration",
      "outputs": [],
      "stateMutability": "nonpayable",
      "type": "function"
    },
    {
      "inputs": [],
      "name": "stakeTier",
      "outputs": [
        {
          "internalType": "uint256",
          "name": "",
          "type": "uint256"
        }
      ],
      "stateMutability": "view",
      "type": "function"
    },
    {
      "inputs": [
        {
          "internalType": "address",
          "name": "account",
          "type": "address"
        }
      ],
      "name": "stakedIdsOf",
      "outputs": [
        {
          "internalType": "uint256[]",
          "name": "stakedIds",
          "type": "uint256[]"
        }
      ],
      "stateMutability": "view",
      "type": "function"
    },
    {
      "inputs": [],
      "name": "stakingToken",
      "outputs": [
        {
          "internalType": "contract IERC721",
          "name": "",
          "type": "address"
        }
      ],
      "stateMutability": "view",
      "type": "function"
    },
    {
      "inputs": [],
      "name": "totalSupply",
      "outputs": [
        {
          "internalType": "uint256",
          "name": "",
          "type": "uint256"
        }
      ],
      "stateMutability": "view",
      "type": "function"
    },
    {
      "inputs": [
        {
          "internalType": "address",
          "name": "newOwner",
          "type": "address"
        }
      ],
      "name": "transferOwnership",
      "outputs": [],
      "stateMutability": "nonpayable",
      "type": "function"
    },
    {
      "inputs": [],
      "name": "unpause",
      "outputs": [],
      "stateMutability": "nonpayable",
      "type": "function"
    },
    {
      "inputs": [
        {
          "internalType": "uint256",
          "name": "timestamp",
          "type": "uint256"
        }
      ],
      "name": "updatePeriodFinish",
      "outputs": [],
      "stateMutability": "nonpayable",
      "type": "function"
    },
    {
      "inputs": [
        {
          "internalType": "address",
          "name": "",
          "type": "address"
        }
      ],
      "name": "userRewardPerTokenPaid",
      "outputs": [
        {
          "internalType": "uint256",
          "name": "",
          "type": "uint256"
        }
      ],
      "stateMutability": "view",
      "type": "function"
    },
    {
      "inputs": [
        {
          "internalType": "uint256",
          "name": "id",
          "type": "uint256"
        }
      ],
      "name": "withdraw",
      "outputs": [],
      "stateMutability": "nonpayable",
      "type": "function"
    },
    {
      "inputs": [
        {
          "internalType": "address",
          "name": "_owner",
          "type": "address"
        },
        {
          "internalType": "address",
          "name": "_rewardsDistribution",
          "type": "address"
        },
        {
          "internalType": "address",
          "name": "_rewardsToken",
          "type": "address"
        },
        {
          "internalType": "address",
          "name": "_stakingToken",
          "type": "address"
        },
        {
          "internalType": "uint256",
          "name": "_minimumStakeTime",
          "type": "uint256"
        },
        {
          "internalType": "contract CBKLand",
          "name": "_cbkLand",
          "type": "address"
        }
      ],
      "name": "initialize",
      "outputs": [],
      "stateMutability": "nonpayable",
      "type": "function"
    },
    {
      "inputs": [
        {
          "internalType": "address",
          "name": "_owner",
          "type": "address"
        },
        {
          "internalType": "address",
          "name": "_rewardsDistribution",
          "type": "address"
        },
        {
          "internalType": "address",
          "name": "_rewardsToken",
          "type": "address"
        },
        {
          "internalType": "address",
          "name": "_stakingToken",
          "type": "address"
        },
        {
          "internalType": "uint256",
          "name": "_minimumStakeTime",
          "type": "uint256"
        }
      ],
      "name": "initialize",
      "outputs": [],
      "stateMutability": "nonpayable",
      "type": "function"
    },
    {
      "inputs": [
        {
          "internalType": "uint256",
          "name": "id",
          "type": "uint256"
        }
      ],
      "name": "stake",
      "outputs": [],
      "stateMutability": "nonpayable",
      "type": "function"
    },
    {
      "inputs": [
        {
          "internalType": "uint256[]",
          "name": "ids",
          "type": "uint256[]"
        }
      ],
      "name": "bulkStake",
      "outputs": [],
      "stateMutability": "nonpayable",
      "type": "function"
    }
  ],
  "bytecode": "0x608060405234801561001057600080fd5b50613d57806100206000396000f3fe608060405234801561001057600080fd5b50600436106102945760003560e01c8063715018a611610167578063cd3daf9d116100ce578063ebe2b12b11610087578063ebe2b12b14610731578063ef056e5a14610739578063f2fde38b146107dc578063f603944c14610802578063f6731cd31461080a578063f7013ef61461081257610294565b8063cd3daf9d146106ec578063d1af0c7d146106f4578063df136d65146106fc578063e2adc23714610704578063e94220461461070c578063e9fad8ee1461072957610294565b80638b876347116101205780638b8763471461060c5780638da5cb5b14610632578063a694fc3a1461063a578063a6a21a5d14610657578063c8f33c91146106c7578063cc1a378f146106cf57610294565b8063715018a6146105b857806372f702f3146105c05780637b0a47ee146105c857806380faa57d146105d05780638456cb59146105d85780638980f11f146105e057610294565b80632f3d3b141161020b57806353c425c1116101c457806353c425c1146104a3578063556f6e6b146104ef5780635c975abb1461050c5780636a70530a146105145780636b036f451461058a57806370a082311461059257610294565b80632f3d3b1414610442578063386a95251461044a5780633c6b16ab146104525780633d18b9121461046f5780633f4ba83a146104775780633fc6df6e1461047f57610294565b806318160ddd1161025d57806318160ddd146103df57806319762143146103e75780631c1f78eb1461040d578063242df9e11461041557806327ab19691461041d5780632e1a7d4d1461042557610294565b80628cc262146102995780630700037d146102d15780630d29fcd4146102f75780631265cc9714610316578063150b7a0214610332575b600080fd5b6102bf600480360360208110156102af57600080fd5b50356001600160a01b0316610858565b60408051918252519081900360200190f35b6102bf600480360360208110156102e757600080fd5b50356001600160a01b03166108dc565b6103146004803603602081101561030d57600080fd5b50356108ee565b005b61031e6109cd565b604080519115158252519081900360200190f35b6103c26004803603608081101561034857600080fd5b6001600160a01b0382358116926020810135909116916040820135919081019060808101606082013564010000000081111561038357600080fd5b82018360208201111561039557600080fd5b803590602001918460018302840111640100000000831117156103b757600080fd5b5090925090506109d6565b604080516001600160e01b03199092168252519081900360200190f35b6102bf610a65565b610314600480360360208110156103fd57600080fd5b50356001600160a01b0316610a6c565b6102bf610af0565b6102bf610b0e565b6102bf610b14565b6103146004803603602081101561043b57600080fd5b5035610b47565b610314610e32565b6102bf610f83565b6103146004803603602081101561046857600080fd5b5035610f89565b610314611233565b610314611411565b6104876114cd565b604080516001600160a01b039092168252519081900360200190f35b610314600480360360c08110156104b957600080fd5b506001600160a01b03813581169160208101358216916040820135811691606081013582169160808201359160a00135166114dc565b6103146004803603602081101561050557600080fd5b50356115b1565b61031e611702565b61053a6004803603602081101561052a57600080fd5b50356001600160a01b0316611710565b60408051602080825283518183015283519192839290830191858101910280838360005b8381101561057657818101518382015260200161055e565b505050509050019250505060405180910390f35b6102bf6117e2565b6102bf600480360360208110156105a857600080fd5b50356001600160a01b03166117e8565b610314611809565b6104876118b5565b6102bf6118c4565b6102bf6118ca565b6103146118d8565b610314600480360360408110156105f657600080fd5b506001600160a01b03813516906020013561198f565b6102bf6004803603602081101561062257600080fd5b50356001600160a01b0316611aa8565b610487611aba565b6103146004803603602081101561065057600080fd5b5035611ac9565b6103146004803603602081101561066d57600080fd5b81019060208101813564010000000081111561068857600080fd5b82018360208201111561069a57600080fd5b803590602001918460208302840111640100000000831117156106bc57600080fd5b509092509050611b9c565b6102bf611f83565b610314600480360360208110156106e557600080fd5b5035611f89565b6102bf6120a8565b6104876120ea565b6102bf6120f9565b6103146120ff565b6103146004803603602081101561072257600080fd5b50356121c4565b6103146122a3565b6102bf612492565b6103146004803603602081101561074f57600080fd5b81019060208101813564010000000081111561076a57600080fd5b82018360208201111561077c57600080fd5b8035906020019184602083028401116401000000008311171561079e57600080fd5b919080806020026020016040519081016040528093929190818152602001838360200280828437600092019190915250929550612498945050505050565b610314600480360360208110156107f257600080fd5b50356001600160a01b0316612594565b6102bf612697565b6102bf6126d2565b610314600480360360a081101561082857600080fd5b506001600160a01b03813581169160208101358216916040820135811691606081013590911690608001356126d8565b6001600160a01b038116600090815260d4602090815260408083205460d39092528220546108d691906108ca9061089d906108916120a8565b9063ffffffff61280b16565b6001600160a01b038616600090815260d6602052604090206108be90612868565b9063ffffffff61287316565b9063ffffffff6128d316565b92915050565b60d46020526000908152604090205481565b60985460ff16156109305760405162461bcd60e51b8152600401808060200182810382526046815260200180613ad26046913960600191505060405180910390fd5b61093861292d565b6001600160a01b0316610949611aba565b6001600160a01b031614610992576040805162461bcd60e51b81526020600482018190526024820152600080516020613bfb833981519152604482015290519081900360640190fd5b60cf8190556040805182815290517ff7fc4cb95c43f64f7a376fd9ef5947d85e6aff2df3e9b1715789ffff63d716329181900360200190a150565b60985460ff1681565b60cb5460009033906001600160a01b031681148015610a0b5750600085815260d760205260409020546001600160a01b031615155b610a52576040805162461bcd60e51b8152602060048201526013602482015272151bdad95b881251081b9bdd081b1a5cdd1959606a1b604482015290519081900360640190fd5b50630a85bd0160e11b9695505050505050565b60d5545b90565b610a7461292d565b6001600160a01b0316610a85611aba565b6001600160a01b031614610ace576040805162461bcd60e51b81526020600482018190526024820152600080516020613bfb833981519152604482015290519081900360640190fd5b606580546001600160a01b0319166001600160a01b0392909216919091179055565b6000610b0960ce5460cd5461287390919063ffffffff16565b905090565b60d05481565b6000806000610b2e4260cc5461293190919063ffffffff16565b9150915081610b3e576000610b40565b805b9250505090565b60985460ff1615610b895760405162461bcd60e51b8152600401808060200182810382526046815260200180613ad26046913960600191505060405180910390fd5b60026066541415610bcf576040805162461bcd60e51b815260206004820152601f6024820152600080516020613ab2833981519152604482015290519081900360640190fd5b6002606655600081815260d7602052604090205481906001600160a01b03163314610c31576040805162461bcd60e51b815260206004820152600d60248201526c1058d8d95cdcc819195b9a5959609a1b604482015290519081900360640190fd5b609854339060ff16610c9757610c456120a8565b60d255610c506118ca565b60d1556001600160a01b03811615610c9757610c6b81610858565b6001600160a01b038216600090815260d4602090815260408083209390935560d25460d3909152919020555b60d0541580610cc8575060d05433600090815260d86020526040902054610cc590429063ffffffff61280b16565b10155b610d035760405162461bcd60e51b8152600401808060200182810382526035815260200180613c1b6035913960400191505060405180910390fd5b60d554610d1790600163ffffffff61280b16565b60d55533600090815260d660205260409020610d39908463ffffffff61295716565b50600083815260d76020908152604080832080546001600160a01b031916905533835260d69091529020610d6c90612868565b610d815733600090815260d860205260408120555b60cb5460408051632142170760e11b81523060048201523360248201526044810186905290516001600160a01b03909216916342842e0e9160648082019260009290919082900301818387803b158015610dda57600080fd5b505af1158015610dee573d6000803e3d6000fd5b50506040805186815290513393507f7084f5476618d8e60b11ef0d7d3f06914655adb8793e28ff7f018d4c76d505d592509081900360200190a25050600160665550565b60985460ff16610e735760405162461bcd60e51b8152600401808060200182810382526048815260200180613b186048913960600191505060405180910390fd5b33600090815260d660205260408120610e8b90612868565b60d554909150610ea1908263ffffffff61280b16565b60d55533600090815260d660205260408120905b610ebe82612868565b811015610f7e576000610ed7838363ffffffff61296316565b9050610ee9838263ffffffff61295716565b50600081815260d7602052604080822080546001600160a01b031916905560cb548151632142170760e11b81523060048201523360248201526044810185905291516001600160a01b03909116926342842e0e926064808201939182900301818387803b158015610f5957600080fd5b505af1158015610f6d573d6000803e3d6000fd5b505060019093019250610eb5915050565b505050565b60ce5481565b60985460ff1615610fcb5760405162461bcd60e51b8152600401808060200182810382526046815260200180613ad26046913960600191505060405180910390fd5b6065546001600160a01b031633146110145760405162461bcd60e51b815260040180806020018281038252602a815260200180613c76602a913960400191505060405180910390fd5b60985460009060ff1661107b576110296120a8565b60d2556110346118ca565b60d1556001600160a01b0381161561107b5761104f81610858565b6001600160a01b038216600090815260d4602090815260408083209390935560d25460d3909152919020555b60cc5442106110a05760ce5461109890839063ffffffff61296f16565b60cd556110fb565b60cc546000906110b6904263ffffffff61280b16565b905060006110cf60cd548361287390919063ffffffff16565b60ce549091506110f5906110e9868463ffffffff6128d316565b9063ffffffff61296f16565b60cd5550505b60ca54604080516370a0823160e01b815230600482015290516000926001600160a01b0316916370a08231916024808301926020929190829003018186803b15801561114657600080fd5b505afa15801561115a573d6000803e3d6000fd5b505050506040513d602081101561117057600080fd5b505160ce5490915061118990829063ffffffff61296f16565b60cd5411156111df576040805162461bcd60e51b815260206004820152601860248201527f50726f76696465642072657761726420746f6f20686967680000000000000000604482015290519081900360640190fd5b4260d181905560ce546111f8919063ffffffff6128d316565b60cc556040805184815290517fde88a922e0d3b88b24e9623efeb464919c6bf9f66857a65e2bfcf2ce87a9433d9181900360200190a1505050565b60985460ff16156112755760405162461bcd60e51b8152600401808060200182810382526046815260200180613ad26046913960600191505060405180910390fd5b600260665414156112bb576040805162461bcd60e51b815260206004820152601f6024820152600080516020613ab2833981519152604482015290519081900360640190fd5b6002606655609854339060ff16611326576112d46120a8565b60d2556112df6118ca565b60d1556001600160a01b03811615611326576112fa81610858565b6001600160a01b038216600090815260d4602090815260408083209390935560d25460d3909152919020555b60d0541580611357575060d05433600090815260d8602052604090205461135490429063ffffffff61280b16565b10155b6113925760405162461bcd60e51b8152600401808060200182810382526037815260200180613cca6037913960400191505060405180910390fd5b33600090815260d4602052604090205480156114085733600081815260d4602052604081205560ca546113d1916001600160a01b0390911690836129d6565b60408051828152905133917fe2403640ba68fed3a2f88b7557551d1993f84b99bb10ff833f0cf8db0c5e0486919081900360200190a25b50506001606655565b61141961292d565b6001600160a01b031661142a611aba565b6001600160a01b031614611473576040805162461bcd60e51b81526020600482018190526024820152600080516020613bfb833981519152604482015290519081900360640190fd5b61147b611702565b6114c3576040805162461bcd60e51b815260206004820152601460248201527314185d5cd8589b194e881b9bdd081c185d5cd95960621b604482015290519081900360640190fd5b6114cb612a28565b565b6065546001600160a01b031681565b600054610100900460ff16806114f557506114f5612ac9565b80611503575060005460ff16155b61153e5760405162461bcd60e51b815260040180806020018281038252602e815260200180613bac602e913960400191505060405180910390fd5b600054610100900460ff16158015611569576000805460ff1961ff0019909116610100171660011790555b61157687878787876126d8565b60d980546001600160a01b0319166001600160a01b038416179055600160da5580156115a8576000805461ff00191690555b50505050505050565b60985460ff16156115f35760405162461bcd60e51b8152600401808060200182810382526046815260200180613ad26046913960600191505060405180910390fd5b6115fb61292d565b6001600160a01b031661160c611aba565b6001600160a01b031614611655576040805162461bcd60e51b81526020600482018190526024820152600080516020613bfb833981519152604482015290519081900360640190fd5b60985460009060ff166116bc5761166a6120a8565b60d2556116756118ca565b60d1556001600160a01b038116156116bc5761169081610858565b6001600160a01b038216600090815260d4602090815260408083209390935560d25460d3909152919020555b60d15482116116fc5760405162461bcd60e51b8152600401808060200182810382526026815260200180613c506026913960400191505060405180910390fd5b5060cc55565b609854610100900460ff1690565b6001600160a01b038116600090815260d6602052604081206060919061173590612868565b90508067ffffffffffffffff8111801561174e57600080fd5b50604051908082528060200260200182016040528015611778578160200160208202803683370190505b506001600160a01b038416600090815260d6602052604081209193505b61179e82612868565b8110156117da5760006117b7838363ffffffff61296316565b9050808583815181106117c657fe5b602090810291909101015250600101611795565b505050919050565b60cf5481565b6001600160a01b038116600090815260d6602052604081206108d690612868565b61181161292d565b6001600160a01b0316611822611aba565b6001600160a01b03161461186b576040805162461bcd60e51b81526020600482018190526024820152600080516020613bfb833981519152604482015290519081900360640190fd5b6033546040516000916001600160a01b0316907f8be0079c531659141344cd1fd0a4f28419497f9722a3daafe3b4186f6b6457e0908390a3603380546001600160a01b0319169055565b60cb546001600160a01b031681565b60cd5481565b6000610b094260cc54612ada565b6118e061292d565b6001600160a01b03166118f1611aba565b6001600160a01b03161461193a576040805162461bcd60e51b81526020600482018190526024820152600080516020613bfb833981519152604482015290519081900360640190fd5b611942611702565b15611987576040805162461bcd60e51b815260206004820152601060248201526f14185d5cd8589b194e881c185d5cd95960821b604482015290519081900360640190fd5b6114cb612af0565b61199761292d565b6001600160a01b03166119a8611aba565b6001600160a01b0316146119f1576040805162461bcd60e51b81526020600482018190526024820152600080516020613bfb833981519152604482015290519081900360640190fd5b60cb546001600160a01b0383811691161415611a3e5760405162461bcd60e51b8152600401808060200182810382526021815260200180613d016021913960400191505060405180910390fd5b611a60611a49611aba565b6001600160a01b038416908363ffffffff6129d616565b604080516001600160a01b03841681526020810183905281517f8c1256b8896378cd5044f80c202f9772b9d77dc85c8a6eb51967210b09bfaa28929181900390910190a15050565b60d36020526000908152604090205481565b6033546001600160a01b031690565b60d95460408051639a1cdba160e01b81526004810184905290516000926001600160a01b031691639a1cdba1916024808301926020929190829003018186803b158015611b1557600080fd5b505afa158015611b29573d6000803e3d6000fd5b505050506040513d6020811015611b3f57600080fd5b505160da549091508114611b8f576040805162461bcd60e51b8152602060048201526012602482015271098c2dcc840e8d2cae440dad2e6dac2e8c6d60731b604482015290519081900360640190fd5b611b9882612b75565b5050565b60985460ff1615611bde5760405162461bcd60e51b8152600401808060200182810382526046815260200180613ad26046913960600191505060405180910390fd5b60026066541415611c24576040805162461bcd60e51b815260206004820152601f6024820152600080516020613ab2833981519152604482015290519081900360640190fd5b6002606655604080516020808402828101820190935283825290918491849182918501908490808284376000920182905250925050505b8151811015611cec57336001600160a01b031660d76000848481518110611c7e57fe5b6020908102919091018101518252810191909152604001600020546001600160a01b031614611ce4576040805162461bcd60e51b815260206004820152600d60248201526c1058d8d95cdcc819195b9a5959609a1b604482015290519081900360640190fd5b600101611c5b565b50609854339060ff16611d5357611d016120a8565b60d255611d0c6118ca565b60d1556001600160a01b03811615611d5357611d2781610858565b6001600160a01b038216600090815260d4602090815260408083209390935560d25460d3909152919020555b60d0541580611d84575060d05433600090815260d86020526040902054611d8190429063ffffffff61280b16565b10155b611dbf5760405162461bcd60e51b8152600401808060200182810382526035815260200180613c1b6035913960400191505060405180910390fd5b60d554611dd2908463ffffffff61280b16565b5060005b83811015611f4a57611e11858583818110611ded57fe5b33600090815260d6602090815260409091209391020135905063ffffffff61295716565b5060d76000868684818110611e2257fe5b6020908102929092013583525081019190915260400160002080546001600160a01b031916905560cb546001600160a01b03166342842e0e3033888886818110611e6857fe5b905060200201356040518463ffffffff1660e01b815260040180846001600160a01b03166001600160a01b03168152602001836001600160a01b03166001600160a01b031681526020018281526020019350505050600060405180830381600087803b158015611ed757600080fd5b505af1158015611eeb573d6000803e3d6000fd5b50505050336001600160a01b03167f7084f5476618d8e60b11ef0d7d3f06914655adb8793e28ff7f018d4c76d505d5868684818110611f2657fe5b905060200201356040518082815260200191505060405180910390a2600101611dd6565b5033600090815260d660205260409020611f6390612868565b611f785733600090815260d860205260408120555b505060016066555050565b60d15481565b60985460ff1615611fcb5760405162461bcd60e51b8152600401808060200182810382526046815260200180613ad26046913960600191505060405180910390fd5b611fd361292d565b6001600160a01b0316611fe4611aba565b6001600160a01b03161461202d576040805162461bcd60e51b81526020600482018190526024820152600080516020613bfb833981519152604482015290519081900360640190fd5b60cc54421161206d5760405162461bcd60e51b8152600401808060200182810382526058815260200180613a5a6058913960600191505060405180910390fd5b60ce8190556040805182815290517ffb46ca5a5e06d4540d6387b930a7c978bce0db5f449ec6b3f5d07c6e1d44f2d39181900360200190a150565b600060d554600014156120be575060d254610a69565b610b096120db60d5546110e960cd546108be60d1546108916118ca565b60d2549063ffffffff6128d316565b60ca546001600160a01b031681565b60d25481565b60985460ff16156121415760405162461bcd60e51b8152600401808060200182810382526046815260200180613ad26046913960600191505060405180910390fd5b61214961292d565b6001600160a01b031661215a611aba565b6001600160a01b0316146121a3576040805162461bcd60e51b81526020600482018190526024820152600080516020613bfb833981519152604482015290519081900360640190fd5b600060cf81905560d081905560cc81905560cd81905560d2556114cb612de1565b60985460ff16156122065760405162461bcd60e51b8152600401808060200182810382526046815260200180613ad26046913960600191505060405180910390fd5b61220e61292d565b6001600160a01b031661221f611aba565b6001600160a01b031614612268576040805162461bcd60e51b81526020600482018190526024820152600080516020613bfb833981519152604482015290519081900360640190fd5b60d08190556040805182815290517f2b0fa66d155c9598699cb6569577f27b95729bbf580268eed39db6bc4e8144779181900360200190a150565b60985460ff16156122e55760405162461bcd60e51b8152600401808060200182810382526046815260200180613ad26046913960600191505060405180910390fd5b60d0541580612316575060d05433600090815260d8602052604090205461231390429063ffffffff61280b16565b10155b6123515760405162461bcd60e51b8152600401808060200182810382526035815260200180613c1b6035913960400191505060405180910390fd5b33600090815260d66020526040812061236990612868565b60d55490915061237f908263ffffffff61280b16565b60d55533600090815260d660205260408120905b61239c82612868565b81101561245c5760006123b5838363ffffffff61296316565b90506123c7838263ffffffff61295716565b50600081815260d7602052604080822080546001600160a01b031916905560cb548151632142170760e11b81523060048201523360248201526044810185905291516001600160a01b03909116926342842e0e926064808201939182900301818387803b15801561243757600080fd5b505af115801561244b573d6000803e3d6000fd5b505060019093019250612393915050565b5033600090815260d66020526040902061247590612868565b61248a5733600090815260d860205260408120555b611b98611233565b60cc5481565b60005b81518110156125875760d95482516000916001600160a01b031690639a1cdba1908590859081106124c857fe5b60200260200101516040518263ffffffff1660e01b81526004018082815260200191505060206040518083038186803b15801561250457600080fd5b505afa158015612518573d6000803e3d6000fd5b505050506040513d602081101561252e57600080fd5b505160da54909150811461257e576040805162461bcd60e51b8152602060048201526012602482015271098c2dcc840e8d2cae440dad2e6dac2e8c6d60731b604482015290519081900360640190fd5b5060010161249b565b5061259181612e7b565b50565b61259c61292d565b6001600160a01b03166125ad611aba565b6001600160a01b0316146125f6576040805162461bcd60e51b81526020600482018190526024820152600080516020613bfb833981519152604482015290519081900360640190fd5b6001600160a01b03811661263b5760405162461bcd60e51b8152600401808060200182810382526026815260200180613b606026913960400191505060405180910390fd5b6033546040516001600160a01b038084169216907f8be0079c531659141344cd1fd0a4f28419497f9722a3daafe3b4186f6b6457e090600090a3603380546001600160a01b0319166001600160a01b0392909216919091179055565b60d05433600090815260d86020526040812054909182918291610b2e9142916126c6919063ffffffff6128d316565b9063ffffffff61293116565b60da5481565b600054610100900460ff16806126f157506126f1612ac9565b806126ff575060005460ff16155b61273a5760405162461bcd60e51b815260040180806020018281038252602e815260200180613bac602e913960400191505060405180910390fd5b600054610100900460ff16158015612765576000805460ff1961ff0019909116610100171660011790555b61276d61318e565b612775613237565b61277d613330565b6127856133dc565b61278d613487565b61279561352d565b61279e86612594565b60ca80546001600160a01b038087166001600160a01b03199283161790925560cb8054868416908316179055606580549288169290911691909117905560d0829055600060cc81905560cd5562ed4e0060ce558015612803576000805461ff00191690555b505050505050565b600082821115612862576040805162461bcd60e51b815260206004820152601e60248201527f536166654d6174683a207375627472616374696f6e206f766572666c6f770000604482015290519081900360640190fd5b50900390565b60006108d6826135cd565b600082612882575060006108d6565b8282028284828161288f57fe5b04146128cc5760405162461bcd60e51b8152600401808060200182810382526021815260200180613bda6021913960400191505060405180910390fd5b9392505050565b6000828201838110156128cc576040805162461bcd60e51b815260206004820152601b60248201527f536166654d6174683a206164646974696f6e206f766572666c6f770000000000604482015290519081900360640190fd5b3390565b6000808383111561294757506000905080612950565b50600190508183035b9250929050565b60006128cc83836135d1565b60006128cc8383613697565b60008082116129c5576040805162461bcd60e51b815260206004820152601a60248201527f536166654d6174683a206469766973696f6e206279207a65726f000000000000604482015290519081900360640190fd5b8183816129ce57fe5b049392505050565b604080516001600160a01b038416602482015260448082018490528251808303909101815260649091019091526020810180516001600160e01b031663a9059cbb60e01b179052610f7e9084906136fb565b612a30611702565b612a78576040805162461bcd60e51b815260206004820152601460248201527314185d5cd8589b194e881b9bdd081c185d5cd95960621b604482015290519081900360640190fd5b6098805461ff00191690557f5db9ee0a495bf2e6ff9c91a7834c1ba4fdd244a5e8aa4e537bd38aeae4b073aa612aac61292d565b604080516001600160a01b039092168252519081900360200190a1565b6000612ad4306137ac565b15905090565b6000818310612ae957816128cc565b5090919050565b612af8611702565b15612b3d576040805162461bcd60e51b815260206004820152601060248201526f14185d5cd8589b194e881c185d5cd95960821b604482015290519081900360640190fd5b6098805461ff0019166101001790557f62e78cea01bee320cd4e420270b5ea74000d11b0c9f74754ebdbfc544b05a258612aac61292d565b60985460ff1615612bb75760405162461bcd60e51b8152600401808060200182810382526046815260200180613ad26046913960600191505060405180910390fd5b60026066541415612bfd576040805162461bcd60e51b815260206004820152601f6024820152600080516020613ab2833981519152604482015290519081900360640190fd5b6002606655612c0a611702565b15612c4f576040805162461bcd60e51b815260206004820152601060248201526f14185d5cd8589b194e881c185d5cd95960821b604482015290519081900360640190fd5b609854339060ff16612cb557612c636120a8565b60d255612c6e6118ca565b60d1556001600160a01b03811615612cb557612c8981610858565b6001600160a01b038216600090815260d4602090815260408083209390935560d25460d3909152919020555b60d554612cc990600163ffffffff6128d316565b60d55533600090815260d660205260409020612ceb908363ffffffff6137b216565b50600082815260d76020908152604080832080546001600160a01b03191633908117909155835260d8909152902054612d315733600090815260d8602052604090204290555b60cb5460408051632142170760e11b81523360048201523060248201526044810185905290516001600160a01b03909216916342842e0e9160648082019260009290919082900301818387803b158015612d8a57600080fd5b505af1158015612d9e573d6000803e3d6000fd5b50506040805185815290513393507f9e71bc8eea02a63969f509818f2dafb9254532904319f9dbda79b67bd34a5f3d92509081900360200190a250506001606655565b612de961292d565b6001600160a01b0316612dfa611aba565b6001600160a01b031614612e43576040805162461bcd60e51b81526020600482018190526024820152600080516020613bfb833981519152604482015290519081900360640190fd5b6098805460ff191660011790556040517fe68101b30364d616deefc8cd307b7e27ccbd9c73f138bd478179497563d97a1190600090a1565b60985460ff1615612ebd5760405162461bcd60e51b8152600401808060200182810382526046815260200180613ad26046913960600191505060405180910390fd5b60026066541415612f03576040805162461bcd60e51b815260206004820152601f6024820152600080516020613ab2833981519152604482015290519081900360640190fd5b6002606655612f10611702565b15612f55576040805162461bcd60e51b815260206004820152601060248201526f14185d5cd8589b194e881c185d5cd95960821b604482015290519081900360640190fd5b609854339060ff16612fbb57612f696120a8565b60d255612f746118ca565b60d1556001600160a01b03811615612fbb57612f8f81610858565b6001600160a01b038216600090815260d4602090815260408083209390935560d25460d3909152919020555b815160d554612fcf9163ffffffff6128d316565b60d55533600090815260d86020526040902054612ff95733600090815260d8602052604090204290555b60005b82518110156131845761303c83828151811061301457fe5b60209081029190910181015133600090815260d690925260409091209063ffffffff6137b216565b503360d7600085848151811061304e57fe5b602090810291909101810151825281019190915260400160002080546001600160a01b0319166001600160a01b0392831617905560cb5484519116906342842e0e90339030908790869081106130a057fe5b60200260200101516040518463ffffffff1660e01b815260040180846001600160a01b03166001600160a01b03168152602001836001600160a01b03166001600160a01b031681526020018281526020019350505050600060405180830381600087803b15801561311057600080fd5b505af1158015613124573d6000803e3d6000fd5b50505050336001600160a01b03167f9e71bc8eea02a63969f509818f2dafb9254532904319f9dbda79b67bd34a5f3d84838151811061315f57fe5b60200260200101516040518082815260200191505060405180910390a2600101612ffc565b5050600160665550565b600054610100900460ff16806131a757506131a7612ac9565b806131b5575060005460ff16155b6131f05760405162461bcd60e51b815260040180806020018281038252602e815260200180613bac602e913960400191505060405180910390fd5b600054610100900460ff1615801561321b576000805460ff1961ff0019909116610100171660011790555b61322361352d565b8015612591576000805461ff001916905550565b600054610100900460ff16806132505750613250612ac9565b8061325e575060005460ff16155b6132995760405162461bcd60e51b815260040180806020018281038252602e815260200180613bac602e913960400191505060405180910390fd5b600054610100900460ff161580156132c4576000805460ff1961ff0019909116610100171660011790555b60006132ce61292d565b603380546001600160a01b0319166001600160a01b038316908117909155604051919250906000907f8be0079c531659141344cd1fd0a4f28419497f9722a3daafe3b4186f6b6457e0908290a3508015612591576000805461ff001916905550565b600054610100900460ff16806133495750613349612ac9565b80613357575060005460ff16155b6133925760405162461bcd60e51b815260040180806020018281038252602e815260200180613bac602e913960400191505060405180910390fd5b600054610100900460ff161580156133bd576000805460ff1961ff0019909116610100171660011790555b6098805461ff00191690558015612591576000805461ff001916905550565b600054610100900460ff16806133f557506133f5612ac9565b80613403575060005460ff16155b61343e5760405162461bcd60e51b815260040180806020018281038252602e815260200180613bac602e913960400191505060405180910390fd5b600054610100900460ff16158015613469576000805460ff1961ff0019909116610100171660011790555b6098805460ff191690558015612591576000805461ff001916905550565b600054610100900460ff16806134a057506134a0612ac9565b806134ae575060005460ff16155b6134e95760405162461bcd60e51b815260040180806020018281038252602e815260200180613bac602e913960400191505060405180910390fd5b600054610100900460ff16158015613514576000805460ff1961ff0019909116610100171660011790555b60016066558015612591576000805461ff001916905550565b600054610100900460ff16806135465750613546612ac9565b80613554575060005460ff16155b61358f5760405162461bcd60e51b815260040180806020018281038252602e815260200180613bac602e913960400191505060405180910390fd5b600054610100900460ff16158015613223576000805460ff1961ff0019909116610100171660011790558015612591576000805461ff001916905550565b5490565b6000818152600183016020526040812054801561368d578354600019808301919081019060009087908390811061360457fe5b906000526020600020015490508087600001848154811061362157fe5b60009182526020808320909101929092558281526001898101909252604090209084019055865487908061365157fe5b600190038181906000526020600020016000905590558660010160008781526020019081526020016000206000905560019450505050506108d6565b60009150506108d6565b815460009082106136d95760405162461bcd60e51b8152600401808060200182810382526022815260200180613a386022913960400191505060405180910390fd5b8260000182815481106136e857fe5b9060005260206000200154905092915050565b6060613750826040518060400160405280602081526020017f5361666545524332303a206c6f772d6c6576656c2063616c6c206661696c6564815250856001600160a01b03166137be9092919063ffffffff16565b805190915015610f7e5780806020019051602081101561376f57600080fd5b5051610f7e5760405162461bcd60e51b815260040180806020018281038252602a815260200180613ca0602a913960400191505060405180910390fd5b3b151590565b60006128cc83836137d5565b60606137cd848460008561381f565b949350505050565b60006137e1838361397b565b613817575081546001818101845560008481526020808220909301849055845484825282860190935260409020919091556108d6565b5060006108d6565b6060824710156138605760405162461bcd60e51b8152600401808060200182810382526026815260200180613b866026913960400191505060405180910390fd5b613869856137ac565b6138ba576040805162461bcd60e51b815260206004820152601d60248201527f416464726573733a2063616c6c20746f206e6f6e2d636f6e7472616374000000604482015290519081900360640190fd5b60006060866001600160a01b031685876040518082805190602001908083835b602083106138f95780518252601f1990920191602091820191016138da565b6001836020036101000a03801982511681845116808217855250505050505090500191505060006040518083038185875af1925050503d806000811461395b576040519150601f19603f3d011682016040523d82523d6000602084013e613960565b606091505b5091509150613970828286613993565b979650505050505050565b60009081526001919091016020526040902054151590565b606083156139a25750816128cc565b8251156139b25782518084602001fd5b8160405162461bcd60e51b81526004018080602001828103825283818151815260200191508051906020019080838360005b838110156139fc5781810151838201526020016139e4565b50505050905090810190601f168015613a295780820380516001836020036101000a031916815260200191505b509250505060405180910390fdfe456e756d657261626c655365743a20696e646578206f7574206f6620626f756e647350726576696f7573207265776172647320706572696f64206d75737420626520636f6d706c657465206265666f7265206368616e67696e6720746865206475726174696f6e20666f7220746865206e657720706572696f645265656e7472616e637947756172643a207265656e7472616e742063616c6c005468697320616374696f6e2063616e6e6f7420626520706572666f726d6564207768696c652074686520636f6e747261637420697320696e204661696c73616665204d6f64655468697320616374696f6e2063616e206f6e6c7920626520706572666f726d6564207768696c652074686520636f6e747261637420697320696e204661696c73616665204d6f64654f776e61626c653a206e6577206f776e657220697320746865207a65726f2061646472657373416464726573733a20696e73756666696369656e742062616c616e636520666f722063616c6c496e697469616c697a61626c653a20636f6e747261637420697320616c726561647920696e697469616c697a6564536166654d6174683a206d756c7469706c69636174696f6e206f766572666c6f774f776e61626c653a2063616c6c6572206973206e6f7420746865206f776e657243616e6e6f7420776974686472617720756e74696c206d696e696d756d207374616b696e672074696d65206861732070617373656454696d657374616d70206d757374206265206166746572206c61737455706461746554696d6543616c6c6572206973206e6f742052657761726473446973747269627574696f6e20636f6e74726163745361666545524332303a204552433230206f7065726174696f6e20646964206e6f74207375636365656443616e6e6f74206765742072657761726420756e74696c206d696e696d756d207374616b696e672074696d65206861732070617373656443616e6e6f7420776974686472617720746865207374616b696e6720746f6b656ea26469706673582212206049db5ba085a76a433e8aa2a74c910e2586e585c093b8e4f4c901fe1a641eec64736f6c63430006050033",
  "immutableReferences": {},
  "source": "pragma solidity ^0.6.2;\r\n\r\nimport \"./staking/NftStakingRewardsUpgradeable.sol\";\r\nimport \"./CBKLand.sol\";\r\n\r\ncontract CBKLandT1StakingRewardsUpgradeable is NftStakingRewardsUpgradeable {\r\n    CBKLand internal __cbkLand;\r\n    uint256 public stakeTier;\r\n\r\n    function initialize(\r\n        address _owner,\r\n        address _rewardsDistribution,\r\n        address _rewardsToken,\r\n        address _stakingToken,\r\n        uint256 _minimumStakeTime,\r\n        CBKLand _cbkLand\r\n    ) public initializer {\r\n      super.initialize(\r\n        _owner,\r\n        _rewardsDistribution,\r\n        _rewardsToken,\r\n        _stakingToken,\r\n        _minimumStakeTime);\r\n      __cbkLand = _cbkLand;\r\n      stakeTier = 1;\r\n    }\r\n\r\n    function stake(uint256 id) public virtual override {\r\n      uint256 landTier = __cbkLand.getLandTier(id);\r\n      require(landTier == stakeTier, 'Land tier mismatch');\r\n      super.stake(id);\r\n    }\r\n\r\n    function bulkStake(uint256[] memory ids) public virtual override {\r\n        for(uint i = 0; i < ids.length; i++) {\r\n            uint256 landTier = __cbkLand.getLandTier(ids[i]);\r\n            require(landTier == stakeTier, 'Land tier mismatch');\r\n        }\r\n        super.bulkStake(ids);\r\n    }\r\n}",
  "sourcePath": "K:\\\\cryptoblades1\\cryptoblades\\contracts\\CBKLandT1StakingRewardsUpgradeable.sol",
  "compiler": {
    "name": "solc",
    "version": "0.6.5+commit.f956cc89.Emscripten.clang"
  },
  "schemaVersion": "3.4.5",
  "updatedAt": "2022-09-25T08:05:16.240Z",
  "networkType": "ethereum",
  "devdoc": {
    "methods": {
      "owner()": {
        "details": "Returns the address of the current owner."
      },
      "paused()": {
        "details": "Returns true if the contract is paused, and false otherwise."
      },
      "renounceOwnership()": {
        "details": "Leaves the contract without owner. It will not be possible to call `onlyOwner` functions anymore. Can only be called by the current owner.     * NOTE: Renouncing ownership will leave the contract without an owner, thereby removing any functionality that is only available to the owner."
      },
      "transferOwnership(address)": {
        "details": "Transfers ownership of the contract to a new account (`newOwner`). Can only be called by the current owner."
      }
    }
  },
  "userdoc": {
    "methods": {}
  }
}