{
  "contractName": "CBKLand",
  "abi": [
    {
      "anonymous": false,
      "inputs": [
        {
          "indexed": true,
          "internalType": "address",
          "name": "owner",
          "type": "address"
        },
        {
          "indexed": true,
          "internalType": "address",
          "name": "approved",
          "type": "address"
        },
        {
          "indexed": true,
          "internalType": "uint256",
          "name": "tokenId",
          "type": "uint256"
        }
      ],
      "name": "Approval",
      "type": "event"
    },
    {
      "anonymous": false,
      "inputs": [
        {
          "indexed": true,
          "internalType": "address",
          "name": "owner",
          "type": "address"
        },
        {
          "indexed": true,
          "internalType": "address",
          "name": "operator",
          "type": "address"
        },
        {
          "indexed": false,
          "internalType": "bool",
          "name": "approved",
          "type": "bool"
        }
      ],
      "name": "ApprovalForAll",
      "type": "event"
    },
    {
      "anonymous": false,
      "inputs": [
        {
          "indexed": true,
          "internalType": "uint256",
          "name": "id",
          "type": "uint256"
        },
        {
          "indexed": false,
          "internalType": "uint256",
          "name": "chunkId",
          "type": "uint256"
        }
      ],
      "name": "LandChunkIdUpdated",
      "type": "event"
    },
    {
      "anonymous": false,
      "inputs": [
        {
          "indexed": true,
          "internalType": "address",
          "name": "minter",
          "type": "address"
        },
        {
          "indexed": false,
          "internalType": "uint256",
          "name": "id",
          "type": "uint256"
        },
        {
          "indexed": false,
          "internalType": "uint256",
          "name": "tier",
          "type": "uint256"
        },
        {
          "indexed": false,
          "internalType": "uint256",
          "name": "chunkId",
          "type": "uint256"
        }
      ],
      "name": "LandMinted",
      "type": "event"
    },
    {
      "anonymous": false,
      "inputs": [
        {
          "indexed": true,
          "internalType": "address",
          "name": "minter",
          "type": "address"
        },
        {
          "indexed": false,
          "internalType": "uint256",
          "name": "id",
          "type": "uint256"
        },
        {
          "indexed": false,
          "internalType": "uint256",
          "name": "tier",
          "type": "uint256"
        },
        {
          "indexed": false,
          "internalType": "uint256",
          "name": "chunkId",
          "type": "uint256"
        },
        {
          "indexed": false,
          "internalType": "address",
          "name": "reseller",
          "type": "address"
        }
      ],
      "name": "LandMintedWithReseller",
      "type": "event"
    },
    {
      "anonymous": false,
      "inputs": [
        {
          "indexed": true,
          "internalType": "address",
          "name": "reseller",
          "type": "address"
        },
        {
          "indexed": true,
          "internalType": "address",
          "name": "minter",
          "type": "address"
        },
        {
          "indexed": false,
          "internalType": "uint256",
          "name": "id",
          "type": "uint256"
        },
        {
          "indexed": false,
          "internalType": "uint256",
          "name": "tier",
          "type": "uint256"
        }
      ],
      "name": "LandTokenMinted",
      "type": "event"
    },
    {
      "anonymous": false,
      "inputs": [
        {
          "indexed": true,
          "internalType": "address",
          "name": "from",
          "type": "address"
        },
        {
          "indexed": true,
          "internalType": "address",
          "name": "to",
          "type": "address"
        },
        {
          "indexed": false,
          "internalType": "uint256",
          "name": "id",
          "type": "uint256"
        }
      ],
      "name": "LandTransfered",
      "type": "event"
    },
    {
      "anonymous": false,
      "inputs": [
        {
          "indexed": true,
          "internalType": "bytes32",
          "name": "role",
          "type": "bytes32"
        },
        {
          "indexed": true,
          "internalType": "bytes32",
          "name": "previousAdminRole",
          "type": "bytes32"
        },
        {
          "indexed": true,
          "internalType": "bytes32",
          "name": "newAdminRole",
          "type": "bytes32"
        }
      ],
      "name": "RoleAdminChanged",
      "type": "event"
    },
    {
      "anonymous": false,
      "inputs": [
        {
          "indexed": true,
          "internalType": "bytes32",
          "name": "role",
          "type": "bytes32"
        },
        {
          "indexed": true,
          "internalType": "address",
          "name": "account",
          "type": "address"
        },
        {
          "indexed": true,
          "internalType": "address",
          "name": "sender",
          "type": "address"
        }
      ],
      "name": "RoleGranted",
      "type": "event"
    },
    {
      "anonymous": false,
      "inputs": [
        {
          "indexed": true,
          "internalType": "bytes32",
          "name": "role",
          "type": "bytes32"
        },
        {
          "indexed": true,
          "internalType": "address",
          "name": "account",
          "type": "address"
        },
        {
          "indexed": true,
          "internalType": "address",
          "name": "sender",
          "type": "address"
        }
      ],
      "name": "RoleRevoked",
      "type": "event"
    },
    {
      "anonymous": false,
      "inputs": [
        {
          "indexed": true,
          "internalType": "address",
          "name": "from",
          "type": "address"
        },
        {
          "indexed": true,
          "internalType": "address",
          "name": "to",
          "type": "address"
        },
        {
          "indexed": true,
          "internalType": "uint256",
          "name": "tokenId",
          "type": "uint256"
        }
      ],
      "name": "Transfer",
      "type": "event"
    },
    {
      "inputs": [],
      "name": "DEFAULT_ADMIN_ROLE",
      "outputs": [
        {
          "internalType": "bytes32",
          "name": "",
          "type": "bytes32"
        }
      ],
      "stateMutability": "view",
      "type": "function",
      "constant": true
    },
    {
      "inputs": [],
      "name": "GAME_ADMIN",
      "outputs": [
        {
          "internalType": "bytes32",
          "name": "",
          "type": "bytes32"
        }
      ],
      "stateMutability": "view",
      "type": "function",
      "constant": true
    },
    {
      "inputs": [],
      "name": "LAR",
      "outputs": [
        {
          "internalType": "uint256",
          "name": "",
          "type": "uint256"
        }
      ],
      "stateMutability": "view",
      "type": "function",
      "constant": true
    },
    {
      "inputs": [],
      "name": "LBT",
      "outputs": [
        {
          "internalType": "uint256",
          "name": "",
          "type": "uint256"
        }
      ],
      "stateMutability": "view",
      "type": "function",
      "constant": true
    },
    {
      "inputs": [],
      "name": "LC",
      "outputs": [
        {
          "internalType": "uint256",
          "name": "",
          "type": "uint256"
        }
      ],
      "stateMutability": "view",
      "type": "function",
      "constant": true
    },
    {
      "inputs": [],
      "name": "LT",
      "outputs": [
        {
          "internalType": "uint256",
          "name": "",
          "type": "uint256"
        }
      ],
      "stateMutability": "view",
      "type": "function",
      "constant": true
    },
    {
      "inputs": [],
      "name": "LX",
      "outputs": [
        {
          "internalType": "uint256",
          "name": "",
          "type": "uint256"
        }
      ],
      "stateMutability": "view",
      "type": "function",
      "constant": true
    },
    {
      "inputs": [],
      "name": "LY",
      "outputs": [
        {
          "internalType": "uint256",
          "name": "",
          "type": "uint256"
        }
      ],
      "stateMutability": "view",
      "type": "function",
      "constant": true
    },
    {
      "inputs": [],
      "name": "NO_OWNED_LIMIT",
      "outputs": [
        {
          "internalType": "bytes32",
          "name": "",
          "type": "bytes32"
        }
      ],
      "stateMutability": "view",
      "type": "function",
      "constant": true
    },
    {
      "inputs": [],
      "name": "TSU",
      "outputs": [
        {
          "internalType": "uint256",
          "name": "",
          "type": "uint256"
        }
      ],
      "stateMutability": "view",
      "type": "function",
      "constant": true
    },
    {
      "inputs": [
        {
          "internalType": "address",
          "name": "to",
          "type": "address"
        },
        {
          "internalType": "uint256",
          "name": "tokenId",
          "type": "uint256"
        }
      ],
      "name": "approve",
      "outputs": [],
      "stateMutability": "nonpayable",
      "type": "function"
    },
    {
      "inputs": [
        {
          "internalType": "address",
          "name": "owner",
          "type": "address"
        }
      ],
      "name": "balanceOf",
      "outputs": [
        {
          "internalType": "uint256",
          "name": "",
          "type": "uint256"
        }
      ],
      "stateMutability": "view",
      "type": "function",
      "constant": true
    },
    {
      "inputs": [],
      "name": "baseURI",
      "outputs": [
        {
          "internalType": "string",
          "name": "",
          "type": "string"
        }
      ],
      "stateMutability": "view",
      "type": "function",
      "constant": true
    },
    {
      "inputs": [
        {
          "internalType": "uint256",
          "name": "tokenId",
          "type": "uint256"
        }
      ],
      "name": "getApproved",
      "outputs": [
        {
          "internalType": "address",
          "name": "",
          "type": "address"
        }
      ],
      "stateMutability": "view",
      "type": "function",
      "constant": true
    },
    {
      "inputs": [
        {
          "internalType": "bytes32",
          "name": "role",
          "type": "bytes32"
        }
      ],
      "name": "getRoleAdmin",
      "outputs": [
        {
          "internalType": "bytes32",
          "name": "",
          "type": "bytes32"
        }
      ],
      "stateMutability": "view",
      "type": "function",
      "constant": true
    },
    {
      "inputs": [
        {
          "internalType": "bytes32",
          "name": "role",
          "type": "bytes32"
        },
        {
          "internalType": "uint256",
          "name": "index",
          "type": "uint256"
        }
      ],
      "name": "getRoleMember",
      "outputs": [
        {
          "internalType": "address",
          "name": "",
          "type": "address"
        }
      ],
      "stateMutability": "view",
      "type": "function",
      "constant": true
    },
    {
      "inputs": [
        {
          "internalType": "bytes32",
          "name": "role",
          "type": "bytes32"
        }
      ],
      "name": "getRoleMemberCount",
      "outputs": [
        {
          "internalType": "uint256",
          "name": "",
          "type": "uint256"
        }
      ],
      "stateMutability": "view",
      "type": "function",
      "constant": true
    },
    {
      "inputs": [
        {
          "internalType": "bytes32",
          "name": "role",
          "type": "bytes32"
        },
        {
          "internalType": "address",
          "name": "account",
          "type": "address"
        }
      ],
      "name": "grantRole",
      "outputs": [],
      "stateMutability": "nonpayable",
      "type": "function"
    },
    {
      "inputs": [
        {
          "internalType": "bytes32",
          "name": "role",
          "type": "bytes32"
        },
        {
          "internalType": "address",
          "name": "account",
          "type": "address"
        }
      ],
      "name": "hasRole",
      "outputs": [
        {
          "internalType": "bool",
          "name": "",
          "type": "bool"
        }
      ],
      "stateMutability": "view",
      "type": "function",
      "constant": true
    },
    {
      "inputs": [
        {
          "internalType": "address",
          "name": "owner",
          "type": "address"
        },
        {
          "internalType": "address",
          "name": "operator",
          "type": "address"
        }
      ],
      "name": "isApprovedForAll",
      "outputs": [
        {
          "internalType": "bool",
          "name": "",
          "type": "bool"
        }
      ],
      "stateMutability": "view",
      "type": "function",
      "constant": true
    },
    {
      "inputs": [],
      "name": "name",
      "outputs": [
        {
          "internalType": "string",
          "name": "",
          "type": "string"
        }
      ],
      "stateMutability": "view",
      "type": "function",
      "constant": true
    },
    {
      "inputs": [
        {
          "internalType": "uint256",
          "name": "tokenId",
          "type": "uint256"
        }
      ],
      "name": "ownerOf",
      "outputs": [
        {
          "internalType": "address",
          "name": "",
          "type": "address"
        }
      ],
      "stateMutability": "view",
      "type": "function",
      "constant": true
    },
    {
      "inputs": [
        {
          "internalType": "bytes32",
          "name": "role",
          "type": "bytes32"
        },
        {
          "internalType": "address",
          "name": "account",
          "type": "address"
        }
      ],
      "name": "renounceRole",
      "outputs": [],
      "stateMutability": "nonpayable",
      "type": "function"
    },
    {
      "inputs": [
        {
          "internalType": "bytes32",
          "name": "role",
          "type": "bytes32"
        },
        {
          "internalType": "address",
          "name": "account",
          "type": "address"
        }
      ],
      "name": "revokeRole",
      "outputs": [],
      "stateMutability": "nonpayable",
      "type": "function"
    },
    {
      "inputs": [
        {
          "internalType": "address",
          "name": "from",
          "type": "address"
        },
        {
          "internalType": "address",
          "name": "to",
          "type": "address"
        },
        {
          "internalType": "uint256",
          "name": "tokenId",
          "type": "uint256"
        }
      ],
      "name": "safeTransferFrom",
      "outputs": [],
      "stateMutability": "nonpayable",
      "type": "function"
    },
    {
      "inputs": [
        {
          "internalType": "address",
          "name": "from",
          "type": "address"
        },
        {
          "internalType": "address",
          "name": "to",
          "type": "address"
        },
        {
          "internalType": "uint256",
          "name": "tokenId",
          "type": "uint256"
        },
        {
          "internalType": "bytes",
          "name": "_data",
          "type": "bytes"
        }
      ],
      "name": "safeTransferFrom",
      "outputs": [],
      "stateMutability": "nonpayable",
      "type": "function"
    },
    {
      "inputs": [
        {
          "internalType": "address",
          "name": "operator",
          "type": "address"
        },
        {
          "internalType": "bool",
          "name": "approved",
          "type": "bool"
        }
      ],
      "name": "setApprovalForAll",
      "outputs": [],
      "stateMutability": "nonpayable",
      "type": "function"
    },
    {
      "inputs": [
        {
          "internalType": "bytes4",
          "name": "interfaceId",
          "type": "bytes4"
        }
      ],
      "name": "supportsInterface",
      "outputs": [
        {
          "internalType": "bool",
          "name": "",
          "type": "bool"
        }
      ],
      "stateMutability": "view",
      "type": "function",
      "constant": true
    },
    {
      "inputs": [],
      "name": "symbol",
      "outputs": [
        {
          "internalType": "string",
          "name": "",
          "type": "string"
        }
      ],
      "stateMutability": "view",
      "type": "function",
      "constant": true
    },
    {
      "inputs": [
        {
          "internalType": "uint256",
          "name": "index",
          "type": "uint256"
        }
      ],
      "name": "tokenByIndex",
      "outputs": [
        {
          "internalType": "uint256",
          "name": "",
          "type": "uint256"
        }
      ],
      "stateMutability": "view",
      "type": "function",
      "constant": true
    },
    {
      "inputs": [
        {
          "internalType": "address",
          "name": "owner",
          "type": "address"
        },
        {
          "internalType": "uint256",
          "name": "index",
          "type": "uint256"
        }
      ],
      "name": "tokenOfOwnerByIndex",
      "outputs": [
        {
          "internalType": "uint256",
          "name": "",
          "type": "uint256"
        }
      ],
      "stateMutability": "view",
      "type": "function",
      "constant": true
    },
    {
      "inputs": [],
      "name": "totalSupply",
      "outputs": [
        {
          "internalType": "uint256",
          "name": "",
          "type": "uint256"
        }
      ],
      "stateMutability": "view",
      "type": "function",
      "constant": true
    },
    {
      "inputs": [
        {
          "internalType": "address",
          "name": "from",
          "type": "address"
        },
        {
          "internalType": "address",
          "name": "to",
          "type": "address"
        },
        {
          "internalType": "uint256",
          "name": "tokenId",
          "type": "uint256"
        }
      ],
      "name": "transferFrom",
      "outputs": [],
      "stateMutability": "nonpayable",
      "type": "function"
    },
    {
      "inputs": [],
      "name": "initialize",
      "outputs": [],
      "stateMutability": "nonpayable",
      "type": "function"
    },
    {
      "inputs": [
        {
          "internalType": "uint256",
          "name": "id",
          "type": "uint256"
        }
      ],
      "name": "get",
      "outputs": [
        {
          "internalType": "uint256",
          "name": "",
          "type": "uint256"
        },
        {
          "internalType": "uint256",
          "name": "",
          "type": "uint256"
        },
        {
          "internalType": "uint256",
          "name": "",
          "type": "uint256"
        },
        {
          "internalType": "uint256",
          "name": "",
          "type": "uint256"
        },
        {
          "internalType": "address",
          "name": "",
          "type": "address"
        }
      ],
      "stateMutability": "view",
      "type": "function",
      "constant": true
    },
    {
      "inputs": [
        {
          "internalType": "address",
          "name": "owner",
          "type": "address"
        }
      ],
      "name": "getOwned",
      "outputs": [
        {
          "internalType": "uint256[]",
          "name": "ownedIds",
          "type": "uint256[]"
        }
      ],
      "stateMutability": "view",
      "type": "function",
      "constant": true
    },
    {
      "inputs": [
        {
          "internalType": "uint256",
          "name": "land",
          "type": "uint256"
        }
      ],
      "name": "getLandReseller",
      "outputs": [
        {
          "internalType": "address",
          "name": "",
          "type": "address"
        }
      ],
      "stateMutability": "view",
      "type": "function",
      "constant": true
    },
    {
      "inputs": [
        {
          "internalType": "address",
          "name": "minter",
          "type": "address"
        },
        {
          "internalType": "uint256",
          "name": "tier",
          "type": "uint256"
        },
        {
          "internalType": "uint256",
          "name": "chunkId",
          "type": "uint256"
        }
      ],
      "name": "mint",
      "outputs": [],
      "stateMutability": "nonpayable",
      "type": "function"
    },
    {
      "inputs": [
        {
          "internalType": "address",
          "name": "minter",
          "type": "address"
        },
        {
          "internalType": "uint256",
          "name": "tier",
          "type": "uint256"
        },
        {
          "internalType": "uint256",
          "name": "chunkId",
          "type": "uint256"
        },
        {
          "internalType": "address",
          "name": "reseller",
          "type": "address"
        }
      ],
      "name": "mint",
      "outputs": [],
      "stateMutability": "nonpayable",
      "type": "function"
    },
    {
      "inputs": [
        {
          "internalType": "address",
          "name": "minter",
          "type": "address"
        },
        {
          "internalType": "uint256",
          "name": "tier",
          "type": "uint256"
        },
        {
          "internalType": "uint256",
          "name": "chunkId",
          "type": "uint256"
        },
        {
          "internalType": "address",
          "name": "reseller",
          "type": "address"
        },
        {
          "internalType": "uint256",
          "name": "quantity",
          "type": "uint256"
        }
      ],
      "name": "massMint",
      "outputs": [],
      "stateMutability": "nonpayable",
      "type": "function"
    },
    {
      "inputs": [
        {
          "internalType": "uint256",
          "name": "id",
          "type": "uint256"
        },
        {
          "internalType": "uint256",
          "name": "chunkId",
          "type": "uint256"
        }
      ],
      "name": "updateChunkId",
      "outputs": [],
      "stateMutability": "nonpayable",
      "type": "function"
    },
    {
      "inputs": [
        {
          "internalType": "uint256[]",
          "name": "ids",
          "type": "uint256[]"
        },
        {
          "internalType": "uint256",
          "name": "chunkId",
          "type": "uint256"
        }
      ],
      "name": "updateChunkId",
      "outputs": [],
      "stateMutability": "nonpayable",
      "type": "function"
    },
    {
      "inputs": [
        {
          "internalType": "uint256[]",
          "name": "ids",
          "type": "uint256[]"
        },
        {
          "internalType": "uint256",
          "name": "chunkId",
          "type": "uint256"
        }
      ],
      "name": "landsBelongToChunk",
      "outputs": [
        {
          "internalType": "bool",
          "name": "",
          "type": "bool"
        }
      ],
      "stateMutability": "view",
      "type": "function",
      "constant": true
    },
    {
      "inputs": [
        {
          "internalType": "uint256",
          "name": "id",
          "type": "uint256"
        }
      ],
      "name": "getLandTierURI",
      "outputs": [
        {
          "internalType": "string",
          "name": "uri",
          "type": "string"
        }
      ],
      "stateMutability": "view",
      "type": "function",
      "constant": true
    },
    {
      "inputs": [
        {
          "internalType": "uint256",
          "name": "id",
          "type": "uint256"
        }
      ],
      "name": "tokenURI",
      "outputs": [
        {
          "internalType": "string",
          "name": "",
          "type": "string"
        }
      ],
      "stateMutability": "view",
      "type": "function",
      "constant": true
    },
    {
      "inputs": [
        {
          "internalType": "uint256",
          "name": "tier",
          "type": "uint256"
        }
      ],
      "name": "getTierURI",
      "outputs": [
        {
          "internalType": "string",
          "name": "uri",
          "type": "string"
        }
      ],
      "stateMutability": "view",
      "type": "function",
      "constant": true
    },
    {
      "inputs": [
        {
          "internalType": "uint256",
          "name": "tier",
          "type": "uint256"
        },
        {
          "internalType": "uint256",
          "name": "index",
          "type": "uint256"
        },
        {
          "internalType": "string",
          "name": "val",
          "type": "string"
        }
      ],
      "name": "setTierStr",
      "outputs": [],
      "stateMutability": "nonpayable",
      "type": "function"
    },
    {
      "inputs": [
        {
          "internalType": "uint256",
          "name": "id",
          "type": "uint256"
        }
      ],
      "name": "getLandTier",
      "outputs": [
        {
          "internalType": "uint256",
          "name": "",
          "type": "uint256"
        }
      ],
      "stateMutability": "view",
      "type": "function",
      "constant": true
    }
  ],
  "bytecode": "0x608060405234801561001057600080fd5b50612c84806100206000396000f3fe608060405234801561001057600080fd5b50600436106102a05760003560e01c806381d765dc11610167578063b8943d49116100ce578063d547741f11610087578063d547741f14610a0e578063e97cf8e014610a3a578063e985e9c514610add578063f74bfe8e14610b0b578063fbaa177014610b45578063fed860d914610b4d576102a0565b8063b8943d4914610907578063bec8300b14610575578063c820c33214610575578063c87b56dd14610924578063ca15c87314610941578063d49ae9451461095e576102a0565b8063998969581161012057806399896958146107385780639a1cdba114610755578063a18e791414610772578063a217fddf14610575578063a22cb46514610815578063b88d4fde14610843576102a0565b806381d765dc1461064e5780638e1f4fc3146105755780639010d07c1461069057806391d14854146106b35780639507d39a146106df57806395d89b4114610730576102a0565b806342842e0e1161020b5780635dba06e4116101c45780635dba06e41461057d5780636352211e146105855780636c0360eb146105a257806370a08231146105aa5780637c688597146105d05780638129fc1c14610646576102a0565b806342842e0e146104ef5780634f6ccce71461052557806354dfd295146105425780635504d3d21461054a57806357144644146105525780635b614fec14610575576102a0565b806323b872dd1161025d57806323b872dd14610410578063248a9ca3146104465780632720e4f6146104635780632f2ff15d1461046b5780632f745c591461049757806336568abe146104c3576102a0565b806301ffc9a7146102a557806306fdde03146102e0578063081812fc1461035d578063095ea7b314610396578063156e29f6146103c457806318160ddd146103f6575b600080fd5b6102cc600480360360208110156102bb57600080fd5b50356001600160e01b031916610b6a565b604080519115158252519081900360200190f35b6102e8610b89565b6040805160208082528351818301528351919283929083019185019080838360005b8381101561032257818101518382015260200161030a565b50505050905090810190601f16801561034f5780820380516001836020036101000a031916815260200191505b509250505060405180910390f35b61037a6004803603602081101561037357600080fd5b5035610c20565b604080516001600160a01b039092168252519081900360200190f35b6103c2600480360360408110156103ac57600080fd5b506001600160a01b038135169060200135610c82565b005b6103c2600480360360608110156103da57600080fd5b506001600160a01b038135169060208101359060400135610d5d565b6103fe610df4565b60408051918252519081900360200190f35b6103c26004803603606081101561042657600080fd5b506001600160a01b03813581169160208101359091169060400135610e05565b6103fe6004803603602081101561045c57600080fd5b5035610e5c565b6103fe610e71565b6103c26004803603604081101561048157600080fd5b50803590602001356001600160a01b0316610e76565b6103fe600480360360408110156104ad57600080fd5b506001600160a01b038135169060200135610ee2565b6103c2600480360360408110156104d957600080fd5b50803590602001356001600160a01b0316610f13565b6103c26004803603606081101561050557600080fd5b506001600160a01b03813581169160208101359091169060400135610f74565b6103fe6004803603602081101561053b57600080fd5b5035610f8f565b6103fe610fab565b6103fe610fb0565b6103c26004803603604081101561056857600080fd5b5080359060200135610fd2565b6103fe61102e565b6103fe611033565b61037a6004803603602081101561059b57600080fd5b5035611059565b6102e8611087565b6103fe600480360360208110156105c057600080fd5b50356001600160a01b03166110e8565b6105f6600480360360208110156105e657600080fd5b50356001600160a01b0316611150565b60408051602080825283518183015283519192839290830191858101910280838360005b8381101561063257818101518382015260200161061a565b505050509050019250505060405180910390f35b6103c26111de565b6103c2600480360360a081101561066457600080fd5b506001600160a01b038135811691602081013591604082013591606081013590911690608001356112ee565b61037a600480360360408110156106a657600080fd5b508035906020013561131d565b6102cc600480360360408110156106c957600080fd5b50803590602001356001600160a01b031661133b565b6106fc600480360360208110156106f557600080fd5b5035611359565b6040805195865260208601949094528484019290925260608401526001600160a01b03166080830152519081900360a00190f35b6102e86113b2565b61037a6004803603602081101561074e57600080fd5b5035611413565b6103fe6004803603602081101561076b57600080fd5b5035611439565b6103c26004803603604081101561078857600080fd5b810190602081018135600160201b8111156107a257600080fd5b8201836020820111156107b457600080fd5b803590602001918460208302840111600160201b831117156107d557600080fd5b9190808060200260200160405190810160405280939291908181526020018383602002808284376000920191909152509295505091359250611456915050565b6103c26004803603604081101561082b57600080fd5b506001600160a01b038135169060200135151561148f565b6103c26004803603608081101561085957600080fd5b6001600160a01b03823581169260208101359091169160408201359190810190608081016060820135600160201b81111561089357600080fd5b8201836020820111156108a557600080fd5b803590602001918460018302840111600160201b831117156108c657600080fd5b91908080601f016020809104026020016040519081016040528093929190818152602001838380828437600092019190915250929550611594945050505050565b6102e86004803603602081101561091d57600080fd5b50356115f2565b6102e86004803603602081101561093a57600080fd5b503561169b565b6103fe6004803603602081101561095757600080fd5b50356116a6565b6103c26004803603606081101561097457600080fd5b813591602081013591810190606081016040820135600160201b81111561099a57600080fd5b8201836020820111156109ac57600080fd5b803590602001918460018302840111600160201b831117156109cd57600080fd5b91908080601f0160208091040260200160405190810160405280939291908181526020018383808284376000920191909152509295506116bd945050505050565b6103c260048036036040811015610a2457600080fd5b50803590602001356001600160a01b03166116ec565b6102cc60048036036040811015610a5057600080fd5b810190602081018135600160201b811115610a6a57600080fd5b820183602082011115610a7c57600080fd5b803590602001918460208302840111600160201b83111715610a9d57600080fd5b9190808060200260200160405190810160405280939291908181526020018383602002808284376000920191909152509295505091359250611745915050565b6102cc60048036036040811015610af357600080fd5b506001600160a01b03813581169160200135166117d4565b6103c260048036036080811015610b2157600080fd5b506001600160a01b0381358116916020810135916040820135916060013516611802565b6103fe6118cc565b6102e860048036036020811015610b6357600080fd5b50356118d1565b6001600160e01b03191660009081526033602052604090205460ff1690565b606a8054604080516020601f6002600019610100600188161502019095169490940493840181900481028201810190925282815260609390929091830182828015610c155780601f10610bea57610100808354040283529160200191610c15565b820191906000526020600020905b815481529060010190602001808311610bf857829003601f168201915b505050505090505b90565b6000610c2b826118f4565b610c665760405162461bcd60e51b815260040180806020018281038252602c815260200180612b79602c913960400191505060405180910390fd5b506000908152606860205260409020546001600160a01b031690565b6000610c8d82611059565b9050806001600160a01b0316836001600160a01b03161415610ce05760405162461bcd60e51b8152600401808060200182810382526021815260200180612bce6021913960400191505060405180910390fd5b806001600160a01b0316610cf2611907565b6001600160a01b03161480610d135750610d1381610d0e611907565b6117d4565b610d4e5760405162461bcd60e51b8152600401808060200182810382526038815260200180612a9e6038913960400191505060405180910390fd5b610d58838361190b565b505050565b610d65611979565b60c980546001808201909255600081815260ca6020908152604080832083805290915280822086905592815291909120829055610da284826119eb565b604080518281526020810185905280820184905290516001600160a01b038616917fec81cf35afa3e6238d13ae3b6841f31c87c9d0308c0dbc3fc7f3c53b037eb3c5919081900360600190a250505050565b6000610e006066611b25565b905090565b610e16610e10611907565b82611b30565b610e515760405162461bcd60e51b8152600401808060200182810382526031815260200180612bef6031913960400191505060405180910390fd5b610d58838383611bd4565b60009081526097602052604090206002015490565b600181565b600082815260976020526040902060020154610e9990610e94611907565b61133b565b610ed45760405162461bcd60e51b815260040180806020018281038252602f8152602001806129bd602f913960400191505060405180910390fd5b610ede8282611d32565b5050565b6001600160a01b0382166000908152606560205260408120610f0a908363ffffffff611da116565b90505b92915050565b610f1b611907565b6001600160a01b0316816001600160a01b031614610f6a5760405162461bcd60e51b815260040180806020018281038252602f815260200180612c20602f913960400191505060405180910390fd5b610ede8282611dad565b610d5883838360405180602001604052806000815250611594565b600080610fa360668463ffffffff611e1c16565b509392505050565b600381565b604080516923a0a6a2afa0a226a4a760b11b8152905190819003600a01902081565b610fda611979565b600082815260ca60209081526040808320600184528252918290208390558151838152915184927f2e85b301306999ae012fd2ac66de0bea91e6ea98d76c25b269004b2d74b3631a92908290030190a25050565b600081565b604080516d1393d7d3d5d3915117d31253525560921b8152905190819003600e01902081565b6000610f0d82604051806060016040528060298152602001612b00602991396066919063ffffffff611e3816565b606d8054604080516020601f6002600019610100600188161502019095169490940493840181900481028201810190925282815260609390929091830182828015610c155780601f10610bea57610100808354040283529160200191610c15565b60006001600160a01b03821661112f5760405162461bcd60e51b815260040180806020018281038252602a815260200180612ad6602a913960400191505060405180910390fd5b6001600160a01b0382166000908152606560205260409020610f0d90611b25565b6060600061115d836110e8565b90508067ffffffffffffffff8111801561117657600080fd5b506040519080825280602002602001820160405280156111a0578160200160208202803683370190505b50915060005b818110156111d7576111b88482610ee2565b8382815181106111c457fe5b60209081029190910101526001016111a6565b5050919050565b600054610100900460ff16806111f757506111f7611e45565b80611205575060005460ff16155b6112405760405162461bcd60e51b815260040180806020018281038252602e815260200180612b29602e913960400191505060405180910390fd5b600054610100900460ff1615801561126b576000805460ff1961ff0019909116610100171660011790555b6112c66040518060400160405280601981526020017f43727970746f426c616465734b696e67646f6d73204c616e64000000000000008152506040518060400160405280600481526020016310d092d360e21b815250611e56565b6112ce611f13565b6112d9600033610ed4565b80156112eb576000805461ff00191690555b50565b6112f6611979565b60005b818110156113155761130d86868686611802565b6001016112f9565b505050505050565b6000828152609760205260408120610f0a908363ffffffff611da116565b6000828152609760205260408120610f0a908363ffffffff611fb316565b600081815260ca6020908152604080832083805282528083205460018452818420546002855282852054600386528386205496865260cd855283862086805290945291909320549294909391926001600160a01b031690565b606b8054604080516020601f6002600019610100600188161502019095169490940493840181900481028201810190925282815260609390929091830182828015610c155780601f10610bea57610100808354040283529160200191610c15565b600090815260cd602090815260408083208380529091529020546001600160a01b031690565b600090815260ca6020908152604080832083805290915290205490565b61145e611979565b60005b8251811015610d585761148783828151811061147957fe5b602002602001015183610fd2565b600101611461565b611497611907565b6001600160a01b0316826001600160a01b031614156114fd576040805162461bcd60e51b815260206004820152601960248201527f4552433732313a20617070726f766520746f2063616c6c657200000000000000604482015290519081900360640190fd5b806069600061150a611907565b6001600160a01b03908116825260208083019390935260409182016000908120918716808252919093529120805460ff19169215159290921790915561154e611907565b60408051841515815290516001600160a01b0392909216917f17307eab39ab6107e8899845ad3d59bd9653f200f220920489ca2b5937696c319181900360200190a35050565b6115a561159f611907565b83611b30565b6115e05760405162461bcd60e51b8152600401808060200182810382526031815260200180612bef6031913960400191505060405180910390fd5b6115ec84848484611fc8565b50505050565b600081815260ce6020908152604080832083805282529182902080548351601f600260001961010060018616150201909316929092049182018490048402810184019094528084526060939283018282801561168f5780601f106116645761010080835404028352916020019161168f565b820191906000526020600020905b81548152906001019060200180831161167257829003601f168201915b50505050509050919050565b6060610f0d826118d1565b6000818152609760205260408120610f0d90611b25565b6116c5611979565b600083815260ce60209081526040808320858452825290912082516115ec92840190612902565b60008281526097602052604090206002015461170a90610e94611907565b610f6a5760405162461bcd60e51b8152600401808060200182810382526030815260200180612a6e6030913960400191505060405180910390fd5b6000805b83518110156117ca578260ca600086848151811061176357fe5b60200260200101518152602001908152602001600020600060018152602001908152602001600020541461179b576000915050610f0d565b60c9548482815181106117aa57fe5b602002602001015111156117c2576000915050610f0d565b600101611749565b5060019392505050565b6001600160a01b03918216600090815260696020908152604080832093909416825291909152205460ff1690565b61180a611979565b60c980546001808201909255600081815260ca60209081526040808320838052825280832088905593825283822086905582825260cd815283822082805290529190912080546001600160a01b0319166001600160a01b03841617905561187185826119eb565b60408051828152602081018690528082018590526001600160a01b0384811660608301529151918716917feb0eeaa397ba5d2edc0e0e59bfd16fe5faccce0491744a5f5e7d53549e198d669181900360800190a25050505050565b600281565b606060006118de83611359565b5050505090506118ed816115f2565b9392505050565b6000610f0d60668363ffffffff61201a16565b3390565b600081815260686020526040902080546001600160a01b0319166001600160a01b038416908117909155819061194082611059565b6001600160a01b03167f8c5be1e5ebec7d5bd14f71427d1e84f3dd0314c0f7b2291e5b200ac8c7c3b92560405160405180910390a45050565b604080516923a0a6a2afa0a226a4a760b11b8152905190819003600a0190206119a2903361133b565b806119b357506119b360003361133b565b6119e9576040805162461bcd60e51b81526020600482015260026024820152614e4160f01b604482015290519081900360640190fd5b565b6001600160a01b038216611a46576040805162461bcd60e51b815260206004820181905260248201527f4552433732313a206d696e7420746f20746865207a65726f2061646472657373604482015290519081900360640190fd5b611a4f816118f4565b15611aa1576040805162461bcd60e51b815260206004820152601c60248201527f4552433732313a20746f6b656e20616c7265616479206d696e74656400000000604482015290519081900360640190fd5b611aad60008383610d58565b6001600160a01b0382166000908152606560205260409020611ad5908263ffffffff61202616565b50611ae86066828463ffffffff61203216565b5060405181906001600160a01b038416906000907fddf252ad1be2c89b69c2b068fc378daa952ba7f163c4a11628f55a4df523b3ef908290a45050565b6000610f0d82612048565b6000611b3b826118f4565b611b765760405162461bcd60e51b815260040180806020018281038252602c815260200180612a42602c913960400191505060405180910390fd5b6000611b8183611059565b9050806001600160a01b0316846001600160a01b03161480611bbc5750836001600160a01b0316611bb184610c20565b6001600160a01b0316145b80611bcc5750611bcc81856117d4565b949350505050565b826001600160a01b0316611be782611059565b6001600160a01b031614611c2c5760405162461bcd60e51b8152600401808060200182810382526029815260200180612ba56029913960400191505060405180910390fd5b6001600160a01b038216611c715760405162461bcd60e51b8152600401808060200182810382526024815260200180612a1e6024913960400191505060405180910390fd5b611c7c838383610d58565b611c8760008261190b565b6001600160a01b0383166000908152606560205260409020611caf908263ffffffff61204c16565b506001600160a01b0382166000908152606560205260409020611cd8908263ffffffff61202616565b50611ceb6066828463ffffffff61203216565b5080826001600160a01b0316846001600160a01b03167fddf252ad1be2c89b69c2b068fc378daa952ba7f163c4a11628f55a4df523b3ef60405160405180910390a4505050565b6000828152609760205260409020611d50908263ffffffff61205816565b15610ede57611d5d611907565b6001600160a01b0316816001600160a01b0316837f2f8788117e7eff1d82e926ec794901d17c78024a50270940304540a733656f0d60405160405180910390a45050565b6000610f0a838361206d565b6000828152609760205260409020611dcb908263ffffffff6120d116565b15610ede57611dd8611907565b6001600160a01b0316816001600160a01b0316837ff6391f5c32d9c69d2a47ea670b442974b53935d1edc7fd64eb21e047a839171b60405160405180910390a45050565b6000808080611e2b86866120e6565b9097909650945050505050565b6000611bcc848484612161565b6000611e503061222b565b15905090565b600054610100900460ff1680611e6f5750611e6f611e45565b80611e7d575060005460ff16155b611eb85760405162461bcd60e51b815260040180806020018281038252602e815260200180612b29602e913960400191505060405180910390fd5b600054610100900460ff16158015611ee3576000805460ff1961ff0019909116610100171660011790555b611eeb611f13565b611ef3612231565b611efd83836122ce565b8015610d58576000805461ff0019169055505050565b600054610100900460ff1680611f2c5750611f2c611e45565b80611f3a575060005460ff16155b611f755760405162461bcd60e51b815260040180806020018281038252602e815260200180612b29602e913960400191505060405180910390fd5b600054610100900460ff161580156112d9576000805460ff1961ff00199091166101001716600117905580156112eb576000805461ff001916905550565b6000610f0a836001600160a01b0384166123b3565b611fd3848484611bd4565b611fdf848484846123cb565b6115ec5760405162461bcd60e51b81526004018080602001828103825260328152602001806129ec6032913960400191505060405180910390fd5b6000610f0a83836123b3565b6000610f0a838361254b565b6000611bcc84846001600160a01b038516612595565b5490565b6000610f0a838361262c565b6000610f0a836001600160a01b03841661254b565b815460009082106120af5760405162461bcd60e51b815260040180806020018281038252602281526020018061299b6022913960400191505060405180910390fd5b8260000182815481106120be57fe5b9060005260206000200154905092915050565b6000610f0a836001600160a01b03841661262c565b81546000908190831061212a5760405162461bcd60e51b8152600401808060200182810382526022815260200180612b576022913960400191505060405180910390fd5b600084600001848154811061213b57fe5b906000526020600020906002020190508060000154816001015492509250509250929050565b600082815260018401602052604081205482816121fc5760405162461bcd60e51b81526004018080602001828103825283818151815260200191508051906020019080838360005b838110156121c15781810151838201526020016121a9565b50505050905090810190601f1680156121ee5780820380516001836020036101000a031916815260200191505b509250505060405180910390fd5b5084600001600182038154811061220f57fe5b9060005260206000209060020201600101549150509392505050565b3b151590565b600054610100900460ff168061224a575061224a611e45565b80612258575060005460ff16155b6122935760405162461bcd60e51b815260040180806020018281038252602e815260200180612b29602e913960400191505060405180910390fd5b600054610100900460ff161580156122be576000805460ff1961ff0019909116610100171660011790555b6112d96301ffc9a760e01b6126f2565b600054610100900460ff16806122e757506122e7611e45565b806122f5575060005460ff16155b6123305760405162461bcd60e51b815260040180806020018281038252602e815260200180612b29602e913960400191505060405180910390fd5b600054610100900460ff1615801561235b576000805460ff1961ff0019909116610100171660011790555b825161236e90606a906020860190612902565b50815161238290606b906020850190612902565b506123936380ac58cd60e01b6126f2565b6123a3635b5e139f60e01b6126f2565b611efd63780e9d6360e01b6126f2565b60009081526001919091016020526040902054151590565b60006123df846001600160a01b031661222b565b6123eb57506001611bcc565b6060612511630a85bd0160e11b612400611907565b88878760405160240180856001600160a01b03166001600160a01b03168152602001846001600160a01b03166001600160a01b0316815260200183815260200180602001828103825283818151815260200191508051906020019080838360005b83811015612479578181015183820152602001612461565b50505050905090810190601f1680156124a65780820380516001836020036101000a031916815260200191505b5095505050505050604051602081830303815290604052906001600160e01b0319166020820180516001600160e01b0383818316178352505050506040518060600160405280603281526020016129ec603291396001600160a01b038816919063ffffffff61277616565b9050600081806020019051602081101561252a57600080fd5b50516001600160e01b031916630a85bd0160e11b1492505050949350505050565b600061255783836123b3565b61258d57508154600181810184556000848152602080822090930184905584548482528286019093526040902091909155610f0d565b506000610f0d565b6000828152600184016020526040812054806125fa5750506040805180820182528381526020808201848152865460018181018955600089815284812095516002909302909501918255915190820155865486845281880190925292909120556118ed565b8285600001600183038154811061260d57fe5b90600052602060002090600202016001018190555060009150506118ed565b600081815260018301602052604081205480156126e8578354600019808301919081019060009087908390811061265f57fe5b906000526020600020015490508087600001848154811061267c57fe5b6000918252602080832090910192909255828152600189810190925260409020908401905586548790806126ac57fe5b60019003818190600052602060002001600090559055866001016000878152602001908152602001600020600090556001945050505050610f0d565b6000915050610f0d565b6001600160e01b03198082161415612751576040805162461bcd60e51b815260206004820152601c60248201527f4552433136353a20696e76616c696420696e7465726661636520696400000000604482015290519081900360640190fd5b6001600160e01b0319166000908152603360205260409020805460ff19166001179055565b6060611bcc84846000858561278a8561222b565b6127db576040805162461bcd60e51b815260206004820152601d60248201527f416464726573733a2063616c6c20746f206e6f6e2d636f6e7472616374000000604482015290519081900360640190fd5b60006060866001600160a01b031685876040518082805190602001908083835b6020831061281a5780518252601f1990920191602091820191016127fb565b6001836020036101000a03801982511681845116808217855250505050505090500191505060006040518083038185875af1925050503d806000811461287c576040519150601f19603f3d011682016040523d82523d6000602084013e612881565b606091505b509150915061289182828661289c565b979650505050505050565b606083156128ab5750816118ed565b8251156128bb5782518084602001fd5b60405162461bcd60e51b81526020600482018181528451602484015284518593919283926044019190850190808383600083156121c15781810151838201526020016121a9565b828054600181600116156101000203166002900490600052602060002090601f016020900481019282601f1061294357805160ff1916838001178555612970565b82800160010185558215612970579182015b82811115612970578251825591602001919060010190612955565b5061297c929150612980565b5090565b610c1d91905b8082111561297c576000815560010161298656fe456e756d657261626c655365743a20696e646578206f7574206f6620626f756e6473416363657373436f6e74726f6c3a2073656e646572206d75737420626520616e2061646d696e20746f206772616e744552433732313a207472616e7366657220746f206e6f6e20455243373231526563656976657220696d706c656d656e7465724552433732313a207472616e7366657220746f20746865207a65726f20616464726573734552433732313a206f70657261746f7220717565727920666f72206e6f6e6578697374656e7420746f6b656e416363657373436f6e74726f6c3a2073656e646572206d75737420626520616e2061646d696e20746f207265766f6b654552433732313a20617070726f76652063616c6c6572206973206e6f74206f776e6572206e6f7220617070726f76656420666f7220616c6c4552433732313a2062616c616e636520717565727920666f7220746865207a65726f20616464726573734552433732313a206f776e657220717565727920666f72206e6f6e6578697374656e7420746f6b656e496e697469616c697a61626c653a20636f6e747261637420697320616c726561647920696e697469616c697a6564456e756d657261626c654d61703a20696e646578206f7574206f6620626f756e64734552433732313a20617070726f76656420717565727920666f72206e6f6e6578697374656e7420746f6b656e4552433732313a207472616e73666572206f6620746f6b656e2074686174206973206e6f74206f776e4552433732313a20617070726f76616c20746f2063757272656e74206f776e65724552433732313a207472616e736665722063616c6c6572206973206e6f74206f776e6572206e6f7220617070726f766564416363657373436f6e74726f6c3a2063616e206f6e6c792072656e6f756e636520726f6c657320666f722073656c66a2646970667358221220eb851b838a1b222e8ef18e2499b6a0d3d0d654d0763560c4e319bbd3c1643d1164736f6c63430006050033",
  "immutableReferences": {},
  "source": "pragma solidity ^0.6.0;\r\n\r\nimport \"@openzeppelin/contracts-upgradeable/proxy/Initializable.sol\";\r\nimport \"@openzeppelin/contracts-upgradeable/token/ERC721/ERC721Upgradeable.sol\";\r\nimport \"@openzeppelin/contracts-upgradeable/access/AccessControlUpgradeable.sol\";\r\nimport \"@openzeppelin/contracts/math/SafeMath.sol\";\r\nimport \"./util.sol\";\r\n\r\ncontract CBKLand is Initializable, ERC721Upgradeable, AccessControlUpgradeable {\r\n\r\n    bytes32 public constant GAME_ADMIN = keccak256(\"GAME_ADMIN\");\r\n    bytes32 public constant NO_OWNED_LIMIT = keccak256(\"NO_OWNED_LIMIT\");\r\n\r\n    // Land specific\r\n    uint256 public constant LT = 0; // Land Tier\r\n    uint256 public constant LC = 1; // Land Chunk Id\r\n    uint256 public constant LX = 2; // Land Coordinate X\r\n    uint256 public constant LY = 3; // Land Coordinate Y\r\n    \r\n\r\n    event LandMinted(address indexed minter, uint256 id, uint256 tier, uint256 chunkId);\r\n    event LandTransfered(address indexed from, address indexed to, uint256 id);\r\n    event LandTokenMinted(address indexed reseller, address indexed minter, uint256 id, uint256 tier);\r\n    event LandMintedWithReseller(address indexed minter, uint256 id, uint256 tier, uint256 chunkId, address reseller);\r\n    event LandChunkIdUpdated(uint256 indexed id, uint256 chunkId);\r\n\r\n    // TotalLand\r\n    uint256 landMinted;\r\n    // Avoiding structs for stats\r\n    mapping(uint256 => mapping(uint256 => uint256)) landData;\r\n\r\n    mapping(uint256 => mapping(uint256 => string)) landStrData;\r\n\r\n    uint256 public constant LBT = 0; // Land is a Token, it will have its chunkId updated later\r\n    mapping(uint256 => mapping(uint256 => bool)) landBoolData;\r\n\r\n    uint256 public constant LAR = 0; // Land Reseller, the one who minted the token\r\n    mapping(uint256 => mapping(uint256 => address)) landAddressData;\r\n\r\n    uint256 public constant TSU = 0; // URI of a tier. Will put this in land NFT because it kinda belongs here\r\n    mapping(uint256 => mapping(uint256 => string)) tierStrData;\r\n\r\n    function initialize () public initializer {\r\n        __ERC721_init(\"CryptoBladesKingdoms Land\", \"CBKL\");\r\n        __AccessControl_init_unchained();\r\n\r\n        _setupRole(DEFAULT_ADMIN_ROLE, msg.sender);\r\n    }\r\n\r\n    modifier restricted() {\r\n        _restricted();\r\n        _;\r\n    }\r\n\r\n    function _restricted() internal view {\r\n        require(hasRole(GAME_ADMIN, msg.sender) || hasRole(DEFAULT_ADMIN_ROLE, msg.sender), \"NA\");\r\n    }\r\n\r\n     // tier, chunkid, x, y, reseller address\r\n    function get(uint256 id) public view returns (uint256, uint256, uint256, uint256, address) {\r\n        return (landData[id][LT], landData[id][LC], landData[id][LX], landData[id][LY], landAddressData[id][LAR]);\r\n    }\r\n\r\n    function getOwned(address owner) public view returns (uint256[] memory ownedIds) {\r\n        uint256 ownedLandCount = balanceOf(owner);\r\n        ownedIds = new uint256[](ownedLandCount);\r\n         for(uint256 i = 0; i < ownedLandCount; i++) {\r\n             ownedIds[i] = tokenOfOwnerByIndex(owner, i);\r\n        }\r\n    }\r\n\r\n    function getLandReseller(uint256 land) public view returns (address) {\r\n        return landAddressData[land][LAR];\r\n    }\r\n\r\n    // DO NOT call directly outside the logic of CBKLandSale to avoid breaking tier and chunk logic\r\n    function mint(address minter, uint256 tier, uint256 chunkId) public restricted {\r\n        uint256 tokenID = landMinted++;\r\n        \r\n        landData[tokenID][LT] = tier;\r\n        landData[tokenID][LC] = chunkId;\r\n        //landData[tokenID][LX] = x; // not yet\r\n        //landData[tokenID][LY] = y; // not yet\r\n        \r\n        _mint(minter, tokenID);\r\n        emit LandMinted(minter, tokenID, tier, chunkId);\r\n    }\r\n\r\n    function mint(address minter, uint256 tier, uint256 chunkId, address reseller) public restricted {\r\n        uint256 tokenID = landMinted++;\r\n        \r\n        landData[tokenID][LT] = tier;\r\n        landData[tokenID][LC] = chunkId;\r\n        //landData[tokenID][LX] = x; // not yet\r\n        //landData[tokenID][LY] = y; // not yet\r\n        \r\n        landAddressData[tokenID][LAR] = reseller;\r\n\r\n        _mint(minter, tokenID);\r\n        emit LandMintedWithReseller(minter, tokenID, tier, chunkId, reseller);\r\n    }\r\n\r\n    function massMint(address minter, uint256 tier, uint256 chunkId, address reseller, uint256 quantity) public restricted {\r\n        for(uint256 i = 0; i < quantity; i++) {\r\n            mint(minter, tier, chunkId, reseller);\r\n        }\r\n    }\r\n\r\n    function updateChunkId(uint256 id, uint256 chunkId) public restricted {\r\n        landData[id][LC] = chunkId;\r\n        emit LandChunkIdUpdated(id, chunkId);\r\n    }\r\n\r\n    function updateChunkId(uint256[] memory ids, uint256 chunkId) public restricted {\r\n        for(uint256 i = 0; i < ids.length; i++) {\r\n            updateChunkId(ids[i], chunkId);\r\n        }\r\n    }\r\n\r\n    // Helper function for bulk moving land without having to jump chains\r\n    function landsBelongToChunk(uint256[] memory ids, uint256 chunkId) public view returns (bool) {\r\n        for(uint256 i = 0; i < ids.length; i++) {\r\n            if(landData[ids[i]][LC] != chunkId) {\r\n                return false;\r\n            }\r\n\r\n            if(ids[i] > landMinted) {\r\n                return false;\r\n            }\r\n        }\r\n\r\n        return true;\r\n    }\r\n\r\n    function getLandTierURI(uint256 id) public view returns (string memory uri) {\r\n       (uint256 tier,,,,) = get(id);\r\n        return getTierURI(tier);\r\n    }\r\n\r\n    function tokenURI(uint256 id) public view override returns (string memory) {\r\n        return getLandTierURI(id);\r\n    }\r\n\r\n    function getTierURI(uint256 tier) public view returns (string memory uri) {\r\n        return tierStrData[tier][TSU];\r\n    }\r\n\r\n    function setTierStr(uint256 tier, uint256 index, string memory val) public restricted {\r\n        tierStrData[tier][index] = val;\r\n    }\r\n\r\n    function getLandTier(uint256 id) public view returns (uint256) {\r\n        return landData[id][LT];\r\n    }\r\n}\r\n",
  "sourcePath": "K:\\\\cryptoblades1\\cryptoblades\\contracts\\CBKLand.sol",
  "compiler": {
    "name": "solc",
    "version": "0.6.5+commit.f956cc89.Emscripten.clang"
  },
  "schemaVersion": "3.4.5",
  "updatedAt": "2022-09-25T07:58:17.633Z",
  "networkType": "ethereum",
  "devdoc": {
    "methods": {
      "approve(address,uint256)": {
        "details": "See {IERC721-approve}."
      },
      "balanceOf(address)": {
        "details": "See {IERC721-balanceOf}."
      },
      "baseURI()": {
        "details": "Returns the base URI set via {_setBaseURI}. This will be automatically added as a prefix in {tokenURI} to each token's URI, or to the token ID if no specific URI is set for that token ID."
      },
      "getApproved(uint256)": {
        "details": "See {IERC721-getApproved}."
      },
      "getRoleAdmin(bytes32)": {
        "details": "Returns the admin role that controls `role`. See {grantRole} and {revokeRole}.     * To change a role's admin, use {_setRoleAdmin}."
      },
      "getRoleMember(bytes32,uint256)": {
        "details": "Returns one of the accounts that have `role`. `index` must be a value between 0 and {getRoleMemberCount}, non-inclusive.     * Role bearers are not sorted in any particular way, and their ordering may change at any point.     * WARNING: When using {getRoleMember} and {getRoleMemberCount}, make sure you perform all queries on the same block. See the following https://forum.openzeppelin.com/t/iterating-over-elements-on-enumerableset-in-openzeppelin-contracts/2296[forum post] for more information."
      },
      "getRoleMemberCount(bytes32)": {
        "details": "Returns the number of accounts that have `role`. Can be used together with {getRoleMember} to enumerate all bearers of a role."
      },
      "grantRole(bytes32,address)": {
        "details": "Grants `role` to `account`.     * If `account` had not been already granted `role`, emits a {RoleGranted} event.     * Requirements:     * - the caller must have ``role``'s admin role."
      },
      "hasRole(bytes32,address)": {
        "details": "Returns `true` if `account` has been granted `role`."
      },
      "isApprovedForAll(address,address)": {
        "details": "See {IERC721-isApprovedForAll}."
      },
      "name()": {
        "details": "See {IERC721Metadata-name}."
      },
      "ownerOf(uint256)": {
        "details": "See {IERC721-ownerOf}."
      },
      "renounceRole(bytes32,address)": {
        "details": "Revokes `role` from the calling account.     * Roles are often managed via {grantRole} and {revokeRole}: this function's purpose is to provide a mechanism for accounts to lose their privileges if they are compromised (such as when a trusted device is misplaced).     * If the calling account had been granted `role`, emits a {RoleRevoked} event.     * Requirements:     * - the caller must be `account`."
      },
      "revokeRole(bytes32,address)": {
        "details": "Revokes `role` from `account`.     * If `account` had been granted `role`, emits a {RoleRevoked} event.     * Requirements:     * - the caller must have ``role``'s admin role."
      },
      "safeTransferFrom(address,address,uint256)": {
        "details": "See {IERC721-safeTransferFrom}."
      },
      "safeTransferFrom(address,address,uint256,bytes)": {
        "details": "See {IERC721-safeTransferFrom}."
      },
      "setApprovalForAll(address,bool)": {
        "details": "See {IERC721-setApprovalForAll}."
      },
      "supportsInterface(bytes4)": {
        "details": "See {IERC165-supportsInterface}.     * Time complexity O(1), guaranteed to always use less than 30 000 gas."
      },
      "symbol()": {
        "details": "See {IERC721Metadata-symbol}."
      },
      "tokenByIndex(uint256)": {
        "details": "See {IERC721Enumerable-tokenByIndex}."
      },
      "tokenOfOwnerByIndex(address,uint256)": {
        "details": "See {IERC721Enumerable-tokenOfOwnerByIndex}."
      },
      "totalSupply()": {
        "details": "See {IERC721Enumerable-totalSupply}."
      },
      "transferFrom(address,address,uint256)": {
        "details": "See {IERC721-transferFrom}."
      }
    }
  },
  "userdoc": {
    "methods": {}
  }
}