{
  "contractName": "Characters",
  "abi": [
    {
      "anonymous": false,
      "inputs": [
        {
          "indexed": true,
          "internalType": "address",
          "name": "owner",
          "type": "address"
        },
        {
          "indexed": true,
          "internalType": "address",
          "name": "approved",
          "type": "address"
        },
        {
          "indexed": true,
          "internalType": "uint256",
          "name": "tokenId",
          "type": "uint256"
        }
      ],
      "name": "Approval",
      "type": "event"
    },
    {
      "anonymous": false,
      "inputs": [
        {
          "indexed": true,
          "internalType": "address",
          "name": "owner",
          "type": "address"
        },
        {
          "indexed": true,
          "internalType": "address",
          "name": "operator",
          "type": "address"
        },
        {
          "indexed": false,
          "internalType": "bool",
          "name": "approved",
          "type": "bool"
        }
      ],
      "name": "ApprovalForAll",
      "type": "event"
    },
    {
      "anonymous": false,
      "inputs": [
        {
          "indexed": true,
          "internalType": "address",
          "name": "owner",
          "type": "address"
        },
        {
          "indexed": true,
          "internalType": "uint256",
          "name": "id",
          "type": "uint256"
        }
      ],
      "name": "Burned",
      "type": "event"
    },
    {
      "anonymous": false,
      "inputs": [
        {
          "indexed": true,
          "internalType": "address",
          "name": "owner",
          "type": "address"
        },
        {
          "indexed": true,
          "internalType": "uint256",
          "name": "character",
          "type": "uint256"
        },
        {
          "indexed": false,
          "internalType": "uint16",
          "name": "level",
          "type": "uint16"
        }
      ],
      "name": "LevelUp",
      "type": "event"
    },
    {
      "anonymous": false,
      "inputs": [
        {
          "indexed": true,
          "internalType": "uint256",
          "name": "character",
          "type": "uint256"
        },
        {
          "indexed": true,
          "internalType": "address",
          "name": "minter",
          "type": "address"
        }
      ],
      "name": "NewCharacter",
      "type": "event"
    },
    {
      "anonymous": false,
      "inputs": [
        {
          "indexed": true,
          "internalType": "bytes32",
          "name": "role",
          "type": "bytes32"
        },
        {
          "indexed": true,
          "internalType": "bytes32",
          "name": "previousAdminRole",
          "type": "bytes32"
        },
        {
          "indexed": true,
          "internalType": "bytes32",
          "name": "newAdminRole",
          "type": "bytes32"
        }
      ],
      "name": "RoleAdminChanged",
      "type": "event"
    },
    {
      "anonymous": false,
      "inputs": [
        {
          "indexed": true,
          "internalType": "bytes32",
          "name": "role",
          "type": "bytes32"
        },
        {
          "indexed": true,
          "internalType": "address",
          "name": "account",
          "type": "address"
        },
        {
          "indexed": true,
          "internalType": "address",
          "name": "sender",
          "type": "address"
        }
      ],
      "name": "RoleGranted",
      "type": "event"
    },
    {
      "anonymous": false,
      "inputs": [
        {
          "indexed": true,
          "internalType": "bytes32",
          "name": "role",
          "type": "bytes32"
        },
        {
          "indexed": true,
          "internalType": "address",
          "name": "account",
          "type": "address"
        },
        {
          "indexed": true,
          "internalType": "address",
          "name": "sender",
          "type": "address"
        }
      ],
      "name": "RoleRevoked",
      "type": "event"
    },
    {
      "anonymous": false,
      "inputs": [
        {
          "indexed": true,
          "internalType": "address",
          "name": "from",
          "type": "address"
        },
        {
          "indexed": true,
          "internalType": "address",
          "name": "to",
          "type": "address"
        },
        {
          "indexed": true,
          "internalType": "uint256",
          "name": "tokenId",
          "type": "uint256"
        }
      ],
      "name": "Transfer",
      "type": "event"
    },
    {
      "inputs": [],
      "name": "DEFAULT_ADMIN_ROLE",
      "outputs": [
        {
          "internalType": "bytes32",
          "name": "",
          "type": "bytes32"
        }
      ],
      "stateMutability": "view",
      "type": "function",
      "constant": true
    },
    {
      "inputs": [],
      "name": "GAME_ADMIN",
      "outputs": [
        {
          "internalType": "bytes32",
          "name": "",
          "type": "bytes32"
        }
      ],
      "stateMutability": "view",
      "type": "function",
      "constant": true
    },
    {
      "inputs": [],
      "name": "MINTER_ROLE",
      "outputs": [
        {
          "internalType": "bytes32",
          "name": "",
          "type": "bytes32"
        }
      ],
      "stateMutability": "view",
      "type": "function",
      "constant": true
    },
    {
      "inputs": [],
      "name": "NFTVAR_BONUS_POWER",
      "outputs": [
        {
          "internalType": "uint256",
          "name": "",
          "type": "uint256"
        }
      ],
      "stateMutability": "view",
      "type": "function",
      "constant": true
    },
    {
      "inputs": [],
      "name": "NFTVAR_BUSY",
      "outputs": [
        {
          "internalType": "uint256",
          "name": "",
          "type": "uint256"
        }
      ],
      "stateMutability": "view",
      "type": "function",
      "constant": true
    },
    {
      "inputs": [],
      "name": "NFTVAR_REPUTATION",
      "outputs": [
        {
          "internalType": "uint256",
          "name": "",
          "type": "uint256"
        }
      ],
      "stateMutability": "view",
      "type": "function",
      "constant": true
    },
    {
      "inputs": [],
      "name": "NFTVAR_SIMPLEQUEST_PROGRESS",
      "outputs": [
        {
          "internalType": "uint256",
          "name": "",
          "type": "uint256"
        }
      ],
      "stateMutability": "view",
      "type": "function",
      "constant": true
    },
    {
      "inputs": [],
      "name": "NFTVAR_SIMPLEQUEST_TYPE",
      "outputs": [
        {
          "internalType": "uint256",
          "name": "",
          "type": "uint256"
        }
      ],
      "stateMutability": "view",
      "type": "function",
      "constant": true
    },
    {
      "inputs": [],
      "name": "NO_OWNED_LIMIT",
      "outputs": [
        {
          "internalType": "bytes32",
          "name": "",
          "type": "bytes32"
        }
      ],
      "stateMutability": "view",
      "type": "function",
      "constant": true
    },
    {
      "inputs": [],
      "name": "SIMPLEQUEST_TYPE_RAID",
      "outputs": [
        {
          "internalType": "uint256",
          "name": "",
          "type": "uint256"
        }
      ],
      "stateMutability": "view",
      "type": "function",
      "constant": true
    },
    {
      "inputs": [
        {
          "internalType": "address",
          "name": "to",
          "type": "address"
        },
        {
          "internalType": "uint256",
          "name": "tokenId",
          "type": "uint256"
        }
      ],
      "name": "approve",
      "outputs": [],
      "stateMutability": "nonpayable",
      "type": "function"
    },
    {
      "inputs": [
        {
          "internalType": "address",
          "name": "owner",
          "type": "address"
        }
      ],
      "name": "balanceOf",
      "outputs": [
        {
          "internalType": "uint256",
          "name": "",
          "type": "uint256"
        }
      ],
      "stateMutability": "view",
      "type": "function",
      "constant": true
    },
    {
      "inputs": [],
      "name": "baseURI",
      "outputs": [
        {
          "internalType": "string",
          "name": "",
          "type": "string"
        }
      ],
      "stateMutability": "view",
      "type": "function",
      "constant": true
    },
    {
      "inputs": [],
      "name": "characterLimit",
      "outputs": [
        {
          "internalType": "uint256",
          "name": "",
          "type": "uint256"
        }
      ],
      "stateMutability": "view",
      "type": "function",
      "constant": true
    },
    {
      "inputs": [],
      "name": "garrison",
      "outputs": [
        {
          "internalType": "contract Garrison",
          "name": "",
          "type": "address"
        }
      ],
      "stateMutability": "view",
      "type": "function",
      "constant": true
    },
    {
      "inputs": [
        {
          "internalType": "uint256",
          "name": "tokenId",
          "type": "uint256"
        }
      ],
      "name": "getApproved",
      "outputs": [
        {
          "internalType": "address",
          "name": "",
          "type": "address"
        }
      ],
      "stateMutability": "view",
      "type": "function",
      "constant": true
    },
    {
      "inputs": [
        {
          "internalType": "bytes32",
          "name": "role",
          "type": "bytes32"
        }
      ],
      "name": "getRoleAdmin",
      "outputs": [
        {
          "internalType": "bytes32",
          "name": "",
          "type": "bytes32"
        }
      ],
      "stateMutability": "view",
      "type": "function",
      "constant": true
    },
    {
      "inputs": [
        {
          "internalType": "bytes32",
          "name": "role",
          "type": "bytes32"
        },
        {
          "internalType": "uint256",
          "name": "index",
          "type": "uint256"
        }
      ],
      "name": "getRoleMember",
      "outputs": [
        {
          "internalType": "address",
          "name": "",
          "type": "address"
        }
      ],
      "stateMutability": "view",
      "type": "function",
      "constant": true
    },
    {
      "inputs": [
        {
          "internalType": "bytes32",
          "name": "role",
          "type": "bytes32"
        }
      ],
      "name": "getRoleMemberCount",
      "outputs": [
        {
          "internalType": "uint256",
          "name": "",
          "type": "uint256"
        }
      ],
      "stateMutability": "view",
      "type": "function",
      "constant": true
    },
    {
      "inputs": [
        {
          "internalType": "bytes32",
          "name": "role",
          "type": "bytes32"
        },
        {
          "internalType": "address",
          "name": "account",
          "type": "address"
        }
      ],
      "name": "grantRole",
      "outputs": [],
      "stateMutability": "nonpayable",
      "type": "function"
    },
    {
      "inputs": [
        {
          "internalType": "bytes32",
          "name": "role",
          "type": "bytes32"
        },
        {
          "internalType": "address",
          "name": "account",
          "type": "address"
        }
      ],
      "name": "hasRole",
      "outputs": [
        {
          "internalType": "bool",
          "name": "",
          "type": "bool"
        }
      ],
      "stateMutability": "view",
      "type": "function",
      "constant": true
    },
    {
      "inputs": [
        {
          "internalType": "address",
          "name": "owner",
          "type": "address"
        },
        {
          "internalType": "address",
          "name": "operator",
          "type": "address"
        }
      ],
      "name": "isApprovedForAll",
      "outputs": [
        {
          "internalType": "bool",
          "name": "",
          "type": "bool"
        }
      ],
      "stateMutability": "view",
      "type": "function",
      "constant": true
    },
    {
      "inputs": [
        {
          "internalType": "uint256",
          "name": "",
          "type": "uint256"
        }
      ],
      "name": "lastTransferTimestamp",
      "outputs": [
        {
          "internalType": "uint256",
          "name": "",
          "type": "uint256"
        }
      ],
      "stateMutability": "view",
      "type": "function",
      "constant": true
    },
    {
      "inputs": [],
      "name": "maxStamina",
      "outputs": [
        {
          "internalType": "uint256",
          "name": "",
          "type": "uint256"
        }
      ],
      "stateMutability": "view",
      "type": "function",
      "constant": true
    },
    {
      "inputs": [],
      "name": "name",
      "outputs": [
        {
          "internalType": "string",
          "name": "",
          "type": "string"
        }
      ],
      "stateMutability": "view",
      "type": "function",
      "constant": true
    },
    {
      "inputs": [
        {
          "internalType": "uint256",
          "name": "",
          "type": "uint256"
        },
        {
          "internalType": "uint256",
          "name": "",
          "type": "uint256"
        }
      ],
      "name": "nftVars",
      "outputs": [
        {
          "internalType": "uint256",
          "name": "",
          "type": "uint256"
        }
      ],
      "stateMutability": "view",
      "type": "function",
      "constant": true
    },
    {
      "inputs": [
        {
          "internalType": "uint256",
          "name": "tokenId",
          "type": "uint256"
        }
      ],
      "name": "ownerOf",
      "outputs": [
        {
          "internalType": "address",
          "name": "",
          "type": "address"
        }
      ],
      "stateMutability": "view",
      "type": "function",
      "constant": true
    },
    {
      "inputs": [],
      "name": "promos",
      "outputs": [
        {
          "internalType": "contract Promos",
          "name": "",
          "type": "address"
        }
      ],
      "stateMutability": "view",
      "type": "function",
      "constant": true
    },
    {
      "inputs": [
        {
          "internalType": "uint256",
          "name": "",
          "type": "uint256"
        }
      ],
      "name": "raidsDone",
      "outputs": [
        {
          "internalType": "uint256",
          "name": "",
          "type": "uint256"
        }
      ],
      "stateMutability": "view",
      "type": "function",
      "constant": true
    },
    {
      "inputs": [
        {
          "internalType": "uint256",
          "name": "",
          "type": "uint256"
        }
      ],
      "name": "raidsWon",
      "outputs": [
        {
          "internalType": "uint256",
          "name": "",
          "type": "uint256"
        }
      ],
      "stateMutability": "view",
      "type": "function",
      "constant": true
    },
    {
      "inputs": [
        {
          "internalType": "bytes32",
          "name": "role",
          "type": "bytes32"
        },
        {
          "internalType": "address",
          "name": "account",
          "type": "address"
        }
      ],
      "name": "renounceRole",
      "outputs": [],
      "stateMutability": "nonpayable",
      "type": "function"
    },
    {
      "inputs": [
        {
          "internalType": "bytes32",
          "name": "role",
          "type": "bytes32"
        },
        {
          "internalType": "address",
          "name": "account",
          "type": "address"
        }
      ],
      "name": "revokeRole",
      "outputs": [],
      "stateMutability": "nonpayable",
      "type": "function"
    },
    {
      "inputs": [],
      "name": "secondsPerStamina",
      "outputs": [
        {
          "internalType": "uint256",
          "name": "",
          "type": "uint256"
        }
      ],
      "stateMutability": "view",
      "type": "function",
      "constant": true
    },
    {
      "inputs": [
        {
          "internalType": "address",
          "name": "operator",
          "type": "address"
        },
        {
          "internalType": "bool",
          "name": "approved",
          "type": "bool"
        }
      ],
      "name": "setApprovalForAll",
      "outputs": [],
      "stateMutability": "nonpayable",
      "type": "function"
    },
    {
      "inputs": [
        {
          "internalType": "bytes4",
          "name": "interfaceId",
          "type": "bytes4"
        }
      ],
      "name": "supportsInterface",
      "outputs": [
        {
          "internalType": "bool",
          "name": "",
          "type": "bool"
        }
      ],
      "stateMutability": "view",
      "type": "function",
      "constant": true
    },
    {
      "inputs": [],
      "name": "symbol",
      "outputs": [
        {
          "internalType": "string",
          "name": "",
          "type": "string"
        }
      ],
      "stateMutability": "view",
      "type": "function",
      "constant": true
    },
    {
      "inputs": [
        {
          "internalType": "uint256",
          "name": "index",
          "type": "uint256"
        }
      ],
      "name": "tokenByIndex",
      "outputs": [
        {
          "internalType": "uint256",
          "name": "",
          "type": "uint256"
        }
      ],
      "stateMutability": "view",
      "type": "function",
      "constant": true
    },
    {
      "inputs": [
        {
          "internalType": "address",
          "name": "owner",
          "type": "address"
        },
        {
          "internalType": "uint256",
          "name": "index",
          "type": "uint256"
        }
      ],
      "name": "tokenOfOwnerByIndex",
      "outputs": [
        {
          "internalType": "uint256",
          "name": "",
          "type": "uint256"
        }
      ],
      "stateMutability": "view",
      "type": "function",
      "constant": true
    },
    {
      "inputs": [
        {
          "internalType": "uint256",
          "name": "tokenId",
          "type": "uint256"
        }
      ],
      "name": "tokenURI",
      "outputs": [
        {
          "internalType": "string",
          "name": "",
          "type": "string"
        }
      ],
      "stateMutability": "view",
      "type": "function",
      "constant": true
    },
    {
      "inputs": [],
      "name": "totalSupply",
      "outputs": [
        {
          "internalType": "uint256",
          "name": "",
          "type": "uint256"
        }
      ],
      "stateMutability": "view",
      "type": "function",
      "constant": true
    },
    {
      "inputs": [
        {
          "internalType": "address",
          "name": "from",
          "type": "address"
        },
        {
          "internalType": "address",
          "name": "to",
          "type": "address"
        },
        {
          "internalType": "uint256",
          "name": "tokenId",
          "type": "uint256"
        }
      ],
      "name": "transferFrom",
      "outputs": [],
      "stateMutability": "nonpayable",
      "type": "function"
    },
    {
      "inputs": [],
      "name": "initialize",
      "outputs": [],
      "stateMutability": "nonpayable",
      "type": "function"
    },
    {
      "inputs": [
        {
          "internalType": "uint256[255]",
          "name": "_experienceTable",
          "type": "uint256[255]"
        }
      ],
      "name": "migrateTo_1ee400a",
      "outputs": [],
      "stateMutability": "nonpayable",
      "type": "function"
    },
    {
      "inputs": [],
      "name": "migrateTo_951a020",
      "outputs": [],
      "stateMutability": "nonpayable",
      "type": "function"
    },
    {
      "inputs": [
        {
          "internalType": "contract Promos",
          "name": "_promos",
          "type": "address"
        }
      ],
      "name": "migrateTo_ef994e2",
      "outputs": [],
      "stateMutability": "nonpayable",
      "type": "function"
    },
    {
      "inputs": [],
      "name": "migrateTo_b627f23",
      "outputs": [],
      "stateMutability": "nonpayable",
      "type": "function"
    },
    {
      "inputs": [
        {
          "internalType": "contract Garrison",
          "name": "_garrison",
          "type": "address"
        }
      ],
      "name": "migrateTo_1a19cbb",
      "outputs": [],
      "stateMutability": "nonpayable",
      "type": "function"
    },
    {
      "inputs": [
        {
          "internalType": "uint256",
          "name": "id",
          "type": "uint256"
        }
      ],
      "name": "get",
      "outputs": [
        {
          "internalType": "uint16",
          "name": "",
          "type": "uint16"
        },
        {
          "internalType": "uint8",
          "name": "",
          "type": "uint8"
        },
        {
          "internalType": "uint8",
          "name": "",
          "type": "uint8"
        },
        {
          "internalType": "uint64",
          "name": "",
          "type": "uint64"
        },
        {
          "internalType": "uint16",
          "name": "",
          "type": "uint16"
        },
        {
          "internalType": "uint16",
          "name": "",
          "type": "uint16"
        },
        {
          "internalType": "uint16",
          "name": "",
          "type": "uint16"
        },
        {
          "internalType": "uint16",
          "name": "",
          "type": "uint16"
        },
        {
          "internalType": "uint16",
          "name": "",
          "type": "uint16"
        },
        {
          "internalType": "uint16",
          "name": "",
          "type": "uint16"
        }
      ],
      "stateMutability": "view",
      "type": "function",
      "constant": true
    },
    {
      "inputs": [
        {
          "internalType": "uint256",
          "name": "id",
          "type": "uint256"
        }
      ],
      "name": "getCosmeticsSeed",
      "outputs": [
        {
          "internalType": "uint256",
          "name": "",
          "type": "uint256"
        }
      ],
      "stateMutability": "view",
      "type": "function",
      "constant": true
    },
    {
      "inputs": [
        {
          "internalType": "uint256[]",
          "name": "burnIds",
          "type": "uint256[]"
        }
      ],
      "name": "getSoulForBurns",
      "outputs": [
        {
          "internalType": "uint256",
          "name": "",
          "type": "uint256"
        }
      ],
      "stateMutability": "view",
      "type": "function",
      "constant": true
    },
    {
      "inputs": [
        {
          "internalType": "address",
          "name": "minter",
          "type": "address"
        },
        {
          "internalType": "uint256",
          "name": "seed",
          "type": "uint256"
        }
      ],
      "name": "mint",
      "outputs": [],
      "stateMutability": "nonpayable",
      "type": "function"
    },
    {
      "inputs": [
        {
          "internalType": "address",
          "name": "minter",
          "type": "address"
        },
        {
          "internalType": "uint16",
          "name": "xp",
          "type": "uint16"
        },
        {
          "internalType": "uint8",
          "name": "level",
          "type": "uint8"
        },
        {
          "internalType": "uint8",
          "name": "trait",
          "type": "uint8"
        },
        {
          "internalType": "uint256",
          "name": "seed",
          "type": "uint256"
        },
        {
          "internalType": "uint256",
          "name": "tokenID",
          "type": "uint256"
        },
        {
          "internalType": "uint24",
          "name": "bonusPower",
          "type": "uint24"
        },
        {
          "internalType": "uint16",
          "name": "reputation",
          "type": "uint16"
        }
      ],
      "name": "customMint",
      "outputs": [
        {
          "internalType": "uint256",
          "name": "",
          "type": "uint256"
        }
      ],
      "stateMutability": "nonpayable",
      "type": "function"
    },
    {
      "inputs": [
        {
          "internalType": "uint256[]",
          "name": "burnIds",
          "type": "uint256[]"
        },
        {
          "internalType": "uint256",
          "name": "targetCharId",
          "type": "uint256"
        },
        {
          "internalType": "uint256",
          "name": "burnPowerMultiplier",
          "type": "uint256"
        }
      ],
      "name": "burnIntoCharacter",
      "outputs": [],
      "stateMutability": "nonpayable",
      "type": "function"
    },
    {
      "inputs": [
        {
          "internalType": "uint256[]",
          "name": "burnIds",
          "type": "uint256[]"
        }
      ],
      "name": "burnIntoSoul",
      "outputs": [],
      "stateMutability": "nonpayable",
      "type": "function"
    },
    {
      "inputs": [
        {
          "internalType": "uint256",
          "name": "targetCharId",
          "type": "uint256"
        },
        {
          "internalType": "uint256",
          "name": "soulAmount",
          "type": "uint256"
        }
      ],
      "name": "upgradeWithSoul",
      "outputs": [],
      "stateMutability": "nonpayable",
      "type": "function"
    },
    {
      "inputs": [
        {
          "internalType": "uint256",
          "name": "id",
          "type": "uint256"
        }
      ],
      "name": "getLevel",
      "outputs": [
        {
          "internalType": "uint8",
          "name": "",
          "type": "uint8"
        }
      ],
      "stateMutability": "view",
      "type": "function",
      "constant": true
    },
    {
      "inputs": [
        {
          "internalType": "uint8",
          "name": "currentLevel",
          "type": "uint8"
        }
      ],
      "name": "getRequiredXpForNextLevel",
      "outputs": [
        {
          "internalType": "uint16",
          "name": "",
          "type": "uint16"
        }
      ],
      "stateMutability": "view",
      "type": "function",
      "constant": true
    },
    {
      "inputs": [
        {
          "internalType": "uint256",
          "name": "id",
          "type": "uint256"
        }
      ],
      "name": "getPower",
      "outputs": [
        {
          "internalType": "uint24",
          "name": "",
          "type": "uint24"
        }
      ],
      "stateMutability": "view",
      "type": "function",
      "constant": true
    },
    {
      "inputs": [
        {
          "internalType": "uint256",
          "name": "id",
          "type": "uint256"
        }
      ],
      "name": "getTotalPower",
      "outputs": [
        {
          "internalType": "uint256",
          "name": "",
          "type": "uint256"
        }
      ],
      "stateMutability": "view",
      "type": "function",
      "constant": true
    },
    {
      "inputs": [
        {
          "internalType": "uint8",
          "name": "level",
          "type": "uint8"
        }
      ],
      "name": "getPowerAtLevel",
      "outputs": [
        {
          "internalType": "uint24",
          "name": "",
          "type": "uint24"
        }
      ],
      "stateMutability": "pure",
      "type": "function",
      "constant": true
    },
    {
      "inputs": [
        {
          "internalType": "uint256",
          "name": "id",
          "type": "uint256"
        }
      ],
      "name": "getTrait",
      "outputs": [
        {
          "internalType": "uint8",
          "name": "",
          "type": "uint8"
        }
      ],
      "stateMutability": "view",
      "type": "function",
      "constant": true
    },
    {
      "inputs": [
        {
          "internalType": "uint256",
          "name": "id",
          "type": "uint256"
        },
        {
          "internalType": "uint8",
          "name": "trait",
          "type": "uint8"
        }
      ],
      "name": "setTrait",
      "outputs": [],
      "stateMutability": "nonpayable",
      "type": "function"
    },
    {
      "inputs": [
        {
          "internalType": "uint256",
          "name": "id",
          "type": "uint256"
        }
      ],
      "name": "getXp",
      "outputs": [
        {
          "internalType": "uint32",
          "name": "",
          "type": "uint32"
        }
      ],
      "stateMutability": "view",
      "type": "function",
      "constant": true
    },
    {
      "inputs": [
        {
          "internalType": "uint256",
          "name": "id",
          "type": "uint256"
        },
        {
          "internalType": "uint16",
          "name": "xp",
          "type": "uint16"
        }
      ],
      "name": "gainXp",
      "outputs": [],
      "stateMutability": "nonpayable",
      "type": "function"
    },
    {
      "inputs": [
        {
          "internalType": "uint256[]",
          "name": "chars",
          "type": "uint256[]"
        },
        {
          "internalType": "uint256[]",
          "name": "xps",
          "type": "uint256[]"
        }
      ],
      "name": "gainXpAll",
      "outputs": [],
      "stateMutability": "nonpayable",
      "type": "function"
    },
    {
      "inputs": [
        {
          "internalType": "uint256",
          "name": "id",
          "type": "uint256"
        }
      ],
      "name": "getStaminaTimestamp",
      "outputs": [
        {
          "internalType": "uint64",
          "name": "",
          "type": "uint64"
        }
      ],
      "stateMutability": "view",
      "type": "function",
      "constant": true
    },
    {
      "inputs": [
        {
          "internalType": "uint256",
          "name": "id",
          "type": "uint256"
        },
        {
          "internalType": "uint64",
          "name": "timestamp",
          "type": "uint64"
        }
      ],
      "name": "setStaminaTimestamp",
      "outputs": [],
      "stateMutability": "nonpayable",
      "type": "function"
    },
    {
      "inputs": [
        {
          "internalType": "uint256",
          "name": "id",
          "type": "uint256"
        }
      ],
      "name": "getStaminaPoints",
      "outputs": [
        {
          "internalType": "uint8",
          "name": "",
          "type": "uint8"
        }
      ],
      "stateMutability": "view",
      "type": "function",
      "constant": true
    },
    {
      "inputs": [
        {
          "internalType": "uint64",
          "name": "timestamp",
          "type": "uint64"
        }
      ],
      "name": "getStaminaPointsFromTimestamp",
      "outputs": [
        {
          "internalType": "uint8",
          "name": "",
          "type": "uint8"
        }
      ],
      "stateMutability": "view",
      "type": "function",
      "constant": true
    },
    {
      "inputs": [
        {
          "internalType": "uint256",
          "name": "id",
          "type": "uint256"
        }
      ],
      "name": "isStaminaFull",
      "outputs": [
        {
          "internalType": "bool",
          "name": "",
          "type": "bool"
        }
      ],
      "stateMutability": "view",
      "type": "function",
      "constant": true
    },
    {
      "inputs": [],
      "name": "getStaminaMaxWait",
      "outputs": [
        {
          "internalType": "uint64",
          "name": "",
          "type": "uint64"
        }
      ],
      "stateMutability": "pure",
      "type": "function",
      "constant": true
    },
    {
      "inputs": [
        {
          "internalType": "address",
          "name": "fighter",
          "type": "address"
        },
        {
          "internalType": "uint256",
          "name": "id",
          "type": "uint256"
        },
        {
          "internalType": "uint8",
          "name": "amount",
          "type": "uint8"
        },
        {
          "internalType": "bool",
          "name": "allowNegativeStamina",
          "type": "bool"
        },
        {
          "internalType": "uint256",
          "name": "busyFlag",
          "type": "uint256"
        }
      ],
      "name": "getFightDataAndDrainStamina",
      "outputs": [
        {
          "internalType": "uint96",
          "name": "",
          "type": "uint96"
        }
      ],
      "stateMutability": "nonpayable",
      "type": "function"
    },
    {
      "inputs": [
        {
          "internalType": "uint256",
          "name": "id",
          "type": "uint256"
        },
        {
          "internalType": "bool",
          "name": "won",
          "type": "bool"
        },
        {
          "internalType": "uint16",
          "name": "xp",
          "type": "uint16"
        }
      ],
      "name": "processRaidParticipation",
      "outputs": [],
      "stateMutability": "nonpayable",
      "type": "function"
    },
    {
      "inputs": [
        {
          "internalType": "address",
          "name": "wallet",
          "type": "address"
        }
      ],
      "name": "getCharactersOwnedBy",
      "outputs": [
        {
          "internalType": "uint256[]",
          "name": "chars",
          "type": "uint256[]"
        }
      ],
      "stateMutability": "view",
      "type": "function",
      "constant": true
    },
    {
      "inputs": [
        {
          "internalType": "address",
          "name": "wallet",
          "type": "address"
        }
      ],
      "name": "getReadyCharacters",
      "outputs": [
        {
          "internalType": "uint256[]",
          "name": "chars",
          "type": "uint256[]"
        }
      ],
      "stateMutability": "view",
      "type": "function",
      "constant": true
    },
    {
      "inputs": [
        {
          "internalType": "uint256",
          "name": "id",
          "type": "uint256"
        },
        {
          "internalType": "uint256[]",
          "name": "fields",
          "type": "uint256[]"
        },
        {
          "internalType": "uint256[]",
          "name": "values",
          "type": "uint256[]"
        }
      ],
      "name": "setNFTVars",
      "outputs": [],
      "stateMutability": "nonpayable",
      "type": "function"
    },
    {
      "inputs": [
        {
          "internalType": "uint256",
          "name": "id",
          "type": "uint256"
        },
        {
          "internalType": "uint256[]",
          "name": "fields",
          "type": "uint256[]"
        }
      ],
      "name": "getNFTVars",
      "outputs": [
        {
          "internalType": "uint256[]",
          "name": "values",
          "type": "uint256[]"
        }
      ],
      "stateMutability": "view",
      "type": "function",
      "constant": true
    },
    {
      "inputs": [
        {
          "internalType": "address",
          "name": "from",
          "type": "address"
        },
        {
          "internalType": "address",
          "name": "to",
          "type": "address"
        },
        {
          "internalType": "uint256",
          "name": "tokenId",
          "type": "uint256"
        }
      ],
      "name": "safeTransferFrom",
      "outputs": [],
      "stateMutability": "nonpayable",
      "type": "function"
    },
    {
      "inputs": [
        {
          "internalType": "address",
          "name": "from",
          "type": "address"
        },
        {
          "internalType": "address",
          "name": "to",
          "type": "address"
        },
        {
          "internalType": "uint256",
          "name": "tokenId",
          "type": "uint256"
        },
        {
          "internalType": "bytes",
          "name": "_data",
          "type": "bytes"
        }
      ],
      "name": "safeTransferFrom",
      "outputs": [],
      "stateMutability": "nonpayable",
      "type": "function"
    },
    {
      "inputs": [
        {
          "internalType": "uint256",
          "name": "max",
          "type": "uint256"
        }
      ],
      "name": "setCharacterLimit",
      "outputs": [],
      "stateMutability": "nonpayable",
      "type": "function"
    },
    {
      "inputs": [
        {
          "internalType": "uint256",
          "name": "characterID",
          "type": "uint256"
        },
        {
          "internalType": "uint256",
          "name": "nftVar",
          "type": "uint256"
        }
      ],
      "name": "getNftVar",
      "outputs": [
        {
          "internalType": "uint256",
          "name": "",
          "type": "uint256"
        }
      ],
      "stateMutability": "view",
      "type": "function",
      "constant": true
    },
    {
      "inputs": [
        {
          "internalType": "uint256",
          "name": "characterID",
          "type": "uint256"
        },
        {
          "internalType": "uint256",
          "name": "nftVar",
          "type": "uint256"
        },
        {
          "internalType": "uint256",
          "name": "value",
          "type": "uint256"
        }
      ],
      "name": "setNftVar",
      "outputs": [],
      "stateMutability": "nonpayable",
      "type": "function"
    },
    {
      "inputs": [
        {
          "internalType": "string",
          "name": "baseUri",
          "type": "string"
        }
      ],
      "name": "setBaseURI",
      "outputs": [],
      "stateMutability": "nonpayable",
      "type": "function"
    }
  ],
  "bytecode": "0x608060405234801561001057600080fd5b5061578980620000216000396000f3fe608060405234801561001057600080fd5b50600436106104a15760003560e01c80637d5f8e1e1161026d578063b285630b11610151578063d547741f116100ce578063e9477e6711610092578063e9477e67146113de578063e985e9c5146113e6578063f2a7417a14611414578063f771a03614611440578063fbb8ef7814611448578063fce9634e14611471576104a1565b8063d547741f1461129b578063da1f8e77146112c7578063e168ce02146112f6578063e1b3b2d614611313578063e6defc7e14611336576104a1565b8063befd20c611610115578063befd20c61461120d578063c87b56dd14611233578063ca15c87314611250578063d2ed7e061461126d578063d539139314611293576104a1565b8063b285630b1461100b578063b32816841461105f578063b46e6c1714611067578063b88d4fde146110d5578063bef6ec2614611199576104a1565b806395d89b41116101ea578063a217fddf116101ae578063a217fddf14610f64578063a22cb46514610f6c578063a464666914610f9a578063a93bde2f14610fc0578063aa3c6cfc14610fe6578063acb586df14610fee576104a1565b806395d89b4114610cf257806399d2c2c414610cfa5780639a550fd214610db85780639d7c828b14610ee2578063a058957a14610eff576104a1565b80639010d07c116102315780639010d07c14610b9f57806391d1485414610bc257806393272d9f14610bee5780639462fa1914610c645780639507d39a14610c6c576104a1565b80637d5f8e1e14610b335780637d66a99914610b6a5780638129fc1c14610b7257806386481d4014610b7a5780638f08d9e214610b97576104a1565b806340c10f191161039457806355f804b3116103115780636352211e116102d55780636352211e14610ab55780636c0360eb14610ad257806370a0823114610ada57806372322bab14610b00578063752fde9e14610b08578063783efb2514610b10576104a1565b806355f804b31461095d5780635dba06e414610a0157806360df35d314610a0957806360eb73e714610a115780636129ca3214610a47576104a1565b80634bbd7a84116103585780634bbd7a84146108ef5780634f6ccce7146108f757806351e717ac1461091457806354ec7fc01461091c5780635504d3d214610955576104a1565b806340c10f1914610804578063424fa66d1461083057806342842e0e1461083857806344678be11461086e5780634946e9cb1461088b576104a1565b80631b722731116104225780632f745c59116103e65780632f745c591461075557806330947d2a1461078157806336568abe1461079e5780633a319b4b146107ca5780633c69f91f146107e7576104a1565b80631b722731146106b157806323b872dd146106b9578063248a9ca3146106ef578063262b58141461070c5780632f2ff15d14610729576104a1565b8063095ea7b311610469578063095ea7b3146105ff5780630bb185461461062d5780630fc005751461064d57806317b199a41461067457806318160ddd146106a9576104a1565b8063017fe809146104a657806301ffc9a7146104db57806305d3d93a1461051657806306fdde0314610549578063081812fc146105c6575b600080fd5b6104c3600480360360208110156104bc57600080fd5b5035611497565b6040805162ffffff9092168252519081900360200190f35b610502600480360360208110156104f157600080fd5b50356001600160e01b0319166114d4565b604080519115158252519081900360200190f35b6105336004803603602081101561052c57600080fd5b50356114f7565b6040805160ff9092168252519081900360200190f35b610551611534565b6040805160208082528351818301528351919283929083019185019080838360005b8381101561058b578181015183820152602001610573565b50505050905090810190601f1680156105b85780820380516001836020036101000a031916815260200191505b509250505060405180910390f35b6105e3600480360360208110156105dc57600080fd5b50356115cb565b604080516001600160a01b039092168252519081900360200190f35b61062b6004803603604081101561061557600080fd5b506001600160a01b03813516906020013561162d565b005b6104c36004803603602081101561064357600080fd5b503560ff16611708565b61062b6004803603604081101561066357600080fd5b508035906020013561ffff16611719565b6106976004803603604081101561068a57600080fd5b5080359060200135611733565b60408051918252519081900360200190f35b610697611751565b610697611762565b61062b600480360360608110156106cf57600080fd5b506001600160a01b03813581169160208101359091169060400135611767565b6106976004803603602081101561070557600080fd5b50356117be565b6106976004803603602081101561072257600080fd5b50356117d3565b61062b6004803603604081101561073f57600080fd5b50803590602001356001600160a01b0316611828565b6106976004803603604081101561076b57600080fd5b506001600160a01b038135169060200135611890565b6105026004803603602081101561079757600080fd5b50356118b8565b61062b600480360360408110156107b457600080fd5b50803590602001356001600160a01b03166118db565b610697600480360360208110156107e057600080fd5b503561193c565b610697600480360360208110156107fd57600080fd5b503561194f565b61062b6004803603604081101561081a57600080fd5b506001600160a01b038135169060200135611962565b610697611c2d565b61062b6004803603606081101561084e57600080fd5b506001600160a01b03813581169160208101359091169060400135611c32565b61062b6004803603602081101561088457600080fd5b5035611dd2565b6108ce600480360360a08110156108a157600080fd5b506001600160a01b038135169060208101359060ff60408201351690606081013515159060800135611de0565b604080516bffffffffffffffffffffffff9092168252519081900360200190f35b610697611fd0565b6106976004803603602081101561090d57600080fd5b5035611fd5565b6105e3611ff1565b6109396004803603602081101561093257600080fd5b5035612001565b604080516001600160401b039092168252519081900360200190f35b61069761203d565b61062b6004803603602081101561097357600080fd5b810190602081018135600160201b81111561098d57600080fd5b82018360208201111561099f57600080fd5b803590602001918460018302840111600160201b831117156109c057600080fd5b91908080601f01602080910402602001604051908101604052809392919081815260200183838082843760009201919091525092955061205f945050505050565b610697612073565b610939612099565b610a2e60048036036020811015610a2757600080fd5b503561209f565b6040805163ffffffff9092168252519081900360200190f35b61062b60048036036020811015610a5d57600080fd5b810190602081018135600160201b811115610a7757600080fd5b820183602082011115610a8957600080fd5b803590602001918460208302840111600160201b83111715610aaa57600080fd5b5090925090506120cf565b6105e360048036036020811015610acb57600080fd5b503561229c565b6105516122ca565b61069760048036036020811015610af057600080fd5b50356001600160a01b031661232b565b610697612393565b61062b612398565b61069760048036036040811015610b2657600080fd5b50803590602001356123be565b610b5360048036036020811015610b4957600080fd5b503560ff166123dc565b6040805161ffff9092168252519081900360200190f35b6106976123f7565b61062b6123fd565b61053360048036036020811015610b9057600080fd5b5035612504565b610697612539565b6105e360048036036040811015610bb557600080fd5b508035906020013561253e565b61050260048036036040811015610bd857600080fd5b50803590602001356001600160a01b031661255c565b610c1460048036036020811015610c0457600080fd5b50356001600160a01b031661257a565b60408051602080825283518183015283519192839290830191858101910280838360005b83811015610c50578181015183820152602001610c38565b505050509050019250505060405180910390f35b6105e3612607565b610c8960048036036020811015610c8257600080fd5b5035612617565b6040805161ffff9b8c16815260ff9a8b16602082015298909916888a01526001600160401b039096166060880152938816608087015291871660a0860152861660c0850152851660e0840152841661010083015290921661012083015251908190036101400190f35b61055161277c565b61062b60048036036040811015610d1057600080fd5b810190602081018135600160201b811115610d2a57600080fd5b820183602082011115610d3c57600080fd5b803590602001918460208302840111600160201b83111715610d5d57600080fd5b919390929091602081019035600160201b811115610d7a57600080fd5b820183602082011115610d8c57600080fd5b803590602001918460208302840111600160201b83111715610dad57600080fd5b5090925090506127dd565b61062b60048036036060811015610dce57600080fd5b81359190810190604081016020820135600160201b811115610def57600080fd5b820183602082011115610e0157600080fd5b803590602001918460208302840111600160201b83111715610e2257600080fd5b9190808060200260200160405190810160405280939291908181526020018383602002808284376000920191909152509295949360208101935035915050600160201b811115610e7157600080fd5b820183602082011115610e8357600080fd5b803590602001918460208302840111600160201b83111715610ea457600080fd5b91908080602002602001604051908101604052809392919081815260200183836020028082843760009201919091525092955061282d945050505050565b61069760048036036020811015610ef857600080fd5b50356128a0565b6106976004803603610100811015610f1657600080fd5b506001600160a01b038135169061ffff602082013581169160ff604082013581169260608301359091169160808101359160a08201359162ffffff60c0820135169160e090910135166128b3565b610697612c57565b61062b60048036036040811015610f8257600080fd5b506001600160a01b0381351690602001351515612c5c565b610c1460048036036020811015610fb057600080fd5b50356001600160a01b0316612d61565b61062b60048036036020811015610fd657600080fd5b50356001600160a01b0316612ea3565b610697612eda565b6105336004803603602081101561100457600080fd5b5035612ee1565b61062b6004803603611fe081101561102257600080fd5b8101908080611fe0019060ff80602002604051908101604052809291908260ff60200280828437600092019190915250919450612f179350505050565b610697612f38565b6106976004803603602081101561107d57600080fd5b810190602081018135600160201b81111561109757600080fd5b8201836020820111156110a957600080fd5b803590602001918460208302840111600160201b831117156110ca57600080fd5b509092509050612f3d565b61062b600480360360808110156110eb57600080fd5b6001600160a01b03823581169260208101359091169160408201359190810190608081016060820135600160201b81111561112557600080fd5b82018360208201111561113757600080fd5b803590602001918460018302840111600160201b8311171561115857600080fd5b91908080601f016020809104026020016040519081016040528093929190818152602001838380828437600092019190915250929550612f82945050505050565b61062b600480360360608110156111af57600080fd5b810190602081018135600160201b8111156111c957600080fd5b8201836020820111156111db57600080fd5b803590602001918460208302840111600160201b831117156111fc57600080fd5b919350915080359060200135612fda565b6105336004803603602081101561122357600080fd5b50356001600160401b03166132e8565b6105516004803603602081101561124957600080fd5b5035613325565b6106976004803603602081101561126657600080fd5b50356135a8565b61062b6004803603602081101561128357600080fd5b50356001600160a01b03166135bf565b6106976135f6565b61062b600480360360408110156112b157600080fd5b50803590602001356001600160a01b0316613619565b61062b600480360360608110156112dd57600080fd5b5080359060208101351515906040013561ffff16613672565b6106976004803603602081101561130c57600080fd5b503561372d565b61062b6004803603604081101561132957600080fd5b5080359060200135613779565b610c146004803603604081101561134c57600080fd5b81359190810190604081016020820135600160201b81111561136d57600080fd5b82018360208201111561137f57600080fd5b803590602001918460208302840111600160201b831117156113a057600080fd5b919080806020026020016040519081016040528093929190818152602001838360200280828437600092019190915250929550613848945050505050565b61062b6138f9565b610502600480360360408110156113fc57600080fd5b506001600160a01b0381358116916020013516613915565b61062b6004803603604081101561142a57600080fd5b50803590602001356001600160401b0316613943565b61069761398e565b61062b6004803603606081101561145e57600080fd5b5080359060208101359060400135613993565b61062b6004803603604081101561148757600080fd5b508035906020013560ff166139b8565b6000816114a3816139f7565b6114cd60c984815481106114b357fe5b60009182526020909120015462010000900460ff16611708565b9392505050565b6001600160e01b0319811660009081526033602052604090205460ff165b919050565b600081611503816139f7565b6114cd60c9848154811061151357fe5b600091825260209091200154600160201b90046001600160401b03166132e8565b606a8054604080516020601f60026000196101006001881615020190951694909404938401819004810282018101909252828152606093909290918301828280156115c05780601f10611595576101008083540402835291602001916115c0565b820191906000526020600020905b8154815290600101906020018083116115a357829003601f168201915b505050505090505b90565b60006115d682613a52565b6116115760405162461bcd60e51b815260040180806020018281038252602c81526020018061564f602c913960400191505060405180910390fd5b506000908152606860205260409020546001600160a01b031690565b60006116388261229c565b9050806001600160a01b0316836001600160a01b0316141561168b5760405162461bcd60e51b81526004018080602001828103825260218152602001806156d36021913960400191505060405180910390fd5b806001600160a01b031661169d613a65565b6001600160a01b031614806116be57506116be816116b9613a65565b613915565b6116f95760405162461bcd60e51b81526004018080602001828103825260388152602001806155536038913960400191505060405180910390fd5b6117038383613a69565b505050565b600061171382613ad7565b92915050565b611721613b27565b61172f828261ffff16613b86565b5050565b6101d260209081526000928352604080842090915290825290205481565b600061175d6066613cc8565b905090565b600881565b611778611772613a65565b82613cd3565b6117b35760405162461bcd60e51b81526004018080602001828103825260318152602001806156f46031913960400191505060405180910390fd5b611703838383613d77565b60009081526097602052604090206002015490565b6000816117df816139f7565b6117e761530b565b60ca84815481106117f457fe5b600091825260209182902060408051808201909152600290920201805460ff16825260010154910181905292505050919050565b60008281526097602052604090206002015461184b90611846613a65565b61255c565b6118865760405162461bcd60e51b815260040180806020018281038252602f815260200180615472602f913960400191505060405180910390fd5b61172f8282613ed5565b6001600160a01b03821660009081526065602052604081206114cd908363ffffffff613f4416565b6000816118c4816139f7565b60c86118cf846114f7565b60ff1610159392505050565b6118e3613a65565b6001600160a01b0316816001600160a01b0316146119325760405162461bcd60e51b815260040180806020018281038252602f815260200180615725602f913960400191505060405180910390fd5b61172f8282613f50565b6101d16020526000908152604090205481565b6101d06020526000908152604090205481565b61196a613b27565b60c9546101cd54431461197e576101ce8190555b436101cd556000808061199381600387613fbf565b905060006119b86119a2612099565b42906001600160401b031663ffffffff61402916565b6040805160808101825261ffff808816825260ff80881660208085019182528883168587019081526001600160401b038089166060880190815260c9805460018181018355600092835299517f66be4f155c5ef2ebd3772b228f2f00681e4ed5826cdb3b1943cc11ad15ad1d289091018054975195519351909416600160201b026bffffffffffffffff000000001993891663010000000263ff0000001996909916620100000262ff00001992909a1661ffff1990981697909717169790971792909216949094171691909117909155835180850190945290835292935060ca92820190611aa7908a90614086565b905281546001808201845560009384526020938490208351600290930201805460ff191660ff9093169290921782559190920151910155866001600160a01b03811615801590611b0257506001600160a01b03881661dead14155b8015611b385750604080516d1393d7d3d5d3915117d31253525560921b8152905190819003600e019020611b36908961255c565b155b8015611b4f57506101cf54611b4c8961232b565b10155b15611be357506101d354604080516330e7f10b60e21b81526001600160a01b038a811660048301526024820189905291519190921691829163c39fc42c9160448082019260009290919082900301818387803b158015611bae57600080fd5b505af1158015611bc2573d6000803e3d6000fd5b50506101d354611bde92506001600160a01b03169050876140b2565b611bed565b611bed88876140b2565b6040516001600160a01b0382169087907f4589a3573ad46836d8192432d52ee2523357610d87f3cc4cc61da7ea362989f790600090a35050505050505050565b600181565b826001600160a01b0316611c458261229c565b6001600160a01b031614611cc6576101d35460408051631faf355f60e21b81526001600160a01b0385811660048301526024820185905291519190921691637ebcd57c91604480830192600092919082900301818387803b158015611ca957600080fd5b505af1158015611cbd573d6000803e3d6000fd5b50505050611703565b6001600160a01b03821615801590611ce957506001600160a01b03821661dead14155b8015611d1f5750604080516d1393d7d3d5d3915117d31253525560921b8152905190819003600e019020611d1d908361255c565b155b8015611d3657506101cf54611d338361232b565b10155b15611dc7576101d354604080516330e7f10b60e21b81526001600160a01b038581166004830152602482018590529151919092169163c39fc42c91604480830192600092919082900301818387803b158015611d9157600080fd5b505af1158015611da5573d6000803e3d6000fd5b50506101d354611dc292508591506001600160a01b0316836141ec565b611703565b6117038383836141ec565b611dda613b27565b6101cf55565b6000611dea613b27565b611df38561229c565b6001600160a01b0316866001600160a01b0316148015611e2c575060008581526101d26020908152604080832060018452909152902054155b611e3557600080fd5b60008581526101d26020908152604080832060018452909152812080548417905560c9805487908110611e6457fe5b600091825260208220018054909250611e8c90600160201b90046001600160401b03166132e8565b905060008160ff16118015611e9e5750845b80611eaf57508560ff168160ff1610155b611ef6576040805162461bcd60e51b81526020600482015260136024820152724e6f7420656e6f756768207374616d696e612160681b604482015290519081900360640190fd5b815460ff80881661012c02916001600160401b03600160201b909104169060c890841610611f6357816001600160401b0316611f30612099565b85546001600160401b0391821642039290920116600160201b026bffffffffffffffff0000000019909116178455611f92565b83546001600160401b03600160201b80830482168501909116026bffffffffffffffff00000000199091161784555b67ffffffff00000000602082901b166008611fac8b61372d565b955495901b630100000090950460ff16949094179093179998505050505050505050565b600281565b600080611fe960668463ffffffff61420716565b509392505050565b6101cc546001600160a01b031681565b60008161200d816139f7565b60c9838154811061201a57fe5b600091825260209091200154600160201b90046001600160401b03169392505050565b604080516923a0a6a2afa0a226a4a760b11b8152905190819003600a01902081565b612067613b27565b61207081614223565b50565b604080516d1393d7d3d5d3915117d31253525560921b8152905190819003600e01902081565b61ea6090565b6000816120ab816139f7565b60c983815481106120b857fe5b60009182526020909120015461ffff169392505050565b6120d7613b27565b60005b818110156117035760006120ff8484848181106120f357fe5b9050602002013561229c565b6101d3549091506001600160a01b038083169116141561222f576101d3546001600160a01b031663b8cae95085858581811061213757fe5b905060200201356040518263ffffffff1660e01b81526004018082815260200191505060206040518083038186803b15801561217257600080fd5b505afa158015612186573d6000803e3d6000fd5b505050506040513d602081101561219c57600080fd5b50516101d3549091506001600160a01b03166384733163828686868181106121c057fe5b905060200201356040518363ffffffff1660e01b815260040180836001600160a01b03166001600160a01b0316815260200182815260200192505050600060405180830381600087803b15801561221657600080fd5b505af115801561222a573d6000803e3d6000fd5b505050505b61224a84848481811061223e57fe5b90506020020135614236565b83838381811061225657fe5b90506020020135816001600160a01b03167f696de425f79f4a40bc6d2122ca50507f0efbeabbff86a84871b7196ab8ea8df760405160405180910390a3506001016120da565b6000611713826040518060600160405280602981526020016155b5602991396066919063ffffffff61430f16565b606d8054604080516020601f60026000196101006001881615020190951694909404938401819004810282018101909252828152606093909290918301828280156115c05780601f10611595576101008083540402835291602001916115c0565b60006001600160a01b0382166123725760405162461bcd60e51b815260040180806020018281038252602a81526020018061558b602a913960400191505060405180910390fd5b6001600160a01b038216600090815260656020526040902061171390613cc8565b606681565b6123a360003361255c565b6123ac57600080fd5b6123bc63398b9a5d60e21b61431c565b565b60009182526101d26020908152604080842092845291905290205490565b600060cb8260ff1661010081106123ef57fe5b015492915050565b61012c81565b600054610100900460ff168061241657506124166143a0565b80612424575060005460ff16155b61245f5760405162461bcd60e51b815260040180806020018281038252602e8152602001806155de602e913960400191505060405180910390fd5b600054610100900460ff1615801561248a576000805460ff1961ff0019909116610100171660011790555b6124dd6040518060400160405280601681526020017521b93cb83a37a13630b232b99031b430b930b1ba32b960511b8152506040518060400160405280600381526020016243424360e81b8152506143b1565b6124e561446e565b6124f0600033611886565b8015612070576000805461ff001916905550565b600081612510816139f7565b60c9838154811061251d57fe5b60009182526020909120015462010000900460ff169392505050565b60c881565b60008281526097602052604081206114cd908363ffffffff613f4416565b60008281526097602052604081206114cd908363ffffffff61450e16565b606060006125878361232b565b9050806001600160401b038111801561259f57600080fd5b506040519080825280602002602001820160405280156125c9578160200160208202803683370190505b50915060005b81811015612600576125e18482611890565b8382815181106125ed57fe5b60209081029190910101526001016125cf565b5050919050565b6101d3546001600160a01b031681565b6000806000806000806000806000808a612630816139f7565b612638615322565b60c98d8154811061264557fe5b600091825260209182902060408051608081018252929091015461ffff8116835262010000810460ff908116948401949094526301000000810490931690820152600160201b9091046001600160401b0316606082015290506126a661530b565b60ca8e815481106126b357fe5b60009182526020918290206040805180820182526002909302909101805460ff1683526001908101548385018190528651948701519287015160608801519496509293916127039190600d614523565b61271486602001516002602d614523565b61272587602001516003603d614523565b612736886020015160046029614523565b612747896020015160056016614523565b6127588a6020015160066002614523565b9c509c509c509c509c509c509c509c509c509c505050509193959799509193959799565b606b8054604080516020601f60026000196101006001881615020190951694909404938401819004810282018101909252828152606093909290918301828280156115c05780601f10611595576101008083540402835291602001916115c0565b6127e5613b27565b60005b838110156128265761281e8585838181106127ff57fe5b9050602002013584848481811061281257fe5b90506020020135613b86565b6001016127e8565b5050505050565b612835613b27565b60005b825181101561289a5781818151811061284d57fe5b60200260200101516101d26000868152602001908152602001600020600085848151811061287757fe5b602090810291909101810151825281019190915260400160002055600101612838565b50505050565b6101cb6020526000908152604090205481565b60006128bd61453e565b4284612b4f5760c9546101cd5490955043146128da576101ce8590555b436101cd556040805160808101825261ffff808c16825260ff808c1660208085019182528c83168587019081526001600160401b038089166060880190815260c9805460018181018355600092835299517f66be4f155c5ef2ebd3772b228f2f00681e4ed5826cdb3b1943cc11ad15ad1d289091018054975195519351909416600160201b026bffffffffffffffff000000001993891663010000000263ff0000001996909916620100000262ff00001992909a1661ffff1990981697909717169790971792909216949094171691909117909155835180850190945290835260ca9291908201906129cd908a90614086565b905281546001808201845560009384526020938490208351600290930201805460ff191660ff9093169290921782559190920151910155896001600160a01b03811615801590612a2857506001600160a01b038b1661dead14155b8015612a5e5750604080516d1393d7d3d5d3915117d31253525560921b8152905190819003600e019020612a5c908c61255c565b155b8015612a7557506101cf54612a728c61232b565b10155b15612b0957506101d354604080516330e7f10b60e21b81526001600160a01b038d811660048301526024820189905291519190921691829163c39fc42c9160448082019260009290919082900301818387803b158015612ad457600080fd5b505af1158015612ae8573d6000803e3d6000fd5b50506101d354612b0492506001600160a01b03169050876140b2565b612b13565b612b138b876140b2565b6040516001600160a01b0382169087907f4589a3573ad46836d8192432d52ee2523357610d87f3cc4cc61da7ea362989f790600090a350612c14565b600060c98681548110612b5e57fe5b906000526020600020019050898160000160006101000a81548161ffff021916908361ffff160217905550888160000160026101000a81548160ff021916908360ff160217905550878160000160036101000a81548160ff021916908360ff160217905550818160000160046101000a8154816001600160401b0302191690836001600160401b03160217905550600060ca8781548110612bfb57fe5b6000918252602090912060016002909202010188905550505b505060008381526101d2602090815260408083206002845280835281842062ffffff8716905560678452909152902061ffff821690558298975050505050505050565b600081565b612c64613a65565b6001600160a01b0316826001600160a01b03161415612cca576040805162461bcd60e51b815260206004820152601960248201527f4552433732313a20617070726f766520746f2063616c6c657200000000000000604482015290519081900360640190fd5b8060696000612cd7613a65565b6001600160a01b03908116825260208083019390935260409182016000908120918716808252919093529120805460ff191692151592909217909155612d1b613a65565b60408051841515815290516001600160a01b0392909216917f17307eab39ab6107e8899845ad3d59bd9653f200f220920489ca2b5937696c319181900360200190a35050565b606080612d6d8361257a565b90506000805b8251811015612dcd576101d26000848381518110612d8d57fe5b602002602001015181526020019081526020016000206000600181526020019081526020016000205460001415612dc5576001909101905b600101612d73565b50806001600160401b0381118015612de457600080fd5b50604051908082528060200260200182016040528015612e0e578160200160208202803683370190505b50925060005b8251811015612e9b576101d26000848381518110612e2e57fe5b602002602001015181526020019081526020016000206000600181526020019081526020016000205460001415612e9357828181518110612e6b57fe5b602002602001015184836001900393508381518110612e8657fe5b6020026020010181815250505b600101612e14565b505050919050565b612eae60003361255c565b612eb757600080fd5b6101cc80546001600160a01b0319166001600160a01b0392909216919091179055565b6101cf5481565b600081612eed816139f7565b60c98381548110612efa57fe5b6000918252602090912001546301000000900460ff169392505050565b612f2260003361255c565b612f2b57600080fd5b61172f60cb8260ff615349565b606581565b600080805b83811015611fe957612f76600a612f6a878785818110612f5e57fe5b9050602002013561372d565b9063ffffffff6145d416565b90910190600101612f42565b612f93612f8d613a65565b83613cd3565b612fce5760405162461bcd60e51b81526004018080602001828103825260318152602001806156f46031913960400191505060405180910390fd5b61289a8484848461463b565b612fe2613b27565b6000805b848110156132055761305f61301360c988888581811061300257fe5b90506020020135815481106114b357fe5b62ffffff166101d2600089898681811061302957fe5b9050602002013581526020019081526020016000206000600281526020019081526020016000205461468d90919063ffffffff16565b8201915060006130748787848181106120f357fe5b6101d3549091506001600160a01b03808316911614156131a4576101d3546001600160a01b031663b8cae9508888858181106130ac57fe5b905060200201356040518263ffffffff1660e01b81526004018082815260200191505060206040518083038186803b1580156130e757600080fd5b505afa1580156130fb573d6000803e3d6000fd5b505050506040513d602081101561311157600080fd5b50516101d3549091506001600160a01b031663847331638289898681811061313557fe5b905060200201356040518363ffffffff1660e01b815260040180836001600160a01b03166001600160a01b0316815260200182815260200192505050600060405180830381600087803b15801561318b57600080fd5b505af115801561319f573d6000803e3d6000fd5b505050505b6131b387878481811061223e57fe5b8686838181106131bf57fe5b90506020020135816001600160a01b03167f696de425f79f4a40bc6d2122ca50507f0efbeabbff86a84871b7196ab8ea8df760405160405180910390a350600101612fe6565b5061321f816132138561372d565b9063ffffffff61468d16565b61324561323260c986815481106114b357fe5b60049062ffffff1663ffffffff6146e716565b1015613286576040805162461bcd60e51b815260206004820152600b60248201526a141bddd95c881b1a5b5a5d60aa1b604482015290519081900360640190fd5b60008381526101d260209081526040808320600284529091529020546132c290613213670de0b6b3a7640000612f6a858763ffffffff6146e716565b60009384526101d260209081526040808620600287529091529093209290925550505050565b600042826001600160401b03161115613303575060006114f2565b61012c6001600160401b03831642030460c8811115611713575060c892915050565b606061333082613a52565b61336b5760405162461bcd60e51b815260040180806020018281038252602f8152602001806156a4602f913960400191505060405180910390fd5b6000828152606c602090815260409182902080548351601f60026000196101006001861615020190931692909204918201849004840281018401909452808452606093928301828280156134005780601f106133d557610100808354040283529160200191613400565b820191906000526020600020905b8154815290600101906020018083116133e357829003601f168201915b5050505050905060606134116122ca565b9050805160001415613425575090506114f2565b8151156134e65780826040516020018083805190602001908083835b602083106134605780518252601f199092019160209182019101613441565b51815160209384036101000a600019018019909216911617905285519190930192850191508083835b602083106134a85780518252601f199092019160209182019101613489565b6001836020036101000a03801982511681845116808217855250505050505090500192505050604051602081830303815290604052925050506114f2565b806134f085614740565b6040516020018083805190602001908083835b602083106135225780518252601f199092019160209182019101613503565b51815160209384036101000a600019018019909216911617905285519190930192850191508083835b6020831061356a5780518252601f19909201916020918201910161354b565b6001836020036101000a0380198251168184511680821785525050505050509050019250505060405160208183030381529060405292505050919050565b600081815260976020526040812061171390613cc8565b6135ca60003361255c565b6135d357600080fd5b6101d380546001600160a01b0319166001600160a01b0392909216919091179055565b604080516a4d494e5445525f524f4c4560a81b8152905190819003600b01902081565b60008281526097602052604090206002015461363790611846613a65565b6119325760405162461bcd60e51b81526004018080602001828103825260308152602001806155236030913960400191505060405180910390fd5b61367a613b27565b60008381526101d06020526040902080546001019055816136aa5760008381526101d160205260409020546136be565b60008381526101d160205260409020546001015b60008481526101d160209081526040808320939093556101d281528282206001835290522054156136ee57600080fd5b6136fc838261ffff16613b86565b60086137098460666123be565b141561170357600061371c8460656123be565b600101905061289a84606583613993565b600081613739816139f7565b6114cd61374c60c985815481106114b357fe5b60008581526101d260209081526040808320600284529091529020549062ffffff1663ffffffff61468d16565b613781613b27565b600061379482600a63ffffffff6146e716565b90506137a3816132138561372d565b6137b661323260c986815481106114b357fe5b10156137f7576040805162461bcd60e51b815260206004820152600b60248201526a141bddd95c881b1a5b5a5d60aa1b604482015290519081900360640190fd5b60008381526101d2602090815260408083206002845290915290205461382490829063ffffffff61468d16565b60009384526101d26020908152604080862060028752909152909320929092555050565b606081516001600160401b038111801561386157600080fd5b5060405190808252806020026020018201604052801561388b578160200160208202803683370190505b50905060005b82518110156138f2576101d2600085815260200190815260200160002060008483815181106138bc57fe5b60200260200101518152602001908152602001600020548282815181106138df57fe5b6020908102919091010152600101613891565b5092915050565b61390460003361255c565b61390d57600080fd5b60046101cf55565b6001600160a01b03918216600090815260696020908152604080832093909416825291909152205460ff1690565b61394b613b27565b8060c9838154811061395957fe5b9060005260206000200160000160046101000a8154816001600160401b0302191690836001600160401b031602179055505050565b606781565b61399b613b27565b60009283526101d260209081526040808520938552929052912055565b6139c0613b27565b8060c983815481106139ce57fe5b9060005260206000200160000160036101000a81548160ff021916908360ff1602179055505050565b6101ce54811080613a0a5750436101cd54105b612070576040805162461bcd60e51b81526020600482015260146024820152730546f6f20667265736820666f72206c6f6f6b75760641b604482015290519081900360640190fd5b600061171360668363ffffffff61481a16565b3390565b600081815260686020526040902080546001600160a01b0319166001600160a01b0384169081179091558190613a9e8261229c565b6001600160a01b03167f8c5be1e5ebec7d5bd14f71427d1e84f3dd0314c0f7b2291e5b200ac8c7c3b92560405160405180910390a45050565b6000611713613af5600161321360ff8616600a63ffffffff6145d416565b613b1b613b0c60ff8616600a63ffffffff6146e716565b6103e89063ffffffff61468d16565b9063ffffffff6146e716565b604080516923a0a6a2afa0a226a4a760b11b8152905190819003600a019020613b50903361255c565b6123bc576040805162461bcd60e51b81526020600482015260026024820152614e4160f01b604482015290519081900360640190fd5b600060c98381548110613b9557fe5b6000918252602090912001805490915060ff6201000090910481161015611703578054600090613bcf9061ffff168463ffffffff61468d16565b825490915060009060cb9062010000900460ff166101008110613bee57fe5b015490505b808210613cb257825460ff6201000080830482166001019091160262ff000019909116178355908190039084613c288161229c565b8454604080516201000090920460ff168252516001600160a01b0392909216917f1e8ccc52fc2f78485fd47b1731bb16a4286756d20e27ba77463ba36806772372916020908290030190a3825460ff6201000090910481161015613ca857825460cb9062010000900460ff166101008110613c9f57fe5b01549050613cad565b600091505b613bf3565b50815461ffff191661ffff919091161790555050565b600061171382614826565b6000613cde82613a52565b613d195760405162461bcd60e51b815260040180806020018281038252602c8152602001806154f7602c913960400191505060405180910390fd5b6000613d248361229c565b9050806001600160a01b0316846001600160a01b03161480613d5f5750836001600160a01b0316613d54846115cb565b6001600160a01b0316145b80613d6f5750613d6f8185613915565b949350505050565b826001600160a01b0316613d8a8261229c565b6001600160a01b031614613dcf5760405162461bcd60e51b815260040180806020018281038252602981526020018061567b6029913960400191505060405180910390fd5b6001600160a01b038216613e145760405162461bcd60e51b81526004018080602001828103825260248152602001806154d36024913960400191505060405180910390fd5b613e1f83838361482a565b613e2a600082613a69565b6001600160a01b0383166000908152606560205260409020613e52908263ffffffff61497016565b506001600160a01b0382166000908152606560205260409020613e7b908263ffffffff61497c16565b50613e8e6066828463ffffffff61498816565b5080826001600160a01b0316846001600160a01b03167fddf252ad1be2c89b69c2b068fc378daa952ba7f163c4a11628f55a4df523b3ef60405160405180910390a4505050565b6000828152609760205260409020613ef3908263ffffffff61499e16565b1561172f57613f00613a65565b6001600160a01b0316816001600160a01b0316837f2f8788117e7eff1d82e926ec794901d17c78024a50270940304540a733656f0d60405160405180910390a45050565b60006114cd83836149b3565b6000828152609760205260409020613f6e908263ffffffff614a1716565b1561172f57613f7b613a65565b6001600160a01b0316816001600160a01b0316837ff6391f5c32d9c69d2a47ea670b442974b53935d1edc7fd64eb21e047a839171b60405160405180910390a45050565b600080613fd76001613213868863ffffffff61402916565b604080516020808201879052825180830382018152918301909252805191012090915060009061400d908363ffffffff614a2c16565b905061401f818763ffffffff61468d16565b9695505050505050565b600082821115614080576040805162461bcd60e51b815260206004820152601e60248201527f536166654d6174683a207375627472616374696f6e206f766572666c6f770000604482015290519081900360640190fd5b50900390565b604080516020808201949094528082019290925280518083038201815260609092019052805191012090565b6001600160a01b03821661410d576040805162461bcd60e51b815260206004820181905260248201527f4552433732313a206d696e7420746f20746865207a65726f2061646472657373604482015290519081900360640190fd5b61411681613a52565b15614168576040805162461bcd60e51b815260206004820152601c60248201527f4552433732313a20746f6b656e20616c7265616479206d696e74656400000000604482015290519081900360640190fd5b6141746000838361482a565b6001600160a01b038216600090815260656020526040902061419c908263ffffffff61497c16565b506141af6066828463ffffffff61498816565b5060405181906001600160a01b038416906000907fddf252ad1be2c89b69c2b068fc378daa952ba7f163c4a11628f55a4df523b3ef908290a45050565b61170383838360405180602001604052806000815250612f82565b60008080806142168686614a93565b9097909650945050505050565b805161172f90606d906020840190615388565b60006142418261229c565b905061424f8160008461482a565b61425a600083613a69565b6000828152606c60205260409020546002600019610100600184161502019091160415614298576000828152606c60205260408120614298916153f5565b6001600160a01b03811660009081526065602052604090206142c0908363ffffffff61497016565b506142d260668363ffffffff614b0e16565b5060405182906000906001600160a01b038416907fddf252ad1be2c89b69c2b068fc378daa952ba7f163c4a11628f55a4df523b3ef908390a45050565b6000613d6f848484614b1a565b6001600160e01b0319808216141561437b576040805162461bcd60e51b815260206004820152601c60248201527f4552433136353a20696e76616c696420696e7465726661636520696400000000604482015290519081900360640190fd5b6001600160e01b0319166000908152603360205260409020805460ff19166001179055565b60006143ab30614be4565b15905090565b600054610100900460ff16806143ca57506143ca6143a0565b806143d8575060005460ff16155b6144135760405162461bcd60e51b815260040180806020018281038252602e8152602001806155de602e913960400191505060405180910390fd5b600054610100900460ff1615801561443e576000805460ff1961ff0019909116610100171660011790555b61444661446e565b61444e614bea565b6144588383614c87565b8015611703576000805461ff0019169055505050565b600054610100900460ff168061448757506144876143a0565b80614495575060005460ff16155b6144d05760405162461bcd60e51b815260040180806020018281038252602e8152602001806155de602e913960400191505060405180910390fd5b600054610100900460ff161580156124f0576000805460ff1961ff0019909116610100171660011790558015612070576000805461ff001916905550565b60006114cd836001600160a01b038416614d6c565b6000613d6f60008361ffff166145398787614086565b613fbf565b604080516923a0a6a2afa0a226a4a760b11b8152905190819003600a019020614567903361255c565b806145975750604080516a4d494e5445525f524f4c4560a81b8152905190819003600b019020614597903361255c565b6123bc576040805162461bcd60e51b81526020600482015260096024820152686e6f2061636365737360b81b604482015290519081900360640190fd5b600080821161462a576040805162461bcd60e51b815260206004820152601a60248201527f536166654d6174683a206469766973696f6e206279207a65726f000000000000604482015290519081900360640190fd5b81838161463357fe5b049392505050565b614646848484613d77565b61465284848484614d84565b61289a5760405162461bcd60e51b81526004018080602001828103825260328152602001806154a16032913960400191505060405180910390fd5b6000828201838110156114cd576040805162461bcd60e51b815260206004820152601b60248201527f536166654d6174683a206164646974696f6e206f766572666c6f770000000000604482015290519081900360640190fd5b6000826146f657506000611713565b8282028284828161470357fe5b04146114cd5760405162461bcd60e51b815260040180806020018281038252602181526020018061562e6021913960400191505060405180910390fd5b60608161476557506040805180820190915260018152600360fc1b60208201526114f2565b8160005b811561477d57600101600a82049150614769565b6060816001600160401b038111801561479557600080fd5b506040519080825280601f01601f1916602001820160405280156147c0576020820181803683370190505b50859350905060001982015b831561481157600a840660300160f81b828280600190039350815181106147ef57fe5b60200101906001600160f81b031916908160001a905350600a840493506147cc565b50949350505050565b60006114cd8383614d6c565b5490565b60008181526101d260209081526040808320600184529091529020541561485057600080fd5b6040805160028082526060808301845292602083019080368337019050509050838160008151811061487e57fe5b60200260200101906001600160a01b031690816001600160a01b03168152505082816001815181106148ac57fe5b6001600160a01b039283166020918202929092018101919091526101cc546040805163d8138acf60e01b815260016024820181905260048201928352865160448301528651939095169463d8138acf9487949193928392606490910191868101910280838360005b8381101561492c578181015183820152602001614914565b505050509050019350505050600060405180830381600087803b15801561495257600080fd5b505af1158015614966573d6000803e3d6000fd5b5050505050505050565b60006114cd8383614f04565b60006114cd8383614fca565b6000613d6f84846001600160a01b038516615014565b60006114cd836001600160a01b038416614fca565b815460009082106149f55760405162461bcd60e51b81526004018080602001828103825260228152602001806154506022913960400191505060405180910390fd5b826000018281548110614a0457fe5b9060005260206000200154905092915050565b60006114cd836001600160a01b038416614f04565b6000808211614a82576040805162461bcd60e51b815260206004820152601860248201527f536166654d6174683a206d6f64756c6f206279207a65726f0000000000000000604482015290519081900360640190fd5b818381614a8b57fe5b069392505050565b815460009081908310614ad75760405162461bcd60e51b815260040180806020018281038252602281526020018061560c6022913960400191505060405180910390fd5b6000846000018481548110614ae857fe5b906000526020600020906002020190508060000154816001015492509250509250929050565b60006114cd83836150ab565b60008281526001840160205260408120548281614bb55760405162461bcd60e51b81526004018080602001828103825283818151815260200191508051906020019080838360005b83811015614b7a578181015183820152602001614b62565b50505050905090810190601f168015614ba75780820380516001836020036101000a031916815260200191505b509250505060405180910390fd5b50846000016001820381548110614bc857fe5b9060005260206000209060020201600101549150509392505050565b3b151590565b600054610100900460ff1680614c035750614c036143a0565b80614c11575060005460ff16155b614c4c5760405162461bcd60e51b815260040180806020018281038252602e8152602001806155de602e913960400191505060405180910390fd5b600054610100900460ff16158015614c77576000805460ff1961ff0019909116610100171660011790555b6124f06301ffc9a760e01b61431c565b600054610100900460ff1680614ca05750614ca06143a0565b80614cae575060005460ff16155b614ce95760405162461bcd60e51b815260040180806020018281038252602e8152602001806155de602e913960400191505060405180910390fd5b600054610100900460ff16158015614d14576000805460ff1961ff0019909116610100171660011790555b8251614d2790606a906020860190615388565b508151614d3b90606b906020850190615388565b50614d4c6380ac58cd60e01b61431c565b614d5c635b5e139f60e01b61431c565b61445863780e9d6360e01b61431c565b60009081526001919091016020526040902054151590565b6000614d98846001600160a01b0316614be4565b614da457506001613d6f565b6060614eca630a85bd0160e11b614db9613a65565b88878760405160240180856001600160a01b03166001600160a01b03168152602001846001600160a01b03166001600160a01b0316815260200183815260200180602001828103825283818151815260200191508051906020019080838360005b83811015614e32578181015183820152602001614e1a565b50505050905090810190601f168015614e5f5780820380516001836020036101000a031916815260200191505b5095505050505050604051602081830303815290604052906001600160e01b0319166020820180516001600160e01b0383818316178352505050506040518060600160405280603281526020016154a1603291396001600160a01b038816919063ffffffff61517f16565b90506000818060200190516020811015614ee357600080fd5b50516001600160e01b031916630a85bd0160e11b1492505050949350505050565b60008181526001830160205260408120548015614fc05783546000198083019190810190600090879083908110614f3757fe5b9060005260206000200154905080876000018481548110614f5457fe5b600091825260208083209091019290925582815260018981019092526040902090840190558654879080614f8457fe5b60019003818190600052602060002001600090559055866001016000878152602001908152602001600020600090556001945050505050611713565b6000915050611713565b6000614fd68383614d6c565b61500c57508154600181810184556000848152602080822090930184905584548482528286019093526040902091909155611713565b506000611713565b6000828152600184016020526040812054806150795750506040805180820182528381526020808201848152865460018181018955600089815284812095516002909302909501918255915190820155865486845281880190925292909120556114cd565b8285600001600183038154811061508c57fe5b90600052602060002090600202016001018190555060009150506114cd565b60008181526001830160205260408120548015614fc057835460001980830191908101906000908790839081106150de57fe5b90600052602060002090600202019050808760000184815481106150fe57fe5b60009182526020808320845460029093020191825560019384015491840191909155835482528983019052604090209084019055865487908061513d57fe5b60008281526020808220600260001990940193840201828155600190810183905592909355888152898201909252604082209190915594506117139350505050565b6060613d6f84846000858561519385614be4565b6151e4576040805162461bcd60e51b815260206004820152601d60248201527f416464726573733a2063616c6c20746f206e6f6e2d636f6e7472616374000000604482015290519081900360640190fd5b60006060866001600160a01b031685876040518082805190602001908083835b602083106152235780518252601f199092019160209182019101615204565b6001836020036101000a03801982511681845116808217855250505050505090500191505060006040518083038185875af1925050503d8060008114615285576040519150601f19603f3d011682016040523d82523d6000602084013e61528a565b606091505b509150915061529a8282866152a5565b979650505050505050565b606083156152b45750816114cd565b8251156152c45782518084602001fd5b60405162461bcd60e51b8152602060048201818152845160248401528451859391928392604401919085019080838360008315614b7a578181015183820152602001614b62565b604080518082019091526000808252602082015290565b60408051608081018252600080825260208201819052918101829052606081019190915290565b826101008101928215615378579160200282015b8281111561537857825182559160200191906001019061535d565b50615384929150615435565b5090565b828054600181600116156101000203166002900490600052602060002090601f016020900481019282601f106153c957805160ff1916838001178555615378565b82800160010185558215615378579182018281111561537857825182559160200191906001019061535d565b50805460018160011615610100020316600290046000825580601f1061541b5750612070565b601f01602090049060005260206000209081019061207091905b6115c891905b80821115615384576000815560010161543b56fe456e756d657261626c655365743a20696e646578206f7574206f6620626f756e6473416363657373436f6e74726f6c3a2073656e646572206d75737420626520616e2061646d696e20746f206772616e744552433732313a207472616e7366657220746f206e6f6e20455243373231526563656976657220696d706c656d656e7465724552433732313a207472616e7366657220746f20746865207a65726f20616464726573734552433732313a206f70657261746f7220717565727920666f72206e6f6e6578697374656e7420746f6b656e416363657373436f6e74726f6c3a2073656e646572206d75737420626520616e2061646d696e20746f207265766f6b654552433732313a20617070726f76652063616c6c6572206973206e6f74206f776e6572206e6f7220617070726f76656420666f7220616c6c4552433732313a2062616c616e636520717565727920666f7220746865207a65726f20616464726573734552433732313a206f776e657220717565727920666f72206e6f6e6578697374656e7420746f6b656e496e697469616c697a61626c653a20636f6e747261637420697320616c726561647920696e697469616c697a6564456e756d657261626c654d61703a20696e646578206f7574206f6620626f756e6473536166654d6174683a206d756c7469706c69636174696f6e206f766572666c6f774552433732313a20617070726f76656420717565727920666f72206e6f6e6578697374656e7420746f6b656e4552433732313a207472616e73666572206f6620746f6b656e2074686174206973206e6f74206f776e4552433732314d657461646174613a2055524920717565727920666f72206e6f6e6578697374656e7420746f6b656e4552433732313a20617070726f76616c20746f2063757272656e74206f776e65724552433732313a207472616e736665722063616c6c6572206973206e6f74206f776e6572206e6f7220617070726f766564416363657373436f6e74726f6c3a2063616e206f6e6c792072656e6f756e636520726f6c657320666f722073656c66a2646970667358221220ffa7d9416542b3351bf67e59adaca57bd9759f6c673409b39a5c332cec6f689064736f6c63430006050033",
  "immutableReferences": {},
  "source": "pragma solidity ^0.6.0;\r\n\r\nimport \"@openzeppelin/contracts-upgradeable/proxy/Initializable.sol\";\r\nimport \"@openzeppelin/contracts-upgradeable/token/ERC721/ERC721Upgradeable.sol\";\r\nimport \"@openzeppelin/contracts-upgradeable/access/AccessControlUpgradeable.sol\";\r\nimport \"@openzeppelin/contracts/math/SafeMath.sol\";\r\nimport \"./Promos.sol\";\r\nimport \"./util.sol\";\r\nimport \"./Garrison.sol\";\r\nimport \"./common.sol\";\r\n\r\ncontract Characters is Initializable, ERC721Upgradeable, AccessControlUpgradeable {\r\n\r\n    using SafeMath for uint16;\r\n    using SafeMath for uint8;\r\n\r\n    bytes32 public constant GAME_ADMIN = keccak256(\"GAME_ADMIN\");\r\n    bytes32 public constant NO_OWNED_LIMIT = keccak256(\"NO_OWNED_LIMIT\");\r\n\r\n    bytes32 public constant MINTER_ROLE = keccak256(\"MINTER_ROLE\");\r\n\r\n    // Copied from promos.sol, to avoid paying 5k gas to query a constant.\r\n    uint256 private constant BIT_FIRST_CHARACTER = 1;\r\n\r\n    function initialize () public initializer {\r\n        __ERC721_init(\"CryptoBlades character\", \"CBC\");\r\n        __AccessControl_init_unchained();\r\n\r\n        _setupRole(DEFAULT_ADMIN_ROLE, msg.sender);\r\n    }\r\n\r\n    function migrateTo_1ee400a(uint256[255] memory _experienceTable) public {\r\n        require(hasRole(DEFAULT_ADMIN_ROLE, msg.sender));\r\n        experienceTable = _experienceTable;\r\n    }\r\n\r\n    function migrateTo_951a020() public {\r\n        require(hasRole(DEFAULT_ADMIN_ROLE, msg.sender));\r\n\r\n        // Apparently ERC165 interfaces cannot be removed in this version of the OpenZeppelin library.\r\n        // But if we remove the registration, then while local deployments would not register the interface ID,\r\n        // existing deployments on both testnet and mainnet would still be registered to handle it.\r\n        // That sort of inconsistency is a good way to attract bugs that only happens on some environments.\r\n        // Hence, we keep registering the interface despite not actually implementing the interface.\r\n        _registerInterface(0xe62e6974); // TransferCooldownableInterfaceId.interfaceId()\r\n    }\r\n\r\n    function migrateTo_ef994e2(Promos _promos) public {\r\n        require(hasRole(DEFAULT_ADMIN_ROLE, msg.sender));\r\n\r\n        promos = _promos;\r\n    }\r\n\r\n    function migrateTo_b627f23() external {\r\n        require(hasRole(DEFAULT_ADMIN_ROLE, msg.sender));\r\n\r\n        characterLimit = 4;\r\n    }\r\n\r\n    function migrateTo_1a19cbb(Garrison _garrison) external {\r\n        require(hasRole(DEFAULT_ADMIN_ROLE, msg.sender));\r\n\r\n        garrison = _garrison;\r\n    }\r\n\r\n    /*\r\n        visual numbers start at 0, increment values by 1\r\n        levels: 1-256\r\n        traits: 0-3 [0(fire) > 1(earth) > 2(lightning) > 3(water) > repeat]\r\n    */\r\n\r\n    struct Character {\r\n        uint16 xp; // xp to next level\r\n        uint8 level; // up to 256 cap\r\n        uint8 trait; // 2b trait, TBD\r\n        uint64 staminaTimestamp; // standard timestamp in seconds-resolution marking regen start from 0\r\n    }\r\n    struct CharacterCosmetics {\r\n        uint8 version;\r\n        uint256 seed;\r\n    }\r\n\r\n    Character[] private tokens;\r\n    CharacterCosmetics[] private cosmetics;\r\n\r\n    uint256 public constant maxStamina = 200;\r\n    uint256 public constant secondsPerStamina = 300; //5 * 60\r\n\r\n    uint256[256] private experienceTable; // fastest lookup in the west\r\n\r\n    // UNUSED; KEPT FOR UPGRADEABILITY PROXY COMPATIBILITY\r\n    mapping(uint256 => uint256) public lastTransferTimestamp;\r\n\r\n    Promos public promos;\r\n\r\n    uint256 private lastMintedBlock;\r\n    uint256 private firstMintedOfLastBlock;\r\n\r\n    uint256 public characterLimit;\r\n\r\n    mapping(uint256 => uint256) public raidsDone;\r\n    mapping(uint256 => uint256) public raidsWon;\r\n\r\n    uint256 public constant NFTVAR_SIMPLEQUEST_PROGRESS = 101;\r\n    uint256 public constant NFTVAR_SIMPLEQUEST_TYPE = 102;\r\n    uint256 public constant NFTVAR_REPUTATION = 103;\r\n\r\n    uint256 public constant SIMPLEQUEST_TYPE_RAID = 8;\r\n\r\n    mapping(uint256 => mapping(uint256 => uint256)) public nftVars; // nftID, fieldID, value\r\n    uint256 public constant NFTVAR_BUSY = 1; // value bitflags: 1 (pvp) | 2 (raid) | 4 (TBD)..\r\n\r\n    Garrison public garrison;\r\n\r\n    uint256 public constant NFTVAR_BONUS_POWER = 2;\r\n\r\n    event NewCharacter(uint256 indexed character, address indexed minter);\r\n    event LevelUp(address indexed owner, uint256 indexed character, uint16 level);\r\n    event Burned(address indexed owner, uint256 indexed id);\r\n\r\n    modifier restricted() {\r\n        _restricted();\r\n        _;\r\n    }\r\n\r\n    function _restricted() internal view {\r\n        require(hasRole(GAME_ADMIN, msg.sender), \"NA\");\r\n    }\r\n\r\n    modifier noFreshLookup(uint256 id) {\r\n        _noFreshLookup(id);\r\n        _;\r\n    }\r\n\r\n    modifier minterOnly() {\r\n        _minterOnly();\r\n        _;\r\n    }\r\n\r\n    function _minterOnly() internal view {\r\n        require(hasRole(GAME_ADMIN, msg.sender) || hasRole(MINTER_ROLE, msg.sender), 'no access');\r\n    }\r\n\r\n    function _noFreshLookup(uint256 id) internal view {\r\n        require(id < firstMintedOfLastBlock || lastMintedBlock < block.number, \"Too fresh for lookup\");\r\n    }\r\n\r\n    function get(uint256 id) public view noFreshLookup(id) returns (uint16, uint8, uint8, uint64, uint16, uint16, uint16, uint16, uint16, uint16) {\r\n        Character memory c = tokens[id];\r\n        CharacterCosmetics memory cc = cosmetics[id];\r\n        return (c.xp, c.level, c.trait, c.staminaTimestamp,\r\n            getRandomCosmetic(cc.seed, 1, 13), // head\r\n            getRandomCosmetic(cc.seed, 2, 45), // arms\r\n            getRandomCosmetic(cc.seed, 3, 61), // torso\r\n            getRandomCosmetic(cc.seed, 4, 41), // legs\r\n            getRandomCosmetic(cc.seed, 5, 22), // boots\r\n            getRandomCosmetic(cc.seed, 6, 2) // race\r\n        );\r\n    }\r\n\r\n    function getRandomCosmetic(uint256 seed, uint256 seed2, uint16 limit) private pure returns (uint16) {\r\n        return uint16(RandomUtil.randomSeededMinMax(0, limit, RandomUtil.combineSeeds(seed, seed2)));\r\n    }\r\n\r\n    function getCosmeticsSeed(uint256 id) public view noFreshLookup(id) returns (uint256) {\r\n        CharacterCosmetics memory cc = cosmetics[id];\r\n        return cc.seed;\r\n    }\r\n\r\n    function getSoulForBurns(uint256[] calldata burnIds) external view returns (uint256) {\r\n        uint256 soulAmount = 0;\r\n        for(uint i = 0; i < burnIds.length; i++) {\r\n            soulAmount += getTotalPower(burnIds[i]).div(10);\r\n        }\r\n        return soulAmount;\r\n    }\r\n\r\n    function mint(address minter, uint256 seed) public restricted {\r\n        uint256 tokenID = tokens.length;\r\n\r\n        if(block.number != lastMintedBlock)\r\n            firstMintedOfLastBlock = tokenID;\r\n        lastMintedBlock = block.number;\r\n\r\n        uint16 xp = 0;\r\n        uint8 level = 0; // 1\r\n        uint8 trait = uint8(RandomUtil.randomSeededMinMax(0,3,seed));\r\n        uint64 staminaTimestamp = uint64(now.sub(getStaminaMaxWait()));\r\n\r\n        tokens.push(Character(xp, level, trait, staminaTimestamp));\r\n        cosmetics.push(CharacterCosmetics(0, RandomUtil.combineSeeds(seed, 1)));\r\n        address receiver = minter;\r\n        if(minter != address(0) && minter != address(0x000000000000000000000000000000000000dEaD) && !hasRole(NO_OWNED_LIMIT, minter) && balanceOf(minter) >= characterLimit) {\r\n            receiver = address(garrison);\r\n            garrison.redirectToGarrison(minter, tokenID);\r\n            _mint(address(garrison), tokenID);\r\n        }\r\n        else {\r\n            _mint(minter, tokenID);\r\n        }\r\n        emit NewCharacter(tokenID, receiver);\r\n    }\r\n\r\n    function customMint(address minter, uint16 xp, uint8 level, uint8 trait, uint256 seed, uint256 tokenID, uint24 bonusPower, uint16 reputation) minterOnly public returns (uint256) {\r\n        uint64 staminaTimestamp = uint64(now); // 0 on purpose to avoid chain jumping abuse\r\n\r\n        if(tokenID == 0){\r\n            tokenID = tokens.length;\r\n\r\n            if(block.number != lastMintedBlock)\r\n                firstMintedOfLastBlock = tokenID;\r\n            lastMintedBlock = block.number;\r\n\r\n            tokens.push(Character(xp, level, trait, staminaTimestamp));\r\n            cosmetics.push(CharacterCosmetics(0, RandomUtil.combineSeeds(seed, 1)));\r\n            address receiver = minter;\r\n            if(minter != address(0) && minter != address(0x000000000000000000000000000000000000dEaD) && !hasRole(NO_OWNED_LIMIT, minter) && balanceOf(minter) >= characterLimit) {\r\n                receiver = address(garrison);\r\n                garrison.redirectToGarrison(minter, tokenID);\r\n                _mint(address(garrison), tokenID);\r\n            }\r\n            else {\r\n                _mint(minter, tokenID);\r\n            }\r\n            emit NewCharacter(tokenID, receiver);\r\n        }\r\n        else {\r\n            Character storage ch = tokens[tokenID];\r\n            ch.xp = xp;\r\n            ch.level = level;\r\n            ch.trait = trait;\r\n            ch.staminaTimestamp = staminaTimestamp;\r\n\r\n            CharacterCosmetics storage cc = cosmetics[tokenID];\r\n            cc.seed = seed;\r\n        }\r\n\r\n        nftVars[tokenID][NFTVAR_BONUS_POWER] = bonusPower;\r\n        nftVars[tokenID][NFTVAR_REPUTATION] = reputation;\r\n\r\n        return tokenID;\r\n    }\r\n\r\n    function burnIntoCharacter(uint256[] calldata burnIds, uint256 targetCharId, uint256 burnPowerMultiplier) external restricted {\r\n        uint256 burnPower = 0;\r\n        for(uint i = 0; i < burnIds.length; i++) {\r\n            burnPower += nftVars[burnIds[i]][NFTVAR_BONUS_POWER].add(getPowerAtLevel(tokens[burnIds[i]].level));\r\n            address burnOwner = ownerOf(burnIds[i]);\r\n            if(burnOwner == address(garrison)) {\r\n                burnOwner = garrison.characterOwner(burnIds[i]);\r\n                garrison.updateOnBurn(burnOwner, burnIds[i]);\r\n            }\r\n            _burn(burnIds[i]);\r\n\r\n            emit Burned(\r\n                burnOwner,\r\n                burnIds[i]\r\n            );\r\n        }\r\n        require(uint(4).mul(getPowerAtLevel(tokens[targetCharId].level)) >= getTotalPower(targetCharId).add(burnPower), \"Power limit\");\r\n        nftVars[targetCharId][NFTVAR_BONUS_POWER] = burnPower.mul(burnPowerMultiplier).div(1e18).add(nftVars[targetCharId][NFTVAR_BONUS_POWER]);\r\n    }\r\n\r\n    function burnIntoSoul(uint256[] calldata burnIds) external restricted {\r\n        for(uint i = 0; i < burnIds.length; i++) {\r\n            address burnOwner = ownerOf(burnIds[i]);\r\n            if(burnOwner == address(garrison)) {\r\n                burnOwner = garrison.characterOwner(burnIds[i]);\r\n                garrison.updateOnBurn(burnOwner, burnIds[i]);\r\n            }\r\n            _burn(burnIds[i]);\r\n\r\n            emit Burned(\r\n                burnOwner,\r\n                burnIds[i]\r\n            );\r\n        }\r\n    }\r\n\r\n    function upgradeWithSoul(uint256 targetCharId, uint256 soulAmount) external restricted {\r\n        uint256 burnPower = soulAmount.mul(10);\r\n        require(uint(4).mul(getPowerAtLevel(tokens[targetCharId].level)) >= getTotalPower(targetCharId).add(burnPower), \"Power limit\");\r\n        nftVars[targetCharId][NFTVAR_BONUS_POWER] = burnPower.add(nftVars[targetCharId][NFTVAR_BONUS_POWER]);\r\n    }\r\n\r\n    function getLevel(uint256 id) public view noFreshLookup(id) returns (uint8) {\r\n        return tokens[id].level; // this is used by dataminers and it benefits us\r\n    }\r\n\r\n    function getRequiredXpForNextLevel(uint8 currentLevel) public view returns (uint16) {\r\n        return uint16(experienceTable[currentLevel]); // this is helpful to users as the array is private\r\n    }\r\n\r\n    function getPower(uint256 id) public view noFreshLookup(id) returns (uint24) {\r\n        return getPowerAtLevel(tokens[id].level);\r\n    }\r\n\r\n    function getTotalPower(uint256 id) public view noFreshLookup(id) returns (uint256) {\r\n        return nftVars[id][NFTVAR_BONUS_POWER].add(getPowerAtLevel(tokens[id].level));\r\n    }\r\n\r\n    function getPowerAtLevel(uint8 level) public pure returns (uint24) {\r\n        return Common.getPowerAtLevel(level);\r\n    }\r\n\r\n    function getTrait(uint256 id) public view noFreshLookup(id) returns (uint8) {\r\n        return tokens[id].trait;\r\n    }\r\n\r\n    function setTrait(uint256 id, uint8 trait) public restricted {\r\n        tokens[id].trait = trait;\r\n    }\r\n\r\n    function getXp(uint256 id) public view noFreshLookup(id) returns (uint32) {\r\n        return tokens[id].xp;\r\n    }\r\n\r\n    function gainXp(uint256 id, uint16 xp) public restricted {\r\n        _gainXp(id, xp);\r\n    }\r\n\r\n    function _gainXp(uint256 id, uint256 xp) internal {\r\n        Character storage char = tokens[id];\r\n        if (char.level < 255) {\r\n            uint newXp = char.xp.add(xp);\r\n            uint requiredToLevel = experienceTable[char.level]; // technically next level\r\n            while (newXp >= requiredToLevel) {\r\n                newXp = newXp - requiredToLevel;\r\n                char.level += 1;\r\n                emit LevelUp(ownerOf(id), id, char.level);\r\n                if (char.level < 255)\r\n                    requiredToLevel = experienceTable[char.level];\r\n                else newXp = 0;\r\n            }\r\n            char.xp = uint16(newXp);\r\n        }\r\n    }\r\n\r\n    function gainXpAll(uint256[] calldata chars, uint256[] calldata xps) external restricted {\r\n        for(uint i = 0; i < chars.length; i++)\r\n            _gainXp(chars[i], xps[i]);\r\n    }\r\n\r\n    function getStaminaTimestamp(uint256 id) public view noFreshLookup(id) returns (uint64) {\r\n        return tokens[id].staminaTimestamp;\r\n    }\r\n\r\n    function setStaminaTimestamp(uint256 id, uint64 timestamp) public restricted {\r\n        tokens[id].staminaTimestamp = timestamp;\r\n    }\r\n\r\n    function getStaminaPoints(uint256 id) public view noFreshLookup(id) returns (uint8) {\r\n        return getStaminaPointsFromTimestamp(tokens[id].staminaTimestamp);\r\n    }\r\n\r\n    function getStaminaPointsFromTimestamp(uint64 timestamp) public view returns (uint8) {\r\n        if(timestamp  > now)\r\n            return 0;\r\n\r\n        uint256 points = (now - timestamp) / secondsPerStamina;\r\n        if(points > maxStamina) {\r\n            points = maxStamina;\r\n        }\r\n        return uint8(points);\r\n    }\r\n\r\n    function isStaminaFull(uint256 id) public view noFreshLookup(id) returns (bool) {\r\n        return getStaminaPoints(id) >= maxStamina;\r\n    }\r\n\r\n    function getStaminaMaxWait() public pure returns (uint64) {\r\n        return uint64(maxStamina * secondsPerStamina);\r\n    }\r\n\r\n    function getFightDataAndDrainStamina(address fighter,\r\n        uint256 id, uint8 amount, bool allowNegativeStamina, uint256 busyFlag) public restricted returns(uint96) {\r\n        require(fighter == ownerOf(id) && nftVars[id][NFTVAR_BUSY] == 0);\r\n        nftVars[id][NFTVAR_BUSY] |= busyFlag;\r\n\r\n        Character storage char = tokens[id];\r\n        uint8 staminaPoints = getStaminaPointsFromTimestamp(char.staminaTimestamp);\r\n        require((staminaPoints > 0 && allowNegativeStamina) // we allow going into negative, but not starting negative\r\n            || staminaPoints >= amount, \"Not enough stamina!\");\r\n\r\n        uint64 drainTime = uint64(amount * secondsPerStamina);\r\n        uint64 preTimestamp = char.staminaTimestamp;\r\n        if(staminaPoints >= maxStamina) { // if stamina full, we reset timestamp and drain from that\r\n            char.staminaTimestamp = uint64(now - getStaminaMaxWait() + drainTime);\r\n        }\r\n        else {\r\n            char.staminaTimestamp = uint64(char.staminaTimestamp + drainTime);\r\n        }\r\n        // bitwise magic to avoid stacking limitations later on\r\n        return uint96(char.trait | (getTotalPower(id) << 8) | (preTimestamp << 32));\r\n    }\r\n\r\n    function processRaidParticipation(uint256 id, bool won, uint16 xp) public restricted {\r\n        raidsDone[id] = raidsDone[id] + 1;\r\n        raidsWon[id] = won ? (raidsWon[id] + 1) : (raidsWon[id]);\r\n        require(nftVars[id][NFTVAR_BUSY] == 0); // raids do not apply busy flag for now\r\n        //nftVars[id][NFTVAR_BUSY] = 0;\r\n        _gainXp(id, xp);\r\n        if (getNftVar(id, NFTVAR_SIMPLEQUEST_TYPE) == SIMPLEQUEST_TYPE_RAID) {\r\n            uint currentProgress = getNftVar(id, NFTVAR_SIMPLEQUEST_PROGRESS);\r\n            setNftVar(id, NFTVAR_SIMPLEQUEST_PROGRESS, ++currentProgress);\r\n        }\r\n    }\r\n\r\n    function getCharactersOwnedBy(address wallet) public view returns(uint256[] memory chars) {\r\n        uint256 count = balanceOf(wallet);\r\n        chars = new uint256[](count);\r\n        for(uint256 i = 0; i < count; i++)\r\n            chars[i] = tokenOfOwnerByIndex(wallet, i);\r\n    }\r\n\r\n    function getReadyCharacters(address wallet) public view returns(uint256[] memory chars) {\r\n        uint256[] memory owned = getCharactersOwnedBy(wallet);\r\n        uint256 ready = 0;\r\n        for(uint i = 0; i < owned.length; i++)\r\n            if(nftVars[owned[i]][NFTVAR_BUSY] == 0)\r\n                ready++;\r\n        chars = new uint[](ready);\r\n        for(uint i = 0; i < owned.length; i++)\r\n            if(nftVars[owned[i]][NFTVAR_BUSY] == 0)\r\n                chars[--ready] = owned[i];\r\n    }\r\n\r\n    function setNFTVars(uint256 id, uint256[] memory fields, uint256[] memory values) public restricted {\r\n        for(uint i = 0; i < fields.length; i++)\r\n            nftVars[id][fields[i]] = values[i];\r\n    }\r\n\r\n    function getNFTVars(uint256 id, uint256[] memory fields) public view returns(uint256[] memory values) {\r\n        values = new uint256[](fields.length);\r\n        for(uint i = 0; i < fields.length; i++)\r\n            values[i] = nftVars[id][fields[i]];\r\n    }\r\n\r\n    function _beforeTokenTransfer(address from, address to, uint256 tokenId) internal override {\r\n        require(nftVars[tokenId][NFTVAR_BUSY] == 0);\r\n        address[] memory users = new address[](2);\r\n        users[0] = from;\r\n        users[1] = to;\r\n        promos.setBits(users, BIT_FIRST_CHARACTER);\r\n    }\r\n\r\n    function safeTransferFrom(address from, address to, uint256 tokenId) override public {\r\n        if (ownerOf(tokenId) != from) { // if not owner, then probably garrison\r\n            garrison.transferFromGarrison(to, tokenId);\r\n        } else {\r\n            if (to != address(0) && to != address(0x000000000000000000000000000000000000dEaD) && !hasRole(NO_OWNED_LIMIT, to) && balanceOf(to) >= characterLimit) {\r\n                garrison.redirectToGarrison(to, tokenId);\r\n                super.safeTransferFrom(from, address(garrison), tokenId);\r\n            }\r\n            else {\r\n                super.safeTransferFrom(from, to, tokenId);\r\n            }\r\n        }\r\n    }\r\n\r\n    function setCharacterLimit(uint256 max) public restricted {\r\n        characterLimit = max;\r\n    }\r\n\r\n    function getNftVar(uint256 characterID, uint256 nftVar) public view returns(uint256) {\r\n        return nftVars[characterID][nftVar];\r\n    }\r\n    function setNftVar(uint256 characterID, uint256 nftVar, uint256 value) public restricted {\r\n        nftVars[characterID][nftVar] = value;\r\n    }\r\n\r\n    function setBaseURI(string memory baseUri) public restricted {\r\n        _setBaseURI(baseUri);\r\n    }\r\n}\r\n",
  "sourcePath": "K:\\\\cryptoblades1\\cryptoblades\\contracts\\characters.sol",
  "compiler": {
    "name": "solc",
    "version": "0.6.5+commit.f956cc89.Emscripten.clang"
  },
  "schemaVersion": "3.4.5",
  "updatedAt": "2022-09-25T08:09:41.171Z",
  "networkType": "ethereum",
  "devdoc": {
    "methods": {
      "approve(address,uint256)": {
        "details": "See {IERC721-approve}."
      },
      "balanceOf(address)": {
        "details": "See {IERC721-balanceOf}."
      },
      "baseURI()": {
        "details": "Returns the base URI set via {_setBaseURI}. This will be automatically added as a prefix in {tokenURI} to each token's URI, or to the token ID if no specific URI is set for that token ID."
      },
      "getApproved(uint256)": {
        "details": "See {IERC721-getApproved}."
      },
      "getRoleAdmin(bytes32)": {
        "details": "Returns the admin role that controls `role`. See {grantRole} and {revokeRole}.     * To change a role's admin, use {_setRoleAdmin}."
      },
      "getRoleMember(bytes32,uint256)": {
        "details": "Returns one of the accounts that have `role`. `index` must be a value between 0 and {getRoleMemberCount}, non-inclusive.     * Role bearers are not sorted in any particular way, and their ordering may change at any point.     * WARNING: When using {getRoleMember} and {getRoleMemberCount}, make sure you perform all queries on the same block. See the following https://forum.openzeppelin.com/t/iterating-over-elements-on-enumerableset-in-openzeppelin-contracts/2296[forum post] for more information."
      },
      "getRoleMemberCount(bytes32)": {
        "details": "Returns the number of accounts that have `role`. Can be used together with {getRoleMember} to enumerate all bearers of a role."
      },
      "grantRole(bytes32,address)": {
        "details": "Grants `role` to `account`.     * If `account` had not been already granted `role`, emits a {RoleGranted} event.     * Requirements:     * - the caller must have ``role``'s admin role."
      },
      "hasRole(bytes32,address)": {
        "details": "Returns `true` if `account` has been granted `role`."
      },
      "isApprovedForAll(address,address)": {
        "details": "See {IERC721-isApprovedForAll}."
      },
      "name()": {
        "details": "See {IERC721Metadata-name}."
      },
      "ownerOf(uint256)": {
        "details": "See {IERC721-ownerOf}."
      },
      "renounceRole(bytes32,address)": {
        "details": "Revokes `role` from the calling account.     * Roles are often managed via {grantRole} and {revokeRole}: this function's purpose is to provide a mechanism for accounts to lose their privileges if they are compromised (such as when a trusted device is misplaced).     * If the calling account had been granted `role`, emits a {RoleRevoked} event.     * Requirements:     * - the caller must be `account`."
      },
      "revokeRole(bytes32,address)": {
        "details": "Revokes `role` from `account`.     * If `account` had been granted `role`, emits a {RoleRevoked} event.     * Requirements:     * - the caller must have ``role``'s admin role."
      },
      "safeTransferFrom(address,address,uint256,bytes)": {
        "details": "See {IERC721-safeTransferFrom}."
      },
      "setApprovalForAll(address,bool)": {
        "details": "See {IERC721-setApprovalForAll}."
      },
      "supportsInterface(bytes4)": {
        "details": "See {IERC165-supportsInterface}.     * Time complexity O(1), guaranteed to always use less than 30 000 gas."
      },
      "symbol()": {
        "details": "See {IERC721Metadata-symbol}."
      },
      "tokenByIndex(uint256)": {
        "details": "See {IERC721Enumerable-tokenByIndex}."
      },
      "tokenOfOwnerByIndex(address,uint256)": {
        "details": "See {IERC721Enumerable-tokenOfOwnerByIndex}."
      },
      "tokenURI(uint256)": {
        "details": "See {IERC721Metadata-tokenURI}."
      },
      "totalSupply()": {
        "details": "See {IERC721Enumerable-totalSupply}."
      },
      "transferFrom(address,address,uint256)": {
        "details": "See {IERC721-transferFrom}."
      }
    }
  },
  "userdoc": {
    "methods": {}
  }
}