{
  "contractName": "CharacterRenameTagConsumables",
  "abi": [
    {
      "anonymous": false,
      "inputs": [
        {
          "indexed": true,
          "internalType": "address",
          "name": "owner",
          "type": "address"
        },
        {
          "indexed": true,
          "internalType": "uint256",
          "name": "character",
          "type": "uint256"
        }
      ],
      "name": "CharacterRenamed",
      "type": "event"
    },
    {
      "anonymous": false,
      "inputs": [
        {
          "indexed": true,
          "internalType": "address",
          "name": "owner",
          "type": "address"
        },
        {
          "indexed": false,
          "internalType": "uint32",
          "name": "amount",
          "type": "uint32"
        }
      ],
      "name": "ConsumableGiven",
      "type": "event"
    },
    {
      "anonymous": false,
      "inputs": [
        {
          "indexed": true,
          "internalType": "bytes32",
          "name": "role",
          "type": "bytes32"
        },
        {
          "indexed": true,
          "internalType": "bytes32",
          "name": "previousAdminRole",
          "type": "bytes32"
        },
        {
          "indexed": true,
          "internalType": "bytes32",
          "name": "newAdminRole",
          "type": "bytes32"
        }
      ],
      "name": "RoleAdminChanged",
      "type": "event"
    },
    {
      "anonymous": false,
      "inputs": [
        {
          "indexed": true,
          "internalType": "bytes32",
          "name": "role",
          "type": "bytes32"
        },
        {
          "indexed": true,
          "internalType": "address",
          "name": "account",
          "type": "address"
        },
        {
          "indexed": true,
          "internalType": "address",
          "name": "sender",
          "type": "address"
        }
      ],
      "name": "RoleGranted",
      "type": "event"
    },
    {
      "anonymous": false,
      "inputs": [
        {
          "indexed": true,
          "internalType": "bytes32",
          "name": "role",
          "type": "bytes32"
        },
        {
          "indexed": true,
          "internalType": "address",
          "name": "account",
          "type": "address"
        },
        {
          "indexed": true,
          "internalType": "address",
          "name": "sender",
          "type": "address"
        }
      ],
      "name": "RoleRevoked",
      "type": "event"
    },
    {
      "inputs": [],
      "name": "DEFAULT_ADMIN_ROLE",
      "outputs": [
        {
          "internalType": "bytes32",
          "name": "",
          "type": "bytes32"
        }
      ],
      "stateMutability": "view",
      "type": "function",
      "constant": true
    },
    {
      "inputs": [],
      "name": "GAME_ADMIN",
      "outputs": [
        {
          "internalType": "bytes32",
          "name": "",
          "type": "bytes32"
        }
      ],
      "stateMutability": "view",
      "type": "function",
      "constant": true
    },
    {
      "inputs": [],
      "name": "getItemCount",
      "outputs": [
        {
          "internalType": "uint32",
          "name": "",
          "type": "uint32"
        }
      ],
      "stateMutability": "view",
      "type": "function",
      "constant": true
    },
    {
      "inputs": [
        {
          "internalType": "bytes32",
          "name": "role",
          "type": "bytes32"
        }
      ],
      "name": "getRoleAdmin",
      "outputs": [
        {
          "internalType": "bytes32",
          "name": "",
          "type": "bytes32"
        }
      ],
      "stateMutability": "view",
      "type": "function",
      "constant": true
    },
    {
      "inputs": [
        {
          "internalType": "bytes32",
          "name": "role",
          "type": "bytes32"
        },
        {
          "internalType": "uint256",
          "name": "index",
          "type": "uint256"
        }
      ],
      "name": "getRoleMember",
      "outputs": [
        {
          "internalType": "address",
          "name": "",
          "type": "address"
        }
      ],
      "stateMutability": "view",
      "type": "function",
      "constant": true
    },
    {
      "inputs": [
        {
          "internalType": "bytes32",
          "name": "role",
          "type": "bytes32"
        }
      ],
      "name": "getRoleMemberCount",
      "outputs": [
        {
          "internalType": "uint256",
          "name": "",
          "type": "uint256"
        }
      ],
      "stateMutability": "view",
      "type": "function",
      "constant": true
    },
    {
      "inputs": [
        {
          "internalType": "address",
          "name": "buyer",
          "type": "address"
        },
        {
          "internalType": "uint32",
          "name": "amount",
          "type": "uint32"
        }
      ],
      "name": "giveItem",
      "outputs": [],
      "stateMutability": "nonpayable",
      "type": "function"
    },
    {
      "inputs": [
        {
          "internalType": "address",
          "name": "receiver",
          "type": "address"
        },
        {
          "internalType": "uint32",
          "name": "amount",
          "type": "uint32"
        }
      ],
      "name": "giveItemByAdmin",
      "outputs": [],
      "stateMutability": "nonpayable",
      "type": "function"
    },
    {
      "inputs": [
        {
          "internalType": "bytes32",
          "name": "role",
          "type": "bytes32"
        },
        {
          "internalType": "address",
          "name": "account",
          "type": "address"
        }
      ],
      "name": "grantRole",
      "outputs": [],
      "stateMutability": "nonpayable",
      "type": "function"
    },
    {
      "inputs": [
        {
          "internalType": "bytes32",
          "name": "role",
          "type": "bytes32"
        },
        {
          "internalType": "address",
          "name": "account",
          "type": "address"
        }
      ],
      "name": "hasRole",
      "outputs": [
        {
          "internalType": "bool",
          "name": "",
          "type": "bool"
        }
      ],
      "stateMutability": "view",
      "type": "function",
      "constant": true
    },
    {
      "inputs": [],
      "name": "itemEnabled",
      "outputs": [
        {
          "internalType": "bool",
          "name": "",
          "type": "bool"
        }
      ],
      "stateMutability": "view",
      "type": "function",
      "constant": true
    },
    {
      "inputs": [
        {
          "internalType": "address",
          "name": "",
          "type": "address"
        }
      ],
      "name": "owned",
      "outputs": [
        {
          "internalType": "uint32",
          "name": "",
          "type": "uint32"
        }
      ],
      "stateMutability": "view",
      "type": "function",
      "constant": true
    },
    {
      "inputs": [
        {
          "internalType": "uint256",
          "name": "",
          "type": "uint256"
        }
      ],
      "name": "renames",
      "outputs": [
        {
          "internalType": "string",
          "name": "",
          "type": "string"
        }
      ],
      "stateMutability": "view",
      "type": "function",
      "constant": true
    },
    {
      "inputs": [
        {
          "internalType": "bytes32",
          "name": "role",
          "type": "bytes32"
        },
        {
          "internalType": "address",
          "name": "account",
          "type": "address"
        }
      ],
      "name": "renounceRole",
      "outputs": [],
      "stateMutability": "nonpayable",
      "type": "function"
    },
    {
      "inputs": [
        {
          "internalType": "bytes32",
          "name": "role",
          "type": "bytes32"
        },
        {
          "internalType": "address",
          "name": "account",
          "type": "address"
        }
      ],
      "name": "revokeRole",
      "outputs": [],
      "stateMutability": "nonpayable",
      "type": "function"
    },
    {
      "inputs": [
        {
          "internalType": "address",
          "name": "target",
          "type": "address"
        },
        {
          "internalType": "uint32",
          "name": "amount",
          "type": "uint32"
        }
      ],
      "name": "takeItemByAdmin",
      "outputs": [],
      "stateMutability": "nonpayable",
      "type": "function"
    },
    {
      "inputs": [
        {
          "internalType": "bool",
          "name": "canUse",
          "type": "bool"
        }
      ],
      "name": "toggleItemCanUse",
      "outputs": [],
      "stateMutability": "nonpayable",
      "type": "function"
    },
    {
      "inputs": [],
      "name": "initialize",
      "outputs": [],
      "stateMutability": "nonpayable",
      "type": "function"
    },
    {
      "inputs": [
        {
          "internalType": "contract Characters",
          "name": "_characters",
          "type": "address"
        }
      ],
      "name": "initialize",
      "outputs": [],
      "stateMutability": "nonpayable",
      "type": "function"
    },
    {
      "inputs": [
        {
          "internalType": "uint256",
          "name": "characterId",
          "type": "uint256"
        },
        {
          "internalType": "string",
          "name": "newName",
          "type": "string"
        }
      ],
      "name": "renameCharacter",
      "outputs": [],
      "stateMutability": "nonpayable",
      "type": "function"
    },
    {
      "inputs": [
        {
          "internalType": "uint256",
          "name": "characterId",
          "type": "uint256"
        }
      ],
      "name": "getCharacterRename",
      "outputs": [
        {
          "internalType": "string",
          "name": "",
          "type": "string"
        }
      ],
      "stateMutability": "view",
      "type": "function",
      "constant": true
    },
    {
      "inputs": [
        {
          "internalType": "uint8",
          "name": "newMinSize",
          "type": "uint8"
        }
      ],
      "name": "setMinSize",
      "outputs": [],
      "stateMutability": "nonpayable",
      "type": "function"
    },
    {
      "inputs": [
        {
          "internalType": "uint8",
          "name": "newMaxSize",
          "type": "uint8"
        }
      ],
      "name": "setMaxSize",
      "outputs": [],
      "stateMutability": "nonpayable",
      "type": "function"
    },
    {
      "inputs": [],
      "name": "getMinSize",
      "outputs": [
        {
          "internalType": "uint8",
          "name": "",
          "type": "uint8"
        }
      ],
      "stateMutability": "view",
      "type": "function",
      "constant": true
    },
    {
      "inputs": [],
      "name": "getMaxSize",
      "outputs": [
        {
          "internalType": "uint8",
          "name": "",
          "type": "uint8"
        }
      ],
      "stateMutability": "view",
      "type": "function",
      "constant": true
    },
    {
      "inputs": [
        {
          "internalType": "uint256",
          "name": "characterId",
          "type": "uint256"
        },
        {
          "internalType": "string",
          "name": "newName",
          "type": "string"
        }
      ],
      "name": "setName",
      "outputs": [],
      "stateMutability": "nonpayable",
      "type": "function"
    }
  ],
  "bytecode": "0x608060405234801561001057600080fd5b50611772806100206000396000f3fe608060405234801561001057600080fd5b506004361061018e5760003560e01c806391d14854116100de578063ca15c87311610097578063ec36f84911610071578063ec36f849146105a1578063f9e54cb4146105c0578063fe55932a146105c8578063ff5e1d72146106755761018e565b8063ca15c87314610550578063d07041e01461056d578063d547741f146105755761018e565b806391d14854146103dd578063a217fddf1461041d578063b1ab931714610425578063b5ffc8191461044b578063c4d66de8146104f8578063c59284ee1461051e5761018e565b80634d3751281161014b57806363e1d57c1161012557806363e1d57c146103575780637749cf23146103755780638129fc1c146103965780639010d07c1461039e5761018e565b80634d375128146103005780635504d3d21461033257806362cbcec11461033a5761018e565b8063248a9ca3146101935780632f2ff15d146101c25780632ff6a044146101f057806336568abe14610222578063371566571461024e5780634b725bbe146102e0575b600080fd5b6101b0600480360360208110156101a957600080fd5b5035610695565b60408051918252519081900360200190f35b6101ee600480360360408110156101d857600080fd5b50803590602001356001600160a01b03166106aa565b005b6101ee6004803603604081101561020657600080fd5b5080356001600160a01b0316906020013563ffffffff16610716565b6101ee6004803603604081101561023857600080fd5b50803590602001356001600160a01b0316610796565b61026b6004803603602081101561026457600080fd5b50356107f7565b6040805160208082528351818301528351919283929083019185019080838360005b838110156102a557818101518382015260200161028d565b50505050905090810190601f1680156102d25780820380516001836020036101000a031916815260200191505b509250505060405180910390f35b6101ee600480360360208110156102f657600080fd5b503560ff16610898565b6101ee6004803603604081101561031657600080fd5b5080356001600160a01b0316906020013563ffffffff16610947565b6101b06109bc565b61026b6004803603602081101561035057600080fd5b50356109de565b61035f610a79565b6040805160ff9092168252519081900360200190f35b61037d610a8a565b6040805163ffffffff9092168252519081900360200190f35b6101ee610aa3565b6103c1600480360360408110156103b457600080fd5b5080359060200135610b65565b604080516001600160a01b039092168252519081900360200190f35b610409600480360360408110156103f357600080fd5b50803590602001356001600160a01b0316610b8c565b604080519115158252519081900360200190f35b6101b0610baa565b61037d6004803603602081101561043b57600080fd5b50356001600160a01b0316610baf565b6101ee6004803603604081101561046157600080fd5b8135919081019060408101602082013564010000000081111561048357600080fd5b82018360208201111561049557600080fd5b803590602001918460018302840111640100000000831117156104b757600080fd5b91908080601f016020809104026020016040519081016040528093929190818152602001838380828437600092019190915250929550610bc7945050505050565b6101ee6004803603602081101561050e57600080fd5b50356001600160a01b0316610d67565b6101ee6004803603604081101561053457600080fd5b5080356001600160a01b0316906020013563ffffffff16610e62565b6101b06004803603602081101561056657600080fd5b5035610f4b565b61035f610f62565b6101ee6004803603604081101561058b57600080fd5b50803590602001356001600160a01b0316610f72565b6101ee600480360360208110156105b757600080fd5b50351515610fcb565b610409611026565b6101ee600480360360408110156105de57600080fd5b8135919081019060408101602082013564010000000081111561060057600080fd5b82018360208201111561061257600080fd5b8035906020019184600183028401116401000000008311171561063457600080fd5b91908080601f01602080910402602001604051908101604052809392919081815260200183838082843760009201919091525092955061102f945050505050565b6101ee6004803603602081101561068b57600080fd5b503560ff1661105b565b60009081526033602052604090206002015490565b6000828152603360205260409020600201546106cd906106c861110a565b610b8c565b6107085760405162461bcd60e51b815260040180806020018281038252602f815260200180611681602f913960400191505060405180910390fd5b610712828261110e565b5050565b610721600033610b8c565b61075e576040805162461bcd60e51b81526020600482015260096024820152682737ba1030b236b4b760b91b604482015290519081900360640190fd5b6001600160a01b03919091166000908152606560205260409020805463ffffffff19811663ffffffff91821690930116919091179055565b61079e61110a565b6001600160a01b0316816001600160a01b0316146107ed5760405162461bcd60e51b815260040180806020018281038252602f81526020018061170e602f913960400191505060405180910390fd5b610712828261117d565b60008181526067602090815260409182902080548351601f600260001961010060018616150201909316929092049182018490048402810184019094528084526060939283018282801561088c5780601f106108615761010080835404028352916020019161088c565b820191906000526020600020905b81548152906001019060200180831161086f57829003601f168201915b50505050509050919050565b6108a3600033610b8c565b6108e0576040805162461bcd60e51b81526020600482015260096024820152682737ba1030b236b4b760b91b604482015290519081900360640190fd5b60008160ff1611610927576040805162461bcd60e51b815260206004820152600c60248201526b696e76616c69642073697a6560a01b604482015290519081900360640190fd5b6066805460ff909216600160a81b0260ff60a81b19909216919091179055565b61094f6111ec565b6001600160a01b038216600081815260656020908152604091829020805463ffffffff19811663ffffffff91821687018216179091558251908516815291517f90a3437fc374e1839a62ff1148f9bdb4f02dc5e02e8393ff6cbc68b1fcec49a19281900390910190a25050565b604080516923a0a6a2afa0a226a4a760b11b8152905190819003600a01902081565b60676020908152600091825260409182902080548351601f600260001961010060018616150201909316929092049182018490048402810184019094528084529091830182828015610a715780601f10610a4657610100808354040283529160200191610a71565b820191906000526020600020905b815481529060010190602001808311610a5457829003601f168201915b505050505081565b606654600160b01b900460ff165b90565b3360009081526065602052604090205463ffffffff1690565b600054610100900460ff1680610abc5750610abc611259565b80610aca575060005460ff16155b610b055760405162461bcd60e51b815260040180806020018281038252602e8152602001806116e0602e913960400191505060405180910390fd5b600054610100900460ff16158015610b30576000805460ff1961ff0019909116610100171660011790555b610b3861126a565b610b43600033610708565b6066805460ff191660011790558015610b62576000805461ff00191690555b50565b6000828152603360205260408120610b83908363ffffffff61130b16565b90505b92915050565b6000828152603360205260408120610b83908363ffffffff61131716565b600081565b60656020526000908152604090205463ffffffff1681565b6066548151600160a81b90910460ff1611801590610bf357506066548151600160b01b90910460ff1610155b610c35576040805162461bcd60e51b815260206004820152600e60248201526d1cda5e99481b9bdd081d985b1a5960921b604482015290519081900360640190fd5b606654604080516331a9108f60e11b8152600481018590529051339261010090046001600160a01b031691636352211e916024808301926020929190829003018186803b158015610c8557600080fd5b505afa158015610c99573d6000803e3d6000fd5b505050506040513d6020811015610caf57600080fd5b50516001600160a01b031614610d0c576040805162461bcd60e51b815260206004820152601760248201527f4e6f742074686520636861726163746572206f776e6572000000000000000000604482015290519081900360640190fd5b610d16600161132c565b60008281526067602090815260409091208251610d35928401906115c6565b50604051829033907f84ad7ba88a515d747eb175f200fec7791ff2f38ac63084d4695292f02a0aef7f90600090a35050565b600054610100900460ff1680610d805750610d80611259565b80610d8e575060005460ff16155b610dc95760405162461bcd60e51b815260040180806020018281038252602e8152602001806116e0602e913960400191505060405180910390fd5b600054610100900460ff16158015610df4576000805460ff1961ff0019909116610100171660011790555b610dfc61126a565b610e07600033610708565b60668054600160a81b600160ff1990921691909117610100600160a81b0319166101006001600160a01b038616021760ff60a81b19161760ff60b01b1916600360b31b1790558015610712576000805461ff00191690555050565b610e6d600033610b8c565b610eaa576040805162461bcd60e51b81526020600482015260096024820152682737ba1030b236b4b760b91b604482015290519081900360640190fd5b6001600160a01b03821660009081526065602052604090205463ffffffff80831691161015610f12576040805162461bcd60e51b815260206004820152600f60248201526e4e6f7420656e6f756768206974656d60881b604482015290519081900360640190fd5b6001600160a01b03919091166000908152606560205260409020805463ffffffff19811663ffffffff9182169390930316919091179055565b6000818152603360205260408120610b86906113fb565b606654600160a81b900460ff1690565b600082815260336020526040902060020154610f90906106c861110a565b6107ed5760405162461bcd60e51b81526004018080602001828103825260308152602001806116b06030913960400191505060405180910390fd5b610fd6600033610b8c565b611013576040805162461bcd60e51b81526020600482015260096024820152682737ba1030b236b4b760b91b604482015290519081900360640190fd5b6066805460ff1916911515919091179055565b60665460ff1690565b6110376111ec565b60008281526067602090815260409091208251611056928401906115c6565b505050565b611066600033610b8c565b6110a3576040805162461bcd60e51b81526020600482015260096024820152682737ba1030b236b4b760b91b604482015290519081900360640190fd5b60008160ff16116110ea576040805162461bcd60e51b815260206004820152600c60248201526b696e76616c69642073697a6560a01b604482015290519081900360640190fd5b6066805460ff909216600160b01b0260ff60b01b19909216919091179055565b3390565b600082815260336020526040902061112c908263ffffffff61140616565b156107125761113961110a565b6001600160a01b0316816001600160a01b0316837f2f8788117e7eff1d82e926ec794901d17c78024a50270940304540a733656f0d60405160405180910390a45050565b600082815260336020526040902061119b908263ffffffff61141b16565b15610712576111a861110a565b6001600160a01b0316816001600160a01b0316837ff6391f5c32d9c69d2a47ea670b442974b53935d1edc7fd64eb21e047a839171b60405160405180910390a45050565b604080516923a0a6a2afa0a226a4a760b11b8152905190819003600a0190206112159033610b8c565b611257576040805162461bcd60e51b815260206004820152600e60248201526d2737ba1033b0b6b29030b236b4b760911b604482015290519081900360640190fd5b565b600061126430611430565b15905090565b600054610100900460ff16806112835750611283611259565b80611291575060005460ff16155b6112cc5760405162461bcd60e51b815260040180806020018281038252602e8152602001806116e0602e913960400191505060405180910390fd5b600054610100900460ff161580156112f7576000805460ff1961ff0019909116610100171660011790555b8015610b62576000805461ff001916905550565b6000610b838383611436565b6000610b83836001600160a01b03841661149a565b33600090815260656020526040902054819063ffffffff80831691161015611385576040805162461bcd60e51b81526020600482015260076024820152664e6f206974656d60c81b604482015290519081900360640190fd5b60665460ff166113cc576040805162461bcd60e51b815260206004820152600d60248201526c125d195b48191a5cd8589b1959609a1b604482015290519081900360640190fd5b50336000908152606560205260409020805463ffffffff19811663ffffffff9182169390930316919091179055565b6000610b86826114b2565b6000610b83836001600160a01b0384166114b6565b6000610b83836001600160a01b038416611500565b3b151590565b815460009082106114785760405162461bcd60e51b815260040180806020018281038252602281526020018061165f6022913960400191505060405180910390fd5b82600001828154811061148757fe5b9060005260206000200154905092915050565b60009081526001919091016020526040902054151590565b5490565b60006114c2838361149a565b6114f857508154600181810184556000848152602080822090930184905584548482528286019093526040902091909155610b86565b506000610b86565b600081815260018301602052604081205480156115bc578354600019808301919081019060009087908390811061153357fe5b906000526020600020015490508087600001848154811061155057fe5b60009182526020808320909101929092558281526001898101909252604090209084019055865487908061158057fe5b60019003818190600052602060002001600090559055866001016000878152602001908152602001600020600090556001945050505050610b86565b6000915050610b86565b828054600181600116156101000203166002900490600052602060002090601f016020900481019282601f1061160757805160ff1916838001178555611634565b82800160010185558215611634579182015b82811115611634578251825591602001919060010190611619565b50611640929150611644565b5090565b610a8791905b80821115611640576000815560010161164a56fe456e756d657261626c655365743a20696e646578206f7574206f6620626f756e6473416363657373436f6e74726f6c3a2073656e646572206d75737420626520616e2061646d696e20746f206772616e74416363657373436f6e74726f6c3a2073656e646572206d75737420626520616e2061646d696e20746f207265766f6b65496e697469616c697a61626c653a20636f6e747261637420697320616c726561647920696e697469616c697a6564416363657373436f6e74726f6c3a2063616e206f6e6c792072656e6f756e636520726f6c657320666f722073656c66a264697066735822122047e75e44fa61528088f084b931bf942d938e30abb81b890e07886417978e8b2464736f6c63430006050033",
  "immutableReferences": {},
  "source": "pragma solidity ^0.6.5;\r\n\r\nimport \"./Consumables.sol\";\r\nimport \"./characters.sol\";\r\n\r\ncontract CharacterRenameTagConsumables is Consumables {\r\n\r\n    Characters characters;\r\n\r\n    uint8 private _minSize;\r\n    uint8 private _maxSize;\r\n\r\n    mapping(uint256 => string) public renames;\r\n\r\n    event CharacterRenamed(address indexed owner, uint256 indexed character);\r\n\r\n    function initialize(Characters _characters)\r\n        public\r\n        initializer\r\n    {\r\n        __AccessControl_init_unchained();\r\n\r\n        _setupRole(DEFAULT_ADMIN_ROLE, msg.sender);\r\n\r\n        _enabled = true;\r\n\r\n        characters = _characters;\r\n        _minSize = 1;\r\n        _maxSize = 24;\r\n    }\r\n\r\n    function renameCharacter(uint256 characterId, string memory newName) public {\r\n        require(bytes(newName).length >= _minSize && bytes(newName).length <= _maxSize, 'size not valid');\r\n        require(characters.ownerOf(characterId) == msg.sender, \"Not the character owner\");\r\n        consumeItem(1);\r\n        renames[characterId] = newName;\r\n        emit CharacterRenamed(msg.sender, characterId);\r\n    }\r\n\r\n    function getCharacterRename(uint256 characterId) public view returns (string memory) {\r\n        return renames[characterId];\r\n    }\r\n\r\n    function setMinSize(uint8 newMinSize) external isAdmin {\r\n        require(newMinSize > 0, 'invalid size');\r\n        _minSize = newMinSize;\r\n    }\r\n\r\n    function setMaxSize(uint8 newMaxSize) external isAdmin {\r\n        require(newMaxSize > 0, 'invalid size');\r\n        _maxSize = newMaxSize;\r\n    }\r\n\r\n    function getMinSize() public view returns (uint8){\r\n        return _minSize;\r\n    }\r\n\r\n    function getMaxSize() public view returns (uint8){\r\n        return _maxSize;\r\n    }\r\n\r\n    function setName(uint256 characterId, string memory newName) public restricted {\r\n        renames[characterId] = newName;\r\n    }\r\n}",
  "sourcePath": "K:\\\\cryptoblades1\\cryptoblades\\contracts\\CharacterRenameTagConsumables.sol",
  "compiler": {
    "name": "solc",
    "version": "0.6.5+commit.f956cc89.Emscripten.clang"
  },
  "schemaVersion": "3.4.5",
  "updatedAt": "2022-09-25T08:06:25.803Z",
  "networkType": "ethereum",
  "devdoc": {
    "methods": {
      "getRoleAdmin(bytes32)": {
        "details": "Returns the admin role that controls `role`. See {grantRole} and {revokeRole}.     * To change a role's admin, use {_setRoleAdmin}."
      },
      "getRoleMember(bytes32,uint256)": {
        "details": "Returns one of the accounts that have `role`. `index` must be a value between 0 and {getRoleMemberCount}, non-inclusive.     * Role bearers are not sorted in any particular way, and their ordering may change at any point.     * WARNING: When using {getRoleMember} and {getRoleMemberCount}, make sure you perform all queries on the same block. See the following https://forum.openzeppelin.com/t/iterating-over-elements-on-enumerableset-in-openzeppelin-contracts/2296[forum post] for more information."
      },
      "getRoleMemberCount(bytes32)": {
        "details": "Returns the number of accounts that have `role`. Can be used together with {getRoleMember} to enumerate all bearers of a role."
      },
      "grantRole(bytes32,address)": {
        "details": "Grants `role` to `account`.     * If `account` had not been already granted `role`, emits a {RoleGranted} event.     * Requirements:     * - the caller must have ``role``'s admin role."
      },
      "hasRole(bytes32,address)": {
        "details": "Returns `true` if `account` has been granted `role`."
      },
      "renounceRole(bytes32,address)": {
        "details": "Revokes `role` from the calling account.     * Roles are often managed via {grantRole} and {revokeRole}: this function's purpose is to provide a mechanism for accounts to lose their privileges if they are compromised (such as when a trusted device is misplaced).     * If the calling account had been granted `role`, emits a {RoleRevoked} event.     * Requirements:     * - the caller must be `account`."
      },
      "revokeRole(bytes32,address)": {
        "details": "Revokes `role` from `account`.     * If `account` had been granted `role`, emits a {RoleRevoked} event.     * Requirements:     * - the caller must have ``role``'s admin role."
      }
    }
  },
  "userdoc": {
    "methods": {}
  }
}