{
  "contractName": "DummyRandoms",
  "abi": [
    {
      "anonymous": false,
      "inputs": [
        {
          "indexed": true,
          "internalType": "address",
          "name": "previousOwner",
          "type": "address"
        },
        {
          "indexed": true,
          "internalType": "address",
          "name": "newOwner",
          "type": "address"
        }
      ],
      "name": "OwnershipTransferred",
      "type": "event"
    },
    {
      "inputs": [],
      "name": "main",
      "outputs": [
        {
          "internalType": "address",
          "name": "",
          "type": "address"
        }
      ],
      "stateMutability": "view",
      "type": "function",
      "constant": true
    },
    {
      "inputs": [],
      "name": "owner",
      "outputs": [
        {
          "internalType": "address",
          "name": "",
          "type": "address"
        }
      ],
      "stateMutability": "view",
      "type": "function",
      "constant": true
    },
    {
      "inputs": [],
      "name": "renounceOwnership",
      "outputs": [],
      "stateMutability": "nonpayable",
      "type": "function"
    },
    {
      "inputs": [
        {
          "internalType": "address",
          "name": "newMain",
          "type": "address"
        }
      ],
      "name": "setMain",
      "outputs": [],
      "stateMutability": "nonpayable",
      "type": "function"
    },
    {
      "inputs": [
        {
          "internalType": "address",
          "name": "newOwner",
          "type": "address"
        }
      ],
      "name": "transferOwnership",
      "outputs": [],
      "stateMutability": "nonpayable",
      "type": "function"
    },
    {
      "inputs": [],
      "name": "initialize",
      "outputs": [],
      "stateMutability": "nonpayable",
      "type": "function"
    },
    {
      "inputs": [
        {
          "internalType": "address",
          "name": "user",
          "type": "address"
        }
      ],
      "name": "getRandomSeed",
      "outputs": [
        {
          "internalType": "uint256",
          "name": "",
          "type": "uint256"
        }
      ],
      "stateMutability": "view",
      "type": "function",
      "constant": true
    },
    {
      "inputs": [
        {
          "internalType": "address",
          "name": "user",
          "type": "address"
        },
        {
          "internalType": "bytes32",
          "name": "hash",
          "type": "bytes32"
        }
      ],
      "name": "getRandomSeedUsingHash",
      "outputs": [
        {
          "internalType": "uint256",
          "name": "",
          "type": "uint256"
        }
      ],
      "stateMutability": "view",
      "type": "function",
      "constant": true
    },
    {
      "inputs": [
        {
          "internalType": "uint256",
          "name": "randomValue",
          "type": "uint256"
        }
      ],
      "name": "setRandomNumberForTestingPurposes",
      "outputs": [],
      "stateMutability": "nonpayable",
      "type": "function"
    }
  ],
  "bytecode": "0x608060405234801561001057600080fd5b506109ab806100206000396000f3fe608060405234801561001057600080fd5b50600436106100935760003560e01c8063801161b011610066578063801161b0146101235780638129fc1c146101495780638da5cb5b14610151578063dffeadd014610175578063f2fde38b1461017d57610093565b80630d2a0b3414610098578063319b22a7146100b75780633883d854146100f5578063715018a61461011b575b600080fd5b6100b5600480360360208110156100ae57600080fd5b50356101a3565b005b6100e3600480360360408110156100cd57600080fd5b506001600160a01b0381351690602001356101a8565b60408051918252519081900360200190f35b6100e36004803603602081101561010b57600080fd5b50356001600160a01b0316610201565b6100b5610251565b6100b56004803603602081101561013957600080fd5b50356001600160a01b031661030f565b6100b56103a5565b61015961044f565b604080516001600160a01b039092168252519081900360200190f35b61015961045e565b6100b56004803603602081101561019357600080fd5b50356001600160a01b031661046d565b606955565b6069546040805160609490941b6bffffffffffffffffffffffff19166020808601919091526034850192909252605484019290925242607480850191909152825180850390910181526094909301909152815191012090565b6069546040805160609390931b6bffffffffffffffffffffffff19166020808501919091526034840192909252426054808501919091528151808503909101815260749093019052815191012090565b610259610582565b6001600160a01b031661026a61044f565b6001600160a01b0316146102c5576040805162461bcd60e51b815260206004820181905260248201527f4f776e61626c653a2063616c6c6572206973206e6f7420746865206f776e6572604482015290519081900360640190fd5b6033546040516000916001600160a01b0316907f8be0079c531659141344cd1fd0a4f28419497f9722a3daafe3b4186f6b6457e0908390a3603380546001600160a01b0319169055565b610317610582565b6001600160a01b031661032861044f565b6001600160a01b031614610383576040805162461bcd60e51b815260206004820181905260248201527f4f776e61626c653a2063616c6c6572206973206e6f7420746865206f776e6572604482015290519081900360640190fd5b606580546001600160a01b0319166001600160a01b0392909216919091179055565b600054610100900460ff16806103be57506103be610586565b806103cc575060005460ff16155b6104075760405162461bcd60e51b815260040180806020018281038252602e815260200180610948602e913960400191505060405180910390fd5b600054610100900460ff16158015610432576000805460ff1961ff0019909116610100171660011790555b61043a610597565b801561044c576000805461ff00191690555b50565b6033546001600160a01b031690565b6065546001600160a01b031681565b610475610582565b6001600160a01b031661048661044f565b6001600160a01b0316146104e1576040805162461bcd60e51b815260206004820181905260248201527f4f776e61626c653a2063616c6c6572206973206e6f7420746865206f776e6572604482015290519081900360640190fd5b6001600160a01b0381166105265760405162461bcd60e51b81526004018080602001828103825260268152602001806109226026913960400191505060405180910390fd5b6033546040516001600160a01b038084169216907f8be0079c531659141344cd1fd0a4f28419497f9722a3daafe3b4186f6b6457e090600090a3603380546001600160a01b0319166001600160a01b0392909216919091179055565b3390565b600061059130610634565b15905090565b600054610100900460ff16806105b057506105b0610586565b806105be575060005460ff16155b6105f95760405162461bcd60e51b815260040180806020018281038252602e815260200180610948602e913960400191505060405180910390fd5b600054610100900460ff16158015610624576000805460ff1961ff0019909116610100171660011790555b61062c61063a565b61043a6106d7565b3b151590565b600054610100900460ff16806106535750610653610586565b80610661575060005460ff16155b61069c5760405162461bcd60e51b815260040180806020018281038252602e815260200180610948602e913960400191505060405180910390fd5b600054610100900460ff161580156106c7576000805460ff1961ff0019909116610100171660011790555b6106cf610788565b61043a610828565b600054610100900460ff16806106f057506106f0610586565b806106fe575060005460ff16155b6107395760405162461bcd60e51b815260040180806020018281038252602e815260200180610948602e913960400191505060405180910390fd5b600054610100900460ff16158015610764576000805460ff1961ff0019909116610100171660011790555b606580546001600160a01b0319169055801561044c576000805461ff001916905550565b600054610100900460ff16806107a157506107a1610586565b806107af575060005460ff16155b6107ea5760405162461bcd60e51b815260040180806020018281038252602e815260200180610948602e913960400191505060405180910390fd5b600054610100900460ff1615801561043a576000805460ff1961ff001990911661010017166001179055801561044c576000805461ff001916905550565b600054610100900460ff16806108415750610841610586565b8061084f575060005460ff16155b61088a5760405162461bcd60e51b815260040180806020018281038252602e815260200180610948602e913960400191505060405180910390fd5b600054610100900460ff161580156108b5576000805460ff1961ff0019909116610100171660011790555b60006108bf610582565b603380546001600160a01b0319166001600160a01b038316908117909155604051919250906000907f8be0079c531659141344cd1fd0a4f28419497f9722a3daafe3b4186f6b6457e0908290a350801561044c576000805461ff00191690555056fe4f776e61626c653a206e6577206f776e657220697320746865207a65726f2061646472657373496e697469616c697a61626c653a20636f6e747261637420697320616c726561647920696e697469616c697a6564a264697066735822122009689af6a8e112e9b5863b9394896a48f9f3035d19c080cf0aeddd369b7e1a2664736f6c63430006050033",
  "immutableReferences": {},
  "source": "pragma solidity ^0.6.5;\r\n\r\nimport \"./interfaces/IRandoms.sol\";\r\nimport \"./HasMain.sol\";\r\n\r\ncontract DummyRandoms is IRandoms, HasMain {\r\n    // UNUSED; KEPT FOR UPGRADEABILITY PROXY COMPATIBILITY\r\n    mapping(address => bool) private alreadyRequestedTestingFlag;\r\n    // UNUSED; KEPT FOR UPGRADEABILITY PROXY COMPATIBILITY\r\n    mapping(address => bool) private seedAvailable;\r\n    // UNUSED; KEPT FOR UPGRADEABILITY PROXY COMPATIBILITY\r\n    mapping(address => uint256) private seeds;\r\n\r\n    uint256 private seed;\r\n\r\n    function initialize() public initializer {\r\n        __HasMain_init();\r\n    }\r\n\r\n    // Views\r\n    function getRandomSeed(address user) external view override returns (uint256) {\r\n        return uint256(keccak256(abi.encodePacked(user, seed, block.timestamp)));\r\n    }\r\n\r\n    function getRandomSeedUsingHash(address user, bytes32 hash) external view override returns (uint256) {\r\n        return uint256(keccak256(abi.encodePacked(user, seed, hash, block.timestamp)));\r\n    }\r\n\r\n    // Mutative\r\n    function setRandomNumberForTestingPurposes(uint256 randomValue) external {\r\n        seed = randomValue;\r\n    }\r\n}\r\n",
  "sourcePath": "K:\\下载\\cryptoblades1\\cryptoblades\\contracts\\DummyRandoms.sol",
  "compiler": {
    "name": "solc",
    "version": "0.6.5+commit.f956cc89.Emscripten.clang"
  },
  "schemaVersion": "3.4.5",
  "updatedAt": "2022-09-25T08:08:01.594Z",
  "networkType": "ethereum",
  "devdoc": {
    "methods": {
      "owner()": {
        "details": "Returns the address of the current owner."
      },
      "renounceOwnership()": {
        "details": "Leaves the contract without owner. It will not be possible to call `onlyOwner` functions anymore. Can only be called by the current owner.     * NOTE: Renouncing ownership will leave the contract without an owner, thereby removing any functionality that is only available to the owner."
      },
      "transferOwnership(address)": {
        "details": "Transfers ownership of the contract to a new account (`newOwner`). Can only be called by the current owner."
      }
    }
  },
  "userdoc": {
    "methods": {}
  }
}