{
  "contractName": "Garrison",
  "abi": [
    {
      "anonymous": false,
      "inputs": [
        {
          "indexed": true,
          "internalType": "uint256",
          "name": "character",
          "type": "uint256"
        },
        {
          "indexed": true,
          "internalType": "address",
          "name": "minter",
          "type": "address"
        }
      ],
      "name": "CharacterReceived",
      "type": "event"
    },
    {
      "anonymous": false,
      "inputs": [
        {
          "indexed": true,
          "internalType": "bytes32",
          "name": "role",
          "type": "bytes32"
        },
        {
          "indexed": true,
          "internalType": "bytes32",
          "name": "previousAdminRole",
          "type": "bytes32"
        },
        {
          "indexed": true,
          "internalType": "bytes32",
          "name": "newAdminRole",
          "type": "bytes32"
        }
      ],
      "name": "RoleAdminChanged",
      "type": "event"
    },
    {
      "anonymous": false,
      "inputs": [
        {
          "indexed": true,
          "internalType": "bytes32",
          "name": "role",
          "type": "bytes32"
        },
        {
          "indexed": true,
          "internalType": "address",
          "name": "account",
          "type": "address"
        },
        {
          "indexed": true,
          "internalType": "address",
          "name": "sender",
          "type": "address"
        }
      ],
      "name": "RoleGranted",
      "type": "event"
    },
    {
      "anonymous": false,
      "inputs": [
        {
          "indexed": true,
          "internalType": "bytes32",
          "name": "role",
          "type": "bytes32"
        },
        {
          "indexed": true,
          "internalType": "address",
          "name": "account",
          "type": "address"
        },
        {
          "indexed": true,
          "internalType": "address",
          "name": "sender",
          "type": "address"
        }
      ],
      "name": "RoleRevoked",
      "type": "event"
    },
    {
      "inputs": [],
      "name": "DEFAULT_ADMIN_ROLE",
      "outputs": [
        {
          "internalType": "bytes32",
          "name": "",
          "type": "bytes32"
        }
      ],
      "stateMutability": "view",
      "type": "function",
      "constant": true
    },
    {
      "inputs": [],
      "name": "GAME_ADMIN",
      "outputs": [
        {
          "internalType": "bytes32",
          "name": "",
          "type": "bytes32"
        }
      ],
      "stateMutability": "view",
      "type": "function",
      "constant": true
    },
    {
      "inputs": [
        {
          "internalType": "uint256",
          "name": "",
          "type": "uint256"
        }
      ],
      "name": "characterOwner",
      "outputs": [
        {
          "internalType": "address",
          "name": "",
          "type": "address"
        }
      ],
      "stateMutability": "view",
      "type": "function",
      "constant": true
    },
    {
      "inputs": [
        {
          "internalType": "bytes32",
          "name": "role",
          "type": "bytes32"
        }
      ],
      "name": "getRoleAdmin",
      "outputs": [
        {
          "internalType": "bytes32",
          "name": "",
          "type": "bytes32"
        }
      ],
      "stateMutability": "view",
      "type": "function",
      "constant": true
    },
    {
      "inputs": [
        {
          "internalType": "bytes32",
          "name": "role",
          "type": "bytes32"
        },
        {
          "internalType": "uint256",
          "name": "index",
          "type": "uint256"
        }
      ],
      "name": "getRoleMember",
      "outputs": [
        {
          "internalType": "address",
          "name": "",
          "type": "address"
        }
      ],
      "stateMutability": "view",
      "type": "function",
      "constant": true
    },
    {
      "inputs": [
        {
          "internalType": "bytes32",
          "name": "role",
          "type": "bytes32"
        }
      ],
      "name": "getRoleMemberCount",
      "outputs": [
        {
          "internalType": "uint256",
          "name": "",
          "type": "uint256"
        }
      ],
      "stateMutability": "view",
      "type": "function",
      "constant": true
    },
    {
      "inputs": [
        {
          "internalType": "bytes32",
          "name": "role",
          "type": "bytes32"
        },
        {
          "internalType": "address",
          "name": "account",
          "type": "address"
        }
      ],
      "name": "grantRole",
      "outputs": [],
      "stateMutability": "nonpayable",
      "type": "function"
    },
    {
      "inputs": [
        {
          "internalType": "bytes32",
          "name": "role",
          "type": "bytes32"
        },
        {
          "internalType": "address",
          "name": "account",
          "type": "address"
        }
      ],
      "name": "hasRole",
      "outputs": [
        {
          "internalType": "bool",
          "name": "",
          "type": "bool"
        }
      ],
      "stateMutability": "view",
      "type": "function",
      "constant": true
    },
    {
      "inputs": [
        {
          "internalType": "bytes32",
          "name": "role",
          "type": "bytes32"
        },
        {
          "internalType": "address",
          "name": "account",
          "type": "address"
        }
      ],
      "name": "renounceRole",
      "outputs": [],
      "stateMutability": "nonpayable",
      "type": "function"
    },
    {
      "inputs": [
        {
          "internalType": "bytes32",
          "name": "role",
          "type": "bytes32"
        },
        {
          "internalType": "address",
          "name": "account",
          "type": "address"
        }
      ],
      "name": "revokeRole",
      "outputs": [],
      "stateMutability": "nonpayable",
      "type": "function"
    },
    {
      "inputs": [
        {
          "internalType": "contract Characters",
          "name": "_characters",
          "type": "address"
        }
      ],
      "name": "initialize",
      "outputs": [],
      "stateMutability": "nonpayable",
      "type": "function"
    },
    {
      "inputs": [
        {
          "internalType": "contract CryptoBlades",
          "name": "_game",
          "type": "address"
        }
      ],
      "name": "migrateTo_d514745",
      "outputs": [],
      "stateMutability": "nonpayable",
      "type": "function"
    },
    {
      "inputs": [],
      "name": "getUserCharacters",
      "outputs": [
        {
          "internalType": "uint256[]",
          "name": "tokens",
          "type": "uint256[]"
        }
      ],
      "stateMutability": "view",
      "type": "function",
      "constant": true
    },
    {
      "inputs": [
        {
          "internalType": "address",
          "name": "user",
          "type": "address"
        }
      ],
      "name": "balanceOf",
      "outputs": [
        {
          "internalType": "uint256",
          "name": "",
          "type": "uint256"
        }
      ],
      "stateMutability": "view",
      "type": "function",
      "constant": true
    },
    {
      "inputs": [
        {
          "internalType": "uint256",
          "name": "id",
          "type": "uint256"
        }
      ],
      "name": "sendToGarrison",
      "outputs": [],
      "stateMutability": "nonpayable",
      "type": "function"
    },
    {
      "inputs": [
        {
          "internalType": "address",
          "name": "user",
          "type": "address"
        },
        {
          "internalType": "uint256",
          "name": "id",
          "type": "uint256"
        }
      ],
      "name": "redirectToGarrison",
      "outputs": [],
      "stateMutability": "nonpayable",
      "type": "function"
    },
    {
      "inputs": [
        {
          "internalType": "uint256",
          "name": "id",
          "type": "uint256"
        }
      ],
      "name": "restoreFromGarrison",
      "outputs": [],
      "stateMutability": "nonpayable",
      "type": "function"
    },
    {
      "inputs": [
        {
          "internalType": "uint256",
          "name": "plazaId",
          "type": "uint256"
        },
        {
          "internalType": "uint256",
          "name": "garrisonId",
          "type": "uint256"
        }
      ],
      "name": "swapWithGarrison",
      "outputs": [],
      "stateMutability": "nonpayable",
      "type": "function"
    },
    {
      "inputs": [
        {
          "internalType": "address",
          "name": "receiver",
          "type": "address"
        },
        {
          "internalType": "uint256",
          "name": "id",
          "type": "uint256"
        }
      ],
      "name": "transferFromGarrison",
      "outputs": [],
      "stateMutability": "nonpayable",
      "type": "function"
    },
    {
      "inputs": [
        {
          "internalType": "uint256[]",
          "name": "chars",
          "type": "uint256[]"
        }
      ],
      "name": "claimAllXp",
      "outputs": [],
      "stateMutability": "nonpayable",
      "type": "function"
    },
    {
      "inputs": [
        {
          "internalType": "address",
          "name": "playerAddress",
          "type": "address"
        },
        {
          "internalType": "uint256",
          "name": "burnedId",
          "type": "uint256"
        }
      ],
      "name": "updateOnBurn",
      "outputs": [],
      "stateMutability": "nonpayable",
      "type": "function"
    },
    {
      "inputs": [
        {
          "internalType": "contract IERC721",
          "name": "_tokenAddress",
          "type": "address"
        }
      ],
      "name": "allowToken",
      "outputs": [],
      "stateMutability": "nonpayable",
      "type": "function"
    },
    {
      "inputs": [
        {
          "internalType": "contract IERC721",
          "name": "_tokenAddress",
          "type": "address"
        }
      ],
      "name": "disallowToken",
      "outputs": [],
      "stateMutability": "nonpayable",
      "type": "function"
    },
    {
      "inputs": [
        {
          "internalType": "address",
          "name": "",
          "type": "address"
        },
        {
          "internalType": "address",
          "name": "",
          "type": "address"
        },
        {
          "internalType": "uint256",
          "name": "_id",
          "type": "uint256"
        },
        {
          "internalType": "bytes",
          "name": "",
          "type": "bytes"
        }
      ],
      "name": "onERC721Received",
      "outputs": [
        {
          "internalType": "bytes4",
          "name": "",
          "type": "bytes4"
        }
      ],
      "stateMutability": "nonpayable",
      "type": "function"
    }
  ],
  "bytecode": "0x608060405234801561001057600080fd5b50611a85806100206000396000f3fe608060405234801561001057600080fd5b50600436106101585760003560e01c806391d14854116100c3578063c4d66de81161007c578063c4d66de814610511578063c5b365d314610537578063ca15c8731461055d578063d23eea4e1461057a578063d547741f1461059d578063e79767af146105c957610158565b806391d148541461043d578063a217fddf1461047d578063a26ca37814610485578063b53472ef146104a2578063b8cae950146104c8578063c39fc42c146104e557610158565b80636fa5e4ca116101155780636fa5e4ca146102b857806370a08231146103285780637ebcd57c1461034e578063847331631461037a5780638bafe221146103a65780639010d07c146103fe57610158565b8063150b7a021461015d578063248a9ca31461020a5780632f2ff15d1461023957806336568abe14610267578063426bddcb146102935780635504d3d2146102b0575b600080fd5b6101ed6004803603608081101561017357600080fd5b6001600160a01b038235811692602081013590911691604082013591908101906080810160608201356401000000008111156101ae57600080fd5b8201836020820111156101c057600080fd5b803590602001918460018302840111640100000000831117156101e257600080fd5b5090925090506105ef565b604080516001600160e01b03199092168252519081900360200190f35b6102276004803603602081101561022057600080fd5b5035610675565b60408051918252519081900360200190f35b6102656004803603604081101561024f57600080fd5b50803590602001356001600160a01b031661068a565b005b6102656004803603604081101561027d57600080fd5b50803590602001356001600160a01b03166106f6565b610265600480360360208110156102a957600080fd5b5035610757565b61022761099c565b610265600480360360208110156102ce57600080fd5b8101906020810181356401000000008111156102e957600080fd5b8201836020820111156102fb57600080fd5b8035906020019184602083028401116401000000008311171561031d57600080fd5b5090925090506109be565b6102276004803603602081101561033e57600080fd5b50356001600160a01b0316610cb4565b6102656004803603604081101561036457600080fd5b506001600160a01b038135169060200135610cdb565b6102656004803603604081101561039057600080fd5b506001600160a01b038135169060200135610dc2565b6103ae610e92565b60408051602080825283518183015283519192839290830191858101910280838360005b838110156103ea5781810151838201526020016103d2565b505050509050019250505060405180910390f35b6104216004803603604081101561041457600080fd5b5080359060200135610f39565b604080516001600160a01b039092168252519081900360200190f35b6104696004803603604081101561045357600080fd5b50803590602001356001600160a01b0316610f5e565b604080519115158252519081900360200190f35b610227610f7c565b6102656004803603602081101561049b57600080fd5b5035610f81565b610265600480360360208110156104b857600080fd5b50356001600160a01b0316611072565b610421600480360360208110156104de57600080fd5b50356110fa565b610265600480360360408110156104fb57600080fd5b506001600160a01b038135169060200135611115565b6102656004803603602081101561052757600080fd5b50356001600160a01b0316611219565b6102656004803603602081101561054d57600080fd5b50356001600160a01b03166112e9565b6102276004803603602081101561057357600080fd5b5035611382565b6102656004803603604081101561059057600080fd5b5080359060200135611399565b610265600480360360408110156105b357600080fd5b50803590602001356001600160a01b03166113ab565b610265600480360360208110156105df57600080fd5b50356001600160a01b0316611404565b60003361060360668263ffffffff61148c16565b801561061b575061061b606a8663ffffffff6114a116565b610662576040805162461bcd60e51b8152602060048201526013602482015272151bdad95b881251081b9bdd081b1a5cdd1959606a1b604482015290519081900360640190fd5b50630a85bd0160e11b9695505050505050565b60009081526033602052604090206002015490565b6000828152603360205260409020600201546106ad906106a86114ad565b610f5e565b6106e85760405162461bcd60e51b815260040180806020018281038252602f815260200180611994602f913960400191505060405180910390fd5b6106f282826114b1565b5050565b6106fe6114ad565b6001600160a01b0316816001600160a01b03161461074d5760405162461bcd60e51b815260040180806020018281038252602f815260200180611a21602f913960400191505060405180910390fd5b6106f28282611520565b60008181526069602052604090205481906001600160a01b0316321461077c57600080fd5b8161078e606a8263ffffffff6114a116565b61079757600080fd5b606560009054906101000a90046001600160a01b03166001600160a01b031663aa3c6cfc6040518163ffffffff1660e01b815260040160206040518083038186803b1580156107e557600080fd5b505afa1580156107f9573d6000803e3d6000fd5b505050506040513d602081101561080f57600080fd5b5051606554604080516370a0823160e01b815233600482015290516001600160a01b03909216916370a0823191602480820192602092909190829003018186803b15801561085c57600080fd5b505afa158015610870573d6000803e3d6000fd5b505050506040513d602081101561088657600080fd5b5051106108da576040805162461bcd60e51b815260206004820181905260248201527f52656365697665722068617320746f6f206d616e792063686172616374657273604482015290519081900360640190fd5b600083815260696020908152604080832080546001600160a01b031916905533835260689091529020610913908463ffffffff61158f16565b50610925606a8463ffffffff61158f16565b5060655460408051632142170760e11b81523060048201523360248201526044810186905290516001600160a01b03909216916342842e0e9160648082019260009290919082900301818387803b15801561097f57600080fd5b505af1158015610993573d6000803e3d6000fd5b50505050505050565b604080516923a0a6a2afa0a226a4a760b11b8152905190819003600a01902081565b8181808060200260200160405190810160405280939291908181526020018383602002808284376000920191909152506109fd925083915061159b9050565b606c54604051636f55f9d560e11b8152602060048201818152602483018690526060936001600160a01b03169263deabf3aa928892889290918291604401908590850280828437600081840152601f19601f820116905080830192505050935050505060006040518083038186803b158015610a7857600080fd5b505afa158015610a8c573d6000803e3d6000fd5b505050506040513d6000823e601f3d908101601f191682016040526020811015610ab557600080fd5b8101908080516040519392919084640100000000821115610ad557600080fd5b908301906020820185811115610aea57600080fd5b8251866020820283011164010000000082111715610b0757600080fd5b82525081516020918201928201910280838360005b83811015610b34578181015183820152602001610b1c565b50505050919091016040819052606c54630e7ebcdf60e31b8252602060048301818152602484018c90529798506001600160a01b03909116966373f5e6f896508b95508a945092508291604401908590850280828437600081840152601f19601f8201169050808301925050509350505050600060405180830381600087803b158015610bc057600080fd5b505af1158015610bd4573d6000803e3d6000fd5b505060655460408051632674b0b160e21b815260048101918252604481018890526001600160a01b0390921693506399d2c2c49250879187918691819060248101906064018660208702808284376000838201819052601f909101601f1916909201858103845286518152865160209182019382890193509102908190849084905b83811015610c6e578181015183820152602001610c56565b5050505090500195505050505050600060405180830381600087803b158015610c9657600080fd5b505af1158015610caa573d6000803e3d6000fd5b5050505050505050565b6001600160a01b0381166000908152606860205260408120610cd59061162b565b92915050565b60008181526069602052604090205481906001600160a01b03163214610d0057600080fd5b81610d12606a8263ffffffff6114a116565b610d1b57600080fd5b600083815260696020908152604080832080546001600160a01b031916905532835260689091529020610d54908463ffffffff61158f16565b50610d66606a8463ffffffff61158f16565b5060655460408051632142170760e11b81523060048201526001600160a01b03878116602483015260448201879052915191909216916342842e0e91606480830192600092919082900301818387803b158015610c9657600080fd5b610dcd600033610f5e565b80610dfc5750604080516923a0a6a2afa0a226a4a760b11b8152905190819003600a019020610dfc9033610f5e565b610e39576040805162461bcd60e51b81526020600482015260096024820152682737ba1030b236b4b760b91b604482015290519081900360640190fd5b600081815260696020908152604080832080546001600160a01b03191690556001600160a01b038516835260689091529020610e7b908263ffffffff61158f16565b50610e8d606a8263ffffffff61158f16565b505050565b60606000610e9f33610cb4565b90508067ffffffffffffffff81118015610eb857600080fd5b50604051908082528060200260200182016040528015610ee2578160200160208202803683370190505b503360009081526068602052604081209193505b82811015610f33576000610f10838363ffffffff61163616565b905080858381518110610f1f57fe5b602090810291909101015250600101610ef6565b50505090565b6000828152603360205260408120610f57908363ffffffff61163616565b9392505050565b6000828152603360205260408120610f57908363ffffffff61148c16565b600081565b600081815260696020908152604080832080546001600160a01b03191633908117909155835260689091529020610fbe908263ffffffff61164216565b50610fd0606a8263ffffffff61164216565b5060655460408051632142170760e11b81523360048201523060248201526044810184905290516001600160a01b03909216916342842e0e9160648082019260009290919082900301818387803b15801561102a57600080fd5b505af115801561103e573d6000803e3d6000fd5b50506040513392508391507fefe6a80b6beaa729816c7b03af9a2105b626fdada4a5209d81a95f8d1880b25390600090a350565b61107d600033610f5e565b806110ac5750604080516923a0a6a2afa0a226a4a760b11b8152905190819003600a0190206110ac9033610f5e565b6110e9576040805162461bcd60e51b81526020600482015260096024820152682737ba1030b236b4b760b91b604482015290519081900360640190fd5b6106f260668263ffffffff61164e16565b6069602052600090815260409020546001600160a01b031681565b611120600033610f5e565b8061114f5750604080516923a0a6a2afa0a226a4a760b11b8152905190819003600a01902061114f9033610f5e565b61118c576040805162461bcd60e51b81526020600482015260096024820152682737ba1030b236b4b760b91b604482015290519081900360640190fd5b600081815260696020908152604080832080546001600160a01b0319166001600160a01b0387169081179091558352606890915290206111cc9082611642565b506111de606a8263ffffffff61164216565b506040516001600160a01b0383169082907fefe6a80b6beaa729816c7b03af9a2105b626fdada4a5209d81a95f8d1880b25390600090a35050565b600054610100900460ff16806112325750611232611663565b80611240575060005460ff16155b61127b5760405162461bcd60e51b815260040180806020018281038252602e8152602001806119f3602e913960400191505060405180910390fd5b600054610100900460ff161580156112a6576000805460ff1961ff0019909116610100171660011790555b6112ae611674565b6112b96000336106e8565b606580546001600160a01b0319166001600160a01b03841617905580156106f2576000805461ff00191690555050565b6112f4600033610f5e565b806113235750604080516923a0a6a2afa0a226a4a760b11b8152905190819003600a0190206113239033610f5e565b611360576040805162461bcd60e51b81526020600482015260096024820152682737ba1030b236b4b760b91b604482015290519081900360640190fd5b606c80546001600160a01b0319166001600160a01b0392909216919091179055565b6000818152603360205260408120610cd59061162b565b6113a282610f81565b6106f281610757565b6000828152603360205260409020600201546113c9906106a86114ad565b61074d5760405162461bcd60e51b81526004018080602001828103825260308152602001806119c36030913960400191505060405180910390fd5b61140f600033610f5e565b8061143e5750604080516923a0a6a2afa0a226a4a760b11b8152905190819003600a01902061143e9033610f5e565b61147b576040805162461bcd60e51b81526020600482015260096024820152682737ba1030b236b4b760b91b604482015290519081900360640190fd5b6106f260668263ffffffff61172616565b6000610f57836001600160a01b03841661173b565b6000610f57838361173b565b3390565b60008281526033602052604090206114cf908263ffffffff61164e16565b156106f2576114dc6114ad565b6001600160a01b0316816001600160a01b0316837f2f8788117e7eff1d82e926ec794901d17c78024a50270940304540a733656f0d60405160405180910390a45050565b600082815260336020526040902061153e908263ffffffff61172616565b156106f25761154b6114ad565b6001600160a01b0316816001600160a01b0316837ff6391f5c32d9c69d2a47ea670b442974b53935d1edc7fd64eb21e047a839171b60405160405180910390a45050565b6000610f578383611753565b60005b81518110156106f257336001600160a01b0316606960008484815181106115c157fe5b6020908102919091018101518252810191909152604001600020546001600160a01b031614611623576040805162461bcd60e51b81526020600482015260096024820152682737ba1037bbb732b960b91b604482015290519081900360640190fd5b60010161159e565b6000610cd582611819565b6000610f57838361181d565b6000610f578383611881565b6000610f57836001600160a01b038416611881565b600061166e306118cb565b15905090565b600054610100900460ff168061168d575061168d611663565b8061169b575060005460ff16155b6116d65760405162461bcd60e51b815260040180806020018281038252602e8152602001806119f3602e913960400191505060405180910390fd5b600054610100900460ff16158015611701576000805460ff1961ff0019909116610100171660011790555b6117096118d1565b6117116118d1565b8015611723576000805461ff00191690555b50565b6000610f57836001600160a01b038416611753565b60009081526001919091016020526040902054151590565b6000818152600183016020526040812054801561180f578354600019808301919081019060009087908390811061178657fe5b90600052602060002001549050808760000184815481106117a357fe5b6000918252602080832090910192909255828152600189810190925260409020908401905586548790806117d357fe5b60019003818190600052602060002001600090559055866001016000878152602001908152602001600020600090556001945050505050610cd5565b6000915050610cd5565b5490565b8154600090821061185f5760405162461bcd60e51b81526004018080602001828103825260228152602001806119726022913960400191505060405180910390fd5b82600001828154811061186e57fe5b9060005260206000200154905092915050565b600061188d838361173b565b6118c357508154600181810184556000848152602080822090930184905584548482528286019093526040902091909155610cd5565b506000610cd5565b3b151590565b600054610100900460ff16806118ea57506118ea611663565b806118f8575060005460ff16155b6119335760405162461bcd60e51b815260040180806020018281038252602e8152602001806119f3602e913960400191505060405180910390fd5b600054610100900460ff16158015611711576000805460ff1961ff0019909116610100171660011790558015611723576000805461ff00191690555056fe456e756d657261626c655365743a20696e646578206f7574206f6620626f756e6473416363657373436f6e74726f6c3a2073656e646572206d75737420626520616e2061646d696e20746f206772616e74416363657373436f6e74726f6c3a2073656e646572206d75737420626520616e2061646d696e20746f207265766f6b65496e697469616c697a61626c653a20636f6e747261637420697320616c726561647920696e697469616c697a6564416363657373436f6e74726f6c3a2063616e206f6e6c792072656e6f756e636520726f6c657320666f722073656c66a26469706673582212207b1a6439f913e5ef4f8d98569ba58719c85dcfb76e363440411d4fd632c2fb3664736f6c63430006050033",
  "immutableReferences": {},
  "source": "pragma solidity ^0.6.2;\r\n\r\nimport \"@openzeppelin/contracts-upgradeable/proxy/Initializable.sol\";\r\nimport \"@openzeppelin/contracts-upgradeable/access/AccessControlUpgradeable.sol\";\r\nimport \"@openzeppelin/contracts-upgradeable/token/ERC721/IERC721ReceiverUpgradeable.sol\";\r\nimport \"@openzeppelin/contracts/token/ERC721/IERC721.sol\";\r\nimport \"@openzeppelin/contracts/utils/EnumerableSet.sol\";\r\nimport \"@openzeppelin/contracts/math/SafeMath.sol\";\r\n\r\nimport \"./characters.sol\";\r\nimport \"./cryptoblades.sol\";\r\n\r\ncontract Garrison is Initializable, IERC721ReceiverUpgradeable, AccessControlUpgradeable {\r\n    using EnumerableSet for EnumerableSet.UintSet;\r\n    using EnumerableSet for EnumerableSet.AddressSet;\r\n\r\n    bytes32 public constant GAME_ADMIN = keccak256(\"GAME_ADMIN\");\r\n\r\n    // STATE\r\n    Characters characters;\r\n\r\n    EnumerableSet.AddressSet private supportedTokenTypes;\r\n\r\n    mapping(address => EnumerableSet.UintSet) userGarrison;\r\n    mapping(uint256 => address) public characterOwner;\r\n    EnumerableSet.UintSet private allCharactersInGarrison;\r\n\r\n    CryptoBlades game;\r\n\r\n    event CharacterReceived(uint256 indexed character, address indexed minter);\r\n\r\n    function initialize(Characters _characters)\r\n        public\r\n        initializer\r\n    {\r\n        __AccessControl_init();\r\n        _setupRole(DEFAULT_ADMIN_ROLE, msg.sender);\r\n\r\n        characters = _characters;\r\n    }\r\n\r\n    function migrateTo_d514745(CryptoBlades _game) external restricted {\r\n        game = _game;\r\n    }\r\n\r\n    // MODIFIERS\r\n    modifier restricted() {\r\n        require(hasRole(DEFAULT_ADMIN_ROLE, msg.sender) || hasRole(GAME_ADMIN, msg.sender), \"Not admin\");\r\n        _;\r\n    }\r\n\r\n    modifier isCharacterOwner(uint256 id) {\r\n        require(characterOwner[id] == tx.origin);\r\n        _;\r\n    }\r\n\r\n    modifier isInGarrison(uint256 id) {\r\n        require(allCharactersInGarrison.contains(id));\r\n        _;\r\n    }\r\n\r\n    modifier isCharactersOwner(uint256[] memory ids) {\r\n        _isCharactersOwner(ids);\r\n        _;\r\n    }\r\n\r\n    function _isCharactersOwner(uint256[] memory ids) internal view {\r\n        for(uint i = 0; i < ids.length; i++) {\r\n            require(characterOwner[ids[i]] == msg.sender, 'Not owner');\r\n        }\r\n    }\r\n\r\n    // VIEWS\r\n    function getUserCharacters() public view  returns (uint256[] memory tokens) {\r\n        uint256 amount = balanceOf(msg.sender);\r\n        tokens = new uint256[](amount);\r\n\r\n        EnumerableSet.UintSet storage storedTokens = userGarrison[msg.sender];\r\n\r\n        for (uint256 i = 0; i < amount; i++) {\r\n            uint256 id = storedTokens.at(i);\r\n                tokens[i] = id;\r\n        }\r\n    }\r\n\r\n    function balanceOf(address user) public view returns(uint256) {\r\n        return userGarrison[user].length();\r\n    }\r\n\r\n    // MUTATIVE\r\n    function sendToGarrison(uint256 id) public {\r\n        characterOwner[id] = msg.sender;\r\n        userGarrison[msg.sender].add(id);\r\n        allCharactersInGarrison.add(id);\r\n        characters.safeTransferFrom(msg.sender, address(this), id);\r\n\r\n        emit CharacterReceived(id, msg.sender);\r\n    }\r\n\r\n    function redirectToGarrison(address user, uint256 id) restricted external {\r\n        characterOwner[id] = user;\r\n        userGarrison[user].add(id);\r\n        allCharactersInGarrison.add(id);\r\n\r\n        emit CharacterReceived(id, user);\r\n    }\r\n\r\n    function restoreFromGarrison(uint256 id)\r\n        public\r\n        isCharacterOwner(id)\r\n        isInGarrison(id)\r\n    {\r\n        require(characters.balanceOf(msg.sender) < characters.characterLimit(), \"Receiver has too many characters\");\r\n        delete characterOwner[id];\r\n        userGarrison[msg.sender].remove(id);\r\n        allCharactersInGarrison.remove(id);\r\n        characters.safeTransferFrom(address(this), msg.sender, id);\r\n    }\r\n\r\n    function swapWithGarrison(uint256 plazaId, uint256 garrisonId) external {\r\n      sendToGarrison(plazaId);\r\n      restoreFromGarrison(garrisonId);\r\n    }\r\n\r\n    function transferFromGarrison(address receiver, uint256 id)\r\n        public\r\n        isCharacterOwner(id)\r\n        isInGarrison(id)\r\n    {\r\n        delete characterOwner[id];\r\n        userGarrison[tx.origin].remove(id);\r\n        allCharactersInGarrison.remove(id);\r\n        characters.safeTransferFrom(address(this), receiver, id);\r\n    }\r\n\r\n    function claimAllXp(uint256[] calldata chars) external isCharactersOwner(chars) {\r\n        uint256[] memory xps = game.getXpRewards(chars);\r\n        game.resetXp(chars);\r\n        characters.gainXpAll(chars, xps);\r\n    }\r\n\r\n    function updateOnBurn(address playerAddress, uint256 burnedId) external restricted {\r\n        delete characterOwner[burnedId];\r\n        userGarrison[playerAddress].remove(burnedId);\r\n        allCharactersInGarrison.remove(burnedId);\r\n    }\r\n\r\n    function allowToken(IERC721 _tokenAddress) public restricted {\r\n        supportedTokenTypes.add(address(_tokenAddress));\r\n    }\r\n\r\n    function disallowToken(IERC721 _tokenAddress) public restricted {\r\n        supportedTokenTypes.remove(address(_tokenAddress));\r\n    }\r\n\r\n    function onERC721Received(\r\n        address, /* operator */\r\n        address, /* from */\r\n        uint256 _id,\r\n        bytes calldata /* data */\r\n    ) external override returns (bytes4) {\r\n        // NOTE: The contract address is always the message sender.\r\n        address _tokenAddress = msg.sender;\r\n\r\n        require(\r\n            supportedTokenTypes.contains(_tokenAddress) &&\r\n                allCharactersInGarrison.contains(_id),\r\n            \"Token ID not listed\"\r\n        );\r\n\r\n        return IERC721ReceiverUpgradeable.onERC721Received.selector;\r\n    }\r\n}\r\n",
  "sourcePath": "K:\\\\cryptoblades1\\cryptoblades\\contracts\\Garrison.sol",
  "compiler": {
    "name": "solc",
    "version": "0.6.5+commit.f956cc89.Emscripten.clang"
  },
  "schemaVersion": "3.4.5",
  "updatedAt": "2022-09-25T08:09:41.215Z",
  "networkType": "ethereum",
  "devdoc": {
    "methods": {
      "getRoleAdmin(bytes32)": {
        "details": "Returns the admin role that controls `role`. See {grantRole} and {revokeRole}.     * To change a role's admin, use {_setRoleAdmin}."
      },
      "getRoleMember(bytes32,uint256)": {
        "details": "Returns one of the accounts that have `role`. `index` must be a value between 0 and {getRoleMemberCount}, non-inclusive.     * Role bearers are not sorted in any particular way, and their ordering may change at any point.     * WARNING: When using {getRoleMember} and {getRoleMemberCount}, make sure you perform all queries on the same block. See the following https://forum.openzeppelin.com/t/iterating-over-elements-on-enumerableset-in-openzeppelin-contracts/2296[forum post] for more information."
      },
      "getRoleMemberCount(bytes32)": {
        "details": "Returns the number of accounts that have `role`. Can be used together with {getRoleMember} to enumerate all bearers of a role."
      },
      "grantRole(bytes32,address)": {
        "details": "Grants `role` to `account`.     * If `account` had not been already granted `role`, emits a {RoleGranted} event.     * Requirements:     * - the caller must have ``role``'s admin role."
      },
      "hasRole(bytes32,address)": {
        "details": "Returns `true` if `account` has been granted `role`."
      },
      "renounceRole(bytes32,address)": {
        "details": "Revokes `role` from the calling account.     * Roles are often managed via {grantRole} and {revokeRole}: this function's purpose is to provide a mechanism for accounts to lose their privileges if they are compromised (such as when a trusted device is misplaced).     * If the calling account had been granted `role`, emits a {RoleRevoked} event.     * Requirements:     * - the caller must be `account`."
      },
      "revokeRole(bytes32,address)": {
        "details": "Revokes `role` from `account`.     * If `account` had been granted `role`, emits a {RoleRevoked} event.     * Requirements:     * - the caller must have ``role``'s admin role."
      }
    }
  },
  "userdoc": {
    "methods": {}
  }
}