{
  "contractName": "JunkBridgeProxyContract",
  "abi": [
    {
      "anonymous": false,
      "inputs": [
        {
          "indexed": true,
          "internalType": "bytes32",
          "name": "role",
          "type": "bytes32"
        },
        {
          "indexed": true,
          "internalType": "bytes32",
          "name": "previousAdminRole",
          "type": "bytes32"
        },
        {
          "indexed": true,
          "internalType": "bytes32",
          "name": "newAdminRole",
          "type": "bytes32"
        }
      ],
      "name": "RoleAdminChanged",
      "type": "event"
    },
    {
      "anonymous": false,
      "inputs": [
        {
          "indexed": true,
          "internalType": "bytes32",
          "name": "role",
          "type": "bytes32"
        },
        {
          "indexed": true,
          "internalType": "address",
          "name": "account",
          "type": "address"
        },
        {
          "indexed": true,
          "internalType": "address",
          "name": "sender",
          "type": "address"
        }
      ],
      "name": "RoleGranted",
      "type": "event"
    },
    {
      "anonymous": false,
      "inputs": [
        {
          "indexed": true,
          "internalType": "bytes32",
          "name": "role",
          "type": "bytes32"
        },
        {
          "indexed": true,
          "internalType": "address",
          "name": "account",
          "type": "address"
        },
        {
          "indexed": true,
          "internalType": "address",
          "name": "sender",
          "type": "address"
        }
      ],
      "name": "RoleRevoked",
      "type": "event"
    },
    {
      "inputs": [],
      "name": "DEFAULT_ADMIN_ROLE",
      "outputs": [
        {
          "internalType": "bytes32",
          "name": "",
          "type": "bytes32"
        }
      ],
      "stateMutability": "view",
      "type": "function",
      "constant": true
    },
    {
      "inputs": [],
      "name": "GAME_ADMIN",
      "outputs": [
        {
          "internalType": "bytes32",
          "name": "",
          "type": "bytes32"
        }
      ],
      "stateMutability": "view",
      "type": "function",
      "constant": true
    },
    {
      "inputs": [],
      "name": "UINT_NFT_VAR_META",
      "outputs": [
        {
          "internalType": "uint8",
          "name": "",
          "type": "uint8"
        }
      ],
      "stateMutability": "view",
      "type": "function",
      "constant": true
    },
    {
      "inputs": [
        {
          "internalType": "bytes32",
          "name": "role",
          "type": "bytes32"
        }
      ],
      "name": "getRoleAdmin",
      "outputs": [
        {
          "internalType": "bytes32",
          "name": "",
          "type": "bytes32"
        }
      ],
      "stateMutability": "view",
      "type": "function",
      "constant": true
    },
    {
      "inputs": [
        {
          "internalType": "bytes32",
          "name": "role",
          "type": "bytes32"
        },
        {
          "internalType": "uint256",
          "name": "index",
          "type": "uint256"
        }
      ],
      "name": "getRoleMember",
      "outputs": [
        {
          "internalType": "address",
          "name": "",
          "type": "address"
        }
      ],
      "stateMutability": "view",
      "type": "function",
      "constant": true
    },
    {
      "inputs": [
        {
          "internalType": "bytes32",
          "name": "role",
          "type": "bytes32"
        }
      ],
      "name": "getRoleMemberCount",
      "outputs": [
        {
          "internalType": "uint256",
          "name": "",
          "type": "uint256"
        }
      ],
      "stateMutability": "view",
      "type": "function",
      "constant": true
    },
    {
      "inputs": [
        {
          "internalType": "bytes32",
          "name": "role",
          "type": "bytes32"
        },
        {
          "internalType": "address",
          "name": "account",
          "type": "address"
        }
      ],
      "name": "grantRole",
      "outputs": [],
      "stateMutability": "nonpayable",
      "type": "function"
    },
    {
      "inputs": [
        {
          "internalType": "bytes32",
          "name": "role",
          "type": "bytes32"
        },
        {
          "internalType": "address",
          "name": "account",
          "type": "address"
        }
      ],
      "name": "hasRole",
      "outputs": [
        {
          "internalType": "bool",
          "name": "",
          "type": "bool"
        }
      ],
      "stateMutability": "view",
      "type": "function",
      "constant": true
    },
    {
      "inputs": [
        {
          "internalType": "bytes32",
          "name": "role",
          "type": "bytes32"
        },
        {
          "internalType": "address",
          "name": "account",
          "type": "address"
        }
      ],
      "name": "renounceRole",
      "outputs": [],
      "stateMutability": "nonpayable",
      "type": "function"
    },
    {
      "inputs": [
        {
          "internalType": "bytes32",
          "name": "role",
          "type": "bytes32"
        },
        {
          "internalType": "address",
          "name": "account",
          "type": "address"
        }
      ],
      "name": "revokeRole",
      "outputs": [],
      "stateMutability": "nonpayable",
      "type": "function"
    },
    {
      "inputs": [
        {
          "internalType": "address",
          "name": "_nftStorageAddress",
          "type": "address"
        },
        {
          "internalType": "address",
          "name": "_junk",
          "type": "address"
        }
      ],
      "name": "initialize",
      "outputs": [],
      "stateMutability": "nonpayable",
      "type": "function"
    },
    {
      "inputs": [
        {
          "internalType": "uint256",
          "name": "tokenId",
          "type": "uint256"
        }
      ],
      "name": "collectData",
      "outputs": [
        {
          "internalType": "uint256[]",
          "name": "uintVars",
          "type": "uint256[]"
        },
        {
          "internalType": "string",
          "name": "stringVar",
          "type": "string"
        }
      ],
      "stateMutability": "view",
      "type": "function",
      "constant": true
    },
    {
      "inputs": [],
      "name": "sigVersion",
      "outputs": [
        {
          "internalType": "uint256",
          "name": "",
          "type": "uint256"
        }
      ],
      "stateMutability": "view",
      "type": "function",
      "constant": true
    },
    {
      "inputs": [],
      "name": "isEnabled",
      "outputs": [
        {
          "internalType": "bool",
          "name": "",
          "type": "bool"
        }
      ],
      "stateMutability": "view",
      "type": "function",
      "constant": true
    },
    {
      "inputs": [
        {
          "internalType": "bool",
          "name": "_enabled",
          "type": "bool"
        }
      ],
      "name": "setEnabled",
      "outputs": [],
      "stateMutability": "nonpayable",
      "type": "function"
    },
    {
      "inputs": [
        {
          "internalType": "uint256",
          "name": "tokenId",
          "type": "uint256"
        },
        {
          "internalType": "uint256[]",
          "name": "uintVars",
          "type": "uint256[]"
        },
        {
          "internalType": "string",
          "name": "stringVar",
          "type": "string"
        }
      ],
      "name": "mintOrUpdate",
      "outputs": [
        {
          "internalType": "uint256",
          "name": "",
          "type": "uint256"
        }
      ],
      "stateMutability": "nonpayable",
      "type": "function"
    },
    {
      "inputs": [
        {
          "internalType": "uint8",
          "name": "stars",
          "type": "uint8"
        }
      ],
      "name": "_packJunkData",
      "outputs": [
        {
          "internalType": "uint256",
          "name": "",
          "type": "uint256"
        }
      ],
      "stateMutability": "pure",
      "type": "function",
      "constant": true
    }
  ],
  "bytecode": "0x608060405234801561001057600080fd5b50610f27806100206000396000f3fe608060405234801561001057600080fd5b506004361061010b5760003560e01c8063485cc955116100a257806391d148541161007157806391d1485414610369578063a217fddf14610395578063ca15c8731461039d578063d547741f146103ba578063f9519407146103e65761010b565b8063485cc955146102d85780635504d3d2146103065780636aa633b61461030e5780639010d07c1461032a5761010b565b80632f2ff15d116100de5780632f2ff15d14610257578063328d8f721461028557806336568abe146102a45780634594fac4146102d05761010b565b8063135701f71461011057806319dd746a1461012e5780631e30c7f114610208578063248a9ca31461023a575b600080fd5b6101186104af565b6040805160ff9092168252519081900360200190f35b61014b6004803603602081101561014457600080fd5b50356104b4565b604051808060200180602001838103835285818151815260200191508051906020019060200280838360005b8381101561018f578181015183820152602001610177565b50505050905001838103825284818151815260200191508051906020019080838360005b838110156101cb5781810151838201526020016101b3565b50505050905090810190601f1680156101f85780820380516001836020036101000a031916815260200191505b5094505050505060405180910390f35b6102286004803603602081101561021e57600080fd5b503560ff16610581565b60408051918252519081900360200190f35b6102286004803603602081101561025057600080fd5b5035610587565b6102836004803603604081101561026d57600080fd5b50803590602001356001600160a01b031661059c565b005b6102836004803603602081101561029b57600080fd5b50351515610608565b610283600480360360408110156102ba57600080fd5b50803590602001356001600160a01b031661062e565b61022861068f565b610283600480360360408110156102ee57600080fd5b506001600160a01b0381358116916020013516610694565b61022861077b565b61031661079d565b604080519115158252519081900360200190f35b61034d6004803603604081101561034057600080fd5b50803590602001356107ad565b604080516001600160a01b039092168252519081900360200190f35b6103166004803603604081101561037f57600080fd5b50803590602001356001600160a01b03166107d4565b6102286104af565b610228600480360360208110156103b357600080fd5b50356107f2565b610283600480360360408110156103d057600080fd5b50803590602001356001600160a01b0316610809565b610228600480360360608110156103fc57600080fd5b8135919081019060408101602082013564010000000081111561041e57600080fd5b82018360208201111561043057600080fd5b8035906020019184602083028401116401000000008311171561045257600080fd5b91939092909160208101903564010000000081111561047057600080fd5b82018360208201111561048257600080fd5b803590602001918460018302840111640100000000831117156104a457600080fd5b509092509050610862565b600081565b60655460408051634a83e9cd60e11b815260048101849052905160609283926000926001600160a01b0390921691639507d39a91602480820192602092909190829003018186803b15801561050857600080fd5b505afa15801561051c573d6000803e3d6000fd5b505050506040513d602081101561053257600080fd5b50516040805160018082528183019092529192506020808301908036833701905050925061055f81610581565b83600060ff168151811061056f57fe5b60200260200101818152505050915091565b60ff1690565b60009081526033602052604090206002015490565b6000828152603360205260409020600201546105bf906105ba610970565b6107d4565b6105fa5760405162461bcd60e51b815260040180806020018281038252602f815260200180610e36602f913960400191505060405180910390fd5b6106048282610974565b5050565b6106106109e3565b60668054911515600160a01b0260ff60a01b19909216919091179055565b610636610970565b6001600160a01b0316816001600160a01b0316146106855760405162461bcd60e51b815260040180806020018281038252602f815260200180610ec3602f913960400191505060405180910390fd5b6106048282610a55565b600190565b600054610100900460ff16806106ad57506106ad610ac4565b806106bb575060005460ff16155b6106f65760405162461bcd60e51b815260040180806020018281038252602e815260200180610e95602e913960400191505060405180910390fd5b600054610100900460ff16158015610721576000805460ff1961ff0019909116610100171660011790555b610729610ad5565b6107346000336105fa565b606680546001600160a01b038086166001600160a01b03199283161790925560658054928516929091169190911790558015610776576000805461ff00191690555b505050565b604080516923a0a6a2afa0a226a4a760b11b8152905190819003600a01902081565b606654600160a01b900460ff1690565b60008281526033602052604081206107cb908363ffffffff610b8716565b90505b92915050565b60008281526033602052604081206107cb908363ffffffff610b9316565b60008181526033602052604081206107ce90610ba8565b600082815260336020526040902060020154610827906105ba610970565b6106855760405162461bcd60e51b8152600401808060200182810382526030815260200180610e656030913960400191505060405180910390fd5b600061086c6109e3565b606654600160a01b900460ff166108b8576040805162461bcd60e51b815260206004820152600b60248201526a1b9bdd08195b98589b195960aa1b604482015290519081900360640190fd5b6065546066546001600160a01b039182169163862ae4df911687876000816108dc57fe5b90506020020135896040518463ffffffff1660e01b815260040180846001600160a01b03166001600160a01b031681526020018381526020018281526020019350505050602060405180830381600087803b15801561093a57600080fd5b505af115801561094e573d6000803e3d6000fd5b505050506040513d602081101561096457600080fd5b50519695505050505050565b3390565b6000828152603360205260409020610992908263ffffffff610bb316565b156106045761099f610970565b6001600160a01b0316816001600160a01b0316837f2f8788117e7eff1d82e926ec794901d17c78024a50270940304540a733656f0d60405160405180910390a45050565b604080516923a0a6a2afa0a226a4a760b11b8152905190819003600a019020610a0c90336107d4565b80610a1d5750610a1d6000336107d4565b610a53576040805162461bcd60e51b81526020600482015260026024820152614e4160f01b604482015290519081900360640190fd5b565b6000828152603360205260409020610a73908263ffffffff610bc816565b1561060457610a80610970565b6001600160a01b0316816001600160a01b0316837ff6391f5c32d9c69d2a47ea670b442974b53935d1edc7fd64eb21e047a839171b60405160405180910390a45050565b6000610acf30610bdd565b15905090565b600054610100900460ff1680610aee5750610aee610ac4565b80610afc575060005460ff16155b610b375760405162461bcd60e51b815260040180806020018281038252602e815260200180610e95602e913960400191505060405180910390fd5b600054610100900460ff16158015610b62576000805460ff1961ff0019909116610100171660011790555b610b6a610be3565b610b72610be3565b8015610b84576000805461ff00191690555b50565b60006107cb8383610c83565b60006107cb836001600160a01b038416610ce7565b60006107ce82610cff565b60006107cb836001600160a01b038416610d03565b60006107cb836001600160a01b038416610d4d565b3b151590565b600054610100900460ff1680610bfc5750610bfc610ac4565b80610c0a575060005460ff16155b610c455760405162461bcd60e51b815260040180806020018281038252602e815260200180610e95602e913960400191505060405180910390fd5b600054610100900460ff16158015610b72576000805460ff1961ff0019909116610100171660011790558015610b84576000805461ff001916905550565b81546000908210610cc55760405162461bcd60e51b8152600401808060200182810382526022815260200180610e146022913960400191505060405180910390fd5b826000018281548110610cd457fe5b9060005260206000200154905092915050565b60009081526001919091016020526040902054151590565b5490565b6000610d0f8383610ce7565b610d45575081546001818101845560008481526020808220909301849055845484825282860190935260409020919091556107ce565b5060006107ce565b60008181526001830160205260408120548015610e095783546000198083019190810190600090879083908110610d8057fe5b9060005260206000200154905080876000018481548110610d9d57fe5b600091825260208083209091019290925582815260018981019092526040902090840190558654879080610dcd57fe5b600190038181906000526020600020016000905590558660010160008781526020019081526020016000206000905560019450505050506107ce565b60009150506107ce56fe456e756d657261626c655365743a20696e646578206f7574206f6620626f756e6473416363657373436f6e74726f6c3a2073656e646572206d75737420626520616e2061646d696e20746f206772616e74416363657373436f6e74726f6c3a2073656e646572206d75737420626520616e2061646d696e20746f207265766f6b65496e697469616c697a61626c653a20636f6e747261637420697320616c726561647920696e697469616c697a6564416363657373436f6e74726f6c3a2063616e206f6e6c792072656e6f756e636520726f6c657320666f722073656c66a26469706673582212209406b886414854340b5e9d81a05d6f441fa1cad4f0c6567583ea2df12830ee3f64736f6c63430006050033",
  "immutableReferences": {},
  "source": "pragma solidity ^0.6.0;\r\n\r\nimport \"@openzeppelin/contracts-upgradeable/proxy/Initializable.sol\";\r\nimport \"@openzeppelin/contracts-upgradeable/access/AccessControlUpgradeable.sol\";\r\nimport \"./items/Junk.sol\";\r\nimport \"./interfaces/IBridgeProxy.sol\";\r\n\r\n\r\ncontract JunkBridgeProxyContract is Initializable, AccessControlUpgradeable, IBridgeProxy {\r\n  \r\n    bytes32 public constant GAME_ADMIN = keccak256(\"GAME_ADMIN\");\r\n\r\n    Junk junk;\r\n    address nftStorageAddress;\r\n    bool enabled;\r\n\r\n    uint8 public constant UINT_NFT_VAR_META = 0;\r\n\r\n    modifier restricted() {\r\n        _restricted();\r\n        _;\r\n    }\r\n\r\n    function _restricted() internal view {\r\n        require(hasRole(GAME_ADMIN, msg.sender) || hasRole(DEFAULT_ADMIN_ROLE, msg.sender), \"NA\");\r\n    }\r\n\r\n    function initialize(address _nftStorageAddress, address _junk) public initializer {\r\n        __AccessControl_init();\r\n\r\n        _setupRole(DEFAULT_ADMIN_ROLE, msg.sender);\r\n\r\n        nftStorageAddress = _nftStorageAddress;\r\n        junk = Junk(_junk);\r\n    }\r\n\r\n \r\n    function collectData(uint256 tokenId) external view override returns (uint256[] memory uintVars, string memory stringVar) {\r\n        \r\n        (uint8 _stars) = junk.get(tokenId);\r\n\r\n        uintVars = new uint256[](1);\r\n        uintVars[UINT_NFT_VAR_META] = _packJunkData(_stars);\r\n    }\r\n\r\n    // for future use, bot will probe the returned value to know if the proxy contract has proper signature behavior\r\n    function sigVersion() external view override returns (uint256) {\r\n        return 1;\r\n    }\r\n\r\n    function isEnabled() external view override returns (bool) {\r\n        return enabled;\r\n    }\r\n\r\n    function setEnabled(bool _enabled) external restricted {\r\n        enabled = _enabled;\r\n    }\r\n\r\n    function mintOrUpdate(uint256 tokenId, uint256[] calldata uintVars, string calldata stringVar) external restricted override returns (uint256) {\r\n        require(enabled, \"not enabled\");\r\n\r\n         tokenId = \r\n            junk.performMintJunkDetailed(nftStorageAddress, uintVars[UINT_NFT_VAR_META], tokenId);\r\n\r\n        return tokenId;\r\n    }\r\n\r\n    function _packJunkData(uint8 stars) public pure returns (uint256) {\r\n        return  uint256(stars);\r\n    }\r\n}\r\n",
  "sourcePath": "K:\\下载\\cryptoblades1\\cryptoblades\\contracts\\JunkBridgeProxyContract.sol",
  "compiler": {
    "name": "solc",
    "version": "0.6.5+commit.f956cc89.Emscripten.clang"
  },
  "schemaVersion": "3.4.5",
  "updatedAt": "2022-09-25T08:08:24.144Z",
  "networkType": "ethereum",
  "devdoc": {
    "methods": {
      "getRoleAdmin(bytes32)": {
        "details": "Returns the admin role that controls `role`. See {grantRole} and {revokeRole}.     * To change a role's admin, use {_setRoleAdmin}."
      },
      "getRoleMember(bytes32,uint256)": {
        "details": "Returns one of the accounts that have `role`. `index` must be a value between 0 and {getRoleMemberCount}, non-inclusive.     * Role bearers are not sorted in any particular way, and their ordering may change at any point.     * WARNING: When using {getRoleMember} and {getRoleMemberCount}, make sure you perform all queries on the same block. See the following https://forum.openzeppelin.com/t/iterating-over-elements-on-enumerableset-in-openzeppelin-contracts/2296[forum post] for more information."
      },
      "getRoleMemberCount(bytes32)": {
        "details": "Returns the number of accounts that have `role`. Can be used together with {getRoleMember} to enumerate all bearers of a role."
      },
      "grantRole(bytes32,address)": {
        "details": "Grants `role` to `account`.     * If `account` had not been already granted `role`, emits a {RoleGranted} event.     * Requirements:     * - the caller must have ``role``'s admin role."
      },
      "hasRole(bytes32,address)": {
        "details": "Returns `true` if `account` has been granted `role`."
      },
      "renounceRole(bytes32,address)": {
        "details": "Revokes `role` from the calling account.     * Roles are often managed via {grantRole} and {revokeRole}: this function's purpose is to provide a mechanism for accounts to lose their privileges if they are compromised (such as when a trusted device is misplaced).     * If the calling account had been granted `role`, emits a {RoleRevoked} event.     * Requirements:     * - the caller must be `account`."
      },
      "revokeRole(bytes32,address)": {
        "details": "Revokes `role` from `account`.     * If `account` had been granted `role`, emits a {RoleRevoked} event.     * Requirements:     * - the caller must have ``role``'s admin role."
      }
    }
  },
  "userdoc": {
    "methods": {}
  }
}