{
  "contractName": "KeyLootbox",
  "abi": [
    {
      "anonymous": false,
      "inputs": [
        {
          "indexed": true,
          "internalType": "address",
          "name": "owner",
          "type": "address"
        },
        {
          "indexed": true,
          "internalType": "address",
          "name": "approved",
          "type": "address"
        },
        {
          "indexed": true,
          "internalType": "uint256",
          "name": "tokenId",
          "type": "uint256"
        }
      ],
      "name": "Approval",
      "type": "event"
    },
    {
      "anonymous": false,
      "inputs": [
        {
          "indexed": true,
          "internalType": "address",
          "name": "owner",
          "type": "address"
        },
        {
          "indexed": true,
          "internalType": "address",
          "name": "operator",
          "type": "address"
        },
        {
          "indexed": false,
          "internalType": "bool",
          "name": "approved",
          "type": "bool"
        }
      ],
      "name": "ApprovalForAll",
      "type": "event"
    },
    {
      "anonymous": false,
      "inputs": [
        {
          "indexed": true,
          "internalType": "uint256",
          "name": "id",
          "type": "uint256"
        },
        {
          "indexed": true,
          "internalType": "address",
          "name": "minter",
          "type": "address"
        }
      ],
      "name": "Minted",
      "type": "event"
    },
    {
      "anonymous": false,
      "inputs": [
        {
          "indexed": true,
          "internalType": "bytes32",
          "name": "role",
          "type": "bytes32"
        },
        {
          "indexed": true,
          "internalType": "bytes32",
          "name": "previousAdminRole",
          "type": "bytes32"
        },
        {
          "indexed": true,
          "internalType": "bytes32",
          "name": "newAdminRole",
          "type": "bytes32"
        }
      ],
      "name": "RoleAdminChanged",
      "type": "event"
    },
    {
      "anonymous": false,
      "inputs": [
        {
          "indexed": true,
          "internalType": "bytes32",
          "name": "role",
          "type": "bytes32"
        },
        {
          "indexed": true,
          "internalType": "address",
          "name": "account",
          "type": "address"
        },
        {
          "indexed": true,
          "internalType": "address",
          "name": "sender",
          "type": "address"
        }
      ],
      "name": "RoleGranted",
      "type": "event"
    },
    {
      "anonymous": false,
      "inputs": [
        {
          "indexed": true,
          "internalType": "bytes32",
          "name": "role",
          "type": "bytes32"
        },
        {
          "indexed": true,
          "internalType": "address",
          "name": "account",
          "type": "address"
        },
        {
          "indexed": true,
          "internalType": "address",
          "name": "sender",
          "type": "address"
        }
      ],
      "name": "RoleRevoked",
      "type": "event"
    },
    {
      "anonymous": false,
      "inputs": [
        {
          "indexed": true,
          "internalType": "address",
          "name": "from",
          "type": "address"
        },
        {
          "indexed": true,
          "internalType": "address",
          "name": "to",
          "type": "address"
        },
        {
          "indexed": true,
          "internalType": "uint256",
          "name": "tokenId",
          "type": "uint256"
        }
      ],
      "name": "Transfer",
      "type": "event"
    },
    {
      "inputs": [],
      "name": "DEFAULT_ADMIN_ROLE",
      "outputs": [
        {
          "internalType": "bytes32",
          "name": "",
          "type": "bytes32"
        }
      ],
      "stateMutability": "view",
      "type": "function",
      "constant": true
    },
    {
      "inputs": [],
      "name": "GAME_ADMIN",
      "outputs": [
        {
          "internalType": "bytes32",
          "name": "",
          "type": "bytes32"
        }
      ],
      "stateMutability": "view",
      "type": "function",
      "constant": true
    },
    {
      "inputs": [
        {
          "internalType": "address",
          "name": "to",
          "type": "address"
        },
        {
          "internalType": "uint256",
          "name": "tokenId",
          "type": "uint256"
        }
      ],
      "name": "approve",
      "outputs": [],
      "stateMutability": "nonpayable",
      "type": "function"
    },
    {
      "inputs": [
        {
          "internalType": "address",
          "name": "owner",
          "type": "address"
        }
      ],
      "name": "balanceOf",
      "outputs": [
        {
          "internalType": "uint256",
          "name": "",
          "type": "uint256"
        }
      ],
      "stateMutability": "view",
      "type": "function",
      "constant": true
    },
    {
      "inputs": [],
      "name": "baseURI",
      "outputs": [
        {
          "internalType": "string",
          "name": "",
          "type": "string"
        }
      ],
      "stateMutability": "view",
      "type": "function",
      "constant": true
    },
    {
      "inputs": [
        {
          "internalType": "uint256",
          "name": "tokenId",
          "type": "uint256"
        }
      ],
      "name": "getApproved",
      "outputs": [
        {
          "internalType": "address",
          "name": "",
          "type": "address"
        }
      ],
      "stateMutability": "view",
      "type": "function",
      "constant": true
    },
    {
      "inputs": [
        {
          "internalType": "bytes32",
          "name": "role",
          "type": "bytes32"
        }
      ],
      "name": "getRoleAdmin",
      "outputs": [
        {
          "internalType": "bytes32",
          "name": "",
          "type": "bytes32"
        }
      ],
      "stateMutability": "view",
      "type": "function",
      "constant": true
    },
    {
      "inputs": [
        {
          "internalType": "bytes32",
          "name": "role",
          "type": "bytes32"
        },
        {
          "internalType": "uint256",
          "name": "index",
          "type": "uint256"
        }
      ],
      "name": "getRoleMember",
      "outputs": [
        {
          "internalType": "address",
          "name": "",
          "type": "address"
        }
      ],
      "stateMutability": "view",
      "type": "function",
      "constant": true
    },
    {
      "inputs": [
        {
          "internalType": "bytes32",
          "name": "role",
          "type": "bytes32"
        }
      ],
      "name": "getRoleMemberCount",
      "outputs": [
        {
          "internalType": "uint256",
          "name": "",
          "type": "uint256"
        }
      ],
      "stateMutability": "view",
      "type": "function",
      "constant": true
    },
    {
      "inputs": [
        {
          "internalType": "bytes32",
          "name": "role",
          "type": "bytes32"
        },
        {
          "internalType": "address",
          "name": "account",
          "type": "address"
        }
      ],
      "name": "grantRole",
      "outputs": [],
      "stateMutability": "nonpayable",
      "type": "function"
    },
    {
      "inputs": [
        {
          "internalType": "bytes32",
          "name": "role",
          "type": "bytes32"
        },
        {
          "internalType": "address",
          "name": "account",
          "type": "address"
        }
      ],
      "name": "hasRole",
      "outputs": [
        {
          "internalType": "bool",
          "name": "",
          "type": "bool"
        }
      ],
      "stateMutability": "view",
      "type": "function",
      "constant": true
    },
    {
      "inputs": [
        {
          "internalType": "address",
          "name": "owner",
          "type": "address"
        },
        {
          "internalType": "address",
          "name": "operator",
          "type": "address"
        }
      ],
      "name": "isApprovedForAll",
      "outputs": [
        {
          "internalType": "bool",
          "name": "",
          "type": "bool"
        }
      ],
      "stateMutability": "view",
      "type": "function",
      "constant": true
    },
    {
      "inputs": [],
      "name": "name",
      "outputs": [
        {
          "internalType": "string",
          "name": "",
          "type": "string"
        }
      ],
      "stateMutability": "view",
      "type": "function",
      "constant": true
    },
    {
      "inputs": [],
      "name": "nextTokenID",
      "outputs": [
        {
          "internalType": "uint256",
          "name": "",
          "type": "uint256"
        }
      ],
      "stateMutability": "view",
      "type": "function",
      "constant": true
    },
    {
      "inputs": [
        {
          "internalType": "uint256",
          "name": "tokenId",
          "type": "uint256"
        }
      ],
      "name": "ownerOf",
      "outputs": [
        {
          "internalType": "address",
          "name": "",
          "type": "address"
        }
      ],
      "stateMutability": "view",
      "type": "function",
      "constant": true
    },
    {
      "inputs": [],
      "name": "promos",
      "outputs": [
        {
          "internalType": "contract Promos",
          "name": "",
          "type": "address"
        }
      ],
      "stateMutability": "view",
      "type": "function",
      "constant": true
    },
    {
      "inputs": [
        {
          "internalType": "bytes32",
          "name": "role",
          "type": "bytes32"
        },
        {
          "internalType": "address",
          "name": "account",
          "type": "address"
        }
      ],
      "name": "renounceRole",
      "outputs": [],
      "stateMutability": "nonpayable",
      "type": "function"
    },
    {
      "inputs": [
        {
          "internalType": "bytes32",
          "name": "role",
          "type": "bytes32"
        },
        {
          "internalType": "address",
          "name": "account",
          "type": "address"
        }
      ],
      "name": "revokeRole",
      "outputs": [],
      "stateMutability": "nonpayable",
      "type": "function"
    },
    {
      "inputs": [
        {
          "internalType": "address",
          "name": "from",
          "type": "address"
        },
        {
          "internalType": "address",
          "name": "to",
          "type": "address"
        },
        {
          "internalType": "uint256",
          "name": "tokenId",
          "type": "uint256"
        }
      ],
      "name": "safeTransferFrom",
      "outputs": [],
      "stateMutability": "nonpayable",
      "type": "function"
    },
    {
      "inputs": [
        {
          "internalType": "address",
          "name": "from",
          "type": "address"
        },
        {
          "internalType": "address",
          "name": "to",
          "type": "address"
        },
        {
          "internalType": "uint256",
          "name": "tokenId",
          "type": "uint256"
        },
        {
          "internalType": "bytes",
          "name": "_data",
          "type": "bytes"
        }
      ],
      "name": "safeTransferFrom",
      "outputs": [],
      "stateMutability": "nonpayable",
      "type": "function"
    },
    {
      "inputs": [
        {
          "internalType": "address",
          "name": "operator",
          "type": "address"
        },
        {
          "internalType": "bool",
          "name": "approved",
          "type": "bool"
        }
      ],
      "name": "setApprovalForAll",
      "outputs": [],
      "stateMutability": "nonpayable",
      "type": "function"
    },
    {
      "inputs": [
        {
          "internalType": "bytes4",
          "name": "interfaceId",
          "type": "bytes4"
        }
      ],
      "name": "supportsInterface",
      "outputs": [
        {
          "internalType": "bool",
          "name": "",
          "type": "bool"
        }
      ],
      "stateMutability": "view",
      "type": "function",
      "constant": true
    },
    {
      "inputs": [],
      "name": "symbol",
      "outputs": [
        {
          "internalType": "string",
          "name": "",
          "type": "string"
        }
      ],
      "stateMutability": "view",
      "type": "function",
      "constant": true
    },
    {
      "inputs": [
        {
          "internalType": "uint256",
          "name": "index",
          "type": "uint256"
        }
      ],
      "name": "tokenByIndex",
      "outputs": [
        {
          "internalType": "uint256",
          "name": "",
          "type": "uint256"
        }
      ],
      "stateMutability": "view",
      "type": "function",
      "constant": true
    },
    {
      "inputs": [
        {
          "internalType": "address",
          "name": "owner",
          "type": "address"
        },
        {
          "internalType": "uint256",
          "name": "index",
          "type": "uint256"
        }
      ],
      "name": "tokenOfOwnerByIndex",
      "outputs": [
        {
          "internalType": "uint256",
          "name": "",
          "type": "uint256"
        }
      ],
      "stateMutability": "view",
      "type": "function",
      "constant": true
    },
    {
      "inputs": [
        {
          "internalType": "uint256",
          "name": "tokenId",
          "type": "uint256"
        }
      ],
      "name": "tokenURI",
      "outputs": [
        {
          "internalType": "string",
          "name": "",
          "type": "string"
        }
      ],
      "stateMutability": "view",
      "type": "function",
      "constant": true
    },
    {
      "inputs": [],
      "name": "totalSupply",
      "outputs": [
        {
          "internalType": "uint256",
          "name": "",
          "type": "uint256"
        }
      ],
      "stateMutability": "view",
      "type": "function",
      "constant": true
    },
    {
      "inputs": [
        {
          "internalType": "address",
          "name": "from",
          "type": "address"
        },
        {
          "internalType": "address",
          "name": "to",
          "type": "address"
        },
        {
          "internalType": "uint256",
          "name": "tokenId",
          "type": "uint256"
        }
      ],
      "name": "transferFrom",
      "outputs": [],
      "stateMutability": "nonpayable",
      "type": "function"
    },
    {
      "inputs": [
        {
          "internalType": "contract Promos",
          "name": "_promos",
          "type": "address"
        }
      ],
      "name": "initialize",
      "outputs": [],
      "stateMutability": "nonpayable",
      "type": "function"
    },
    {
      "inputs": [
        {
          "internalType": "address",
          "name": "minter",
          "type": "address"
        }
      ],
      "name": "mint",
      "outputs": [
        {
          "internalType": "uint256",
          "name": "",
          "type": "uint256"
        }
      ],
      "stateMutability": "nonpayable",
      "type": "function"
    },
    {
      "inputs": [],
      "name": "getOwned",
      "outputs": [
        {
          "internalType": "uint256[]",
          "name": "",
          "type": "uint256[]"
        }
      ],
      "stateMutability": "view",
      "type": "function",
      "constant": true
    },
    {
      "inputs": [
        {
          "internalType": "address",
          "name": "owner",
          "type": "address"
        }
      ],
      "name": "getOwnedBy",
      "outputs": [
        {
          "internalType": "uint256[]",
          "name": "",
          "type": "uint256[]"
        }
      ],
      "stateMutability": "view",
      "type": "function",
      "constant": true
    },
    {
      "inputs": [
        {
          "internalType": "uint256",
          "name": "to",
          "type": "uint256"
        }
      ],
      "name": "setNextTokenID",
      "outputs": [],
      "stateMutability": "nonpayable",
      "type": "function"
    },
    {
      "inputs": [
        {
          "internalType": "string",
          "name": "baseUri",
          "type": "string"
        }
      ],
      "name": "setBaseURI",
      "outputs": [],
      "stateMutability": "nonpayable",
      "type": "function"
    }
  ],
  "bytecode": "0x608060405234801561001057600080fd5b50612b72806100206000396000f3fe608060405234801561001057600080fd5b50600436106102065760003560e01c80636a6278421161011a578063b88d4fde116100ad578063ca15c8731161007c578063ca15c873146107a0578063d547741f146107bd578063e291298f146107e9578063e985e9c51461080f578063f101e4811461083d57610206565b8063b88d4fde1461063f578063c302752514610705578063c4d66de81461075d578063c87b56dd1461078357610206565b806391d14854116100e957806391d14854146105d557806395d89b4114610601578063a217fddf14610609578063a22cb4651461061157610206565b80636a6278421461055e5780636c0360eb1461058457806370a082311461058c5780639010d07c146105b257610206565b80632f745c591161019d57806351e717ac1161016c57806351e717ac1461046e5780635504d3d21461047657806355f804b31461047e5780636352211e1461052457806365bb214c1461054157610206565b80632f745c59146103c357806336568abe146103ef57806342842e0e1461041b5780634f6ccce71461045157610206565b806318160ddd116101d957806318160ddd1461032a57806323b872dd14610344578063248a9ca31461037a5780632f2ff15d1461039757610206565b806301ffc9a71461020b57806306fdde0314610246578063081812fc146102c3578063095ea7b3146102fc575b600080fd5b6102326004803603602081101561022157600080fd5b50356001600160e01b031916610845565b604080519115158252519081900360200190f35b61024e610868565b6040805160208082528351818301528351919283929083019185019080838360005b83811015610288578181015183820152602001610270565b50505050905090810190601f1680156102b55780820380516001836020036101000a031916815260200191505b509250505060405180910390f35b6102e0600480360360208110156102d957600080fd5b50356108ff565b604080516001600160a01b039092168252519081900360200190f35b6103286004803603604081101561031257600080fd5b506001600160a01b038135169060200135610961565b005b610332610a3c565b60408051918252519081900360200190f35b6103286004803603606081101561035a57600080fd5b506001600160a01b03813581169160208101359091169060400135610a4d565b6103326004803603602081101561039057600080fd5b5035610aa4565b610328600480360360408110156103ad57600080fd5b50803590602001356001600160a01b0316610ab9565b610332600480360360408110156103d957600080fd5b506001600160a01b038135169060200135610b25565b6103286004803603604081101561040557600080fd5b50803590602001356001600160a01b0316610b56565b6103286004803603606081101561043157600080fd5b506001600160a01b03813581169160208101359091169060400135610bb7565b6103326004803603602081101561046757600080fd5b5035610bd2565b6102e0610bee565b610332610bfd565b6103286004803603602081101561049457600080fd5b8101906020810181356401000000008111156104af57600080fd5b8201836020820111156104c157600080fd5b803590602001918460018302840111640100000000831117156104e357600080fd5b91908080601f016020809104026020016040519081016040528093929190818152602001838380828437600092019190915250929550610c1f945050505050565b6102e06004803603602081101561053a57600080fd5b5035610c96565b6103286004803603602081101561055757600080fd5b5035610cc4565b6103326004803603602081101561057457600080fd5b50356001600160a01b0316610d34565b61024e610df3565b610332600480360360208110156105a257600080fd5b50356001600160a01b0316610e54565b6102e0600480360360408110156105c857600080fd5b5080359060200135610ebc565b610232600480360360408110156105eb57600080fd5b50803590602001356001600160a01b0316610eda565b61024e610ef8565b610332610f59565b6103286004803603604081101561062757600080fd5b506001600160a01b0381351690602001351515610f5e565b6103286004803603608081101561065557600080fd5b6001600160a01b0382358116926020810135909116916040820135919081019060808101606082013564010000000081111561069057600080fd5b8201836020820111156106a257600080fd5b803590602001918460018302840111640100000000831117156106c457600080fd5b91908080601f016020809104026020016040519081016040528093929190818152602001838380828437600092019190915250929550611063945050505050565b61070d6110c1565b60408051602080825283518183015283519192839290830191858101910280838360005b83811015610749578181015183820152602001610731565b505050509050019250505060405180910390f35b6103286004803603602081101561077357600080fd5b50356001600160a01b03166110cc565b61024e6004803603602081101561079957600080fd5b50356111f8565b610332600480360360208110156107b657600080fd5b503561147b565b610328600480360360408110156107d357600080fd5b50803590602001356001600160a01b0316611492565b61070d600480360360208110156107ff57600080fd5b50356001600160a01b03166114eb565b6102326004803603604081101561082557600080fd5b506001600160a01b0381358116916020013516611576565b6103326115a4565b6001600160e01b0319811660009081526033602052604090205460ff165b919050565b606a8054604080516020601f60026000196101006001881615020190951694909404938401819004810282018101909252828152606093909290918301828280156108f45780601f106108c9576101008083540402835291602001916108f4565b820191906000526020600020905b8154815290600101906020018083116108d757829003601f168201915b505050505090505b90565b600061090a826115aa565b6109455760405162461bcd60e51b815260040180806020018281038252602c815260200180612a38602c913960400191505060405180910390fd5b506000908152606860205260409020546001600160a01b031690565b600061096c82610c96565b9050806001600160a01b0316836001600160a01b031614156109bf5760405162461bcd60e51b8152600401808060200182810382526021815260200180612abc6021913960400191505060405180910390fd5b806001600160a01b03166109d16115bd565b6001600160a01b031614806109f257506109f2816109ed6115bd565b611576565b610a2d5760405162461bcd60e51b815260040180806020018281038252603881526020018061295d6038913960400191505060405180910390fd5b610a3783836115c1565b505050565b6000610a48606661162f565b905090565b610a5e610a586115bd565b8261163a565b610a995760405162461bcd60e51b8152600401808060200182810382526031815260200180612add6031913960400191505060405180910390fd5b610a378383836116de565b60009081526097602052604090206002015490565b600082815260976020526040902060020154610adc90610ad76115bd565b610eda565b610b175760405162461bcd60e51b815260040180806020018281038252602f815260200180612856602f913960400191505060405180910390fd5b610b21828261183c565b5050565b6001600160a01b0382166000908152606560205260408120610b4d908363ffffffff6118ab16565b90505b92915050565b610b5e6115bd565b6001600160a01b0316816001600160a01b031614610bad5760405162461bcd60e51b815260040180806020018281038252602f815260200180612b0e602f913960400191505060405180910390fd5b610b2182826118b7565b610a3783838360405180602001604052806000815250611063565b600080610be660668463ffffffff61192616565b509392505050565b60c9546001600160a01b031681565b604080516923a0a6a2afa0a226a4a760b11b8152905190819003600a01902081565b604080516923a0a6a2afa0a226a4a760b11b8152905190819003600a019020610c489033610eda565b610c8a576040805162461bcd60e51b815260206004820152600e60248201526d2737ba1033b0b6b29030b236b4b760911b604482015290519081900360640190fd5b610c9381611942565b50565b6000610b50826040518060600160405280602981526020016129bf602991396066919063ffffffff61195516565b604080516923a0a6a2afa0a226a4a760b11b8152905190819003600a019020610ced9033610eda565b610d2f576040805162461bcd60e51b815260206004820152600e60248201526d2737ba1033b0b6b29030b236b4b760911b604482015290519081900360640190fd5b60ca55565b604080516923a0a6a2afa0a226a4a760b11b8152905190819003600a019020600090610d609033610eda565b610da2576040805162461bcd60e51b815260206004820152600e60248201526d2737ba1033b0b6b29030b236b4b760911b604482015290519081900360640190fd5b60ca805460018101909155610db7838261196c565b6040516001600160a01b0384169082907fb9203d657e9c0ec8274c818292ab0f58b04e1970050716891770eb1bab5d655e90600090a392915050565b606d8054604080516020601f60026000196101006001881615020190951694909404938401819004810282018101909252828152606093909290918301828280156108f45780601f106108c9576101008083540402835291602001916108f4565b60006001600160a01b038216610e9b5760405162461bcd60e51b815260040180806020018281038252602a815260200180612995602a913960400191505060405180910390fd5b6001600160a01b0382166000908152606560205260409020610b509061162f565b6000828152609760205260408120610b4d908363ffffffff6118ab16565b6000828152609760205260408120610b4d908363ffffffff611aa616565b606b8054604080516020601f60026000196101006001881615020190951694909404938401819004810282018101909252828152606093909290918301828280156108f45780601f106108c9576101008083540402835291602001916108f4565b600081565b610f666115bd565b6001600160a01b0316826001600160a01b03161415610fcc576040805162461bcd60e51b815260206004820152601960248201527f4552433732313a20617070726f766520746f2063616c6c657200000000000000604482015290519081900360640190fd5b8060696000610fd96115bd565b6001600160a01b03908116825260208083019390935260409182016000908120918716808252919093529120805460ff19169215159290921790915561101d6115bd565b60408051841515815290516001600160a01b0392909216917f17307eab39ab6107e8899845ad3d59bd9653f200f220920489ca2b5937696c319181900360200190a35050565b61107461106e6115bd565b8361163a565b6110af5760405162461bcd60e51b8152600401808060200182810382526031815260200180612add6031913960400191505060405180910390fd5b6110bb84848484611abb565b50505050565b6060610a48336114eb565b600054610100900460ff16806110e557506110e5611b0d565b806110f3575060005460ff16155b61112e5760405162461bcd60e51b815260040180806020018281038252602e8152602001806129e8602e913960400191505060405180910390fd5b600054610100900460ff16158015611159576000805460ff1961ff0019909116610100171660011790555b6111b56040518060400160405280601881526020017f43727970746f426c61646573204b6579204c6f6f74626f78000000000000000081525060405180604001604052806005815260200164086849684b60db1b815250611b1e565b6111bd611bdb565b6111c8600033610b17565b60c980546001600160a01b0319166001600160a01b0384161790558015610b21576000805461ff00191690555050565b6060611203826115aa565b61123e5760405162461bcd60e51b815260040180806020018281038252602f815260200180612a8d602f913960400191505060405180910390fd5b6000828152606c602090815260409182902080548351601f60026000196101006001861615020190931692909204918201849004840281018401909452808452606093928301828280156112d35780601f106112a8576101008083540402835291602001916112d3565b820191906000526020600020905b8154815290600101906020018083116112b657829003601f168201915b5050505050905060606112e4610df3565b90508051600014156112f857509050610863565b8151156113b95780826040516020018083805190602001908083835b602083106113335780518252601f199092019160209182019101611314565b51815160209384036101000a600019018019909216911617905285519190930192850191508083835b6020831061137b5780518252601f19909201916020918201910161135c565b6001836020036101000a0380198251168184511680821785525050505050509050019250505060405160208183030381529060405292505050610863565b806113c385611c7c565b6040516020018083805190602001908083835b602083106113f55780518252601f1990920191602091820191016113d6565b51815160209384036101000a600019018019909216911617905285519190930192850191508083835b6020831061143d5780518252601f19909201916020918201910161141e565b6001836020036101000a0380198251168184511680821785525050505050509050019250505060405160208183030381529060405292505050919050565b6000818152609760205260408120610b509061162f565b6000828152609760205260409020600201546114b090610ad76115bd565b610bad5760405162461bcd60e51b815260040180806020018281038252603081526020018061292d6030913960400191505060405180910390fd5b6060806114f783610e54565b67ffffffffffffffff8111801561150d57600080fd5b50604051908082528060200260200182016040528015611537578160200160208202803683370190505b50905060005b815181101561156f576115508482610b25565b82828151811061155c57fe5b602090810291909101015260010161153d565b5092915050565b6001600160a01b03918216600090815260696020908152604080832093909416825291909152205460ff1690565b60ca5481565b6000610b5060668363ffffffff611d5716565b3390565b600081815260686020526040902080546001600160a01b0319166001600160a01b03841690811790915581906115f682610c96565b6001600160a01b03167f8c5be1e5ebec7d5bd14f71427d1e84f3dd0314c0f7b2291e5b200ac8c7c3b92560405160405180910390a45050565b6000610b5082611d63565b6000611645826115aa565b6116805760405162461bcd60e51b815260040180806020018281038252602c815260200180612901602c913960400191505060405180910390fd5b600061168b83610c96565b9050806001600160a01b0316846001600160a01b031614806116c65750836001600160a01b03166116bb846108ff565b6001600160a01b0316145b806116d657506116d68185611576565b949350505050565b826001600160a01b03166116f182610c96565b6001600160a01b0316146117365760405162461bcd60e51b8152600401808060200182810382526029815260200180612a646029913960400191505060405180910390fd5b6001600160a01b03821661177b5760405162461bcd60e51b81526004018080602001828103825260248152602001806128b76024913960400191505060405180910390fd5b611786838383611d67565b6117916000826115c1565b6001600160a01b03831660009081526065602052604090206117b9908263ffffffff611e7e16565b506001600160a01b03821660009081526065602052604090206117e2908263ffffffff611e8a16565b506117f56066828463ffffffff611e9616565b5080826001600160a01b0316846001600160a01b03167fddf252ad1be2c89b69c2b068fc378daa952ba7f163c4a11628f55a4df523b3ef60405160405180910390a4505050565b600082815260976020526040902061185a908263ffffffff611eac16565b15610b21576118676115bd565b6001600160a01b0316816001600160a01b0316837f2f8788117e7eff1d82e926ec794901d17c78024a50270940304540a733656f0d60405160405180910390a45050565b6000610b4d8383611ec1565b60008281526097602052604090206118d5908263ffffffff611f2516565b15610b21576118e26115bd565b6001600160a01b0316816001600160a01b0316837ff6391f5c32d9c69d2a47ea670b442974b53935d1edc7fd64eb21e047a839171b60405160405180910390a45050565b60008080806119358686611f3a565b9097909650945050505050565b8051610b2190606d90602084019061279b565b6000611962848484611fb5565b90505b9392505050565b6001600160a01b0382166119c7576040805162461bcd60e51b815260206004820181905260248201527f4552433732313a206d696e7420746f20746865207a65726f2061646472657373604482015290519081900360640190fd5b6119d0816115aa565b15611a22576040805162461bcd60e51b815260206004820152601c60248201527f4552433732313a20746f6b656e20616c7265616479206d696e74656400000000604482015290519081900360640190fd5b611a2e60008383611d67565b6001600160a01b0382166000908152606560205260409020611a56908263ffffffff611e8a16565b50611a696066828463ffffffff611e9616565b5060405181906001600160a01b038416906000907fddf252ad1be2c89b69c2b068fc378daa952ba7f163c4a11628f55a4df523b3ef908290a45050565b6000610b4d836001600160a01b03841661207f565b611ac68484846116de565b611ad284848484612097565b6110bb5760405162461bcd60e51b81526004018080602001828103825260328152602001806128856032913960400191505060405180910390fd5b6000611b1830612217565b15905090565b600054610100900460ff1680611b375750611b37611b0d565b80611b45575060005460ff16155b611b805760405162461bcd60e51b815260040180806020018281038252602e8152602001806129e8602e913960400191505060405180910390fd5b600054610100900460ff16158015611bab576000805460ff1961ff0019909116610100171660011790555b611bb3611bdb565b611bbb61221d565b611bc583836122ba565b8015610a37576000805461ff0019169055505050565b600054610100900460ff1680611bf45750611bf4611b0d565b80611c02575060005460ff16155b611c3d5760405162461bcd60e51b815260040180806020018281038252602e8152602001806129e8602e913960400191505060405180910390fd5b600054610100900460ff16158015611c68576000805460ff1961ff0019909116610100171660011790555b8015610c93576000805461ff001916905550565b606081611ca157506040805180820190915260018152600360fc1b6020820152610863565b8160005b8115611cb957600101600a82049150611ca5565b60608167ffffffffffffffff81118015611cd257600080fd5b506040519080825280601f01601f191660200182016040528015611cfd576020820181803683370190505b50859350905060001982015b8315611d4e57600a840660300160f81b82828060019003935081518110611d2c57fe5b60200101906001600160f81b031916908160001a905350600a84049350611d09565b50949350505050565b6000610b4d838361207f565b5490565b60c9546040805163434d82a360e01b81526001600160a01b0386811660048381019190915260248301529151919092169163434d82a3916044808301926020929190829003018186803b158015611dbd57600080fd5b505afa158015611dd1573d6000803e3d6000fd5b505050506040513d6020811015611de757600080fd5b5051158015611e75575060c9546040805163434d82a360e01b81526001600160a01b0385811660048381019190915260248301529151919092169163434d82a3916044808301926020929190829003018186803b158015611e4757600080fd5b505afa158015611e5b573d6000803e3d6000fd5b505050506040513d6020811015611e7157600080fd5b5051155b610a3757600080fd5b6000610b4d838361239f565b6000610b4d8383612465565b600061196284846001600160a01b0385166124af565b6000610b4d836001600160a01b038416612465565b81546000908210611f035760405162461bcd60e51b81526004018080602001828103825260228152602001806128346022913960400191505060405180910390fd5b826000018281548110611f1257fe5b9060005260206000200154905092915050565b6000610b4d836001600160a01b03841661239f565b815460009081908310611f7e5760405162461bcd60e51b8152600401808060200182810382526022815260200180612a166022913960400191505060405180910390fd5b6000846000018481548110611f8f57fe5b906000526020600020906002020190508060000154816001015492509250509250929050565b600082815260018401602052604081205482816120505760405162461bcd60e51b81526004018080602001828103825283818151815260200191508051906020019080838360005b83811015612015578181015183820152602001611ffd565b50505050905090810190601f1680156120425780820380516001836020036101000a031916815260200191505b509250505060405180910390fd5b5084600001600182038154811061206357fe5b9060005260206000209060020201600101549150509392505050565b60009081526001919091016020526040902054151590565b60006120ab846001600160a01b0316612217565b6120b7575060016116d6565b60606121dd630a85bd0160e11b6120cc6115bd565b88878760405160240180856001600160a01b03166001600160a01b03168152602001846001600160a01b03166001600160a01b0316815260200183815260200180602001828103825283818151815260200191508051906020019080838360005b8381101561214557818101518382015260200161212d565b50505050905090810190601f1680156121725780820380516001836020036101000a031916815260200191505b5095505050505050604051602081830303815290604052906001600160e01b0319166020820180516001600160e01b038381831617835250505050604051806060016040528060328152602001612885603291396001600160a01b038816919063ffffffff61254616565b905060008180602001905160208110156121f657600080fd5b50516001600160e01b031916630a85bd0160e11b1492505050949350505050565b3b151590565b600054610100900460ff16806122365750612236611b0d565b80612244575060005460ff16155b61227f5760405162461bcd60e51b815260040180806020018281038252602e8152602001806129e8602e913960400191505060405180910390fd5b600054610100900460ff161580156122aa576000805460ff1961ff0019909116610100171660011790555b611c686301ffc9a760e01b612555565b600054610100900460ff16806122d357506122d3611b0d565b806122e1575060005460ff16155b61231c5760405162461bcd60e51b815260040180806020018281038252602e8152602001806129e8602e913960400191505060405180910390fd5b600054610100900460ff16158015612347576000805460ff1961ff0019909116610100171660011790555b825161235a90606a90602086019061279b565b50815161236e90606b90602085019061279b565b5061237f6380ac58cd60e01b612555565b61238f635b5e139f60e01b612555565b611bc563780e9d6360e01b612555565b6000818152600183016020526040812054801561245b57835460001980830191908101906000908790839081106123d257fe5b90600052602060002001549050808760000184815481106123ef57fe5b60009182526020808320909101929092558281526001898101909252604090209084019055865487908061241f57fe5b60019003818190600052602060002001600090559055866001016000878152602001908152602001600020600090556001945050505050610b50565b6000915050610b50565b6000612471838361207f565b6124a757508154600181810184556000848152602080822090930184905584548482528286019093526040902091909155610b50565b506000610b50565b600082815260018401602052604081205480612514575050604080518082018252838152602080820184815286546001818101895560008981528481209551600290930290950191825591519082015586548684528188019092529290912055611965565b8285600001600183038154811061252757fe5b9060005260206000209060020201600101819055506000915050611965565b606061196284846000856125d9565b6001600160e01b031980821614156125b4576040805162461bcd60e51b815260206004820152601c60248201527f4552433136353a20696e76616c696420696e7465726661636520696400000000604482015290519081900360640190fd5b6001600160e01b0319166000908152603360205260409020805460ff19166001179055565b60608247101561261a5760405162461bcd60e51b81526004018080602001828103825260268152602001806128db6026913960400191505060405180910390fd5b61262385612217565b612674576040805162461bcd60e51b815260206004820152601d60248201527f416464726573733a2063616c6c20746f206e6f6e2d636f6e7472616374000000604482015290519081900360640190fd5b60006060866001600160a01b031685876040518082805190602001908083835b602083106126b35780518252601f199092019160209182019101612694565b6001836020036101000a03801982511681845116808217855250505050505090500191505060006040518083038185875af1925050503d8060008114612715576040519150601f19603f3d011682016040523d82523d6000602084013e61271a565b606091505b509150915061272a828286612735565b979650505050505050565b60608315612744575081611965565b8251156127545782518084602001fd5b60405162461bcd60e51b8152602060048201818152845160248401528451859391928392604401919085019080838360008315612015578181015183820152602001611ffd565b828054600181600116156101000203166002900490600052602060002090601f016020900481019282601f106127dc57805160ff1916838001178555612809565b82800160010185558215612809579182015b828111156128095782518255916020019190600101906127ee565b50612815929150612819565b5090565b6108fc91905b80821115612815576000815560010161281f56fe456e756d657261626c655365743a20696e646578206f7574206f6620626f756e6473416363657373436f6e74726f6c3a2073656e646572206d75737420626520616e2061646d696e20746f206772616e744552433732313a207472616e7366657220746f206e6f6e20455243373231526563656976657220696d706c656d656e7465724552433732313a207472616e7366657220746f20746865207a65726f2061646472657373416464726573733a20696e73756666696369656e742062616c616e636520666f722063616c6c4552433732313a206f70657261746f7220717565727920666f72206e6f6e6578697374656e7420746f6b656e416363657373436f6e74726f6c3a2073656e646572206d75737420626520616e2061646d696e20746f207265766f6b654552433732313a20617070726f76652063616c6c6572206973206e6f74206f776e6572206e6f7220617070726f76656420666f7220616c6c4552433732313a2062616c616e636520717565727920666f7220746865207a65726f20616464726573734552433732313a206f776e657220717565727920666f72206e6f6e6578697374656e7420746f6b656e496e697469616c697a61626c653a20636f6e747261637420697320616c726561647920696e697469616c697a6564456e756d657261626c654d61703a20696e646578206f7574206f6620626f756e64734552433732313a20617070726f76656420717565727920666f72206e6f6e6578697374656e7420746f6b656e4552433732313a207472616e73666572206f6620746f6b656e2074686174206973206e6f74206f776e4552433732314d657461646174613a2055524920717565727920666f72206e6f6e6578697374656e7420746f6b656e4552433732313a20617070726f76616c20746f2063757272656e74206f776e65724552433732313a207472616e736665722063616c6c6572206973206e6f74206f776e6572206e6f7220617070726f766564416363657373436f6e74726f6c3a2063616e206f6e6c792072656e6f756e636520726f6c657320666f722073656c66a2646970667358221220f2b75ab0b0d4b26e21ebb615adc9cea54455091973bbf89fad84850c0817d6f464736f6c63430006050033",
  "immutableReferences": {},
  "source": "pragma solidity ^0.6.0;\r\n\r\nimport \"@openzeppelin/contracts-upgradeable/proxy/Initializable.sol\";\r\nimport \"@openzeppelin/contracts-upgradeable/token/ERC721/ERC721Upgradeable.sol\";\r\nimport \"@openzeppelin/contracts-upgradeable/access/AccessControlUpgradeable.sol\";\r\nimport \"@openzeppelin/contracts/math/SafeMath.sol\";\r\nimport \"abdk-libraries-solidity/ABDKMath64x64.sol\";\r\nimport \"../Promos.sol\";\r\n\r\ncontract KeyLootbox is Initializable, ERC721Upgradeable, AccessControlUpgradeable {\r\n\r\n    bytes32 public constant GAME_ADMIN = keccak256(\"GAME_ADMIN\");\r\n\r\n    Promos public promos;\r\n\r\n    uint256 public nextTokenID;\r\n    \r\n    event Minted(uint256 indexed id, address indexed minter);\r\n\r\n    function initialize (Promos _promos) public initializer {\r\n        __ERC721_init(\"CryptoBlades Key Lootbox\", \"CBKBX\");\r\n        __AccessControl_init_unchained();\r\n\r\n        _setupRole(DEFAULT_ADMIN_ROLE, msg.sender);\r\n\r\n        promos = _promos;\r\n    }\r\n\r\n    modifier restricted() {\r\n        require(hasRole(GAME_ADMIN, msg.sender), \"Not game admin\");\r\n        _;\r\n    }\r\n\r\n    function mint(address minter) public restricted returns(uint256) {\r\n\r\n        uint256 tokenID = nextTokenID++;\r\n        _mint(minter, tokenID);\r\n        emit Minted(tokenID, minter);\r\n        return tokenID;\r\n    }\r\n\r\n    function _beforeTokenTransfer(address from, address to, uint256 tokenId) internal override {\r\n        require(promos.getBit(from, 4) == false && promos.getBit(to, 4) == false);\r\n    }\r\n\r\n    function getOwned() public view returns(uint256[] memory) {\r\n        return getOwnedBy(msg.sender);\r\n    }\r\n\r\n    function getOwnedBy(address owner) public view returns(uint256[] memory) {\r\n        uint256[] memory tokens = new uint256[](balanceOf(owner));\r\n        for(uint256 i = 0; i < tokens.length; i++) {\r\n            tokens[i] = tokenOfOwnerByIndex(owner, i);\r\n        }\r\n        return tokens;\r\n    }\r\n\r\n    function setNextTokenID(uint to) public restricted {\r\n        nextTokenID = to;\r\n    }\r\n\r\n    function setBaseURI(string memory baseUri) public restricted {\r\n        _setBaseURI(baseUri);\r\n    }\r\n}",
  "sourcePath": "K:\\\\cryptoblades1\\cryptoblades\\contracts\\items\\KeyLootbox.sol",
  "compiler": {
    "name": "solc",
    "version": "0.6.5+commit.f956cc89.Emscripten.clang"
  },
  "schemaVersion": "3.4.5",
  "updatedAt": "2022-09-25T08:02:15.654Z",
  "networkType": "ethereum",
  "devdoc": {
    "methods": {
      "approve(address,uint256)": {
        "details": "See {IERC721-approve}."
      },
      "balanceOf(address)": {
        "details": "See {IERC721-balanceOf}."
      },
      "baseURI()": {
        "details": "Returns the base URI set via {_setBaseURI}. This will be automatically added as a prefix in {tokenURI} to each token's URI, or to the token ID if no specific URI is set for that token ID."
      },
      "getApproved(uint256)": {
        "details": "See {IERC721-getApproved}."
      },
      "getRoleAdmin(bytes32)": {
        "details": "Returns the admin role that controls `role`. See {grantRole} and {revokeRole}.     * To change a role's admin, use {_setRoleAdmin}."
      },
      "getRoleMember(bytes32,uint256)": {
        "details": "Returns one of the accounts that have `role`. `index` must be a value between 0 and {getRoleMemberCount}, non-inclusive.     * Role bearers are not sorted in any particular way, and their ordering may change at any point.     * WARNING: When using {getRoleMember} and {getRoleMemberCount}, make sure you perform all queries on the same block. See the following https://forum.openzeppelin.com/t/iterating-over-elements-on-enumerableset-in-openzeppelin-contracts/2296[forum post] for more information."
      },
      "getRoleMemberCount(bytes32)": {
        "details": "Returns the number of accounts that have `role`. Can be used together with {getRoleMember} to enumerate all bearers of a role."
      },
      "grantRole(bytes32,address)": {
        "details": "Grants `role` to `account`.     * If `account` had not been already granted `role`, emits a {RoleGranted} event.     * Requirements:     * - the caller must have ``role``'s admin role."
      },
      "hasRole(bytes32,address)": {
        "details": "Returns `true` if `account` has been granted `role`."
      },
      "isApprovedForAll(address,address)": {
        "details": "See {IERC721-isApprovedForAll}."
      },
      "name()": {
        "details": "See {IERC721Metadata-name}."
      },
      "ownerOf(uint256)": {
        "details": "See {IERC721-ownerOf}."
      },
      "renounceRole(bytes32,address)": {
        "details": "Revokes `role` from the calling account.     * Roles are often managed via {grantRole} and {revokeRole}: this function's purpose is to provide a mechanism for accounts to lose their privileges if they are compromised (such as when a trusted device is misplaced).     * If the calling account had been granted `role`, emits a {RoleRevoked} event.     * Requirements:     * - the caller must be `account`."
      },
      "revokeRole(bytes32,address)": {
        "details": "Revokes `role` from `account`.     * If `account` had been granted `role`, emits a {RoleRevoked} event.     * Requirements:     * - the caller must have ``role``'s admin role."
      },
      "safeTransferFrom(address,address,uint256)": {
        "details": "See {IERC721-safeTransferFrom}."
      },
      "safeTransferFrom(address,address,uint256,bytes)": {
        "details": "See {IERC721-safeTransferFrom}."
      },
      "setApprovalForAll(address,bool)": {
        "details": "See {IERC721-setApprovalForAll}."
      },
      "supportsInterface(bytes4)": {
        "details": "See {IERC165-supportsInterface}.     * Time complexity O(1), guaranteed to always use less than 30 000 gas."
      },
      "symbol()": {
        "details": "See {IERC721Metadata-symbol}."
      },
      "tokenByIndex(uint256)": {
        "details": "See {IERC721Enumerable-tokenByIndex}."
      },
      "tokenOfOwnerByIndex(address,uint256)": {
        "details": "See {IERC721Enumerable-tokenOfOwnerByIndex}."
      },
      "tokenURI(uint256)": {
        "details": "See {IERC721Metadata-tokenURI}."
      },
      "totalSupply()": {
        "details": "See {IERC721Enumerable-totalSupply}."
      },
      "transferFrom(address,address,uint256)": {
        "details": "See {IERC721-transferFrom}."
      }
    }
  },
  "userdoc": {
    "methods": {}
  }
}