{
  "contractName": "KingStakingRewardsUpgradeable",
  "abi": [
    {
      "anonymous": false,
      "inputs": [],
      "name": "FailsafeModeEnabled",
      "type": "event"
    },
    {
      "anonymous": false,
      "inputs": [
        {
          "indexed": false,
          "internalType": "uint256",
          "name": "newMinimumStakeAmount",
          "type": "uint256"
        }
      ],
      "name": "MinimumStakeAmountUpdated",
      "type": "event"
    },
    {
      "anonymous": false,
      "inputs": [
        {
          "indexed": false,
          "internalType": "uint256",
          "name": "newMinimumStakeTime",
          "type": "uint256"
        }
      ],
      "name": "MinimumStakeTimeUpdated",
      "type": "event"
    },
    {
      "anonymous": false,
      "inputs": [
        {
          "indexed": true,
          "internalType": "address",
          "name": "previousOwner",
          "type": "address"
        },
        {
          "indexed": true,
          "internalType": "address",
          "name": "newOwner",
          "type": "address"
        }
      ],
      "name": "OwnershipTransferred",
      "type": "event"
    },
    {
      "anonymous": false,
      "inputs": [
        {
          "indexed": false,
          "internalType": "address",
          "name": "account",
          "type": "address"
        }
      ],
      "name": "Paused",
      "type": "event"
    },
    {
      "anonymous": false,
      "inputs": [
        {
          "indexed": false,
          "internalType": "address",
          "name": "token",
          "type": "address"
        },
        {
          "indexed": false,
          "internalType": "uint256",
          "name": "amount",
          "type": "uint256"
        }
      ],
      "name": "Recovered",
      "type": "event"
    },
    {
      "anonymous": false,
      "inputs": [
        {
          "indexed": false,
          "internalType": "uint256",
          "name": "reward",
          "type": "uint256"
        }
      ],
      "name": "RewardAdded",
      "type": "event"
    },
    {
      "anonymous": false,
      "inputs": [
        {
          "indexed": true,
          "internalType": "address",
          "name": "user",
          "type": "address"
        },
        {
          "indexed": false,
          "internalType": "uint256",
          "name": "reward",
          "type": "uint256"
        }
      ],
      "name": "RewardPaid",
      "type": "event"
    },
    {
      "anonymous": false,
      "inputs": [
        {
          "indexed": false,
          "internalType": "uint256",
          "name": "newDuration",
          "type": "uint256"
        }
      ],
      "name": "RewardsDurationUpdated",
      "type": "event"
    },
    {
      "anonymous": false,
      "inputs": [
        {
          "indexed": true,
          "internalType": "address",
          "name": "user",
          "type": "address"
        },
        {
          "indexed": false,
          "internalType": "uint256",
          "name": "amount",
          "type": "uint256"
        }
      ],
      "name": "Staked",
      "type": "event"
    },
    {
      "anonymous": false,
      "inputs": [
        {
          "indexed": false,
          "internalType": "address",
          "name": "account",
          "type": "address"
        }
      ],
      "name": "Unpaused",
      "type": "event"
    },
    {
      "anonymous": false,
      "inputs": [
        {
          "indexed": true,
          "internalType": "address",
          "name": "user",
          "type": "address"
        },
        {
          "indexed": false,
          "internalType": "uint256",
          "name": "amount",
          "type": "uint256"
        }
      ],
      "name": "Withdrawn",
      "type": "event"
    },
    {
      "inputs": [
        {
          "internalType": "address",
          "name": "account",
          "type": "address"
        }
      ],
      "name": "balanceOf",
      "outputs": [
        {
          "internalType": "uint256",
          "name": "",
          "type": "uint256"
        }
      ],
      "stateMutability": "view",
      "type": "function"
    },
    {
      "inputs": [
        {
          "internalType": "address",
          "name": "account",
          "type": "address"
        }
      ],
      "name": "earned",
      "outputs": [
        {
          "internalType": "uint256",
          "name": "",
          "type": "uint256"
        }
      ],
      "stateMutability": "view",
      "type": "function"
    },
    {
      "inputs": [],
      "name": "enableFailsafeMode",
      "outputs": [],
      "stateMutability": "nonpayable",
      "type": "function"
    },
    {
      "inputs": [],
      "name": "exit",
      "outputs": [],
      "stateMutability": "nonpayable",
      "type": "function"
    },
    {
      "inputs": [],
      "name": "failsafeModeActive",
      "outputs": [
        {
          "internalType": "bool",
          "name": "",
          "type": "bool"
        }
      ],
      "stateMutability": "view",
      "type": "function"
    },
    {
      "inputs": [],
      "name": "getReward",
      "outputs": [],
      "stateMutability": "nonpayable",
      "type": "function"
    },
    {
      "inputs": [],
      "name": "getRewardForDuration",
      "outputs": [
        {
          "internalType": "uint256",
          "name": "",
          "type": "uint256"
        }
      ],
      "stateMutability": "view",
      "type": "function"
    },
    {
      "inputs": [],
      "name": "getStakeRewardDistributionTimeLeft",
      "outputs": [
        {
          "internalType": "uint256",
          "name": "",
          "type": "uint256"
        }
      ],
      "stateMutability": "view",
      "type": "function"
    },
    {
      "inputs": [],
      "name": "getStakeUnlockTimeLeft",
      "outputs": [
        {
          "internalType": "uint256",
          "name": "",
          "type": "uint256"
        }
      ],
      "stateMutability": "view",
      "type": "function"
    },
    {
      "inputs": [
        {
          "internalType": "address",
          "name": "_owner",
          "type": "address"
        },
        {
          "internalType": "address",
          "name": "_rewardsDistribution",
          "type": "address"
        },
        {
          "internalType": "address",
          "name": "_rewardsToken",
          "type": "address"
        },
        {
          "internalType": "address",
          "name": "_stakingToken",
          "type": "address"
        },
        {
          "internalType": "uint256",
          "name": "_minimumStakeTime",
          "type": "uint256"
        }
      ],
      "name": "initialize",
      "outputs": [],
      "stateMutability": "nonpayable",
      "type": "function"
    },
    {
      "inputs": [],
      "name": "lastTimeRewardApplicable",
      "outputs": [
        {
          "internalType": "uint256",
          "name": "",
          "type": "uint256"
        }
      ],
      "stateMutability": "view",
      "type": "function"
    },
    {
      "inputs": [],
      "name": "lastUpdateTime",
      "outputs": [
        {
          "internalType": "uint256",
          "name": "",
          "type": "uint256"
        }
      ],
      "stateMutability": "view",
      "type": "function"
    },
    {
      "inputs": [
        {
          "internalType": "uint256",
          "name": "_minimumStakeAmount",
          "type": "uint256"
        }
      ],
      "name": "migrateTo_8cb6e70",
      "outputs": [],
      "stateMutability": "nonpayable",
      "type": "function"
    },
    {
      "inputs": [],
      "name": "minimumStakeAmount",
      "outputs": [
        {
          "internalType": "uint256",
          "name": "",
          "type": "uint256"
        }
      ],
      "stateMutability": "view",
      "type": "function"
    },
    {
      "inputs": [],
      "name": "minimumStakeTime",
      "outputs": [
        {
          "internalType": "uint256",
          "name": "",
          "type": "uint256"
        }
      ],
      "stateMutability": "view",
      "type": "function"
    },
    {
      "inputs": [
        {
          "internalType": "uint256",
          "name": "reward",
          "type": "uint256"
        }
      ],
      "name": "notifyRewardAmount",
      "outputs": [],
      "stateMutability": "nonpayable",
      "type": "function"
    },
    {
      "inputs": [],
      "name": "owner",
      "outputs": [
        {
          "internalType": "address",
          "name": "",
          "type": "address"
        }
      ],
      "stateMutability": "view",
      "type": "function"
    },
    {
      "inputs": [],
      "name": "pause",
      "outputs": [],
      "stateMutability": "nonpayable",
      "type": "function"
    },
    {
      "inputs": [],
      "name": "paused",
      "outputs": [
        {
          "internalType": "bool",
          "name": "",
          "type": "bool"
        }
      ],
      "stateMutability": "view",
      "type": "function"
    },
    {
      "inputs": [],
      "name": "periodFinish",
      "outputs": [
        {
          "internalType": "uint256",
          "name": "",
          "type": "uint256"
        }
      ],
      "stateMutability": "view",
      "type": "function"
    },
    {
      "inputs": [
        {
          "internalType": "address",
          "name": "tokenAddress",
          "type": "address"
        },
        {
          "internalType": "uint256",
          "name": "tokenAmount",
          "type": "uint256"
        }
      ],
      "name": "recoverERC20",
      "outputs": [],
      "stateMutability": "nonpayable",
      "type": "function"
    },
    {
      "inputs": [],
      "name": "recoverExtraStakingTokensToOwner",
      "outputs": [],
      "stateMutability": "nonpayable",
      "type": "function"
    },
    {
      "inputs": [],
      "name": "recoverOwnStake",
      "outputs": [],
      "stateMutability": "nonpayable",
      "type": "function"
    },
    {
      "inputs": [],
      "name": "renounceOwnership",
      "outputs": [],
      "stateMutability": "nonpayable",
      "type": "function"
    },
    {
      "inputs": [],
      "name": "rewardPerToken",
      "outputs": [
        {
          "internalType": "uint256",
          "name": "",
          "type": "uint256"
        }
      ],
      "stateMutability": "view",
      "type": "function"
    },
    {
      "inputs": [],
      "name": "rewardPerTokenStored",
      "outputs": [
        {
          "internalType": "uint256",
          "name": "",
          "type": "uint256"
        }
      ],
      "stateMutability": "view",
      "type": "function"
    },
    {
      "inputs": [],
      "name": "rewardRate",
      "outputs": [
        {
          "internalType": "uint256",
          "name": "",
          "type": "uint256"
        }
      ],
      "stateMutability": "view",
      "type": "function"
    },
    {
      "inputs": [
        {
          "internalType": "address",
          "name": "",
          "type": "address"
        }
      ],
      "name": "rewards",
      "outputs": [
        {
          "internalType": "uint256",
          "name": "",
          "type": "uint256"
        }
      ],
      "stateMutability": "view",
      "type": "function"
    },
    {
      "inputs": [],
      "name": "rewardsDistribution",
      "outputs": [
        {
          "internalType": "address",
          "name": "",
          "type": "address"
        }
      ],
      "stateMutability": "view",
      "type": "function"
    },
    {
      "inputs": [],
      "name": "rewardsDuration",
      "outputs": [
        {
          "internalType": "uint256",
          "name": "",
          "type": "uint256"
        }
      ],
      "stateMutability": "view",
      "type": "function"
    },
    {
      "inputs": [],
      "name": "rewardsToken",
      "outputs": [
        {
          "internalType": "contract IERC20",
          "name": "",
          "type": "address"
        }
      ],
      "stateMutability": "view",
      "type": "function"
    },
    {
      "inputs": [
        {
          "internalType": "uint256",
          "name": "_minimumStakeAmount",
          "type": "uint256"
        }
      ],
      "name": "setMinimumStakeAmount",
      "outputs": [],
      "stateMutability": "nonpayable",
      "type": "function"
    },
    {
      "inputs": [
        {
          "internalType": "uint256",
          "name": "_minimumStakeTime",
          "type": "uint256"
        }
      ],
      "name": "setMinimumStakeTime",
      "outputs": [],
      "stateMutability": "nonpayable",
      "type": "function"
    },
    {
      "inputs": [
        {
          "internalType": "address",
          "name": "_rewardsDistribution",
          "type": "address"
        }
      ],
      "name": "setRewardsDistribution",
      "outputs": [],
      "stateMutability": "nonpayable",
      "type": "function"
    },
    {
      "inputs": [
        {
          "internalType": "uint256",
          "name": "_rewardsDuration",
          "type": "uint256"
        }
      ],
      "name": "setRewardsDuration",
      "outputs": [],
      "stateMutability": "nonpayable",
      "type": "function"
    },
    {
      "inputs": [
        {
          "internalType": "uint256",
          "name": "amount",
          "type": "uint256"
        }
      ],
      "name": "stake",
      "outputs": [],
      "stateMutability": "nonpayable",
      "type": "function"
    },
    {
      "inputs": [],
      "name": "stakingToken",
      "outputs": [
        {
          "internalType": "contract IERC20",
          "name": "",
          "type": "address"
        }
      ],
      "stateMutability": "view",
      "type": "function"
    },
    {
      "inputs": [],
      "name": "totalSupply",
      "outputs": [
        {
          "internalType": "uint256",
          "name": "",
          "type": "uint256"
        }
      ],
      "stateMutability": "view",
      "type": "function"
    },
    {
      "inputs": [
        {
          "internalType": "address",
          "name": "newOwner",
          "type": "address"
        }
      ],
      "name": "transferOwnership",
      "outputs": [],
      "stateMutability": "nonpayable",
      "type": "function"
    },
    {
      "inputs": [],
      "name": "unpause",
      "outputs": [],
      "stateMutability": "nonpayable",
      "type": "function"
    },
    {
      "inputs": [
        {
          "internalType": "uint256",
          "name": "timestamp",
          "type": "uint256"
        }
      ],
      "name": "updatePeriodFinish",
      "outputs": [],
      "stateMutability": "nonpayable",
      "type": "function"
    },
    {
      "inputs": [
        {
          "internalType": "address",
          "name": "",
          "type": "address"
        }
      ],
      "name": "userRewardPerTokenPaid",
      "outputs": [
        {
          "internalType": "uint256",
          "name": "",
          "type": "uint256"
        }
      ],
      "stateMutability": "view",
      "type": "function"
    },
    {
      "inputs": [
        {
          "internalType": "uint256",
          "name": "amount",
          "type": "uint256"
        }
      ],
      "name": "withdraw",
      "outputs": [],
      "stateMutability": "nonpayable",
      "type": "function"
    },
    {
      "inputs": [
        {
          "internalType": "uint256",
          "name": "amount",
          "type": "uint256"
        }
      ],
      "name": "withdrawWithoutFee",
      "outputs": [],
      "stateMutability": "nonpayable",
      "type": "function"
    },
    {
      "inputs": [],
      "name": "getRewardWithoutFee",
      "outputs": [],
      "stateMutability": "nonpayable",
      "type": "function"
    }
  ],
  "bytecode": "0x608060405234801561001057600080fd5b50612eaa806100206000396000f3fe608060405234801561001057600080fd5b506004361061027e5760003560e01c8063715018a61161015c578063cc1a378f116100ce578063e9fad8ee11610087578063e9fad8ee14610561578063ebe2b12b14610569578063f2fde38b14610571578063f603944c14610597578063f7013ef61461059f578063ff994033146105e55761027e565b8063cc1a378f14610507578063cd3daf9d14610524578063d1af0c7d1461052c578063df136d6514610534578063e2adc2371461053c578063e9422046146105445761027e565b80638980f11f116101205780638980f11f146104805780638b876347146104ac5780638da5cb5b146104d2578063a694fc3a146104da578063a90ca1ef146104f7578063c8f33c91146104ff5761027e565b8063715018a61461045857806372f702f3146104605780637b0a47ee1461046857806380faa57d146104705780638456cb59146104785761027e565b8063386a9525116101f557806344142db5116101b957806344142db5146103e057806352a6c234146103e8578063556f6e6b146104055780635c975abb146104225780636b036f451461042a57806370a08231146104325761027e565b8063386a9525146103875780633c6b16ab1461038f5780633d18b912146103ac5780633f4ba83a146103b45780633fc6df6e146103bc5761027e565b8063197621431161024757806319762143146103245780631c1f78eb1461034a578063242df9e11461035257806327ab19691461035a5780632e1a7d4d146103625780632f3d3b141461037f5761027e565b80628cc262146102835780630700037d146102bb5780630d29fcd4146102e15780631265cc971461030057806318160ddd1461031c575b600080fd5b6102a96004803603602081101561029957600080fd5b50356001600160a01b0316610602565b60408051918252519081900360200190f35b6102a9600480360360208110156102d157600080fd5b50356001600160a01b0316610698565b6102fe600480360360208110156102f757600080fd5b50356106aa565b005b610308610789565b604080519115158252519081900360200190f35b6102a9610792565b6102fe6004803603602081101561033a57600080fd5b50356001600160a01b0316610799565b6102a961081d565b6102a961083b565b6102a9610841565b6102fe6004803603602081101561037857600080fd5b5035610874565b6102fe610a22565b6102a9610ade565b6102fe600480360360208110156103a557600080fd5b5035610ae4565b6102fe610d82565b6102fe610f7e565b6103c461103a565b604080516001600160a01b039092168252519081900360200190f35b6102fe611049565b6102fe600480360360208110156103fe57600080fd5b5035611166565b6102fe6004803603602081101561041b57600080fd5b50356111b8565b610308611309565b6102a9611317565b6102a96004803603602081101561044857600080fd5b50356001600160a01b031661131d565b6102fe611338565b6103c46113e4565b6102a96113f3565b6102a96113f9565b6102fe611407565b6102fe6004803603604081101561049657600080fd5b506001600160a01b0381351690602001356114be565b6102a9600480360360208110156104c257600080fd5b50356001600160a01b03166115d7565b6103c46115e9565b6102fe600480360360208110156104f057600080fd5b50356115f8565b6102fe611772565b6102a96117d4565b6102fe6004803603602081101561051d57600080fd5b50356117da565b6102a96118f9565b6103c4611953565b6102a9611962565b6102fe611968565b6102fe6004803603602081101561055a57600080fd5b5035611a2d565b6102fe611b0c565b6102a9611b6f565b6102fe6004803603602081101561058757600080fd5b50356001600160a01b0316611b75565b6102a9611c78565b6102fe600480360360a08110156105b557600080fd5b506001600160a01b0381358116916020810135821691604082013581169160608101359091169060800135611cc3565b6102fe600480360360208110156105fb57600080fd5b5035611df6565b6001600160a01b038116600090815260d3602090815260408083205460d2909252822054610692919061068690670de0b6b3a76400009061067a90610655906106496118f9565b9063ffffffff611e5d16565b6001600160a01b038816600090815260d560205260409020549063ffffffff611eba16565b9063ffffffff611f1a16565b9063ffffffff611f8116565b92915050565b60d36020526000908152604090205481565b60985460ff16156106ec5760405162461bcd60e51b8152600401808060200182810382526046815260200180612c256046913960600191505060405180910390fd5b6106f4611fdb565b6001600160a01b03166107056115e9565b6001600160a01b03161461074e576040805162461bcd60e51b81526020600482018190526024820152600080516020612d4e833981519152604482015290519081900360640190fd5b60d88190556040805182815290517ff7fc4cb95c43f64f7a376fd9ef5947d85e6aff2df3e9b1715789ffff63d716329181900360200190a150565b60985460ff1681565b60d4545b90565b6107a1611fdb565b6001600160a01b03166107b26115e9565b6001600160a01b0316146107fb576040805162461bcd60e51b81526020600482018190526024820152600080516020612d4e833981519152604482015290519081900360640190fd5b606580546001600160a01b0319166001600160a01b0392909216919091179055565b600061083660ce5460cd54611eba90919063ffffffff16565b905090565b60cf5481565b600080600061085b4260cc54611fdf90919063ffffffff16565b915091508161086b57600061086d565b805b9250505090565b60985460ff16156108b65760405162461bcd60e51b8152600401808060200182810382526046815260200180612c256046913960600191505060405180910390fd5b6002606654141561090e576040805162461bcd60e51b815260206004820152601f60248201527f5265656e7472616e637947756172643a207265656e7472616e742063616c6c00604482015290519081900360640190fd5b6002606655609854339060ff16610979576109276118f9565b60d1556109326113f9565b60d0556001600160a01b038116156109795761094d81610602565b6001600160a01b038216600090815260d3602090815260408083209390935560d15460d2909152919020555b60cf5415806109aa575060cf5433600090815260d660205260409020546109a790429063ffffffff611e5d16565b10155b806109b757504260cc5411155b6109f25760405162461bcd60e51b8152600401808060200182810382526035815260200180612d6e6035913960400191505060405180910390fd5b6109fc3383612005565b60cb54610a19906001600160a01b0316338463ffffffff61212916565b50506001606655565b60985460ff16610a635760405162461bcd60e51b8152600401808060200182810382526048815260200180612c6b6048913960600191505060405180910390fd5b33600090815260d560205260409020548015610adb5760d454610a8c908263ffffffff611e5d16565b60d45533600090815260d56020526040902054610aaf908263ffffffff611e5d16565b33600081815260d5602052604090209190915560cb54610adb916001600160a01b039091169083612129565b50565b60ce5481565b60985460ff1615610b265760405162461bcd60e51b8152600401808060200182810382526046815260200180612c256046913960600191505060405180910390fd5b6065546001600160a01b03163314610b6f5760405162461bcd60e51b815260040180806020018281038252602a815260200180612dc9602a913960400191505060405180910390fd5b60985460009060ff16610bd657610b846118f9565b60d155610b8f6113f9565b60d0556001600160a01b03811615610bd657610baa81610602565b6001600160a01b038216600090815260d3602090815260408083209390935560d15460d2909152919020555b60cc544210610bfb5760ce54610bf390839063ffffffff611f1a16565b60cd55610c4a565b60cc54600090610c11904263ffffffff611e5d16565b90506000610c2a60cd5483611eba90919063ffffffff16565b60ce54909150610c449061067a868463ffffffff611f8116565b60cd5550505b60ca54604080516370a0823160e01b815230600482015290516000926001600160a01b0316916370a08231916024808301926020929190829003018186803b158015610c9557600080fd5b505afa158015610ca9573d6000803e3d6000fd5b505050506040513d6020811015610cbf57600080fd5b505160ce54909150610cd890829063ffffffff611f1a16565b60cd541115610d2e576040805162461bcd60e51b815260206004820152601860248201527f50726f76696465642072657761726420746f6f20686967680000000000000000604482015290519081900360640190fd5b4260d081905560ce54610d47919063ffffffff611f8116565b60cc556040805184815290517fde88a922e0d3b88b24e9623efeb464919c6bf9f66857a65e2bfcf2ce87a9433d9181900360200190a1505050565b60985460ff1615610dc45760405162461bcd60e51b8152600401808060200182810382526046815260200180612c256046913960600191505060405180910390fd5b60026066541415610e1c576040805162461bcd60e51b815260206004820152601f60248201527f5265656e7472616e637947756172643a207265656e7472616e742063616c6c00604482015290519081900360640190fd5b6002606655609854339060ff16610e8757610e356118f9565b60d155610e406113f9565b60d0556001600160a01b03811615610e8757610e5b81610602565b6001600160a01b038216600090815260d3602090815260408083209390935560d15460d2909152919020555b60cf541580610eb8575060cf5433600090815260d66020526040902054610eb590429063ffffffff611e5d16565b10155b80610ec557504260cc5411155b610f005760405162461bcd60e51b8152600401808060200182810382526037815260200180612e1d6037913960400191505060405180910390fd5b33600090815260d360205260409020548015610a195733600081815260d3602052604081205560ca54610f3f916001600160a01b039091169083612129565b60408051828152905133917fe2403640ba68fed3a2f88b7557551d1993f84b99bb10ff833f0cf8db0c5e0486919081900360200190a250506001606655565b610f86611fdb565b6001600160a01b0316610f976115e9565b6001600160a01b031614610fe0576040805162461bcd60e51b81526020600482018190526024820152600080516020612d4e833981519152604482015290519081900360640190fd5b610fe8611309565b611030576040805162461bcd60e51b815260206004820152601460248201527314185d5cd8589b194e881b9bdd081c185d5cd95960621b604482015290519081900360640190fd5b611038612180565b565b6065546001600160a01b031681565b611051611fdb565b6001600160a01b03166110626115e9565b6001600160a01b0316146110ab576040805162461bcd60e51b81526020600482018190526024820152600080516020612d4e833981519152604482015290519081900360640190fd5b60d45460cb54604080516370a0823160e01b8152306004820152905160009361113a9390926001600160a01b03909116916370a0823191602480820192602092909190829003018186803b15801561110257600080fd5b505afa158015611116573d6000803e3d6000fd5b505050506040513d602081101561112c57600080fd5b50519063ffffffff611e5d16565b90508015610adb57610adb61114d6115e9565b60cb546001600160a01b0316908363ffffffff61212916565b61116f81610874565b6000611194670de0b6b3a764000061067a84662386f26fc1000063ffffffff611eba16565b60cb549091506111b4906001600160a01b0316338363ffffffff61212916565b5050565b60985460ff16156111fa5760405162461bcd60e51b8152600401808060200182810382526046815260200180612c256046913960600191505060405180910390fd5b611202611fdb565b6001600160a01b03166112136115e9565b6001600160a01b03161461125c576040805162461bcd60e51b81526020600482018190526024820152600080516020612d4e833981519152604482015290519081900360640190fd5b60985460009060ff166112c3576112716118f9565b60d15561127c6113f9565b60d0556001600160a01b038116156112c35761129781610602565b6001600160a01b038216600090815260d3602090815260408083209390935560d15460d2909152919020555b60d05482116113035760405162461bcd60e51b8152600401808060200182810382526026815260200180612da36026913960400191505060405180910390fd5b5060cc55565b609854610100900460ff1690565b60d85481565b6001600160a01b0316600090815260d5602052604090205490565b611340611fdb565b6001600160a01b03166113516115e9565b6001600160a01b03161461139a576040805162461bcd60e51b81526020600482018190526024820152600080516020612d4e833981519152604482015290519081900360640190fd5b6033546040516000916001600160a01b0316907f8be0079c531659141344cd1fd0a4f28419497f9722a3daafe3b4186f6b6457e0908390a3603380546001600160a01b0319169055565b60cb546001600160a01b031681565b60cd5481565b60006108364260cc54612221565b61140f611fdb565b6001600160a01b03166114206115e9565b6001600160a01b031614611469576040805162461bcd60e51b81526020600482018190526024820152600080516020612d4e833981519152604482015290519081900360640190fd5b611471611309565b156114b6576040805162461bcd60e51b815260206004820152601060248201526f14185d5cd8589b194e881c185d5cd95960821b604482015290519081900360640190fd5b611038612237565b6114c6611fdb565b6001600160a01b03166114d76115e9565b6001600160a01b031614611520576040805162461bcd60e51b81526020600482018190526024820152600080516020612d4e833981519152604482015290519081900360640190fd5b60cb546001600160a01b038381169116141561156d5760405162461bcd60e51b8152600401808060200182810382526021815260200180612e546021913960400191505060405180910390fd5b61158f6115786115e9565b6001600160a01b038416908363ffffffff61212916565b604080516001600160a01b03841681526020810183905281517f8c1256b8896378cd5044f80c202f9772b9d77dc85c8a6eb51967210b09bfaa28929181900390910190a15050565b60d26020526000908152604090205481565b6033546001600160a01b031690565b60985460ff161561163a5760405162461bcd60e51b8152600401808060200182810382526046815260200180612c256046913960600191505060405180910390fd5b60026066541415611692576040805162461bcd60e51b815260206004820152601f60248201527f5265656e7472616e637947756172643a207265656e7472616e742063616c6c00604482015290519081900360640190fd5b600260665561169f611309565b156116e4576040805162461bcd60e51b815260206004820152601060248201526f14185d5cd8589b194e881c185d5cd95960821b604482015290519081900360640190fd5b609854339060ff1661174a576116f86118f9565b60d1556117036113f9565b60d0556001600160a01b0381161561174a5761171e81610602565b6001600160a01b038216600090815260d3602090815260408083209390935560d15460d2909152919020555b61175433836122bc565b60cb54610a19906001600160a01b031633308563ffffffff6123b416565b33600090815260d360205260408120546117a790670de0b6b3a76400009061067a90662386f26fc1000063ffffffff611eba16565b90506117b1610d82565b8015610adb5760ca54610adb906001600160a01b0316338363ffffffff61212916565b60d05481565b60985460ff161561181c5760405162461bcd60e51b8152600401808060200182810382526046815260200180612c256046913960600191505060405180910390fd5b611824611fdb565b6001600160a01b03166118356115e9565b6001600160a01b03161461187e576040805162461bcd60e51b81526020600482018190526024820152600080516020612d4e833981519152604482015290519081900360640190fd5b60cc5442116118be5760405162461bcd60e51b8152600401808060200182810382526058815260200180612bcd6058913960600191505060405180910390fd5b60ce8190556040805182815290517ffb46ca5a5e06d4540d6387b930a7c978bce0db5f449ec6b3f5d07c6e1d44f2d39181900360200190a150565b600060d4546000141561190f575060d154610796565b61083661194460d45461067a670de0b6b3a764000061193860cd5461193860d0546106496113f9565b9063ffffffff611eba16565b60d1549063ffffffff611f8116565b60ca546001600160a01b031681565b60d15481565b60985460ff16156119aa5760405162461bcd60e51b8152600401808060200182810382526046815260200180612c256046913960600191505060405180910390fd5b6119b2611fdb565b6001600160a01b03166119c36115e9565b6001600160a01b031614611a0c576040805162461bcd60e51b81526020600482018190526024820152600080516020612d4e833981519152604482015290519081900360640190fd5b600060d881905560cf81905560cc81905560cd81905560d155611038612414565b60985460ff1615611a6f5760405162461bcd60e51b8152600401808060200182810382526046815260200180612c256046913960600191505060405180910390fd5b611a77611fdb565b6001600160a01b0316611a886115e9565b6001600160a01b031614611ad1576040805162461bcd60e51b81526020600482018190526024820152600080516020612d4e833981519152604482015290519081900360640190fd5b60cf8190556040805182815290517f2b0fa66d155c9598699cb6569577f27b95729bbf580268eed39db6bc4e8144779181900360200190a150565b60985460ff1615611b4e5760405162461bcd60e51b8152600401808060200182810382526046815260200180612c256046913960600191505060405180910390fd5b33600090815260d56020526040902054611b6790610874565b611038610d82565b60cc5481565b611b7d611fdb565b6001600160a01b0316611b8e6115e9565b6001600160a01b031614611bd7576040805162461bcd60e51b81526020600482018190526024820152600080516020612d4e833981519152604482015290519081900360640190fd5b6001600160a01b038116611c1c5760405162461bcd60e51b8152600401808060200182810382526026815260200180612cb36026913960400191505060405180910390fd5b6033546040516001600160a01b038084169216907f8be0079c531659141344cd1fd0a4f28419497f9722a3daafe3b4186f6b6457e090600090a3603380546001600160a01b0319166001600160a01b0392909216919091179055565b60004260cc5411611c8b57506000610796565b60cf5433600090815260d660205260408120549091829161085b914291611cb79163ffffffff611f8116565b9063ffffffff611fdf16565b600054610100900460ff1680611cdc5750611cdc6124ae565b80611cea575060005460ff16155b611d255760405162461bcd60e51b815260040180806020018281038252602e815260200180612cff602e913960400191505060405180910390fd5b600054610100900460ff16158015611d50576000805460ff1961ff0019909116610100171660011790555b611d586124bf565b611d60612568565b611d68612661565b611d7061270d565b611d786127b8565b611d8061285e565b611d8986611b75565b60ca80546001600160a01b038087166001600160a01b03199283161790925560cb8054868416908316179055606580549288169290911691909117905560cf829055600060cc81905560cd5562ed4e0060ce558015611dee576000805461ff00191690555b505050505050565b611dfe611fdb565b6001600160a01b0316611e0f6115e9565b6001600160a01b031614611e58576040805162461bcd60e51b81526020600482018190526024820152600080516020612d4e833981519152604482015290519081900360640190fd5b60d855565b600082821115611eb4576040805162461bcd60e51b815260206004820152601e60248201527f536166654d6174683a207375627472616374696f6e206f766572666c6f770000604482015290519081900360640190fd5b50900390565b600082611ec957506000610692565b82820282848281611ed657fe5b0414611f135760405162461bcd60e51b8152600401808060200182810382526021815260200180612d2d6021913960400191505060405180910390fd5b9392505050565b6000808211611f70576040805162461bcd60e51b815260206004820152601a60248201527f536166654d6174683a206469766973696f6e206279207a65726f000000000000604482015290519081900360640190fd5b818381611f7957fe5b049392505050565b600082820183811015611f13576040805162461bcd60e51b815260206004820152601b60248201527f536166654d6174683a206164646974696f6e206f766572666c6f770000000000604482015290519081900360640190fd5b3390565b60008083831115611ff557506000905080611ffe565b50600190508183035b9250929050565b6000811161204e576040805162461bcd60e51b8152602060048201526011602482015270043616e6e6f74207769746864726177203607c1b604482015290519081900360640190fd5b60d454612061908263ffffffff611e5d16565b60d4556001600160a01b038216600090815260d5602052604090205461208d908263ffffffff611e5d16565b6001600160a01b038316600090815260d5602052604090208190556120ca576001600160a01b038216600090815260d660205260408120556120e6565b6001600160a01b038216600090815260d6602052604090204290555b6040805182815290516001600160a01b038416917f7084f5476618d8e60b11ef0d7d3f06914655adb8793e28ff7f018d4c76d505d5919081900360200190a25050565b604080516001600160a01b038416602482015260448082018490528251808303909101815260649091019091526020810180516001600160e01b031663a9059cbb60e01b17905261217b9084906128fe565b505050565b612188611309565b6121d0576040805162461bcd60e51b815260206004820152601460248201527314185d5cd8589b194e881b9bdd081c185d5cd95960621b604482015290519081900360640190fd5b6098805461ff00191690557f5db9ee0a495bf2e6ff9c91a7834c1ba4fdd244a5e8aa4e537bd38aeae4b073aa612204611fdb565b604080516001600160a01b039092168252519081900360200190a1565b60008183106122305781611f13565b5090919050565b61223f611309565b15612284576040805162461bcd60e51b815260206004820152601060248201526f14185d5cd8589b194e881c185d5cd95960821b604482015290519081900360640190fd5b6098805461ff0019166101001790557f62e78cea01bee320cd4e420270b5ea74000d11b0c9f74754ebdbfc544b05a258612204611fdb565b60d854811015612313576040805162461bcd60e51b815260206004820152601d60248201527f4d696e696d756d207374616b6520616d6f756e74207265717569726564000000604482015290519081900360640190fd5b60d454612326908263ffffffff611f8116565b60d4556001600160a01b038216600090815260d56020526040902054612352908263ffffffff611f8116565b6001600160a01b038316600081815260d5602090815260408083209490945560d68152908390204290558251848152925191927f9e71bc8eea02a63969f509818f2dafb9254532904319f9dbda79b67bd34a5f3d929081900390910190a25050565b604080516001600160a01b0380861660248301528416604482015260648082018490528251808303909101815260849091019091526020810180516001600160e01b03166323b872dd60e01b17905261240e9085906128fe565b50505050565b61241c611fdb565b6001600160a01b031661242d6115e9565b6001600160a01b031614612476576040805162461bcd60e51b81526020600482018190526024820152600080516020612d4e833981519152604482015290519081900360640190fd5b6098805460ff191660011790556040517fe68101b30364d616deefc8cd307b7e27ccbd9c73f138bd478179497563d97a1190600090a1565b60006124b9306129af565b15905090565b600054610100900460ff16806124d857506124d86124ae565b806124e6575060005460ff16155b6125215760405162461bcd60e51b815260040180806020018281038252602e815260200180612cff602e913960400191505060405180910390fd5b600054610100900460ff1615801561254c576000805460ff1961ff0019909116610100171660011790555b61255461285e565b8015610adb576000805461ff001916905550565b600054610100900460ff168061258157506125816124ae565b8061258f575060005460ff16155b6125ca5760405162461bcd60e51b815260040180806020018281038252602e815260200180612cff602e913960400191505060405180910390fd5b600054610100900460ff161580156125f5576000805460ff1961ff0019909116610100171660011790555b60006125ff611fdb565b603380546001600160a01b0319166001600160a01b038316908117909155604051919250906000907f8be0079c531659141344cd1fd0a4f28419497f9722a3daafe3b4186f6b6457e0908290a3508015610adb576000805461ff001916905550565b600054610100900460ff168061267a575061267a6124ae565b80612688575060005460ff16155b6126c35760405162461bcd60e51b815260040180806020018281038252602e815260200180612cff602e913960400191505060405180910390fd5b600054610100900460ff161580156126ee576000805460ff1961ff0019909116610100171660011790555b6098805461ff00191690558015610adb576000805461ff001916905550565b600054610100900460ff168061272657506127266124ae565b80612734575060005460ff16155b61276f5760405162461bcd60e51b815260040180806020018281038252602e815260200180612cff602e913960400191505060405180910390fd5b600054610100900460ff1615801561279a576000805460ff1961ff0019909116610100171660011790555b6098805460ff191690558015610adb576000805461ff001916905550565b600054610100900460ff16806127d157506127d16124ae565b806127df575060005460ff16155b61281a5760405162461bcd60e51b815260040180806020018281038252602e815260200180612cff602e913960400191505060405180910390fd5b600054610100900460ff16158015612845576000805460ff1961ff0019909116610100171660011790555b60016066558015610adb576000805461ff001916905550565b600054610100900460ff168061287757506128776124ae565b80612885575060005460ff16155b6128c05760405162461bcd60e51b815260040180806020018281038252602e815260200180612cff602e913960400191505060405180910390fd5b600054610100900460ff16158015612554576000805460ff1961ff0019909116610100171660011790558015610adb576000805461ff001916905550565b6060612953826040518060400160405280602081526020017f5361666545524332303a206c6f772d6c6576656c2063616c6c206661696c6564815250856001600160a01b03166129b59092919063ffffffff16565b80519091501561217b5780806020019051602081101561297257600080fd5b505161217b5760405162461bcd60e51b815260040180806020018281038252602a815260200180612df3602a913960400191505060405180910390fd5b3b151590565b60606129c484846000856129cc565b949350505050565b606082471015612a0d5760405162461bcd60e51b8152600401808060200182810382526026815260200180612cd96026913960400191505060405180910390fd5b612a16856129af565b612a67576040805162461bcd60e51b815260206004820152601d60248201527f416464726573733a2063616c6c20746f206e6f6e2d636f6e7472616374000000604482015290519081900360640190fd5b60006060866001600160a01b031685876040518082805190602001908083835b60208310612aa65780518252601f199092019160209182019101612a87565b6001836020036101000a03801982511681845116808217855250505050505090500191505060006040518083038185875af1925050503d8060008114612b08576040519150601f19603f3d011682016040523d82523d6000602084013e612b0d565b606091505b5091509150612b1d828286612b28565b979650505050505050565b60608315612b37575081611f13565b825115612b475782518084602001fd5b8160405162461bcd60e51b81526004018080602001828103825283818151815260200191508051906020019080838360005b83811015612b91578181015183820152602001612b79565b50505050905090810190601f168015612bbe5780820380516001836020036101000a031916815260200191505b509250505060405180910390fdfe50726576696f7573207265776172647320706572696f64206d75737420626520636f6d706c657465206265666f7265206368616e67696e6720746865206475726174696f6e20666f7220746865206e657720706572696f645468697320616374696f6e2063616e6e6f7420626520706572666f726d6564207768696c652074686520636f6e747261637420697320696e204661696c73616665204d6f64655468697320616374696f6e2063616e206f6e6c7920626520706572666f726d6564207768696c652074686520636f6e747261637420697320696e204661696c73616665204d6f64654f776e61626c653a206e6577206f776e657220697320746865207a65726f2061646472657373416464726573733a20696e73756666696369656e742062616c616e636520666f722063616c6c496e697469616c697a61626c653a20636f6e747261637420697320616c726561647920696e697469616c697a6564536166654d6174683a206d756c7469706c69636174696f6e206f766572666c6f774f776e61626c653a2063616c6c6572206973206e6f7420746865206f776e657243616e6e6f7420776974686472617720756e74696c206d696e696d756d207374616b696e672074696d65206861732070617373656454696d657374616d70206d757374206265206166746572206c61737455706461746554696d6543616c6c6572206973206e6f742052657761726473446973747269627574696f6e20636f6e74726163745361666545524332303a204552433230206f7065726174696f6e20646964206e6f74207375636365656443616e6e6f74206765742072657761726420756e74696c206d696e696d756d207374616b696e672074696d65206861732070617373656443616e6e6f7420776974686472617720746865207374616b696e6720746f6b656ea2646970667358221220ded51d6765cb370740b0574c102132380936c111809119d4aeb6a535f42b0fbd64736f6c63430006050033",
  "immutableReferences": {},
  "source": "pragma solidity ^0.6.2;\r\n\r\nimport \"./staking/StakingRewardsUpgradeable.sol\";\r\n\r\ncontract KingStakingRewardsUpgradeable is StakingRewardsUpgradeable {\r\n  function withdrawWithoutFee(uint256 amount) public {\r\n      super.withdraw(amount);\r\n      uint256 feeCompensation = amount.mul(1e16).div(1e18);\r\n      stakingToken.safeTransfer(msg.sender, feeCompensation);\r\n  }\r\n\r\n  function getRewardWithoutFee() public {\r\n    uint256 feeCompensation = rewards[msg.sender].mul(1e16).div(1e18);\r\n    super.getReward();\r\n    if(feeCompensation > 0) {\r\n      rewardsToken.safeTransfer(msg.sender, feeCompensation);\r\n    }\r\n  }\r\n}",
  "sourcePath": "K:\\\\cryptoblades1\\cryptoblades\\contracts\\KingStakingRewardsUpgradeable.sol",
  "compiler": {
    "name": "solc",
    "version": "0.6.5+commit.f956cc89.Emscripten.clang"
  },
  "schemaVersion": "3.4.5",
  "updatedAt": "2022-09-25T07:58:17.663Z",
  "networkType": "ethereum",
  "devdoc": {
    "methods": {
      "owner()": {
        "details": "Returns the address of the current owner."
      },
      "paused()": {
        "details": "Returns true if the contract is paused, and false otherwise."
      },
      "renounceOwnership()": {
        "details": "Leaves the contract without owner. It will not be possible to call `onlyOwner` functions anymore. Can only be called by the current owner.     * NOTE: Renouncing ownership will leave the contract without an owner, thereby removing any functionality that is only available to the owner."
      },
      "transferOwnership(address)": {
        "details": "Transfers ownership of the contract to a new account (`newOwner`). Can only be called by the current owner."
      }
    }
  },
  "userdoc": {
    "methods": {}
  }
}