{
  "contractName": "Launchpad",
  "abi": [
    {
      "anonymous": false,
      "inputs": [
        {
          "indexed": true,
          "internalType": "uint256",
          "name": "launchId",
          "type": "uint256"
        },
        {
          "indexed": false,
          "internalType": "uint256",
          "name": "amount",
          "type": "uint256"
        }
      ],
      "name": "FundsWithdrawn",
      "type": "event"
    },
    {
      "anonymous": false,
      "inputs": [
        {
          "indexed": true,
          "internalType": "address",
          "name": "user",
          "type": "address"
        },
        {
          "indexed": false,
          "internalType": "uint256",
          "name": "amount",
          "type": "uint256"
        }
      ],
      "name": "Invested",
      "type": "event"
    },
    {
      "anonymous": false,
      "inputs": [
        {
          "indexed": true,
          "internalType": "uint256",
          "name": "launchId",
          "type": "uint256"
        },
        {
          "indexed": false,
          "internalType": "uint256",
          "name": "phase",
          "type": "uint256"
        }
      ],
      "name": "LaunchAdded",
      "type": "event"
    },
    {
      "anonymous": false,
      "inputs": [
        {
          "indexed": true,
          "internalType": "address",
          "name": "user",
          "type": "address"
        },
        {
          "indexed": true,
          "internalType": "uint256",
          "name": "launchId",
          "type": "uint256"
        },
        {
          "indexed": false,
          "internalType": "uint256",
          "name": "amount",
          "type": "uint256"
        }
      ],
      "name": "LinearVestingClaimed",
      "type": "event"
    },
    {
      "anonymous": false,
      "inputs": [
        {
          "indexed": true,
          "internalType": "uint256",
          "name": "launchId",
          "type": "uint256"
        },
        {
          "indexed": false,
          "internalType": "uint256",
          "name": "timestamp",
          "type": "uint256"
        }
      ],
      "name": "LinearVestingEnabled",
      "type": "event"
    },
    {
      "anonymous": false,
      "inputs": [
        {
          "indexed": true,
          "internalType": "address",
          "name": "user",
          "type": "address"
        },
        {
          "indexed": true,
          "internalType": "uint256",
          "name": "launchId",
          "type": "uint256"
        },
        {
          "indexed": true,
          "internalType": "uint256",
          "name": "vestingId",
          "type": "uint256"
        },
        {
          "indexed": false,
          "internalType": "uint256",
          "name": "amount",
          "type": "uint256"
        }
      ],
      "name": "PeriodicVestingClaimed",
      "type": "event"
    },
    {
      "anonymous": false,
      "inputs": [
        {
          "indexed": true,
          "internalType": "uint256",
          "name": "launchId",
          "type": "uint256"
        },
        {
          "indexed": true,
          "internalType": "uint256",
          "name": "vestingId",
          "type": "uint256"
        },
        {
          "indexed": false,
          "internalType": "uint256",
          "name": "timestamp",
          "type": "uint256"
        }
      ],
      "name": "PeriodicVestingEnabled",
      "type": "event"
    },
    {
      "anonymous": false,
      "inputs": [
        {
          "indexed": true,
          "internalType": "bytes32",
          "name": "role",
          "type": "bytes32"
        },
        {
          "indexed": true,
          "internalType": "bytes32",
          "name": "previousAdminRole",
          "type": "bytes32"
        },
        {
          "indexed": true,
          "internalType": "bytes32",
          "name": "newAdminRole",
          "type": "bytes32"
        }
      ],
      "name": "RoleAdminChanged",
      "type": "event"
    },
    {
      "anonymous": false,
      "inputs": [
        {
          "indexed": true,
          "internalType": "bytes32",
          "name": "role",
          "type": "bytes32"
        },
        {
          "indexed": true,
          "internalType": "address",
          "name": "account",
          "type": "address"
        },
        {
          "indexed": true,
          "internalType": "address",
          "name": "sender",
          "type": "address"
        }
      ],
      "name": "RoleGranted",
      "type": "event"
    },
    {
      "anonymous": false,
      "inputs": [
        {
          "indexed": true,
          "internalType": "bytes32",
          "name": "role",
          "type": "bytes32"
        },
        {
          "indexed": true,
          "internalType": "address",
          "name": "account",
          "type": "address"
        },
        {
          "indexed": true,
          "internalType": "address",
          "name": "sender",
          "type": "address"
        }
      ],
      "name": "RoleRevoked",
      "type": "event"
    },
    {
      "anonymous": false,
      "inputs": [
        {
          "indexed": true,
          "internalType": "address",
          "name": "user",
          "type": "address"
        },
        {
          "indexed": true,
          "internalType": "address",
          "name": "targetWallet",
          "type": "address"
        },
        {
          "indexed": true,
          "internalType": "uint256",
          "name": "launchId",
          "type": "uint256"
        },
        {
          "indexed": false,
          "internalType": "uint256",
          "name": "amount",
          "type": "uint256"
        }
      ],
      "name": "SkillCommitted",
      "type": "event"
    },
    {
      "inputs": [],
      "name": "DEFAULT_ADMIN_ROLE",
      "outputs": [
        {
          "internalType": "bytes32",
          "name": "",
          "type": "bytes32"
        }
      ],
      "stateMutability": "view",
      "type": "function",
      "constant": true
    },
    {
      "inputs": [],
      "name": "GAME_ADMIN",
      "outputs": [
        {
          "internalType": "bytes32",
          "name": "",
          "type": "bytes32"
        }
      ],
      "stateMutability": "view",
      "type": "function",
      "constant": true
    },
    {
      "inputs": [],
      "name": "VAR_FUNDING_PERIOD_PHASE_1",
      "outputs": [
        {
          "internalType": "uint256",
          "name": "",
          "type": "uint256"
        }
      ],
      "stateMutability": "view",
      "type": "function",
      "constant": true
    },
    {
      "inputs": [],
      "name": "VAR_FUNDING_PERIOD_PHASE_2",
      "outputs": [
        {
          "internalType": "uint256",
          "name": "",
          "type": "uint256"
        }
      ],
      "stateMutability": "view",
      "type": "function",
      "constant": true
    },
    {
      "inputs": [],
      "name": "VAR_TIERS_AMOUNT",
      "outputs": [
        {
          "internalType": "uint256",
          "name": "",
          "type": "uint256"
        }
      ],
      "stateMutability": "view",
      "type": "function",
      "constant": true
    },
    {
      "inputs": [],
      "name": "VAR_UNCLAIMED_ALLOCATION_PERCENTAGE",
      "outputs": [
        {
          "internalType": "uint256",
          "name": "",
          "type": "uint256"
        }
      ],
      "stateMutability": "view",
      "type": "function",
      "constant": true
    },
    {
      "inputs": [],
      "name": "VAR_UNCLAIMED_COMMIT_START_OFFSET",
      "outputs": [
        {
          "internalType": "uint256",
          "name": "",
          "type": "uint256"
        }
      ],
      "stateMutability": "view",
      "type": "function",
      "constant": true
    },
    {
      "inputs": [],
      "name": "VAR_UNCLAIMED_COMMIT_WINDOW",
      "outputs": [
        {
          "internalType": "uint256",
          "name": "",
          "type": "uint256"
        }
      ],
      "stateMutability": "view",
      "type": "function",
      "constant": true
    },
    {
      "inputs": [],
      "name": "VAR_UNCLAIMED_TO_ALLOCATION_MULTIPLIER",
      "outputs": [
        {
          "internalType": "uint256",
          "name": "",
          "type": "uint256"
        }
      ],
      "stateMutability": "view",
      "type": "function",
      "constant": true
    },
    {
      "inputs": [
        {
          "internalType": "bytes32",
          "name": "role",
          "type": "bytes32"
        }
      ],
      "name": "getRoleAdmin",
      "outputs": [
        {
          "internalType": "bytes32",
          "name": "",
          "type": "bytes32"
        }
      ],
      "stateMutability": "view",
      "type": "function",
      "constant": true
    },
    {
      "inputs": [
        {
          "internalType": "bytes32",
          "name": "role",
          "type": "bytes32"
        },
        {
          "internalType": "uint256",
          "name": "index",
          "type": "uint256"
        }
      ],
      "name": "getRoleMember",
      "outputs": [
        {
          "internalType": "address",
          "name": "",
          "type": "address"
        }
      ],
      "stateMutability": "view",
      "type": "function",
      "constant": true
    },
    {
      "inputs": [
        {
          "internalType": "bytes32",
          "name": "role",
          "type": "bytes32"
        }
      ],
      "name": "getRoleMemberCount",
      "outputs": [
        {
          "internalType": "uint256",
          "name": "",
          "type": "uint256"
        }
      ],
      "stateMutability": "view",
      "type": "function",
      "constant": true
    },
    {
      "inputs": [
        {
          "internalType": "bytes32",
          "name": "role",
          "type": "bytes32"
        },
        {
          "internalType": "address",
          "name": "account",
          "type": "address"
        }
      ],
      "name": "grantRole",
      "outputs": [],
      "stateMutability": "nonpayable",
      "type": "function"
    },
    {
      "inputs": [
        {
          "internalType": "bytes32",
          "name": "role",
          "type": "bytes32"
        },
        {
          "internalType": "address",
          "name": "account",
          "type": "address"
        }
      ],
      "name": "hasRole",
      "outputs": [
        {
          "internalType": "bool",
          "name": "",
          "type": "bool"
        }
      ],
      "stateMutability": "view",
      "type": "function",
      "constant": true
    },
    {
      "inputs": [
        {
          "internalType": "uint256",
          "name": "",
          "type": "uint256"
        }
      ],
      "name": "launchBaseAllocation",
      "outputs": [
        {
          "internalType": "uint256",
          "name": "",
          "type": "uint256"
        }
      ],
      "stateMutability": "view",
      "type": "function",
      "constant": true
    },
    {
      "inputs": [
        {
          "internalType": "uint256",
          "name": "",
          "type": "uint256"
        }
      ],
      "name": "launchFundsToRaise",
      "outputs": [
        {
          "internalType": "uint256",
          "name": "",
          "type": "uint256"
        }
      ],
      "stateMutability": "view",
      "type": "function",
      "constant": true
    },
    {
      "inputs": [
        {
          "internalType": "uint256",
          "name": "",
          "type": "uint256"
        }
      ],
      "name": "launchLinearVestingsDurations",
      "outputs": [
        {
          "internalType": "uint256",
          "name": "",
          "type": "uint256"
        }
      ],
      "stateMutability": "view",
      "type": "function",
      "constant": true
    },
    {
      "inputs": [
        {
          "internalType": "uint256",
          "name": "",
          "type": "uint256"
        }
      ],
      "name": "launchLinearVestingsStartTimestamps",
      "outputs": [
        {
          "internalType": "uint256",
          "name": "",
          "type": "uint256"
        }
      ],
      "stateMutability": "view",
      "type": "function",
      "constant": true
    },
    {
      "inputs": [
        {
          "internalType": "uint256",
          "name": "",
          "type": "uint256"
        },
        {
          "internalType": "uint256",
          "name": "",
          "type": "uint256"
        }
      ],
      "name": "launchPeriodicVestingsStartTimestamps",
      "outputs": [
        {
          "internalType": "uint256",
          "name": "",
          "type": "uint256"
        }
      ],
      "stateMutability": "view",
      "type": "function",
      "constant": true
    },
    {
      "inputs": [
        {
          "internalType": "uint256",
          "name": "",
          "type": "uint256"
        }
      ],
      "name": "launchStartTime",
      "outputs": [
        {
          "internalType": "uint256",
          "name": "",
          "type": "uint256"
        }
      ],
      "stateMutability": "view",
      "type": "function",
      "constant": true
    },
    {
      "inputs": [
        {
          "internalType": "uint256",
          "name": "",
          "type": "uint256"
        }
      ],
      "name": "launchTokenAddress",
      "outputs": [
        {
          "internalType": "address",
          "name": "",
          "type": "address"
        }
      ],
      "stateMutability": "view",
      "type": "function",
      "constant": true
    },
    {
      "inputs": [
        {
          "internalType": "uint256",
          "name": "",
          "type": "uint256"
        }
      ],
      "name": "launchTokenPrice",
      "outputs": [
        {
          "internalType": "uint256",
          "name": "",
          "type": "uint256"
        }
      ],
      "stateMutability": "view",
      "type": "function",
      "constant": true
    },
    {
      "inputs": [
        {
          "internalType": "uint256",
          "name": "",
          "type": "uint256"
        }
      ],
      "name": "launchTotalRaised",
      "outputs": [
        {
          "internalType": "uint256",
          "name": "",
          "type": "uint256"
        }
      ],
      "stateMutability": "view",
      "type": "function",
      "constant": true
    },
    {
      "inputs": [
        {
          "internalType": "uint256",
          "name": "",
          "type": "uint256"
        }
      ],
      "name": "launchTotalUnclaimedSkillCommittedValue",
      "outputs": [
        {
          "internalType": "uint256",
          "name": "",
          "type": "uint256"
        }
      ],
      "stateMutability": "view",
      "type": "function",
      "constant": true
    },
    {
      "inputs": [
        {
          "internalType": "uint256",
          "name": "",
          "type": "uint256"
        },
        {
          "internalType": "address",
          "name": "",
          "type": "address"
        }
      ],
      "name": "launchUserInvestment",
      "outputs": [
        {
          "internalType": "uint256",
          "name": "",
          "type": "uint256"
        }
      ],
      "stateMutability": "view",
      "type": "function",
      "constant": true
    },
    {
      "inputs": [
        {
          "internalType": "uint256",
          "name": "",
          "type": "uint256"
        },
        {
          "internalType": "address",
          "name": "",
          "type": "address"
        }
      ],
      "name": "launchUserStakedAmountSnapshot",
      "outputs": [
        {
          "internalType": "uint256",
          "name": "",
          "type": "uint256"
        }
      ],
      "stateMutability": "view",
      "type": "function",
      "constant": true
    },
    {
      "inputs": [
        {
          "internalType": "uint256",
          "name": "",
          "type": "uint256"
        },
        {
          "internalType": "address",
          "name": "",
          "type": "address"
        }
      ],
      "name": "launchUserTotalUnclaimedSkillCommittedValue",
      "outputs": [
        {
          "internalType": "uint256",
          "name": "",
          "type": "uint256"
        }
      ],
      "stateMutability": "view",
      "type": "function",
      "constant": true
    },
    {
      "inputs": [
        {
          "internalType": "uint256",
          "name": "",
          "type": "uint256"
        },
        {
          "internalType": "address",
          "name": "",
          "type": "address"
        }
      ],
      "name": "launchUserUnclaimedSkillCommittedValue",
      "outputs": [
        {
          "internalType": "uint256",
          "name": "",
          "type": "uint256"
        }
      ],
      "stateMutability": "view",
      "type": "function",
      "constant": true
    },
    {
      "inputs": [
        {
          "internalType": "uint256",
          "name": "",
          "type": "uint256"
        }
      ],
      "name": "launches",
      "outputs": [
        {
          "internalType": "string",
          "name": "name",
          "type": "string"
        },
        {
          "internalType": "string",
          "name": "tokenSymbol",
          "type": "string"
        },
        {
          "internalType": "string",
          "name": "detailsJsonUri",
          "type": "string"
        },
        {
          "internalType": "string",
          "name": "imageUrl",
          "type": "string"
        },
        {
          "internalType": "address",
          "name": "fundingTokenAddress",
          "type": "address"
        },
        {
          "internalType": "uint256",
          "name": "phase",
          "type": "uint256"
        },
        {
          "internalType": "bool",
          "name": "commitOnly",
          "type": "bool"
        }
      ],
      "stateMutability": "view",
      "type": "function",
      "constant": true
    },
    {
      "inputs": [],
      "name": "nextLaunchId",
      "outputs": [
        {
          "internalType": "uint256",
          "name": "",
          "type": "uint256"
        }
      ],
      "stateMutability": "view",
      "type": "function",
      "constant": true
    },
    {
      "inputs": [
        {
          "internalType": "bytes32",
          "name": "role",
          "type": "bytes32"
        },
        {
          "internalType": "address",
          "name": "account",
          "type": "address"
        }
      ],
      "name": "renounceRole",
      "outputs": [],
      "stateMutability": "nonpayable",
      "type": "function"
    },
    {
      "inputs": [
        {
          "internalType": "bytes32",
          "name": "role",
          "type": "bytes32"
        },
        {
          "internalType": "address",
          "name": "account",
          "type": "address"
        }
      ],
      "name": "revokeRole",
      "outputs": [],
      "stateMutability": "nonpayable",
      "type": "function"
    },
    {
      "inputs": [],
      "name": "skillPrice",
      "outputs": [
        {
          "internalType": "uint256",
          "name": "",
          "type": "uint256"
        }
      ],
      "stateMutability": "view",
      "type": "function",
      "constant": true
    },
    {
      "inputs": [
        {
          "internalType": "uint256",
          "name": "",
          "type": "uint256"
        }
      ],
      "name": "tierAllocationWeight",
      "outputs": [
        {
          "internalType": "uint256",
          "name": "",
          "type": "uint256"
        }
      ],
      "stateMutability": "view",
      "type": "function",
      "constant": true
    },
    {
      "inputs": [
        {
          "internalType": "uint256",
          "name": "",
          "type": "uint256"
        }
      ],
      "name": "tierStakingRequirement",
      "outputs": [
        {
          "internalType": "uint256",
          "name": "",
          "type": "uint256"
        }
      ],
      "stateMutability": "view",
      "type": "function",
      "constant": true
    },
    {
      "inputs": [
        {
          "internalType": "address",
          "name": "",
          "type": "address"
        },
        {
          "internalType": "uint256",
          "name": "",
          "type": "uint256"
        },
        {
          "internalType": "uint256",
          "name": "",
          "type": "uint256"
        }
      ],
      "name": "userClaimedVestingPortion",
      "outputs": [
        {
          "internalType": "bool",
          "name": "",
          "type": "bool"
        }
      ],
      "stateMutability": "view",
      "type": "function",
      "constant": true
    },
    {
      "inputs": [
        {
          "internalType": "address",
          "name": "",
          "type": "address"
        },
        {
          "internalType": "uint256",
          "name": "",
          "type": "uint256"
        }
      ],
      "name": "userLinearVestingClaimTimestamp",
      "outputs": [
        {
          "internalType": "uint256",
          "name": "",
          "type": "uint256"
        }
      ],
      "stateMutability": "view",
      "type": "function",
      "constant": true
    },
    {
      "inputs": [
        {
          "internalType": "uint256",
          "name": "",
          "type": "uint256"
        }
      ],
      "name": "vars",
      "outputs": [
        {
          "internalType": "uint256",
          "name": "",
          "type": "uint256"
        }
      ],
      "stateMutability": "view",
      "type": "function",
      "constant": true
    },
    {
      "inputs": [
        {
          "internalType": "contract CryptoBlades",
          "name": "game",
          "type": "address"
        }
      ],
      "name": "initialize",
      "outputs": [],
      "stateMutability": "nonpayable",
      "type": "function"
    },
    {
      "inputs": [
        {
          "internalType": "uint256",
          "name": "amount",
          "type": "uint256"
        }
      ],
      "name": "getTierForStakedAmount",
      "outputs": [
        {
          "internalType": "uint256",
          "name": "tier",
          "type": "uint256"
        }
      ],
      "stateMutability": "view",
      "type": "function",
      "constant": true
    },
    {
      "inputs": [
        {
          "internalType": "uint256",
          "name": "launchId",
          "type": "uint256"
        },
        {
          "internalType": "uint256",
          "name": "tier",
          "type": "uint256"
        }
      ],
      "name": "getLaunchAllocationForTier",
      "outputs": [
        {
          "internalType": "uint256",
          "name": "",
          "type": "uint256"
        }
      ],
      "stateMutability": "view",
      "type": "function",
      "constant": true
    },
    {
      "inputs": [
        {
          "internalType": "address",
          "name": "user",
          "type": "address"
        },
        {
          "internalType": "uint256",
          "name": "launchId",
          "type": "uint256"
        }
      ],
      "name": "getUserRemainingAllocationForLaunch",
      "outputs": [
        {
          "internalType": "uint256",
          "name": "maxAllocation",
          "type": "uint256"
        }
      ],
      "stateMutability": "view",
      "type": "function",
      "constant": true
    },
    {
      "inputs": [
        {
          "internalType": "uint256",
          "name": "launchId",
          "type": "uint256"
        },
        {
          "internalType": "uint256",
          "name": "vestingId",
          "type": "uint256"
        }
      ],
      "name": "getAvailableClaimAmount",
      "outputs": [
        {
          "internalType": "uint256",
          "name": "claimAmount",
          "type": "uint256"
        }
      ],
      "stateMutability": "view",
      "type": "function",
      "constant": true
    },
    {
      "inputs": [
        {
          "internalType": "uint256",
          "name": "launchId",
          "type": "uint256"
        }
      ],
      "name": "getLinearClaimAmount",
      "outputs": [
        {
          "internalType": "uint256",
          "name": "claimAmount",
          "type": "uint256"
        }
      ],
      "stateMutability": "view",
      "type": "function",
      "constant": true
    },
    {
      "inputs": [
        {
          "internalType": "uint256",
          "name": "launchId",
          "type": "uint256"
        }
      ],
      "name": "getLaunchDetails",
      "outputs": [
        {
          "internalType": "uint256",
          "name": "tokenPrice",
          "type": "uint256"
        },
        {
          "internalType": "uint256",
          "name": "startTime",
          "type": "uint256"
        },
        {
          "internalType": "uint256",
          "name": "fundsToRaise",
          "type": "uint256"
        },
        {
          "internalType": "uint256",
          "name": "maxAllocation",
          "type": "uint256"
        },
        {
          "internalType": "uint256",
          "name": "totalRaised",
          "type": "uint256"
        },
        {
          "internalType": "address",
          "name": "tokenAddress",
          "type": "address"
        }
      ],
      "stateMutability": "view",
      "type": "function",
      "constant": true
    },
    {
      "inputs": [
        {
          "internalType": "uint256",
          "name": "launchId",
          "type": "uint256"
        }
      ],
      "name": "getOverallMaxAllocation",
      "outputs": [
        {
          "internalType": "uint256",
          "name": "",
          "type": "uint256"
        }
      ],
      "stateMutability": "view",
      "type": "function",
      "constant": true
    },
    {
      "inputs": [
        {
          "internalType": "address",
          "name": "user",
          "type": "address"
        },
        {
          "internalType": "uint256",
          "name": "launchId",
          "type": "uint256"
        }
      ],
      "name": "isUserWhitelisted",
      "outputs": [
        {
          "internalType": "bool",
          "name": "",
          "type": "bool"
        }
      ],
      "stateMutability": "view",
      "type": "function",
      "constant": true
    },
    {
      "inputs": [
        {
          "internalType": "uint256",
          "name": "launchId",
          "type": "uint256"
        }
      ],
      "name": "getTotalUnlockedPercentage",
      "outputs": [
        {
          "internalType": "uint256",
          "name": "totalUnlockedPercentage",
          "type": "uint256"
        }
      ],
      "stateMutability": "view",
      "type": "function",
      "constant": true
    },
    {
      "inputs": [
        {
          "internalType": "uint256",
          "name": "launchId",
          "type": "uint256"
        }
      ],
      "name": "getLaunchVestingPercentages",
      "outputs": [
        {
          "internalType": "uint256[]",
          "name": "",
          "type": "uint256[]"
        }
      ],
      "stateMutability": "view",
      "type": "function",
      "constant": true
    },
    {
      "inputs": [
        {
          "internalType": "uint256",
          "name": "launchId",
          "type": "uint256"
        }
      ],
      "name": "getTotalLaunchUserInvestment",
      "outputs": [
        {
          "internalType": "uint256",
          "name": "",
          "type": "uint256"
        }
      ],
      "stateMutability": "view",
      "type": "function",
      "constant": true
    },
    {
      "inputs": [
        {
          "internalType": "uint256",
          "name": "launchId",
          "type": "uint256"
        }
      ],
      "name": "getUnclaimedCommittedValue",
      "outputs": [
        {
          "internalType": "uint256",
          "name": "",
          "type": "uint256"
        }
      ],
      "stateMutability": "view",
      "type": "function",
      "constant": true
    },
    {
      "inputs": [
        {
          "internalType": "uint256[]",
          "name": "tierIds",
          "type": "uint256[]"
        },
        {
          "internalType": "uint256[]",
          "name": "stakingRequirements",
          "type": "uint256[]"
        },
        {
          "internalType": "uint256[]",
          "name": "tierWeights",
          "type": "uint256[]"
        }
      ],
      "name": "setBrandNewTiers",
      "outputs": [],
      "stateMutability": "nonpayable",
      "type": "function"
    },
    {
      "inputs": [
        {
          "internalType": "uint256[]",
          "name": "tierIds",
          "type": "uint256[]"
        },
        {
          "internalType": "uint256[]",
          "name": "stakingRequirements",
          "type": "uint256[]"
        }
      ],
      "name": "setTiersRequirements",
      "outputs": [],
      "stateMutability": "nonpayable",
      "type": "function"
    },
    {
      "inputs": [
        {
          "internalType": "uint256[]",
          "name": "tierIds",
          "type": "uint256[]"
        },
        {
          "internalType": "uint256[]",
          "name": "tierWeights",
          "type": "uint256[]"
        }
      ],
      "name": "setTiersAllocationWeights",
      "outputs": [],
      "stateMutability": "nonpayable",
      "type": "function"
    },
    {
      "inputs": [
        {
          "internalType": "string",
          "name": "name",
          "type": "string"
        },
        {
          "internalType": "string",
          "name": "tokenSymbol",
          "type": "string"
        },
        {
          "internalType": "string",
          "name": "detailsJsonUri",
          "type": "string"
        },
        {
          "internalType": "string",
          "name": "imageUrl",
          "type": "string"
        },
        {
          "internalType": "address",
          "name": "fundingTokenAddress",
          "type": "address"
        },
        {
          "internalType": "bool",
          "name": "commitOnly",
          "type": "bool"
        }
      ],
      "name": "addNewLaunch",
      "outputs": [],
      "stateMutability": "nonpayable",
      "type": "function"
    },
    {
      "inputs": [
        {
          "internalType": "uint256",
          "name": "launchId",
          "type": "uint256"
        },
        {
          "internalType": "uint256",
          "name": "startTime",
          "type": "uint256"
        }
      ],
      "name": "addSecondPhaseForLaunch",
      "outputs": [],
      "stateMutability": "nonpayable",
      "type": "function"
    },
    {
      "inputs": [
        {
          "internalType": "uint256",
          "name": "launchId",
          "type": "uint256"
        }
      ],
      "name": "removeLaunch",
      "outputs": [],
      "stateMutability": "nonpayable",
      "type": "function"
    },
    {
      "inputs": [
        {
          "internalType": "uint256",
          "name": "launchId",
          "type": "uint256"
        },
        {
          "internalType": "uint256",
          "name": "tokenPrice",
          "type": "uint256"
        },
        {
          "internalType": "uint256",
          "name": "startTime",
          "type": "uint256"
        },
        {
          "internalType": "uint256",
          "name": "fundsToRaise",
          "type": "uint256"
        }
      ],
      "name": "setLaunchDetails",
      "outputs": [],
      "stateMutability": "nonpayable",
      "type": "function"
    },
    {
      "inputs": [
        {
          "internalType": "uint256",
          "name": "launchId",
          "type": "uint256"
        },
        {
          "internalType": "string",
          "name": "name",
          "type": "string"
        }
      ],
      "name": "updateLaunchName",
      "outputs": [],
      "stateMutability": "nonpayable",
      "type": "function"
    },
    {
      "inputs": [
        {
          "internalType": "uint256",
          "name": "launchId",
          "type": "uint256"
        },
        {
          "internalType": "string",
          "name": "tokenSymbol",
          "type": "string"
        }
      ],
      "name": "updateLaunchTokenSymbol",
      "outputs": [],
      "stateMutability": "nonpayable",
      "type": "function"
    },
    {
      "inputs": [
        {
          "internalType": "uint256",
          "name": "launchId",
          "type": "uint256"
        },
        {
          "internalType": "string",
          "name": "detailsJsonUri",
          "type": "string"
        }
      ],
      "name": "updateLaunchDetailsJsonUri",
      "outputs": [],
      "stateMutability": "nonpayable",
      "type": "function"
    },
    {
      "inputs": [
        {
          "internalType": "uint256",
          "name": "launchId",
          "type": "uint256"
        },
        {
          "internalType": "string",
          "name": "imageUrl",
          "type": "string"
        }
      ],
      "name": "updateLaunchImageUrl",
      "outputs": [],
      "stateMutability": "nonpayable",
      "type": "function"
    },
    {
      "inputs": [
        {
          "internalType": "uint256",
          "name": "launchId",
          "type": "uint256"
        },
        {
          "internalType": "address",
          "name": "fundingTokenAddress",
          "type": "address"
        }
      ],
      "name": "updateLaunchFundingTokenAddress",
      "outputs": [],
      "stateMutability": "nonpayable",
      "type": "function"
    },
    {
      "inputs": [
        {
          "internalType": "uint256",
          "name": "launchId",
          "type": "uint256"
        },
        {
          "internalType": "bool",
          "name": "commitOnly",
          "type": "bool"
        }
      ],
      "name": "updateLaunchIsCommitOnly",
      "outputs": [],
      "stateMutability": "nonpayable",
      "type": "function"
    },
    {
      "inputs": [
        {
          "internalType": "uint256",
          "name": "launchId",
          "type": "uint256"
        },
        {
          "internalType": "uint256",
          "name": "tokenPrice",
          "type": "uint256"
        }
      ],
      "name": "updateLaunchTokenPrice",
      "outputs": [],
      "stateMutability": "nonpayable",
      "type": "function"
    },
    {
      "inputs": [
        {
          "internalType": "uint256",
          "name": "launchId",
          "type": "uint256"
        },
        {
          "internalType": "uint256",
          "name": "startTime",
          "type": "uint256"
        }
      ],
      "name": "updateLaunchStartTime",
      "outputs": [],
      "stateMutability": "nonpayable",
      "type": "function"
    },
    {
      "inputs": [
        {
          "internalType": "uint256",
          "name": "launchId",
          "type": "uint256"
        },
        {
          "internalType": "uint256",
          "name": "fundsToRaise",
          "type": "uint256"
        }
      ],
      "name": "updateLaunchFundsToRaise",
      "outputs": [],
      "stateMutability": "nonpayable",
      "type": "function"
    },
    {
      "inputs": [
        {
          "internalType": "uint256",
          "name": "launchId",
          "type": "uint256"
        },
        {
          "internalType": "address",
          "name": "tokenAddress",
          "type": "address"
        }
      ],
      "name": "updateLaunchTokenAddress",
      "outputs": [],
      "stateMutability": "nonpayable",
      "type": "function"
    },
    {
      "inputs": [
        {
          "internalType": "uint256",
          "name": "launchId",
          "type": "uint256"
        },
        {
          "internalType": "uint256",
          "name": "percentage",
          "type": "uint256"
        }
      ],
      "name": "enablePeriodicVesting",
      "outputs": [],
      "stateMutability": "nonpayable",
      "type": "function"
    },
    {
      "inputs": [
        {
          "internalType": "uint256",
          "name": "launchId",
          "type": "uint256"
        },
        {
          "internalType": "uint256",
          "name": "duration",
          "type": "uint256"
        }
      ],
      "name": "enableLinearVesting",
      "outputs": [],
      "stateMutability": "nonpayable",
      "type": "function"
    },
    {
      "inputs": [
        {
          "internalType": "uint256",
          "name": "launchId",
          "type": "uint256"
        },
        {
          "internalType": "address[]",
          "name": "users",
          "type": "address[]"
        },
        {
          "internalType": "uint256[]",
          "name": "stakedAmounts",
          "type": "uint256[]"
        }
      ],
      "name": "setEligibleUsersData",
      "outputs": [],
      "stateMutability": "nonpayable",
      "type": "function"
    },
    {
      "inputs": [
        {
          "internalType": "uint256",
          "name": "launchId",
          "type": "uint256"
        },
        {
          "internalType": "address[]",
          "name": "users",
          "type": "address[]"
        },
        {
          "internalType": "uint256[]",
          "name": "totalCommittedValues",
          "type": "uint256[]"
        }
      ],
      "name": "setTotalUnclaimedCommitted",
      "outputs": [],
      "stateMutability": "nonpayable",
      "type": "function"
    },
    {
      "inputs": [
        {
          "internalType": "uint256",
          "name": "launchId",
          "type": "uint256"
        }
      ],
      "name": "withdrawRaisedFunds",
      "outputs": [],
      "stateMutability": "nonpayable",
      "type": "function"
    },
    {
      "inputs": [
        {
          "internalType": "uint256",
          "name": "varField",
          "type": "uint256"
        },
        {
          "internalType": "uint256",
          "name": "value",
          "type": "uint256"
        }
      ],
      "name": "setVar",
      "outputs": [],
      "stateMutability": "nonpayable",
      "type": "function"
    },
    {
      "inputs": [
        {
          "internalType": "uint256[]",
          "name": "varFields",
          "type": "uint256[]"
        },
        {
          "internalType": "uint256[]",
          "name": "values",
          "type": "uint256[]"
        }
      ],
      "name": "setVars",
      "outputs": [],
      "stateMutability": "nonpayable",
      "type": "function"
    },
    {
      "inputs": [
        {
          "internalType": "uint256",
          "name": "price",
          "type": "uint256"
        }
      ],
      "name": "setSkillPrice",
      "outputs": [],
      "stateMutability": "nonpayable",
      "type": "function"
    },
    {
      "inputs": [
        {
          "internalType": "uint256",
          "name": "launchId",
          "type": "uint256"
        },
        {
          "internalType": "uint256",
          "name": "amount",
          "type": "uint256"
        }
      ],
      "name": "invest",
      "outputs": [],
      "stateMutability": "nonpayable",
      "type": "function"
    },
    {
      "inputs": [
        {
          "internalType": "uint256",
          "name": "launchId",
          "type": "uint256"
        },
        {
          "internalType": "uint256",
          "name": "vestingId",
          "type": "uint256"
        }
      ],
      "name": "claimPeriodic",
      "outputs": [],
      "stateMutability": "nonpayable",
      "type": "function"
    },
    {
      "inputs": [
        {
          "internalType": "uint256",
          "name": "launchId",
          "type": "uint256"
        }
      ],
      "name": "claimLinear",
      "outputs": [],
      "stateMutability": "nonpayable",
      "type": "function"
    },
    {
      "inputs": [
        {
          "internalType": "uint256",
          "name": "launchId",
          "type": "uint256"
        },
        {
          "internalType": "uint256",
          "name": "amount",
          "type": "uint256"
        },
        {
          "internalType": "address",
          "name": "whitelistedWallet",
          "type": "address"
        }
      ],
      "name": "commitUnclaimedSkill",
      "outputs": [],
      "stateMutability": "nonpayable",
      "type": "function"
    }
  ],
  "bytecode": "0x608060405234801561001057600080fd5b5061598c80620000216000396000f3fe608060405234801561001057600080fd5b50600436106104805760003560e01c8063811f0b5a11610257578063c1a9a5c811610146578063d83cedef116100c3578063e298597b11610087578063e298597b1461166a578063e6315a7614611672578063e71a136a1461168f578063ea6a9471146116ac578063f41f2ef0146116c957610480565b8063d83cedef146114cb578063d87aa643146114e8578063dcce7b3a1461150b578063dec0e41714611619578063e08823731461164557610480565b8063cc4f8e9c1161010a578063cc4f8e9c146113d4578063d062e2a214611406578063d24d14451461145f578063d547741f1461147c578063d5803e3c146114a857610480565b8063c1a9a5c8146112ea578063c1bb240014611357578063c4d66de814611374578063c8070b051461139a578063ca15c873146113b757610480565b8063979bd9cc116101d4578063b37ff4c911610198578063b37ff4c91461117d578063b523595914611185578063b65b03521461118d578063bba6610a14611202578063bbe73059146112c757610480565b8063979bd9cc146110605780639a273a09146110685780639b686f4f146110dd578063a13b222314611152578063a217fddf1461117557610480565b80639010d07c1161021b5780639010d07c14610f8f57806391d1485414610fce5780639318943514610ffa578063961012a1146110175780639654e1e51461103457610480565b8063811f0b5a14610ee3578063823c9aba14610f0057806389db0a8314610f235780638c07d89714610f405780638fc2452a14610f6c57610480565b80634a3d719d1161037357806364908f93116102f05780636c992a55116102b45780636c992a5514610bcf5780636e743fef14610bf2578063718588b614610c0f5780637371e30314610c2c5780637b443a7614610cf157610480565b806364908f9314610b1b578063661c548e14610b615780636aa3ee3514610b8d5780636adb125d14610baa5780636ba7590b14610bc757610480565b80635653d8c0116103375780635653d8c01461092357806358f4c922146109465780635c49d33e146109635780635f5ef80514610ad25780636231f75c14610afe57610480565b80634a3d719d146108955780634bbbd68a146108b85780634c017ef1146108db5780634f2ef0f3146108f85780635504d3d21461091b57610480565b8063320d5695116104015780633e71bf57116103c55780633e71bf5714610711578063417246191461073d5780634707d517146107455780634756e29a14610803578063483237841461082057610480565b8063320d56951461067457806336568abe146106a3578063391e5826146106cf578063392dc77b146106d75780633a4c7026146106f457610480565b80632992af98116104485780632992af98146105d45780632bf0b0fa146105f75780632f2ff15d1461061457806331107a4a1461064057806331a7ef601461066c57610480565b80630115a75d146104855780630979db90146104c35780630a7501bb146104f1578063248a9ca3146105af5780632970793a146105cc575b600080fd5b6104b16004803603604081101561049b57600080fd5b50803590602001356001600160a01b0316611787565b60408051918252519081900360200190f35b6104ef600480360360408110156104d957600080fd5b50803590602001356001600160a01b03166117a4565b005b6104ef6004803603604081101561050757600080fd5b810190602081018135600160201b81111561052157600080fd5b82018360208201111561053357600080fd5b803590602001918460208302840111600160201b8311171561055457600080fd5b919390929091602081019035600160201b81111561057157600080fd5b82018360208201111561058357600080fd5b803590602001918460208302840111600160201b831117156105a457600080fd5b5090925090506117f9565b6104b1600480360360208110156105c557600080fd5b5035611858565b6104b161186d565b6104ef600480360360408110156105ea57600080fd5b5080359060200135611872565b6104b16004803603602081101561060d57600080fd5b5035611897565b6104ef6004803603604081101561062a57600080fd5b50803590602001356001600160a01b03166118e0565b6104b16004803603604081101561065657600080fd5b506001600160a01b03813516906020013561194c565b6104b1611969565b6104ef6004803603608081101561068a57600080fd5b508035906020810135906040810135906060013561196e565b6104ef600480360360408110156106b957600080fd5b50803590602001356001600160a01b03166119a0565b6104b1611a01565b6104b1600480360360208110156106ed57600080fd5b5035611a06565b6104b16004803603602081101561070a57600080fd5b5035611a18565b6104b16004803603604081101561072757600080fd5b50803590602001356001600160a01b0316611a2a565b6104b1611a47565b6104ef6004803603604081101561075b57600080fd5b810190602081018135600160201b81111561077557600080fd5b82018360208201111561078757600080fd5b803590602001918460208302840111600160201b831117156107a857600080fd5b919390929091602081019035600160201b8111156107c557600080fd5b8201836020820111156107d757600080fd5b803590602001918460208302840111600160201b831117156107f857600080fd5b509092509050611a4c565b6104b16004803603602081101561081957600080fd5b5035611bce565b6104ef6004803603604081101561083657600080fd5b81359190810190604081016020820135600160201b81111561085757600080fd5b82018360208201111561086957600080fd5b803590602001918460018302840111600160201b8311171561088a57600080fd5b509092509050611be0565b6104b1600480360360408110156108ab57600080fd5b5080359060200135611c07565b6104ef600480360360408110156108ce57600080fd5b5080359060200135611d64565b6104b1600480360360208110156108f157600080fd5b5035611ec1565b6104ef6004803603604081101561090e57600080fd5b5080359060200135611ed3565b6104b161216f565b6104ef6004803603604081101561093957600080fd5b5080359060200135612191565b6104b16004803603602081101561095c57600080fd5b5035612210565b6104ef600480360360c081101561097957600080fd5b810190602081018135600160201b81111561099357600080fd5b8201836020820111156109a557600080fd5b803590602001918460018302840111600160201b831117156109c657600080fd5b919390929091602081019035600160201b8111156109e357600080fd5b8201836020820111156109f557600080fd5b803590602001918460018302840111600160201b83111715610a1657600080fd5b919390929091602081019035600160201b811115610a3357600080fd5b820183602082011115610a4557600080fd5b803590602001918460018302840111600160201b83111715610a6657600080fd5b919390929091602081019035600160201b811115610a8357600080fd5b820183602082011115610a9557600080fd5b803590602001918460018302840111600160201b83111715610ab657600080fd5b91935091506001600160a01b0381351690602001351515612222565b6104b160048036036040811015610ae857600080fd5b50803590602001356001600160a01b0316612452565b6104b160048036036020811015610b1457600080fd5b503561246f565b610b4d60048036036060811015610b3157600080fd5b506001600160a01b038135169060208101359060400135612481565b604080519115158252519081900360200190f35b6104b160048036036040811015610b7757600080fd5b50803590602001356001600160a01b03166124a7565b6104b160048036036020811015610ba357600080fd5b50356124c4565b6104ef60048036036020811015610bc057600080fd5b50356124d6565b6104b1612677565b6104ef60048036036040811015610be557600080fd5b508035906020013561267c565b6104b160048036036020811015610c0857600080fd5b5035612696565b6104b160048036036020811015610c2557600080fd5b50356126bd565b6104ef60048036036060811015610c4257600080fd5b81359190810190604081016020820135600160201b811115610c6357600080fd5b820183602082011115610c7557600080fd5b803590602001918460208302840111600160201b83111715610c9657600080fd5b919390929091602081019035600160201b811115610cb357600080fd5b820183602082011115610cc557600080fd5b803590602001918460208302840111600160201b83111715610ce657600080fd5b5090925090506126cf565b610d0e60048036036020811015610d0757600080fd5b5035612879565b6040518080602001806020018060200180602001886001600160a01b03166001600160a01b031681526020018781526020018615151515815260200185810385528c818151815260200191508051906020019080838360005b83811015610d7f578181015183820152602001610d67565b50505050905090810190601f168015610dac5780820380516001836020036101000a031916815260200191505b5085810384528b5181528b516020918201918d019080838360005b83811015610ddf578181015183820152602001610dc7565b50505050905090810190601f168015610e0c5780820380516001836020036101000a031916815260200191505b5085810383528a5181528a516020918201918c019080838360005b83811015610e3f578181015183820152602001610e27565b50505050905090810190601f168015610e6c5780820380516001836020036101000a031916815260200191505b5085810382528951815289516020918201918b019080838360005b83811015610e9f578181015183820152602001610e87565b50505050905090810190601f168015610ecc5780820380516001836020036101000a031916815260200191505b509b50505050505050505050505060405180910390f35b6104b160048036036020811015610ef957600080fd5b5035612afb565b6104ef60048036036040811015610f1657600080fd5b5080359060200135612b0d565b6104b160048036036020811015610f3957600080fd5b5035613136565b6104b160048036036040811015610f5657600080fd5b506001600160a01b03813516906020013561318d565b6104b160048036036040811015610f8257600080fd5b50803590602001356132bd565b610fb260048036036040811015610fa557600080fd5b50803590602001356132e9565b604080516001600160a01b039092168252519081900360200190f35b610b4d60048036036040811015610fe457600080fd5b50803590602001356001600160a01b0316613307565b6104ef6004803603602081101561101057600080fd5b5035613325565b6104b16004803603602081101561102d57600080fd5b50356133fb565b610b4d6004803603604081101561104a57600080fd5b506001600160a01b038135169060200135613599565b6104b16135d5565b6104ef6004803603604081101561107e57600080fd5b81359190810190604081016020820135600160201b81111561109f57600080fd5b8201836020820111156110b157600080fd5b803590602001918460018302840111600160201b831117156110d257600080fd5b5090925090506135db565b6104ef600480360360408110156110f357600080fd5b81359190810190604081016020820135600160201b81111561111457600080fd5b82018360208201111561112657600080fd5b803590602001918460018302840111600160201b8311171561114757600080fd5b5090925090506135ff565b6104ef6004803603604081101561116857600080fd5b5080359060200135613623565b6104b1613648565b6104b161364d565b6104b1613652565b6104ef600480360360408110156111a357600080fd5b81359190810190604081016020820135600160201b8111156111c457600080fd5b8201836020820111156111d657600080fd5b803590602001918460018302840111600160201b831117156111f757600080fd5b509092509050613658565b6104ef6004803603606081101561121857600080fd5b81359190810190604081016020820135600160201b81111561123957600080fd5b82018360208201111561124b57600080fd5b803590602001918460208302840111600160201b8311171561126c57600080fd5b919390929091602081019035600160201b81111561128957600080fd5b82018360208201111561129b57600080fd5b803590602001918460208302840111600160201b831117156112bc57600080fd5b50909250905061367c565b6104ef600480360360408110156112dd57600080fd5b5080359060200135613884565b6113076004803603602081101561130057600080fd5b5035613ba7565b60408051602080825283518183015283519192839290830191858101910280838360005b8381101561134357818101518382015260200161132b565b505050509050019250505060405180910390f35b610fb26004803603602081101561136d57600080fd5b5035613c09565b6104ef6004803603602081101561138a57600080fd5b50356001600160a01b0316613c24565b6104b1600480360360208110156113b057600080fd5b5035613d22565b6104b1600480360360208110156113cd57600080fd5b5035613d34565b6104ef600480360360608110156113ea57600080fd5b50803590602081013590604001356001600160a01b0316613d4b565b6114236004803603602081101561141c57600080fd5b5035614039565b60408051968752602087019590955285850193909352606085019190915260808401526001600160a01b031660a0830152519081900360c00190f35b6104ef6004803603602081101561147557600080fd5b503561409e565b6104ef6004803603604081101561149257600080fd5b50803590602001356001600160a01b0316614111565b6104b1600480360360408110156114be57600080fd5b508035906020013561416a565b6104ef600480360360208110156114e157600080fd5b5035614187565b6104ef600480360360408110156114fe57600080fd5b5080359060200135614194565b6104ef6004803603606081101561152157600080fd5b810190602081018135600160201b81111561153b57600080fd5b82018360208201111561154d57600080fd5b803590602001918460208302840111600160201b8311171561156e57600080fd5b919390929091602081019035600160201b81111561158b57600080fd5b82018360208201111561159d57600080fd5b803590602001918460208302840111600160201b831117156115be57600080fd5b919390929091602081019035600160201b8111156115db57600080fd5b8201836020820111156115ed57600080fd5b803590602001918460208302840111600160201b8311171561160e57600080fd5b509092509050614781565b6104ef6004803603604081101561162f57600080fd5b50803590602001356001600160a01b0316614905565b6104ef6004803603604081101561165b57600080fd5b50803590602001351515614949565b6104b161497f565b6104b16004803603602081101561168857600080fd5b5035614984565b6104b1600480360360208110156116a557600080fd5b50356149d6565b6104b1600480360360208110156116c257600080fd5b50356149e8565b6104ef600480360360408110156116df57600080fd5b810190602081018135600160201b8111156116f957600080fd5b82018360208201111561170b57600080fd5b803590602001918460208302840111600160201b8311171561172c57600080fd5b919390929091602081019035600160201b81111561174957600080fd5b82018360208201111561175b57600080fd5b803590602001918460208302840111600160201b8311171561177c57600080fd5b509092509050614a35565b607060209081526000928352604080842090915290825290205481565b816117ae81614bb7565b6117b6614c0b565b506000828152606e602052604080822080546001600160a01b039094166001600160a01b0319948516811790915560019094018252902080549091169091179055565b611801614c0b565b60005b838110156118515782828281811061181857fe5b905060200201356065600087878581811061182f57fe5b6020908102929092013583525081019190915260400160002055600101611804565b5050505050565b60009081526033602052604090206002015490565b600281565b8161187c81614c78565b611884614c0b565b506000918252606b602052604090912055565b7ffe5763447401b7824374db37a18d1b70c48b3096356db8b084cc5f29ca9debf75460008281526073602052604081205490916118da919063ffffffff614ce216565b92915050565b600082815260336020526040902060020154611903906118fe614d3b565b613307565b61193e5760405162461bcd60e51b815260040180806020018281038252602f8152602001806157e2602f913960400191505060405180910390fd5b6119488282614d40565b5050565b607960209081526000928352604080842090915290825290205481565b600581565b611976614c0b565b600093845260696020908152604080862094909455606a815283852092909255606b909152912055565b6119a8614d3b565b6001600160a01b0316816001600160a01b0316146119f75760405162461bcd60e51b815260040180806020018281038252602f815260200180615928602f913960400191505060405180910390fd5b6119488282614daf565b600181565b606d6020526000908152604090205481565b60776020526000908152604090205481565b607260209081526000928352604080842090915290825290205481565b600681565b611a54614c0b565b6001600052606560205260008051602061583783398151915254831115611ab3576040805162461bcd60e51b815260206004820152600e60248201526d546f6f206d616e7920746965727360901b604482015290519081900360640190fd5b828114611af5576040805162461bcd60e51b815260206004820152600b60248201526a15dc9bdb99c81a5b9c1d5d60aa1b604482015290519081900360640190fd5b60005b83811015611851576000858583818110611b0e57fe5b90506020020135118015611b4d57506001600052606560205260008051602061583783398151915254858583818110611b4357fe5b9050602002013511155b611b89576040805162461bcd60e51b815260206004820152600860248201526715dc9bdb99c81a5960c21b604482015290519081900360640190fd5b828282818110611b9557fe5b9050602002013560676000878785818110611bac57fe5b6020908102929092013583525081019190915260400160002055600101611af8565b606c6020526000908152604090205481565b611be8614c0b565b6000838152606860205260409020611c01908383615631565b50505050565b600082611c1381614bb7565b6000848152606e6020908152604080832054815163313ce56760e01b815291516001600160a01b039091169263313ce5679260048082019391829003018186803b158015611c6057600080fd5b505afa158015611c74573d6000803e3d6000fd5b505050506040513d6020811015611c8a57600080fd5b505160018601600090815260716020818152604080842033808652908352818520548b865293835281852090855290915282205460ff90931693509091611cd69163ffffffff614e1e16565b9050611d4e6064611d36607560008a81526020019081526020016000208881548110611cfe57fe5b60009182526020808320909101548b83526069909152604090912054611d4290611d3687670de0b6b3a764000063ffffffff614ce216565b9063ffffffff614e7816565b9063ffffffff614ce216565b9350611d5a8483614edf565b9695505050505050565b600082815260756020526040902054811115611db5576040805162461bcd60e51b815260206004820152600b60248201526a556e617661696c61626c6560a81b604482015290519081900360640190fd5b336000908152607a60209081526040808320858452825280832084845290915290205460ff1615611e1f576040805162461bcd60e51b815260206004820152600f60248201526e105b1c9958591e4818db185a5b5959608a1b604482015290519081900360640190fd5b336000908152607a6020908152604080832085845282528083208484529091528120805460ff19166001179055611e568383611c07565b6000848152606e6020526040902054909150611e82906001600160a01b0316338363ffffffff614f1f16565b6040805182815290518391859133917f88dd0c2bfab61b673e422b5446e53cec3ab2c8da47bd98221a09a37afba6045f919081900360200190a4505050565b606b6020526000908152604090205481565b81611edd81614bb7565b82611ee781614f76565b611eef614c0b565b60008311611efc57600080fd5b60008481526075602052604090205415611f5d576040805162461bcd60e51b815260206004820152601860248201527f506572696f6469632076657374696e6720656e61626c65640000000000000000604482015290519081900360640190fd5b600184016000908152606d60205260408082205486835290822054611f879163ffffffff614e1e16565b6000868152606e602090815260408083205481516370a0823160e01b8152306004820152915194955092936001600160a01b03909316926370a0823192602480840193919291829003018186803b158015611fe157600080fd5b505afa158015611ff5573d6000803e3d6000fd5b505050506040513d602081101561200b57600080fd5b50516000878152606e6020908152604080832054815163313ce56760e01b8152915194955092936001600160a01b039093169263313ce56792600480840193919291829003018186803b15801561206157600080fd5b505afa158015612075573d6000803e3d6000fd5b505050506040513d602081101561208b57600080fd5b505160ff16905061209c8282614edf565b6000888152606960205260409020549092506120ca90611d3685670de0b6b3a764000063ffffffff614ce216565b821015612113576040805162461bcd60e51b81526020600482015260126024820152714e6f7420656e6f7567682062616c616e636560701b604482015290519081900360640190fd5b6000878152607760209081526040808320899055607882529182902042908190558251908152915189927f95ee33ad74b754efcc1976efd8e8df5674414ef294f1ab6892a3e4e40a9291eb92908290030190a250505050505050565b604080516923a0a6a2afa0a226a4a760b11b8152905190819003600a01902081565b612199614c0b565b600082815260696020526040902054158015906121c357506000828152606b602052604090205415155b6121fe5760405162461bcd60e51b81526004018080602001828103825260288152602001806159006028913960400191505060405180910390fd5b6000918252606a602052604090912055565b60666020526000908152604090205481565b61222a614c0b565b6040518060e001604052808b8b8080601f016020809104026020016040519081016040528093929190818152602001838380828437600092019190915250505090825250604080516020601f8c018190048102820181019092528a815291810191908b908b9081908401838280828437600092019190915250505090825250604080516020601f8a0181900481028201810190925288815291810191908990899081908401838280828437600092019190915250505090825250604080516020601f88018190048102820181019092528681529181019190879087908190840183828082843760009201829052509385525050506001600160a01b0385166020808401919091526001604080850191909152851515606090940193909352607b54825260688152919020825180519192612369928492909101906156af565b50602082810151805161238292600185019201906156af565b506040820151805161239e9160028401916020909101906156af565b50606082015180516123ba9160038401916020909101906156af565b5060808201516004820180546001600160a01b0319166001600160a01b0390921691909117905560a0820151600582015560c0909101516006909101805460ff1916911515919091179055607b54604080516001815290517f54562cb97f802ccc9f17deae8b01b5bf9af044cf16290c28d637e6e4e4c561d2916020908290030190a25050607b805460020190555050505050505050565b607160209081526000928352604080842090915290825290205481565b606a6020526000908152604090205481565b607a60209081526000938452604080852082529284528284209052825290205460ff1681565b607460209081526000928352604080842090915290825290205481565b60676020526000908152604090205481565b806124e081614bb7565b6124eb600033613307565b612528576040805162461bcd60e51b81526020600482015260096024820152682737ba1037bbb732b960b91b604482015290519081900360640190fd5b7f2336b9432076a604ce9991266add6a78e7a0892d327c1598093d6435659e56fc546000838152606a6020526040902054014211801561259c57507ff08cf23b9096e47c93681aae499ab9bfe983e27d836cc8ef3d90a528deceea0c54600183016000908152606a60205260409020540142115b6125e3576040805162461bcd60e51b815260206004820152601360248201527213185d5b98da081b9bdd08199a5b9a5cda1959606a1b604482015290519081900360640190fd5b600182016000908152606d6020526040808220548483529082205461260d9163ffffffff614e1e16565b60008481526068602052604090206004015490915061263c906001600160a01b0316338363ffffffff614f1f16565b60408051828152905184917fd66662c0ded9e58fd31d5e44944bcfd07ffc15e6927ecc1382e7941cb7bd24c4919081900360200190a2505050565b600381565b612684614c0b565b60009182526065602052604090912055565b600160009081526065602052600080516020615837833981519152546118da9083906132bd565b60696020526000908152604090205481565b846126d981614bb7565b856126e381614c78565b6126eb614c0b565b86607b54101561272d576040805162461bcd60e51b815260206004820152600860248201526715dc9bdb99c8125160c21b604482015290519081900360640190fd5b841580159061273b57508483145b612778576040805162461bcd60e51b8152602060048201526009602482015268109859081a5b9c1d5d60ba1b604482015290519081900360640190fd5b6000805b8681101561280e5785858281811061279057fe5b90506020020135607460008b815260200190815260200160002060008a8a858181106127b857fe5b905060200201356001600160a01b03166001600160a01b03166001600160a01b03168152602001908152602001600020819055508585828181106127f857fe5b602002919091013592909201915060010161277c565b506000888152606b6020908152604080832054606c9092529091205461285d9161284291611d36908563ffffffff614ce216565b60008a8152606c60205260409020549063ffffffff614fd716565b6000988952606c60205260409098209790975550505050505050565b60686020908152600091825260409182902080548351601f600260001961010060018616150201909316929092049182018490048402810184019094528084529092918391908301828280156129105780601f106128e557610100808354040283529160200191612910565b820191906000526020600020905b8154815290600101906020018083116128f357829003601f168201915b505050505090806001018054600181600116156101000203166002900480601f0160208091040260200160405190810160405280929190818152602001828054600181600116156101000203166002900480156129ae5780601f10612983576101008083540402835291602001916129ae565b820191906000526020600020905b81548152906001019060200180831161299157829003601f168201915b50505060028085018054604080516020601f6000196101006001871615020190941695909504928301859004850281018501909152818152959695945090925090830182828015612a405780601f10612a1557610100808354040283529160200191612a40565b820191906000526020600020905b815481529060010190602001808311612a2357829003601f168201915b5050505060038301805460408051602060026001851615610100026000190190941693909304601f8101849004840282018401909252818152949594935090830182828015612ad05780601f10612aa557610100808354040283529160200191612ad0565b820191906000526020600020905b815481529060010190602001808311612ab357829003601f168201915b505050506004830154600584015460069094015492936001600160a01b039091169290915060ff1687565b60736020526000908152604090205481565b81612b1781614bb7565b612b1f614c0b565b612b2761571d565b60008481526068602090815260409182902082518154600260018216156101009081026000190190921604601f81018590049094028201810190945260e08101838152909391928492849190840182828015612bc45780601f10612b9957610100808354040283529160200191612bc4565b820191906000526020600020905b815481529060010190602001808311612ba757829003601f168201915b50505050508152602001600182018054600181600116156101000203166002900480601f016020809104026020016040519081016040528092919081815260200182805460018160011615610100020316600290048015612c665780601f10612c3b57610100808354040283529160200191612c66565b820191906000526020600020905b815481529060010190602001808311612c4957829003601f168201915b5050509183525050600282810180546040805160206001841615610100026000190190931694909404601f81018390048302850183019091528084529381019390830182828015612cf85780601f10612ccd57610100808354040283529160200191612cf8565b820191906000526020600020905b815481529060010190602001808311612cdb57829003601f168201915b505050918352505060038201805460408051602060026001851615610100026000190190941693909304601f8101849004840282018401909252818152938201939291830182828015612d8c5780601f10612d6157610100808354040283529160200191612d8c565b820191906000526020600020905b815481529060010190602001808311612d6f57829003601f168201915b505050918352505060048201546001600160a01b031660208201526005820154604082015260069091015460ff161515606090910152607b549091508410612e06576040805162461bcd60e51b815260206004820152600860248201526715dc9bdb99c81a5960c21b604482015290519081900360640190fd5b600184016000908152606a602052604090205415612e5b576040805162461bcd60e51b815260206004820152600d60248201526c105b1c9958591e481859191959609a1b604482015290519081900360640190fd5b7f2336b9432076a604ce9991266add6a78e7a0892d327c1598093d6435659e56fc546000858152606a6020526040902054014211612ed7576040805162461bcd60e51b8152602060048201526014602482015273141a185cd9480c481b9bdd08199a5b9a5cda195960621b604482015290519081900360640190fd5b6000848152606d6020908152604080832054606b909252822054612f009163ffffffff614fd716565b11612f44576040805162461bcd60e51b815260206004820152600f60248201526e151bdad95b9cc81cdbdb19081bdd5d608a1b604482015290519081900360640190fd5b6040805160e08101825282518152602080840151818301528383015182840152606080850151908301526080808501516001600160a01b031690830152600260a083015260c08085015115159083015260018701600090815260688252929092208151805192939192612fba92849201906156af565b506020828101518051612fd392600185019201906156af565b5060408201518051612fef9160028401916020909101906156af565b506060820151805161300b9160038401916020909101906156af565b5060808201516004820180546001600160a01b0319166001600160a01b0390921691909117905560a0820151600582015560c0909101516006909101805460ff1916911515919091179055600184016000818152606a60209081526040808320879055878352606982528083205493835280832093909355868252606d815282822054606b909152919020546130a091614fd7565b600185016000818152606b6020908152604080832094909455878252606c81528382205483835284832055878252606e8152838220548383529184902080546001600160a01b0319166001600160a01b0390931692909217909155825160028152925191927f54562cb97f802ccc9f17deae8b01b5bf9af044cf16290c28d637e6e4e4c561d2929081900390910190a250505050565b60008161314281614bb7565b6001830160009081526071602081815260408084203380865290835281852054888652938352818520908552909152909120546131849163ffffffff614e1e16565b91505b50919050565b6000600282066131f6576131ef826131ea607060006131b384600163ffffffff614fd716565b81526020019081526020016000206000876001600160a01b03166001600160a01b0316815260200190815260200160002054614984565b6132bd565b905061322b565b60008281526070602090815260408083206001600160a01b03871684529091529020546132289083906131ea90614984565b90505b7ffe5763447401b7824374db37a18d1b70c48b3096356db8b084cc5f29ca9debf75460008381526074602090815260408083206001600160a01b038816845290915290205461327f9163ffffffff614ce216565b60008381526071602090815260408083206001600160a01b03881684529091529020549101906132b690829063ffffffff614fd716565b9392505050565b600081815260676020908152604080832054858452606c9092528220546132b69163ffffffff614ce216565b60008281526033602052604081206132b6908363ffffffff61503416565b60008281526033602052604081206132b6908363ffffffff61504016565b600081815260776020526040902054613373576040805162461bcd60e51b815260206004820152600b60248201526a556e617661696c61626c6560a81b604482015290519081900360640190fd5b600061337e826133fb565b3360008181526079602090815260408083208784528252808320429055606e9091529020549192506133c0916001600160a01b0316908363ffffffff614f1f16565b604080518281529051839133917f633be38749668b813cbafe64bf2a720b5dbb5b6914c703a88fc03218f4d39c119181900360200190a35050565b60008161340781614bb7565b6000838152606e6020908152604080832054815163313ce56760e01b815291516001600160a01b039091169263313ce5679260048082019391829003018186803b15801561345457600080fd5b505afa158015613468573d6000803e3d6000fd5b505050506040513d602081101561347e57600080fd5b505160018501600090815260716020818152604080842033808652908352818520548a865293835281852090855290915282205460ff909316935090916134ca9163ffffffff614e1e16565b336000908152607960209081526040808320898452909152902054909150806134fe57506000858152607860205260409020545b60008681526077602090815260408083205460789092529091205401428111156135255750425b80821115613531578091505b60008781526077602052604090205461358290611d36613557848663ffffffff614fd716565b60008b815260696020526040902054611d4290611d3689670de0b6b3a764000063ffffffff614ce216565b955061358e8685614edf565b979650505050505050565b6000600282066135b7576135b482600163ffffffff614fd716565b91505b6000828152606f602052604090206132b6908463ffffffff61504016565b607b5481565b6135e3614c0b565b6000838152606860205260409020611c01906001018383615631565b613607614c0b565b6000838152606860205260409020611c01906003018383615631565b8161362d81614c78565b613635614c0b565b5060009182526069602052604090912055565b600081565b600481565b607c5481565b613660614c0b565b6000838152606860205260409020611c01906002018383615631565b8461368681614bb7565b8561369081614c78565b613698614c0b565b86607b5410156136da576040805162461bcd60e51b815260206004820152600860248201526715dc9bdb99c8125160c21b604482015290519081900360640190fd5b84158015906136e857508483145b613725576040805162461bcd60e51b8152602060048201526009602482015268109859081a5b9c1d5d60ba1b604482015290519081900360640190fd5b6000878152606c602052604081205415613768576000888152606c6020908152604080832054606b909252909120546137639163ffffffff614e7816565b61376b565b60005b905060005b86811015613864576137b888888381811061378757fe5b905060200201356001600160a01b0316606f60008c815260200190815260200160002061505590919063ffffffff16565b6137c15761385c565b8585828181106137cd57fe5b90506020020135607060008b815260200190815260200160002060008a8a858181106137f557fe5b905060200201356001600160a01b03166001600160a01b03166001600160a01b03168152602001908152602001600020819055506067600061384888888581811061383c57fe5b90506020020135614984565b815260200190815260200160002054820191505b600101613770565b506000888152606b602052604090205461285d908263ffffffff614e7816565b8161388e81614bb7565b8261389881614f76565b6138a0614c0b565b600084815260776020526040902054156138fa576040805162461bcd60e51b8152602060048201526016602482015275131a5b99585c881d995cdd1a5b99c8195b98589b195960521b604482015290519081900360640190fd5b606483613906866149e8565b01111561395a576040805162461bcd60e51b815260206004820152601960248201527f546f74616c2070657263656e7461676520657863656564656400000000000000604482015290519081900360640190fd5b600184016000908152606d602052604080822054868352908220546139849163ffffffff614e1e16565b6000868152606e602090815260408083205481516370a0823160e01b8152306004820152915194955092936001600160a01b03909316926370a0823192602480840193919291829003018186803b1580156139de57600080fd5b505afa1580156139f2573d6000803e3d6000fd5b505050506040513d6020811015613a0857600080fd5b50516000878152606e6020908152604080832054815163313ce56760e01b8152915194955092936001600160a01b039093169263313ce56792600480840193919291829003018186803b158015613a5e57600080fd5b505afa158015613a72573d6000803e3d6000fd5b505050506040513d6020811015613a8857600080fd5b505160ff169050613a998282614edf565b9150613adb6064611d3688613aad8b6149e8565b60008c815260696020526040902054910190611d4290611d3689670de0b6b3a764000063ffffffff614ce216565b821015613b24576040805162461bcd60e51b81526020600482015260126024820152714e6f7420656e6f7567682062616c616e636560701b604482015290519081900360640190fd5b60008781526075602090815260408083208054600181018255818552838520018a90558a845254607683528184206000199091018085529083529281902042908190558151908152905183928b927f88ef35ad1d14b976b2b27864185275925573e114a8f1e246b2ffd06f5c4b4b9d929081900390910190a35050505050505050565b600081815260756020908152604091829020805483518184028101840190945280845260609392830182828015613bfd57602002820191906000526020600020905b815481526020019060010190808311613be9575b50505050509050919050565b606e602052600090815260409020546001600160a01b031681565b600054610100900460ff1680613c3d5750613c3d61506a565b80613c4b575060005460ff16155b613c865760405162461bcd60e51b815260040180806020018281038252602e815260200180615887602e913960400191505060405180910390fd5b600054610100900460ff16158015613cb1576000805460ff1961ff0019909116610100171660011790555b613cb961507b565b613cc460003361193e565b604080516923a0a6a2afa0a226a4a760b11b8152905190819003600a019020613ced903361193e565b607d80546001600160a01b0319166001600160a01b0384161790556001607b558015611948576000805461ff00191690555050565b60786020526000908152604090205481565b60008181526033602052604081206118da9061511c565b8083613d578282615127565b84613d6181614c78565b85613d6b81614bb7565b7fb04664816ed18805f9f76c183dfc790ae2199deac78ef4875d3977c4556d8aa9546000888152606a60205260408120549091613dae919063ffffffff614fd716565b9050804210158015613dfc5750600660005260656020527f04a5731ce8ad6be395c578c475212c2c17a7a79e2d18742d54199a610648d25154613df890829063ffffffff614e1e16565b4211155b613e43576040805162461bcd60e51b81526020600482015260136024820152724e6f74206120636f6d6d69742077696e646f7760681b604482015290519081900360640190fd5b6000613e66670de0b6b3a7640000611d36607c548b614ce290919063ffffffff16565b60008a8152606b602090815260408220546005909252606590527fa658daa5290735f9f8eb96735ff19e7edf66e9fa2410847039992283ea5ce9b254919250613ebc91606491611d36919063ffffffff614ce216565b7ffe5763447401b7824374db37a18d1b70c48b3096356db8b084cc5f29ca9debf75460008b815260736020526040902054613f029190611d42908563ffffffff614e1e16565b1115613f55576040805162461bcd60e51b815260206004820152601760248201527f556e636c61696d6564206c696d69742072656163686564000000000000000000604482015290519081900360640190fd5b607d54604080516305243e7960e11b8152600481018b905233602482015290516001600160a01b0390921691630a487cf29160448082019260009290919082900301818387803b158015613fa857600080fd5b505af1158015613fbc573d6000803e3d6000fd5b50505060008a81526072602090815260408083206001600160a01b038c168085529083528184208054870190558d8452607383529281902080548601905580518c815290518d945033927fc41de2d6f2a9b2a36a9852a734ce57886aa31eeb4dc7495987593c1fceabcb28928290030190a4505050505050505050565b600081815260696020908152604080832054606a835281842054606b909352908320549092808061406987612696565b6000978852606d60209081526040808a2054606e9092529098205496989597949690956001600160a01b039091169350915050565b6140a6614c0b565b6000818152606860205260408120906140bf8282615765565b6140cd600183016000615765565b6140db600283016000615765565b6140e9600383016000615765565b506004810180546001600160a01b031916905560006005820155600601805460ff1916905550565b60008281526033602052604090206002015461412f906118fe614d3b565b6119f75760405162461bcd60e51b81526004018080602001828103825260308152602001806158576030913960400191505060405180910390fd5b607660209081526000928352604080842090915290825290205481565b61418f614c0b565b607c55565b33826141a08282615127565b6141a861571d565b60008581526068602090815260409182902082518154600260018216156101009081026000190190921604601f81018590049094028201810190945260e081018381529093919284928491908401828280156142455780601f1061421a57610100808354040283529160200191614245565b820191906000526020600020905b81548152906001019060200180831161422857829003601f168201915b50505050508152602001600182018054600181600116156101000203166002900480601f0160208091040260200160405190810160405280929190818152602001828054600181600116156101000203166002900480156142e75780601f106142bc576101008083540402835291602001916142e7565b820191906000526020600020905b8154815290600101906020018083116142ca57829003601f168201915b5050509183525050600282810180546040805160206001841615610100026000190190931694909404601f810183900483028501830190915280845293810193908301828280156143795780601f1061434e57610100808354040283529160200191614379565b820191906000526020600020905b81548152906001019060200180831161435c57829003601f168201915b505050918352505060038201805460408051602060026001851615610100026000190190941693909304601f810184900484028201840190925281815293820193929183018282801561440d5780601f106143e25761010080835404028352916020019161440d565b820191906000526020600020905b8154815290600101906020018083116143f057829003601f168201915b505050918352505060048201546001600160a01b031660208201526005820154604082015260069091015460ff16151560609091015260c081015190915015614494576040805162461bcd60e51b815260206004820152601460248201527324b73b32b9ba1037b7103234b3331031b430b4b760611b604482015290519081900360640190fd5b6000858152606a6020526040902054158015906144be57506000858152606a602052604090205442115b614504576040805162461bcd60e51b815260206004820152601260248201527113185d5b98da081b9bdd081cdd185c9d195960721b604482015290519081900360640190fd5b8060a00151600114801561454857507f2336b9432076a604ce9991266add6a78e7a0892d327c1598093d6435659e56fc546000868152606a60205260409020540142105b8061459257508060a00151600214801561459257507ff08cf23b9096e47c93681aae499ab9bfe983e27d836cc8ef3d90a528deceea0c546000868152606a60205260409020540142105b6145d2576040805162461bcd60e51b815260206004820152600c60248201526b13185d5b98da08195b99195960a21b604482015290519081900360640190fd5b600085815260696020526040902054614628576040805162461bcd60e51b8152602060048201526013602482015272151bdad95b881c1c9a58d9481b9bdd081cd95d606a1b604482015290519081900360640190fd5b6000858152606b6020908152604080832054606d9092529091205485011115614698576040805162461bcd60e51b815260206004820152601f60248201527f416d6f756e7420657863656564732072656d61696e696e6720737570706c7900604482015290519081900360640190fd5b836146a3338761318d565b10156146f6576040805162461bcd60e51b815260206004820152601d60248201527f416c6c6f636174696f6e20616c6c6f77616e6365206578636565646564000000604482015290519081900360640190fd5b6080810151614716906001600160a01b031633308763ffffffff61517416565b600085815260716020908152604080832033808552908352818420805489019055888452606d835292819020805488019055805187815290517fc3f75dfc78f6efac88ad5abb5e606276b903647d97b2a62a1ef89840a658bbc3929181900390910190a25050505050565b614789614c0b565b8483146147cb576040805162461bcd60e51b815260206004820152600b60248201526a15dc9bdb99c81a5b9c1d5d60aa1b604482015290519081900360640190fd5b6001600090815260656020526000805160206158378339815191528690555b858110156148fc57600087878381811061480057fe5b9050602002013511801561483f5750600160005260656020526000805160206158378339815191525487878381811061483557fe5b9050602002013511155b61487b576040805162461bcd60e51b815260206004820152600860248201526715dc9bdb99c81a5960c21b604482015290519081900360640190fd5b84848281811061488757fe5b905060200201356066600089898581811061489e57fe5b905060200201358152602001908152602001600020819055508282828181106148c357fe5b90506020020135606760008989858181106148da57fe5b60209081029290920135835250810191909152604001600020556001016147ea565b50505050505050565b8161490f81614c78565b614917614c0b565b5060009182526068602052604090912060040180546001600160a01b0319166001600160a01b03909216919091179055565b8161495381614c78565b61495b614c0b565b50600091825260686020526040909120600601805460ff1916911515919091179055565b600781565b600060015b600160005260656020526000805160206158378339815191525481116131875760008181526066602052604090205483106149c9576001909101906149ce565b613187565b600101614989565b60656020526000908152604090205481565b6000805b600083815260756020526040902054811015613187576000838152607560205260409020805482908110614a1c57fe5b60009182526020909120015491909101906001016149ec565b614a3d614c0b565b6001600052606560205260008051602061583783398151915254831115614a9c576040805162461bcd60e51b815260206004820152600e60248201526d546f6f206d616e7920746965727360901b604482015290519081900360640190fd5b828114614ade576040805162461bcd60e51b815260206004820152600b60248201526a15dc9bdb99c81a5b9c1d5d60aa1b604482015290519081900360640190fd5b60005b83811015611851576000858583818110614af757fe5b90506020020135118015614b3657506001600052606560205260008051602061583783398151915254858583818110614b2c57fe5b9050602002013511155b614b72576040805162461bcd60e51b815260206004820152600860248201526715dc9bdb99c81a5960c21b604482015290519081900360640190fd5b828282818110614b7e57fe5b9050602002013560666000878785818110614b9557fe5b6020908102929092013583525081019190915260400160002055600101614ae1565b60028106600114614c08576040805162461bcd60e51b8152602060048201526016602482015275557361626c65206f6e6c79206f6e207068617365203160501b604482015290519081900360640190fd5b50565b604080516923a0a6a2afa0a226a4a760b11b8152905190819003600a019020614c349033613307565b614c76576040805162461bcd60e51b815260206004820152600e60248201526d2737ba1033b0b6b29030b236b4b760911b604482015290519081900360640190fd5b565b6000818152606a60205260409020541580614ca057506000818152606a602052604090205442105b614c08576040805162461bcd60e51b815260206004820152600e60248201526d13185d5b98da081cdd185c9d195960921b604482015290519081900360640190fd5b600082614cf1575060006118da565b82820282848281614cfe57fe5b04146132b65760405162461bcd60e51b81526004018080602001828103825260218152602001806158b56021913960400191505060405180910390fd5b335b90565b6000828152603360205260409020614d5e908263ffffffff61505516565b1561194857614d6b614d3b565b6001600160a01b0316816001600160a01b0316837f2f8788117e7eff1d82e926ec794901d17c78024a50270940304540a733656f0d60405160405180910390a45050565b6000828152603360205260409020614dcd908263ffffffff6151ce16565b1561194857614dda614d3b565b6001600160a01b0316816001600160a01b0316837ff6391f5c32d9c69d2a47ea670b442974b53935d1edc7fd64eb21e047a839171b60405160405180910390a45050565b6000828201838110156132b6576040805162461bcd60e51b815260206004820152601b60248201527f536166654d6174683a206164646974696f6e206f766572666c6f770000000000604482015290519081900360640190fd5b6000808211614ece576040805162461bcd60e51b815260206004820152601a60248201527f536166654d6174683a206469766973696f6e206279207a65726f000000000000604482015290519081900360640190fd5b818381614ed757fe5b049392505050565b60006012821115614f0857614f01836011198401600a0a63ffffffff614ce216565b90506118da565b6132b6836012849003600a0a63ffffffff614e7816565b604080516001600160a01b038416602482015260448082018490528251808303909101815260649091019091526020810180516001600160e01b031663a9059cbb60e01b179052614f719084906151e3565b505050565b6000818152606e60205260409020546001600160a01b0316614c08576040805162461bcd60e51b8152602060048201526015602482015274151bdad95b881859191c995cdcc81b9bdd081cd95d605a1b604482015290519081900360640190fd5b60008282111561502e576040805162461bcd60e51b815260206004820152601e60248201527f536166654d6174683a207375627472616374696f6e206f766572666c6f770000604482015290519081900360640190fd5b50900390565b60006132b68383615294565b60006132b6836001600160a01b0384166152f8565b60006132b6836001600160a01b038416615310565b60006150753061535a565b15905090565b600054610100900460ff1680615094575061509461506a565b806150a2575060005460ff16155b6150dd5760405162461bcd60e51b815260040180806020018281038252602e815260200180615887602e913960400191505060405180910390fd5b600054610100900460ff16158015615108576000805460ff1961ff0019909116610100171660011790555b8015614c08576000805461ff001916905550565b60006118da82615360565b6151318282613599565b611948576040805162461bcd60e51b815260206004820152600f60248201526e139bdd081dda1a5d195b1a5cdd1959608a1b604482015290519081900360640190fd5b604080516001600160a01b0380861660248301528416604482015260648082018490528251808303909101815260849091019091526020810180516001600160e01b03166323b872dd60e01b179052611c019085906151e3565b60006132b6836001600160a01b038416615364565b6060615238826040518060400160405280602081526020017f5361666545524332303a206c6f772d6c6576656c2063616c6c206661696c6564815250856001600160a01b031661542a9092919063ffffffff16565b805190915015614f715780806020019051602081101561525757600080fd5b5051614f715760405162461bcd60e51b815260040180806020018281038252602a8152602001806158d6602a913960400191505060405180910390fd5b815460009082106152d65760405162461bcd60e51b81526004018080602001828103825260228152602001806157c06022913960400191505060405180910390fd5b8260000182815481106152e557fe5b9060005260206000200154905092915050565b60009081526001919091016020526040902054151590565b600061531c83836152f8565b615352575081546001818101845560008481526020808220909301849055845484825282860190935260409020919091556118da565b5060006118da565b3b151590565b5490565b60008181526001830160205260408120548015615420578354600019808301919081019060009087908390811061539757fe5b90600052602060002001549050808760000184815481106153b457fe5b6000918252602080832090910192909255828152600189810190925260409020908401905586548790806153e457fe5b600190038181906000526020600020016000905590558660010160008781526020019081526020016000206000905560019450505050506118da565b60009150506118da565b60606154398484600085615441565b949350505050565b6060824710156154825760405162461bcd60e51b81526004018080602001828103825260268152602001806158116026913960400191505060405180910390fd5b61548b8561535a565b6154dc576040805162461bcd60e51b815260206004820152601d60248201527f416464726573733a2063616c6c20746f206e6f6e2d636f6e7472616374000000604482015290519081900360640190fd5b60006060866001600160a01b031685876040518082805190602001908083835b6020831061551b5780518252601f1990920191602091820191016154fc565b6001836020036101000a03801982511681845116808217855250505050505090500191505060006040518083038185875af1925050503d806000811461557d576040519150601f19603f3d011682016040523d82523d6000602084013e615582565b606091505b509150915061358e8282866060831561559c5750816132b6565b8251156155ac5782518084602001fd5b8160405162461bcd60e51b81526004018080602001828103825283818151815260200191508051906020019080838360005b838110156155f65781810151838201526020016155de565b50505050905090810190601f1680156156235780820380516001836020036101000a031916815260200191505b509250505060405180910390fd5b828054600181600116156101000203166002900490600052602060002090601f016020900481019282601f106156725782800160ff1982351617855561569f565b8280016001018555821561569f579182015b8281111561569f578235825591602001919060010190615684565b506156ab9291506157a5565b5090565b828054600181600116156101000203166002900490600052602060002090601f016020900481019282601f106156f057805160ff191683800117855561569f565b8280016001018555821561569f579182015b8281111561569f578251825591602001919060010190615702565b6040518060e001604052806060815260200160608152602001606081526020016060815260200160006001600160a01b03168152602001600081526020016000151581525090565b50805460018160011615610100020316600290046000825580601f1061578b5750614c08565b601f016020900490600052602060002090810190614c0891905b614d3d91905b808211156156ab57600081556001016157ab56fe456e756d657261626c655365743a20696e646578206f7574206f6620626f756e6473416363657373436f6e74726f6c3a2073656e646572206d75737420626520616e2061646d696e20746f206772616e74416464726573733a20696e73756666696369656e742062616c616e636520666f722063616c6c4d5a9bd2e41301728d41c8e705190becb4e74abe869f75bdb405b63716a35f9e416363657373436f6e74726f6c3a2073656e646572206d75737420626520616e2061646d696e20746f207265766f6b65496e697469616c697a61626c653a20636f6e747261637420697320616c726561647920696e697469616c697a6564536166654d6174683a206d756c7469706c69636174696f6e206f766572666c6f775361666545524332303a204552433230206f7065726174696f6e20646964206e6f74207375636365656453657420746f6b656e20707269636520616e642066756e647320746f207261697365206669727374416363657373436f6e74726f6c3a2063616e206f6e6c792072656e6f756e636520726f6c657320666f722073656c66a2646970667358221220b3421fe3e03111c74780fbe34b513213edfb74aad05bd90361ea9d583691d74a64736f6c63430006050033",
  "immutableReferences": {},
  "source": "pragma solidity ^0.6.2;\r\n\r\nimport \"@openzeppelin/contracts-upgradeable/proxy/Initializable.sol\";\r\nimport \"@openzeppelin/contracts-upgradeable/access/AccessControlUpgradeable.sol\";\r\nimport \"@openzeppelin/contracts/utils/EnumerableSet.sol\";\r\nimport \"@openzeppelin/contracts/token/ERC20/IERC20.sol\";\r\nimport \"@openzeppelin/contracts/token/ERC20/ERC20.sol\";\r\nimport \"@openzeppelin/contracts/token/ERC20/SafeERC20.sol\";\r\nimport \"@openzeppelin/contracts/math/SafeMath.sol\";\r\n\r\nimport \"./common.sol\";\r\nimport \"./cryptoblades.sol\";\r\n\r\ncontract Launchpad is Initializable, AccessControlUpgradeable {\r\n    using SafeMath for uint256;\r\n    using SafeERC20 for IERC20;\r\n    using EnumerableSet for EnumerableSet.AddressSet;\r\n\r\n    bytes32 public constant GAME_ADMIN = keccak256(\"GAME_ADMIN\");\r\n\r\n    struct Launch {\r\n        string name;\r\n        string tokenSymbol;\r\n        string detailsJsonUri;\r\n        string imageUrl;\r\n        address fundingTokenAddress;\r\n        uint256 phase;\r\n        bool commitOnly;\r\n    }\r\n\r\n    // VARS\r\n    mapping(uint256 => uint256) public vars;\r\n    uint256 public constant VAR_TIERS_AMOUNT = 1;\r\n    uint256 public constant VAR_FUNDING_PERIOD_PHASE_1 = 2;\r\n    uint256 public constant VAR_FUNDING_PERIOD_PHASE_2 = 3;\r\n    uint256 public constant VAR_UNCLAIMED_TO_ALLOCATION_MULTIPLIER = 4;\r\n    uint256 public constant VAR_UNCLAIMED_ALLOCATION_PERCENTAGE = 5;\r\n    uint256 public constant VAR_UNCLAIMED_COMMIT_WINDOW = 6;\r\n    uint256 public constant VAR_UNCLAIMED_COMMIT_START_OFFSET = 7;\r\n    \r\n\r\n    // TIERS INFO\r\n    mapping(uint256 => uint256) public tierStakingRequirement;\r\n    mapping(uint256 => uint256) public tierAllocationWeight;\r\n\r\n    // LAUNCHPAD PROJECT INFO\r\n    mapping(uint256 => Launch) public launches;\r\n    mapping(uint256 => uint256) public launchTokenPrice;\r\n    mapping(uint256 => uint256) public launchStartTime;\r\n    mapping(uint256 => uint256) public launchFundsToRaise;\r\n    mapping(uint256 => uint256) public launchBaseAllocation;\r\n    mapping(uint256 => uint256) public launchTotalRaised;\r\n    mapping(uint256 => address) public launchTokenAddress;\r\n\r\n    // USER INFO\r\n    mapping(uint256 => EnumerableSet.AddressSet) launchEligibleUsersSnapshot;\r\n    mapping(uint256 => mapping(address => uint256)) public launchUserStakedAmountSnapshot;    \r\n    mapping(uint256 => mapping(address => uint256)) public launchUserInvestment;\r\n    mapping(uint256 => mapping(address => uint256)) public launchUserUnclaimedSkillCommittedValue;\r\n    mapping(uint256 => uint256) public launchTotalUnclaimedSkillCommittedValue;\r\n    mapping(uint256 => mapping(address => uint256)) public launchUserTotalUnclaimedSkillCommittedValue;\r\n\r\n    // VESTING INFO\r\n    mapping(uint256 => uint256[]) launchPeriodicVestingsPercentages;\r\n    mapping(uint256 => mapping(uint256 => uint256)) public launchPeriodicVestingsStartTimestamps;\r\n    mapping(uint256 => uint256) public launchLinearVestingsDurations;\r\n    mapping(uint256 => uint256) public launchLinearVestingsStartTimestamps;\r\n    mapping(address => mapping(uint256 => uint256)) public userLinearVestingClaimTimestamp;\r\n    mapping(address => mapping(uint256 => mapping(uint256 => bool))) public userClaimedVestingPortion;\r\n\r\n    uint256 public nextLaunchId;\r\n    uint256 public skillPrice;\r\n\r\n    CryptoBlades _game;\r\n\r\n    function initialize(CryptoBlades game) public initializer {\r\n        __AccessControl_init_unchained();\r\n        _setupRole(DEFAULT_ADMIN_ROLE, msg.sender);\r\n        _setupRole(GAME_ADMIN, msg.sender);\r\n\r\n        _game = game;\r\n        nextLaunchId = 1;\r\n    }\r\n\r\n    event LaunchAdded(uint256 indexed launchId, uint256 phase);\r\n    event Invested(address indexed user, uint256 amount);\r\n    event SkillCommitted(address indexed user, address indexed targetWallet, uint256 indexed launchId, uint256 amount);\r\n    event PeriodicVestingClaimed(address indexed user, uint256 indexed launchId, uint256 indexed vestingId, uint256 amount);\r\n    event LinearVestingClaimed(address indexed user, uint256 indexed launchId, uint256 amount);\r\n    event FundsWithdrawn(uint256 indexed launchId, uint256 amount);\r\n    event PeriodicVestingEnabled(uint256 indexed launchId, uint256 indexed vestingId, uint256 timestamp);\r\n    event LinearVestingEnabled(uint256 indexed launchId, uint256 timestamp);\r\n\r\n    // MODIFIERS\r\n    modifier restricted() {\r\n        _restricted();\r\n        _;\r\n    }\r\n\r\n    function _restricted() internal view {\r\n        require(hasRole(GAME_ADMIN, msg.sender), \"Not game admin\");\r\n    }\r\n\r\n    modifier onlyPhase1(uint256 launchId) {\r\n        _onlyPhase1(launchId);\r\n        _;\r\n    }\r\n\r\n    function _onlyPhase1(uint256 launchId) internal pure {\r\n        require(launchId % 2 == 1, \"Usable only on phase 1\");\r\n    }\r\n\r\n    modifier isUserWhitelistedForLaunch(address user, uint256 launchId) {\r\n        _isUserWhitelistedForLaunch(user, launchId);\r\n        _;\r\n    }\r\n\r\n    function _isUserWhitelistedForLaunch(address user, uint256 launchId) internal view {\r\n        require(isUserWhitelisted(user, launchId), \"Not whitelisted\");\r\n    }\r\n\r\n    modifier isTokenAddressSet(uint256 launchId) {\r\n        _isTokenAddressSet(launchId);\r\n        _;\r\n    }\r\n\r\n    function _isTokenAddressSet(uint256 launchId) internal view {\r\n        require(launchTokenAddress[launchId] != address(0), \"Token address not set\");\r\n    }\r\n\r\n    modifier launchNotStarted(uint256 launchId) {\r\n        _launchNotStarted(launchId);\r\n        _;\r\n    }\r\n\r\n    function _launchNotStarted(uint256 launchId) internal view {\r\n        require(launchStartTime[launchId] == 0 || launchStartTime[launchId] > block.timestamp, \"Launch started\");\r\n    }\r\n\r\n    // VIEWS\r\n\r\n    function getTierForStakedAmount(uint256 amount) public view returns (uint256 tier) {\r\n        for (uint256 i = 1; i <= vars[VAR_TIERS_AMOUNT]; i++) {\r\n            if (amount >= tierStakingRequirement[i]) {\r\n                tier++;\r\n            } else {\r\n                break;\r\n            }\r\n        }\r\n    }\r\n\r\n    function getLaunchAllocationForTier(uint256 launchId, uint256 tier) public view returns (uint256) {\r\n        return launchBaseAllocation[launchId].mul(tierAllocationWeight[tier]);\r\n    }\r\n\r\n    function getUserRemainingAllocationForLaunch(address user, uint256 launchId) public view returns (uint256 maxAllocation) {\r\n        if(launchId % 2 == 0) {\r\n            maxAllocation = getLaunchAllocationForTier(launchId, getTierForStakedAmount(launchUserStakedAmountSnapshot[launchId.sub(1)][user]));\r\n        }\r\n        else {\r\n            maxAllocation = getLaunchAllocationForTier(launchId, getTierForStakedAmount(launchUserStakedAmountSnapshot[launchId][user]));\r\n        }\r\n        maxAllocation += launchUserTotalUnclaimedSkillCommittedValue[launchId][user].mul(vars[VAR_UNCLAIMED_TO_ALLOCATION_MULTIPLIER]);\r\n        maxAllocation = maxAllocation.sub(launchUserInvestment[launchId][user]);\r\n    }\r\n\r\n    function getAvailableClaimAmount(uint256 launchId, uint256 vestingId) public onlyPhase1(launchId) view returns (uint256 claimAmount) {\r\n        uint256 decimals = ERC20(launchTokenAddress[launchId]).decimals();\r\n        uint256 totalUserInvestment = launchUserInvestment[launchId][msg.sender].add(launchUserInvestment[launchId + 1][msg.sender]);\r\n        claimAmount = totalUserInvestment.mul(1e18).div(launchTokenPrice[launchId]).mul(launchPeriodicVestingsPercentages[launchId][vestingId]).div(100);\r\n        claimAmount = Common.adjustDecimals(claimAmount, decimals);\r\n    }\r\n\r\n    function getLinearClaimAmount(uint256 launchId) public onlyPhase1(launchId) view returns (uint256 claimAmount) {\r\n        uint256 decimals = ERC20(launchTokenAddress[launchId]).decimals();\r\n        uint256 totalUserInvestment = launchUserInvestment[launchId][msg.sender].add(launchUserInvestment[launchId + 1][msg.sender]);\r\n        uint256 lastClaimTimestamp = userLinearVestingClaimTimestamp[msg.sender][launchId];\r\n        if(lastClaimTimestamp == 0) {\r\n            lastClaimTimestamp = launchLinearVestingsStartTimestamps[launchId];\r\n        }\r\n        uint256 effectiveClaimTimestamp = launchLinearVestingsStartTimestamps[launchId] + launchLinearVestingsDurations[launchId];\r\n        if(block.timestamp < effectiveClaimTimestamp) {\r\n            effectiveClaimTimestamp = block.timestamp;\r\n        }\r\n        if(lastClaimTimestamp > effectiveClaimTimestamp) {\r\n            lastClaimTimestamp = effectiveClaimTimestamp;\r\n        }\r\n        \r\n        claimAmount = totalUserInvestment.mul(1e18).div(launchTokenPrice[launchId]).mul(effectiveClaimTimestamp.sub(lastClaimTimestamp)).div(launchLinearVestingsDurations[launchId]);\r\n        claimAmount = Common.adjustDecimals(claimAmount, decimals);\r\n    }\r\n\r\n    function getLaunchDetails(uint256 launchId) public view returns (\r\n        uint256 tokenPrice,\r\n        uint256 startTime,\r\n        uint256 fundsToRaise,\r\n        uint256 maxAllocation,\r\n        uint256 totalRaised,\r\n        address tokenAddress) \r\n    {\r\n        tokenPrice = launchTokenPrice[launchId];\r\n        startTime = launchStartTime[launchId];\r\n        fundsToRaise = launchFundsToRaise[launchId];\r\n        maxAllocation = getOverallMaxAllocation(launchId);\r\n        totalRaised = launchTotalRaised[launchId];\r\n        tokenAddress = launchTokenAddress[launchId];\r\n    }\r\n\r\n    function getOverallMaxAllocation(uint256 launchId) public view returns (uint256) {\r\n        return getLaunchAllocationForTier(launchId, vars[VAR_TIERS_AMOUNT]);\r\n    }\r\n\r\n    function isUserWhitelisted(address user, uint256 launchId) public view returns (bool) {\r\n        if(launchId % 2 == 0) launchId = launchId.sub(1);\r\n        return launchEligibleUsersSnapshot[launchId].contains(user);\r\n    }\r\n\r\n    function getTotalUnlockedPercentage(uint256 launchId) public view returns (uint256 totalUnlockedPercentage) {\r\n        for(uint i = 0; i < launchPeriodicVestingsPercentages[launchId].length; i++) {\r\n            totalUnlockedPercentage += launchPeriodicVestingsPercentages[launchId][i];\r\n        }\r\n    }\r\n\r\n    function getLaunchVestingPercentages(uint256 launchId) public view returns(uint256[] memory) {\r\n        return launchPeriodicVestingsPercentages[launchId];\r\n    }\r\n\r\n    function getTotalLaunchUserInvestment(uint256 launchId) public onlyPhase1(launchId) view returns(uint256) {\r\n        return launchUserInvestment[launchId][msg.sender].add(launchUserInvestment[launchId + 1][msg.sender]);\r\n    }\r\n\r\n    function getUnclaimedCommittedValue(uint256 launchId) public view returns(uint256) {\r\n        return launchTotalUnclaimedSkillCommittedValue[launchId].mul(vars[VAR_UNCLAIMED_TO_ALLOCATION_MULTIPLIER]);\r\n    }\r\n\r\n    // RESTRICTED FUNCTIONS\r\n\r\n    // TIERS\r\n\r\n    function setBrandNewTiers(uint256[] calldata tierIds, uint256[] calldata stakingRequirements, uint256[] calldata tierWeights) external restricted {\r\n        require(tierIds.length == stakingRequirements.length, \"Wrong input\");\r\n        vars[VAR_TIERS_AMOUNT] = tierIds.length;\r\n        for (uint256 i = 0; i < tierIds.length; i++) {\r\n            require(tierIds[i] > 0 && tierIds[i] <= vars[VAR_TIERS_AMOUNT], \"Wrong id\");\r\n            tierStakingRequirement[tierIds[i]] = stakingRequirements[i];\r\n            tierAllocationWeight[tierIds[i]] = tierWeights[i];\r\n        }\r\n    }\r\n\r\n    function setTiersRequirements(uint256[] calldata tierIds, uint256[] calldata stakingRequirements) external restricted {\r\n        require(tierIds.length <= vars[VAR_TIERS_AMOUNT], \"Too many tiers\");\r\n        require(tierIds.length == stakingRequirements.length, \"Wrong input\");\r\n        for (uint256 i = 0; i < tierIds.length; i++) {\r\n            require(tierIds[i] > 0 && tierIds[i] <= vars[VAR_TIERS_AMOUNT], \"Wrong id\");\r\n            tierStakingRequirement[tierIds[i]] = stakingRequirements[i];\r\n        }\r\n    }\r\n\r\n    function setTiersAllocationWeights(uint256[] calldata tierIds, uint256[] calldata tierWeights) external restricted {\r\n        require(tierIds.length <= vars[VAR_TIERS_AMOUNT], \"Too many tiers\");\r\n        require(tierIds.length == tierWeights.length, \"Wrong input\");\r\n        for (uint256 i = 0; i < tierIds.length; i++) {\r\n            require(tierIds[i] > 0 && tierIds[i] <= vars[VAR_TIERS_AMOUNT], \"Wrong id\");\r\n            tierAllocationWeight[tierIds[i]] = tierWeights[i];\r\n        }\r\n    }\r\n\r\n    // PROJECT DETAILS\r\n\r\n    function addNewLaunch(\r\n        string calldata name,\r\n        string calldata tokenSymbol,\r\n        string calldata detailsJsonUri,\r\n        string calldata imageUrl,\r\n        address fundingTokenAddress,\r\n        bool commitOnly\r\n    ) external restricted {\r\n        launches[nextLaunchId] = Launch(\r\n            name,\r\n            tokenSymbol,\r\n            detailsJsonUri,\r\n            imageUrl,\r\n            fundingTokenAddress,\r\n            1,\r\n            commitOnly\r\n        );\r\n\r\n        emit LaunchAdded(nextLaunchId, 1);\r\n        // nextLaunchId + 1 is reserved for Phase 2s\r\n        nextLaunchId += 2;\r\n    }\r\n\r\n    function addSecondPhaseForLaunch(uint256 launchId, uint256 startTime) external onlyPhase1(launchId) restricted {\r\n        Launch memory lp = launches[launchId];\r\n        require(launchId < nextLaunchId, \"Wrong id\");\r\n        require(launchStartTime[launchId + 1] == 0, \"Already added\");\r\n        require(block.timestamp > launchStartTime[launchId] + vars[VAR_FUNDING_PERIOD_PHASE_1], \"Phase 1 not finished\");\r\n        require(launchFundsToRaise[launchId].sub(launchTotalRaised[launchId]) > 0, \"Tokens sold out\");\r\n        launches[launchId + 1] = Launch(\r\n            lp.name,\r\n            lp.tokenSymbol,\r\n            lp.detailsJsonUri,\r\n            lp.imageUrl,\r\n            lp.fundingTokenAddress,\r\n            2,\r\n            lp.commitOnly\r\n        );\r\n        \r\n        launchStartTime[launchId + 1] = startTime;\r\n        launchTokenPrice[launchId + 1] = launchTokenPrice[launchId];\r\n        launchFundsToRaise[launchId + 1] = launchFundsToRaise[launchId].sub(launchTotalRaised[launchId]);\r\n        launchBaseAllocation[launchId + 1] = launchBaseAllocation[launchId];\r\n        launchTokenAddress[launchId + 1] = launchTokenAddress[launchId];\r\n\r\n        emit LaunchAdded(launchId + 1, 2);\r\n    }\r\n\r\n    function removeLaunch(uint256 launchId) external restricted {\r\n        delete launches[launchId];\r\n    }\r\n\r\n    // UPDATING DETAILS\r\n    function setLaunchDetails(uint256 launchId, uint256 tokenPrice, uint256 startTime, uint256 fundsToRaise) external restricted {\r\n        launchTokenPrice[launchId] = tokenPrice;\r\n        launchStartTime[launchId] = startTime;\r\n        launchFundsToRaise[launchId] = fundsToRaise;\r\n    }\r\n\r\n    function updateLaunchName(uint256 launchId, string calldata name) external restricted {\r\n        launches[launchId].name = name;\r\n    }\r\n\r\n    function updateLaunchTokenSymbol(uint256 launchId, string calldata tokenSymbol) external restricted {\r\n        launches[launchId].tokenSymbol = tokenSymbol;\r\n    }\r\n\r\n    function updateLaunchDetailsJsonUri(uint256 launchId, string calldata detailsJsonUri) external restricted {\r\n        launches[launchId].detailsJsonUri = detailsJsonUri;\r\n    }\r\n\r\n    function updateLaunchImageUrl(uint256 launchId, string calldata imageUrl) external restricted {\r\n        launches[launchId].imageUrl = imageUrl;\r\n    }\r\n\r\n    function updateLaunchFundingTokenAddress(uint256 launchId, address fundingTokenAddress) external launchNotStarted(launchId) restricted {\r\n        launches[launchId].fundingTokenAddress = fundingTokenAddress;\r\n    }\r\n\r\n    function updateLaunchIsCommitOnly(uint256 launchId, bool commitOnly) external launchNotStarted(launchId) restricted {\r\n        launches[launchId].commitOnly = commitOnly;\r\n    }\r\n\r\n    function updateLaunchTokenPrice(uint256 launchId, uint256 tokenPrice) external launchNotStarted(launchId) restricted {\r\n        launchTokenPrice[launchId] = tokenPrice;\r\n    }\r\n\r\n    function updateLaunchStartTime(uint256 launchId, uint256 startTime) external restricted {\r\n        require(launchTokenPrice[launchId] != 0 && launchFundsToRaise[launchId] != 0, \"Set token price and funds to raise first\");\r\n        launchStartTime[launchId] = startTime;\r\n    }\r\n\r\n    function updateLaunchFundsToRaise(uint256 launchId, uint256 fundsToRaise) external launchNotStarted(launchId) restricted {\r\n        launchFundsToRaise[launchId] = fundsToRaise;\r\n    }\r\n\r\n    function updateLaunchTokenAddress(uint256 launchId, address tokenAddress) external onlyPhase1(launchId) restricted {\r\n        launchTokenAddress[launchId] = tokenAddress;\r\n        launchTokenAddress[launchId + 1] = tokenAddress;\r\n    }\r\n\r\n    // VESTING\r\n\r\n    function enablePeriodicVesting(uint256 launchId, uint256 percentage) external onlyPhase1(launchId) isTokenAddressSet(launchId) restricted {\r\n        require(launchLinearVestingsDurations[launchId] == 0, \"Linear vesting enabled\");\r\n        require(getTotalUnlockedPercentage(launchId) + percentage <= 100, \"Total percentage exceeded\");\r\n        uint256 totalLaunchRaised = launchTotalRaised[launchId].add(launchTotalRaised[launchId + 1]);\r\n        uint256 contractBalance = IERC20(launchTokenAddress[launchId]).balanceOf(address(this));\r\n        uint256 decimals = ERC20(launchTokenAddress[launchId]).decimals();\r\n        contractBalance = Common.adjustDecimals(contractBalance, decimals);\r\n        require(contractBalance >=\r\n            totalLaunchRaised.mul(1e18).div(launchTokenPrice[launchId]).mul(getTotalUnlockedPercentage(launchId) + percentage).div(100),\r\n            \"Not enough balance\");\r\n\r\n        launchPeriodicVestingsPercentages[launchId].push(percentage);\r\n        uint256 newVestingId = launchPeriodicVestingsPercentages[launchId].length - 1;\r\n        launchPeriodicVestingsStartTimestamps[launchId][newVestingId] = block.timestamp;\r\n        emit PeriodicVestingEnabled(launchId, newVestingId, block.timestamp);\r\n    }\r\n\r\n    function enableLinearVesting(uint256 launchId, uint256 duration) external onlyPhase1(launchId) isTokenAddressSet(launchId) restricted {\r\n        require(duration > 0);\r\n        require(launchPeriodicVestingsPercentages[launchId].length == 0, \"Periodic vesting enabled\");\r\n        uint256 totalLaunchRaised = launchTotalRaised[launchId].add(launchTotalRaised[launchId + 1]);\r\n        uint256 contractBalance = IERC20(launchTokenAddress[launchId]).balanceOf(address(this));\r\n        uint256 decimals = ERC20(launchTokenAddress[launchId]).decimals();\r\n        contractBalance = Common.adjustDecimals(contractBalance, decimals);\r\n        require(contractBalance >= totalLaunchRaised.mul(1e18).div(launchTokenPrice[launchId]), \"Not enough balance\");\r\n\r\n        launchLinearVestingsDurations[launchId] = duration;\r\n        launchLinearVestingsStartTimestamps[launchId] = block.timestamp;\r\n\r\n        emit LinearVestingEnabled(launchId, block.timestamp);\r\n    }\r\n\r\n    // WHITELISTING\r\n\r\n    function setEligibleUsersData(uint256 launchId, address[] calldata users, uint256[] calldata stakedAmounts) external onlyPhase1(launchId) launchNotStarted(launchId) restricted {\r\n        require(nextLaunchId >= launchId, \"Wrong ID\");\r\n        require(users.length > 0 && users.length == stakedAmounts.length, \"Bad input\");\r\n\r\n        uint totalWeight = launchBaseAllocation[launchId] == 0 ? 0 : launchFundsToRaise[launchId].div(launchBaseAllocation[launchId]);\r\n        for(uint i = 0; i < users.length; i++) {\r\n            if(!launchEligibleUsersSnapshot[launchId].add(users[i])) continue;\r\n            launchUserStakedAmountSnapshot[launchId][users[i]] = stakedAmounts[i];\r\n            totalWeight += tierAllocationWeight[getTierForStakedAmount(stakedAmounts[i])];\r\n        }\r\n        launchBaseAllocation[launchId] = launchFundsToRaise[launchId].div(totalWeight);\r\n    }\r\n\r\n    function setTotalUnclaimedCommitted(uint256 launchId, address[] calldata users, uint256[] calldata totalCommittedValues) external onlyPhase1(launchId) launchNotStarted(launchId) restricted {\r\n        require(nextLaunchId >= launchId, \"Wrong ID\");\r\n        require(users.length > 0 && users.length == totalCommittedValues.length, \"Bad input\");\r\n        uint256 unclaimedCommittedValue = 0;\r\n        for(uint i = 0; i < users.length; i++) {\r\n            launchUserTotalUnclaimedSkillCommittedValue[launchId][users[i]] = totalCommittedValues[i];\r\n            unclaimedCommittedValue += totalCommittedValues[i];\r\n        }\r\n        launchBaseAllocation[launchId] = launchBaseAllocation[launchId].sub(launchBaseAllocation[launchId].mul(unclaimedCommittedValue).div(launchFundsToRaise[launchId]));\r\n    }\r\n\r\n    // WITHDRAW RAISED FUNDS\r\n\r\n    function withdrawRaisedFunds(uint256 launchId) external onlyPhase1(launchId) {\r\n        require(hasRole(DEFAULT_ADMIN_ROLE, msg.sender), \"Not owner\");\r\n        require(\r\n            block.timestamp > launchStartTime[launchId] + vars[VAR_FUNDING_PERIOD_PHASE_1] &&\r\n            block.timestamp > launchStartTime[launchId + 1] + vars[VAR_FUNDING_PERIOD_PHASE_2],\r\n            \"Launch not finished\"\r\n        );\r\n\r\n        uint256 raisedFunds = launchTotalRaised[launchId].add(launchTotalRaised[launchId + 1]);\r\n\r\n        IERC20(launches[launchId].fundingTokenAddress).safeTransfer(msg.sender, raisedFunds);\r\n        emit FundsWithdrawn(launchId, raisedFunds);\r\n    }\r\n\r\n    // VARS SETTERS\r\n\r\n    function setVar(uint256 varField, uint256 value) external restricted {\r\n        vars[varField] = value;\r\n    }\r\n\r\n    function setVars(uint256[] calldata varFields, uint256[] calldata values) external restricted {\r\n        for (uint256 i = 0; i < varFields.length; i++) {\r\n            vars[varFields[i]] = values[i];\r\n        }\r\n    }\r\n\r\n    function setSkillPrice(uint256 price) external restricted {\r\n        skillPrice = price;\r\n    }\r\n\r\n    // USER FUNCTIONS\r\n\r\n    function invest(uint256 launchId, uint256 amount) external isUserWhitelistedForLaunch(msg.sender, launchId) {\r\n        Launch memory lp = launches[launchId];\r\n        require(!lp.commitOnly, \"Invest on diff chain\");\r\n        require(launchStartTime[launchId] != 0 && block.timestamp > launchStartTime[launchId], \"Launch not started\");\r\n        require((lp.phase == 1 && block.timestamp < launchStartTime[launchId] + vars[VAR_FUNDING_PERIOD_PHASE_1])\r\n            || (lp.phase == 2 && block.timestamp < launchStartTime[launchId] + vars[VAR_FUNDING_PERIOD_PHASE_2]), \"Launch ended\");\r\n        require(launchTokenPrice[launchId] != 0, \"Token price not set\");\r\n        require(launchTotalRaised[launchId] + amount <= launchFundsToRaise[launchId], \"Amount exceeds remaining supply\");\r\n        require(getUserRemainingAllocationForLaunch(msg.sender, launchId) >= amount, \"Allocation allowance exceeded\");\r\n\r\n        IERC20(lp.fundingTokenAddress).safeTransferFrom(msg.sender, address(this), amount);\r\n        launchUserInvestment[launchId][msg.sender] += amount;\r\n        launchTotalRaised[launchId] += amount;\r\n\r\n        emit Invested(msg.sender, amount);\r\n    }\r\n\r\n    function claimPeriodic(uint256 launchId, uint256 vestingId) external {\r\n        require(launchPeriodicVestingsPercentages[launchId].length >= vestingId, \"Unavailable\");\r\n        require(!userClaimedVestingPortion[msg.sender][launchId][vestingId], \"Already claimed\");\r\n\r\n        userClaimedVestingPortion[msg.sender][launchId][vestingId] = true;\r\n        uint256 claimAmount = getAvailableClaimAmount(launchId, vestingId);\r\n        IERC20(launchTokenAddress[launchId]).safeTransfer(msg.sender, claimAmount);\r\n\r\n        emit PeriodicVestingClaimed(msg.sender, launchId, vestingId, claimAmount);\r\n    }\r\n\r\n    function claimLinear(uint256 launchId) external {\r\n        require(launchLinearVestingsDurations[launchId] > 0, \"Unavailable\");\r\n\r\n        uint256 claimAmount = getLinearClaimAmount(launchId);\r\n        userLinearVestingClaimTimestamp[msg.sender][launchId] = block.timestamp;\r\n        IERC20(launchTokenAddress[launchId]).safeTransfer(msg.sender, claimAmount);\r\n\r\n        emit LinearVestingClaimed(msg.sender, launchId, claimAmount);\r\n    }\r\n\r\n    function commitUnclaimedSkill(uint256 launchId, uint256 amount, address whitelistedWallet) external isUserWhitelistedForLaunch(whitelistedWallet, launchId) launchNotStarted(launchId) onlyPhase1(launchId) {\r\n        uint256 windowStartTime = launchStartTime[launchId].sub(vars[VAR_UNCLAIMED_COMMIT_START_OFFSET]);\r\n        require(block.timestamp >= windowStartTime && block.timestamp <= windowStartTime.add(vars[VAR_UNCLAIMED_COMMIT_WINDOW]), \"Not a commit window\");\r\n        uint256 committingValue = amount.mul(skillPrice).div(1e18);\r\n        require((launchTotalUnclaimedSkillCommittedValue[launchId].add(committingValue)).mul(vars[VAR_UNCLAIMED_TO_ALLOCATION_MULTIPLIER]) <= vars[VAR_UNCLAIMED_ALLOCATION_PERCENTAGE].mul(launchFundsToRaise[launchId]).div(100), \"Unclaimed limit reached\");\r\n        _game.deductAfterPartnerClaim(amount, msg.sender);\r\n        launchUserUnclaimedSkillCommittedValue[launchId][whitelistedWallet] += committingValue;\r\n        launchTotalUnclaimedSkillCommittedValue[launchId] += committingValue;\r\n        \r\n        emit SkillCommitted(msg.sender, whitelistedWallet, launchId, amount);\r\n    }\r\n}\r\n",
  "sourcePath": "K:\\\\cryptoblades1\\cryptoblades\\contracts\\Launchpad.sol",
  "compiler": {
    "name": "solc",
    "version": "0.6.5+commit.f956cc89.Emscripten.clang"
  },
  "schemaVersion": "3.4.5",
  "updatedAt": "2022-09-25T08:10:26.649Z",
  "networkType": "ethereum",
  "devdoc": {
    "methods": {
      "getRoleAdmin(bytes32)": {
        "details": "Returns the admin role that controls `role`. See {grantRole} and {revokeRole}.     * To change a role's admin, use {_setRoleAdmin}."
      },
      "getRoleMember(bytes32,uint256)": {
        "details": "Returns one of the accounts that have `role`. `index` must be a value between 0 and {getRoleMemberCount}, non-inclusive.     * Role bearers are not sorted in any particular way, and their ordering may change at any point.     * WARNING: When using {getRoleMember} and {getRoleMemberCount}, make sure you perform all queries on the same block. See the following https://forum.openzeppelin.com/t/iterating-over-elements-on-enumerableset-in-openzeppelin-contracts/2296[forum post] for more information."
      },
      "getRoleMemberCount(bytes32)": {
        "details": "Returns the number of accounts that have `role`. Can be used together with {getRoleMember} to enumerate all bearers of a role."
      },
      "grantRole(bytes32,address)": {
        "details": "Grants `role` to `account`.     * If `account` had not been already granted `role`, emits a {RoleGranted} event.     * Requirements:     * - the caller must have ``role``'s admin role."
      },
      "hasRole(bytes32,address)": {
        "details": "Returns `true` if `account` has been granted `role`."
      },
      "renounceRole(bytes32,address)": {
        "details": "Revokes `role` from the calling account.     * Roles are often managed via {grantRole} and {revokeRole}: this function's purpose is to provide a mechanism for accounts to lose their privileges if they are compromised (such as when a trusted device is misplaced).     * If the calling account had been granted `role`, emits a {RoleRevoked} event.     * Requirements:     * - the caller must be `account`."
      },
      "revokeRole(bytes32,address)": {
        "details": "Revokes `role` from `account`.     * If `account` had been granted `role`, emits a {RoleRevoked} event.     * Requirements:     * - the caller must have ``role``'s admin role."
      }
    }
  },
  "userdoc": {
    "methods": {}
  }
}