{
  "contractName": "Merchandise",
  "abi": [
    {
      "anonymous": false,
      "inputs": [
        {
          "indexed": true,
          "internalType": "address",
          "name": "buyer",
          "type": "address"
        },
        {
          "indexed": true,
          "internalType": "uint256",
          "name": "orderId",
          "type": "uint256"
        },
        {
          "indexed": false,
          "internalType": "uint256",
          "name": "paid",
          "type": "uint256"
        },
        {
          "indexed": false,
          "internalType": "uint256[]",
          "name": "items",
          "type": "uint256[]"
        },
        {
          "indexed": false,
          "internalType": "uint8[]",
          "name": "amounts",
          "type": "uint8[]"
        }
      ],
      "name": "OrderPlaced",
      "type": "event"
    },
    {
      "anonymous": false,
      "inputs": [
        {
          "indexed": true,
          "internalType": "address",
          "name": "user",
          "type": "address"
        },
        {
          "indexed": true,
          "internalType": "uint256",
          "name": "orderNumber",
          "type": "uint256"
        },
        {
          "indexed": true,
          "internalType": "uint256",
          "name": "internalOrderNumber",
          "type": "uint256"
        },
        {
          "indexed": false,
          "internalType": "uint256",
          "name": "payingAmount",
          "type": "uint256"
        }
      ],
      "name": "OrderSaved",
      "type": "event"
    },
    {
      "anonymous": false,
      "inputs": [
        {
          "indexed": true,
          "internalType": "uint256",
          "name": "orderId",
          "type": "uint256"
        },
        {
          "indexed": true,
          "internalType": "uint8",
          "name": "newStatus",
          "type": "uint8"
        }
      ],
      "name": "OrderStatusChanged",
      "type": "event"
    },
    {
      "anonymous": false,
      "inputs": [
        {
          "indexed": true,
          "internalType": "bytes32",
          "name": "role",
          "type": "bytes32"
        },
        {
          "indexed": true,
          "internalType": "bytes32",
          "name": "previousAdminRole",
          "type": "bytes32"
        },
        {
          "indexed": true,
          "internalType": "bytes32",
          "name": "newAdminRole",
          "type": "bytes32"
        }
      ],
      "name": "RoleAdminChanged",
      "type": "event"
    },
    {
      "anonymous": false,
      "inputs": [
        {
          "indexed": true,
          "internalType": "bytes32",
          "name": "role",
          "type": "bytes32"
        },
        {
          "indexed": true,
          "internalType": "address",
          "name": "account",
          "type": "address"
        },
        {
          "indexed": true,
          "internalType": "address",
          "name": "sender",
          "type": "address"
        }
      ],
      "name": "RoleGranted",
      "type": "event"
    },
    {
      "anonymous": false,
      "inputs": [
        {
          "indexed": true,
          "internalType": "bytes32",
          "name": "role",
          "type": "bytes32"
        },
        {
          "indexed": true,
          "internalType": "address",
          "name": "account",
          "type": "address"
        },
        {
          "indexed": true,
          "internalType": "address",
          "name": "sender",
          "type": "address"
        }
      ],
      "name": "RoleRevoked",
      "type": "event"
    },
    {
      "inputs": [],
      "name": "DEFAULT_ADMIN_ROLE",
      "outputs": [
        {
          "internalType": "bytes32",
          "name": "",
          "type": "bytes32"
        }
      ],
      "stateMutability": "view",
      "type": "function",
      "constant": true
    },
    {
      "inputs": [],
      "name": "GAME_ADMIN",
      "outputs": [
        {
          "internalType": "bytes32",
          "name": "",
          "type": "bytes32"
        }
      ],
      "stateMutability": "view",
      "type": "function",
      "constant": true
    },
    {
      "inputs": [],
      "name": "LINK_SKILL_TOKEN",
      "outputs": [
        {
          "internalType": "uint256",
          "name": "",
          "type": "uint256"
        }
      ],
      "stateMutability": "view",
      "type": "function",
      "constant": true
    },
    {
      "inputs": [],
      "name": "STATUS_PAID",
      "outputs": [
        {
          "internalType": "uint8",
          "name": "",
          "type": "uint8"
        }
      ],
      "stateMutability": "view",
      "type": "function",
      "constant": true
    },
    {
      "inputs": [],
      "name": "VAR_ORDERS_ENABLED",
      "outputs": [
        {
          "internalType": "uint256",
          "name": "",
          "type": "uint256"
        }
      ],
      "stateMutability": "view",
      "type": "function",
      "constant": true
    },
    {
      "inputs": [],
      "name": "VAR_TRACK_INCOME",
      "outputs": [
        {
          "internalType": "uint256",
          "name": "",
          "type": "uint256"
        }
      ],
      "stateMutability": "view",
      "type": "function",
      "constant": true
    },
    {
      "inputs": [
        {
          "internalType": "uint256",
          "name": "",
          "type": "uint256"
        }
      ],
      "name": "externalOrderId",
      "outputs": [
        {
          "internalType": "uint256",
          "name": "",
          "type": "uint256"
        }
      ],
      "stateMutability": "view",
      "type": "function",
      "constant": true
    },
    {
      "inputs": [],
      "name": "game",
      "outputs": [
        {
          "internalType": "contract CryptoBlades",
          "name": "",
          "type": "address"
        }
      ],
      "stateMutability": "view",
      "type": "function",
      "constant": true
    },
    {
      "inputs": [
        {
          "internalType": "bytes32",
          "name": "role",
          "type": "bytes32"
        }
      ],
      "name": "getRoleAdmin",
      "outputs": [
        {
          "internalType": "bytes32",
          "name": "",
          "type": "bytes32"
        }
      ],
      "stateMutability": "view",
      "type": "function",
      "constant": true
    },
    {
      "inputs": [
        {
          "internalType": "bytes32",
          "name": "role",
          "type": "bytes32"
        },
        {
          "internalType": "uint256",
          "name": "index",
          "type": "uint256"
        }
      ],
      "name": "getRoleMember",
      "outputs": [
        {
          "internalType": "address",
          "name": "",
          "type": "address"
        }
      ],
      "stateMutability": "view",
      "type": "function",
      "constant": true
    },
    {
      "inputs": [
        {
          "internalType": "bytes32",
          "name": "role",
          "type": "bytes32"
        }
      ],
      "name": "getRoleMemberCount",
      "outputs": [
        {
          "internalType": "uint256",
          "name": "",
          "type": "uint256"
        }
      ],
      "stateMutability": "view",
      "type": "function",
      "constant": true
    },
    {
      "inputs": [
        {
          "internalType": "bytes32",
          "name": "role",
          "type": "bytes32"
        },
        {
          "internalType": "address",
          "name": "account",
          "type": "address"
        }
      ],
      "name": "grantRole",
      "outputs": [],
      "stateMutability": "nonpayable",
      "type": "function"
    },
    {
      "inputs": [
        {
          "internalType": "bytes32",
          "name": "role",
          "type": "bytes32"
        },
        {
          "internalType": "address",
          "name": "account",
          "type": "address"
        }
      ],
      "name": "hasRole",
      "outputs": [
        {
          "internalType": "bool",
          "name": "",
          "type": "bool"
        }
      ],
      "stateMutability": "view",
      "type": "function",
      "constant": true
    },
    {
      "inputs": [
        {
          "internalType": "uint256",
          "name": "",
          "type": "uint256"
        }
      ],
      "name": "itemPrices",
      "outputs": [
        {
          "internalType": "uint256",
          "name": "",
          "type": "uint256"
        }
      ],
      "stateMutability": "view",
      "type": "function",
      "constant": true
    },
    {
      "inputs": [
        {
          "internalType": "uint256",
          "name": "",
          "type": "uint256"
        }
      ],
      "name": "links",
      "outputs": [
        {
          "internalType": "address",
          "name": "",
          "type": "address"
        }
      ],
      "stateMutability": "view",
      "type": "function",
      "constant": true
    },
    {
      "inputs": [],
      "name": "lowestUnprocessedOrderID",
      "outputs": [
        {
          "internalType": "uint256",
          "name": "",
          "type": "uint256"
        }
      ],
      "stateMutability": "view",
      "type": "function",
      "constant": true
    },
    {
      "inputs": [],
      "name": "nextOrderID",
      "outputs": [
        {
          "internalType": "uint256",
          "name": "",
          "type": "uint256"
        }
      ],
      "stateMutability": "view",
      "type": "function",
      "constant": true
    },
    {
      "inputs": [
        {
          "internalType": "uint256",
          "name": "",
          "type": "uint256"
        },
        {
          "internalType": "uint256",
          "name": "",
          "type": "uint256"
        }
      ],
      "name": "orderBaskets",
      "outputs": [
        {
          "internalType": "uint32",
          "name": "",
          "type": "uint32"
        }
      ],
      "stateMutability": "view",
      "type": "function",
      "constant": true
    },
    {
      "inputs": [
        {
          "internalType": "uint256",
          "name": "",
          "type": "uint256"
        }
      ],
      "name": "orderBuyer",
      "outputs": [
        {
          "internalType": "address",
          "name": "",
          "type": "address"
        }
      ],
      "stateMutability": "view",
      "type": "function",
      "constant": true
    },
    {
      "inputs": [
        {
          "internalType": "uint256",
          "name": "",
          "type": "uint256"
        }
      ],
      "name": "orderData",
      "outputs": [
        {
          "internalType": "uint256",
          "name": "",
          "type": "uint256"
        }
      ],
      "stateMutability": "view",
      "type": "function",
      "constant": true
    },
    {
      "inputs": [
        {
          "internalType": "uint256",
          "name": "",
          "type": "uint256"
        }
      ],
      "name": "orderPaidAmount",
      "outputs": [
        {
          "internalType": "uint256",
          "name": "",
          "type": "uint256"
        }
      ],
      "stateMutability": "view",
      "type": "function",
      "constant": true
    },
    {
      "inputs": [
        {
          "internalType": "bytes32",
          "name": "role",
          "type": "bytes32"
        },
        {
          "internalType": "address",
          "name": "account",
          "type": "address"
        }
      ],
      "name": "renounceRole",
      "outputs": [],
      "stateMutability": "nonpayable",
      "type": "function"
    },
    {
      "inputs": [
        {
          "internalType": "bytes32",
          "name": "role",
          "type": "bytes32"
        },
        {
          "internalType": "address",
          "name": "account",
          "type": "address"
        }
      ],
      "name": "revokeRole",
      "outputs": [],
      "stateMutability": "nonpayable",
      "type": "function"
    },
    {
      "inputs": [],
      "name": "skillOracle",
      "outputs": [
        {
          "internalType": "contract IPriceOracle",
          "name": "",
          "type": "address"
        }
      ],
      "stateMutability": "view",
      "type": "function",
      "constant": true
    },
    {
      "inputs": [
        {
          "internalType": "uint256",
          "name": "",
          "type": "uint256"
        }
      ],
      "name": "vars",
      "outputs": [
        {
          "internalType": "uint256",
          "name": "",
          "type": "uint256"
        }
      ],
      "stateMutability": "view",
      "type": "function",
      "constant": true
    },
    {
      "inputs": [
        {
          "internalType": "contract CryptoBlades",
          "name": "_game",
          "type": "address"
        },
        {
          "internalType": "contract IPriceOracle",
          "name": "_skillOracle",
          "type": "address"
        }
      ],
      "name": "initialize",
      "outputs": [],
      "stateMutability": "nonpayable",
      "type": "function"
    },
    {
      "inputs": [
        {
          "internalType": "address",
          "name": "user",
          "type": "address"
        },
        {
          "internalType": "uint256",
          "name": "charge",
          "type": "uint256"
        }
      ],
      "name": "getUserAllowanceRequired",
      "outputs": [
        {
          "internalType": "uint256",
          "name": "",
          "type": "uint256"
        }
      ],
      "stateMutability": "view",
      "type": "function",
      "constant": true
    },
    {
      "inputs": [
        {
          "internalType": "address",
          "name": "user",
          "type": "address"
        },
        {
          "internalType": "uint256",
          "name": "charge",
          "type": "uint256"
        }
      ],
      "name": "canUserBeCharged",
      "outputs": [
        {
          "internalType": "bool",
          "name": "",
          "type": "bool"
        }
      ],
      "stateMutability": "view",
      "type": "function",
      "constant": true
    },
    {
      "inputs": [
        {
          "internalType": "address",
          "name": "tokenAddress",
          "type": "address"
        },
        {
          "internalType": "uint256",
          "name": "amount",
          "type": "uint256"
        }
      ],
      "name": "recoverToken",
      "outputs": [],
      "stateMutability": "nonpayable",
      "type": "function"
    },
    {
      "inputs": [
        {
          "internalType": "uint256",
          "name": "linkId",
          "type": "uint256"
        },
        {
          "internalType": "address",
          "name": "linkAddress",
          "type": "address"
        }
      ],
      "name": "setLink",
      "outputs": [],
      "stateMutability": "nonpayable",
      "type": "function"
    },
    {
      "inputs": [
        {
          "internalType": "contract IPriceOracle",
          "name": "newOracle",
          "type": "address"
        }
      ],
      "name": "setSkillOracle",
      "outputs": [],
      "stateMutability": "nonpayable",
      "type": "function"
    },
    {
      "inputs": [
        {
          "internalType": "uint256",
          "name": "item",
          "type": "uint256"
        },
        {
          "internalType": "uint256",
          "name": "usdCents",
          "type": "uint256"
        }
      ],
      "name": "setItemPrice",
      "outputs": [],
      "stateMutability": "nonpayable",
      "type": "function"
    },
    {
      "inputs": [
        {
          "internalType": "uint256",
          "name": "orderNumber",
          "type": "uint256"
        },
        {
          "internalType": "uint256",
          "name": "payingAmount",
          "type": "uint256"
        }
      ],
      "name": "createOrder",
      "outputs": [
        {
          "internalType": "uint256",
          "name": "",
          "type": "uint256"
        }
      ],
      "stateMutability": "nonpayable",
      "type": "function"
    },
    {
      "inputs": [
        {
          "internalType": "uint256",
          "name": "orderNumber",
          "type": "uint256"
        }
      ],
      "name": "getOrderPaidAmount",
      "outputs": [
        {
          "internalType": "uint256",
          "name": "",
          "type": "uint256"
        }
      ],
      "stateMutability": "view",
      "type": "function",
      "constant": true
    },
    {
      "inputs": [
        {
          "internalType": "uint256",
          "name": "varField",
          "type": "uint256"
        },
        {
          "internalType": "uint256",
          "name": "value",
          "type": "uint256"
        }
      ],
      "name": "setVar",
      "outputs": [],
      "stateMutability": "nonpayable",
      "type": "function"
    },
    {
      "inputs": [
        {
          "internalType": "uint256[]",
          "name": "varFields",
          "type": "uint256[]"
        },
        {
          "internalType": "uint256[]",
          "name": "values",
          "type": "uint256[]"
        }
      ],
      "name": "setVars",
      "outputs": [],
      "stateMutability": "nonpayable",
      "type": "function"
    }
  ],
  "bytecode": "0x608060405234801561001057600080fd5b506117f4806100206000396000f3fe608060405234801561001057600080fd5b506004361061021c5760003560e01c8063881d8a4011610125578063bf5c24db116100ad578063cfb040221161007c578063cfb0402214610698578063d547741f146106b5578063e71a136a146106e1578063f47a0acc146106fe578063f53a71f8146107065761021c565b8063bf5c24db1461062a578063bf91ad9e14610656578063c3fe3e2814610673578063ca15c8731461067b5761021c565b8063ac8049e1116100f4578063ac8049e114610570578063ad7bfc591461059c578063b29a8140146105d8578063b317d03114610604578063b9848515146106225761021c565b8063881d8a40146104e85780639010d07c1461050557806391d1485414610528578063a217fddf146105685761021c565b8063485cc955116101a8578063614b82e911610177578063614b82e91461043b57806365b63d07146104745780636c992a551461049a57806379109baa146104bd57806383b004b6146104e05761021c565b8063485cc955146103d95780634ab67b96146102215780635504d3d214610407578063592c73e81461040f5761021c565b80632f2ff15d116101ef5780632f2ff15d1461033957806336568abe1461036557806337006c61146103915780633f47dab8146103ae5780634229c35e146103b65761021c565b8063037700e2146102215780630a7501bb1461023b578063248a9ca3146102ff57806328cc80321461031c575b600080fd5b610229610723565b60408051918252519081900360200190f35b6102fd6004803603604081101561025157600080fd5b81019060208101813564010000000081111561026c57600080fd5b82018360208201111561027e57600080fd5b803590602001918460208302840111640100000000831117156102a057600080fd5b9193909290916020810190356401000000008111156102be57600080fd5b8201836020820111156102d057600080fd5b803590602001918460208302840111640100000000831117156102f257600080fd5b509092509050610728565b005b6102296004803603602081101561031557600080fd5b5035610787565b6102296004803603602081101561033257600080fd5b503561079c565b6102fd6004803603604081101561034f57600080fd5b50803590602001356001600160a01b03166107ae565b6102fd6004803603604081101561037b57600080fd5b50803590602001356001600160a01b031661081a565b610229600480360360208110156103a757600080fd5b503561087b565b61022961088d565b6102fd600480360360408110156103cc57600080fd5b5080359060200135610892565b6102fd600480360360408110156103ef57600080fd5b506001600160a01b03813581169160200135166108ac565b610229610993565b6102fd6004803603604081101561042557600080fd5b50803590602001356001600160a01b03166109b5565b6104586004803603602081101561045157600080fd5b50356109eb565b604080516001600160a01b039092168252519081900360200190f35b6102fd6004803603602081101561048a57600080fd5b50356001600160a01b0316610a06565b6102fd600480360360408110156104b057600080fd5b5080359060200135610a30565b610229600480360360408110156104d357600080fd5b5080359060200135610a4a565b610458610bf8565b610458600480360360208110156104fe57600080fd5b5035610c07565b6104586004803603604081101561051b57600080fd5b5080359060200135610c22565b6105546004803603604081101561053e57600080fd5b50803590602001356001600160a01b0316610c47565b604080519115158252519081900360200190f35b610229610c65565b6105546004803603604081101561058657600080fd5b506001600160a01b038135169060200135610c6a565b6105bf600480360360408110156105b257600080fd5b5080359060200135610d31565b6040805163ffffffff9092168252519081900360200190f35b6102fd600480360360408110156105ee57600080fd5b506001600160a01b038135169060200135610d77565b61060c610c65565b6040805160ff9092168252519081900360200190f35b610229610d99565b6102296004803603604081101561064057600080fd5b506001600160a01b038135169060200135610d9f565b6102296004803603602081101561066c57600080fd5b5035610e36565b610458610e48565b6102296004803603602081101561069157600080fd5b5035610e57565b610229600480360360208110156106ae57600080fd5b5035610e6e565b6102fd600480360360408110156106cb57600080fd5b50803590602001356001600160a01b0316610e80565b610229600480360360208110156106f757600080fd5b5035610ed9565b610229610eeb565b6102296004803603602081101561071c57600080fd5b5035610ef1565b600181565b610730610f03565b60005b838110156107805782828281811061074757fe5b905060200201356068600087878581811061075e57fe5b6020908102929092013583525081019190915260400160002055600101610733565b5050505050565b60009081526033602052604090206002015490565b6000908152606d602052604090205490565b6000828152603360205260409020600201546107d1906107cc610f70565b610c47565b61080c5760405162461bcd60e51b815260040180806020018281038252602f8152602001806116d9602f913960400191505060405180910390fd5b6108168282610f74565b5050565b610822610f70565b6001600160a01b0316816001600160a01b0316146108715760405162461bcd60e51b815260040180806020018281038252602f815260200180611790602f913960400191505060405180910390fd5b6108168282610fe3565b606d6020526000908152604090205481565b600281565b61089a610f03565b60009182526069602052604090912055565b600054610100900460ff16806108c557506108c5611052565b806108d3575060005460ff16155b61090e5760405162461bcd60e51b815260040180806020018281038252602e815260200180611738602e913960400191505060405180910390fd5b600054610100900460ff16158015610939576000805460ff1961ff0019909116610100171660011790555b610941611063565b61094c60003361080c565b606580546001600160a01b038086166001600160a01b0319928316179092556066805492851692909116919091179055801561098e576000805461ff00191690555b505050565b604080516923a0a6a2afa0a226a4a760b11b8152905190819003600a01902081565b6109bd611115565b60009182526067602052604090912080546001600160a01b0319166001600160a01b03909216919091179055565b606c602052600090815260409020546001600160a01b031681565b610a0e611115565b606680546001600160a01b0319166001600160a01b0392909216919091179055565b610a38610f03565b60009182526068602052604090912055565b6001600090815260686020527f82eaf0fca2207f91f5027fcf68136c84edb7e928c081c42aa5bbc2a771c7d37654610ac9576040805162461bcd60e51b815260206004820152601d60248201527f43616e6e6f7420706c616365206f7264657273207269676874206e6f77000000604482015290519081900360640190fd5b6000838152606c6020908152604080832080546001600160a01b031916339081179091556065546002855260689093527f7738fc943d038775bed8ef01a67b748c956896b0b810b5b4d06dc2c8632420e25482516377ddeaeb60e01b81526004810192909252602482018790521515604482015290516001600160a01b0392909216926377ddeaeb9260648084019382900301818387803b158015610b6d57600080fd5b505af1158015610b81573d6000803e3d6000fd5b5050506000848152606d60209081526040808320805487019055606a805484526070835292819020879055915482518681529251909350869233927ff8717a3804b1a7e7e3afdfd2ac32d32fa94013039f14030688c9bd602f98601f92918290030190a450606a8054600181019091555b92915050565b6066546001600160a01b031681565b6067602052600090815260409020546001600160a01b031681565b6000828152603360205260408120610c40908363ffffffff61115d16565b9392505050565b6000828152603360205260408120610c40908363ffffffff61116916565b600081565b600080610c778484610d9f565b6001600052606760209081527f6bee784efeb983674392298ab585b22866bedf00ebb0eea949d1e66f3f50e71d5460655460408051636eb1769f60e11b81526001600160a01b038a81166004830152928316602482015290519495508594919092169263dd62ed3e9260448082019391829003018186803b158015610cfb57600080fd5b505afa158015610d0f573d6000803e3d6000fd5b505050506040513d6020811015610d2557600080fd5b50511015949350505050565b606e6020528160005260406000208181548110610d4a57fe5b9060005260206000209060089182820401919006600402915091509054906101000a900463ffffffff1681565b610d7f611115565b6108166001600160a01b038316338363ffffffff61117e16565b606b5481565b60655460408051637998b3fd60e01b81526001600160a01b038581166004830152915160009384931691637998b3fd916024808301926020929190829003018186803b158015610dee57600080fd5b505afa158015610e02573d6000803e3d6000fd5b505050506040513d6020811015610e1857600080fd5b50519050808310610e2b57808303610e2e565b60005b949350505050565b60696020526000908152604090205481565b6065546001600160a01b031681565b6000818152603360205260408120610bf2906111d0565b606f6020526000908152604090205481565b600082815260336020526040902060020154610e9e906107cc610f70565b6108715760405162461bcd60e51b81526004018080602001828103825260308152602001806117086030913960400191505060405180910390fd5b60686020526000908152604090205481565b606a5481565b60706020526000908152604090205481565b604080516923a0a6a2afa0a226a4a760b11b8152905190819003600a019020610f2c9033610c47565b610f6e576040805162461bcd60e51b815260206004820152600e60248201526d2737ba1033b0b6b29030b236b4b760911b604482015290519081900360640190fd5b565b3390565b6000828152603360205260409020610f92908263ffffffff6111db16565b1561081657610f9f610f70565b6001600160a01b0316816001600160a01b0316837f2f8788117e7eff1d82e926ec794901d17c78024a50270940304540a733656f0d60405160405180910390a45050565b6000828152603360205260409020611001908263ffffffff6111f016565b156108165761100e610f70565b6001600160a01b0316816001600160a01b0316837ff6391f5c32d9c69d2a47ea670b442974b53935d1edc7fd64eb21e047a839171b60405160405180910390a45050565b600061105d30611205565b15905090565b600054610100900460ff168061107c575061107c611052565b8061108a575060005460ff16155b6110c55760405162461bcd60e51b815260040180806020018281038252602e815260200180611738602e913960400191505060405180910390fd5b600054610100900460ff161580156110f0576000805460ff1961ff0019909116610100171660011790555b6110f861120b565b61110061120b565b8015611112576000805461ff00191690555b50565b611120600033610c47565b610f6e576040805162461bcd60e51b81526020600482015260096024820152682737ba1030b236b4b760b91b604482015290519081900360640190fd5b6000610c4083836112ab565b6000610c40836001600160a01b03841661130f565b604080516001600160a01b038416602482015260448082018490528251808303909101815260649091019091526020810180516001600160e01b031663a9059cbb60e01b17905261098e908490611327565b6000610bf2826113d8565b6000610c40836001600160a01b0384166113dc565b6000610c40836001600160a01b038416611426565b3b151590565b600054610100900460ff16806112245750611224611052565b80611232575060005460ff16155b61126d5760405162461bcd60e51b815260040180806020018281038252602e815260200180611738602e913960400191505060405180910390fd5b600054610100900460ff16158015611100576000805460ff1961ff0019909116610100171660011790558015611112576000805461ff001916905550565b815460009082106112ed5760405162461bcd60e51b81526004018080602001828103825260228152602001806116b76022913960400191505060405180910390fd5b8260000182815481106112fc57fe5b9060005260206000200154905092915050565b60009081526001919091016020526040902054151590565b606061137c826040518060400160405280602081526020017f5361666545524332303a206c6f772d6c6576656c2063616c6c206661696c6564815250856001600160a01b03166114ec9092919063ffffffff16565b80519091501561098e5780806020019051602081101561139b57600080fd5b505161098e5760405162461bcd60e51b815260040180806020018281038252602a815260200180611766602a913960400191505060405180910390fd5b5490565b60006113e8838361130f565b61141e57508154600181810184556000848152602080822090930184905584548482528286019093526040902091909155610bf2565b506000610bf2565b600081815260018301602052604081205480156114e2578354600019808301919081019060009087908390811061145957fe5b906000526020600020015490508087600001848154811061147657fe5b6000918252602080832090910192909255828152600189810190925260409020908401905586548790806114a657fe5b60019003818190600052602060002001600090559055866001016000878152602001908152602001600020600090556001945050505050610bf2565b6000915050610bf2565b6060610e2e84846000858561150085611205565b611551576040805162461bcd60e51b815260206004820152601d60248201527f416464726573733a2063616c6c20746f206e6f6e2d636f6e7472616374000000604482015290519081900360640190fd5b60006060866001600160a01b031685876040518082805190602001908083835b602083106115905780518252601f199092019160209182019101611571565b6001836020036101000a03801982511681845116808217855250505050505090500191505060006040518083038185875af1925050503d80600081146115f2576040519150601f19603f3d011682016040523d82523d6000602084013e6115f7565b606091505b5091509150611607828286611612565b979650505050505050565b60608315611621575081610c40565b8251156116315782518084602001fd5b8160405162461bcd60e51b81526004018080602001828103825283818151815260200191508051906020019080838360005b8381101561167b578181015183820152602001611663565b50505050905090810190601f1680156116a85780820380516001836020036101000a031916815260200191505b509250505060405180910390fdfe456e756d657261626c655365743a20696e646578206f7574206f6620626f756e6473416363657373436f6e74726f6c3a2073656e646572206d75737420626520616e2061646d696e20746f206772616e74416363657373436f6e74726f6c3a2073656e646572206d75737420626520616e2061646d696e20746f207265766f6b65496e697469616c697a61626c653a20636f6e747261637420697320616c726561647920696e697469616c697a65645361666545524332303a204552433230206f7065726174696f6e20646964206e6f742073756363656564416363657373436f6e74726f6c3a2063616e206f6e6c792072656e6f756e636520726f6c657320666f722073656c66a2646970667358221220cdf10ff2201f8e58006c2456954ad5de48acae3bbba487180f2603ea4c5fd4f364736f6c63430006050033",
  "immutableReferences": {},
  "source": "pragma solidity ^0.6.5;\r\n\r\nimport \"@openzeppelin/contracts-upgradeable/proxy/Initializable.sol\";\r\nimport \"@openzeppelin/contracts-upgradeable/access/AccessControlUpgradeable.sol\";\r\nimport \"@openzeppelin/contracts/token/ERC20/IERC20.sol\";\r\nimport \"@openzeppelin/contracts/token/ERC20/SafeERC20.sol\";\r\nimport \"@openzeppelin/contracts/math/SafeMath.sol\";\r\nimport \"./cryptoblades.sol\";\r\n\r\ncontract Merchandise is Initializable, AccessControlUpgradeable {\r\n    using SafeERC20 for IERC20;\r\n    using SafeMath for uint256;\r\n    using SafeMath for uint64;\r\n\r\n    // NOTE: It was decided to not calculate prices on-chain, so a lot of variables/functions are unused\r\n\r\n    /* ========== CONSTANTS ========== */\r\n\r\n    bytes32 public constant GAME_ADMIN = keccak256(\"GAME_ADMIN\");\r\n\r\n    uint8 public constant STATUS_PAID = 0;\r\n\r\n    uint256 public constant LINK_SKILL_TOKEN = 1;\r\n\r\n    uint256 public constant VAR_ORDERS_ENABLED = 1; // can orders be placed?\r\n    uint256 public constant VAR_TRACK_INCOME = 2; // will income go to payouts?\r\n\r\n    /* ========== STATE VARIABLES ========== */\r\n\r\n    CryptoBlades public game;\r\n    IPriceOracle public skillOracle;\r\n\r\n    mapping(uint256 => address) public links;\r\n    mapping(uint256 => uint256) public vars;\r\n\r\n    mapping(uint256 => uint256) public itemPrices; // stored in USD cents\r\n\r\n    uint256 public nextOrderID;\r\n    uint256 public lowestUnprocessedOrderID;\r\n    mapping(uint256 => address) public orderBuyer;\r\n    mapping(uint256 => uint256) public orderPaidAmount;\r\n    mapping(uint256 => uint32[]) public orderBaskets; // 8 bits amount, 24 bits itemID\r\n    mapping(uint256 => uint256) public orderData; // 8 bits status, rest is timestamp (for now)\r\n    mapping(uint256 => uint256) public externalOrderId;\r\n\r\n    event OrderPlaced(address indexed buyer, uint256 indexed orderId, uint256 paid, uint256[] items, uint8[] amounts);\r\n    event OrderSaved(address indexed user, uint256 indexed orderNumber, uint256 indexed internalOrderNumber, uint256 payingAmount);\r\n    event OrderStatusChanged(uint256 indexed orderId, uint8 indexed newStatus);\r\n\r\n    /* ========== INITIALIZERS AND MIGRATORS ========== */\r\n\r\n    function initialize(CryptoBlades _game, IPriceOracle _skillOracle)\r\n        public\r\n        initializer\r\n    {\r\n        __AccessControl_init();\r\n\r\n        _setupRole(DEFAULT_ADMIN_ROLE, msg.sender);\r\n\r\n        game = _game;\r\n        skillOracle = _skillOracle;\r\n    }\r\n\r\n    /* ========== VIEWS ========== */\r\n\r\n    function getUserAllowanceRequired(address user, uint256 charge) public view returns (uint256) {\r\n        uint256 unclaimedSkill = game.getTokenRewardsFor(user);\r\n        return charge < unclaimedSkill ? 0 : charge-unclaimedSkill;\r\n    }\r\n\r\n    function canUserBeCharged(address user, uint256 charge) public view returns (bool) {\r\n        uint256 allowanceRequired = getUserAllowanceRequired(user, charge);\r\n        return IERC20(links[LINK_SKILL_TOKEN]).allowance(user, address(game)) >= allowanceRequired;\r\n    }\r\n\r\n    /* ========== MUTATIVE FUNCTIONS ========== */\r\n\r\n    function recoverToken(address tokenAddress, uint256 amount) external isAdmin {\r\n        IERC20(tokenAddress).safeTransfer(msg.sender, amount);\r\n    }\r\n\r\n    function setLink(uint256 linkId, address linkAddress) external isAdmin {\r\n        links[linkId] = linkAddress;\r\n    }\r\n\r\n    function setSkillOracle(IPriceOracle newOracle) external isAdmin {\r\n        skillOracle = newOracle;\r\n    }\r\n\r\n    function setItemPrice(uint256 item, uint256 usdCents) external restricted {\r\n        itemPrices[item] = usdCents;\r\n    }\r\n\r\n    function createOrder(uint256 orderNumber, uint256 payingAmount) external returns (uint256) {\r\n        require(vars[VAR_ORDERS_ENABLED] != 0, \"Cannot place orders right now\");\r\n        orderBuyer[orderNumber] = msg.sender;\r\n        game.payContractTokenOnly(msg.sender, payingAmount, vars[VAR_TRACK_INCOME] != 0);\r\n        orderPaidAmount[orderNumber] += payingAmount;\r\n        externalOrderId[nextOrderID] = orderNumber;\r\n\r\n        emit OrderSaved(msg.sender, orderNumber, nextOrderID, payingAmount);\r\n        return nextOrderID++;\r\n    }\r\n\r\n    function getOrderPaidAmount(uint256 orderNumber) public view returns (uint256) {\r\n        return orderPaidAmount[orderNumber];\r\n    }\r\n\r\n    function setVar(uint256 varField, uint256 value) external restricted {\r\n        vars[varField] = value;\r\n    }\r\n\r\n    function setVars(uint256[] calldata varFields, uint256[] calldata values) external restricted {\r\n        for(uint i = 0; i < varFields.length; i++) {\r\n            vars[varFields[i]] = values[i];\r\n        }\r\n    }\r\n\r\n    /* ========== MODIFIERS ========== */\r\n\r\n    modifier restricted() {\r\n        _restricted();\r\n        _;\r\n    }\r\n\r\n    function _restricted() internal view {\r\n        require(hasRole(GAME_ADMIN, msg.sender), \"Not game admin\");\r\n    }\r\n\r\n    modifier isAdmin() {\r\n         _isAdmin();\r\n        _;\r\n    }\r\n\r\n    function _isAdmin() internal view {\r\n         require(hasRole(DEFAULT_ADMIN_ROLE, msg.sender), \"Not admin\");\r\n    }\r\n\r\n}\r\n",
  "sourcePath": "K:\\\\cryptoblades1\\cryptoblades\\contracts\\Merchandise.sol",
  "compiler": {
    "name": "solc",
    "version": "0.6.5+commit.f956cc89.Emscripten.clang"
  },
  "schemaVersion": "3.4.5",
  "updatedAt": "2022-09-25T07:57:53.247Z",
  "networkType": "ethereum",
  "devdoc": {
    "methods": {
      "getRoleAdmin(bytes32)": {
        "details": "Returns the admin role that controls `role`. See {grantRole} and {revokeRole}.     * To change a role's admin, use {_setRoleAdmin}."
      },
      "getRoleMember(bytes32,uint256)": {
        "details": "Returns one of the accounts that have `role`. `index` must be a value between 0 and {getRoleMemberCount}, non-inclusive.     * Role bearers are not sorted in any particular way, and their ordering may change at any point.     * WARNING: When using {getRoleMember} and {getRoleMemberCount}, make sure you perform all queries on the same block. See the following https://forum.openzeppelin.com/t/iterating-over-elements-on-enumerableset-in-openzeppelin-contracts/2296[forum post] for more information."
      },
      "getRoleMemberCount(bytes32)": {
        "details": "Returns the number of accounts that have `role`. Can be used together with {getRoleMember} to enumerate all bearers of a role."
      },
      "grantRole(bytes32,address)": {
        "details": "Grants `role` to `account`.     * If `account` had not been already granted `role`, emits a {RoleGranted} event.     * Requirements:     * - the caller must have ``role``'s admin role."
      },
      "hasRole(bytes32,address)": {
        "details": "Returns `true` if `account` has been granted `role`."
      },
      "renounceRole(bytes32,address)": {
        "details": "Revokes `role` from the calling account.     * Roles are often managed via {grantRole} and {revokeRole}: this function's purpose is to provide a mechanism for accounts to lose their privileges if they are compromised (such as when a trusted device is misplaced).     * If the calling account had been granted `role`, emits a {RoleRevoked} event.     * Requirements:     * - the caller must be `account`."
      },
      "revokeRole(bytes32,address)": {
        "details": "Revokes `role` from `account`.     * If `account` had been granted `role`, emits a {RoleRevoked} event.     * Requirements:     * - the caller must have ``role``'s admin role."
      }
    }
  },
  "userdoc": {
    "methods": {}
  }
}