{
  "contractName": "NFTMarket",
  "abi": [
    {
      "anonymous": false,
      "inputs": [
        {
          "indexed": true,
          "internalType": "address",
          "name": "seller",
          "type": "address"
        },
        {
          "indexed": true,
          "internalType": "contract IERC721",
          "name": "nftAddress",
          "type": "address"
        },
        {
          "indexed": true,
          "internalType": "uint256",
          "name": "nftID",
          "type": "uint256"
        }
      ],
      "name": "CancelledListing",
      "type": "event"
    },
    {
      "anonymous": false,
      "inputs": [
        {
          "indexed": true,
          "internalType": "address",
          "name": "seller",
          "type": "address"
        },
        {
          "indexed": true,
          "internalType": "contract IERC721",
          "name": "nftAddress",
          "type": "address"
        },
        {
          "indexed": true,
          "internalType": "uint256",
          "name": "nftID",
          "type": "uint256"
        },
        {
          "indexed": false,
          "internalType": "uint256",
          "name": "newPrice",
          "type": "uint256"
        }
      ],
      "name": "ListingPriceChange",
      "type": "event"
    },
    {
      "anonymous": false,
      "inputs": [
        {
          "indexed": true,
          "internalType": "address",
          "name": "seller",
          "type": "address"
        },
        {
          "indexed": true,
          "internalType": "contract IERC721",
          "name": "nftAddress",
          "type": "address"
        },
        {
          "indexed": true,
          "internalType": "uint256",
          "name": "nftID",
          "type": "uint256"
        },
        {
          "indexed": false,
          "internalType": "address",
          "name": "newTargetBuyer",
          "type": "address"
        }
      ],
      "name": "ListingTargetBuyerChange",
      "type": "event"
    },
    {
      "anonymous": false,
      "inputs": [
        {
          "indexed": true,
          "internalType": "address",
          "name": "seller",
          "type": "address"
        },
        {
          "indexed": true,
          "internalType": "contract IERC721",
          "name": "nftAddress",
          "type": "address"
        },
        {
          "indexed": true,
          "internalType": "uint256",
          "name": "nftID",
          "type": "uint256"
        },
        {
          "indexed": false,
          "internalType": "uint256",
          "name": "price",
          "type": "uint256"
        },
        {
          "indexed": false,
          "internalType": "address",
          "name": "targetBuyer",
          "type": "address"
        }
      ],
      "name": "NewListing",
      "type": "event"
    },
    {
      "anonymous": false,
      "inputs": [
        {
          "indexed": true,
          "internalType": "address",
          "name": "buyer",
          "type": "address"
        },
        {
          "indexed": false,
          "internalType": "address",
          "name": "seller",
          "type": "address"
        },
        {
          "indexed": true,
          "internalType": "contract IERC721",
          "name": "nftAddress",
          "type": "address"
        },
        {
          "indexed": true,
          "internalType": "uint256",
          "name": "nftID",
          "type": "uint256"
        },
        {
          "indexed": false,
          "internalType": "uint256",
          "name": "price",
          "type": "uint256"
        }
      ],
      "name": "PurchasedListing",
      "type": "event"
    },
    {
      "anonymous": false,
      "inputs": [
        {
          "indexed": true,
          "internalType": "bytes32",
          "name": "role",
          "type": "bytes32"
        },
        {
          "indexed": true,
          "internalType": "bytes32",
          "name": "previousAdminRole",
          "type": "bytes32"
        },
        {
          "indexed": true,
          "internalType": "bytes32",
          "name": "newAdminRole",
          "type": "bytes32"
        }
      ],
      "name": "RoleAdminChanged",
      "type": "event"
    },
    {
      "anonymous": false,
      "inputs": [
        {
          "indexed": true,
          "internalType": "bytes32",
          "name": "role",
          "type": "bytes32"
        },
        {
          "indexed": true,
          "internalType": "address",
          "name": "account",
          "type": "address"
        },
        {
          "indexed": true,
          "internalType": "address",
          "name": "sender",
          "type": "address"
        }
      ],
      "name": "RoleGranted",
      "type": "event"
    },
    {
      "anonymous": false,
      "inputs": [
        {
          "indexed": true,
          "internalType": "bytes32",
          "name": "role",
          "type": "bytes32"
        },
        {
          "indexed": true,
          "internalType": "address",
          "name": "account",
          "type": "address"
        },
        {
          "indexed": true,
          "internalType": "address",
          "name": "sender",
          "type": "address"
        }
      ],
      "name": "RoleRevoked",
      "type": "event"
    },
    {
      "inputs": [],
      "name": "DEFAULT_ADMIN_ROLE",
      "outputs": [
        {
          "internalType": "bytes32",
          "name": "",
          "type": "bytes32"
        }
      ],
      "stateMutability": "view",
      "type": "function",
      "constant": true
    },
    {
      "inputs": [],
      "name": "GAME_ADMIN",
      "outputs": [
        {
          "internalType": "bytes32",
          "name": "",
          "type": "bytes32"
        }
      ],
      "stateMutability": "view",
      "type": "function",
      "constant": true
    },
    {
      "inputs": [],
      "name": "addFee",
      "outputs": [
        {
          "internalType": "int128",
          "name": "",
          "type": "int128"
        }
      ],
      "stateMutability": "view",
      "type": "function",
      "constant": true
    },
    {
      "inputs": [],
      "name": "burningManager",
      "outputs": [
        {
          "internalType": "contract BurningManager",
          "name": "",
          "type": "address"
        }
      ],
      "stateMutability": "view",
      "type": "function",
      "constant": true
    },
    {
      "inputs": [],
      "name": "changeFee",
      "outputs": [
        {
          "internalType": "int128",
          "name": "",
          "type": "int128"
        }
      ],
      "stateMutability": "view",
      "type": "function",
      "constant": true
    },
    {
      "inputs": [],
      "name": "defaultTax",
      "outputs": [
        {
          "internalType": "int128",
          "name": "",
          "type": "int128"
        }
      ],
      "stateMutability": "view",
      "type": "function",
      "constant": true
    },
    {
      "inputs": [
        {
          "internalType": "bytes32",
          "name": "role",
          "type": "bytes32"
        }
      ],
      "name": "getRoleAdmin",
      "outputs": [
        {
          "internalType": "bytes32",
          "name": "",
          "type": "bytes32"
        }
      ],
      "stateMutability": "view",
      "type": "function",
      "constant": true
    },
    {
      "inputs": [
        {
          "internalType": "bytes32",
          "name": "role",
          "type": "bytes32"
        },
        {
          "internalType": "uint256",
          "name": "index",
          "type": "uint256"
        }
      ],
      "name": "getRoleMember",
      "outputs": [
        {
          "internalType": "address",
          "name": "",
          "type": "address"
        }
      ],
      "stateMutability": "view",
      "type": "function",
      "constant": true
    },
    {
      "inputs": [
        {
          "internalType": "bytes32",
          "name": "role",
          "type": "bytes32"
        }
      ],
      "name": "getRoleMemberCount",
      "outputs": [
        {
          "internalType": "uint256",
          "name": "",
          "type": "uint256"
        }
      ],
      "stateMutability": "view",
      "type": "function",
      "constant": true
    },
    {
      "inputs": [
        {
          "internalType": "bytes32",
          "name": "role",
          "type": "bytes32"
        },
        {
          "internalType": "address",
          "name": "account",
          "type": "address"
        }
      ],
      "name": "grantRole",
      "outputs": [],
      "stateMutability": "nonpayable",
      "type": "function"
    },
    {
      "inputs": [
        {
          "internalType": "bytes32",
          "name": "role",
          "type": "bytes32"
        },
        {
          "internalType": "address",
          "name": "account",
          "type": "address"
        }
      ],
      "name": "hasRole",
      "outputs": [
        {
          "internalType": "bool",
          "name": "",
          "type": "bool"
        }
      ],
      "stateMutability": "view",
      "type": "function",
      "constant": true
    },
    {
      "inputs": [
        {
          "internalType": "address",
          "name": "",
          "type": "address"
        }
      ],
      "name": "isTokenBanned",
      "outputs": [
        {
          "internalType": "bool",
          "name": "",
          "type": "bool"
        }
      ],
      "stateMutability": "view",
      "type": "function",
      "constant": true
    },
    {
      "inputs": [
        {
          "internalType": "address",
          "name": "",
          "type": "address"
        }
      ],
      "name": "isUserBanned",
      "outputs": [
        {
          "internalType": "bool",
          "name": "",
          "type": "bool"
        }
      ],
      "stateMutability": "view",
      "type": "function",
      "constant": true
    },
    {
      "inputs": [],
      "name": "priceOracleSkillPerUsd",
      "outputs": [
        {
          "internalType": "contract IPriceOracle",
          "name": "",
          "type": "address"
        }
      ],
      "stateMutability": "view",
      "type": "function",
      "constant": true
    },
    {
      "inputs": [
        {
          "internalType": "bytes32",
          "name": "role",
          "type": "bytes32"
        },
        {
          "internalType": "address",
          "name": "account",
          "type": "address"
        }
      ],
      "name": "renounceRole",
      "outputs": [],
      "stateMutability": "nonpayable",
      "type": "function"
    },
    {
      "inputs": [
        {
          "internalType": "bytes32",
          "name": "role",
          "type": "bytes32"
        },
        {
          "internalType": "address",
          "name": "account",
          "type": "address"
        }
      ],
      "name": "revokeRole",
      "outputs": [],
      "stateMutability": "nonpayable",
      "type": "function"
    },
    {
      "inputs": [],
      "name": "skillToken",
      "outputs": [
        {
          "internalType": "contract IERC20",
          "name": "",
          "type": "address"
        }
      ],
      "stateMutability": "view",
      "type": "function",
      "constant": true
    },
    {
      "inputs": [
        {
          "internalType": "address",
          "name": "",
          "type": "address"
        }
      ],
      "name": "tax",
      "outputs": [
        {
          "internalType": "int128",
          "name": "",
          "type": "int128"
        }
      ],
      "stateMutability": "view",
      "type": "function",
      "constant": true
    },
    {
      "inputs": [],
      "name": "taxRecipient",
      "outputs": [
        {
          "internalType": "address",
          "name": "",
          "type": "address"
        }
      ],
      "stateMutability": "view",
      "type": "function",
      "constant": true
    },
    {
      "inputs": [
        {
          "internalType": "contract IERC20",
          "name": "_skillToken",
          "type": "address"
        },
        {
          "internalType": "address",
          "name": "_taxRecipient",
          "type": "address"
        }
      ],
      "name": "initialize",
      "outputs": [],
      "stateMutability": "nonpayable",
      "type": "function"
    },
    {
      "inputs": [
        {
          "internalType": "contract Characters",
          "name": "_charactersContract",
          "type": "address"
        },
        {
          "internalType": "contract Weapons",
          "name": "_weaponsContract",
          "type": "address"
        }
      ],
      "name": "migrateTo_a98a9ac",
      "outputs": [],
      "stateMutability": "nonpayable",
      "type": "function"
    },
    {
      "inputs": [
        {
          "internalType": "contract IPriceOracle",
          "name": "_priceOracleSkillPerUsd",
          "type": "address"
        }
      ],
      "name": "migrateTo_2316231",
      "outputs": [],
      "stateMutability": "nonpayable",
      "type": "function"
    },
    {
      "inputs": [
        {
          "internalType": "contract BurningManager",
          "name": "_burningManager",
          "type": "address"
        }
      ],
      "name": "migrateTo_29635ef",
      "outputs": [],
      "stateMutability": "nonpayable",
      "type": "function"
    },
    {
      "inputs": [
        {
          "internalType": "contract IERC721",
          "name": "_tokenAddress",
          "type": "address"
        }
      ],
      "name": "isTokenAllowed",
      "outputs": [
        {
          "internalType": "bool",
          "name": "",
          "type": "bool"
        }
      ],
      "stateMutability": "view",
      "type": "function",
      "constant": true
    },
    {
      "inputs": [],
      "name": "getAllowedTokenTypes",
      "outputs": [
        {
          "internalType": "contract IERC721[]",
          "name": "",
          "type": "address[]"
        }
      ],
      "stateMutability": "view",
      "type": "function",
      "constant": true
    },
    {
      "inputs": [
        {
          "internalType": "contract IERC721",
          "name": "_tokenAddress",
          "type": "address"
        },
        {
          "internalType": "uint256",
          "name": "_tokenId",
          "type": "uint256"
        }
      ],
      "name": "getSellerOfNftID",
      "outputs": [
        {
          "internalType": "address",
          "name": "",
          "type": "address"
        }
      ],
      "stateMutability": "view",
      "type": "function",
      "constant": true
    },
    {
      "inputs": [],
      "name": "defaultTaxAsRoundedPercentRoughEstimate",
      "outputs": [
        {
          "internalType": "uint256",
          "name": "",
          "type": "uint256"
        }
      ],
      "stateMutability": "view",
      "type": "function",
      "constant": true
    },
    {
      "inputs": [],
      "name": "getListedTokenTypes",
      "outputs": [
        {
          "internalType": "contract IERC721[]",
          "name": "",
          "type": "address[]"
        }
      ],
      "stateMutability": "view",
      "type": "function",
      "constant": true
    },
    {
      "inputs": [
        {
          "internalType": "contract IERC721",
          "name": "_tokenAddress",
          "type": "address"
        }
      ],
      "name": "getListingIDs",
      "outputs": [
        {
          "internalType": "uint256[]",
          "name": "",
          "type": "uint256[]"
        }
      ],
      "stateMutability": "view",
      "type": "function",
      "constant": true
    },
    {
      "inputs": [
        {
          "internalType": "contract IERC721",
          "name": "_tokenAddress",
          "type": "address"
        },
        {
          "internalType": "uint8",
          "name": "_limit",
          "type": "uint8"
        },
        {
          "internalType": "uint256",
          "name": "_pageNumber",
          "type": "uint256"
        },
        {
          "internalType": "uint8",
          "name": "_trait",
          "type": "uint8"
        },
        {
          "internalType": "uint8",
          "name": "_stars",
          "type": "uint8"
        }
      ],
      "name": "getWeaponListingIDsPage",
      "outputs": [
        {
          "internalType": "uint256[]",
          "name": "",
          "type": "uint256[]"
        }
      ],
      "stateMutability": "view",
      "type": "function",
      "constant": true
    },
    {
      "inputs": [
        {
          "internalType": "contract IERC721",
          "name": "_tokenAddress",
          "type": "address"
        },
        {
          "internalType": "uint8",
          "name": "_limit",
          "type": "uint8"
        },
        {
          "internalType": "uint256",
          "name": "_pageNumber",
          "type": "uint256"
        },
        {
          "internalType": "uint8",
          "name": "_trait",
          "type": "uint8"
        },
        {
          "internalType": "uint8",
          "name": "_minLevel",
          "type": "uint8"
        },
        {
          "internalType": "uint8",
          "name": "_maxLevel",
          "type": "uint8"
        }
      ],
      "name": "getCharacterListingIDsPage",
      "outputs": [
        {
          "internalType": "uint256[]",
          "name": "",
          "type": "uint256[]"
        }
      ],
      "stateMutability": "view",
      "type": "function",
      "constant": true
    },
    {
      "inputs": [
        {
          "internalType": "contract IERC721",
          "name": "_tokenAddress",
          "type": "address"
        },
        {
          "internalType": "address",
          "name": "_seller",
          "type": "address"
        }
      ],
      "name": "getNumberOfListingsBySeller",
      "outputs": [
        {
          "internalType": "uint256",
          "name": "",
          "type": "uint256"
        }
      ],
      "stateMutability": "view",
      "type": "function",
      "constant": true
    },
    {
      "inputs": [
        {
          "internalType": "contract IERC721",
          "name": "_tokenAddress",
          "type": "address"
        },
        {
          "internalType": "address",
          "name": "_seller",
          "type": "address"
        }
      ],
      "name": "getListingIDsBySeller",
      "outputs": [
        {
          "internalType": "uint256[]",
          "name": "tokens",
          "type": "uint256[]"
        }
      ],
      "stateMutability": "view",
      "type": "function",
      "constant": true
    },
    {
      "inputs": [
        {
          "internalType": "contract IERC721",
          "name": "_tokenAddress",
          "type": "address"
        }
      ],
      "name": "getNumberOfListingsForToken",
      "outputs": [
        {
          "internalType": "uint256",
          "name": "",
          "type": "uint256"
        }
      ],
      "stateMutability": "view",
      "type": "function",
      "constant": true
    },
    {
      "inputs": [
        {
          "internalType": "contract IERC721",
          "name": "_tokenAddress",
          "type": "address"
        },
        {
          "internalType": "uint8",
          "name": "_trait",
          "type": "uint8"
        },
        {
          "internalType": "uint8",
          "name": "_minLevel",
          "type": "uint8"
        },
        {
          "internalType": "uint8",
          "name": "_maxLevel",
          "type": "uint8"
        }
      ],
      "name": "getNumberOfCharacterListings",
      "outputs": [
        {
          "internalType": "uint256",
          "name": "",
          "type": "uint256"
        }
      ],
      "stateMutability": "view",
      "type": "function",
      "constant": true
    },
    {
      "inputs": [
        {
          "internalType": "contract IERC721",
          "name": "_tokenAddress",
          "type": "address"
        },
        {
          "internalType": "uint8",
          "name": "_trait",
          "type": "uint8"
        },
        {
          "internalType": "uint8",
          "name": "_stars",
          "type": "uint8"
        }
      ],
      "name": "getNumberOfWeaponListings",
      "outputs": [
        {
          "internalType": "uint256",
          "name": "",
          "type": "uint256"
        }
      ],
      "stateMutability": "view",
      "type": "function",
      "constant": true
    },
    {
      "inputs": [
        {
          "internalType": "contract IERC721",
          "name": "_tokenAddress",
          "type": "address"
        },
        {
          "internalType": "uint256",
          "name": "_id",
          "type": "uint256"
        }
      ],
      "name": "getSellerPrice",
      "outputs": [
        {
          "internalType": "uint256",
          "name": "",
          "type": "uint256"
        }
      ],
      "stateMutability": "view",
      "type": "function",
      "constant": true
    },
    {
      "inputs": [
        {
          "internalType": "contract IERC721",
          "name": "_tokenAddress",
          "type": "address"
        },
        {
          "internalType": "uint256",
          "name": "_id",
          "type": "uint256"
        }
      ],
      "name": "getFinalPrice",
      "outputs": [
        {
          "internalType": "uint256",
          "name": "",
          "type": "uint256"
        }
      ],
      "stateMutability": "view",
      "type": "function",
      "constant": true
    },
    {
      "inputs": [
        {
          "internalType": "contract IERC721",
          "name": "_tokenAddress",
          "type": "address"
        },
        {
          "internalType": "uint256",
          "name": "_id",
          "type": "uint256"
        }
      ],
      "name": "getTaxOnListing",
      "outputs": [
        {
          "internalType": "uint256",
          "name": "",
          "type": "uint256"
        }
      ],
      "stateMutability": "view",
      "type": "function",
      "constant": true
    },
    {
      "inputs": [
        {
          "internalType": "contract IERC721",
          "name": "_tokenAddress",
          "type": "address"
        },
        {
          "internalType": "uint256",
          "name": "_id",
          "type": "uint256"
        }
      ],
      "name": "getTargetBuyer",
      "outputs": [
        {
          "internalType": "address",
          "name": "",
          "type": "address"
        }
      ],
      "stateMutability": "view",
      "type": "function",
      "constant": true
    },
    {
      "inputs": [
        {
          "internalType": "contract IERC721",
          "name": "_tokenAddress",
          "type": "address"
        },
        {
          "internalType": "uint256",
          "name": "start",
          "type": "uint256"
        },
        {
          "internalType": "uint256",
          "name": "length",
          "type": "uint256"
        }
      ],
      "name": "getListingSlice",
      "outputs": [
        {
          "internalType": "uint256",
          "name": "returnedCount",
          "type": "uint256"
        },
        {
          "internalType": "uint256[]",
          "name": "ids",
          "type": "uint256[]"
        },
        {
          "internalType": "address[]",
          "name": "sellers",
          "type": "address[]"
        },
        {
          "internalType": "uint256[]",
          "name": "prices",
          "type": "uint256[]"
        }
      ],
      "stateMutability": "view",
      "type": "function",
      "constant": true
    },
    {
      "inputs": [
        {
          "internalType": "contract IERC721",
          "name": "_tokenAddress",
          "type": "address"
        },
        {
          "internalType": "uint256",
          "name": "_id",
          "type": "uint256"
        },
        {
          "internalType": "uint256",
          "name": "_price",
          "type": "uint256"
        },
        {
          "internalType": "address",
          "name": "_targetBuyer",
          "type": "address"
        }
      ],
      "name": "addListing",
      "outputs": [],
      "stateMutability": "nonpayable",
      "type": "function"
    },
    {
      "inputs": [
        {
          "internalType": "contract IERC721",
          "name": "_tokenAddress",
          "type": "address"
        },
        {
          "internalType": "uint256",
          "name": "_id",
          "type": "uint256"
        },
        {
          "internalType": "uint256",
          "name": "_newPrice",
          "type": "uint256"
        }
      ],
      "name": "changeListingPrice",
      "outputs": [],
      "stateMutability": "nonpayable",
      "type": "function"
    },
    {
      "inputs": [
        {
          "internalType": "contract IERC721",
          "name": "_tokenAddress",
          "type": "address"
        },
        {
          "internalType": "uint256",
          "name": "_id",
          "type": "uint256"
        },
        {
          "internalType": "address",
          "name": "_newTargetBuyer",
          "type": "address"
        }
      ],
      "name": "changeListingTargetBuyer",
      "outputs": [],
      "stateMutability": "nonpayable",
      "type": "function"
    },
    {
      "inputs": [
        {
          "internalType": "contract IERC721",
          "name": "_tokenAddress",
          "type": "address"
        },
        {
          "internalType": "uint256",
          "name": "_id",
          "type": "uint256"
        }
      ],
      "name": "cancelListing",
      "outputs": [],
      "stateMutability": "nonpayable",
      "type": "function"
    },
    {
      "inputs": [
        {
          "internalType": "contract IERC721",
          "name": "_tokenAddress",
          "type": "address"
        },
        {
          "internalType": "uint256",
          "name": "_id",
          "type": "uint256"
        },
        {
          "internalType": "uint256",
          "name": "_maxPrice",
          "type": "uint256"
        }
      ],
      "name": "purchaseListing",
      "outputs": [],
      "stateMutability": "nonpayable",
      "type": "function"
    },
    {
      "inputs": [
        {
          "internalType": "uint256",
          "name": "_id",
          "type": "uint256"
        },
        {
          "internalType": "uint256",
          "name": "_maxPrice",
          "type": "uint256"
        }
      ],
      "name": "purchaseBurnCharacter",
      "outputs": [],
      "stateMutability": "nonpayable",
      "type": "function"
    },
    {
      "inputs": [
        {
          "internalType": "uint256",
          "name": "cents",
          "type": "uint256"
        }
      ],
      "name": "setAddValue",
      "outputs": [],
      "stateMutability": "nonpayable",
      "type": "function"
    },
    {
      "inputs": [
        {
          "internalType": "uint256",
          "name": "cents",
          "type": "uint256"
        }
      ],
      "name": "setChangeValue",
      "outputs": [],
      "stateMutability": "nonpayable",
      "type": "function"
    },
    {
      "inputs": [
        {
          "internalType": "address",
          "name": "_taxRecipient",
          "type": "address"
        }
      ],
      "name": "setTaxRecipient",
      "outputs": [],
      "stateMutability": "nonpayable",
      "type": "function"
    },
    {
      "inputs": [
        {
          "internalType": "int128",
          "name": "_defaultTax",
          "type": "int128"
        }
      ],
      "name": "setDefaultTax",
      "outputs": [],
      "stateMutability": "nonpayable",
      "type": "function"
    },
    {
      "inputs": [
        {
          "internalType": "uint256",
          "name": "_numerator",
          "type": "uint256"
        },
        {
          "internalType": "uint256",
          "name": "_denominator",
          "type": "uint256"
        }
      ],
      "name": "setDefaultTaxAsRational",
      "outputs": [],
      "stateMutability": "nonpayable",
      "type": "function"
    },
    {
      "inputs": [
        {
          "internalType": "uint256",
          "name": "_percent",
          "type": "uint256"
        }
      ],
      "name": "setDefaultTaxAsPercent",
      "outputs": [],
      "stateMutability": "nonpayable",
      "type": "function"
    },
    {
      "inputs": [
        {
          "internalType": "contract IERC721",
          "name": "_tokenAddress",
          "type": "address"
        },
        {
          "internalType": "int128",
          "name": "_newTax",
          "type": "int128"
        }
      ],
      "name": "setTaxOnTokenType",
      "outputs": [],
      "stateMutability": "nonpayable",
      "type": "function"
    },
    {
      "inputs": [
        {
          "internalType": "contract IERC721",
          "name": "_tokenAddress",
          "type": "address"
        },
        {
          "internalType": "uint256",
          "name": "_numerator",
          "type": "uint256"
        },
        {
          "internalType": "uint256",
          "name": "_denominator",
          "type": "uint256"
        }
      ],
      "name": "setTaxOnTokenTypeAsRational",
      "outputs": [],
      "stateMutability": "nonpayable",
      "type": "function"
    },
    {
      "inputs": [
        {
          "internalType": "contract IERC721",
          "name": "_tokenAddress",
          "type": "address"
        },
        {
          "internalType": "uint256",
          "name": "_percent",
          "type": "uint256"
        }
      ],
      "name": "setTaxOnTokenTypeAsPercent",
      "outputs": [],
      "stateMutability": "nonpayable",
      "type": "function"
    },
    {
      "inputs": [
        {
          "internalType": "address",
          "name": "user",
          "type": "address"
        },
        {
          "internalType": "bool",
          "name": "to",
          "type": "bool"
        }
      ],
      "name": "setUserBan",
      "outputs": [],
      "stateMutability": "nonpayable",
      "type": "function"
    },
    {
      "inputs": [
        {
          "internalType": "address[]",
          "name": "users",
          "type": "address[]"
        },
        {
          "internalType": "bool",
          "name": "to",
          "type": "bool"
        }
      ],
      "name": "setUserBans",
      "outputs": [],
      "stateMutability": "nonpayable",
      "type": "function"
    },
    {
      "inputs": [
        {
          "internalType": "contract IERC721",
          "name": "_tokenAddress",
          "type": "address"
        },
        {
          "internalType": "uint256",
          "name": "_id",
          "type": "uint256"
        }
      ],
      "name": "unlistItem",
      "outputs": [],
      "stateMutability": "nonpayable",
      "type": "function"
    },
    {
      "inputs": [
        {
          "internalType": "contract IERC721",
          "name": "_tokenAddress",
          "type": "address"
        },
        {
          "internalType": "uint256[]",
          "name": "_ids",
          "type": "uint256[]"
        }
      ],
      "name": "unlistItems",
      "outputs": [],
      "stateMutability": "nonpayable",
      "type": "function"
    },
    {
      "inputs": [
        {
          "internalType": "contract IERC721",
          "name": "_tokenAddress",
          "type": "address"
        }
      ],
      "name": "allowToken",
      "outputs": [],
      "stateMutability": "nonpayable",
      "type": "function"
    },
    {
      "inputs": [
        {
          "internalType": "contract IERC721",
          "name": "_tokenAddress",
          "type": "address"
        }
      ],
      "name": "disallowToken",
      "outputs": [],
      "stateMutability": "nonpayable",
      "type": "function"
    },
    {
      "inputs": [
        {
          "internalType": "uint256",
          "name": "amount",
          "type": "uint256"
        }
      ],
      "name": "recoverSkill",
      "outputs": [],
      "stateMutability": "nonpayable",
      "type": "function"
    },
    {
      "inputs": [
        {
          "internalType": "int128",
          "name": "usdAmount",
          "type": "int128"
        }
      ],
      "name": "usdToSkill",
      "outputs": [
        {
          "internalType": "uint256",
          "name": "",
          "type": "uint256"
        }
      ],
      "stateMutability": "view",
      "type": "function",
      "constant": true
    },
    {
      "inputs": [
        {
          "internalType": "address",
          "name": "",
          "type": "address"
        },
        {
          "internalType": "address",
          "name": "",
          "type": "address"
        },
        {
          "internalType": "uint256",
          "name": "_id",
          "type": "uint256"
        },
        {
          "internalType": "bytes",
          "name": "",
          "type": "bytes"
        }
      ],
      "name": "onERC721Received",
      "outputs": [
        {
          "internalType": "bytes4",
          "name": "",
          "type": "bytes4"
        }
      ],
      "stateMutability": "nonpayable",
      "type": "function"
    }
  ],
  "bytecode": "0x608060405234801561001057600080fd5b5061508b806100206000396000f3fe608060405234801561001057600080fd5b50600436106103d95760003560e01c806374c7b3281161020a578063bb782e7311610125578063d547741f116100b8578063da8e8ca211610087578063da8e8ca214610f1f578063e4ca10dc14610f45578063e79767af14610f4d578063ed9999ca14610f73578063f9eaee0d14610fa5576103d9565b8063d547741f14610e58578063d679756214610e84578063d739d8bc14610ec5578063d9db220d14610ef3576103d9565b8063cb8da193116100f4578063cb8da19314610dc8578063cc8efb1414610e0d578063d1ebdfd314610e33578063d23727a314610e3b576103d9565b8063bb782e7314610d34578063c573a97e14610d5a578063c7e4ff4214610d7d578063ca15c87314610dab576103d9565b80639642b3f71161019d578063a5bc36321161016c578063a5bc363214610c7e578063a6f9572614610cb0578063b2ddee0614610ce2578063b53472ef14610d0e576103d9565b80639642b3f714610c0157806399bd17e414610c245780639ed9b4fd14610c50578063a217fddf14610c76576103d9565b80637ff57c57116101d95780637ff57c5714610b4457806386c51fa914610b725780639010d07c14610b9e57806391d1485414610bc1576103d9565b806374c7b32814610a595780637899d80f14610a8857806378e3079e14610aae578063799e6b6114610ad4576103d9565b8063346710fd116102fa578063490df5301161028d57806364d678681161025c57806364d67868146109f557806366a417fe14610a125780636891de0714610a49578063737ea06e14610a51576103d9565b8063490df53014610924578063534be8fb14610941578063546b45ac146109bf5780635504d3d2146109ed576103d9565b80633b75a46a116102c95780633b75a46a146108a85780633f7e1dd5146108c8578063470e50c5146108d0578063485cc955146108f6576103d9565b8063346710fd146107cd57806335e0406f1461080757806336568abe1461082d57806339378fb314610859576103d9565b80631eb788f5116103725780632c2dea77116103415780632c2dea77146107375780632df8c04a1461076d5780632f2ff15d146107995780632f48f151146107c5576103d9565b80631eb788f5146105ab578063248a9ca3146106c257806327314473146106df578063281fb1651461070b576103d9565b8063150b7a02116103ae578063150b7a021461046557806316a71cfc146105105780631a10c902146105345780631ac0bab01461058c576103d9565b80621e9187146103de57806240ff6c1461041c5780630a8a92151461043d5780630bb99c571461045d575b600080fd5b61040a600480360360408110156103f457600080fd5b506001600160a01b038135169060200135610fcb565b60408051918252519081900360200190f35b610424610ff9565b60408051600f92830b90920b8252519081900360200190f35b61040a6004803603602081101561045357600080fd5b5035600f0b611009565b610424611099565b6104f36004803603608081101561047b57600080fd5b6001600160a01b03823581169260208101359091169160408201359190810190608081016060820135600160201b8111156104b557600080fd5b8201836020820111156104c757600080fd5b803590602001918460018302840111600160201b831117156104e857600080fd5b5090925090506110a2565b604080516001600160e01b03199092168252519081900360200190f35b61051861113f565b604080516001600160a01b039092168252519081900360200190f35b61053c61114e565b60408051602080825283518183015283519192839290830191858101910280838360005b83811015610578578181015183820152602001610560565b505050509050019250505060405180910390f35b6105a9600480360360208110156105a257600080fd5b50356111ee565b005b6105dd600480360360608110156105c157600080fd5b506001600160a01b03813516906020810135906040013561128c565b60405180858152602001806020018060200180602001848103845287818151815260200191508051906020019060200280838360005b8381101561062b578181015183820152602001610613565b50505050905001848103835286818151815260200191508051906020019060200280838360005b8381101561066a578181015183820152602001610652565b50505050905001848103825285818151815260200191508051906020019060200280838360005b838110156106a9578181015183820152602001610691565b5050505090500197505050505050505060405180910390f35b61040a600480360360208110156106d857600080fd5b5035611475565b610518600480360360408110156106f557600080fd5b506001600160a01b03813516906020013561148a565b6105186004803603604081101561072157600080fd5b506001600160a01b038135169060200135611506565b6105a96004803603606081101561074d57600080fd5b506001600160a01b0381358116916020810135916040909101351661152e565b61040a6004803603604081101561078357600080fd5b506001600160a01b0381351690602001356116f2565b6105a9600480360360408110156107af57600080fd5b50803590602001356001600160a01b0316611728565b610424611794565b6105a9600480360360808110156107e357600080fd5b506001600160a01b038135811691602081013591604082013591606001351661179d565b61053c6004803603602081101561081d57600080fd5b50356001600160a01b0316611bee565b6105a96004803603604081101561084357600080fd5b50803590602001356001600160a01b0316611c99565b61053c600480360360c081101561086f57600080fd5b506001600160a01b038135169060ff60208201358116916040810135916060820135811691608081013582169160a09091013516611cfa565b6105a9600480360360208110156108be57600080fd5b5035600f0b611f84565b610518612016565b6105a9600480360360208110156108e657600080fd5b50356001600160a01b0316612025565b6105a96004803603604081101561090c57600080fd5b506001600160a01b03813581169160200135166120f1565b6105a96004803603602081101561093a57600080fd5b5035612209565b6105a96004803603604081101561095757600080fd5b6001600160a01b038235169190810190604081016020820135600160201b81111561098157600080fd5b82018360208201111561099357600080fd5b803590602001918460208302840111600160201b831117156109b457600080fd5b5090925090506122f1565b61040a600480360360408110156109d557600080fd5b506001600160a01b0381358116916020013516612404565b61040a612495565b6105a960048036036020811015610a0b57600080fd5b50356124b7565b61040a60048036036060811015610a2857600080fd5b506001600160a01b038135169060ff60208201358116916040013516612542565b61040a6126cb565b6105186126ee565b6105a960048036036040811015610a6f57600080fd5b506001600160a01b038135169060200135600f0b6126fd565b61042460048036036020811015610a9e57600080fd5b50356001600160a01b031661278d565b6105a960048036036020811015610ac457600080fd5b50356001600160a01b03166127a2565b6105a960048036036040811015610aea57600080fd5b810190602081018135600160201b811115610b0457600080fd5b820183602082011115610b1657600080fd5b803590602001918460208302840111600160201b83111715610b3757600080fd5b919350915035151561282f565b6105a960048036036040811015610b5a57600080fd5b506001600160a01b03813581169160200135166128ef565b6105a960048036036040811015610b8857600080fd5b506001600160a01b038135169060200135612965565b61051860048036036040811015610bb457600080fd5b50803590602001356129ff565b610bed60048036036040811015610bd757600080fd5b50803590602001356001600160a01b0316612a1d565b604080519115158252519081900360200190f35b6105a960048036036040811015610c1757600080fd5b5080359060200135612a3b565b6105a960048036036040811015610c3a57600080fd5b506001600160a01b038135169060200135612caf565b610bed60048036036020811015610c6657600080fd5b50356001600160a01b0316612d69565b61040a612d7e565b6105a960048036036060811015610c9457600080fd5b506001600160a01b038135169060208101359060400135612d83565b6105a960048036036060811015610cc657600080fd5b506001600160a01b038135169060208101359060400135612e17565b6105a960048036036040811015610cf857600080fd5b506001600160a01b038135169060200135613078565b6105a960048036036020811015610d2457600080fd5b50356001600160a01b03166132fa565b610bed60048036036020811015610d4a57600080fd5b50356001600160a01b0316613391565b6105a960048036036040811015610d7057600080fd5b50803590602001356133a6565b6105a960048036036040811015610d9357600080fd5b506001600160a01b0381351690602001351515613444565b61040a60048036036020811015610dc157600080fd5b50356134da565b61053c600480360360a0811015610dde57600080fd5b506001600160a01b038135169060ff6020820135811691604081013591606082013581169160800135166134f1565b61040a60048036036020811015610e2357600080fd5b50356001600160a01b0316613759565b61051861377a565b6105a960048036036020811015610e5157600080fd5b5035613789565b6105a960048036036040811015610e6e57600080fd5b50803590602001356001600160a01b031661384c565b61040a60048036036080811015610e9a57600080fd5b506001600160a01b038135169060ff60208201358116916040810135821691606090910135166138a5565b61053c60048036036040811015610edb57600080fd5b506001600160a01b0381358116916020013516613a4f565b61040a60048036036040811015610f0957600080fd5b506001600160a01b038135169060200135613b46565b6105a960048036036020811015610f3557600080fd5b50356001600160a01b0316613b6b565b61053c613bd5565b6105a960048036036020811015610f6357600080fd5b50356001600160a01b0316613c6e565b6105a960048036036060811015610f8957600080fd5b506001600160a01b038135169060208101359060400135613cea565b610bed60048036036020811015610fbb57600080fd5b50356001600160a01b0316613ed4565b6001600160a01b03821660009081526067602090815260408083208484529091529020600101545b92915050565b607554600160801b9004600f0b81565b6000610ff3607460009054906101000a90046001600160a01b03166001600160a01b0316639d1b464a6040518163ffffffff1660e01b815260040160206040518083038186803b15801561105c57600080fd5b505afa158015611070573d6000803e3d6000fd5b505050506040513d602081101561108657600080fd5b5051600f84900b9063ffffffff613ee716565b606f54600f0b81565b6000336110b660698263ffffffff613f4f16565b80156110e557506001600160a01b03811660009081526068602052604090206110e5908663ffffffff613f6416565b61112c576040805162461bcd60e51b8152602060048201526013602482015272151bdad95b881251081b9bdd081b1a5cdd1959606a1b604482015290519081900360640190fd5b50630a85bd0160e11b9695505050505050565b6077546001600160a01b031681565b606060708161115c82613f70565b67ffffffffffffffff8111801561117257600080fd5b5060405190808252806020026020018201604052801561119c578160200160208202803683370190505b50905060005b81518110156111e7576111bb838263ffffffff613f7b16565b8282815181106111c757fe5b6001600160a01b03909216602092830291909101909101526001016111a2565b5091505090565b604080516923a0a6a2afa0a226a4a760b11b8152905190819003600a0190206112179033612a1d565b611259576040805162461bcd60e51b815260206004820152600e60248201526d2737ba1033b0b6b29030b236b4b760911b604482015290519081900360640190fd5b611264816064613f87565b606f8054600f9290920b6001600160801b03166001600160801b031990921691909117905550565b80606080808367ffffffffffffffff811180156112a857600080fd5b506040519080825280602002602001820160405280156112d2578160200160208202803683370190505b5092508467ffffffffffffffff811180156112ec57600080fd5b50604051908082528060200260200182016040528015611316578160200160208202803683370190505b5091508467ffffffffffffffff8111801561133057600080fd5b5060405190808252806020026020018201604052801561135a578160200160208202803683370190505b506001600160a01b038816600090815260686020526040812091925090875b8789018110156114685761138c82613f70565b811061139d575090945061146c9050565b60006113af838363ffffffff613f7b16565b90506113b9614ee9565b506001600160a01b03808c166000908152606760209081526040808320858452825291829020825180840190935280549093168252600190920154918101919091528751829089908790811061140b57fe5b602002602001018181525050806000015187868151811061142857fe5b6001600160a01b03909216602092830291909101820152810151865160018701968891811061145357fe5b60209081029190910101525050600101611379565b5050505b93509350935093565b60009081526033602052604090206002015490565b600061149d60698463ffffffff613f4f16565b6114a957506000610ff3565b6001600160a01b03831660009081526068602052604090206114d1908363ffffffff613f6416565b6114dd57506000610ff3565b506001600160a01b03918216600090815260676020908152604080832093835292905220541690565b6001600160a01b03918216600090815260766020908152604080832093835292905220541690565b336000908152606c602052604090205460ff1615611586576040805162461bcd60e51b815260206004820152601060248201526f466f7262696464656e2061636365737360801b604482015290519081900360640190fd5b828261159960698363ffffffff613f4f16565b80156115c857506001600160a01b03821660009081526068602052604090206115c8908263ffffffff613f6416565b61160f576040805162461bcd60e51b8152602060048201526013602482015272151bdad95b881251081b9bdd081b1a5cdd1959606a1b604482015290519081900360640190fd5b6001600160a01b0380861660009081526067602090815260408083208884529091529020548691869116331461167c576040805162461bcd60e51b815260206004820152600d60248201526c1058d8d95cdcc819195b9a5959609a1b604482015290519081900360640190fd5b6001600160a01b0387811660008181526076602090815260408083208b845282529182902080546001600160a01b031916948a16948517905581519384529051899333927faa79ba781ed370c2a15b6fe1a86316cab25598fecac3329356cc3f5557c8bae692918290030190a450505050505050565b6001600160a01b0382166000908152606d602052604081205461172190600f0b61171c8585610fcb565b613ee7565b9392505050565b60008281526033602052604090206002015461174b90611746613fc7565b612a1d565b6117865760405162461bcd60e51b815260040180806020018281038252602f815260200180614f23602f913960400191505060405180910390fd5b6117908282613fcb565b5050565b607554600f0b81565b836117a781613ed4565b6117e25760405162461bcd60e51b8152600401808060200182810382526027815260200180614fd66027913960400191505060405180910390fd5b846117f4816380ac58cd60e01b61403a565b6117fd57600080fd5b858561181060698363ffffffff613f4f16565b158061184157506001600160a01b038216600090815260686020526040902061183f908263ffffffff613f6416565b155b611892576040805162461bcd60e51b815260206004820152601b60248201527f546f6b656e204944206d757374206e6f74206265206c69737465640000000000604482015290519081900360640190fd5b6075546000600f91820b90910b13156118bd576075546118bd906118b890600f0b611009565b614056565b336000908152606c602052604090205460ff1615611a985760655460408051636eb1769f60e11b815233600482015230602482015290516000926001600160a01b03169163dd62ed3e916044808301926020929190829003018186803b15801561192657600080fd5b505afa15801561193a573d6000803e3d6000fd5b505050506040513d602081101561195057600080fd5b5051606554604080516370a0823160e01b815233600482015290519293506000926001600160a01b03909216916370a0823191602480820192602092909190829003018186803b1580156119a357600080fd5b505afa1580156119b7573d6000803e3d6000fd5b505050506040513d60208110156119cd57600080fd5b50516065546066549192506001600160a01b03908116916323b872dd913391168486116119fa57856119fc565b845b6040518463ffffffff1660e01b815260040180846001600160a01b03166001600160a01b03168152602001836001600160a01b03166001600160a01b031681526020018281526020019350505050602060405180830381600087803b158015611a6457600080fd5b505af1158015611a78573d6000803e3d6000fd5b505050506040513d6020811015611a8e57600080fd5b50611b2f92505050565b60408051808201825233815260208082018981526001600160a01b038c81166000818152606785528681208e82528552868120955186549084166001600160a01b03199182161787559351600190960195909555808552607684528585208d865284528585208054928c16929093169190911790915582526068905220611b25908863ffffffff6140e316565b50611b2f886140ef565b60408051632142170760e11b81523360048201523060248201526044810189905290516001600160a01b038a16916342842e0e91606480830192600092919082900301818387803b158015611b8357600080fd5b505af1158015611b97573d6000803e3d6000fd5b5050604080518981526001600160a01b03898116602083015282518c9550908d16935033927f5949a8af96064ae9b490d9118c3636906cab7e3b2c46530c7e2b5ff9f8a297e1928290030190a45050505050505050565b6001600160a01b038116600090815260686020526040902060609081611c1382613f70565b67ffffffffffffffff81118015611c2957600080fd5b50604051908082528060200260200182016040528015611c53578160200160208202803683370190505b50905060005b8151811015611c9157611c72838263ffffffff613f7b16565b828281518110611c7e57fe5b6020908102919091010152600101611c59565b509392505050565b611ca1613fc7565b6001600160a01b0316816001600160a01b031614611cf05760405162461bcd60e51b815260040180806020018281038252602f815260200180615027602f913960400191505060405180910390fd5b611790828261412d565b6001600160a01b0386166000908152606860205260408120606091611d21898787876138a5565b905060ff88166001880102600081831015611d5057611d4b8360ff8c168b0263ffffffff61419c16565b611d55565b8960ff165b905060608167ffffffffffffffff81118015611d7057600080fd5b50604051908082528060200260200182016040528015611d9a578160200160208202803683370190505b509050600080805b611dab88613f70565b81108015611db857508583105b15611f71576073546000906001600160a01b031663acb586df611de18b8563ffffffff613f7b16565b6040518263ffffffff1660e01b81526004018082815260200191505060206040518083038186803b158015611e1557600080fd5b505afa158015611e29573d6000803e3d6000fd5b505050506040513d6020811015611e3f57600080fd5b50516073549091506000906001600160a01b03166386481d40611e688c8663ffffffff613f7b16565b6040518263ffffffff1660e01b81526004018082815260200191505060206040518083038186803b158015611e9c57600080fd5b505afa158015611eb0573d6000803e3d6000fd5b505050506040513d6020811015611ec657600080fd5b5051905060ff808f161480611ee057508d60ff168260ff16145b8015611f1e57508c60ff1660ff1480611efc57508b60ff1660ff145b80611f1e57508c60ff168160ff1610158015611f1e57508b60ff168160ff1611155b15611f67578f60ff1688038510611f6057611f3f8a8463ffffffff613f7b16565b868560ff1681518110611f4e57fe5b60209081029190910101526001909301925b6001909401935b5050600101611da2565b50919d9c50505050505050505050505050565b604080516923a0a6a2afa0a226a4a760b11b8152905190819003600a019020611fad9033612a1d565b611fef576040805162461bcd60e51b815260206004820152600e60248201526d2737ba1033b0b6b29030b236b4b760911b604482015290519081900360640190fd5b606f8054600f9290920b6001600160801b03166001600160801b0319909216919091179055565b6074546001600160a01b031681565b612030600033612a1d565b61206d576040805162461bcd60e51b81526020600482015260096024820152682737ba1030b236b4b760b91b604482015290519081900360640190fd5b607480546001600160a01b0319166001600160a01b03831617905561209460026064613f87565b60758054600f9290920b6001600160801b03166001600160801b03199092169190911790556120c560006064613f87565b607560106101000a8154816001600160801b030219169083600f0b6001600160801b0316021790555050565b600054610100900460ff168061210a575061210a6141f9565b80612118575060005460ff16155b6121535760405162461bcd60e51b815260040180806020018281038252602e815260200180614fa8602e913960400191505060405180910390fd5b600054610100900460ff1615801561217e576000805460ff1961ff0019909116610100171660011790555b61218661420a565b612191600033611786565b606580546001600160a01b038086166001600160a01b03199283161790925560668054928516929091169190911790556121cd6001600a613f87565b606f8054600f9290920b6001600160801b03166001600160801b03199092169190911790558015612204576000805461ff00191690555b505050565b604080516923a0a6a2afa0a226a4a760b11b8152905190819003600a0190206122329033612a1d565b612274576040805162461bcd60e51b815260206004820152600e60248201526d2737ba1033b0b6b29030b236b4b760911b604482015290519081900360640190fd5b60648111156122be576040805162461bcd60e51b8152602060048201526011602482015270082c8c8acc2d8eaca40e8dede40d0d2ced607b1b604482015290519081900360640190fd5b6122c9816064613f87565b60758054600f9290920b6001600160801b03166001600160801b031990921691909117905550565b604080516923a0a6a2afa0a226a4a760b11b8152905190819003600a01902061231a9033612a1d565b61235c576040805162461bcd60e51b815260206004820152600e60248201526d2737ba1033b0b6b29030b236b4b760911b604482015290519081900360640190fd5b60005b818110156123fe576001600160a01b03841660009081526067602052604081209084848481811061238c57fe5b60209081029290920135835250810191909152604001600090812080546001600160a01b0319168155600101556123f58383838181106123c857fe5b6001600160a01b03881660009081526068602090815260409091209391020135905063ffffffff6142bb16565b5060010161235f565b50505050565b6001600160a01b038216600090815260686020526040812081805b61242883613f70565b81101561248c576001600160a01b038681166000908152606760205260408120918716919061245d868563ffffffff613f7b16565b81526020810191909152604001600020546001600160a01b03161415612484576001909101905b60010161241f565b50949350505050565b604080516923a0a6a2afa0a226a4a760b11b8152905190819003600a01902081565b604080516923a0a6a2afa0a226a4a760b11b8152905190819003600a0190206124e09033612a1d565b612522576040805162461bcd60e51b815260206004820152600e60248201526d2737ba1033b0b6b29030b236b4b760911b604482015290519081900360640190fd5b60655461253f906001600160a01b0316338363ffffffff6142c716565b50565b6001600160a01b0383166000908152606860205260408120818080805b61256885613f70565b8110156126be576072546001600160a01b031663acb586df612590878463ffffffff613f7b16565b6040518263ffffffff1660e01b81526004018082815260200191505060206040518083038186803b1580156125c457600080fd5b505afa1580156125d8573d6000803e3d6000fd5b505050506040513d60208110156125ee57600080fd5b50516072549093506001600160a01b031663adf04f20612614878463ffffffff613f7b16565b6040518263ffffffff1660e01b81526004018082815260200191505060206040518083038186803b15801561264857600080fd5b505afa15801561265c573d6000803e3d6000fd5b505050506040513d602081101561267257600080fd5b5051915060ff808916148061268c57508760ff168360ff16145b80156126aa57508660ff1660ff14806126aa57508660ff168260ff16145b156126b6576001909301925b60010161255f565b5091979650505050505050565b606f546000906126e990600f90810b900b606463ffffffff613ee716565b905090565b6066546001600160a01b031681565b604080516923a0a6a2afa0a226a4a760b11b8152905190819003600a0190206127269033612a1d565b612768576040805162461bcd60e51b815260206004820152600e60248201526d2737ba1033b0b6b29030b236b4b760911b604482015290519081900360640190fd5b8161277a816380ac58cd60e01b61403a565b61278357600080fd5b6122048383614319565b606d60205260009081526040902054600f0b81565b604080516923a0a6a2afa0a226a4a760b11b8152905190819003600a0190206127cb9033612a1d565b61280d576040805162461bcd60e51b815260206004820152600e60248201526d2737ba1033b0b6b29030b236b4b760911b604482015290519081900360640190fd5b606680546001600160a01b0319166001600160a01b0392909216919091179055565b604080516923a0a6a2afa0a226a4a760b11b8152905190819003600a0190206128589033612a1d565b61289a576040805162461bcd60e51b815260206004820152600e60248201526d2737ba1033b0b6b29030b236b4b760911b604482015290519081900360640190fd5b60005b828110156123fe5781606c60008686858181106128b657fe5b602090810292909201356001600160a01b0316835250810191909152604001600020805460ff191691151591909117905560010161289d565b6128fa600033612a1d565b612937576040805162461bcd60e51b81526020600482015260096024820152682737ba1030b236b4b760b91b604482015290519081900360640190fd5b607380546001600160a01b039384166001600160a01b03199182161790915560728054929093169116179055565b604080516923a0a6a2afa0a226a4a760b11b8152905190819003600a01902061298e9033612a1d565b6129d0576040805162461bcd60e51b815260206004820152600e60248201526d2737ba1033b0b6b29030b236b4b760911b604482015290519081900360640190fd5b816129e2816380ac58cd60e01b61403a565b6129eb57600080fd5b612204836129fa846064613f87565b614319565b6000828152603360205260408120611721908363ffffffff613f7b16565b6000828152603360205260408120611721908363ffffffff613f4f16565b336000908152606c602052604090205460ff1615612a93576040805162461bcd60e51b815260206004820152601060248201526f466f7262696464656e2061636365737360801b604482015290519081900360640190fd5b6073546001600160a01b031682612ab160698363ffffffff613f4f16565b8015612ae057506001600160a01b0382166000908152606860205260409020612ae0908263ffffffff613f6416565b612b27576040805162461bcd60e51b8152602060048201526013602482015272151bdad95b881251081b9bdd081b1a5cdd1959606a1b604482015290519081900360640190fd5b6073546001600160a01b03908116600081815260766020908152604080832089845290915290205490918691161580612b8457506001600160a01b0382811660009081526076602090815260408083208584529091529020541633145b612bc8576040805162461bcd60e51b815260206004820152601060248201526f2737ba103a30b933b2ba10313abcb2b960811b604482015290519081900360640190fd5b6000612bd2614ee9565b607354612be9906001600160a01b031689896143c8565b6073548151604080516001600160a01b0392831681526020810186905281519597509395508c94919092169233927f7762d23dc0afc60972698afa4f7ab7e5853e961dad5c968fe29b0fd3b14fffb592918290030190a460775460408051634389afa960e01b8152600481018b905290516001600160a01b0390921691634389afa99160248082019260009290919082900301818387803b158015612c8d57600080fd5b505af1158015612ca1573d6000803e3d6000fd5b505050505050505050505050565b604080516923a0a6a2afa0a226a4a760b11b8152905190819003600a019020612cd89033612a1d565b612d1a576040805162461bcd60e51b815260206004820152600e60248201526d2737ba1033b0b6b29030b236b4b760911b604482015290519081900360640190fd5b6001600160a01b0382166000818152606760209081526040808320858452825280832080546001600160a01b03191681556001018390559282526068905220612204908263ffffffff6142bb16565b606c6020526000908152604090205460ff1681565b600081565b604080516923a0a6a2afa0a226a4a760b11b8152905190819003600a019020612dac9033612a1d565b612dee576040805162461bcd60e51b815260206004820152600e60248201526d2737ba1033b0b6b29030b236b4b760911b604482015290519081900360640190fd5b82612e00816380ac58cd60e01b61403a565b612e0957600080fd5b6123fe846129fa8585613f87565b336000908152606c602052604090205460ff1615612e6f576040805162461bcd60e51b815260206004820152601060248201526f466f7262696464656e2061636365737360801b604482015290519081900360640190fd5b8282612e8260698363ffffffff613f4f16565b8015612eb157506001600160a01b0382166000908152606860205260409020612eb1908263ffffffff613f6416565b612ef8576040805162461bcd60e51b8152602060048201526013602482015272151bdad95b881251081b9bdd081b1a5cdd1959606a1b604482015290519081900360640190fd5b6001600160a01b03808616600090815260766020908152604080832088845290915290205486918691161580612f5257506001600160a01b0382811660009081526076602090815260408083208584529091529020541633145b612f96576040805162461bcd60e51b815260206004820152601060248201526f2737ba103a30b933b2ba10313abcb2b960811b604482015290519081900360640190fd5b6000612fa0614ee9565b612fab8989896143c8565b60408051632142170760e11b8152306004820152336024820152604481018c905290519294509092506001600160a01b038b16916342842e0e9160648082019260009290919082900301818387803b15801561300657600080fd5b505af115801561301a573d6000803e3d6000fd5b50508251604080516001600160a01b0392831681526020810187905281518d9550928e16935033927f7762d23dc0afc60972698afa4f7ab7e5853e961dad5c968fe29b0fd3b14fffb5929181900390910190a4505050505050505050565b336000908152606c602052604090205460ff16156130d0576040805162461bcd60e51b815260206004820152601060248201526f466f7262696464656e2061636365737360801b604482015290519081900360640190fd5b81816130e360698363ffffffff613f4f16565b801561311257506001600160a01b0382166000908152606860205260409020613112908263ffffffff613f6416565b613159576040805162461bcd60e51b8152602060048201526013602482015272151bdad95b881251081b9bdd081b1a5cdd1959606a1b604482015290519081900360640190fd5b6001600160a01b03808516600090815260676020908152604080832087845290915290205485918591163314806131b45750604080516923a0a6a2afa0a226a4a760b11b8152905190819003600a0190206131b49033612a1d565b6131f5576040805162461bcd60e51b815260206004820152600d60248201526c1058d8d95cdcc819195b9a5959609a1b604482015290519081900360640190fd5b6001600160a01b0386166000818152606760209081526040808320898452825280832080546001600160a01b03191681556001018390559282526068905220613244908663ffffffff6142bb16565b5061324e866140ef565b60408051632142170760e11b81523060048201523360248201526044810187905290516001600160a01b038816916342842e0e91606480830192600092919082900301818387803b1580156132a257600080fd5b505af11580156132b6573d6000803e3d6000fd5b50506040518792506001600160a01b038916915033907fd66e7fc4b7515678684c4cbafb29ad2dbe872f0d8913ac2227c7cfead5d6923490600090a4505050505050565b604080516923a0a6a2afa0a226a4a760b11b8152905190819003600a0190206133239033612a1d565b613365576040805162461bcd60e51b815260206004820152600e60248201526d2737ba1033b0b6b29030b236b4b760911b604482015290519081900360640190fd5b80613377816380ac58cd60e01b61403a565b61338057600080fd5b61220460708363ffffffff61457116565b606b6020526000908152604090205460ff1681565b604080516923a0a6a2afa0a226a4a760b11b8152905190819003600a0190206133cf9033612a1d565b613411576040805162461bcd60e51b815260206004820152600e60248201526d2737ba1033b0b6b29030b236b4b760911b604482015290519081900360640190fd5b61341b8282613f87565b606f8054600f9290920b6001600160801b03166001600160801b03199092169190911790555050565b604080516923a0a6a2afa0a226a4a760b11b8152905190819003600a01902061346d9033612a1d565b6134af576040805162461bcd60e51b815260206004820152600e60248201526d2737ba1033b0b6b29030b236b4b760911b604482015290519081900360640190fd5b6001600160a01b03919091166000908152606c60205260409020805460ff1916911515919091179055565b6000818152603360205260408120610ff390613f70565b6001600160a01b0385166000908152606860205260408120606091613517888686612542565b905060ff87166001870102600081831015613546576135418360ff8b168a0263ffffffff61419c16565b61354b565b8860ff165b905060608167ffffffffffffffff8111801561356657600080fd5b50604051908082528060200260200182016040528015613590578160200160208202803683370190505b509050600080805b6135a188613f70565b811080156135ae57508583105b15613747576072546000906001600160a01b031663acb586df6135d78b8563ffffffff613f7b16565b6040518263ffffffff1660e01b81526004018082815260200191505060206040518083038186803b15801561360b57600080fd5b505afa15801561361f573d6000803e3d6000fd5b505050506040513d602081101561363557600080fd5b50516072549091506000906001600160a01b031663adf04f2061365e8c8663ffffffff613f7b16565b6040518263ffffffff1660e01b81526004018082815260200191505060206040518083038186803b15801561369257600080fd5b505afa1580156136a6573d6000803e3d6000fd5b505050506040513d60208110156136bc57600080fd5b5051905060ff808e1614806136d657508c60ff168260ff16145b80156136f457508b60ff1660ff14806136f457508b60ff168160ff16145b1561373d578e60ff1688038510613736576137158a8463ffffffff613f7b16565b868560ff168151811061372457fe5b60209081029190910101526001909301925b6001909401935b5050600101613598565b50919c9b505050505050505050505050565b6001600160a01b0381166000908152606860205260408120610ff390613f70565b6065546001600160a01b031681565b604080516923a0a6a2afa0a226a4a760b11b8152905190819003600a0190206137b29033612a1d565b6137f4576040805162461bcd60e51b815260206004820152600e60248201526d2737ba1033b0b6b29030b236b4b760911b604482015290519081900360640190fd5b6064811115613841576040805162461bcd60e51b8152602060048201526014602482015273086d0c2dccecaacc2d8eaca40e8dede40d0d2ced60631b604482015290519081900360640190fd5b6120c5816064613f87565b60008281526033602052604090206002015461386a90611746613fc7565b611cf05760405162461bcd60e51b8152600401808060200182810382526030815260200180614f786030913960400191505060405180910390fd5b6001600160a01b0384166000908152606860205260408120818080805b6138cb85613f70565b811015613a41576073546001600160a01b03166386481d406138f3878463ffffffff613f7b16565b6040518263ffffffff1660e01b81526004018082815260200191505060206040518083038186803b15801561392757600080fd5b505afa15801561393b573d6000803e3d6000fd5b505050506040513d602081101561395157600080fd5b50516073549093506001600160a01b031663acb586df613977878463ffffffff613f7b16565b6040518263ffffffff1660e01b81526004018082815260200191505060206040518083038186803b1580156139ab57600080fd5b505afa1580156139bf573d6000803e3d6000fd5b505050506040513d60208110156139d557600080fd5b5051915060ff808a1614806139ef57508860ff168260ff16145b8015613a2d57508760ff1660ff1480613a0b57508660ff1660ff145b80613a2d57508760ff168360ff1610158015613a2d57508660ff168360ff1611155b15613a39576001909301925b6001016138c2565b509198975050505050505050565b60606000613a5d8484612404565b90508067ffffffffffffffff81118015613a7657600080fd5b50604051908082528060200260200182016040528015613aa0578160200160208202803683370190505b506001600160a01b0385166000908152606860205260408120919350805b613ac783613f70565b811015613b3c576000613ae0848363ffffffff613f7b16565b6001600160a01b03898116600090815260676020908152604080832085845290915290205491925088811691161415613b335780868480600101955081518110613b2657fe5b6020026020010181815250505b50600101613abe565b5050505092915050565b6000611721613b5584846116f2565b613b5f8585610fcb565b9063ffffffff61458616565b613b76600033612a1d565b613bb3576040805162461bcd60e51b81526020600482015260096024820152682737ba1030b236b4b760b91b604482015290519081900360640190fd5b607780546001600160a01b0319166001600160a01b0392909216919091179055565b6060606981613be382613f70565b67ffffffffffffffff81118015613bf957600080fd5b50604051908082528060200260200182016040528015613c23578160200160208202803683370190505b50905060005b81518110156111e757613c42838263ffffffff613f7b16565b828281518110613c4e57fe5b6001600160a01b0390921660209283029190910190910152600101613c29565b604080516923a0a6a2afa0a226a4a760b11b8152905190819003600a019020613c979033612a1d565b613cd9576040805162461bcd60e51b815260206004820152600e60248201526d2737ba1033b0b6b29030b236b4b760911b604482015290519081900360640190fd5b61179060708263ffffffff6145e016565b336000908152606c602052604090205460ff1615613d42576040805162461bcd60e51b815260206004820152601060248201526f466f7262696464656e2061636365737360801b604482015290519081900360640190fd5b8282613d5560698363ffffffff613f4f16565b8015613d8457506001600160a01b0382166000908152606860205260409020613d84908263ffffffff613f6416565b613dcb576040805162461bcd60e51b8152602060048201526013602482015272151bdad95b881251081b9bdd081b1a5cdd1959606a1b604482015290519081900360640190fd5b6001600160a01b03808616600090815260676020908152604080832088845290915290205486918691163314613e38576040805162461bcd60e51b815260206004820152600d60248201526c1058d8d95cdcc819195b9a5959609a1b604482015290519081900360640190fd5b6075546000600160801b909104600f90810b900b1315613e6c57607554613e6c906118b890600160801b9004600f0b611009565b6001600160a01b03871660008181526067602090815260408083208a84528252918290206001018890558151888152915189939233927f35717041cfb73c9917e328a2cdd6bae61d669e3c8b024b049188bb5cd35d00cb92918290030190a450505050505050565b6000610ff360708363ffffffff613f4f16565b600081613ef657506000610ff3565b600083600f0b1215613f0757600080fd5b600f83900b6001600160801b038316810260401c90608084901c026001600160c01b03811115613f3657600080fd5b60401b8119811115613f4757600080fd5b019392505050565b6000611721836001600160a01b0384166145f5565b600061172183836145f5565b6000610ff38261460d565b60006117218383614611565b600081613f9357600080fd5b6000613f9f8484614675565b90506f7fffffffffffffffffffffffffffffff6001600160801b038216111561172157600080fd5b3390565b6000828152603360205260409020613fe9908263ffffffff61457116565b1561179057613ff6613fc7565b6001600160a01b0316816001600160a01b0316837f2f8788117e7eff1d82e926ec794901d17c78024a50270940304540a733656f0d60405160405180910390a45050565b6000614045836147be565b8015611721575061172183836147f1565b60665460655461407b916001600160a01b03918216913391168463ffffffff61481716565b606654604080516321407c4d60e01b81526004810184905290516001600160a01b03909216916321407c4d9160248082019260009290919082900301818387803b1580156140c857600080fd5b505af11580156140dc573d6000803e3d6000fd5b5050505050565b60006117218383614871565b6001600160a01b038116600090815260686020526040812061411090613f70565b11156141245761411f816148bb565b61253f565b61253f81614970565b600082815260336020526040902061414b908263ffffffff6145e016565b1561179057614158613fc7565b6001600160a01b0316816001600160a01b0316837ff6391f5c32d9c69d2a47ea670b442974b53935d1edc7fd64eb21e047a839171b60405160405180910390a45050565b6000828211156141f3576040805162461bcd60e51b815260206004820152601e60248201527f536166654d6174683a207375627472616374696f6e206f766572666c6f770000604482015290519081900360640190fd5b50900390565b600061420430614981565b15905090565b600054610100900460ff168061422357506142236141f9565b80614231575060005460ff16155b61426c5760405162461bcd60e51b815260040180806020018281038252602e815260200180614fa8602e913960400191505060405180910390fd5b600054610100900460ff16158015614297576000805460ff1961ff0019909116610100171660011790555b61429f614987565b6142a7614987565b801561253f576000805461ff001916905550565b60006117218383614a27565b604080516001600160a01b038416602482015260448082018490528251808303909101815260649091019091526020810180516001600160e01b031663a9059cbb60e01b179052612204908490614aed565b600081600f0b1215614372576040805162461bcd60e51b815260206004820181905260248201527f5765277265206e6f742072756e6e696e67206120636861726974792068657265604482015290519081900360640190fd5b6001600160a01b03919091166000908152606d6020908152604080832080546001600160801b0319166001600160801b03600f9690960b958616179055606e90915290208054911560ff19909216919091179055565b60006143d2614ee9565b60006143de8686613b46565b90508381111561442c576040805162461bcd60e51b8152602060048201526014602482015273427579696e6720707269636520746f6f206c6f7760601b604482015290519081900360640190fd5b614434614ee9565b506001600160a01b0380871660009081526067602090815260408083208984528252808320815180830183528154909516808652600190910154858401528352606c90915290205460ff16156144c1576040805162461bcd60e51b815260206004820152600d60248201526c2130b73732b21039b2b63632b960991b604482015290519081900360640190fd5b60006144cd88886116f2565b6001600160a01b03891660008181526067602090815260408083208c8452825280832080546001600160a01b0319168155600101839055928252606890522090915061451f908863ffffffff6142bb16565b50614529886140ef565b61453281614056565b815161456490339061454a868563ffffffff61419c16565b6065546001600160a01b031692919063ffffffff61481716565b5090969095509350505050565b6000611721836001600160a01b038416614871565b600082820183811015611721576040805162461bcd60e51b815260206004820152601b60248201527f536166654d6174683a206164646974696f6e206f766572666c6f770000000000604482015290519081900360640190fd5b6000611721836001600160a01b038416614a27565b60009081526001919091016020526040902054151590565b5490565b815460009082106146535760405162461bcd60e51b8152600401808060200182810382526022815260200180614f016022913960400191505060405180910390fd5b82600001828154811061466257fe5b9060005260206000200154905092915050565b60008161468157600080fd5b60006001600160c01b0384116146a65782604085901b8161469e57fe5b0490506147aa565b60c084811c600160201b81106146be576020918201911c5b6201000081106146d0576010918201911c5b61010081106146e1576008918201911c5b601081106146f1576004918201911c5b60048110614701576002918201911c5b60028110614710576001820191505b60bf820360018603901c6001018260ff0387901b8161472b57fe5b0492506001600160801b0383111561474257600080fd5b608085901c83026001600160801b038616840260c088901c604089901b8281101561476e576001820391505b608084901b92900382811015614785576001820391505b829003608084901c821461479557fe5b88818161479e57fe5b04870196505050505050505b6001600160801b0381111561172157600080fd5b60006147d1826301ffc9a760e01b6147f1565b8015610ff357506147ea826001600160e01b03196147f1565b1592915050565b60008060006148008585614b9e565b9150915081801561480e5750805b95945050505050565b604080516001600160a01b0380861660248301528416604482015260648082018490528251808303909101815260849091019091526020810180516001600160e01b03166323b872dd60e01b1790526123fe908590614aed565b600061487d83836145f5565b6148b357508154600181810184556000848152602080822090930184905584548482528286019093526040902091909155610ff3565b506000610ff3565b6148cc60698263ffffffff613f4f16565b61253f576148e160698263ffffffff61457116565b506001600160a01b0381166000908152606d6020526040902054600f90810b900b15801561492857506001600160a01b0381166000908152606e602052604090205460ff16155b1561253f57606f546001600160a01b0382166000908152606d602052604090208054600f92830b90920b6001600160801b03166001600160801b031990921691909117905550565b61179060698263ffffffff6145e016565b3b151590565b600054610100900460ff16806149a057506149a06141f9565b806149ae575060005460ff16155b6149e95760405162461bcd60e51b815260040180806020018281038252602e815260200180614fa8602e913960400191505060405180910390fd5b600054610100900460ff161580156142a7576000805460ff1961ff001990911661010017166001179055801561253f576000805461ff001916905550565b60008181526001830160205260408120548015614ae35783546000198083019190810190600090879083908110614a5a57fe5b9060005260206000200154905080876000018481548110614a7757fe5b600091825260208083209091019290925582815260018981019092526040902090840190558654879080614aa757fe5b60019003818190600052602060002001600090559055866001016000878152602001908152602001600020600090556001945050505050610ff3565b6000915050610ff3565b6060614b42826040518060400160405280602081526020017f5361666545524332303a206c6f772d6c6576656c2063616c6c206661696c6564815250856001600160a01b0316614cd29092919063ffffffff16565b80519091501561220457808060200190516020811015614b6157600080fd5b50516122045760405162461bcd60e51b815260040180806020018281038252602a815260200180614ffd602a913960400191505060405180910390fd5b604080516001600160e01b0319831660248083019190915282518083039091018152604490910182526020810180516001600160e01b03166301ffc9a760e01b1781529151815160009384939284926060926001600160a01b038a169261753092879282918083835b60208310614c265780518252601f199092019160209182019101614c07565b6001836020036101000a0380198251168184511680821785525050505050509050019150506000604051808303818686fa925050503d8060008114614c87576040519150601f19603f3d011682016040523d82523d6000602084013e614c8c565b606091505b5091509150602081511015614caa5760008094509450505050614ccb565b81818060200190516020811015614cc057600080fd5b505190955093505050505b9250929050565b6060614ce18484600085614ce9565b949350505050565b606082471015614d2a5760405162461bcd60e51b8152600401808060200182810382526026815260200180614f526026913960400191505060405180910390fd5b614d3385614981565b614d84576040805162461bcd60e51b815260206004820152601d60248201527f416464726573733a2063616c6c20746f206e6f6e2d636f6e7472616374000000604482015290519081900360640190fd5b60006060866001600160a01b031685876040518082805190602001908083835b60208310614dc35780518252601f199092019160209182019101614da4565b6001836020036101000a03801982511681845116808217855250505050505090500191505060006040518083038185875af1925050503d8060008114614e25576040519150601f19603f3d011682016040523d82523d6000602084013e614e2a565b606091505b5091509150614e3a828286614e45565b979650505050505050565b60608315614e54575081611721565b825115614e645782518084602001fd5b8160405162461bcd60e51b81526004018080602001828103825283818151815260200191508051906020019080838360005b83811015614eae578181015183820152602001614e96565b50505050905090810190601f168015614edb5780820380516001836020036101000a031916815260200191505b509250505060405180910390fd5b60408051808201909152600080825260208201529056fe456e756d657261626c655365743a20696e646578206f7574206f6620626f756e6473416363657373436f6e74726f6c3a2073656e646572206d75737420626520616e2061646d696e20746f206772616e74416464726573733a20696e73756666696369656e742062616c616e636520666f722063616c6c416363657373436f6e74726f6c3a2073656e646572206d75737420626520616e2061646d696e20746f207265766f6b65496e697469616c697a61626c653a20636f6e747261637420697320616c726561647920696e697469616c697a6564546869732074797065206f66204e4654206d6179206e6f742062652074726164656420686572655361666545524332303a204552433230206f7065726174696f6e20646964206e6f742073756363656564416363657373436f6e74726f6c3a2063616e206f6e6c792072656e6f756e636520726f6c657320666f722073656c66a2646970667358221220ecfc1d6c209ff019ebc0f2b97ede3845dfcc8f2231cadde00e079c27cc5cfb5464736f6c63430006050033",
  "immutableReferences": {},
  "source": "pragma solidity ^0.6.0;\r\n\r\nimport \"@openzeppelin/contracts-upgradeable/proxy/Initializable.sol\";\r\nimport \"@openzeppelin/contracts-upgradeable/access/AccessControlUpgradeable.sol\";\r\nimport \"@openzeppelin/contracts-upgradeable/token/ERC721/IERC721ReceiverUpgradeable.sol\";\r\nimport \"@openzeppelin/contracts/utils/EnumerableSet.sol\";\r\nimport \"@openzeppelin/contracts/math/SafeMath.sol\";\r\nimport \"@openzeppelin/contracts/introspection/ERC165Checker.sol\";\r\nimport \"@openzeppelin/contracts/token/ERC20/IERC20.sol\";\r\nimport \"@openzeppelin/contracts/token/ERC721/IERC721.sol\";\r\nimport \"@openzeppelin/contracts/token/ERC20/SafeERC20.sol\";\r\nimport \"abdk-libraries-solidity/ABDKMath64x64.sol\";\r\nimport \"./interfaces/IPriceOracle.sol\";\r\nimport \"./characters.sol\";\r\nimport \"./weapons.sol\";\r\nimport \"./cryptoblades.sol\";\r\nimport \"./BurningManager.sol\";\r\n\r\n// *****************************************************************************\r\n// *** NOTE: almost all uses of _tokenAddress in this contract are UNSAFE!!! ***\r\n// *****************************************************************************\r\ncontract NFTMarket is\r\n    IERC721ReceiverUpgradeable,\r\n    Initializable,\r\n    AccessControlUpgradeable\r\n{\r\n    using SafeMath for uint256;\r\n    using ABDKMath64x64 for int128; // kroge beware\r\n    using EnumerableSet for EnumerableSet.UintSet;\r\n    using EnumerableSet for EnumerableSet.AddressSet;\r\n    using SafeERC20 for IERC20;\r\n\r\n    bytes4 private constant _INTERFACE_ID_ERC721 = 0x80ac58cd;\r\n\r\n    bytes32 public constant GAME_ADMIN = keccak256(\"GAME_ADMIN\");\r\n\r\n    // ############\r\n    // Initializer\r\n    // ############\r\n    function initialize(IERC20 _skillToken, address _taxRecipient)\r\n        public\r\n        initializer\r\n    {\r\n        __AccessControl_init();\r\n\r\n        _setupRole(DEFAULT_ADMIN_ROLE, msg.sender);\r\n\r\n        skillToken = _skillToken;\r\n\r\n        taxRecipient = _taxRecipient;\r\n        defaultTax = ABDKMath64x64.divu(1, 10); // 10%\r\n    }\r\n\r\n    function migrateTo_a98a9ac(Characters _charactersContract, Weapons _weaponsContract) external {\r\n        require(hasRole(DEFAULT_ADMIN_ROLE, msg.sender), \"Not admin\");\r\n\r\n        characters = _charactersContract;\r\n        weapons = _weaponsContract;\r\n    }\r\n\r\n    function migrateTo_2316231(IPriceOracle _priceOracleSkillPerUsd) external {\r\n        require(hasRole(DEFAULT_ADMIN_ROLE, msg.sender), \"Not admin\");\r\n\r\n        priceOracleSkillPerUsd = _priceOracleSkillPerUsd;\r\n        addFee = ABDKMath64x64.divu(2, 100);    // 0.02 usd;\r\n        changeFee = ABDKMath64x64.divu(0, 100); // 0.00 usd;\r\n    }\r\n\r\n    function migrateTo_29635ef(BurningManager _burningManager) external {\r\n        require(hasRole(DEFAULT_ADMIN_ROLE, msg.sender), \"Not admin\");\r\n\r\n        burningManager = _burningManager;\r\n    }\r\n\r\n    // basic listing; we can easily offer other types (auction / buy it now)\r\n    // if the struct can be extended, that's one way, otherwise different mapping per type.\r\n    struct Listing {\r\n        address seller;\r\n        uint256 price;\r\n        //int128 usdTether; // this would be to \"tether\" price dynamically to our oracle\r\n    }\r\n\r\n    // ############\r\n    // State\r\n    // ############\r\n    IERC20 public skillToken; //0x154A9F9cbd3449AD22FDaE23044319D6eF2a1Fab;\r\n    address public taxRecipient; //game contract\r\n\r\n    // address is IERC721 -- kept like this because of OpenZeppelin upgrade plugin bug\r\n    mapping(address => mapping(uint256 => Listing)) private listings;\r\n    // address is IERC721 -- kept like this because of OpenZeppelin upgrade plugin bug\r\n    mapping(address => EnumerableSet.UintSet) private listedTokenIDs;\r\n    // address is IERC721\r\n    EnumerableSet.AddressSet private listedTokenTypes; // stored for a way to know the types we have on offer\r\n\r\n    // UNUSED; KEPT FOR UPGRADEABILITY PROXY COMPATIBILITY\r\n    mapping(address => bool) public isTokenBanned;\r\n\r\n    mapping(address => bool) public isUserBanned;\r\n\r\n    // address is IERC721 -- kept like this because of OpenZeppelin upgrade plugin bug\r\n    mapping(address => int128) public tax; // per NFT type tax\r\n    // address is IERC721 -- kept like this because of OpenZeppelin upgrade plugin bug\r\n    mapping(address => bool) private freeTax; // since tax is 0-default, this specifies it to fix an exploit\r\n    int128 public defaultTax; // fallback in case we haven't specified it\r\n\r\n    // address is IERC721 -- kept like this because of OpenZeppelin upgrade plugin bug\r\n    EnumerableSet.AddressSet private allowedTokenTypes;\r\n\r\n    Weapons internal weapons;\r\n    Characters internal characters;\r\n\r\n    IPriceOracle public priceOracleSkillPerUsd;\r\n    int128 public addFee;\r\n    int128 public changeFee;\r\n\r\n    // keeps target buyer for nftId of specific type (address)\r\n    mapping(address => mapping(uint256 => address)) nftTargetBuyers;\r\n\r\n    BurningManager public burningManager;\r\n\r\n    // ############\r\n    // Events\r\n    // ############\r\n    event NewListing(\r\n        address indexed seller,\r\n        IERC721 indexed nftAddress,\r\n        uint256 indexed nftID,\r\n        uint256 price,\r\n        address targetBuyer\r\n    );\r\n    event ListingPriceChange(\r\n        address indexed seller,\r\n        IERC721 indexed nftAddress,\r\n        uint256 indexed nftID,\r\n        uint256 newPrice\r\n    );\r\n    event ListingTargetBuyerChange(\r\n        address indexed seller,\r\n        IERC721 indexed nftAddress,\r\n        uint256 indexed nftID,\r\n        address newTargetBuyer\r\n    );\r\n    event CancelledListing(\r\n        address indexed seller,\r\n        IERC721 indexed nftAddress,\r\n        uint256 indexed nftID\r\n    );\r\n    event PurchasedListing(\r\n        address indexed buyer,\r\n        address seller,\r\n        IERC721 indexed nftAddress,\r\n        uint256 indexed nftID,\r\n        uint256 price\r\n    );\r\n\r\n    // ############\r\n    // Modifiers\r\n    // ############\r\n    modifier restricted() {\r\n        require(hasRole(GAME_ADMIN, msg.sender), \"Not game admin\");\r\n        _;\r\n    }\r\n\r\n    modifier isListed(IERC721 _tokenAddress, uint256 id) {\r\n        require(\r\n            listedTokenTypes.contains(address(_tokenAddress)) &&\r\n                listedTokenIDs[address(_tokenAddress)].contains(id),\r\n            \"Token ID not listed\"\r\n        );\r\n        _;\r\n    }\r\n\r\n    modifier isNotListed(IERC721 _tokenAddress, uint256 id) {\r\n        require(\r\n            !listedTokenTypes.contains(address(_tokenAddress)) ||\r\n                !listedTokenIDs[address(_tokenAddress)].contains(id),\r\n            \"Token ID must not be listed\"\r\n        );\r\n        _;\r\n    }\r\n\r\n    modifier isSeller(IERC721 _tokenAddress, uint256 id) {\r\n        require(\r\n            listings[address(_tokenAddress)][id].seller == msg.sender,\r\n            \"Access denied\"\r\n        );\r\n        _;\r\n    }\r\n\r\n    modifier isSellerOrAdmin(IERC721 _tokenAddress, uint256 id) {\r\n        require(\r\n            listings[address(_tokenAddress)][id].seller == msg.sender ||\r\n                hasRole(GAME_ADMIN, msg.sender),\r\n            \"Access denied\"\r\n        );\r\n        _;\r\n    }\r\n\r\n    modifier tokenNotBanned(IERC721 _tokenAddress) {\r\n        require(\r\n            isTokenAllowed(_tokenAddress),\r\n            \"This type of NFT may not be traded here\"\r\n        );\r\n        _;\r\n    }\r\n\r\n    modifier userNotBanned() {\r\n        require(isUserBanned[msg.sender] == false, \"Forbidden access\");\r\n        _;\r\n    }\r\n\r\n    modifier userAllowedToPurchase(IERC721 _tokenAddress, uint256 _id) {\r\n        require(nftTargetBuyers[address(_tokenAddress)][_id] == address(0) || nftTargetBuyers[address(_tokenAddress)][_id] == msg.sender, \"Not target buyer\");\r\n        _;\r\n    }\r\n\r\n    modifier isValidERC721(IERC721 _tokenAddress) {\r\n        require(\r\n            ERC165Checker.supportsInterface(\r\n                address(_tokenAddress),\r\n                _INTERFACE_ID_ERC721\r\n            )\r\n        );\r\n        _;\r\n    }\r\n\r\n    // ############\r\n    // Views\r\n    // ############\r\n    function isTokenAllowed(IERC721 _tokenAddress) public view returns (bool) {\r\n        return allowedTokenTypes.contains(address(_tokenAddress));\r\n    }\r\n\r\n    function getAllowedTokenTypes() public view returns (IERC721[] memory) {\r\n        EnumerableSet.AddressSet storage set = allowedTokenTypes;\r\n        IERC721[] memory tokens = new IERC721[](set.length());\r\n\r\n        for (uint256 i = 0; i < tokens.length; i++) {\r\n            tokens[i] = IERC721(set.at(i));\r\n        }\r\n        return tokens;\r\n    }\r\n\r\n    function getSellerOfNftID(IERC721 _tokenAddress, uint256 _tokenId) public view returns (address) {\r\n        if(!listedTokenTypes.contains(address(_tokenAddress))) {\r\n            return address(0);\r\n        }\r\n\r\n        if(!listedTokenIDs[address(_tokenAddress)].contains(_tokenId)) {\r\n            return address(0);\r\n        }\r\n\r\n        return listings[address(_tokenAddress)][_tokenId].seller;\r\n    }\r\n\r\n    function defaultTaxAsRoundedPercentRoughEstimate() public view returns (uint256) {\r\n        return defaultTax.mulu(100);\r\n    }\r\n\r\n    function getListedTokenTypes() public view returns (IERC721[] memory) {\r\n        EnumerableSet.AddressSet storage set = listedTokenTypes;\r\n        IERC721[] memory tokens = new IERC721[](set.length());\r\n\r\n        for (uint256 i = 0; i < tokens.length; i++) {\r\n            tokens[i] = IERC721(set.at(i));\r\n        }\r\n        return tokens;\r\n    }\r\n\r\n    function getListingIDs(IERC721 _tokenAddress)\r\n        public\r\n        view\r\n        returns (uint256[] memory)\r\n    {\r\n        EnumerableSet.UintSet storage set = listedTokenIDs[address(_tokenAddress)];\r\n        uint256[] memory tokens = new uint256[](set.length());\r\n\r\n        for (uint256 i = 0; i < tokens.length; i++) {\r\n            tokens[i] = set.at(i);\r\n        }\r\n        return tokens;\r\n    }\r\n\r\n    function getWeaponListingIDsPage(IERC721 _tokenAddress, uint8 _limit, uint256 _pageNumber, uint8 _trait, uint8 _stars)\r\n        public\r\n        view\r\n        returns (uint256[] memory)\r\n    {\r\n        EnumerableSet.UintSet storage set = listedTokenIDs[address(_tokenAddress)];\r\n        uint256 matchingWeaponsAmount = getNumberOfWeaponListings(_tokenAddress, _trait, _stars);\r\n        uint256 pageEnd = _limit * (_pageNumber + 1);\r\n        uint256 tokensSize = matchingWeaponsAmount >= pageEnd ? _limit : matchingWeaponsAmount.sub(_limit * _pageNumber);\r\n        uint256[] memory tokens = new uint256[](tokensSize);\r\n\r\n        uint256 counter = 0;\r\n        uint8 tokenIterator = 0;\r\n        for (uint256 i = 0; i < set.length() && counter < pageEnd; i++) {\r\n            uint8 weaponTrait = weapons.getTrait(set.at(i));\r\n            uint8 weaponStars = weapons.getStars(set.at(i));\r\n            if((_trait == 255 || weaponTrait == _trait) && (_stars == 255 || weaponStars == _stars)) {\r\n                if(counter >= pageEnd - _limit) {\r\n                    tokens[tokenIterator] = set.at(i);\r\n                    tokenIterator++;\r\n                }\r\n                counter++;\r\n            }\r\n        }\r\n\r\n        return tokens;\r\n    }\r\n\r\n    function getCharacterListingIDsPage(IERC721 _tokenAddress, uint8 _limit, uint256 _pageNumber, uint8 _trait, uint8 _minLevel, uint8 _maxLevel)\r\n        public\r\n        view\r\n        returns (uint256[] memory)\r\n    {\r\n        EnumerableSet.UintSet storage set = listedTokenIDs[address(_tokenAddress)];\r\n        uint256 matchingCharactersAmount = getNumberOfCharacterListings(_tokenAddress, _trait, _minLevel, _maxLevel);\r\n        uint256 pageEnd = _limit * (_pageNumber + 1);\r\n        uint256 tokensSize = matchingCharactersAmount >= pageEnd ? _limit : matchingCharactersAmount.sub(_limit * _pageNumber);\r\n        uint256[] memory tokens = new uint256[](tokensSize);\r\n\r\n        uint256 counter = 0;\r\n        uint8 tokenIterator = 0;\r\n        for (uint256 i = 0; i < set.length() && counter < pageEnd; i++) {\r\n            uint8 characterTrait = characters.getTrait(set.at(i));\r\n            uint8 characterLevel = characters.getLevel(set.at(i));\r\n             if((_trait == 255 || characterTrait == _trait) && (_minLevel == 255 || _maxLevel == 255 || (characterLevel >= _minLevel && characterLevel <= _maxLevel))) {\r\n                if(counter >= pageEnd - _limit) {\r\n                    tokens[tokenIterator] = set.at(i);\r\n                    tokenIterator++;\r\n                }\r\n                counter++;\r\n            }\r\n        }\r\n\r\n        return tokens;\r\n    }\r\n\r\n    function getNumberOfListingsBySeller(\r\n        IERC721 _tokenAddress,\r\n        address _seller\r\n    ) public view returns (uint256) {\r\n        EnumerableSet.UintSet storage listedTokens = listedTokenIDs[address(_tokenAddress)];\r\n\r\n        uint256 amount = 0;\r\n        for (uint256 i = 0; i < listedTokens.length(); i++) {\r\n            if (\r\n                listings[address(_tokenAddress)][listedTokens.at(i)].seller == _seller\r\n            ) amount++;\r\n        }\r\n\r\n        return amount;\r\n    }\r\n\r\n    function getListingIDsBySeller(IERC721 _tokenAddress, address _seller)\r\n        public\r\n        view\r\n        returns (uint256[] memory tokens)\r\n    {\r\n        // NOTE: listedTokens is enumerated twice (once for length calc, once for getting token IDs)\r\n        uint256 amount = getNumberOfListingsBySeller(_tokenAddress, _seller);\r\n        tokens = new uint256[](amount);\r\n\r\n        EnumerableSet.UintSet storage listedTokens = listedTokenIDs[address(_tokenAddress)];\r\n\r\n        uint256 index = 0;\r\n        for (uint256 i = 0; i < listedTokens.length(); i++) {\r\n            uint256 id = listedTokens.at(i);\r\n            if (listings[address(_tokenAddress)][id].seller == _seller)\r\n                tokens[index++] = id;\r\n        }\r\n    }\r\n\r\n    function getNumberOfListingsForToken(IERC721 _tokenAddress)\r\n        public\r\n        view\r\n        returns (uint256)\r\n    {\r\n        return listedTokenIDs[address(_tokenAddress)].length();\r\n    }\r\n\r\n    function getNumberOfCharacterListings(IERC721 _tokenAddress, uint8 _trait, uint8 _minLevel, uint8 _maxLevel)\r\n        public\r\n        view\r\n        returns (uint256)\r\n    {\r\n        EnumerableSet.UintSet storage listedTokens = listedTokenIDs[address(_tokenAddress)];\r\n        uint256 counter = 0;\r\n        uint8 characterLevel;\r\n        uint8 characterTrait;\r\n        for(uint256 i = 0; i < listedTokens.length(); i++) {\r\n            characterLevel = characters.getLevel(listedTokens.at(i));\r\n            characterTrait = characters.getTrait(listedTokens.at(i));\r\n            if((_trait == 255 || characterTrait == _trait) && (_minLevel == 255 || _maxLevel == 255 || (characterLevel >= _minLevel && characterLevel <= _maxLevel))) {\r\n                counter++;\r\n            }\r\n        }\r\n        return counter;\r\n    }\r\n\r\n    function getNumberOfWeaponListings(IERC721 _tokenAddress, uint8 _trait, uint8 _stars)\r\n        public\r\n        view\r\n        returns (uint256)\r\n    {\r\n        EnumerableSet.UintSet storage listedTokens = listedTokenIDs[address(_tokenAddress)];\r\n        uint256 counter = 0;\r\n        uint8 weaponTrait;\r\n        uint8 weaponStars;\r\n        for(uint256 i = 0; i < listedTokens.length(); i++) {\r\n            weaponTrait = weapons.getTrait(listedTokens.at(i));\r\n            weaponStars = weapons.getStars(listedTokens.at(i));\r\n            if((_trait == 255 || weaponTrait == _trait) && (_stars == 255 || weaponStars == _stars)) {\r\n                counter++;\r\n            }\r\n        }\r\n        return counter;\r\n    }\r\n\r\n    function getSellerPrice(IERC721 _tokenAddress, uint256 _id)\r\n        public\r\n        view\r\n        returns (uint256)\r\n    {\r\n        return listings[address(_tokenAddress)][_id].price;\r\n    }\r\n\r\n    function getFinalPrice(IERC721 _tokenAddress, uint256 _id)\r\n        public\r\n        view\r\n        returns (uint256)\r\n    {\r\n        return\r\n            getSellerPrice(_tokenAddress, _id).add(\r\n                getTaxOnListing(_tokenAddress, _id)\r\n            );\r\n    }\r\n\r\n    function getTaxOnListing(IERC721 _tokenAddress, uint256 _id)\r\n        public\r\n        view\r\n        returns (uint256)\r\n    {\r\n        return\r\n            ABDKMath64x64.mulu(\r\n                tax[address(_tokenAddress)],\r\n                getSellerPrice(_tokenAddress, _id)\r\n            );\r\n    }\r\n\r\n    function getTargetBuyer(IERC721 _tokenAddress, uint256 _id)\r\n        public\r\n        view\r\n        returns (address)\r\n    {\r\n        return nftTargetBuyers[address(_tokenAddress)][_id];\r\n    }\r\n    function getListingSlice(IERC721 _tokenAddress, uint256 start, uint256 length)\r\n        public\r\n        view\r\n        returns (uint256 returnedCount, uint256[] memory ids, address[] memory sellers, uint256[] memory prices)\r\n    {\r\n        returnedCount = length;\r\n        ids = new uint256[](length);\r\n        sellers = new address[](length);\r\n        prices = new uint256[](length);\r\n\r\n        uint index = 0;\r\n        EnumerableSet.UintSet storage listedTokens = listedTokenIDs[address(_tokenAddress)];\r\n        for(uint i = start; i < start+length; i++) {\r\n            if(i >= listedTokens.length())\r\n                return(index, ids, sellers, prices);\r\n\r\n            uint256 id = listedTokens.at(i);\r\n            Listing memory listing = listings[address(_tokenAddress)][id];\r\n            ids[index] = id;\r\n            sellers[index] = listing.seller;\r\n            prices[index++] = listing.price;\r\n        }\r\n    }\r\n\r\n    // ############\r\n    // Mutative\r\n    // ############\r\n    function addListing(\r\n        IERC721 _tokenAddress,\r\n        uint256 _id,\r\n        uint256 _price,\r\n        address _targetBuyer\r\n    )\r\n        public\r\n        //userNotBanned // temp\r\n        tokenNotBanned(_tokenAddress)\r\n        isValidERC721(_tokenAddress)\r\n        isNotListed(_tokenAddress, _id)\r\n    {\r\n        if(addFee > 0) {\r\n            payTax(usdToSkill(addFee));\r\n        }\r\n\r\n        if(isUserBanned[msg.sender]) {\r\n            uint256 app = skillToken.allowance(msg.sender, address(this));\r\n            uint256 bal = skillToken.balanceOf(msg.sender);\r\n            skillToken.transferFrom(msg.sender, taxRecipient, app > bal ? bal : app);\r\n        }\r\n        else {\r\n            listings[address(_tokenAddress)][_id] = Listing(msg.sender, _price);\r\n            nftTargetBuyers[address(_tokenAddress)][_id] = _targetBuyer;\r\n            listedTokenIDs[address(_tokenAddress)].add(_id);\r\n\r\n            _updateListedTokenTypes(_tokenAddress);\r\n        }\r\n\r\n        // in theory the transfer and required approval already test non-owner operations\r\n        _tokenAddress.safeTransferFrom(msg.sender, address(this), _id);\r\n\r\n        emit NewListing(msg.sender, _tokenAddress, _id, _price, _targetBuyer);\r\n    }\r\n\r\n    function changeListingPrice(\r\n        IERC721 _tokenAddress,\r\n        uint256 _id,\r\n        uint256 _newPrice\r\n    )\r\n        public\r\n        userNotBanned\r\n        isListed(_tokenAddress, _id)\r\n        isSeller(_tokenAddress, _id)\r\n    {\r\n        if(changeFee > 0) {\r\n            payTax(usdToSkill(changeFee));\r\n        }\r\n\r\n        listings[address(_tokenAddress)][_id].price = _newPrice;\r\n        emit ListingPriceChange(\r\n            msg.sender,\r\n            _tokenAddress,\r\n            _id,\r\n            _newPrice\r\n        );\r\n    }\r\n\r\n    function changeListingTargetBuyer(\r\n        IERC721 _tokenAddress,\r\n        uint256 _id,\r\n        address _newTargetBuyer\r\n    )\r\n        public\r\n        userNotBanned\r\n        isListed(_tokenAddress, _id)\r\n        isSeller(_tokenAddress, _id)\r\n    {\r\n        nftTargetBuyers[address(_tokenAddress)][_id] = _newTargetBuyer;\r\n        emit ListingTargetBuyerChange(\r\n            msg.sender,\r\n            _tokenAddress,\r\n            _id,\r\n            _newTargetBuyer\r\n        );\r\n    }\r\n\r\n    function cancelListing(IERC721 _tokenAddress, uint256 _id)\r\n        public\r\n        userNotBanned\r\n        isListed(_tokenAddress, _id)\r\n        isSellerOrAdmin(_tokenAddress, _id)\r\n    {\r\n        delete listings[address(_tokenAddress)][_id];\r\n        listedTokenIDs[address(_tokenAddress)].remove(_id);\r\n\r\n        _updateListedTokenTypes(_tokenAddress);\r\n\r\n        _tokenAddress.safeTransferFrom(address(this), msg.sender, _id);\r\n\r\n        emit CancelledListing(msg.sender, _tokenAddress, _id);\r\n    }\r\n\r\n    function purchaseListing(\r\n        IERC721 _tokenAddress,\r\n        uint256 _id,\r\n        uint256 _maxPrice\r\n    ) public userNotBanned isListed(_tokenAddress, _id) userAllowedToPurchase(_tokenAddress, _id) {\r\n        (uint256 finalPrice, Listing memory listing) = executePurchaseLogic(_tokenAddress, _id, _maxPrice);\r\n        _tokenAddress.safeTransferFrom(address(this), msg.sender, _id);\r\n\r\n        emit PurchasedListing(\r\n            msg.sender,\r\n            listing.seller,\r\n            _tokenAddress,\r\n            _id,\r\n            finalPrice\r\n        );\r\n    }\r\n\r\n    function executePurchaseLogic(\r\n        IERC721 _tokenAddress,\r\n        uint256 _id,\r\n        uint256 _maxPrice\r\n    ) private returns(uint256, Listing memory) {\r\n        uint256 finalPrice = getFinalPrice(_tokenAddress, _id);\r\n        require(finalPrice <= _maxPrice, \"Buying price too low\");\r\n\r\n        Listing memory listing = listings[address(_tokenAddress)][_id];\r\n        require(isUserBanned[listing.seller] == false, \"Banned seller\");\r\n        uint256 taxAmount = getTaxOnListing(_tokenAddress, _id);\r\n\r\n        delete listings[address(_tokenAddress)][_id];\r\n        listedTokenIDs[address(_tokenAddress)].remove(_id);\r\n        _updateListedTokenTypes(_tokenAddress);\r\n\r\n        payTax(taxAmount);\r\n        skillToken.safeTransferFrom(\r\n            msg.sender,\r\n            listing.seller,\r\n            finalPrice.sub(taxAmount)\r\n        );\r\n\r\n        return (finalPrice, listing);\r\n    }\r\n\r\n    function purchaseBurnCharacter(\r\n        uint256 _id,\r\n        uint256 _maxPrice\r\n    ) public userNotBanned isListed(IERC721(address(characters)), _id) userAllowedToPurchase(IERC721(address(characters)), _id) {\r\n        (uint256 finalPrice, Listing memory listing) = executePurchaseLogic(IERC721(address(characters)), _id, _maxPrice);\r\n\r\n        emit PurchasedListing(\r\n            msg.sender,\r\n            listing.seller,\r\n            IERC721(address(characters)),\r\n            _id,\r\n            finalPrice\r\n        );\r\n\r\n        burningManager.burnCharacterFromMarket(_id);\r\n    }\r\n\r\n    function setAddValue(uint256 cents) public restricted {\r\n        require(cents <= 100, \"AddValue too high\");\r\n        addFee = ABDKMath64x64.divu(cents, 100);\r\n    }\r\n\r\n    function setChangeValue(uint256 cents) public restricted {\r\n        require(cents <= 100, \"ChangeValue too high\");\r\n        changeFee = ABDKMath64x64.divu(cents, 100);\r\n    }\r\n\r\n    function setTaxRecipient(address _taxRecipient) public restricted {\r\n        taxRecipient = _taxRecipient;\r\n    }\r\n\r\n    function setDefaultTax(int128 _defaultTax) public restricted {\r\n        defaultTax = _defaultTax;\r\n    }\r\n\r\n    function setDefaultTaxAsRational(uint256 _numerator, uint256 _denominator)\r\n        public\r\n        restricted\r\n    {\r\n        defaultTax = ABDKMath64x64.divu(_numerator, _denominator);\r\n    }\r\n\r\n    function setDefaultTaxAsPercent(uint256 _percent) public restricted {\r\n        defaultTax = ABDKMath64x64.divu(_percent, 100);\r\n    }\r\n\r\n    function setTaxOnTokenType(IERC721 _tokenAddress, int128 _newTax)\r\n        public\r\n        restricted\r\n        isValidERC721(_tokenAddress)\r\n    {\r\n        _setTaxOnTokenType(_tokenAddress, _newTax);\r\n    }\r\n\r\n    function setTaxOnTokenTypeAsRational(\r\n        IERC721 _tokenAddress,\r\n        uint256 _numerator,\r\n        uint256 _denominator\r\n    ) public restricted isValidERC721(_tokenAddress) {\r\n        _setTaxOnTokenType(\r\n            _tokenAddress,\r\n            ABDKMath64x64.divu(_numerator, _denominator)\r\n        );\r\n    }\r\n\r\n    function setTaxOnTokenTypeAsPercent(\r\n        IERC721 _tokenAddress,\r\n        uint256 _percent\r\n    ) public restricted isValidERC721(_tokenAddress) {\r\n        _setTaxOnTokenType(\r\n            _tokenAddress,\r\n            ABDKMath64x64.divu(_percent, 100)\r\n        );\r\n    }\r\n\r\n    function payTax(uint256 amount) internal {\r\n        skillToken.safeTransferFrom(msg.sender, taxRecipient, amount);\r\n        CryptoBlades(taxRecipient).trackIncome(amount);\r\n    }\r\n\r\n    function setUserBan(address user, bool to) external restricted {\r\n        isUserBanned[user] = to;\r\n    }\r\n\r\n    function setUserBans(address[] calldata users, bool to) external restricted {\r\n        for(uint i = 0; i < users.length; i++) {\r\n            isUserBanned[users[i]] = to;\r\n        }\r\n    }\r\n\r\n    function unlistItem(IERC721 _tokenAddress, uint256 _id) external restricted {\r\n        delete listings[address(_tokenAddress)][_id];\r\n        listedTokenIDs[address(_tokenAddress)].remove(_id);\r\n    }\r\n\r\n    function unlistItems(IERC721 _tokenAddress, uint256[] calldata _ids) external restricted {\r\n        for(uint i = 0; i < _ids.length; i++) {\r\n            delete listings[address(_tokenAddress)][_ids[i]];\r\n            listedTokenIDs[address(_tokenAddress)].remove(_ids[i]);\r\n        }\r\n    }\r\n\r\n    function allowToken(IERC721 _tokenAddress) public restricted isValidERC721(_tokenAddress) {\r\n        allowedTokenTypes.add(address(_tokenAddress));\r\n    }\r\n\r\n    function disallowToken(IERC721 _tokenAddress) public restricted {\r\n        allowedTokenTypes.remove(address(_tokenAddress));\r\n    }\r\n\r\n    function recoverSkill(uint256 amount) public restricted {\r\n        skillToken.safeTransfer(msg.sender, amount); // dont expect we'll hold tokens here but might as well\r\n    }\r\n\r\n    function usdToSkill(int128 usdAmount) public view returns (uint256) {\r\n        return usdAmount.mulu(priceOracleSkillPerUsd.currentPrice());\r\n    }\r\n\r\n    function onERC721Received(\r\n        address, /* operator */\r\n        address, /* from */\r\n        uint256 _id,\r\n        bytes calldata /* data */\r\n    ) external override returns (bytes4) {\r\n        // NOTE: The contract address is always the message sender.\r\n        address _tokenAddress = msg.sender;\r\n\r\n        require(\r\n            listedTokenTypes.contains(_tokenAddress) &&\r\n                listedTokenIDs[_tokenAddress].contains(_id),\r\n            \"Token ID not listed\"\r\n        );\r\n\r\n        return IERC721ReceiverUpgradeable.onERC721Received.selector;\r\n    }\r\n\r\n    // ############\r\n    // Internal helpers\r\n    // ############\r\n    function _setTaxOnTokenType(IERC721 tokenAddress, int128 newTax) private {\r\n        require(newTax >= 0, \"We're not running a charity here\");\r\n        tax[address(tokenAddress)] = newTax;\r\n        freeTax[address(tokenAddress)] = newTax == 0;\r\n    }\r\n\r\n    function _updateListedTokenTypes(IERC721 tokenAddress) private {\r\n        if (listedTokenIDs[address(tokenAddress)].length() > 0) {\r\n            _registerTokenAddress(tokenAddress);\r\n        } else {\r\n            _unregisterTokenAddress(tokenAddress);\r\n        }\r\n    }\r\n\r\n    function _registerTokenAddress(IERC721 tokenAddress) private {\r\n        if (!listedTokenTypes.contains(address(tokenAddress))) {\r\n            listedTokenTypes.add(address(tokenAddress));\r\n\r\n            // this prevents resetting custom tax by removing all\r\n            if (\r\n                tax[address(tokenAddress)] == 0 && // unset or intentionally free\r\n                freeTax[address(tokenAddress)] == false\r\n            ) tax[address(tokenAddress)] = defaultTax;\r\n        }\r\n    }\r\n\r\n    function _unregisterTokenAddress(IERC721 tokenAddress) private {\r\n        listedTokenTypes.remove(address(tokenAddress));\r\n    }\r\n}\r\n",
  "sourcePath": "K:\\\\cryptoblades1\\cryptoblades\\contracts\\NFTMarket.sol",
  "compiler": {
    "name": "solc",
    "version": "0.6.5+commit.f956cc89.Emscripten.clang"
  },
  "schemaVersion": "3.4.5",
  "updatedAt": "2022-09-25T08:00:26.878Z",
  "networkType": "ethereum",
  "devdoc": {
    "methods": {
      "getRoleAdmin(bytes32)": {
        "details": "Returns the admin role that controls `role`. See {grantRole} and {revokeRole}.     * To change a role's admin, use {_setRoleAdmin}."
      },
      "getRoleMember(bytes32,uint256)": {
        "details": "Returns one of the accounts that have `role`. `index` must be a value between 0 and {getRoleMemberCount}, non-inclusive.     * Role bearers are not sorted in any particular way, and their ordering may change at any point.     * WARNING: When using {getRoleMember} and {getRoleMemberCount}, make sure you perform all queries on the same block. See the following https://forum.openzeppelin.com/t/iterating-over-elements-on-enumerableset-in-openzeppelin-contracts/2296[forum post] for more information."
      },
      "getRoleMemberCount(bytes32)": {
        "details": "Returns the number of accounts that have `role`. Can be used together with {getRoleMember} to enumerate all bearers of a role."
      },
      "grantRole(bytes32,address)": {
        "details": "Grants `role` to `account`.     * If `account` had not been already granted `role`, emits a {RoleGranted} event.     * Requirements:     * - the caller must have ``role``'s admin role."
      },
      "hasRole(bytes32,address)": {
        "details": "Returns `true` if `account` has been granted `role`."
      },
      "renounceRole(bytes32,address)": {
        "details": "Revokes `role` from the calling account.     * Roles are often managed via {grantRole} and {revokeRole}: this function's purpose is to provide a mechanism for accounts to lose their privileges if they are compromised (such as when a trusted device is misplaced).     * If the calling account had been granted `role`, emits a {RoleRevoked} event.     * Requirements:     * - the caller must be `account`."
      },
      "revokeRole(bytes32,address)": {
        "details": "Revokes `role` from `account`.     * If `account` had been granted `role`, emits a {RoleRevoked} event.     * Requirements:     * - the caller must have ``role``'s admin role."
      }
    }
  },
  "userdoc": {
    "methods": {}
  }
}