{
  "contractName": "NftStakingRewardsUpgradeable",
  "abi": [
    {
      "anonymous": false,
      "inputs": [],
      "name": "FailsafeModeEnabled",
      "type": "event"
    },
    {
      "anonymous": false,
      "inputs": [
        {
          "indexed": false,
          "internalType": "uint256",
          "name": "newMinimumStakeAmount",
          "type": "uint256"
        }
      ],
      "name": "MinimumStakeAmountUpdated",
      "type": "event"
    },
    {
      "anonymous": false,
      "inputs": [
        {
          "indexed": false,
          "internalType": "uint256",
          "name": "newMinimumStakeTime",
          "type": "uint256"
        }
      ],
      "name": "MinimumStakeTimeUpdated",
      "type": "event"
    },
    {
      "anonymous": false,
      "inputs": [
        {
          "indexed": true,
          "internalType": "address",
          "name": "previousOwner",
          "type": "address"
        },
        {
          "indexed": true,
          "internalType": "address",
          "name": "newOwner",
          "type": "address"
        }
      ],
      "name": "OwnershipTransferred",
      "type": "event"
    },
    {
      "anonymous": false,
      "inputs": [
        {
          "indexed": false,
          "internalType": "address",
          "name": "account",
          "type": "address"
        }
      ],
      "name": "Paused",
      "type": "event"
    },
    {
      "anonymous": false,
      "inputs": [
        {
          "indexed": false,
          "internalType": "address",
          "name": "token",
          "type": "address"
        },
        {
          "indexed": false,
          "internalType": "uint256",
          "name": "amount",
          "type": "uint256"
        }
      ],
      "name": "Recovered",
      "type": "event"
    },
    {
      "anonymous": false,
      "inputs": [
        {
          "indexed": false,
          "internalType": "uint256",
          "name": "reward",
          "type": "uint256"
        }
      ],
      "name": "RewardAdded",
      "type": "event"
    },
    {
      "anonymous": false,
      "inputs": [
        {
          "indexed": true,
          "internalType": "address",
          "name": "user",
          "type": "address"
        },
        {
          "indexed": false,
          "internalType": "uint256",
          "name": "reward",
          "type": "uint256"
        }
      ],
      "name": "RewardPaid",
      "type": "event"
    },
    {
      "anonymous": false,
      "inputs": [
        {
          "indexed": false,
          "internalType": "uint256",
          "name": "newDuration",
          "type": "uint256"
        }
      ],
      "name": "RewardsDurationUpdated",
      "type": "event"
    },
    {
      "anonymous": false,
      "inputs": [
        {
          "indexed": true,
          "internalType": "address",
          "name": "user",
          "type": "address"
        },
        {
          "indexed": false,
          "internalType": "uint256",
          "name": "amount",
          "type": "uint256"
        }
      ],
      "name": "Staked",
      "type": "event"
    },
    {
      "anonymous": false,
      "inputs": [
        {
          "indexed": false,
          "internalType": "address",
          "name": "account",
          "type": "address"
        }
      ],
      "name": "Unpaused",
      "type": "event"
    },
    {
      "anonymous": false,
      "inputs": [
        {
          "indexed": true,
          "internalType": "address",
          "name": "user",
          "type": "address"
        },
        {
          "indexed": false,
          "internalType": "uint256",
          "name": "amount",
          "type": "uint256"
        }
      ],
      "name": "Withdrawn",
      "type": "event"
    },
    {
      "inputs": [],
      "name": "failsafeModeActive",
      "outputs": [
        {
          "internalType": "bool",
          "name": "",
          "type": "bool"
        }
      ],
      "stateMutability": "view",
      "type": "function"
    },
    {
      "inputs": [],
      "name": "lastUpdateTime",
      "outputs": [
        {
          "internalType": "uint256",
          "name": "",
          "type": "uint256"
        }
      ],
      "stateMutability": "view",
      "type": "function"
    },
    {
      "inputs": [],
      "name": "minimumStakeAmount",
      "outputs": [
        {
          "internalType": "uint256",
          "name": "",
          "type": "uint256"
        }
      ],
      "stateMutability": "view",
      "type": "function"
    },
    {
      "inputs": [],
      "name": "minimumStakeTime",
      "outputs": [
        {
          "internalType": "uint256",
          "name": "",
          "type": "uint256"
        }
      ],
      "stateMutability": "view",
      "type": "function"
    },
    {
      "inputs": [],
      "name": "owner",
      "outputs": [
        {
          "internalType": "address",
          "name": "",
          "type": "address"
        }
      ],
      "stateMutability": "view",
      "type": "function"
    },
    {
      "inputs": [],
      "name": "paused",
      "outputs": [
        {
          "internalType": "bool",
          "name": "",
          "type": "bool"
        }
      ],
      "stateMutability": "view",
      "type": "function"
    },
    {
      "inputs": [],
      "name": "periodFinish",
      "outputs": [
        {
          "internalType": "uint256",
          "name": "",
          "type": "uint256"
        }
      ],
      "stateMutability": "view",
      "type": "function"
    },
    {
      "inputs": [],
      "name": "renounceOwnership",
      "outputs": [],
      "stateMutability": "nonpayable",
      "type": "function"
    },
    {
      "inputs": [],
      "name": "rewardPerTokenStored",
      "outputs": [
        {
          "internalType": "uint256",
          "name": "",
          "type": "uint256"
        }
      ],
      "stateMutability": "view",
      "type": "function"
    },
    {
      "inputs": [],
      "name": "rewardRate",
      "outputs": [
        {
          "internalType": "uint256",
          "name": "",
          "type": "uint256"
        }
      ],
      "stateMutability": "view",
      "type": "function"
    },
    {
      "inputs": [
        {
          "internalType": "address",
          "name": "",
          "type": "address"
        }
      ],
      "name": "rewards",
      "outputs": [
        {
          "internalType": "uint256",
          "name": "",
          "type": "uint256"
        }
      ],
      "stateMutability": "view",
      "type": "function"
    },
    {
      "inputs": [],
      "name": "rewardsDistribution",
      "outputs": [
        {
          "internalType": "address",
          "name": "",
          "type": "address"
        }
      ],
      "stateMutability": "view",
      "type": "function"
    },
    {
      "inputs": [],
      "name": "rewardsDuration",
      "outputs": [
        {
          "internalType": "uint256",
          "name": "",
          "type": "uint256"
        }
      ],
      "stateMutability": "view",
      "type": "function"
    },
    {
      "inputs": [],
      "name": "rewardsToken",
      "outputs": [
        {
          "internalType": "contract IERC20",
          "name": "",
          "type": "address"
        }
      ],
      "stateMutability": "view",
      "type": "function"
    },
    {
      "inputs": [
        {
          "internalType": "address",
          "name": "_rewardsDistribution",
          "type": "address"
        }
      ],
      "name": "setRewardsDistribution",
      "outputs": [],
      "stateMutability": "nonpayable",
      "type": "function"
    },
    {
      "inputs": [],
      "name": "stakingToken",
      "outputs": [
        {
          "internalType": "contract IERC721",
          "name": "",
          "type": "address"
        }
      ],
      "stateMutability": "view",
      "type": "function"
    },
    {
      "inputs": [
        {
          "internalType": "address",
          "name": "newOwner",
          "type": "address"
        }
      ],
      "name": "transferOwnership",
      "outputs": [],
      "stateMutability": "nonpayable",
      "type": "function"
    },
    {
      "inputs": [
        {
          "internalType": "address",
          "name": "",
          "type": "address"
        }
      ],
      "name": "userRewardPerTokenPaid",
      "outputs": [
        {
          "internalType": "uint256",
          "name": "",
          "type": "uint256"
        }
      ],
      "stateMutability": "view",
      "type": "function"
    },
    {
      "inputs": [
        {
          "internalType": "address",
          "name": "_owner",
          "type": "address"
        },
        {
          "internalType": "address",
          "name": "_rewardsDistribution",
          "type": "address"
        },
        {
          "internalType": "address",
          "name": "_rewardsToken",
          "type": "address"
        },
        {
          "internalType": "address",
          "name": "_stakingToken",
          "type": "address"
        },
        {
          "internalType": "uint256",
          "name": "_minimumStakeTime",
          "type": "uint256"
        }
      ],
      "name": "initialize",
      "outputs": [],
      "stateMutability": "nonpayable",
      "type": "function"
    },
    {
      "inputs": [],
      "name": "totalSupply",
      "outputs": [
        {
          "internalType": "uint256",
          "name": "",
          "type": "uint256"
        }
      ],
      "stateMutability": "view",
      "type": "function"
    },
    {
      "inputs": [
        {
          "internalType": "address",
          "name": "account",
          "type": "address"
        }
      ],
      "name": "stakedIdsOf",
      "outputs": [
        {
          "internalType": "uint256[]",
          "name": "stakedIds",
          "type": "uint256[]"
        }
      ],
      "stateMutability": "view",
      "type": "function"
    },
    {
      "inputs": [],
      "name": "lastTimeRewardApplicable",
      "outputs": [
        {
          "internalType": "uint256",
          "name": "",
          "type": "uint256"
        }
      ],
      "stateMutability": "view",
      "type": "function"
    },
    {
      "inputs": [],
      "name": "rewardPerToken",
      "outputs": [
        {
          "internalType": "uint256",
          "name": "",
          "type": "uint256"
        }
      ],
      "stateMutability": "view",
      "type": "function"
    },
    {
      "inputs": [
        {
          "internalType": "address",
          "name": "account",
          "type": "address"
        }
      ],
      "name": "earned",
      "outputs": [
        {
          "internalType": "uint256",
          "name": "",
          "type": "uint256"
        }
      ],
      "stateMutability": "view",
      "type": "function"
    },
    {
      "inputs": [],
      "name": "getRewardForDuration",
      "outputs": [
        {
          "internalType": "uint256",
          "name": "",
          "type": "uint256"
        }
      ],
      "stateMutability": "view",
      "type": "function"
    },
    {
      "inputs": [],
      "name": "getStakeRewardDistributionTimeLeft",
      "outputs": [
        {
          "internalType": "uint256",
          "name": "",
          "type": "uint256"
        }
      ],
      "stateMutability": "view",
      "type": "function"
    },
    {
      "inputs": [],
      "name": "getStakeUnlockTimeLeft",
      "outputs": [
        {
          "internalType": "uint256",
          "name": "",
          "type": "uint256"
        }
      ],
      "stateMutability": "view",
      "type": "function"
    },
    {
      "inputs": [
        {
          "internalType": "address",
          "name": "account",
          "type": "address"
        }
      ],
      "name": "balanceOf",
      "outputs": [
        {
          "internalType": "uint256",
          "name": "",
          "type": "uint256"
        }
      ],
      "stateMutability": "view",
      "type": "function"
    },
    {
      "inputs": [
        {
          "internalType": "uint256",
          "name": "id",
          "type": "uint256"
        }
      ],
      "name": "stake",
      "outputs": [],
      "stateMutability": "nonpayable",
      "type": "function"
    },
    {
      "inputs": [
        {
          "internalType": "uint256[]",
          "name": "ids",
          "type": "uint256[]"
        }
      ],
      "name": "bulkStake",
      "outputs": [],
      "stateMutability": "nonpayable",
      "type": "function"
    },
    {
      "inputs": [
        {
          "internalType": "uint256",
          "name": "id",
          "type": "uint256"
        }
      ],
      "name": "withdraw",
      "outputs": [],
      "stateMutability": "nonpayable",
      "type": "function"
    },
    {
      "inputs": [
        {
          "internalType": "uint256[]",
          "name": "ids",
          "type": "uint256[]"
        }
      ],
      "name": "bulkWithdraw",
      "outputs": [],
      "stateMutability": "nonpayable",
      "type": "function"
    },
    {
      "inputs": [],
      "name": "getReward",
      "outputs": [],
      "stateMutability": "nonpayable",
      "type": "function"
    },
    {
      "inputs": [],
      "name": "exit",
      "outputs": [],
      "stateMutability": "nonpayable",
      "type": "function"
    },
    {
      "inputs": [],
      "name": "recoverOwnStake",
      "outputs": [],
      "stateMutability": "nonpayable",
      "type": "function"
    },
    {
      "inputs": [
        {
          "internalType": "uint256",
          "name": "reward",
          "type": "uint256"
        }
      ],
      "name": "notifyRewardAmount",
      "outputs": [],
      "stateMutability": "nonpayable",
      "type": "function"
    },
    {
      "inputs": [
        {
          "internalType": "uint256",
          "name": "timestamp",
          "type": "uint256"
        }
      ],
      "name": "updatePeriodFinish",
      "outputs": [],
      "stateMutability": "nonpayable",
      "type": "function"
    },
    {
      "inputs": [
        {
          "internalType": "address",
          "name": "tokenAddress",
          "type": "address"
        },
        {
          "internalType": "uint256",
          "name": "tokenAmount",
          "type": "uint256"
        }
      ],
      "name": "recoverERC20",
      "outputs": [],
      "stateMutability": "nonpayable",
      "type": "function"
    },
    {
      "inputs": [
        {
          "internalType": "uint256",
          "name": "_rewardsDuration",
          "type": "uint256"
        }
      ],
      "name": "setRewardsDuration",
      "outputs": [],
      "stateMutability": "nonpayable",
      "type": "function"
    },
    {
      "inputs": [
        {
          "internalType": "uint256",
          "name": "_minimumStakeAmount",
          "type": "uint256"
        }
      ],
      "name": "setMinimumStakeAmount",
      "outputs": [],
      "stateMutability": "nonpayable",
      "type": "function"
    },
    {
      "inputs": [
        {
          "internalType": "uint256",
          "name": "_minimumStakeTime",
          "type": "uint256"
        }
      ],
      "name": "setMinimumStakeTime",
      "outputs": [],
      "stateMutability": "nonpayable",
      "type": "function"
    },
    {
      "inputs": [],
      "name": "enableFailsafeMode",
      "outputs": [],
      "stateMutability": "nonpayable",
      "type": "function"
    },
    {
      "inputs": [],
      "name": "pause",
      "outputs": [],
      "stateMutability": "nonpayable",
      "type": "function"
    },
    {
      "inputs": [],
      "name": "unpause",
      "outputs": [],
      "stateMutability": "nonpayable",
      "type": "function"
    },
    {
      "inputs": [
        {
          "internalType": "address",
          "name": "",
          "type": "address"
        },
        {
          "internalType": "address",
          "name": "",
          "type": "address"
        },
        {
          "internalType": "uint256",
          "name": "_id",
          "type": "uint256"
        },
        {
          "internalType": "bytes",
          "name": "",
          "type": "bytes"
        }
      ],
      "name": "onERC721Received",
      "outputs": [
        {
          "internalType": "bytes4",
          "name": "",
          "type": "bytes4"
        }
      ],
      "stateMutability": "nonpayable",
      "type": "function"
    }
  ],
  "bytecode": "0x608060405234801561001057600080fd5b50613a48806100206000396000f3fe608060405234801561001057600080fd5b506004361061027e5760003560e01c8063715018a61161015c578063cc1a378f116100ce578063e9fad8ee11610087578063e9fad8ee146106c7578063ebe2b12b146106cf578063ef056e5a146106d7578063f2fde38b1461077a578063f603944c146107a0578063f7013ef6146107a85761027e565b8063cc1a378f1461066d578063cd3daf9d1461068a578063d1af0c7d14610692578063df136d651461069a578063e2adc237146106a2578063e9422046146106aa5761027e565b80638980f11f116101205780638980f11f1461057e5780638b876347146105aa5780638da5cb5b146105d0578063a694fc3a146105d8578063a6a21a5d146105f5578063c8f33c91146106655761027e565b8063715018a61461055657806372f702f31461055e5780637b0a47ee1461056657806380faa57d1461056e5780638456cb59146105765761027e565b80632f3d3b14116101f55780633fc6df6e116101b95780633fc6df6e14610469578063556f6e6b1461048d5780635c975abb146104aa5780636a70530a146104b25780636b036f451461052857806370a08231146105305761027e565b80632f3d3b141461042c578063386a9525146104345780633c6b16ab1461043c5780633d18b912146104595780633f4ba83a146104615761027e565b806318160ddd1161024757806318160ddd146103c957806319762143146103d15780631c1f78eb146103f7578063242df9e1146103ff57806327ab1969146104075780632e1a7d4d1461040f5761027e565b80628cc262146102835780630700037d146102bb5780630d29fcd4146102e15780631265cc9714610300578063150b7a021461031c575b600080fd5b6102a96004803603602081101561029957600080fd5b50356001600160a01b03166107ee565b60408051918252519081900360200190f35b6102a9600480360360208110156102d157600080fd5b50356001600160a01b0316610872565b6102fe600480360360208110156102f757600080fd5b5035610884565b005b610308610963565b604080519115158252519081900360200190f35b6103ac6004803603608081101561033257600080fd5b6001600160a01b0382358116926020810135909116916040820135919081019060808101606082013564010000000081111561036d57600080fd5b82018360208201111561037f57600080fd5b803590602001918460018302840111640100000000831117156103a157600080fd5b50909250905061096c565b604080516001600160e01b03199092168252519081900360200190f35b6102a96109fb565b6102fe600480360360208110156103e757600080fd5b50356001600160a01b0316610a02565b6102a9610a86565b6102a9610aa4565b6102a9610aaa565b6102fe6004803603602081101561042557600080fd5b5035610add565b6102fe610dc8565b6102a9610f19565b6102fe6004803603602081101561045257600080fd5b5035610f1f565b6102fe6111c9565b6102fe6113a7565b610471611463565b604080516001600160a01b039092168252519081900360200190f35b6102fe600480360360208110156104a357600080fd5b5035611472565b6103086115c3565b6104d8600480360360208110156104c857600080fd5b50356001600160a01b03166115d1565b60408051602080825283518183015283519192839290830191858101910280838360005b838110156105145781810151838201526020016104fc565b505050509050019250505060405180910390f35b6102a96116a3565b6102a96004803603602081101561054657600080fd5b50356001600160a01b03166116a9565b6102fe6116ca565b610471611776565b6102a9611785565b6102a961178b565b6102fe611799565b6102fe6004803603604081101561059457600080fd5b506001600160a01b038135169060200135611850565b6102a9600480360360208110156105c057600080fd5b50356001600160a01b0316611969565b61047161197b565b6102fe600480360360208110156105ee57600080fd5b503561198a565b6102fe6004803603602081101561060b57600080fd5b81019060208101813564010000000081111561062657600080fd5b82018360208201111561063857600080fd5b8035906020019184602083028401116401000000008311171561065a57600080fd5b509092509050611bf6565b6102a9611fdd565b6102fe6004803603602081101561068357600080fd5b5035611fe3565b6102a9612102565b610471612144565b6102a9612153565b6102fe612159565b6102fe600480360360208110156106c057600080fd5b503561221e565b6102fe6122fd565b6102a96124f0565b6102fe600480360360208110156106ed57600080fd5b81019060208101813564010000000081111561070857600080fd5b82018360208201111561071a57600080fd5b8035906020019184602083028401116401000000008311171561073c57600080fd5b9190808060200260200160405190810160405280939291908181526020018383602002808284376000920191909152509295506124f6945050505050565b6102fe6004803603602081101561079057600080fd5b50356001600160a01b0316612809565b6102a961290c565b6102fe600480360360a08110156107be57600080fd5b506001600160a01b0381358116916020810135821691604082013581169160608101359091169060800135612947565b6001600160a01b038116600090815260d4602090815260408083205460d390925282205461086c91906108609061083390610827612102565b9063ffffffff612a7a16565b6001600160a01b038616600090815260d66020526040902061085490612ad7565b9063ffffffff612ae216565b9063ffffffff612b4216565b92915050565b60d46020526000908152604090205481565b60985460ff16156108c65760405162461bcd60e51b81526004018080602001828103825260468152602001806137c36046913960600191505060405180910390fd5b6108ce612b9c565b6001600160a01b03166108df61197b565b6001600160a01b031614610928576040805162461bcd60e51b815260206004820181905260248201526000805160206138ec833981519152604482015290519081900360640190fd5b60cf8190556040805182815290517ff7fc4cb95c43f64f7a376fd9ef5947d85e6aff2df3e9b1715789ffff63d716329181900360200190a150565b60985460ff1681565b60cb5460009033906001600160a01b0316811480156109a15750600085815260d760205260409020546001600160a01b031615155b6109e8576040805162461bcd60e51b8152602060048201526013602482015272151bdad95b881251081b9bdd081b1a5cdd1959606a1b604482015290519081900360640190fd5b50630a85bd0160e11b9695505050505050565b60d5545b90565b610a0a612b9c565b6001600160a01b0316610a1b61197b565b6001600160a01b031614610a64576040805162461bcd60e51b815260206004820181905260248201526000805160206138ec833981519152604482015290519081900360640190fd5b606580546001600160a01b0319166001600160a01b0392909216919091179055565b6000610a9f60ce5460cd54612ae290919063ffffffff16565b905090565b60d05481565b6000806000610ac44260cc54612ba090919063ffffffff16565b9150915081610ad4576000610ad6565b805b9250505090565b60985460ff1615610b1f5760405162461bcd60e51b81526004018080602001828103825260468152602001806137c36046913960600191505060405180910390fd5b60026066541415610b65576040805162461bcd60e51b815260206004820152601f60248201526000805160206137a3833981519152604482015290519081900360640190fd5b6002606655600081815260d7602052604090205481906001600160a01b03163314610bc7576040805162461bcd60e51b815260206004820152600d60248201526c1058d8d95cdcc819195b9a5959609a1b604482015290519081900360640190fd5b609854339060ff16610c2d57610bdb612102565b60d255610be661178b565b60d1556001600160a01b03811615610c2d57610c01816107ee565b6001600160a01b038216600090815260d4602090815260408083209390935560d25460d3909152919020555b60d0541580610c5e575060d05433600090815260d86020526040902054610c5b90429063ffffffff612a7a16565b10155b610c995760405162461bcd60e51b815260040180806020018281038252603581526020018061390c6035913960400191505060405180910390fd5b60d554610cad90600163ffffffff612a7a16565b60d55533600090815260d660205260409020610ccf908463ffffffff612bc616565b50600083815260d76020908152604080832080546001600160a01b031916905533835260d69091529020610d0290612ad7565b610d175733600090815260d860205260408120555b60cb5460408051632142170760e11b81523060048201523360248201526044810186905290516001600160a01b03909216916342842e0e9160648082019260009290919082900301818387803b158015610d7057600080fd5b505af1158015610d84573d6000803e3d6000fd5b50506040805186815290513393507f7084f5476618d8e60b11ef0d7d3f06914655adb8793e28ff7f018d4c76d505d592509081900360200190a25050600160665550565b60985460ff16610e095760405162461bcd60e51b81526004018080602001828103825260488152602001806138096048913960600191505060405180910390fd5b33600090815260d660205260408120610e2190612ad7565b60d554909150610e37908263ffffffff612a7a16565b60d55533600090815260d660205260408120905b610e5482612ad7565b811015610f14576000610e6d838363ffffffff612bd216565b9050610e7f838263ffffffff612bc616565b50600081815260d7602052604080822080546001600160a01b031916905560cb548151632142170760e11b81523060048201523360248201526044810185905291516001600160a01b03909116926342842e0e926064808201939182900301818387803b158015610eef57600080fd5b505af1158015610f03573d6000803e3d6000fd5b505060019093019250610e4b915050565b505050565b60ce5481565b60985460ff1615610f615760405162461bcd60e51b81526004018080602001828103825260468152602001806137c36046913960600191505060405180910390fd5b6065546001600160a01b03163314610faa5760405162461bcd60e51b815260040180806020018281038252602a815260200180613967602a913960400191505060405180910390fd5b60985460009060ff1661101157610fbf612102565b60d255610fca61178b565b60d1556001600160a01b0381161561101157610fe5816107ee565b6001600160a01b038216600090815260d4602090815260408083209390935560d25460d3909152919020555b60cc5442106110365760ce5461102e90839063ffffffff612bde16565b60cd55611091565b60cc5460009061104c904263ffffffff612a7a16565b9050600061106560cd5483612ae290919063ffffffff16565b60ce5490915061108b9061107f868463ffffffff612b4216565b9063ffffffff612bde16565b60cd5550505b60ca54604080516370a0823160e01b815230600482015290516000926001600160a01b0316916370a08231916024808301926020929190829003018186803b1580156110dc57600080fd5b505afa1580156110f0573d6000803e3d6000fd5b505050506040513d602081101561110657600080fd5b505160ce5490915061111f90829063ffffffff612bde16565b60cd541115611175576040805162461bcd60e51b815260206004820152601860248201527f50726f76696465642072657761726420746f6f20686967680000000000000000604482015290519081900360640190fd5b4260d181905560ce5461118e919063ffffffff612b4216565b60cc556040805184815290517fde88a922e0d3b88b24e9623efeb464919c6bf9f66857a65e2bfcf2ce87a9433d9181900360200190a1505050565b60985460ff161561120b5760405162461bcd60e51b81526004018080602001828103825260468152602001806137c36046913960600191505060405180910390fd5b60026066541415611251576040805162461bcd60e51b815260206004820152601f60248201526000805160206137a3833981519152604482015290519081900360640190fd5b6002606655609854339060ff166112bc5761126a612102565b60d25561127561178b565b60d1556001600160a01b038116156112bc57611290816107ee565b6001600160a01b038216600090815260d4602090815260408083209390935560d25460d3909152919020555b60d05415806112ed575060d05433600090815260d860205260409020546112ea90429063ffffffff612a7a16565b10155b6113285760405162461bcd60e51b81526004018080602001828103825260378152602001806139bb6037913960400191505060405180910390fd5b33600090815260d46020526040902054801561139e5733600081815260d4602052604081205560ca54611367916001600160a01b039091169083612c45565b60408051828152905133917fe2403640ba68fed3a2f88b7557551d1993f84b99bb10ff833f0cf8db0c5e0486919081900360200190a25b50506001606655565b6113af612b9c565b6001600160a01b03166113c061197b565b6001600160a01b031614611409576040805162461bcd60e51b815260206004820181905260248201526000805160206138ec833981519152604482015290519081900360640190fd5b6114116115c3565b611459576040805162461bcd60e51b815260206004820152601460248201527314185d5cd8589b194e881b9bdd081c185d5cd95960621b604482015290519081900360640190fd5b611461612c97565b565b6065546001600160a01b031681565b60985460ff16156114b45760405162461bcd60e51b81526004018080602001828103825260468152602001806137c36046913960600191505060405180910390fd5b6114bc612b9c565b6001600160a01b03166114cd61197b565b6001600160a01b031614611516576040805162461bcd60e51b815260206004820181905260248201526000805160206138ec833981519152604482015290519081900360640190fd5b60985460009060ff1661157d5761152b612102565b60d25561153661178b565b60d1556001600160a01b0381161561157d57611551816107ee565b6001600160a01b038216600090815260d4602090815260408083209390935560d25460d3909152919020555b60d15482116115bd5760405162461bcd60e51b81526004018080602001828103825260268152602001806139416026913960400191505060405180910390fd5b5060cc55565b609854610100900460ff1690565b6001600160a01b038116600090815260d660205260408120606091906115f690612ad7565b90508067ffffffffffffffff8111801561160f57600080fd5b50604051908082528060200260200182016040528015611639578160200160208202803683370190505b506001600160a01b038416600090815260d6602052604081209193505b61165f82612ad7565b81101561169b576000611678838363ffffffff612bd216565b90508085838151811061168757fe5b602090810291909101015250600101611656565b505050919050565b60cf5481565b6001600160a01b038116600090815260d66020526040812061086c90612ad7565b6116d2612b9c565b6001600160a01b03166116e361197b565b6001600160a01b03161461172c576040805162461bcd60e51b815260206004820181905260248201526000805160206138ec833981519152604482015290519081900360640190fd5b6033546040516000916001600160a01b0316907f8be0079c531659141344cd1fd0a4f28419497f9722a3daafe3b4186f6b6457e0908390a3603380546001600160a01b0319169055565b60cb546001600160a01b031681565b60cd5481565b6000610a9f4260cc54612d38565b6117a1612b9c565b6001600160a01b03166117b261197b565b6001600160a01b0316146117fb576040805162461bcd60e51b815260206004820181905260248201526000805160206138ec833981519152604482015290519081900360640190fd5b6118036115c3565b15611848576040805162461bcd60e51b815260206004820152601060248201526f14185d5cd8589b194e881c185d5cd95960821b604482015290519081900360640190fd5b611461612d4e565b611858612b9c565b6001600160a01b031661186961197b565b6001600160a01b0316146118b2576040805162461bcd60e51b815260206004820181905260248201526000805160206138ec833981519152604482015290519081900360640190fd5b60cb546001600160a01b03838116911614156118ff5760405162461bcd60e51b81526004018080602001828103825260218152602001806139f26021913960400191505060405180910390fd5b61192161190a61197b565b6001600160a01b038416908363ffffffff612c4516565b604080516001600160a01b03841681526020810183905281517f8c1256b8896378cd5044f80c202f9772b9d77dc85c8a6eb51967210b09bfaa28929181900390910190a15050565b60d36020526000908152604090205481565b6033546001600160a01b031690565b60985460ff16156119cc5760405162461bcd60e51b81526004018080602001828103825260468152602001806137c36046913960600191505060405180910390fd5b60026066541415611a12576040805162461bcd60e51b815260206004820152601f60248201526000805160206137a3833981519152604482015290519081900360640190fd5b6002606655611a1f6115c3565b15611a64576040805162461bcd60e51b815260206004820152601060248201526f14185d5cd8589b194e881c185d5cd95960821b604482015290519081900360640190fd5b609854339060ff16611aca57611a78612102565b60d255611a8361178b565b60d1556001600160a01b03811615611aca57611a9e816107ee565b6001600160a01b038216600090815260d4602090815260408083209390935560d25460d3909152919020555b60d554611ade90600163ffffffff612b4216565b60d55533600090815260d660205260409020611b00908363ffffffff612dd316565b50600082815260d76020908152604080832080546001600160a01b03191633908117909155835260d8909152902054611b465733600090815260d8602052604090204290555b60cb5460408051632142170760e11b81523360048201523060248201526044810185905290516001600160a01b03909216916342842e0e9160648082019260009290919082900301818387803b158015611b9f57600080fd5b505af1158015611bb3573d6000803e3d6000fd5b50506040805185815290513393507f9e71bc8eea02a63969f509818f2dafb9254532904319f9dbda79b67bd34a5f3d92509081900360200190a250506001606655565b60985460ff1615611c385760405162461bcd60e51b81526004018080602001828103825260468152602001806137c36046913960600191505060405180910390fd5b60026066541415611c7e576040805162461bcd60e51b815260206004820152601f60248201526000805160206137a3833981519152604482015290519081900360640190fd5b6002606655604080516020808402828101820190935283825290918491849182918501908490808284376000920182905250925050505b8151811015611d4657336001600160a01b031660d76000848481518110611cd857fe5b6020908102919091018101518252810191909152604001600020546001600160a01b031614611d3e576040805162461bcd60e51b815260206004820152600d60248201526c1058d8d95cdcc819195b9a5959609a1b604482015290519081900360640190fd5b600101611cb5565b50609854339060ff16611dad57611d5b612102565b60d255611d6661178b565b60d1556001600160a01b03811615611dad57611d81816107ee565b6001600160a01b038216600090815260d4602090815260408083209390935560d25460d3909152919020555b60d0541580611dde575060d05433600090815260d86020526040902054611ddb90429063ffffffff612a7a16565b10155b611e195760405162461bcd60e51b815260040180806020018281038252603581526020018061390c6035913960400191505060405180910390fd5b60d554611e2c908463ffffffff612a7a16565b5060005b83811015611fa457611e6b858583818110611e4757fe5b33600090815260d6602090815260409091209391020135905063ffffffff612bc616565b5060d76000868684818110611e7c57fe5b6020908102929092013583525081019190915260400160002080546001600160a01b031916905560cb546001600160a01b03166342842e0e3033888886818110611ec257fe5b905060200201356040518463ffffffff1660e01b815260040180846001600160a01b03166001600160a01b03168152602001836001600160a01b03166001600160a01b031681526020018281526020019350505050600060405180830381600087803b158015611f3157600080fd5b505af1158015611f45573d6000803e3d6000fd5b50505050336001600160a01b03167f7084f5476618d8e60b11ef0d7d3f06914655adb8793e28ff7f018d4c76d505d5868684818110611f8057fe5b905060200201356040518082815260200191505060405180910390a2600101611e30565b5033600090815260d660205260409020611fbd90612ad7565b611fd25733600090815260d860205260408120555b505060016066555050565b60d15481565b60985460ff16156120255760405162461bcd60e51b81526004018080602001828103825260468152602001806137c36046913960600191505060405180910390fd5b61202d612b9c565b6001600160a01b031661203e61197b565b6001600160a01b031614612087576040805162461bcd60e51b815260206004820181905260248201526000805160206138ec833981519152604482015290519081900360640190fd5b60cc5442116120c75760405162461bcd60e51b815260040180806020018281038252605881526020018061374b6058913960600191505060405180910390fd5b60ce8190556040805182815290517ffb46ca5a5e06d4540d6387b930a7c978bce0db5f449ec6b3f5d07c6e1d44f2d39181900360200190a150565b600060d55460001415612118575060d2546109ff565b610a9f61213560d55461107f60cd5461085460d15461082761178b565b60d2549063ffffffff612b4216565b60ca546001600160a01b031681565b60d25481565b60985460ff161561219b5760405162461bcd60e51b81526004018080602001828103825260468152602001806137c36046913960600191505060405180910390fd5b6121a3612b9c565b6001600160a01b03166121b461197b565b6001600160a01b0316146121fd576040805162461bcd60e51b815260206004820181905260248201526000805160206138ec833981519152604482015290519081900360640190fd5b600060cf81905560d081905560cc81905560cd81905560d255611461612ddf565b60985460ff16156122605760405162461bcd60e51b81526004018080602001828103825260468152602001806137c36046913960600191505060405180910390fd5b612268612b9c565b6001600160a01b031661227961197b565b6001600160a01b0316146122c2576040805162461bcd60e51b815260206004820181905260248201526000805160206138ec833981519152604482015290519081900360640190fd5b60d08190556040805182815290517f2b0fa66d155c9598699cb6569577f27b95729bbf580268eed39db6bc4e8144779181900360200190a150565b60985460ff161561233f5760405162461bcd60e51b81526004018080602001828103825260468152602001806137c36046913960600191505060405180910390fd5b60d0541580612370575060d05433600090815260d8602052604090205461236d90429063ffffffff612a7a16565b10155b6123ab5760405162461bcd60e51b815260040180806020018281038252603581526020018061390c6035913960400191505060405180910390fd5b33600090815260d6602052604081206123c390612ad7565b60d5549091506123d9908263ffffffff612a7a16565b60d55533600090815260d660205260408120905b6123f682612ad7565b8110156124b657600061240f838363ffffffff612bd216565b9050612421838263ffffffff612bc616565b50600081815260d7602052604080822080546001600160a01b031916905560cb548151632142170760e11b81523060048201523360248201526044810185905291516001600160a01b03909116926342842e0e926064808201939182900301818387803b15801561249157600080fd5b505af11580156124a5573d6000803e3d6000fd5b5050600190930192506123ed915050565b5033600090815260d6602052604090206124cf90612ad7565b6124e45733600090815260d860205260408120555b6124ec6111c9565b5050565b60cc5481565b60985460ff16156125385760405162461bcd60e51b81526004018080602001828103825260468152602001806137c36046913960600191505060405180910390fd5b6002606654141561257e576040805162461bcd60e51b815260206004820152601f60248201526000805160206137a3833981519152604482015290519081900360640190fd5b600260665561258b6115c3565b156125d0576040805162461bcd60e51b815260206004820152601060248201526f14185d5cd8589b194e881c185d5cd95960821b604482015290519081900360640190fd5b609854339060ff16612636576125e4612102565b60d2556125ef61178b565b60d1556001600160a01b038116156126365761260a816107ee565b6001600160a01b038216600090815260d4602090815260408083209390935560d25460d3909152919020555b815160d55461264a9163ffffffff612b4216565b60d55533600090815260d860205260409020546126745733600090815260d8602052604090204290555b60005b82518110156127ff576126b783828151811061268f57fe5b60209081029190910181015133600090815260d690925260409091209063ffffffff612dd316565b503360d760008584815181106126c957fe5b602090810291909101810151825281019190915260400160002080546001600160a01b0319166001600160a01b0392831617905560cb5484519116906342842e0e903390309087908690811061271b57fe5b60200260200101516040518463ffffffff1660e01b815260040180846001600160a01b03166001600160a01b03168152602001836001600160a01b03166001600160a01b031681526020018281526020019350505050600060405180830381600087803b15801561278b57600080fd5b505af115801561279f573d6000803e3d6000fd5b50505050336001600160a01b03167f9e71bc8eea02a63969f509818f2dafb9254532904319f9dbda79b67bd34a5f3d8483815181106127da57fe5b60200260200101516040518082815260200191505060405180910390a2600101612677565b5050600160665550565b612811612b9c565b6001600160a01b031661282261197b565b6001600160a01b03161461286b576040805162461bcd60e51b815260206004820181905260248201526000805160206138ec833981519152604482015290519081900360640190fd5b6001600160a01b0381166128b05760405162461bcd60e51b81526004018080602001828103825260268152602001806138516026913960400191505060405180910390fd5b6033546040516001600160a01b038084169216907f8be0079c531659141344cd1fd0a4f28419497f9722a3daafe3b4186f6b6457e090600090a3603380546001600160a01b0319166001600160a01b0392909216919091179055565b60d05433600090815260d86020526040812054909182918291610ac491429161293b919063ffffffff612b4216565b9063ffffffff612ba016565b600054610100900460ff16806129605750612960612e79565b8061296e575060005460ff16155b6129a95760405162461bcd60e51b815260040180806020018281038252602e81526020018061389d602e913960400191505060405180910390fd5b600054610100900460ff161580156129d4576000805460ff1961ff0019909116610100171660011790555b6129dc612e8a565b6129e4612f34565b6129ec61302d565b6129f46130d9565b6129fc613184565b612a0461322a565b612a0d86612809565b60ca80546001600160a01b038087166001600160a01b03199283161790925560cb8054868416908316179055606580549288169290911691909117905560d0829055600060cc81905560cd5562ed4e0060ce558015612a72576000805461ff00191690555b505050505050565b600082821115612ad1576040805162461bcd60e51b815260206004820152601e60248201527f536166654d6174683a207375627472616374696f6e206f766572666c6f770000604482015290519081900360640190fd5b50900390565b600061086c826132ca565b600082612af15750600061086c565b82820282848281612afe57fe5b0414612b3b5760405162461bcd60e51b81526004018080602001828103825260218152602001806138cb6021913960400191505060405180910390fd5b9392505050565b600082820183811015612b3b576040805162461bcd60e51b815260206004820152601b60248201527f536166654d6174683a206164646974696f6e206f766572666c6f770000000000604482015290519081900360640190fd5b3390565b60008083831115612bb657506000905080612bbf565b50600190508183035b9250929050565b6000612b3b83836132ce565b6000612b3b8383613394565b6000808211612c34576040805162461bcd60e51b815260206004820152601a60248201527f536166654d6174683a206469766973696f6e206279207a65726f000000000000604482015290519081900360640190fd5b818381612c3d57fe5b049392505050565b604080516001600160a01b038416602482015260448082018490528251808303909101815260649091019091526020810180516001600160e01b031663a9059cbb60e01b179052610f149084906133f8565b612c9f6115c3565b612ce7576040805162461bcd60e51b815260206004820152601460248201527314185d5cd8589b194e881b9bdd081c185d5cd95960621b604482015290519081900360640190fd5b6098805461ff00191690557f5db9ee0a495bf2e6ff9c91a7834c1ba4fdd244a5e8aa4e537bd38aeae4b073aa612d1b612b9c565b604080516001600160a01b039092168252519081900360200190a1565b6000818310612d475781612b3b565b5090919050565b612d566115c3565b15612d9b576040805162461bcd60e51b815260206004820152601060248201526f14185d5cd8589b194e881c185d5cd95960821b604482015290519081900360640190fd5b6098805461ff0019166101001790557f62e78cea01bee320cd4e420270b5ea74000d11b0c9f74754ebdbfc544b05a258612d1b612b9c565b6000612b3b83836134a9565b612de7612b9c565b6001600160a01b0316612df861197b565b6001600160a01b031614612e41576040805162461bcd60e51b815260206004820181905260248201526000805160206138ec833981519152604482015290519081900360640190fd5b6098805460ff191660011790556040517fe68101b30364d616deefc8cd307b7e27ccbd9c73f138bd478179497563d97a1190600090a1565b6000612e84306134f3565b15905090565b600054610100900460ff1680612ea35750612ea3612e79565b80612eb1575060005460ff16155b612eec5760405162461bcd60e51b815260040180806020018281038252602e81526020018061389d602e913960400191505060405180910390fd5b600054610100900460ff16158015612f17576000805460ff1961ff0019909116610100171660011790555b612f1f61322a565b8015612f31576000805461ff00191690555b50565b600054610100900460ff1680612f4d5750612f4d612e79565b80612f5b575060005460ff16155b612f965760405162461bcd60e51b815260040180806020018281038252602e81526020018061389d602e913960400191505060405180910390fd5b600054610100900460ff16158015612fc1576000805460ff1961ff0019909116610100171660011790555b6000612fcb612b9c565b603380546001600160a01b0319166001600160a01b038316908117909155604051919250906000907f8be0079c531659141344cd1fd0a4f28419497f9722a3daafe3b4186f6b6457e0908290a3508015612f31576000805461ff001916905550565b600054610100900460ff16806130465750613046612e79565b80613054575060005460ff16155b61308f5760405162461bcd60e51b815260040180806020018281038252602e81526020018061389d602e913960400191505060405180910390fd5b600054610100900460ff161580156130ba576000805460ff1961ff0019909116610100171660011790555b6098805461ff00191690558015612f31576000805461ff001916905550565b600054610100900460ff16806130f257506130f2612e79565b80613100575060005460ff16155b61313b5760405162461bcd60e51b815260040180806020018281038252602e81526020018061389d602e913960400191505060405180910390fd5b600054610100900460ff16158015613166576000805460ff1961ff0019909116610100171660011790555b6098805460ff191690558015612f31576000805461ff001916905550565b600054610100900460ff168061319d575061319d612e79565b806131ab575060005460ff16155b6131e65760405162461bcd60e51b815260040180806020018281038252602e81526020018061389d602e913960400191505060405180910390fd5b600054610100900460ff16158015613211576000805460ff1961ff0019909116610100171660011790555b60016066558015612f31576000805461ff001916905550565b600054610100900460ff16806132435750613243612e79565b80613251575060005460ff16155b61328c5760405162461bcd60e51b815260040180806020018281038252602e81526020018061389d602e913960400191505060405180910390fd5b600054610100900460ff16158015612f1f576000805460ff1961ff0019909116610100171660011790558015612f31576000805461ff001916905550565b5490565b6000818152600183016020526040812054801561338a578354600019808301919081019060009087908390811061330157fe5b906000526020600020015490508087600001848154811061331e57fe5b60009182526020808320909101929092558281526001898101909252604090209084019055865487908061334e57fe5b6001900381819060005260206000200160009055905586600101600087815260200190815260200160002060009055600194505050505061086c565b600091505061086c565b815460009082106133d65760405162461bcd60e51b81526004018080602001828103825260228152602001806137296022913960400191505060405180910390fd5b8260000182815481106133e557fe5b9060005260206000200154905092915050565b606061344d826040518060400160405280602081526020017f5361666545524332303a206c6f772d6c6576656c2063616c6c206661696c6564815250856001600160a01b03166134f99092919063ffffffff16565b805190915015610f145780806020019051602081101561346c57600080fd5b5051610f145760405162461bcd60e51b815260040180806020018281038252602a815260200180613991602a913960400191505060405180910390fd5b60006134b58383613510565b6134eb5750815460018181018455600084815260208082209093018490558454848252828601909352604090209190915561086c565b50600061086c565b3b151590565b60606135088484600085613528565b949350505050565b60009081526001919091016020526040902054151590565b6060824710156135695760405162461bcd60e51b81526004018080602001828103825260268152602001806138776026913960400191505060405180910390fd5b613572856134f3565b6135c3576040805162461bcd60e51b815260206004820152601d60248201527f416464726573733a2063616c6c20746f206e6f6e2d636f6e7472616374000000604482015290519081900360640190fd5b60006060866001600160a01b031685876040518082805190602001908083835b602083106136025780518252601f1990920191602091820191016135e3565b6001836020036101000a03801982511681845116808217855250505050505090500191505060006040518083038185875af1925050503d8060008114613664576040519150601f19603f3d011682016040523d82523d6000602084013e613669565b606091505b5091509150613679828286613684565b979650505050505050565b60608315613693575081612b3b565b8251156136a35782518084602001fd5b8160405162461bcd60e51b81526004018080602001828103825283818151815260200191508051906020019080838360005b838110156136ed5781810151838201526020016136d5565b50505050905090810190601f16801561371a5780820380516001836020036101000a031916815260200191505b509250505060405180910390fdfe456e756d657261626c655365743a20696e646578206f7574206f6620626f756e647350726576696f7573207265776172647320706572696f64206d75737420626520636f6d706c657465206265666f7265206368616e67696e6720746865206475726174696f6e20666f7220746865206e657720706572696f645265656e7472616e637947756172643a207265656e7472616e742063616c6c005468697320616374696f6e2063616e6e6f7420626520706572666f726d6564207768696c652074686520636f6e747261637420697320696e204661696c73616665204d6f64655468697320616374696f6e2063616e206f6e6c7920626520706572666f726d6564207768696c652074686520636f6e747261637420697320696e204661696c73616665204d6f64654f776e61626c653a206e6577206f776e657220697320746865207a65726f2061646472657373416464726573733a20696e73756666696369656e742062616c616e636520666f722063616c6c496e697469616c697a61626c653a20636f6e747261637420697320616c726561647920696e697469616c697a6564536166654d6174683a206d756c7469706c69636174696f6e206f766572666c6f774f776e61626c653a2063616c6c6572206973206e6f7420746865206f776e657243616e6e6f7420776974686472617720756e74696c206d696e696d756d207374616b696e672074696d65206861732070617373656454696d657374616d70206d757374206265206166746572206c61737455706461746554696d6543616c6c6572206973206e6f742052657761726473446973747269627574696f6e20636f6e74726163745361666545524332303a204552433230206f7065726174696f6e20646964206e6f74207375636365656443616e6e6f74206765742072657761726420756e74696c206d696e696d756d207374616b696e672074696d65206861732070617373656443616e6e6f7420776974686472617720746865207374616b696e6720746f6b656ea2646970667358221220797adf984be958c4d81d13d360b89ee8dd19b8df17d06ba6545bfbdc6779d9dd64736f6c63430006050033",
  "immutableReferences": {},
  "source": "pragma solidity ^0.6.2;\r\n\r\nimport \"@openzeppelin/contracts-upgradeable/proxy/Initializable.sol\";\r\nimport \"@openzeppelin/contracts-upgradeable/utils/ReentrancyGuardUpgradeable.sol\";\r\nimport \"@openzeppelin/contracts-upgradeable/utils/PausableUpgradeable.sol\";\r\nimport \"@openzeppelin/contracts/math/Math.sol\";\r\nimport \"@openzeppelin/contracts/math/SafeMath.sol\";\r\nimport \"@openzeppelin/contracts/token/ERC20/SafeERC20.sol\";\r\nimport \"@openzeppelin/contracts/token/ERC721/IERC721.sol\";\r\nimport \"@openzeppelin/contracts/utils/EnumerableSet.sol\";\r\nimport \"@openzeppelin/contracts-upgradeable/token/ERC721/IERC721ReceiverUpgradeable.sol\";\r\n\r\n// Inheritance\r\nimport \"./interfaces/INftStakingRewards.sol\";\r\nimport \"./RewardsDistributionRecipientUpgradeable.sol\";\r\nimport \"./FailsafeUpgradeable.sol\";\r\nimport \"../CBKLand.sol\";\r\n\r\n// https://docs.synthetix.io/contracts/source/contracts/stakingrewards\r\ncontract NftStakingRewardsUpgradeable is\r\n    INftStakingRewards,\r\n    IERC721ReceiverUpgradeable,\r\n    Initializable,\r\n    RewardsDistributionRecipientUpgradeable,\r\n    ReentrancyGuardUpgradeable,\r\n    FailsafeUpgradeable,\r\n    PausableUpgradeable\r\n{\r\n    using SafeMath for uint256;\r\n    using SafeERC20 for IERC20;\r\n    using EnumerableSet for EnumerableSet.UintSet;\r\n\r\n    /* ========== STATE VARIABLES ========== */\r\n\r\n    IERC20 public rewardsToken;\r\n    IERC721 public stakingToken;\r\n    uint256 public periodFinish;\r\n    uint256 public override rewardRate;\r\n    uint256 public override rewardsDuration;\r\n    uint256 public override minimumStakeAmount;\r\n    uint256 public override minimumStakeTime;\r\n    uint256 public lastUpdateTime;\r\n    uint256 public rewardPerTokenStored;\r\n\r\n    mapping(address => uint256) public userRewardPerTokenPaid;\r\n    mapping(address => uint256) public rewards;\r\n\r\n    uint256 private _totalSupply;\r\n    mapping(address => EnumerableSet.UintSet) private _userStakedNfts;\r\n    mapping(uint256 => address) private _stakedNftOwner;\r\n    mapping(address => uint256) private _stakeTimestamp;\r\n\r\n    /* ========== CONSTRUCTOR ========== */\r\n\r\n    function initialize(\r\n        address _owner,\r\n        address _rewardsDistribution,\r\n        address _rewardsToken,\r\n        address _stakingToken,\r\n        uint256 _minimumStakeTime\r\n    ) public virtual initializer {\r\n        __Context_init();\r\n        __Ownable_init_unchained();\r\n        __Pausable_init_unchained();\r\n        __Failsafe_init_unchained();\r\n        __ReentrancyGuard_init_unchained();\r\n        __RewardsDistributionRecipient_init_unchained();\r\n\r\n        transferOwnership(_owner);\r\n\r\n        rewardsToken = IERC20(_rewardsToken);\r\n        stakingToken = IERC721(_stakingToken);\r\n        rewardsDistribution = _rewardsDistribution;\r\n        minimumStakeTime = _minimumStakeTime;\r\n\r\n        periodFinish = 0;\r\n        rewardRate = 0;\r\n        rewardsDuration = 180 days;\r\n    }\r\n\r\n    /* ========== VIEWS ========== */\r\n\r\n    function totalSupply() external view override returns (uint256) {\r\n        return _totalSupply;\r\n    }\r\n\r\n    function stakedIdsOf(address account)\r\n        external\r\n        view\r\n        override\r\n        returns (uint256[] memory stakedIds)\r\n    {\r\n        uint256 amount = _userStakedNfts[account].length();\r\n        stakedIds = new uint256[](amount);\r\n\r\n        EnumerableSet.UintSet storage stakedNfts = _userStakedNfts[account];\r\n\r\n        for (uint256 i = 0; i < stakedNfts.length(); i++) {\r\n            uint256 id = stakedNfts.at(i);\r\n            stakedIds[i] = id;\r\n        }\r\n    }\r\n\r\n    function lastTimeRewardApplicable() public view override returns (uint256) {\r\n        return Math.min(block.timestamp, periodFinish);\r\n    }\r\n\r\n    function rewardPerToken() public view override returns (uint256) {\r\n        if (_totalSupply == 0) {\r\n            return rewardPerTokenStored;\r\n        }\r\n        return\r\n            rewardPerTokenStored.add(\r\n                lastTimeRewardApplicable()\r\n                    .sub(lastUpdateTime)\r\n                    .mul(rewardRate)\r\n                    .div(_totalSupply)\r\n            );\r\n    }\r\n\r\n    function earned(address account) public view override returns (uint256) {\r\n        return\r\n            _userStakedNfts[account].length()\r\n                .mul(rewardPerToken().sub(userRewardPerTokenPaid[account]))\r\n                .add(rewards[account]);\r\n    }\r\n\r\n    function getRewardForDuration() external view override returns (uint256) {\r\n        return rewardRate.mul(rewardsDuration);\r\n    }\r\n\r\n    function getStakeRewardDistributionTimeLeft()\r\n        external\r\n        view\r\n        override\r\n        returns (uint256)\r\n    {\r\n        (bool success, uint256 diff) = periodFinish.trySub(block.timestamp);\r\n        return success ? diff : 0;\r\n    }\r\n\r\n    function getStakeUnlockTimeLeft() external view override returns (uint256) {\r\n        (bool success, uint256 diff) = _stakeTimestamp[msg.sender]\r\n            .add(minimumStakeTime)\r\n            .trySub(block.timestamp);\r\n        return success ? diff : 0;\r\n    }\r\n\r\n    function balanceOf(address account) external view override returns (uint256) {\r\n        return _userStakedNfts[account].length();\r\n    }\r\n\r\n    /* ========== MUTATIVE FUNCTIONS ========== */\r\n\r\n    function stake(uint256 id)\r\n        public\r\n        virtual\r\n        override\r\n        normalMode\r\n        nonReentrant\r\n        whenNotPaused\r\n        updateReward(msg.sender)\r\n    {\r\n        _totalSupply = _totalSupply.add(1);\r\n        _userStakedNfts[msg.sender].add(id);\r\n        _stakedNftOwner[id] = msg.sender;\r\n        if (_stakeTimestamp[msg.sender] == 0) {\r\n            _stakeTimestamp[msg.sender] = block.timestamp;\r\n        }\r\n        stakingToken.safeTransferFrom(msg.sender, address(this), id);\r\n        emit Staked(msg.sender, id);\r\n    }\r\n\r\n    function bulkStake(uint256[] memory ids)\r\n        public\r\n        virtual\r\n        override\r\n        normalMode\r\n        nonReentrant\r\n        whenNotPaused\r\n        updateReward(msg.sender)\r\n    {\r\n        _totalSupply = _totalSupply.add(ids.length);\r\n        if (_stakeTimestamp[msg.sender] == 0) {\r\n            _stakeTimestamp[msg.sender] = block.timestamp;\r\n        }\r\n        for(uint i = 0; i < ids.length; i++) {\r\n            _userStakedNfts[msg.sender].add(ids[i]);\r\n            _stakedNftOwner[ids[i]] = msg.sender;\r\n            stakingToken.safeTransferFrom(msg.sender, address(this), ids[i]);\r\n            emit Staked(msg.sender, ids[i]);\r\n        }\r\n    }\r\n\r\n    function withdraw(uint256 id)\r\n        external\r\n        override\r\n        normalMode\r\n        nonReentrant\r\n        isOwner(id)\r\n        updateReward(msg.sender)\r\n    {\r\n        require(\r\n            minimumStakeTime == 0 ||\r\n                block.timestamp.sub(_stakeTimestamp[msg.sender]) >=\r\n                minimumStakeTime,\r\n            \"Cannot withdraw until minimum staking time has passed\"\r\n        );\r\n        _totalSupply = _totalSupply.sub(1);\r\n        _userStakedNfts[msg.sender].remove(id);\r\n        delete _stakedNftOwner[id];\r\n        if (_userStakedNfts[msg.sender].length() == 0) {\r\n            _stakeTimestamp[msg.sender] = 0;\r\n        }\r\n        stakingToken.safeTransferFrom(address(this), msg.sender, id);\r\n        emit Withdrawn(msg.sender, id);\r\n    }\r\n\r\n    function bulkWithdraw(uint256[] calldata ids)\r\n        external\r\n        override\r\n        normalMode\r\n        nonReentrant\r\n        isOwnerOfIds(ids)\r\n        updateReward(msg.sender)\r\n    {\r\n        require(\r\n            minimumStakeTime == 0 ||\r\n                block.timestamp.sub(_stakeTimestamp[msg.sender]) >=\r\n                minimumStakeTime,\r\n            \"Cannot withdraw until minimum staking time has passed\"\r\n        );\r\n        \r\n        _totalSupply.sub(ids.length);\r\n        for(uint i = 0; i < ids.length; i++) {\r\n            _userStakedNfts[msg.sender].remove(ids[i]);\r\n            delete _stakedNftOwner[ids[i]];\r\n            stakingToken.safeTransferFrom(address(this), msg.sender, ids[i]);\r\n            emit Withdrawn(msg.sender, ids[i]);\r\n        }\r\n        if (_userStakedNfts[msg.sender].length() == 0) {\r\n            _stakeTimestamp[msg.sender] = 0;\r\n        }\r\n    }\r\n\r\n    function getReward()\r\n        public\r\n        override\r\n        normalMode\r\n        nonReentrant\r\n        updateReward(msg.sender)\r\n    {\r\n        require(\r\n            minimumStakeTime == 0 ||\r\n                block.timestamp.sub(_stakeTimestamp[msg.sender]) >=\r\n                minimumStakeTime,\r\n            \"Cannot get reward until minimum staking time has passed\"\r\n        );\r\n        uint256 reward = rewards[msg.sender];\r\n        if (reward > 0) {\r\n            rewards[msg.sender] = 0;\r\n            rewardsToken.safeTransfer(msg.sender, reward);\r\n            emit RewardPaid(msg.sender, reward);\r\n        }\r\n    }\r\n\r\n    function exit() external override normalMode {\r\n        require(\r\n            minimumStakeTime == 0 ||\r\n                block.timestamp.sub(_stakeTimestamp[msg.sender]) >=\r\n                minimumStakeTime,\r\n            \"Cannot withdraw until minimum staking time has passed\"\r\n        );\r\n\r\n        uint256 amount = _userStakedNfts[msg.sender].length();\r\n        _totalSupply = _totalSupply.sub(amount);\r\n        EnumerableSet.UintSet storage stakedNfts = _userStakedNfts[msg.sender];\r\n\r\n        for (uint256 i = 0; i < stakedNfts.length(); i++) {\r\n            uint256 id = stakedNfts.at(i);\r\n            stakedNfts.remove(id);\r\n            delete _stakedNftOwner[id];\r\n            stakingToken.safeTransferFrom(address(this), msg.sender, id);\r\n        }\r\n\r\n        if (_userStakedNfts[msg.sender].length() == 0) {\r\n            _stakeTimestamp[msg.sender] = 0;\r\n        }\r\n\r\n        getReward();\r\n    }\r\n\r\n    function recoverOwnStake() external failsafeMode {\r\n        uint256 amount = _userStakedNfts[msg.sender].length();\r\n        _totalSupply = _totalSupply.sub(amount);\r\n        EnumerableSet.UintSet storage stakedNfts = _userStakedNfts[msg.sender];\r\n\r\n        for (uint256 i = 0; i < stakedNfts.length(); i++) {\r\n            uint256 id = stakedNfts.at(i);\r\n            stakedNfts.remove(id);\r\n            delete _stakedNftOwner[id];\r\n            stakingToken.safeTransferFrom(address(this), msg.sender, id);\r\n        }\r\n    }\r\n\r\n    /* ========== RESTRICTED FUNCTIONS ========== */\r\n\r\n    function notifyRewardAmount(uint256 reward)\r\n        external\r\n        override\r\n        normalMode\r\n        onlyRewardsDistribution\r\n        updateReward(address(0))\r\n    {\r\n        if (block.timestamp >= periodFinish) {\r\n            rewardRate = reward.div(rewardsDuration);\r\n        } else {\r\n            uint256 remaining = periodFinish.sub(block.timestamp);\r\n            uint256 leftover = remaining.mul(rewardRate);\r\n            rewardRate = reward.add(leftover).div(rewardsDuration);\r\n        }\r\n\r\n        // Ensure the provided reward amount is not more than the balance in the contract.\r\n        // This keeps the reward rate in the right range, preventing overflows due to\r\n        // very high values of rewardRate in the earned and rewardsPerToken functions;\r\n        // Reward + leftover must be less than 2^256 / 10^18 to avoid overflow.\r\n        uint256 balance = rewardsToken.balanceOf(address(this));\r\n        require(\r\n            rewardRate <= balance.div(rewardsDuration),\r\n            \"Provided reward too high\"\r\n        );\r\n\r\n        lastUpdateTime = block.timestamp;\r\n        periodFinish = block.timestamp.add(rewardsDuration);\r\n        emit RewardAdded(reward);\r\n    }\r\n\r\n    // End rewards emission earlier\r\n    function updatePeriodFinish(uint256 timestamp)\r\n        external\r\n        normalMode\r\n        onlyOwner\r\n        updateReward(address(0))\r\n    {\r\n        require(\r\n            timestamp > lastUpdateTime,\r\n            \"Timestamp must be after lastUpdateTime\"\r\n        );\r\n        periodFinish = timestamp;\r\n    }\r\n\r\n    // Added to support recovering LP Rewards from other systems such as BAL to be distributed to holders\r\n    function recoverERC20(address tokenAddress, uint256 tokenAmount)\r\n        external\r\n        onlyOwner\r\n    {\r\n        require(\r\n            tokenAddress != address(stakingToken),\r\n            \"Cannot withdraw the staking token\"\r\n        );\r\n        IERC20(tokenAddress).safeTransfer(owner(), tokenAmount);\r\n        emit Recovered(tokenAddress, tokenAmount);\r\n    }\r\n\r\n    function setRewardsDuration(uint256 _rewardsDuration)\r\n        external\r\n        normalMode\r\n        onlyOwner\r\n    {\r\n        require(\r\n            block.timestamp > periodFinish,\r\n            \"Previous rewards period must be complete before changing the duration for the new period\"\r\n        );\r\n        rewardsDuration = _rewardsDuration;\r\n        emit RewardsDurationUpdated(rewardsDuration);\r\n    }\r\n\r\n    function setMinimumStakeAmount(uint256 _minimumStakeAmount)\r\n        external\r\n        normalMode\r\n        onlyOwner\r\n    {\r\n        minimumStakeAmount = _minimumStakeAmount;\r\n        emit MinimumStakeAmountUpdated(_minimumStakeAmount);\r\n    }\r\n\r\n    function setMinimumStakeTime(uint256 _minimumStakeTime)\r\n        external\r\n        normalMode\r\n        onlyOwner\r\n    {\r\n        minimumStakeTime = _minimumStakeTime;\r\n        emit MinimumStakeTimeUpdated(_minimumStakeTime);\r\n    }\r\n\r\n    function enableFailsafeMode() public override normalMode onlyOwner {\r\n        minimumStakeAmount = 0;\r\n        minimumStakeTime = 0;\r\n        periodFinish = 0;\r\n        rewardRate = 0;\r\n        rewardPerTokenStored = 0;\r\n\r\n        super.enableFailsafeMode();\r\n    }\r\n\r\n    function pause() external onlyOwner whenNotPaused {\r\n        _pause();\r\n    }\r\n\r\n    function unpause() external onlyOwner whenPaused {\r\n        _unpause();\r\n    }\r\n\r\n    /* ========== MODIFIERS ========== */\r\n\r\n    modifier updateReward(address account) {\r\n        if (!failsafeModeActive) {\r\n            rewardPerTokenStored = rewardPerToken();\r\n            lastUpdateTime = lastTimeRewardApplicable();\r\n            if (account != address(0)) {\r\n                rewards[account] = earned(account);\r\n                userRewardPerTokenPaid[account] = rewardPerTokenStored;\r\n            }\r\n        }\r\n        _;\r\n    }\r\n\r\n    /* ========== EVENTS ========== */\r\n\r\n    event RewardAdded(uint256 reward);\r\n    event Staked(address indexed user, uint256 amount);\r\n    event Withdrawn(address indexed user, uint256 amount);\r\n    event RewardPaid(address indexed user, uint256 reward);\r\n    event RewardsDurationUpdated(uint256 newDuration);\r\n    event MinimumStakeAmountUpdated(uint256 newMinimumStakeAmount);\r\n    event MinimumStakeTimeUpdated(uint256 newMinimumStakeTime);\r\n    event Recovered(address token, uint256 amount);\r\n\r\n    /* ========== MODIFIERS ========== */\r\n    modifier isOwner(uint256 id) {\r\n        require(_stakedNftOwner[id] == msg.sender, \"Access denied\");\r\n        _;\r\n    }\r\n\r\n    modifier isOwnerOfIds(uint256[] memory ids) {\r\n        for(uint i = 0; i < ids.length; i++) {\r\n            require(_stakedNftOwner[ids[i]] == msg.sender, \"Access denied\");\r\n        }\r\n        _;\r\n    }\r\n\r\n    // something\r\n    function onERC721Received(\r\n        address, /* operator */\r\n        address, /* from */\r\n        uint256 _id,\r\n        bytes calldata /* data */\r\n    ) external override returns (bytes4) {\r\n        // NOTE: The contract address is always the message sender.\r\n        address _tokenAddress = msg.sender;\r\n\r\n        require(\r\n            address(stakingToken) ==_tokenAddress &&\r\n                _stakedNftOwner[_id] != address(0),\r\n            \"Token ID not listed\"\r\n        );\r\n\r\n        return IERC721ReceiverUpgradeable.onERC721Received.selector;\r\n    }\r\n}\r\n",
  "sourcePath": "K:\\\\cryptoblades1\\cryptoblades\\contracts\\staking\\NftStakingRewardsUpgradeable.sol",
  "compiler": {
    "name": "solc",
    "version": "0.6.5+commit.f956cc89.Emscripten.clang"
  },
  "schemaVersion": "3.4.5",
  "updatedAt": "2022-09-25T07:39:15.013Z",
  "devdoc": {
    "methods": {
      "owner()": {
        "details": "Returns the address of the current owner."
      },
      "paused()": {
        "details": "Returns true if the contract is paused, and false otherwise."
      },
      "renounceOwnership()": {
        "details": "Leaves the contract without owner. It will not be possible to call `onlyOwner` functions anymore. Can only be called by the current owner.     * NOTE: Renouncing ownership will leave the contract without an owner, thereby removing any functionality that is only available to the owner."
      },
      "transferOwnership(address)": {
        "details": "Transfers ownership of the contract to a new account (`newOwner`). Can only be called by the current owner."
      }
    }
  },
  "userdoc": {
    "methods": {}
  }
}