{
  "contractName": "NFTStorage",
  "abi": [
    {
      "anonymous": false,
      "inputs": [
        {
          "indexed": true,
          "internalType": "address",
          "name": "owner",
          "type": "address"
        },
        {
          "indexed": true,
          "internalType": "contract IERC721",
          "name": "nftAddress",
          "type": "address"
        },
        {
          "indexed": true,
          "internalType": "uint256",
          "name": "nftID",
          "type": "uint256"
        }
      ],
      "name": "NFTStored",
      "type": "event"
    },
    {
      "anonymous": false,
      "inputs": [
        {
          "indexed": true,
          "internalType": "address",
          "name": "owner",
          "type": "address"
        }
      ],
      "name": "NFTTransferOutCanceled",
      "type": "event"
    },
    {
      "anonymous": false,
      "inputs": [
        {
          "indexed": true,
          "internalType": "address",
          "name": "owner",
          "type": "address"
        },
        {
          "indexed": true,
          "internalType": "contract IERC721",
          "name": "nftAddress",
          "type": "address"
        },
        {
          "indexed": true,
          "internalType": "uint256",
          "name": "nftID",
          "type": "uint256"
        }
      ],
      "name": "NFTTransferOutRequest",
      "type": "event"
    },
    {
      "anonymous": false,
      "inputs": [
        {
          "indexed": true,
          "internalType": "uint256",
          "name": "requestId",
          "type": "uint256"
        },
        {
          "indexed": false,
          "internalType": "uint8",
          "name": "status",
          "type": "uint8"
        },
        {
          "indexed": false,
          "internalType": "bool",
          "name": "forced",
          "type": "bool"
        }
      ],
      "name": "NFTTransferUpdate",
      "type": "event"
    },
    {
      "anonymous": false,
      "inputs": [
        {
          "indexed": true,
          "internalType": "address",
          "name": "owner",
          "type": "address"
        },
        {
          "indexed": true,
          "internalType": "contract IERC721",
          "name": "nftAddress",
          "type": "address"
        },
        {
          "indexed": true,
          "internalType": "uint256",
          "name": "nftID",
          "type": "uint256"
        }
      ],
      "name": "NFTWithdrawn",
      "type": "event"
    },
    {
      "anonymous": false,
      "inputs": [
        {
          "indexed": true,
          "internalType": "address",
          "name": "receiver",
          "type": "address"
        },
        {
          "indexed": true,
          "internalType": "uint256",
          "name": "bridgedId",
          "type": "uint256"
        },
        {
          "indexed": false,
          "internalType": "uint8",
          "name": "nftType",
          "type": "uint8"
        },
        {
          "indexed": true,
          "internalType": "uint256",
          "name": "mintedId",
          "type": "uint256"
        }
      ],
      "name": "NFTWithdrawnFromBridge",
      "type": "event"
    },
    {
      "anonymous": false,
      "inputs": [
        {
          "indexed": true,
          "internalType": "bytes32",
          "name": "role",
          "type": "bytes32"
        },
        {
          "indexed": true,
          "internalType": "bytes32",
          "name": "previousAdminRole",
          "type": "bytes32"
        },
        {
          "indexed": true,
          "internalType": "bytes32",
          "name": "newAdminRole",
          "type": "bytes32"
        }
      ],
      "name": "RoleAdminChanged",
      "type": "event"
    },
    {
      "anonymous": false,
      "inputs": [
        {
          "indexed": true,
          "internalType": "bytes32",
          "name": "role",
          "type": "bytes32"
        },
        {
          "indexed": true,
          "internalType": "address",
          "name": "account",
          "type": "address"
        },
        {
          "indexed": true,
          "internalType": "address",
          "name": "sender",
          "type": "address"
        }
      ],
      "name": "RoleGranted",
      "type": "event"
    },
    {
      "anonymous": false,
      "inputs": [
        {
          "indexed": true,
          "internalType": "bytes32",
          "name": "role",
          "type": "bytes32"
        },
        {
          "indexed": true,
          "internalType": "address",
          "name": "account",
          "type": "address"
        },
        {
          "indexed": true,
          "internalType": "address",
          "name": "sender",
          "type": "address"
        }
      ],
      "name": "RoleRevoked",
      "type": "event"
    },
    {
      "anonymous": false,
      "inputs": [
        {
          "indexed": true,
          "internalType": "address",
          "name": "receiver",
          "type": "address"
        },
        {
          "indexed": false,
          "internalType": "uint8",
          "name": "nftType",
          "type": "uint8"
        },
        {
          "indexed": false,
          "internalType": "uint256",
          "name": "sourceChain",
          "type": "uint256"
        },
        {
          "indexed": true,
          "internalType": "uint256",
          "name": "sourceId",
          "type": "uint256"
        }
      ],
      "name": "TransferedIn",
      "type": "event"
    },
    {
      "inputs": [],
      "name": "DEFAULT_ADMIN_ROLE",
      "outputs": [
        {
          "internalType": "bytes32",
          "name": "",
          "type": "bytes32"
        }
      ],
      "stateMutability": "view",
      "type": "function",
      "constant": true
    },
    {
      "inputs": [],
      "name": "GAME_ADMIN",
      "outputs": [
        {
          "internalType": "bytes32",
          "name": "",
          "type": "bytes32"
        }
      ],
      "stateMutability": "view",
      "type": "function",
      "constant": true
    },
    {
      "inputs": [],
      "name": "NFT_TYPE_CHARACTER",
      "outputs": [
        {
          "internalType": "uint8",
          "name": "",
          "type": "uint8"
        }
      ],
      "stateMutability": "view",
      "type": "function",
      "constant": true
    },
    {
      "inputs": [],
      "name": "NFT_TYPE_SHIELD",
      "outputs": [
        {
          "internalType": "uint8",
          "name": "",
          "type": "uint8"
        }
      ],
      "stateMutability": "view",
      "type": "function",
      "constant": true
    },
    {
      "inputs": [],
      "name": "NFT_TYPE_WEAPON",
      "outputs": [
        {
          "internalType": "uint8",
          "name": "",
          "type": "uint8"
        }
      ],
      "stateMutability": "view",
      "type": "function",
      "constant": true
    },
    {
      "inputs": [],
      "name": "TRANSFER_IN_STATUS_AVAILABLE",
      "outputs": [
        {
          "internalType": "uint8",
          "name": "",
          "type": "uint8"
        }
      ],
      "stateMutability": "view",
      "type": "function",
      "constant": true
    },
    {
      "inputs": [],
      "name": "TRANSFER_IN_STATUS_WITHDRAWN",
      "outputs": [
        {
          "internalType": "uint8",
          "name": "",
          "type": "uint8"
        }
      ],
      "stateMutability": "view",
      "type": "function",
      "constant": true
    },
    {
      "inputs": [],
      "name": "TRANSFER_OUT_STATUS_DONE",
      "outputs": [
        {
          "internalType": "uint8",
          "name": "",
          "type": "uint8"
        }
      ],
      "stateMutability": "view",
      "type": "function",
      "constant": true
    },
    {
      "inputs": [],
      "name": "TRANSFER_OUT_STATUS_ERROR",
      "outputs": [
        {
          "internalType": "uint8",
          "name": "",
          "type": "uint8"
        }
      ],
      "stateMutability": "view",
      "type": "function",
      "constant": true
    },
    {
      "inputs": [],
      "name": "TRANSFER_OUT_STATUS_NONE",
      "outputs": [
        {
          "internalType": "uint8",
          "name": "",
          "type": "uint8"
        }
      ],
      "stateMutability": "view",
      "type": "function",
      "constant": true
    },
    {
      "inputs": [],
      "name": "TRANSFER_OUT_STATUS_PENDING",
      "outputs": [
        {
          "internalType": "uint8",
          "name": "",
          "type": "uint8"
        }
      ],
      "stateMutability": "view",
      "type": "function",
      "constant": true
    },
    {
      "inputs": [],
      "name": "TRANSFER_OUT_STATUS_PROCESSING",
      "outputs": [
        {
          "internalType": "uint8",
          "name": "",
          "type": "uint8"
        }
      ],
      "stateMutability": "view",
      "type": "function",
      "constant": true
    },
    {
      "inputs": [],
      "name": "TRANSFER_OUT_STATUS_RESTORED",
      "outputs": [
        {
          "internalType": "uint8",
          "name": "",
          "type": "uint8"
        }
      ],
      "stateMutability": "view",
      "type": "function",
      "constant": true
    },
    {
      "inputs": [],
      "name": "game",
      "outputs": [
        {
          "internalType": "contract CryptoBlades",
          "name": "",
          "type": "address"
        }
      ],
      "stateMutability": "view",
      "type": "function",
      "constant": true
    },
    {
      "inputs": [
        {
          "internalType": "bytes32",
          "name": "role",
          "type": "bytes32"
        }
      ],
      "name": "getRoleAdmin",
      "outputs": [
        {
          "internalType": "bytes32",
          "name": "",
          "type": "bytes32"
        }
      ],
      "stateMutability": "view",
      "type": "function",
      "constant": true
    },
    {
      "inputs": [
        {
          "internalType": "bytes32",
          "name": "role",
          "type": "bytes32"
        },
        {
          "internalType": "uint256",
          "name": "index",
          "type": "uint256"
        }
      ],
      "name": "getRoleMember",
      "outputs": [
        {
          "internalType": "address",
          "name": "",
          "type": "address"
        }
      ],
      "stateMutability": "view",
      "type": "function",
      "constant": true
    },
    {
      "inputs": [
        {
          "internalType": "bytes32",
          "name": "role",
          "type": "bytes32"
        }
      ],
      "name": "getRoleMemberCount",
      "outputs": [
        {
          "internalType": "uint256",
          "name": "",
          "type": "uint256"
        }
      ],
      "stateMutability": "view",
      "type": "function",
      "constant": true
    },
    {
      "inputs": [
        {
          "internalType": "bytes32",
          "name": "role",
          "type": "bytes32"
        },
        {
          "internalType": "address",
          "name": "account",
          "type": "address"
        }
      ],
      "name": "grantRole",
      "outputs": [],
      "stateMutability": "nonpayable",
      "type": "function"
    },
    {
      "inputs": [
        {
          "internalType": "bytes32",
          "name": "role",
          "type": "bytes32"
        },
        {
          "internalType": "address",
          "name": "account",
          "type": "address"
        }
      ],
      "name": "hasRole",
      "outputs": [
        {
          "internalType": "bool",
          "name": "",
          "type": "bool"
        }
      ],
      "stateMutability": "view",
      "type": "function",
      "constant": true
    },
    {
      "inputs": [],
      "name": "promos",
      "outputs": [
        {
          "internalType": "contract Promos",
          "name": "",
          "type": "address"
        }
      ],
      "stateMutability": "view",
      "type": "function",
      "constant": true
    },
    {
      "inputs": [
        {
          "internalType": "bytes32",
          "name": "role",
          "type": "bytes32"
        },
        {
          "internalType": "address",
          "name": "account",
          "type": "address"
        }
      ],
      "name": "renounceRole",
      "outputs": [],
      "stateMutability": "nonpayable",
      "type": "function"
    },
    {
      "inputs": [
        {
          "internalType": "bytes32",
          "name": "role",
          "type": "bytes32"
        },
        {
          "internalType": "address",
          "name": "account",
          "type": "address"
        }
      ],
      "name": "revokeRole",
      "outputs": [],
      "stateMutability": "nonpayable",
      "type": "function"
    },
    {
      "inputs": [
        {
          "internalType": "address",
          "name": "_weaponsAddress",
          "type": "address"
        },
        {
          "internalType": "address",
          "name": "_charactersAddress",
          "type": "address"
        },
        {
          "internalType": "contract WeaponRenameTagConsumables",
          "name": "_weaponRenameTagConsumables",
          "type": "address"
        },
        {
          "internalType": "contract CharacterRenameTagConsumables",
          "name": "_characterRenameTagConsumables",
          "type": "address"
        },
        {
          "internalType": "contract WeaponCosmetics",
          "name": "_weaponCosmetics",
          "type": "address"
        },
        {
          "internalType": "contract CharacterCosmetics",
          "name": "_characterCosmetics",
          "type": "address"
        },
        {
          "internalType": "contract NFTMarket",
          "name": "_nftMarket",
          "type": "address"
        }
      ],
      "name": "initialize",
      "outputs": [],
      "stateMutability": "nonpayable",
      "type": "function"
    },
    {
      "inputs": [
        {
          "internalType": "contract CryptoBlades",
          "name": "_game",
          "type": "address"
        }
      ],
      "name": "migrateTo_56837f7",
      "outputs": [],
      "stateMutability": "nonpayable",
      "type": "function"
    },
    {
      "inputs": [
        {
          "internalType": "contract Promos",
          "name": "_promos",
          "type": "address"
        }
      ],
      "name": "migrateTo_98bf302",
      "outputs": [],
      "stateMutability": "nonpayable",
      "type": "function"
    },
    {
      "inputs": [
        {
          "internalType": "address",
          "name": "_shieldsAddress",
          "type": "address"
        }
      ],
      "name": "migrateTo_3f597dc",
      "outputs": [],
      "stateMutability": "nonpayable",
      "type": "function"
    },
    {
      "inputs": [
        {
          "internalType": "contract IERC721",
          "name": "_tokenAddress",
          "type": "address"
        }
      ],
      "name": "isTokenSupported",
      "outputs": [
        {
          "internalType": "bool",
          "name": "",
          "type": "bool"
        }
      ],
      "stateMutability": "view",
      "type": "function",
      "constant": true
    },
    {
      "inputs": [],
      "name": "getSupportedTokenTypes",
      "outputs": [
        {
          "internalType": "contract IERC721[]",
          "name": "",
          "type": "address[]"
        }
      ],
      "stateMutability": "view",
      "type": "function",
      "constant": true
    },
    {
      "inputs": [
        {
          "internalType": "contract IERC721",
          "name": "_tokenAddress",
          "type": "address"
        },
        {
          "internalType": "address",
          "name": "playerAddress",
          "type": "address"
        }
      ],
      "name": "getNumberOfStoragedItems",
      "outputs": [
        {
          "internalType": "uint256",
          "name": "",
          "type": "uint256"
        }
      ],
      "stateMutability": "view",
      "type": "function",
      "constant": true
    },
    {
      "inputs": [
        {
          "internalType": "contract IERC721",
          "name": "_tokenAddress",
          "type": "address"
        }
      ],
      "name": "getNumberOfStoragedItems",
      "outputs": [
        {
          "internalType": "uint256",
          "name": "",
          "type": "uint256"
        }
      ],
      "stateMutability": "view",
      "type": "function",
      "constant": true
    },
    {
      "inputs": [
        {
          "internalType": "contract IERC721",
          "name": "_tokenAddress",
          "type": "address"
        }
      ],
      "name": "getStorageItemIds",
      "outputs": [
        {
          "internalType": "uint256[]",
          "name": "tokens",
          "type": "uint256[]"
        }
      ],
      "stateMutability": "view",
      "type": "function",
      "constant": true
    },
    {
      "inputs": [
        {
          "internalType": "contract IERC721",
          "name": "_tokenAddress",
          "type": "address"
        },
        {
          "internalType": "address",
          "name": "playerAddress",
          "type": "address"
        }
      ],
      "name": "getStorageItemIds",
      "outputs": [
        {
          "internalType": "uint256[]",
          "name": "tokens",
          "type": "uint256[]"
        }
      ],
      "stateMutability": "view",
      "type": "function",
      "constant": true
    },
    {
      "inputs": [
        {
          "internalType": "contract IERC721",
          "name": "_tokenAddress",
          "type": "address"
        },
        {
          "internalType": "uint256",
          "name": "_id",
          "type": "uint256"
        }
      ],
      "name": "storeItem",
      "outputs": [],
      "stateMutability": "nonpayable",
      "type": "function"
    },
    {
      "inputs": [
        {
          "internalType": "contract IERC721",
          "name": "_tokenAddress",
          "type": "address"
        },
        {
          "internalType": "uint256",
          "name": "_id",
          "type": "uint256"
        }
      ],
      "name": "withdrawFromStorage",
      "outputs": [],
      "stateMutability": "nonpayable",
      "type": "function"
    },
    {
      "inputs": [
        {
          "internalType": "contract IERC721",
          "name": "_tokenAddress",
          "type": "address"
        }
      ],
      "name": "allowToken",
      "outputs": [],
      "stateMutability": "nonpayable",
      "type": "function"
    },
    {
      "inputs": [
        {
          "internalType": "contract IERC721",
          "name": "_tokenAddress",
          "type": "address"
        }
      ],
      "name": "disallowToken",
      "outputs": [],
      "stateMutability": "nonpayable",
      "type": "function"
    },
    {
      "inputs": [
        {
          "internalType": "address",
          "name": "",
          "type": "address"
        },
        {
          "internalType": "address",
          "name": "",
          "type": "address"
        },
        {
          "internalType": "uint256",
          "name": "_id",
          "type": "uint256"
        },
        {
          "internalType": "bytes",
          "name": "",
          "type": "bytes"
        }
      ],
      "name": "onERC721Received",
      "outputs": [
        {
          "internalType": "bytes4",
          "name": "",
          "type": "bytes4"
        }
      ],
      "stateMutability": "nonpayable",
      "type": "function"
    },
    {
      "inputs": [],
      "name": "storageIsEnabled",
      "outputs": [
        {
          "internalType": "bool",
          "name": "",
          "type": "bool"
        }
      ],
      "stateMutability": "view",
      "type": "function",
      "constant": true
    },
    {
      "inputs": [
        {
          "internalType": "bool",
          "name": "enabled",
          "type": "bool"
        }
      ],
      "name": "setStorageEnabled",
      "outputs": [],
      "stateMutability": "nonpayable",
      "type": "function"
    },
    {
      "inputs": [
        {
          "internalType": "uint256",
          "name": "chainId",
          "type": "uint256"
        }
      ],
      "name": "chainBridgeEnabled",
      "outputs": [
        {
          "internalType": "bool",
          "name": "",
          "type": "bool"
        }
      ],
      "stateMutability": "view",
      "type": "function",
      "constant": true
    },
    {
      "inputs": [],
      "name": "getEnabledChainsForBridging",
      "outputs": [
        {
          "internalType": "uint256[]",
          "name": "chainIds",
          "type": "uint256[]"
        }
      ],
      "stateMutability": "view",
      "type": "function",
      "constant": true
    },
    {
      "inputs": [
        {
          "internalType": "uint256",
          "name": "chainId",
          "type": "uint256"
        },
        {
          "internalType": "string",
          "name": "prefix",
          "type": "string"
        },
        {
          "internalType": "bool",
          "name": "enable",
          "type": "bool"
        }
      ],
      "name": "toggleChainBridgeEnabled",
      "outputs": [],
      "stateMutability": "nonpayable",
      "type": "function"
    },
    {
      "inputs": [
        {
          "internalType": "contract IERC721",
          "name": "_tokenAddress",
          "type": "address"
        },
        {
          "internalType": "uint256",
          "name": "_id",
          "type": "uint256"
        },
        {
          "internalType": "uint256",
          "name": "targetChain",
          "type": "uint256"
        }
      ],
      "name": "bridgeItem",
      "outputs": [],
      "stateMutability": "nonpayable",
      "type": "function"
    },
    {
      "inputs": [],
      "name": "cancelBridge",
      "outputs": [],
      "stateMutability": "nonpayable",
      "type": "function"
    },
    {
      "inputs": [],
      "name": "getReceivedNFTs",
      "outputs": [
        {
          "internalType": "uint256[]",
          "name": "tokens",
          "type": "uint256[]"
        }
      ],
      "stateMutability": "view",
      "type": "function",
      "constant": true
    },
    {
      "inputs": [
        {
          "internalType": "uint256",
          "name": "receivedNFT",
          "type": "uint256"
        }
      ],
      "name": "getReceivedNFT",
      "outputs": [
        {
          "internalType": "address",
          "name": "",
          "type": "address"
        },
        {
          "internalType": "uint8",
          "name": "",
          "type": "uint8"
        },
        {
          "internalType": "uint256",
          "name": "",
          "type": "uint256"
        },
        {
          "internalType": "uint256",
          "name": "",
          "type": "uint256"
        },
        {
          "internalType": "uint8",
          "name": "",
          "type": "uint8"
        },
        {
          "internalType": "uint256",
          "name": "",
          "type": "uint256"
        }
      ],
      "stateMutability": "view",
      "type": "function",
      "constant": true
    },
    {
      "inputs": [
        {
          "internalType": "uint256",
          "name": "bridgedNFT",
          "type": "uint256"
        }
      ],
      "name": "withdrawFromBridge",
      "outputs": [],
      "stateMutability": "nonpayable",
      "type": "function"
    },
    {
      "inputs": [
        {
          "internalType": "address",
          "name": "nftAddress",
          "type": "address"
        },
        {
          "internalType": "uint256",
          "name": "nftId",
          "type": "uint256"
        }
      ],
      "name": "getNFTChainId",
      "outputs": [
        {
          "internalType": "string",
          "name": "chainId",
          "type": "string"
        }
      ],
      "stateMutability": "view",
      "type": "function",
      "constant": true
    },
    {
      "inputs": [
        {
          "internalType": "string",
          "name": "chainid",
          "type": "string"
        },
        {
          "internalType": "address",
          "name": "nftAddress",
          "type": "address"
        }
      ],
      "name": "getNFTFromChainId",
      "outputs": [
        {
          "internalType": "uint256",
          "name": "tokenId",
          "type": "uint256"
        }
      ],
      "stateMutability": "view",
      "type": "function",
      "constant": true
    },
    {
      "inputs": [
        {
          "internalType": "address",
          "name": "nftAddress",
          "type": "address"
        },
        {
          "internalType": "uint256",
          "name": "nftId",
          "type": "uint256"
        },
        {
          "internalType": "string",
          "name": "chainId",
          "type": "string"
        },
        {
          "internalType": "bool",
          "name": "forced",
          "type": "bool"
        }
      ],
      "name": "setNFTChainId",
      "outputs": [],
      "stateMutability": "nonpayable",
      "type": "function"
    },
    {
      "inputs": [
        {
          "internalType": "string",
          "name": "prefix",
          "type": "string"
        }
      ],
      "name": "setLocalChainPrefix",
      "outputs": [],
      "stateMutability": "nonpayable",
      "type": "function"
    },
    {
      "inputs": [],
      "name": "getLocalChainPrefix",
      "outputs": [
        {
          "internalType": "string",
          "name": "",
          "type": "string"
        }
      ],
      "stateMutability": "view",
      "type": "function",
      "constant": true
    },
    {
      "inputs": [
        {
          "internalType": "uint256",
          "name": "newFee",
          "type": "uint256"
        }
      ],
      "name": "setBridgeFee",
      "outputs": [],
      "stateMutability": "nonpayable",
      "type": "function"
    },
    {
      "inputs": [],
      "name": "getBridgeFee",
      "outputs": [
        {
          "internalType": "uint256",
          "name": "",
          "type": "uint256"
        }
      ],
      "stateMutability": "view",
      "type": "function",
      "constant": true
    },
    {
      "inputs": [],
      "name": "botEnabled",
      "outputs": [
        {
          "internalType": "bool",
          "name": "",
          "type": "bool"
        }
      ],
      "stateMutability": "view",
      "type": "function",
      "constant": true
    },
    {
      "inputs": [
        {
          "internalType": "bool",
          "name": "enable",
          "type": "bool"
        }
      ],
      "name": "toggleBotEnabled",
      "outputs": [],
      "stateMutability": "nonpayable",
      "type": "function"
    },
    {
      "inputs": [],
      "name": "getBridgeTransferAt",
      "outputs": [
        {
          "internalType": "uint256",
          "name": "",
          "type": "uint256"
        }
      ],
      "stateMutability": "view",
      "type": "function",
      "constant": true
    },
    {
      "inputs": [
        {
          "internalType": "uint256",
          "name": "transfersOutAt",
          "type": "uint256"
        }
      ],
      "name": "setBridgeTransferAt",
      "outputs": [],
      "stateMutability": "nonpayable",
      "type": "function"
    },
    {
      "inputs": [],
      "name": "getBridgeTransfers",
      "outputs": [
        {
          "internalType": "uint256",
          "name": "",
          "type": "uint256"
        }
      ],
      "stateMutability": "view",
      "type": "function",
      "constant": true
    },
    {
      "inputs": [
        {
          "internalType": "address",
          "name": "player",
          "type": "address"
        }
      ],
      "name": "getBridgeTransferOfPlayer",
      "outputs": [
        {
          "internalType": "uint256",
          "name": "",
          "type": "uint256"
        }
      ],
      "stateMutability": "view",
      "type": "function",
      "constant": true
    },
    {
      "inputs": [],
      "name": "getBridgeTransfer",
      "outputs": [
        {
          "internalType": "uint256",
          "name": "",
          "type": "uint256"
        }
      ],
      "stateMutability": "view",
      "type": "function",
      "constant": true
    },
    {
      "inputs": [
        {
          "internalType": "uint256",
          "name": "bridgeTransferId",
          "type": "uint256"
        }
      ],
      "name": "getBridgeTransfer",
      "outputs": [
        {
          "internalType": "address",
          "name": "",
          "type": "address"
        },
        {
          "internalType": "address",
          "name": "",
          "type": "address"
        },
        {
          "internalType": "uint256",
          "name": "",
          "type": "uint256"
        },
        {
          "internalType": "uint256",
          "name": "",
          "type": "uint256"
        },
        {
          "internalType": "uint256",
          "name": "",
          "type": "uint256"
        },
        {
          "internalType": "uint256",
          "name": "",
          "type": "uint256"
        },
        {
          "internalType": "uint8",
          "name": "",
          "type": "uint8"
        }
      ],
      "stateMutability": "view",
      "type": "function",
      "constant": true
    },
    {
      "inputs": [
        {
          "internalType": "uint256",
          "name": "bridgeTransferId",
          "type": "uint256"
        },
        {
          "internalType": "uint8",
          "name": "status",
          "type": "uint8"
        },
        {
          "internalType": "bool",
          "name": "forced",
          "type": "bool"
        }
      ],
      "name": "updateBridgeTransferStatus",
      "outputs": [],
      "stateMutability": "nonpayable",
      "type": "function"
    },
    {
      "inputs": [
        {
          "internalType": "uint256",
          "name": "sourceChain",
          "type": "uint256"
        },
        {
          "internalType": "uint8",
          "name": "nftType",
          "type": "uint8"
        },
        {
          "internalType": "uint256",
          "name": "sourceId",
          "type": "uint256"
        }
      ],
      "name": "getTransferInFromLog",
      "outputs": [
        {
          "internalType": "uint256",
          "name": "",
          "type": "uint256"
        }
      ],
      "stateMutability": "view",
      "type": "function",
      "constant": true
    },
    {
      "inputs": [
        {
          "internalType": "uint256",
          "name": "sourceChain",
          "type": "uint256"
        },
        {
          "internalType": "uint256",
          "name": "sourceTransferId",
          "type": "uint256"
        }
      ],
      "name": "getTransferInFromLogV2",
      "outputs": [
        {
          "internalType": "uint256",
          "name": "",
          "type": "uint256"
        }
      ],
      "stateMutability": "view",
      "type": "function",
      "constant": true
    },
    {
      "inputs": [
        {
          "internalType": "address",
          "name": "nftAddress",
          "type": "address"
        },
        {
          "internalType": "uint256",
          "name": "tokenId",
          "type": "uint256"
        }
      ],
      "name": "collectNFTData",
      "outputs": [
        {
          "internalType": "uint256[]",
          "name": "uintVars",
          "type": "uint256[]"
        },
        {
          "internalType": "string",
          "name": "stringVar",
          "type": "string"
        }
      ],
      "stateMutability": "view",
      "type": "function",
      "constant": true
    },
    {
      "inputs": [
        {
          "internalType": "address",
          "name": "receiver",
          "type": "address"
        },
        {
          "internalType": "uint256",
          "name": "sourceChain",
          "type": "uint256"
        },
        {
          "internalType": "uint256",
          "name": "sourceTransfer",
          "type": "uint256"
        },
        {
          "internalType": "address",
          "name": "nftAddress",
          "type": "address"
        },
        {
          "internalType": "string",
          "name": "chainId",
          "type": "string"
        },
        {
          "internalType": "uint256[]",
          "name": "uintVars",
          "type": "uint256[]"
        },
        {
          "internalType": "string",
          "name": "stringVar",
          "type": "string"
        }
      ],
      "name": "mintOrUpdate",
      "outputs": [],
      "stateMutability": "nonpayable",
      "type": "function"
    },
    {
      "inputs": [
        {
          "internalType": "address",
          "name": "nft",
          "type": "address"
        },
        {
          "internalType": "address",
          "name": "proxy",
          "type": "address"
        },
        {
          "internalType": "bool",
          "name": "forced",
          "type": "bool"
        }
      ],
      "name": "setProxyContract",
      "outputs": [],
      "stateMutability": "nonpayable",
      "type": "function"
    },
    {
      "inputs": [
        {
          "internalType": "address",
          "name": "nft",
          "type": "address"
        }
      ],
      "name": "getProxyContract",
      "outputs": [
        {
          "internalType": "address",
          "name": "",
          "type": "address"
        }
      ],
      "stateMutability": "view",
      "type": "function",
      "constant": true
    },
    {
      "inputs": [
        {
          "internalType": "address",
          "name": "nft",
          "type": "address"
        },
        {
          "internalType": "uint256[]",
          "name": "chainIds",
          "type": "uint256[]"
        },
        {
          "internalType": "bool",
          "name": "support",
          "type": "bool"
        }
      ],
      "name": "setChainSupportedForNFT",
      "outputs": [],
      "stateMutability": "nonpayable",
      "type": "function"
    },
    {
      "inputs": [
        {
          "internalType": "address",
          "name": "nft",
          "type": "address"
        }
      ],
      "name": "getChainsSupportingNFT",
      "outputs": [
        {
          "internalType": "uint256[]",
          "name": "chains",
          "type": "uint256[]"
        }
      ],
      "stateMutability": "view",
      "type": "function",
      "constant": true
    },
    {
      "inputs": [
        {
          "internalType": "uint256",
          "name": "chain",
          "type": "uint256"
        }
      ],
      "name": "getNFTsSupportedByChain",
      "outputs": [
        {
          "internalType": "address[]",
          "name": "nfts",
          "type": "address[]"
        }
      ],
      "stateMutability": "view",
      "type": "function",
      "constant": true
    },
    {
      "inputs": [
        {
          "internalType": "uint256",
          "name": "metaData",
          "type": "uint256"
        }
      ],
      "name": "unpackCharactersData",
      "outputs": [
        {
          "internalType": "uint32",
          "name": "appliedCosmetic",
          "type": "uint32"
        },
        {
          "internalType": "uint16",
          "name": "xp",
          "type": "uint16"
        },
        {
          "internalType": "uint8",
          "name": "level",
          "type": "uint8"
        },
        {
          "internalType": "uint8",
          "name": "trait",
          "type": "uint8"
        },
        {
          "internalType": "uint24",
          "name": "bonusPower",
          "type": "uint24"
        },
        {
          "internalType": "uint16",
          "name": "reputation",
          "type": "uint16"
        }
      ],
      "stateMutability": "pure",
      "type": "function",
      "constant": true
    }
  ],
  "bytecode": "0x608060405234801561001057600080fd5b506157df80620000216000396000f3fe608060405234801561001057600080fd5b50600436106104335760003560e01c80636d570dc611610236578063ae9d4b0b1161013b578063cdd713cb116100c3578063e79767af11610087578063e79767af1461114c578063ef74bc0e14611172578063fa21fcf71461117a578063fc4fdd3d146111de578063ff37b5311461120457610433565b8063cdd713cb14610f6f578063d127e1cb146110a1578063d547741f146110a9578063ddbb4dcb146110d5578063e6ad247d14610f0e57610433565b8063bf465b761161010a578063bf465b7614610f0e578063bff6a82f14610f16578063c3fe3e2814610f42578063ca15c87314610f4a578063cb8ac98914610f6757610433565b8063ae9d4b0b14610e94578063b53472ef14610eba578063b83f391d14610ac8578063b883511414610ee057610433565b80639010d07c116101be57806398b9b8231161018d57806398b9b82314610d73578063998cdf8314610d905780639b7453ab14610dad578063a217fddf14610e5a578063ae3f27c714610e6257610433565b80639010d07c14610cfe57806391d1485414610d21578063936054c814610ac85780639643ed2714610d4d57610433565b806375b673731161020557806375b6737314610c3b5780637e28b2cf14610c615780637ece696e14610c69578063840636e214610c7157806385659de114610cf657610433565b80636d570dc614610bd75780636d61185414610bdf57806374a5788914610c0d57806375151b6314610c1557610433565b8063377bdfd21161033c578063449b4e37116102c457806355dd50081161029357806355dd500814610b3d578063596d2d8614610b69578063602fccf71461081f578063691c448014610b865780636d0d053814610bb457610433565b8063449b4e3714610ad857806351e717ac14610b09578063523a33e214610b2d5780635504d3d214610b3557610433565b80633f10ba7d1161030b5780633f10ba7d14610a3e5780633fa1334914610aa2578063418aa21f14610ac85780634304c79014610ad0578063435e156a1461081f57610433565b8063377bdfd214610991578063380308be146109b75780633b7d2e89146109d45780633db9b4fa146109dc57610433565b8063248a9ca3116103bf5780632f48914b1161038e5780632f48914b1461086957806330a61af3146108885780633440e7a914610890578063358764761461090d57806336568abe1461096557610433565b8063248a9ca3146107fa57806326166248146108175780632e8fc4411461081f5780632f2ff15d1461083d57610433565b8063150b7a0211610406578063150b7a02146105eb5780631a3186061461069657806322773def14610716578063235ad6e114610754578063237fe117146107c257610433565b80630660071a1461043857806308d48422146104ae5780630bd18e59146104dc578063139772db14610502575b600080fd5b61045e6004803603602081101561044e57600080fd5b50356001600160a01b0316611223565b60408051602080825283518183015283519192839290830191858101910280838360005b8381101561049a578181015183820152602001610482565b505050509050019250505060405180910390f35b6104da600480360360408110156104c457600080fd5b506001600160a01b038135169060200135611306565b005b61045e600480360360208110156104f257600080fd5b50356001600160a01b03166115e5565b61052e6004803603604081101561051857600080fd5b506001600160a01b0381351690602001356115f9565b604051808060200180602001838103835285818151815260200191508051906020019060200280838360005b8381101561057257818101518382015260200161055a565b50505050905001838103825284818151815260200191508051906020019080838360005b838110156105ae578181015183820152602001610596565b50505050905090810190601f1680156105db5780820380516001836020036101000a031916815260200191505b5094505050505060405180910390f35b6106796004803603608081101561060157600080fd5b6001600160a01b03823581169260208101359091169160408201359190810190608081016060820135600160201b81111561063b57600080fd5b82018360208201111561064d57600080fd5b803590602001918460018302840111600160201b8311171561066e57600080fd5b5090925090506117cf565b604080516001600160e01b03199092168252519081900360200190f35b6104da600480360360608110156106ac57600080fd5b6001600160a01b038235169190810190604081016020820135600160201b8111156106d657600080fd5b8201836020820111156106e857600080fd5b803590602001918460208302840111600160201b8311171561070957600080fd5b919350915035151561186c565b6107426004803603606081101561072c57600080fd5b5080359060ff6020820135169060400135611a39565b60408051918252519081900360200190f35b6104da6004803603602081101561076a57600080fd5b810190602081018135600160201b81111561078457600080fd5b82018360208201111561079657600080fd5b803590602001918460018302840111600160201b831117156107b757600080fd5b509092509050611a62565b6104da600480360360608110156107d857600080fd5b506001600160a01b038135811691602081013590911690604001351515611ab4565b6107426004803603602081101561081057600080fd5b5035611b7e565b610742611b93565b610827611b9a565b6040805160ff9092168252519081900360200190f35b6104da6004803603604081101561085357600080fd5b50803590602001356001600160a01b0316611b9f565b6104da6004803603602081101561087f57600080fd5b50351515611c0b565b61045e611c6a565b610898611d04565b6040805160208082528351818301528351919283929083019185019080838360005b838110156108d25781810151838201526020016108ba565b50505050905090810190601f1680156108ff5780820380516001836020036101000a031916815260200191505b509250505060405180910390f35b6104da600480360360e081101561092357600080fd5b506001600160a01b038135811691602081013582169160408201358116916060810135821691608082013581169160a081013582169160c09091013516611d9a565b6104da6004803603604081101561097b57600080fd5b50803590602001356001600160a01b0316611f24565b6104da600480360360208110156109a757600080fd5b50356001600160a01b0316611f85565b6104da600480360360208110156109cd57600080fd5b5035612022565b610742612098565b6109f9600480360360208110156109f257600080fd5b503561209e565b604080516001600160a01b03909716875260ff9586166020880152868101949094526060860192909252909216608084015260a0830191909152519081900360c00190f35b610a5b60048036036020811015610a5457600080fd5b50356120ed565b6040805163ffffffff909716875261ffff958616602088015260ff9485168782015292909316606086015262ffffff166080850152911660a0830152519081900360c00190f35b6104da60048036036020811015610ab857600080fd5b50356001600160a01b0316612125565b61082761218f565b61045e612194565b610af560048036036020811015610aee57600080fd5b5035612234565b604080519115158252519081900360200190f35b610b11612249565b604080516001600160a01b039092168252519081900360200190f35b610742612258565b610742612268565b61089860048036036040811015610b5357600080fd5b506001600160a01b03813516906020013561228a565b61045e60048036036020811015610b7f57600080fd5b503561233e565b6104da60048036036060811015610b9c57600080fd5b5080359060ff6020820135169060400135151561240a565b61074260048036036040811015610bca57600080fd5b5080359060200135612640565b610827612661565b61074260048036036040811015610bf557600080fd5b506001600160a01b0381358116916020013516612666565b610af561269d565b610af560048036036020811015610c2b57600080fd5b50356001600160a01b03166126a6565b61074260048036036020811015610c5157600080fd5b50356001600160a01b03166126b9565b6104da6126c5565b61045e612771565b6104da60048036036080811015610c8757600080fd5b6001600160a01b0382351691602081013591810190606081016040820135600160201b811115610cb657600080fd5b820183602082011115610cc857600080fd5b803590602001918460018302840111600160201b83111715610ce957600080fd5b919350915035151561282f565b6107426129e3565b610b1160048036036040811015610d1457600080fd5b50803590602001356129e9565b610af560048036036040811015610d3757600080fd5b50803590602001356001600160a01b0316612a07565b61074260048036036020811015610d6357600080fd5b50356001600160a01b0316612a25565b6104da60048036036020811015610d8957600080fd5b5035612a40565b6104da60048036036020811015610da657600080fd5b5035613434565b6104da60048036036060811015610dc357600080fd5b81359190810190604081016020820135600160201b811115610de457600080fd5b820183602082011115610df657600080fd5b803590602001918460018302840111600160201b83111715610e1757600080fd5b91908080601f016020809104026020016040519081016040528093929190818152602001838380828437600092019190915250929550505050351515905061347a565b610742613522565b6104da60048036036060811015610e7857600080fd5b506001600160a01b038135169060208101359060400135613527565b6104da60048036036020811015610eaa57600080fd5b50356001600160a01b0316613d90565b6104da60048036036020811015610ed057600080fd5b50356001600160a01b0316613dfa565b61045e60048036036040811015610ef657600080fd5b506001600160a01b0381358116916020013516613e4c565b610827613f17565b6104da60048036036040811015610f2c57600080fd5b506001600160a01b038135169060200135613f1c565b610b1161426f565b61074260048036036020811015610f6057600080fd5b503561427e565b610827614295565b6104da600480360360e0811015610f8557600080fd5b6001600160a01b038235811692602081013592604082013592606083013516919081019060a081016080820135600160201b811115610fc357600080fd5b820183602082011115610fd557600080fd5b803590602001918460018302840111600160201b83111715610ff657600080fd5b919390929091602081019035600160201b81111561101357600080fd5b82018360208201111561102557600080fd5b803590602001918460208302840111600160201b8311171561104657600080fd5b919390929091602081019035600160201b81111561106357600080fd5b82018360208201111561107557600080fd5b803590602001918460018302840111600160201b8311171561109657600080fd5b50909250905061429a565b610827613522565b6104da600480360360408110156110bf57600080fd5b50803590602001356001600160a01b031661459d565b610742600480360360408110156110eb57600080fd5b810190602081018135600160201b81111561110557600080fd5b82018360208201111561111757600080fd5b803590602001918460018302840111600160201b8311171561113857600080fd5b9193509150356001600160a01b03166145f6565b6104da6004803603602081101561116257600080fd5b50356001600160a01b031661463d565b610af561468f565b6111976004803603602081101561119057600080fd5b503561469f565b604080516001600160a01b039889168152969097166020870152858701949094526060850192909252608084015260a083015260ff1660c082015290519081900360e00190f35b610b11600480360360208110156111f457600080fd5b50356001600160a01b03166146ee565b6104da6004803603602081101561121a57600080fd5b5035151561470c565b6001600160a01b0381166000908152608d6020526040902060609061124790614760565b67ffffffffffffffff8111801561125d57600080fd5b50604051908082528060200260200182016040528015611287578160200160208202803683370190505b50905060005b6001600160a01b0383166000908152608d602052604090206112ae90614760565b811015611300576001600160a01b0383166000908152608d602052604081206112dd908363ffffffff61476b16565b9050808383815181106112ec57fe5b60209081029190910101525060010161128d565b50919050565b818161131960788363ffffffff61477716565b80156113535750336000908152606c602090815260408083206001600160a01b03861684529091529020611353908263ffffffff61478c16565b611391576040805162461bcd60e51b815260206004820152600a602482015269139bdd081b1a5cdd195960b21b604482015290519081900360640190fd5b6001600160a01b038085166000908152606d60209081526040808320878452909152902054859185911633146113fe576040805162461bcd60e51b815260206004820152600d60248201526c1058d8d95cdcc819195b9a5959609a1b604482015290519081900360640190fd5b6001600160a01b0386166000908152607760209081526040808320888452825280832054835260759091529020600601548690869060ff16158061147557506001600160a01b03821660009081526077602090815260408083208484528252808320548352607590915290206006015460ff166005145b6114b7576040805162461bcd60e51b815260206004820152600e60248201526d50656e64696e672062726964676560901b604482015290519081900360640190fd5b336000908152606c602090815260408083206001600160a01b038c16845290915290206114ea908863ffffffff61479816565b506001600160a01b0388166000908152606e60205260409020611513908863ffffffff61479816565b506001600160a01b0388166000818152606d602090815260408083208b845290915280822080546001600160a01b03191690558051632142170760e11b8152306004820152336024820152604481018b905290516342842e0e9260648084019391929182900301818387803b15801561158b57600080fd5b505af115801561159f573d6000803e3d6000fd5b50506040518992506001600160a01b038b16915033907fbbde41973f9ce4890f7ad9762c23d8191f261fd643bdf13ed8bbc10549b49fcb90600090a45050505050505050565b60606115f18233613e4c565b90505b919050565b6001600160a01b038083166000908152608b6020526040808220548151630ceeba3560e11b815260048101869052915160609485949216926319dd746a926024808301939192829003018186803b15801561165357600080fd5b505afa158015611667573d6000803e3d6000fd5b505050506040513d6000823e601f3d908101601f19168201604090815281101561169057600080fd5b8101908080516040519392919084600160201b8211156116af57600080fd5b9083019060208201858111156116c457600080fd5b82518660208202830111600160201b821117156116e057600080fd5b82525081516020918201928201910280838360005b8381101561170d5781810151838201526020016116f5565b5050505090500160405260200180516040519392919084600160201b82111561173557600080fd5b90830190602082018581111561174a57600080fd5b8251600160201b81118282018810171561176357600080fd5b82525081516020918201929091019080838360005b83811015611790578181015183820152602001611778565b50505050905090810190601f1680156117bd5780820380516001836020036101000a031916815260200191505b50604052505050915091509250929050565b6000336117e360788263ffffffff61477716565b801561181257506001600160a01b0381166000908152606e60205260409020611812908663ffffffff61478c16565b611859576040805162461bcd60e51b8152602060048201526013602482015272151bdad95b881251081b9bdd081b1a5cdd1959606a1b604482015290519081900360640190fd5b50630a85bd0160e11b9695505050505050565b611877600033612a07565b6118ad576040805162461bcd60e51b8152602060048201526002602482015261414f60f01b604482015290519081900360640190fd5b60005b82811015611a325760008484838181106118c657fe5b9050602002013590508215611981576001600160a01b0386166000908152608d602052604090206118fd908263ffffffff61478c16565b15611934576040805162461bcd60e51b81526020600482015260026024820152614e4160f01b604482015290519081900360640190fd5b6001600160a01b0386166000908152608d6020526040902061195c908263ffffffff6147a416565b506000818152608e6020526040902061197b908763ffffffff6147b016565b50611a29565b6001600160a01b0386166000908152608d602052604090206119a9908263ffffffff61478c16565b6119e0576040805162461bcd60e51b815260206004820152600360248201526227209960e91b604482015290519081900360640190fd5b6001600160a01b0386166000908152608d60205260409020611a08908263ffffffff61479816565b506000818152608e60205260409020611a27908763ffffffff6147c516565b505b506001016118b0565b5050505050565b600092835260826020908152604080852060ff9490941685529281528284209184525290205490565b611a6d600033612a07565b611aa3576040805162461bcd60e51b8152602060048201526002602482015261414f60f01b604482015290519081900360640190fd5b611aaf60898383615550565b505050565b611abf600033612a07565b611af5576040805162461bcd60e51b8152602060048201526002602482015261414f60f01b604482015290519081900360640190fd5b8080611b1957506001600160a01b038381166000908152608b602052604090205416155b611b4f576040805162461bcd60e51b81526020600482015260026024820152614e4160f01b604482015290519081900360640190fd5b506001600160a01b039182166000908152608b6020526040902080546001600160a01b03191691909216179055565b60009081526033602052604090206002015490565b6070545b90565b600181565b600082815260336020526040902060020154611bc290611bbd6147da565b612a07565b611bfd5760405162461bcd60e51b815260040180806020018281038252602f8152602001806156ee602f913960400191505060405180910390fd5b611c0782826147de565b5050565b611c16600033612a07565b611c4c576040805162461bcd60e51b8152602060048201526002602482015261414f60f01b604482015290519081900360640190fd5b606b8054911515600160a01b0260ff60a01b19909216919091179055565b60606000611c786080614760565b90508067ffffffffffffffff81118015611c9157600080fd5b50604051908082528060200260200182016040528015611cbb578160200160208202803683370190505b50915060005b81811015611cff576000611cdc60808363ffffffff61476b16565b905080848381518110611ceb57fe5b602090810291909101015250600101611cc1565b505090565b60898054604080516020601f6002600019610100600188161502019095169490940493840181900481028201810190925282815260609390929091830182828015611d905780601f10611d6557610100808354040283529160200191611d90565b820191906000526020600020905b815481529060010190602001808311611d7357829003601f168201915b5050505050905090565b600054610100900460ff1680611db35750611db361484d565b80611dc1575060005460ff16155b611dfc5760405162461bcd60e51b815260040180806020018281038252602e81526020018061574d602e913960400191505060405180910390fd5b600054610100900460ff16158015611e27576000805460ff1961ff0019909116610100171660011790555b611e2f61485e565b611e3a600033611bfd565b606580546001600160a01b03199081166001600160a01b038b8116918217909355607a6020527f32fc32e8e6a367a782c09a02fa01aab4c63a2b183ce5fee9b74a77503c0667c78054831690911790556066805482168a841690811790915560026000527f1b1f440aa85fdd106751da9f081002151e81d7f9c9a991d7f6a7ef20e0b9176f805483169091179055606880548216898416179055606980548216888416179055606a80548216878416179055606b80548216868416179055606780549091169184169190911790558015611f1a576000805461ff00191690555b5050505050505050565b611f2c6147da565b6001600160a01b0316816001600160a01b031614611f7b5760405162461bcd60e51b815260040180806020018281038252602f81526020018061577b602f913960400191505060405180910390fd5b611c078282614910565b611f90600033612a07565b611fcd576040805162461bcd60e51b81526020600482015260096024820152682737ba1030b236b4b760b91b604482015290519081900360640190fd5b608a80546001600160a01b039092166001600160a01b031992831681179091556003600052607a6020527f87b4f67b2406d03a55b52bb16d21c469b6c736dc05d05baecc1db4bc2bbb1dbf8054909216179055565b604080516923a0a6a2afa0a226a4a760b11b8152905190819003600a01902061204b9033612a07565b8061205c575061205c600033612a07565b612093576040805162461bcd60e51b81526020600482015260036024820152624e474160e81b604482015290519081900360640190fd5b607055565b60715490565b6000908152607d60209081526040808320805460018201546002830154600690930154607e90955292909420546001600160a01b03851695600160a01b90950460ff9081169593949293921691565b63ffffffff602082901c169161ffff601083901c811692600881901c60ff908116939082169262ffffff604084901c169260581c1690565b612130600033612a07565b61216d576040805162461bcd60e51b81526020600482015260096024820152682737ba1030b236b4b760b91b604482015290519081900360640190fd5b608480546001600160a01b0319166001600160a01b0392909216919091179055565b600281565b60606078816121a282614760565b67ffffffffffffffff811180156121b857600080fd5b506040519080825280602002602001820160405280156121e2578160200160208202803683370190505b50905060005b815181101561222d57612201838263ffffffff61476b16565b82828151811061220d57fe5b6001600160a01b03909216602092830291909101909101526001016121e8565b5091505090565b60009081526072602052604090205460ff1690565b6088546001600160a01b031681565b600061226333612a25565b905090565b604080516923a0a6a2afa0a226a4a760b11b8152905190819003600a01902081565b6001600160a01b0382166000908152606f6020908152604080832084845282529182902080548351601f60026000196101006001861615020190931692909204918201849004840281018401909452808452606093928301828280156123315780601f1061230657610100808354040283529160200191612331565b820191906000526020600020905b81548152906001019060200180831161231457829003601f168201915b5050505050905092915050565b6000818152608e6020526040902060609061235890614760565b67ffffffffffffffff8111801561236e57600080fd5b50604051908082528060200260200182016040528015612398578160200160208202803683370190505b50905060005b6000838152608e602052604090206123b590614760565b811015611300576000838152608e602052604081206123da908363ffffffff61476b16565b9050808383815181106123e957fe5b6001600160a01b03909216602092830291909101909101525060010161239e565b604080516923a0a6a2afa0a226a4a760b11b8152905190819003600a0190206124339033612a07565b806124445750612444600033612a07565b61247b576040805162461bcd60e51b81526020600482015260036024820152624e474160e81b604482015290519081900360640190fd5b600083815260756020526040902081806124aa5750600681015460ff1660011480156124aa575060ff83166002145b806124ca5750600681015460ff1660021480156124ca575060ff83166003145b806124d8575060ff83166004145b612521576040805162461bcd60e51b8152602060048201526015602482015274496e76616c696420737461747573206368616e676560581b604482015290519081900360640190fd5b60068101805460ff191660ff85169081179091554360038084019190915514156125fc57506000838152607560209081526040808320600481015481546001600160a01b039081168652606c85528386206001840154909116865290935292206125909163ffffffff61479816565b50600481015460018201546001600160a01b03166000908152606e602052604090206125c19163ffffffff61479816565b5060018101546001600160a01b03166000908152606d6020908152604080832060048501548452909152902080546001600160a01b03191690555b6040805160ff851681528315156020820152815186927fe9be44629e148c97d70f6fd687136943c6eea85468b1cdccc5983bab033d167d928290030190a250505050565b6000828152608c602090815260408083208484529091529020545b92915050565b600581565b6001600160a01b038082166000908152606c60209081526040808320938616835292905290812061269690614760565b9392505050565b60745460ff1690565b60006115f160788363ffffffff61477716565b60006115f18233612666565b33600090815260766020908152604080832054835260759091529020600681015460ff16600114612731576040805162461bcd60e51b81526020600482015260116024820152706e6f2070656e64696e672062726964676560781b604482015290519081900360640190fd5b60068101805460ff1916905543600382015560405133907f9488dbae60530b56439c8ff7df875cd889d990a8e77716c0f70df77391d69ba490600090a250565b336000908152607b602052604081206060919061278d90614760565b90508067ffffffffffffffff811180156127a657600080fd5b506040519080825280602002602001820160405280156127d0578160200160208202803683370190505b50336000908152607b602052604081209193505b6127ed82614760565b811015612829576000612806838363ffffffff61476b16565b90508085838151811061281557fe5b6020908102919091010152506001016127e4565b50505090565b604080516923a0a6a2afa0a226a4a760b11b8152905190819003600a0190206128589033612a07565b806128695750612869600033612a07565b6128a0576040805162461bcd60e51b81526020600482015260036024820152624e474160e81b604482015290519081900360640190fd5b808061292957506001600160a01b0385166000908152606f602090815260408083208784529091529020546002600019610100600184161502019091160415801561292957506001600160a01b03851660009081526086602052604090819020905184908490808383808284379190910194855250506040519283900360200190922054159150505b61295f576040805162461bcd60e51b81526020600482015260026024820152614e4160f01b604482015290519081900360640190fd5b6001600160a01b0385166000908152606f60209081526040808320878452909152902061298d908484615550565b508360866000876001600160a01b03166001600160a01b03168152602001908152602001600020848460405180838380828437919091019485525050604051928390036020019092209290925550505050505050565b60855490565b6000828152603360205260408120612696908363ffffffff61476b16565b6000828152603360205260408120612696908363ffffffff61477716565b6001600160a01b031660009081526076602052604090205490565b6000818152607d602052604090205481906001600160a01b03163314612aa5576040805162461bcd60e51b81526020600482015260156024820152743737ba10313934b233b2b21027232a1037bbb732b960591b604482015290519081900360640190fd5b6000828152607d6020526040902060060154829060ff16600114612b00576040805162461bcd60e51b815260206004820152600d60248201526c6e6f7420617661696c61626c6560981b604482015290519081900360640190fd5b6000818152607d6020908152604080832054600160a01b900460ff168352607a9091529020546001600160a01b0316612b72576040805162461bcd60e51b815260206004820152600f60248201526e139195081b9bdd081919599a5b9959608a1b604482015290519081900360640190fd5b606b54600160a01b900460ff168015612c7b57506088546040805163907ef7d560e01b815290516001600160a01b039092169163434d82a3913391849163907ef7d5916004808301926020929190829003018186803b158015612bd457600080fd5b505afa158015612be8573d6000803e3d6000fd5b505050506040513d6020811015612bfe57600080fd5b5051604080516001600160e01b031960e086901b1681526001600160a01b0390931660048401526024830191909152516044808301926020929190829003018186803b158015612c4d57600080fd5b505afa158015612c61573d6000803e3d6000fd5b505050506040513d6020811015612c7757600080fd5b5051155b612cbf576040805162461bcd60e51b815260206004820152601060248201526f1cdd1bdc9859d948191a5cd8589b195960821b604482015290519081900360640190fd5b6000838152607d60209081526040808320607f9092528220548154600160a01b900460ff1660011415612ec657612cff868360010154846002015461497f565b606554604080516331a9108f60e11b815260048101849052905192955030926001600160a01b0390921691636352211e91602480820192602092909190829003018186803b158015612d5057600080fd5b505afa158015612d64573d6000803e3d6000fd5b505050506040513d6020811015612d7a57600080fd5b50516001600160a01b031614612dbd576040805162461bcd60e51b81526020600482015260036024820152624e415760e81b604482015290519081900360640190fd5b60038201546002600019610100600184161502019091160415612ec15760685460408051637f2ac99560e11b8152600481018681526024820192835260038601805460026000196001831615610100020190911604604484018190526001600160a01b039095169463fe55932a948994929392909160649091019084908015612e875780601f10612e5c57610100808354040283529160200191612e87565b820191906000526020600020905b815481529060010190602001808311612e6a57829003601f168201915b50509350505050600060405180830381600087803b158015612ea857600080fd5b505af1158015612ebc573d6000803e3d6000fd5b505050505b613137565b8154600160a01b900460ff1660021415613052576000868152607e6020526040902054612ef590879083614b71565b606654604080516331a9108f60e11b815260048101849052905192955030926001600160a01b0390921691636352211e91602480820192602092909190829003018186803b158015612f4657600080fd5b505afa158015612f5a573d6000803e3d6000fd5b505050506040513d6020811015612f7057600080fd5b50516001600160a01b031614612fb3576040805162461bcd60e51b81526020600482015260036024820152624e414360e81b604482015290519081900360640190fd5b60038201546002600019610100600184161502019091160415612ec15760695460408051637f2ac99560e11b8152600481018681526024820192835260038601805460026000196001831615610100020190911604604484018190526001600160a01b039095169463fe55932a948994929392909160649091019084908015612e875780601f10612e5c57610100808354040283529160200191612e87565b8154600160a01b900460ff1660031415613137576130798683600101548460020154614da3565b608a54604080516331a9108f60e11b815260048101849052905192955030926001600160a01b0390921691636352211e91602480820192602092909190829003018186803b1580156130ca57600080fd5b505afa1580156130de573d6000803e3d6000fd5b505050506040513d60208110156130f457600080fd5b50516001600160a01b031614613137576040805162461bcd60e51b81526020600482015260036024820152624e415360e81b604482015290519081900360640190fd5b8154600160a01b900460ff9081166000908152607a60209081526040808320546001600160a01b03168352607782528083208784528252808320548352607590915290206006015416600314156131da57815460ff600160a01b909104166000908152607a60209081526040808320546001600160a01b0316835260778252808320868452825280832054835260759091529020600601805460ff191660051790555b8154600160a01b900460ff166000908152607a60209081526040808320546001600160a01b0316808452606e90925290912061321690856147a4565b5082546001600160a01b038281166000818152606d602090815260408083208a8452825280832080546001600160a01b0319169686169690961790955587549093168152606c8352838120918152915220613277908563ffffffff6147a416565b50336000908152607b60205260409020613297908863ffffffff61479816565b506000878152607d6020908152604080832060068101805460ff1916600290811790915543600590920191909155608783528184208754600160a01b900460ff168552607a8452828520546001600160a01b03168552606f84528285208986529093529220815461331b9391929160001960018316156101000201909116046155ce565b508254600160a01b900460ff166000908152607a60209081526040808320546001600160a01b03168352608682528083208a84526087909252918290209151825487939190819083906002610100600183161502600019019091160480156133ba5780601f106133985761010080835404028352918201916133ba565b820191906000526020600020905b8154815290600101906020018083116133a6575b5050928352505060408051602092819003830181209390935560008a8152608383528190208790558554600160a01b810460ff168452905187938b936001600160a01b03909316927f18a57ad4dd2f8053bd85d741aed27689b81dfcf40ae5f99753c1cb913cd23bda92918290030190a450505050505050565b61343f600033612a07565b613475576040805162461bcd60e51b8152602060048201526002602482015261414f60f01b604482015290519081900360640190fd5b608555565b613485600033612a07565b6134bb576040805162461bcd60e51b8152602060048201526002602482015261414f60f01b604482015290519081900360640190fd5b6000838152607260209081526040808320805460ff19168515151790556073825290912083516134ed92850190615643565b50801561350b5761350560808463ffffffff6147a416565b50611aaf565b61351c60808463ffffffff61479816565b50505050565b600081565b82613531816126a6565b61356a576040805162461bcd60e51b815260206004820152600560248201526422b93937b960d91b604482015290519081900360640190fd5b838361357d60788363ffffffff61477716565b80156135b75750336000908152606c602090815260408083206001600160a01b038616845290915290206135b7908263ffffffff61478c16565b6135f5576040805162461bcd60e51b815260206004820152600a602482015269139bdd081b1a5cdd195960b21b604482015290519081900360640190fd5b6001600160a01b038087166000908152606d6020908152604080832089845290915290205487918791163314613662576040805162461bcd60e51b815260206004820152600d60248201526c1058d8d95cdcc819195b9a5959609a1b604482015290519081900360640190fd5b878787816136a0576040805162461bcd60e51b81526020600480830191909152602482015263424e533160e01b604482015290519081900360640190fd5b6001600160a01b0383166000908152608d602052604090206136c8908263ffffffff61478c16565b613702576040805162461bcd60e51b815260206004808301919091526024820152632127299960e11b604482015290519081900360640190fd5b6001600160a01b038084166000908152608b602090815260409182902054825163355319db60e11b81529251931692636aa633b6926004808201939291829003018186803b15801561375357600080fd5b505afa158015613767573d6000803e3d6000fd5b505050506040513d602081101561377d57600080fd5b50516137b9576040805162461bcd60e51b81526020600480830191909152602482015263424e533360e01b604482015290519081900360640190fd5b600089815260726020526040902054899060ff16613812576040805162461bcd60e51b8152602060048201526011602482015270189c9a5919da5b99c8191a5cd8589b1959607a1b604482015290519081900360640190fd5b336000908152607660209081526040808320548352607590915290206006015460ff1615806138635750336000908152607660209081526040808320548352607590915290206006015460ff166003145b806138905750336000908152607660209081526040808320548352607590915290206006015460ff166005145b6138e1576040805162461bcd60e51b815260206004820152601760248201527f43616e6e6f742072657175657374206120627269646765000000000000000000604482015290519081900360640190fd5b606b54600160a01b900460ff1680156139ea57506088546040805163907ef7d560e01b815290516001600160a01b039092169163434d82a3913391849163907ef7d5916004808301926020929190829003018186803b15801561394357600080fd5b505afa158015613957573d6000803e3d6000fd5b505050506040513d602081101561396d57600080fd5b5051604080516001600160e01b031960e086901b1681526001600160a01b0390931660048401526024830191909152516044808301926020929190829003018186803b1580156139bc57600080fd5b505afa1580156139d0573d6000803e3d6000fd5b505050506040513d60208110156139e657600080fd5b5051155b613a2e576040805162461bcd60e51b815260206004820152601060248201526f1cdd1bdc9859d948191a5cd8589b195960821b604482015290519081900360640190fd5b6084546085546040805163466cec3360e01b81523360048201526024810192909252516001600160a01b039092169163466cec339160448082019260009290919082900301818387803b158015613a8457600080fd5b505af1158015613a98573d6000803e3d6000fd5b505050506040518060e00160405280336001600160a01b031681526020018d6001600160a01b03168152602001438152602001600081526020018c81526020018b8152602001600160ff1681525060756000607160008154600101919050819055815260200190815260200160002060008201518160000160006101000a8154816001600160a01b0302191690836001600160a01b0316021790555060208201518160010160006101000a8154816001600160a01b0302191690836001600160a01b0316021790555060408201518160020155606082015181600301556080820151816004015560a0820151816005015560c08201518160060160006101000a81548160ff021916908360ff16021790555090505060715460766000336001600160a01b03166001600160a01b0316815260200190815260200160002081905550607154607760008e6001600160a01b03166001600160a01b0316815260200190815260200160002060008d815260200190815260200160002081905550606f60008d6001600160a01b03166001600160a01b0316815260200190815260200160002060008c815260200190815260200160002080546001816001161561010002031660029004905060001415613d4a576060613c748c614f16565b905080606f60008f6001600160a01b03166001600160a01b0316815260200190815260200160002060008e81526020019081526020016000209080519060200190613cc0929190615643565b508b608660008f6001600160a01b03166001600160a01b03168152602001908152602001600020826040518082805190602001908083835b60208310613d175780518252601f199092019160209182019101613cf8565b51815160209384036101000a60001901801990921691161790529201948552506040519384900301909220929092555050505b6040518b906001600160a01b038e169033907f3bf078f73d5107e1de4b93c941d87936fdfea9fdfc618d32a79db0ec642f84fa90600090a4505050505050505050505050565b613d9b600033612a07565b613dd8576040805162461bcd60e51b81526020600482015260096024820152682737ba1030b236b4b760b91b604482015290519081900360640190fd5b608880546001600160a01b0319166001600160a01b0392909216919091179055565b613e05600033612a07565b613e3b576040805162461bcd60e51b8152602060048201526002602482015261414f60f01b604482015290519081900360640190fd5b611c0760788263ffffffff6147b016565b60606000613e5a8484612666565b90508067ffffffffffffffff81118015613e7357600080fd5b50604051908082528060200260200182016040528015613e9d578160200160208202803683370190505b506001600160a01b038085166000908152606c6020908152604080832093891683529290529081209193505b613ed282614760565b811015613f0e576000613eeb838363ffffffff61476b16565b905080858381518110613efa57fe5b602090810291909101015250600101613ec9565b50505092915050565b600381565b81613f26816126a6565b613f5f576040805162461bcd60e51b815260206004820152600560248201526422b93937b960d91b604482015290519081900360640190fd5b8282613f7260788363ffffffff61477716565b1580613fae5750336000908152606c602090815260408083206001600160a01b03861684529091529020613fac908263ffffffff61478c16565b155b613ff0576040805162461bcd60e51b815260206004820152600e60248201526d105b1c9958591e481b1a5cdd195960921b604482015290519081900360640190fd5b606b54600160a01b900460ff1680156140f957506088546040805163907ef7d560e01b815290516001600160a01b039092169163434d82a3913391849163907ef7d5916004808301926020929190829003018186803b15801561405257600080fd5b505afa158015614066573d6000803e3d6000fd5b505050506040513d602081101561407c57600080fd5b5051604080516001600160e01b031960e086901b1681526001600160a01b0390931660048401526024830191909152516044808301926020929190829003018186803b1580156140cb57600080fd5b505afa1580156140df573d6000803e3d6000fd5b505050506040513d60208110156140f557600080fd5b5051155b61413d576040805162461bcd60e51b815260206004820152601060248201526f1cdd1bdc9859d948191a5cd8589b195960821b604482015290519081900360640190fd5b336000908152606c602090815260408083206001600160a01b03891684529091529020614170908563ffffffff6147a416565b506001600160a01b0385166000908152606e60205260409020614199908563ffffffff6147a416565b506001600160a01b0385166000818152606d6020908152604080832088845290915280822080546001600160a01b031916339081179091558151632142170760e11b815260048101919091523060248201526044810188905290516342842e0e9260648084019391929182900301818387803b15801561421857600080fd5b505af115801561422c573d6000803e3d6000fd5b50506040518692506001600160a01b038816915033907f17441e63855a9d9fbd4e98df39619aaa56b10c5da482dafbc97c5a426a65e04c90600090a45050505050565b6084546001600160a01b031681565b60008181526033602052604081206115f190614760565b600481565b604080516923a0a6a2afa0a226a4a760b11b8152905190819003600a0190206142c39033612a07565b806142d457506142d4600033612a07565b61430b576040805162461bcd60e51b81526020600482015260036024820152624e474160e81b604482015290519081900360640190fd5b6000898152608c602090815260408083208b84529091529020541561435c576040805162461bcd60e51b81526020600482015260026024820152614e4160f01b604482015290519081900360640190fd5b6001600160a01b03871660009081526086602052604080822090518890889080838380828437919091019485525050604080519384900360209081018520546001600160a01b03808f166000908152608b8452939093205463f951940760e01b875260048701828152606060248901908152606489018d905292985093169563f951940795508794508b938b938b938b9390916044820191608401908890880280828437600083820152601f01601f191690910184810383528581526020019050858580828437600081840152601f19601f820116905080830192505050975050505050505050602060405180830381600087803b15801561445d57600080fd5b505af1158015614471573d6000803e3d6000fd5b505050506040513d602081101561448757600080fd5b5051604080516331a9108f60e11b815260048101839052905191925030916001600160a01b038b1691636352211e916024808301926020929190829003018186803b1580156144d557600080fd5b505afa1580156144e9573d6000803e3d6000fd5b505050506040513d60208110156144ff57600080fd5b50516001600160a01b031614614542576040805162461bcd60e51b815260206004820152600360248201526227209960e91b604482015290519081900360640190fd5b6145858a8a8a848b8b8080601f016020809104026020016040519081016040528093929190818152602001838380828437600092019190915250614fe992505050565b6145908b89836150bd565b5050505050505050505050565b6000828152603360205260409020600201546145bb90611bbd6147da565b611f7b5760405162461bcd60e51b815260040180806020018281038252603081526020018061571d6030913960400191505060405180910390fd5b6001600160a01b0381166000908152608660205260408082209051859085908083838082843791909101948552505060405192839003602001909220549695505050505050565b614648600033612a07565b61467e576040805162461bcd60e51b8152602060048201526002602482015261414f60f01b604482015290519081900360640190fd5b611c0760788263ffffffff6147c516565b606b54600160a01b900460ff1690565b60009081526075602052604090208054600182015460048301546002840154600385015460058601546006909601546001600160a01b039586169795909416959294919390929160ff90911690565b6001600160a01b039081166000908152608b60205260409020541690565b614717600033612a07565b61474d576040805162461bcd60e51b8152602060048201526002602482015261414f60f01b604482015290519081900360640190fd5b6074805460ff1916911515919091179055565b60006115f182615242565b60006126968383615246565b6000612696836001600160a01b0384166152aa565b600061269683836152aa565b600061269683836152c2565b60006126968383615388565b6000612696836001600160a01b038416615388565b6000612696836001600160a01b0384166152c2565b3390565b60008281526033602052604090206147fc908263ffffffff6147b016565b15611c07576148096147da565b6001600160a01b0316816001600160a01b0316837f2f8788117e7eff1d82e926ec794901d17c78024a50270940304540a733656f0d60405160405180910390a45050565b6000614858306153d2565b15905090565b600054610100900460ff1680614877575061487761484d565b80614885575060005460ff16155b6148c05760405162461bcd60e51b815260040180806020018281038252602e81526020018061574d602e913960400191505060405180910390fd5b600054610100900460ff161580156148eb576000805460ff1961ff0019909116610100171660011790555b6148f36153d8565b6148fb6153d8565b801561490d576000805461ff00191690555b50565b600082815260336020526040902061492e908263ffffffff6147c516565b15611c075761493b6147da565b6001600160a01b0316816001600160a01b0316837ff6391f5c32d9c69d2a47ea670b442974b53935d1edc7fd64eb21e047a839171b60405160405180910390a45050565b7f32fc32e8e6a367a782c09a02fa01aab4c63a2b183ce5fee9b74a77503c0667c7546001600160a01b0316600090815260866020908152604080832086845260879092528083209051815481908390600260001960018316156101000201909116048015614a245780601f10614a02576101008083540402835291820191614a24565b820191906000526020600020905b815481529060010190602001808311614a10575b50509283525050604080519182900360209081018320546000888152607f835283812054607e845284822054606554632499bb0960e01b885230600489015260248801829052604488018390526064880185905295519397509095909463ffffffff606087901c16946001600160a01b0390911693632499bb09936084808501948390030190829087803b158015614abb57600080fd5b505af1158015614acf573d6000803e3d6000fd5b505050506040513d6020811015614ae557600080fd5b5051935063ffffffff811615614b6757606a54604080516303bb877560e11b81526004810187905263ffffffff8416602482015290516001600160a01b03909216916307770eea9160448082019260009290919082900301818387803b158015614b4e57600080fd5b505af1158015614b62573d6000803e3d6000fd5b505050505b5050509392505050565b6000806000806000806000614b85896120ed565b95509550955095509550955060866000607a6000600260ff1660ff16815260200190815260200160002060009054906101000a90046001600160a01b03166001600160a01b03166001600160a01b03168152602001908152602001600020608760008c81526020019081526020016000206040518082805460018160011615610100020316600290048015614c515780601f10614c2f576101008083540402835291820191614c51565b820191906000526020600020905b815481529060010190602001808311614c3d575b5050928352505060408051602092819003830181205460665463502c4abd60e11b835230600484015261ffff8a8116602485015260ff8a8116604486015289166064850152608484018e905260a4840183905262ffffff881660c4850152861660e48401529251909a506001600160a01b039092169263a058957a92610104808401938290030181600087803b158015614cea57600080fd5b505af1158015614cfe573d6000803e3d6000fd5b505050506040513d6020811015614d1457600080fd5b5051965063ffffffff861615614d9657606b5460408051630244b00760e41b8152600481018a905263ffffffff8916602482015290516001600160a01b039092169163244b00709160448082019260009290919082900301818387803b158015614d7d57600080fd5b505af1158015614d91573d6000803e3d6000fd5b505050505b5050505050509392505050565b7f87b4f67b2406d03a55b52bb16d21c469b6c736dc05d05baecc1db4bc2bbb1dbf546001600160a01b0316600090815260866020908152604080832086845260879092528083209051815481908390600260001960018316156101000201909116048015614e485780601f10614e26576101008083540402835291820191614e48565b820191906000526020600020905b815481529060010190602001808311614e34575b50509283525050604080519182900360209081018320546000888152607f835283812054607e845284822054608a5463122c6d0760e21b885230600489015260248801829052604488018390526064880185905295519397509095909463ffffffff606087901c16946001600160a01b03909116936348b1b41c936084808501948390030190829087803b158015614edf57600080fd5b505af1158015614ef3573d6000803e3d6000fd5b505050506040513d6020811015614f0957600080fd5b5051979650505050505050565b60606089614f2383615478565b6040516020018083805460018160011615610100020316600290048015614f815780601f10614f5f576101008083540402835291820191614f81565b820191906000526020600020905b815481529060010190602001808311614f6d575b5050825160208401908083835b60208310614fad5780518252601f199092019160209182019101614f8e565b6001836020036101000a038019825116818451168082178552505050505050905001925050506040516020818303038152906040529050919050565b6000858152608c6020908152604080832087845282528083208590556001600160a01b0386168352606f82528083208584528252909120825161502e92840190615643565b508160866000856001600160a01b03166001600160a01b03168152602001908152602001600020826040518082805190602001908083835b602083106150855780518252601f199092019160209182019101615066565b51815160209384036101000a600019018019909216911617905292019485525060405193849003019092209290925550505050505050565b6001600160a01b038281166000908152606d60209081526040808320858452909152902054161561511b576040805162461bcd60e51b81526020600482015260036024820152624e413360e81b604482015290519081900360640190fd5b6001600160a01b0382166000908152606e60205260409020615143908263ffffffff61478c16565b615171576001600160a01b0382166000908152606e6020526040902061516f908263ffffffff6147a416565b505b6001600160a01b038281166000818152606d60209081526040808320868452825280832080546001600160a01b0319169589169586179055938252606c815283822092825291909152206151c590826147a4565b506001600160a01b03821660009081526077602090815260408083208484528252808320548352607590915290206006015460ff1660031415611aaf576001600160a01b0382166000908152607760209081526040808320848452825280832054835260759091529020600601805460ff19166005179055505050565b5490565b815460009082106152885760405162461bcd60e51b81526004018080602001828103825260228152602001806156cc6022913960400191505060405180910390fd5b82600001828154811061529757fe5b9060005260206000200154905092915050565b60009081526001919091016020526040902054151590565b6000818152600183016020526040812054801561537e57835460001980830191908101906000908790839081106152f557fe5b906000526020600020015490508087600001848154811061531257fe5b60009182526020808320909101929092558281526001898101909252604090209084019055865487908061534257fe5b6001900381819060005260206000200160009055905586600101600087815260200190815260200160002060009055600194505050505061265b565b600091505061265b565b600061539483836152aa565b6153ca5750815460018181018455600084815260208082209093018490558454848252828601909352604090209190915561265b565b50600061265b565b3b151590565b600054610100900460ff16806153f157506153f161484d565b806153ff575060005460ff16155b61543a5760405162461bcd60e51b815260040180806020018281038252602e81526020018061574d602e913960400191505060405180910390fd5b600054610100900460ff161580156148fb576000805460ff1961ff001990911661010017166001179055801561490d576000805461ff001916905550565b60608161549d57506040805180820190915260018152600360fc1b60208201526115f4565b8160005b81156154b557600101600a820491506154a1565b60608167ffffffffffffffff811180156154ce57600080fd5b506040519080825280601f01601f1916602001820160405280156154f9576020820181803683370190505b50905060001982015b851561554757600a860660300160f81b8282806001900393508151811061552557fe5b60200101906001600160f81b031916908160001a905350600a86049550615502565b50949350505050565b828054600181600116156101000203166002900490600052602060002090601f016020900481019282601f106155915782800160ff198235161785556155be565b828001600101855582156155be579182015b828111156155be5782358255916020019190600101906155a3565b506155ca9291506156b1565b5090565b828054600181600116156101000203166002900490600052602060002090601f016020900481019282601f1061560757805485556155be565b828001600101855582156155be57600052602060002091601f016020900482015b828111156155be578254825591600101919060010190615628565b828054600181600116156101000203166002900490600052602060002090601f016020900481019282601f1061568457805160ff19168380011785556155be565b828001600101855582156155be579182015b828111156155be578251825591602001919060010190615696565b611b9791905b808211156155ca57600081556001016156b756fe456e756d657261626c655365743a20696e646578206f7574206f6620626f756e6473416363657373436f6e74726f6c3a2073656e646572206d75737420626520616e2061646d696e20746f206772616e74416363657373436f6e74726f6c3a2073656e646572206d75737420626520616e2061646d696e20746f207265766f6b65496e697469616c697a61626c653a20636f6e747261637420697320616c726561647920696e697469616c697a6564416363657373436f6e74726f6c3a2063616e206f6e6c792072656e6f756e636520726f6c657320666f722073656c66a264697066735822122027d748def006d5bf8796d832e91e3c15b07c97ce71949553d1c38b0eabfffe0064736f6c63430006050033",
  "immutableReferences": {},
  "source": "pragma solidity ^0.6.0;\r\n\r\nimport \"@openzeppelin/contracts-upgradeable/proxy/Initializable.sol\";\r\nimport \"@openzeppelin/contracts-upgradeable/access/AccessControlUpgradeable.sol\";\r\nimport \"@openzeppelin/contracts-upgradeable/token/ERC721/IERC721ReceiverUpgradeable.sol\";\r\nimport \"@openzeppelin/contracts/utils/EnumerableSet.sol\";\r\nimport \"@openzeppelin/contracts/introspection/ERC165Checker.sol\";\r\nimport \"@openzeppelin/contracts/token/ERC721/IERC721.sol\";\r\nimport \"./weapons.sol\";\r\nimport \"./characters.sol\";\r\nimport \"./shields.sol\";\r\nimport \"./NFTMarket.sol\";\r\nimport \"./Promos.sol\";\r\nimport \"./WeaponRenameTagConsumables.sol\";\r\nimport \"./CharacterRenameTagConsumables.sol\";\r\nimport \"./WeaponCosmetics.sol\";\r\nimport \"./CharacterCosmetics.sol\";\r\nimport \"./interfaces/IBridgeProxy.sol\";\r\n\r\ncontract NFTStorage is IERC721ReceiverUpgradeable, Initializable, AccessControlUpgradeable\r\n{\r\n    using EnumerableSet for EnumerableSet.UintSet;\r\n    using EnumerableSet for EnumerableSet.AddressSet;\r\n\r\n    bytes4 private constant _INTERFACE_ID_ERC721 = 0x80ac58cd;\r\n    bytes32 public constant GAME_ADMIN = keccak256(\"GAME_ADMIN\");\r\n\r\n    Weapons weapons;\r\n    Characters characters;\r\n    NFTMarket nftMarket;\r\n    WeaponRenameTagConsumables weaponRenameTagConsumables;\r\n    CharacterRenameTagConsumables characterRenameTagConsumables;\r\n    WeaponCosmetics weaponCosmetics;\r\n    CharacterCosmetics characterCosmetics;\r\n\r\n    bool storageEnabled;\r\n    // sender + token address => ids\r\n    mapping(address => mapping(address => EnumerableSet.UintSet)) private storedItems;\r\n    // token address + id => owner who stored\r\n    mapping(address => mapping(uint256 => address)) private storedItemsOwners;\r\n    // All stored items\r\n    mapping(address => EnumerableSet.UintSet) private allStoredItems;\r\n    // Ideally this would be put in weapons / chars etc.. but hit contract limit on weapons so putting this here for now\r\n    mapping(address => mapping(uint256 => string)) private nftChainIds;\r\n\r\n    // Keeping thing in check\r\n    // A player can only have one pending request at a time\r\n\r\n    uint8 public constant TRANSFER_OUT_STATUS_NONE = 0;\r\n    uint8 public constant TRANSFER_OUT_STATUS_PENDING = 1;\r\n    uint8 public constant TRANSFER_OUT_STATUS_PROCESSING = 2;\r\n    uint8 public constant TRANSFER_OUT_STATUS_DONE = 3;\r\n    uint8 public constant TRANSFER_OUT_STATUS_ERROR = 4;\r\n    uint8 public constant TRANSFER_OUT_STATUS_RESTORED = 5;\r\n\r\n    struct TransferOut {\r\n        address owner;\r\n        address nftAddress;\r\n\r\n        uint256 requestBlock; // For tracking. Requested on block x\r\n        uint256 lastUpdateBlock; // For tracking. Last Update on block y\r\n        uint256 nftId;\r\n\r\n        uint256 chainId;\r\n        uint8 status; // enumeration. 0 => nothing, 1 => transfer requested, 2 => moved\r\n    }\r\n\r\n    // Bot stuff\r\n    uint256 private _transfersOutAt;\r\n    uint256 private _transfersOutCount;\r\n    mapping(uint256 => bool) private _bridgeEnabled; // Which chain can we go to from here?\r\n    mapping(uint256 => string) private _chainPrefix; // Prefix to prepend to chainId\r\n    bool private _botEnabled;\r\n    mapping(uint256 => TransferOut) private transferOuts;\r\n\r\n    // Player stuff\r\n    // Player => bridgeTransferId\r\n    mapping(address => uint256) private transferOutOfPlayers;\r\n\r\n    // NFT stuff, an NFT should at most have one BridgeTransfer\r\n    // NFT => id => bridgeTransferId\r\n    mapping(address => mapping(uint256 => uint256)) private transferOutOfNFTs;\r\n\r\n    // address is IERC721\r\n    EnumerableSet.AddressSet private supportedTokenTypes;\r\n\r\n    uint8 public constant TRANSFER_IN_STATUS_AVAILABLE = 1;\r\n    uint8 public constant TRANSFER_IN_STATUS_WITHDRAWN = 2;\r\n\r\n    // Bot deposited items to be extracted by player\r\n    uint8 public constant NFT_TYPE_WEAPON = 1;\r\n    uint8 public constant NFT_TYPE_CHARACTER = 2;\r\n    uint8 public constant NFT_TYPE_SHIELD = 3;\r\n\r\n    mapping(uint8 => address) private nftTypeToAddress;\r\n\r\n    // Struct to hold data that will always be needed + rename because it can't be packed.\r\n    // transferInsMeta will hold actual NFT data packed\r\n    struct TransferIn {\r\n        address owner;\r\n\r\n        uint8 nftType;\r\n        uint256 sourceChain;\r\n        uint256 sourceId;\r\n\r\n        string rename;\r\n\r\n        uint256 arrivedAt; // For tracking. Arrived on block x\r\n        uint256 lastUpdateBlock; // For tracking. Last Update on block y\r\n\r\n        uint8 status; // enumeration. 0 => waiting, 1 => claimed\r\n    }\r\n\r\n    // Player address => items to be extracted\r\n    mapping(address => EnumerableSet.UintSet) private receivedNFTs;\r\n\r\n    uint256 private _transferInsAt;\r\n    mapping(uint256 => TransferIn) private transferIns;\r\n    mapping(uint256 => uint256) private transferInsMeta;\r\n    mapping(uint256 => uint256) private transferInSeeds;\r\n\r\n\r\n    EnumerableSet.UintSet private _supportedChains;\r\n\r\n    // Source chain => NFT Type => NFTId of source chain => transfer id\r\n    mapping(uint256 => mapping(uint256 => mapping(uint256 => uint256))) private _transferInsLog;\r\n    // Transfer id => minted item Id; no need for NFT type; we can get that from trasnfer in info\r\n    mapping(uint256 => uint256) private _withdrawFromBridgeLog;\r\n\r\n    CryptoBlades public game;\r\n    uint256 private _bridgeFee;\r\n\r\n    // global chainid => local mint id\r\n    mapping(address => mapping(string => uint256)) private nftChainIdsToMintId;\r\n\r\n    mapping(uint256 => string) private transferInChainId;\r\n\r\n    Promos public promos;\r\n\r\n    string private _localChainPrefix;\r\n\r\n    Shields shields;\r\n\r\n    // Bot 2.0\r\n    // Proxy contracts\r\n    mapping(address => address) private nftProxyContract;\r\n    // Source chain => transfer out id of source chain => mintid (mint id 0 doesn't exist...)\r\n    mapping(uint256 => mapping(uint256 => uint256)) private bot2p0Log;\r\n    // NFT => allowed networks to bridge into\r\n    mapping(address => EnumerableSet.UintSet) private nftAllowedChains;\r\n    // Target network => allowed nfts\r\n    mapping(uint256 => EnumerableSet.AddressSet) private targetChainAllowedNFTs;\r\n\r\n    event NFTStored(address indexed owner, IERC721 indexed nftAddress, uint256 indexed nftID);\r\n    event NFTWithdrawn(address indexed owner, IERC721 indexed nftAddress, uint256 indexed nftID);\r\n    event NFTTransferOutRequest(address indexed owner, IERC721 indexed nftAddress, uint256 indexed nftID);\r\n    event NFTTransferOutCanceled(address indexed owner);\r\n    event NFTTransferUpdate(uint256 indexed requestId, uint8 status, bool forced);\r\n    event TransferedIn(address indexed receiver, uint8 nftType, uint256 sourceChain, uint256 indexed sourceId);\r\n    event NFTWithdrawnFromBridge(address indexed receiver, uint256 indexed bridgedId, uint8 nftType, uint256 indexed mintedId);\r\n\r\n    function initialize(address _weaponsAddress, address _charactersAddress, WeaponRenameTagConsumables _weaponRenameTagConsumables, CharacterRenameTagConsumables _characterRenameTagConsumables,\r\n     WeaponCosmetics _weaponCosmetics, CharacterCosmetics _characterCosmetics, NFTMarket _nftMarket)\r\n        public\r\n        initializer\r\n    {\r\n        __AccessControl_init();\r\n\r\n        _setupRole(DEFAULT_ADMIN_ROLE, msg.sender);\r\n\r\n        weapons = Weapons(_weaponsAddress);\r\n        nftTypeToAddress[NFT_TYPE_WEAPON] = _weaponsAddress;\r\n\r\n        characters = Characters(_charactersAddress);\r\n        nftTypeToAddress[NFT_TYPE_CHARACTER] =_charactersAddress;\r\n\r\n        weaponRenameTagConsumables = _weaponRenameTagConsumables;\r\n        characterRenameTagConsumables = _characterRenameTagConsumables;\r\n\r\n        weaponCosmetics = _weaponCosmetics;\r\n        characterCosmetics = _characterCosmetics;\r\n\r\n        nftMarket = _nftMarket;\r\n    }\r\n\r\n    function migrateTo_56837f7(CryptoBlades _game) external {\r\n        require(hasRole(DEFAULT_ADMIN_ROLE, msg.sender), \"Not admin\");\r\n\r\n        game = _game;\r\n    }\r\n\r\n    function migrateTo_98bf302(Promos _promos) public {\r\n        require(hasRole(DEFAULT_ADMIN_ROLE, msg.sender), \"Not admin\");\r\n\r\n        promos = _promos;\r\n    }\r\n\r\n    function migrateTo_3f597dc(address _shieldsAddress) public {\r\n        require(hasRole(DEFAULT_ADMIN_ROLE, msg.sender), \"Not admin\");\r\n\r\n        shields = Shields(_shieldsAddress);\r\n        nftTypeToAddress[NFT_TYPE_SHIELD] =_shieldsAddress;\r\n    }\r\n\r\n    modifier restricted() {\r\n        require(hasRole(DEFAULT_ADMIN_ROLE, msg.sender), \"AO\");\r\n        _;\r\n    }\r\n\r\n    modifier gameAdminRestricted() {\r\n        require(hasRole(GAME_ADMIN, msg.sender) || hasRole(DEFAULT_ADMIN_ROLE, msg.sender), \"NGA\");\r\n        _;\r\n    }\r\n\r\n    modifier isStored(IERC721 _tokenAddress, uint256 id) {\r\n        require(\r\n            supportedTokenTypes.contains(address(_tokenAddress)) &&\r\n                storedItems[msg.sender][address(_tokenAddress)].contains(id),\r\n            \"Not listed\"\r\n        );\r\n        _;\r\n    }\r\n\r\n    modifier isNotStored(IERC721 _tokenAddress, uint256 id) {\r\n        require(\r\n            !supportedTokenTypes.contains(address(_tokenAddress)) ||\r\n                !storedItems[msg.sender][address(_tokenAddress)].contains(id),\r\n            \"Already listed\"\r\n        );\r\n        _;\r\n    }\r\n\r\n    modifier isOwner(IERC721 _tokenAddress, uint256 id) {\r\n        require(\r\n            storedItemsOwners[address(_tokenAddress)][id] == msg.sender,\r\n            \"Access denied\"\r\n        );\r\n        _;\r\n    }\r\n\r\n    modifier tokenNotBanned(IERC721 _tokenAddress) {\r\n        require(\r\n            isTokenSupported(_tokenAddress),\r\n            \"Error\"\r\n        );\r\n        _;\r\n    }\r\n\r\n    modifier notBridged(IERC721 _tokenAddress, uint256 id) {\r\n         require(\r\n            transferOuts[transferOutOfNFTs[address(_tokenAddress)][id]].status == TRANSFER_OUT_STATUS_NONE\r\n            || transferOuts[transferOutOfNFTs[address(_tokenAddress)][id]].status == TRANSFER_OUT_STATUS_RESTORED,\r\n            \"Pending bridge\"\r\n        );\r\n        _;\r\n    }\r\n\r\n     modifier canStore() {\r\n         require(\r\n            storageEnabled && promos.getBit(msg.sender, promos.BIT_BAD_ACTOR()) == false,\r\n            \"storage disabled\"\r\n        );\r\n        _;\r\n    }\r\n\r\n     modifier bridgeEnabled(uint256 targetChain) {\r\n         require(\r\n            _bridgeEnabled[targetChain],\r\n            \"bridging disabled\"\r\n        );\r\n        _;\r\n    }\r\n\r\n    modifier noPendingBridge() {\r\n         require(\r\n            transferOuts[transferOutOfPlayers[msg.sender]].status == TRANSFER_OUT_STATUS_NONE\r\n            || transferOuts[transferOutOfPlayers[msg.sender]].status == TRANSFER_OUT_STATUS_DONE\r\n            || transferOuts[transferOutOfPlayers[msg.sender]].status == TRANSFER_OUT_STATUS_RESTORED,\r\n            \"Cannot request a bridge\"\r\n        );\r\n        _;\r\n    }\r\n\r\n    modifier ownsBridgedNFT(uint256 bridgedNFT) {\r\n         require( transferIns[bridgedNFT].owner == msg.sender, \"not bridged NFT owner\" );\r\n        _;\r\n    }\r\n\r\n    modifier bridgeSupported(IERC721 _tokenAddress, uint256 _id, uint256 targetChain) {\r\n        require(_id != 0, \"BNS1\"); // avoid sanity issues with mappings; just dont support 0\r\n        require(nftAllowedChains[address(_tokenAddress)].contains(targetChain), \"BNS2\"); // We support bridging from this chain to that chain\r\n        require(IBridgeProxy(nftProxyContract[address(_tokenAddress)]).isEnabled(), \"BNS3\");\r\n        _;\r\n    }\r\n    \r\n    // fail safes\r\n    modifier canWithdrawBridgedNFT(uint256 bridgedNFT) {\r\n         require( transferIns[bridgedNFT].status == TRANSFER_IN_STATUS_AVAILABLE, \"not available\" );\r\n         require( nftTypeToAddress[transferIns[bridgedNFT].nftType] != address(0), \"NFT not defined\" );\r\n        _;\r\n    }\r\n\r\n    function isTokenSupported(IERC721 _tokenAddress) public view returns (bool) {\r\n        return supportedTokenTypes.contains(address(_tokenAddress));\r\n    }\r\n\r\n    function getSupportedTokenTypes() public view returns (IERC721[] memory) {\r\n        EnumerableSet.AddressSet storage set = supportedTokenTypes;\r\n        IERC721[] memory tokens = new IERC721[](set.length());\r\n\r\n        for (uint256 i = 0; i < tokens.length; i++) {\r\n            tokens[i] = IERC721(set.at(i));\r\n        }\r\n        return tokens;\r\n    }\r\n\r\n    // Get # of stored items of player for NFT\r\n    function getNumberOfStoragedItems(\r\n        IERC721 _tokenAddress\r\n    ) public view returns (uint256) {\r\n        return getNumberOfStoragedItems(_tokenAddress, msg.sender);\r\n    }\r\n\r\n    function getNumberOfStoragedItems(\r\n        IERC721 _tokenAddress,\r\n        address playerAddress\r\n    ) public view returns (uint256) {\r\n        return storedItems[playerAddress][address(_tokenAddress)].length();\r\n    }\r\n\r\n    // Get stored items of player for NFT\r\n    function getStorageItemIds(\r\n        IERC721 _tokenAddress\r\n    ) public view  returns (uint256[] memory tokens) {\r\n\r\n        return getStorageItemIds(_tokenAddress, msg.sender);\r\n    }\r\n\r\n    function getStorageItemIds(\r\n        IERC721 _tokenAddress,\r\n        address playerAddress\r\n    ) public view  returns (uint256[] memory tokens) {\r\n\r\n        uint256 amount = getNumberOfStoragedItems(_tokenAddress, playerAddress);\r\n        tokens = new uint256[](amount);\r\n\r\n        EnumerableSet.UintSet storage storedTokens = storedItems[playerAddress][address(_tokenAddress)];\r\n\r\n        for (uint256 i = 0; i < storedTokens.length(); i++) {\r\n            uint256 id = storedTokens.at(i);\r\n                tokens[i] = id;\r\n        }\r\n    }\r\n\r\n    // Player adds NFT to storage\r\n    function storeItem(\r\n        IERC721 _tokenAddress,\r\n        uint256 _id\r\n    )\r\n        public\r\n        tokenNotBanned(_tokenAddress)\r\n        isNotStored(_tokenAddress, _id)\r\n        canStore()\r\n    {\r\n        storedItems[msg.sender][address(_tokenAddress)].add(_id);\r\n        allStoredItems[address(_tokenAddress)].add(_id);\r\n        storedItemsOwners[address(_tokenAddress)][_id] = msg.sender;\r\n\r\n        _tokenAddress.safeTransferFrom(msg.sender, address(this), _id);\r\n\r\n        emit NFTStored(msg.sender, _tokenAddress, _id);\r\n    }\r\n\r\n    // Player withdraws NFT from storage.\r\n    function withdrawFromStorage(IERC721 _tokenAddress, uint256 _id)\r\n        public\r\n        isStored(_tokenAddress, _id)\r\n        isOwner(_tokenAddress, _id)\r\n        notBridged(_tokenAddress, _id)\r\n    {\r\n        storedItems[msg.sender][address(_tokenAddress)].remove(_id);\r\n        allStoredItems[address(_tokenAddress)].remove(_id);\r\n        delete storedItemsOwners[address(_tokenAddress)][_id];\r\n\r\n        _tokenAddress.safeTransferFrom(address(this), msg.sender, _id);\r\n\r\n        emit NFTWithdrawn(msg.sender, _tokenAddress, _id);\r\n    }\r\n\r\n    function allowToken(IERC721 _tokenAddress) public restricted {\r\n        supportedTokenTypes.add(address(_tokenAddress));\r\n    }\r\n\r\n    function disallowToken(IERC721 _tokenAddress) public restricted {\r\n        supportedTokenTypes.remove(address(_tokenAddress));\r\n    }\r\n\r\n    // something\r\n    function onERC721Received(\r\n        address, /* operator */\r\n        address, /* from */\r\n        uint256 _id,\r\n        bytes calldata /* data */\r\n    ) external override returns (bytes4) {\r\n        // NOTE: The contract address is always the message sender.\r\n        address _tokenAddress = msg.sender;\r\n\r\n        require(\r\n            supportedTokenTypes.contains(_tokenAddress) &&\r\n                allStoredItems[_tokenAddress].contains(_id),\r\n            \"Token ID not listed\"\r\n        );\r\n\r\n        return IERC721ReceiverUpgradeable.onERC721Received.selector;\r\n    }\r\n\r\n\r\n    function storageIsEnabled() public view returns (bool) {\r\n        return storageEnabled;\r\n    }\r\n\r\n    function setStorageEnabled(bool enabled) public restricted {\r\n        storageEnabled = enabled;\r\n    }\r\n\r\n    // bridge stuff\r\n    function chainBridgeEnabled(uint256 chainId) public view returns (bool) {\r\n        return _bridgeEnabled[chainId];\r\n    }\r\n\r\n    function getEnabledChainsForBridging() public view  returns (uint256[] memory chainIds) {\r\n        uint256 amount = _supportedChains.length();\r\n        chainIds = new uint256[](amount);\r\n\r\n        for (uint256 i = 0; i < amount; i++) {\r\n            uint256 id = _supportedChains.at(i);\r\n                chainIds[i] = id;\r\n        }\r\n    }\r\n\r\n\r\n    function toggleChainBridgeEnabled(uint256 chainId, string memory prefix, bool enable) public restricted {\r\n        _bridgeEnabled[chainId] = enable;\r\n        _chainPrefix[chainId] = prefix;\r\n\r\n        if(enable) {\r\n            _supportedChains.add(chainId);\r\n        } else {\r\n            _supportedChains.remove(chainId);\r\n        }\r\n    }\r\n\r\n    // Player requests to bridge an item\r\n    function bridgeItem(\r\n        IERC721 _tokenAddress,\r\n        uint256 _id,\r\n        uint256 targetChain\r\n    )\r\n        public\r\n        tokenNotBanned(_tokenAddress)\r\n        isStored(_tokenAddress, _id)\r\n        isOwner(_tokenAddress, _id) // isStored built in but why not\r\n        bridgeSupported(_tokenAddress, _id, targetChain)\r\n        bridgeEnabled(targetChain)\r\n        noPendingBridge()\r\n        canStore()\r\n    {\r\n        game.payContractTokenOnly(msg.sender, _bridgeFee);\r\n        transferOuts[++_transfersOutCount] = TransferOut(msg.sender, address(_tokenAddress), block.number, 0, _id, targetChain, 1);\r\n        transferOutOfPlayers[msg.sender] = _transfersOutCount;\r\n        transferOutOfNFTs[address(_tokenAddress)][_id] = _transfersOutCount;\r\n\r\n        // Set the chainid if none is set already\r\n        // Not set => this is a local mint that was not bridged in\r\n        // Set it to LocalPrefixMintId (Example BSC123, HECO456)\r\n        if(bytes(nftChainIds[address(_tokenAddress)][_id]).length == 0){\r\n            string memory chainId = buildChainId(_id);\r\n            nftChainIds[address(_tokenAddress)][_id] = chainId;\r\n            nftChainIdsToMintId[address(_tokenAddress)][chainId] = _id;\r\n        }\r\n\r\n        emit NFTTransferOutRequest(msg.sender, _tokenAddress, _id);\r\n    }\r\n\r\n    // Player cancels bridge request. Can only happen if it's pending.\r\n    function cancelBridge() public\r\n    {\r\n        TransferOut storage transferOut = transferOuts[transferOutOfPlayers[msg.sender]];\r\n\r\n        require(transferOut.status == TRANSFER_OUT_STATUS_PENDING, 'no pending bridge');\r\n        transferOut.status = TRANSFER_OUT_STATUS_NONE;\r\n        transferOut.lastUpdateBlock = block.number;\r\n\r\n        emit NFTTransferOutCanceled(msg.sender);\r\n    }\r\n\r\n    // Player received NFTs waiting to be converted to NFTs\r\n    function getReceivedNFTs() public view  returns (uint256[] memory tokens) {\r\n        uint256 amount = receivedNFTs[msg.sender].length();\r\n        tokens = new uint256[](amount);\r\n\r\n        EnumerableSet.UintSet storage storedTokens = receivedNFTs[msg.sender];\r\n\r\n        for (uint256 i = 0; i < storedTokens.length(); i++) {\r\n            uint256 id = storedTokens.at(i);\r\n                tokens[i] = id;\r\n        }\r\n    }\r\n\r\n    function getReceivedNFT(uint256 receivedNFT) public view  returns (address, uint8, uint256, uint256, uint8, uint256) {\r\n        TransferIn storage transferIn = transferIns[receivedNFT];\r\n        return (transferIn.owner, transferIn.nftType, transferIn.sourceChain, transferIn.sourceId, transferIn.status, transferInsMeta[receivedNFT]);\r\n    }\r\n\r\n    // to be removed eventually; bot will now mint into storage\r\n    function withdrawFromBridge(uint256 bridgedNFT) ownsBridgedNFT(bridgedNFT) canWithdrawBridgedNFT(bridgedNFT) canStore() public {\r\n        uint256 mintedItem;\r\n        TransferIn storage transferIn = transferIns[bridgedNFT];\r\n        uint256 seed = transferInSeeds[bridgedNFT];\r\n\r\n        if(transferIn.nftType == NFT_TYPE_WEAPON) {\r\n            mintedItem = _withdrawWeaponFromBridge(bridgedNFT, transferIn.sourceChain, transferIn.sourceId);\r\n            require(weapons.ownerOf(mintedItem) == address(this), \"NAW\"); // The minted item, if already existed, should be in storage\r\n            if(bytes(transferIn.rename).length > 0) {\r\n                weaponRenameTagConsumables.setName(mintedItem, transferIn.rename);\r\n            }\r\n        }\r\n        else if(transferIn.nftType == NFT_TYPE_CHARACTER) {\r\n            mintedItem = _withdrawCharacterFromBridge(bridgedNFT, transferInsMeta[bridgedNFT], seed);\r\n            require(characters.ownerOf(mintedItem) == address(this), \"NAC\"); // The minted item, if already existed, should be in storage\r\n            if(bytes(transferIn.rename).length > 0) {\r\n                characterRenameTagConsumables.setName(mintedItem, transferIn.rename);\r\n            }\r\n        }\r\n        else if(transferIn.nftType == NFT_TYPE_SHIELD) {\r\n            mintedItem = _withdrawShieldFromBridge(bridgedNFT, transferIn.sourceChain, transferIn.sourceId);\r\n            require(shields.ownerOf(mintedItem) == address(this), \"NAS\"); // The minted item, if already existed, should be in storage\r\n        }\r\n\r\n        if(transferOuts[transferOutOfNFTs[nftTypeToAddress[transferIn.nftType]][mintedItem]].status == TRANSFER_OUT_STATUS_DONE) {\r\n            transferOuts[transferOutOfNFTs[nftTypeToAddress[transferIn.nftType]][mintedItem]].status = TRANSFER_OUT_STATUS_RESTORED;\r\n        }\r\n\r\n        address nftAddress = nftTypeToAddress[transferIn.nftType];\r\n        allStoredItems[nftAddress].add(mintedItem);\r\n        storedItemsOwners[nftAddress][mintedItem] = transferIn.owner;\r\n        storedItems[transferIn.owner][nftAddress].add(mintedItem);\r\n\r\n        receivedNFTs[msg.sender].remove(bridgedNFT);\r\n        transferIns[bridgedNFT].status = TRANSFER_IN_STATUS_WITHDRAWN;\r\n        transferIns[bridgedNFT].lastUpdateBlock = block.number;\r\n\r\n        // local mint id => global chain id\r\n        nftChainIds[nftTypeToAddress[transferIn.nftType]][mintedItem] = transferInChainId[bridgedNFT];\r\n        // global chain id => local mint id (to restore)\r\n        nftChainIdsToMintId[nftTypeToAddress[transferIn.nftType]][transferInChainId[bridgedNFT]] = mintedItem;\r\n        _withdrawFromBridgeLog[bridgedNFT] = mintedItem;\r\n\r\n        emit NFTWithdrawnFromBridge(transferIn.owner, bridgedNFT, transferIn.nftType, mintedItem);\r\n    }\r\n\r\n    // to be removed eventually; bot will now mint into storage\r\n    function _withdrawWeaponFromBridge(uint256 bridgedNFT, uint256 chainId, uint256 sourceId) internal returns (uint256 mintedId) {\r\n        // Get any existing mint that has this global id\r\n        mintedId = nftChainIdsToMintId[nftTypeToAddress[NFT_TYPE_WEAPON]][transferInChainId[bridgedNFT]];\r\n\r\n        uint256 seed = transferInSeeds[bridgedNFT];\r\n\r\n        uint256 meta = transferInsMeta[bridgedNFT];\r\n\r\n        uint32 appliedCosmetic = uint32((meta >> 96) & 0xFFFFFFFF);\r\n\r\n         mintedId =\r\n            weapons.performMintWeaponDetailed(address(this), meta, seed, mintedId);\r\n\r\n        if(appliedCosmetic > 0) {\r\n            weaponCosmetics.setWeaponCosmetic(mintedId, appliedCosmetic);\r\n         }\r\n    }\r\n\r\n    // to be removed eventually; bot will now mint into storage\r\n    function _withdrawCharacterFromBridge(uint256 bridgedNFT, uint256 metaData, uint256 seed) internal returns (uint256 mintedId) {\r\n        (uint32 appliedCosmetic, uint16 xp, uint8 level, uint8 trait, uint24 bonusPower, uint16 reputation)  = unpackCharactersData(metaData);\r\n\r\n        mintedId = nftChainIdsToMintId[nftTypeToAddress[NFT_TYPE_CHARACTER]][transferInChainId[bridgedNFT]];\r\n\r\n        mintedId =\r\n            characters.customMint(address(this), xp,\r\n            level, trait, seed, mintedId, bonusPower, reputation);\r\n\r\n            if(appliedCosmetic > 0) {\r\n                characterCosmetics.setCharacterCosmetic(mintedId, appliedCosmetic);\r\n            }\r\n    }\r\n\r\n    // to be removed eventually; bot will now mint into storage\r\n    function _withdrawShieldFromBridge(uint256 bridgedNFT, uint256 chainId, uint256 sourceId) internal returns (uint256 mintedId) {\r\n        mintedId = nftChainIdsToMintId[nftTypeToAddress[NFT_TYPE_SHIELD]][transferInChainId[bridgedNFT]];\r\n\r\n        uint256 seed = transferInSeeds[bridgedNFT];\r\n\r\n        uint256 meta = transferInsMeta[bridgedNFT];\r\n\r\n        uint32 appliedCosmetic = uint32((meta >> 96) & 0xFFFFFFFF);\r\n\r\n         mintedId =\r\n            shields.performMintShieldDetailed(address(this), meta, seed, mintedId);\r\n    }\r\n\r\n    function getNFTChainId(address nftAddress, uint256 nftId) public view returns (string memory chainId) {\r\n        chainId = nftChainIds[nftAddress][nftId];\r\n    }\r\n\r\n    function getNFTFromChainId(string calldata chainid, address nftAddress) external view returns (uint256 tokenId) {\r\n        tokenId = nftChainIdsToMintId[nftAddress][chainid];\r\n    }\r\n\r\n    function setNFTChainId(address nftAddress, uint256 nftId, string calldata chainId, bool forced) external gameAdminRestricted {\r\n        require(forced || (bytes(nftChainIds[nftAddress][nftId]).length == 0 && nftChainIdsToMintId[nftAddress][chainId] == 0), \"NA\");\r\n        nftChainIds[nftAddress][nftId] = chainId;\r\n        nftChainIdsToMintId[nftAddress][chainId] = nftId;\r\n    }\r\n\r\n    function setLocalChainPrefix(string calldata prefix) external restricted {\r\n        _localChainPrefix = prefix;\r\n    }\r\n\r\n    function getLocalChainPrefix() public view returns (string memory) {\r\n        return _localChainPrefix;\r\n    }\r\n\r\n    function setBridgeFee(uint256 newFee) external restricted {\r\n        _bridgeFee = newFee;\r\n    }\r\n\r\n     function getBridgeFee() public view returns (uint256){\r\n        return _bridgeFee;\r\n    }\r\n\r\n    // Bot stuff\r\n    function botEnabled() public view returns (bool) {\r\n        return _botEnabled;\r\n    }\r\n\r\n    function toggleBotEnabled(bool enable) public restricted {\r\n        _botEnabled = enable;\r\n    }\r\n\r\n    function getBridgeTransferAt() public view returns (uint256) {\r\n        return _transfersOutAt;\r\n    }\r\n\r\n    function setBridgeTransferAt(uint256 transfersOutAt) public gameAdminRestricted {\r\n        _transfersOutAt = transfersOutAt;\r\n    }\r\n\r\n    function getBridgeTransfers() public view returns (uint256) {\r\n        return _transfersOutCount;\r\n    }\r\n\r\n    // Transfer request of a player if any (only active one). Not bot... will move up\r\n    function getBridgeTransfer() public view returns (uint256) {\r\n        return getBridgeTransferOfPlayer(msg.sender);\r\n    }\r\n\r\n     function getBridgeTransferOfPlayer(address player) public view returns (uint256) {\r\n        return transferOutOfPlayers[player];\r\n    }\r\n\r\n    function getBridgeTransfer(uint256 bridgeTransferId) public view returns (address, address, uint256, uint256, uint256, uint256, uint8) {\r\n        TransferOut storage transferOut = transferOuts[bridgeTransferId];\r\n        return (transferOut.owner,\r\n                transferOut.nftAddress,\r\n                transferOut.nftId,\r\n                transferOut.requestBlock,\r\n                transferOut.lastUpdateBlock,\r\n                transferOut.chainId,\r\n                transferOut.status);\r\n    }\r\n\r\n    // Bot to update status of a transfer request (this chain => outside chain)\r\n    function updateBridgeTransferStatus(uint256 bridgeTransferId, uint8 status, bool forced) public gameAdminRestricted {\r\n        TransferOut storage transferOut = transferOuts[bridgeTransferId];\r\n        require(forced ||\r\n        (transferOut.status == TRANSFER_OUT_STATUS_PENDING && status == TRANSFER_OUT_STATUS_PROCESSING)\r\n        || (transferOut.status == TRANSFER_OUT_STATUS_PROCESSING && status == TRANSFER_OUT_STATUS_DONE)\r\n        || status == TRANSFER_OUT_STATUS_ERROR, 'Invalid status change');\r\n        transferOut.status = status;\r\n        transferOut.lastUpdateBlock = block.number;\r\n\r\n        if(status == TRANSFER_OUT_STATUS_DONE) {\r\n            transferOut = transferOuts[bridgeTransferId];\r\n            storedItems[transferOut.owner][transferOut.nftAddress].remove(transferOut.nftId);\r\n            allStoredItems[transferOut.nftAddress].remove(transferOut.nftId);\r\n            delete storedItemsOwners[transferOut.nftAddress][transferOut.nftId];\r\n        }\r\n\r\n        emit NFTTransferUpdate(bridgeTransferId, status, forced);\r\n    }\r\n\r\n    // To know if it actually made it\r\n    function getTransferInFromLog(uint256 sourceChain, uint8 nftType, uint256 sourceId) public view returns (uint256) {\r\n        return  _transferInsLog[sourceChain][nftType][sourceId];\r\n    }\r\n\r\n    // mint 0 wont be supported in bridging => if != 0 => it got here => transfer was made\r\n     function getTransferInFromLogV2(uint256 sourceChain, uint256 sourceTransferId) public view returns (uint256) {\r\n        return bot2p0Log[sourceChain][sourceTransferId];\r\n    }\r\n\r\n    function collectNFTData(address nftAddress, uint256 tokenId) external view returns (uint256[] memory uintVars, string memory stringVar) {\r\n        return IBridgeProxy(nftProxyContract[nftAddress]).collectData(tokenId);\r\n    }\r\n\r\n    function mintOrUpdate(address receiver, uint256 sourceChain, uint256 sourceTransfer, address nftAddress, string calldata chainId, uint256[] calldata uintVars, string calldata stringVar) external gameAdminRestricted {\r\n        require(bot2p0Log[sourceChain][sourceTransfer] == 0, \"NA\");\r\n        uint256 mintedId = nftChainIdsToMintId[nftAddress][chainId];\r\n\r\n        mintedId = IBridgeProxy(nftProxyContract[nftAddress]).mintOrUpdate(mintedId, uintVars, stringVar);\r\n\r\n        // Whether minted or updated, the bridge owns the NFT\r\n        require(IERC721(nftAddress).ownerOf(mintedId) == address(this), \"NA2\");\r\n        _logMintOrUpdate(sourceChain, sourceTransfer, nftAddress, mintedId, chainId);\r\n        _attachToWallet(receiver, nftAddress, mintedId);\r\n    }\r\n\r\n    function _logMintOrUpdate(uint256 sourceChain, uint256 sourceTransfer, address nftAddress, uint256 tokenId, string memory chainId) internal {\r\n        bot2p0Log[sourceChain][sourceTransfer] = tokenId;\r\n        nftChainIds[nftAddress][tokenId] = chainId;\r\n        nftChainIdsToMintId[nftAddress][chainId] = tokenId;\r\n    }\r\n\r\n    function _attachToWallet(address owner, address nftAddress, uint256 tokenId) internal {\r\n        // Not already attached\r\n        require(storedItemsOwners[nftAddress][tokenId] == address(0), \"NA3\");\r\n        \r\n        if(!allStoredItems[nftAddress].contains(tokenId)) {\r\n            allStoredItems[nftAddress].add(tokenId);\r\n        }\r\n        \r\n        storedItemsOwners[nftAddress][tokenId] = owner;\r\n        storedItems[owner][nftAddress].add(tokenId);\r\n\r\n        if(transferOuts[transferOutOfNFTs[nftAddress][tokenId]].status == TRANSFER_OUT_STATUS_DONE) {\r\n            transferOuts[transferOutOfNFTs[nftAddress][tokenId]].status = TRANSFER_OUT_STATUS_RESTORED;\r\n        }\r\n    }\r\n\r\n    function setProxyContract(address nft, address proxy, bool forced) external restricted {\r\n        require(forced || nftProxyContract[nft] == address(0), \"NA\");\r\n        nftProxyContract[nft] = proxy;\r\n    }\r\n\r\n    function getProxyContract(address nft) public view returns (address) {\r\n        return nftProxyContract[nft];\r\n    }\r\n\r\n    function setChainSupportedForNFT(address nft, uint256[] calldata chainIds, bool support) external restricted {\r\n        for (uint256 i = 0; i < chainIds.length; i++) {\r\n            uint256 chainId = chainIds[i];\r\n            if(support) {\r\n                require(!nftAllowedChains[nft].contains(chainId), \"NA\");\r\n                nftAllowedChains[nft].add(chainId);\r\n                targetChainAllowedNFTs[chainId].add(nft);\r\n            } else {\r\n                require(nftAllowedChains[nft].contains(chainId), \"NA2\");\r\n                nftAllowedChains[nft].remove(chainId);\r\n                targetChainAllowedNFTs[chainId].remove(nft);\r\n            }\r\n        }\r\n    }\r\n\r\n    function getChainsSupportingNFT(address nft) public view returns (uint256[] memory chains) {\r\n        chains = new uint256[](nftAllowedChains[nft].length());\r\n\r\n        for (uint256 i = 0; i < nftAllowedChains[nft].length(); i++) {\r\n            uint256 id = nftAllowedChains[nft].at(i);\r\n                chains[i] = id;\r\n        }\r\n    }\r\n\r\n    function getNFTsSupportedByChain(uint256 chain) public view returns (address[] memory nfts) {\r\n        nfts = new address[](targetChainAllowedNFTs[chain].length());\r\n\r\n        for (uint256 i = 0; i < targetChainAllowedNFTs[chain].length(); i++) {\r\n            address nft = targetChainAllowedNFTs[chain].at(i);\r\n                nfts[i] = nft;\r\n        }\r\n    }\r\n\r\n    function unpackCharactersData(uint256 metaData) public pure returns (uint32 appliedCosmetic, uint16 xp, uint8 level, uint8 trait, uint24 bonusPower, uint16 reputation) {\r\n        trait = uint8((metaData) & 0xFF);\r\n        level = uint8((metaData >> 8) & 0xFF);\r\n        xp = uint16(metaData  >> 16 & 0xFFFF);\r\n        appliedCosmetic = uint32((metaData >> 32) & 0xFFFFFFFF);\r\n        bonusPower = uint24((metaData >> 64) & 0xFFFFFF);\r\n        reputation = uint16((metaData >> 88) & 0xFFFF);\r\n    }\r\n\r\n    function buildChainId(uint256 sourceId) internal view returns (string memory) {\r\n        return string(abi.encodePacked(_localChainPrefix, uint2str(sourceId)));\r\n    }\r\n\r\n    function uint2str(uint i) internal pure returns (string memory) {\r\n        if (i == 0) return \"0\";\r\n        uint j = i;\r\n        uint length;\r\n        while (j != 0) {\r\n            length++;\r\n            j /= 10;\r\n        }\r\n        bytes memory bstr = new bytes(length);\r\n        uint k = length - 1;\r\n        while (i != 0) {\r\n            bstr[k--] = byte(uint8(48 + i % 10));\r\n            i /= 10;\r\n        }\r\n        return string(bstr);\r\n    }\r\n}\r\n",
  "sourcePath": "K:\\\\cryptoblades1\\cryptoblades\\contracts\\NFTStorage.sol",
  "compiler": {
    "name": "solc",
    "version": "0.6.5+commit.f956cc89.Emscripten.clang"
  },
  "schemaVersion": "3.4.5",
  "updatedAt": "2022-09-25T08:08:24.094Z",
  "networkType": "ethereum",
  "devdoc": {
    "methods": {
      "getRoleAdmin(bytes32)": {
        "details": "Returns the admin role that controls `role`. See {grantRole} and {revokeRole}.     * To change a role's admin, use {_setRoleAdmin}."
      },
      "getRoleMember(bytes32,uint256)": {
        "details": "Returns one of the accounts that have `role`. `index` must be a value between 0 and {getRoleMemberCount}, non-inclusive.     * Role bearers are not sorted in any particular way, and their ordering may change at any point.     * WARNING: When using {getRoleMember} and {getRoleMemberCount}, make sure you perform all queries on the same block. See the following https://forum.openzeppelin.com/t/iterating-over-elements-on-enumerableset-in-openzeppelin-contracts/2296[forum post] for more information."
      },
      "getRoleMemberCount(bytes32)": {
        "details": "Returns the number of accounts that have `role`. Can be used together with {getRoleMember} to enumerate all bearers of a role."
      },
      "grantRole(bytes32,address)": {
        "details": "Grants `role` to `account`.     * If `account` had not been already granted `role`, emits a {RoleGranted} event.     * Requirements:     * - the caller must have ``role``'s admin role."
      },
      "hasRole(bytes32,address)": {
        "details": "Returns `true` if `account` has been granted `role`."
      },
      "renounceRole(bytes32,address)": {
        "details": "Revokes `role` from the calling account.     * Roles are often managed via {grantRole} and {revokeRole}: this function's purpose is to provide a mechanism for accounts to lose their privileges if they are compromised (such as when a trusted device is misplaced).     * If the calling account had been granted `role`, emits a {RoleRevoked} event.     * Requirements:     * - the caller must be `account`."
      },
      "revokeRole(bytes32,address)": {
        "details": "Revokes `role` from `account`.     * If `account` had been granted `role`, emits a {RoleRevoked} event.     * Requirements:     * - the caller must have ``role``'s admin role."
      }
    }
  },
  "userdoc": {
    "methods": {}
  }
}