{
  "contractName": "PartnerGiveaways",
  "abi": [
    {
      "anonymous": false,
      "inputs": [
        {
          "indexed": true,
          "internalType": "bytes32",
          "name": "role",
          "type": "bytes32"
        },
        {
          "indexed": true,
          "internalType": "bytes32",
          "name": "previousAdminRole",
          "type": "bytes32"
        },
        {
          "indexed": true,
          "internalType": "bytes32",
          "name": "newAdminRole",
          "type": "bytes32"
        }
      ],
      "name": "RoleAdminChanged",
      "type": "event"
    },
    {
      "anonymous": false,
      "inputs": [
        {
          "indexed": true,
          "internalType": "bytes32",
          "name": "role",
          "type": "bytes32"
        },
        {
          "indexed": true,
          "internalType": "address",
          "name": "account",
          "type": "address"
        },
        {
          "indexed": true,
          "internalType": "address",
          "name": "sender",
          "type": "address"
        }
      ],
      "name": "RoleGranted",
      "type": "event"
    },
    {
      "anonymous": false,
      "inputs": [
        {
          "indexed": true,
          "internalType": "bytes32",
          "name": "role",
          "type": "bytes32"
        },
        {
          "indexed": true,
          "internalType": "address",
          "name": "account",
          "type": "address"
        },
        {
          "indexed": true,
          "internalType": "address",
          "name": "sender",
          "type": "address"
        }
      ],
      "name": "RoleRevoked",
      "type": "event"
    },
    {
      "inputs": [],
      "name": "DEFAULT_ADMIN_ROLE",
      "outputs": [
        {
          "internalType": "bytes32",
          "name": "",
          "type": "bytes32"
        }
      ],
      "stateMutability": "view",
      "type": "function",
      "constant": true
    },
    {
      "inputs": [],
      "name": "GAME_ADMIN",
      "outputs": [
        {
          "internalType": "bytes32",
          "name": "",
          "type": "bytes32"
        }
      ],
      "stateMutability": "view",
      "type": "function",
      "constant": true
    },
    {
      "inputs": [],
      "name": "VAR_SHARDS_REWARD",
      "outputs": [
        {
          "internalType": "uint256",
          "name": "",
          "type": "uint256"
        }
      ],
      "stateMutability": "view",
      "type": "function",
      "constant": true
    },
    {
      "inputs": [
        {
          "internalType": "bytes32",
          "name": "role",
          "type": "bytes32"
        }
      ],
      "name": "getRoleAdmin",
      "outputs": [
        {
          "internalType": "bytes32",
          "name": "",
          "type": "bytes32"
        }
      ],
      "stateMutability": "view",
      "type": "function",
      "constant": true
    },
    {
      "inputs": [
        {
          "internalType": "bytes32",
          "name": "role",
          "type": "bytes32"
        },
        {
          "internalType": "uint256",
          "name": "index",
          "type": "uint256"
        }
      ],
      "name": "getRoleMember",
      "outputs": [
        {
          "internalType": "address",
          "name": "",
          "type": "address"
        }
      ],
      "stateMutability": "view",
      "type": "function",
      "constant": true
    },
    {
      "inputs": [
        {
          "internalType": "bytes32",
          "name": "role",
          "type": "bytes32"
        }
      ],
      "name": "getRoleMemberCount",
      "outputs": [
        {
          "internalType": "uint256",
          "name": "",
          "type": "uint256"
        }
      ],
      "stateMutability": "view",
      "type": "function",
      "constant": true
    },
    {
      "inputs": [
        {
          "internalType": "uint256",
          "name": "",
          "type": "uint256"
        }
      ],
      "name": "giveawayEndTime",
      "outputs": [
        {
          "internalType": "uint256",
          "name": "",
          "type": "uint256"
        }
      ],
      "stateMutability": "view",
      "type": "function",
      "constant": true
    },
    {
      "inputs": [
        {
          "internalType": "uint256",
          "name": "",
          "type": "uint256"
        }
      ],
      "name": "giveawayIdToAddress",
      "outputs": [
        {
          "internalType": "address",
          "name": "",
          "type": "address"
        }
      ],
      "stateMutability": "view",
      "type": "function",
      "constant": true
    },
    {
      "inputs": [
        {
          "internalType": "bytes32",
          "name": "role",
          "type": "bytes32"
        },
        {
          "internalType": "address",
          "name": "account",
          "type": "address"
        }
      ],
      "name": "grantRole",
      "outputs": [],
      "stateMutability": "nonpayable",
      "type": "function"
    },
    {
      "inputs": [
        {
          "internalType": "bytes32",
          "name": "role",
          "type": "bytes32"
        },
        {
          "internalType": "address",
          "name": "account",
          "type": "address"
        }
      ],
      "name": "hasRole",
      "outputs": [
        {
          "internalType": "bool",
          "name": "",
          "type": "bool"
        }
      ],
      "stateMutability": "view",
      "type": "function",
      "constant": true
    },
    {
      "inputs": [],
      "name": "nextGiveawayId",
      "outputs": [
        {
          "internalType": "uint256",
          "name": "",
          "type": "uint256"
        }
      ],
      "stateMutability": "view",
      "type": "function",
      "constant": true
    },
    {
      "inputs": [
        {
          "internalType": "uint256",
          "name": "",
          "type": "uint256"
        },
        {
          "internalType": "uint256",
          "name": "",
          "type": "uint256"
        }
      ],
      "name": "nftClaimedAtGiveaway",
      "outputs": [
        {
          "internalType": "bool",
          "name": "",
          "type": "bool"
        }
      ],
      "stateMutability": "view",
      "type": "function",
      "constant": true
    },
    {
      "inputs": [
        {
          "internalType": "bytes32",
          "name": "role",
          "type": "bytes32"
        },
        {
          "internalType": "address",
          "name": "account",
          "type": "address"
        }
      ],
      "name": "renounceRole",
      "outputs": [],
      "stateMutability": "nonpayable",
      "type": "function"
    },
    {
      "inputs": [
        {
          "internalType": "bytes32",
          "name": "role",
          "type": "bytes32"
        },
        {
          "internalType": "address",
          "name": "account",
          "type": "address"
        }
      ],
      "name": "revokeRole",
      "outputs": [],
      "stateMutability": "nonpayable",
      "type": "function"
    },
    {
      "inputs": [],
      "name": "specialWeaponsManager",
      "outputs": [
        {
          "internalType": "contract SpecialWeaponsManager",
          "name": "",
          "type": "address"
        }
      ],
      "stateMutability": "view",
      "type": "function",
      "constant": true
    },
    {
      "inputs": [
        {
          "internalType": "address",
          "name": "",
          "type": "address"
        },
        {
          "internalType": "uint256",
          "name": "",
          "type": "uint256"
        }
      ],
      "name": "userClaimedAtGiveaway",
      "outputs": [
        {
          "internalType": "bool",
          "name": "",
          "type": "bool"
        }
      ],
      "stateMutability": "view",
      "type": "function",
      "constant": true
    },
    {
      "inputs": [
        {
          "internalType": "contract SpecialWeaponsManager",
          "name": "_specialWeaponsManager",
          "type": "address"
        }
      ],
      "name": "initialize",
      "outputs": [],
      "stateMutability": "nonpayable",
      "type": "function"
    },
    {
      "inputs": [
        {
          "internalType": "uint256",
          "name": "giveawayId",
          "type": "uint256"
        },
        {
          "internalType": "uint256",
          "name": "nftId",
          "type": "uint256"
        }
      ],
      "name": "getGiveawayClaimInfoForUser",
      "outputs": [
        {
          "internalType": "bool",
          "name": "didUserClaim",
          "type": "bool"
        },
        {
          "internalType": "bool",
          "name": "didNftClaim",
          "type": "bool"
        }
      ],
      "stateMutability": "view",
      "type": "function",
      "constant": true
    },
    {
      "inputs": [
        {
          "internalType": "address",
          "name": "requiredNftAddress",
          "type": "address"
        },
        {
          "internalType": "uint256",
          "name": "specialEventId",
          "type": "uint256"
        },
        {
          "internalType": "uint256",
          "name": "giveawayPeriod",
          "type": "uint256"
        }
      ],
      "name": "createGiveawayForNft",
      "outputs": [],
      "stateMutability": "nonpayable",
      "type": "function"
    },
    {
      "inputs": [
        {
          "internalType": "uint256",
          "name": "giveawayId",
          "type": "uint256"
        },
        {
          "internalType": "uint256",
          "name": "nftId",
          "type": "uint256"
        }
      ],
      "name": "claimReward",
      "outputs": [],
      "stateMutability": "nonpayable",
      "type": "function"
    },
    {
      "inputs": [
        {
          "internalType": "uint256",
          "name": "varField",
          "type": "uint256"
        },
        {
          "internalType": "uint256",
          "name": "value",
          "type": "uint256"
        }
      ],
      "name": "setVar",
      "outputs": [],
      "stateMutability": "nonpayable",
      "type": "function"
    },
    {
      "inputs": [
        {
          "internalType": "uint256[]",
          "name": "varFields",
          "type": "uint256[]"
        },
        {
          "internalType": "uint256[]",
          "name": "values",
          "type": "uint256[]"
        }
      ],
      "name": "setVars",
      "outputs": [],
      "stateMutability": "nonpayable",
      "type": "function"
    }
  ],
  "bytecode": "0x608060405234801561001057600080fd5b50611217806100206000396000f3fe608060405234801561001057600080fd5b50600436106101425760003560e01c80636ac56ac0116100b857806391d148541161007c57806391d1485414610406578063a217fddf14610432578063c4d66de81461043a578063ca15c87314610460578063d547741f1461047d578063e6f4ec05146104a957610142565b80636ac56ac0146103785780636c992a551461038057806386bb8f37146103a3578063871f952e146103c65780639010d07c146103e357610142565b80632f2ff15d1161010a5780632f2ff15d146102a657806336568abe146102d25780634500ea43146102fe5780634f8d587a1461031b5780635504d3d21461033e578063564ef0321461034657610142565b80630a7501bb146101475780631962bf2f1461020b578063212279b11461024b57806322838c8d1461026f578063248a9ca314610289575b600080fd5b6102096004803603604081101561015d57600080fd5b81019060208101813564010000000081111561017857600080fd5b82018360208201111561018a57600080fd5b803590602001918460208302840111640100000000831117156101ac57600080fd5b9193909290916020810190356401000000008111156101ca57600080fd5b8201836020820111156101dc57600080fd5b803590602001918460208302840111640100000000831117156101fe57600080fd5b5090925090506104e7565b005b6102376004803603604081101561022157600080fd5b506001600160a01b038135169060200135610546565b604080519115158252519081900360200190f35b610253610566565b604080516001600160a01b039092168252519081900360200190f35b610277610575565b60408051918252519081900360200190f35b6102776004803603602081101561029f57600080fd5b503561057a565b610209600480360360408110156102bc57600080fd5b50803590602001356001600160a01b031661058f565b610209600480360360408110156102e857600080fd5b50803590602001356001600160a01b03166105fb565b6102536004803603602081101561031457600080fd5b503561065c565b6102376004803603604081101561033157600080fd5b5080359060200135610677565b610277610697565b6102096004803603606081101561035c57600080fd5b506001600160a01b0381351690602081013590604001356106b9565b610277610720565b6102096004803603604081101561039657600080fd5b5080359060200135610726565b610209600480360360408110156103b957600080fd5b5080359060200135610740565b610277600480360360208110156103dc57600080fd5b50356109fb565b610253600480360360408110156103f957600080fd5b5080359060200135610a0d565b6102376004803603604081101561041c57600080fd5b50803590602001356001600160a01b0316610a34565b610277610a52565b6102096004803603602081101561045057600080fd5b50356001600160a01b0316610a57565b6102776004803603602081101561047657600080fd5b5035610b7e565b6102096004803603604081101561049357600080fd5b50803590602001356001600160a01b0316610b95565b6104cc600480360360408110156104bf57600080fd5b5080359060200135610bee565b60408051921515835290151560208301528051918290030190f35b6104ef610c27565b60005b8381101561053f5782828281811061050657fe5b905060200201356065600087878581811061051d57fe5b60209081029290920135835250810191909152604001600020556001016104f2565b5050505050565b606760209081526000928352604080842090915290825290205460ff1681565b6066546001600160a01b031681565b600181565b60009081526033602052604090206002015490565b6000828152603360205260409020600201546105b2906105ad610c89565b610a34565b6105ed5760405162461bcd60e51b815260040180806020018281038252602f8152602001806110dd602f913960400191505060405180910390fd5b6105f78282610c8d565b5050565b610603610c89565b6001600160a01b0316816001600160a01b0316146106525760405162461bcd60e51b815260040180806020018281038252602f8152602001806111b3602f913960400191505060405180910390fd5b6105f78282610cfc565b6069602052600090815260409020546001600160a01b031681565b606860209081526000928352604080842090915290825290205460ff1681565b604080516923a0a6a2afa0a226a4a760b11b8152905190819003600a01902081565b6106c1610c27565b606c8054600090815260696020908152604080832080546001600160a01b0319166001600160a01b03989098169790971790965582548252606a81528582209490945581548152606b9093529290912042909101905580546001019055565b606c5481565b61072e610c27565b60009182526065602052604090912055565b6000828152606960209081526040918290205482516331a9108f60e11b81526004810185905292516001600160a01b0390911692636352211e926024808301939192829003018186803b15801561079657600080fd5b505afa1580156107aa573d6000803e3d6000fd5b505050506040513d60208110156107c057600080fd5b50516001600160a01b0316331461080e576040805162461bcd60e51b815260206004820152600d60248201526c13999d081b9bdd081bdddb9959609a1b604482015290519081900360640190fd5b33600090815260676020908152604080832085845290915290205460ff16156108685760405162461bcd60e51b815260040180806020018281038252602681526020018061110c6026913960400191505060405180910390fd5b600082815260686020908152604080832084845290915290205460ff16156108c15760405162461bcd60e51b81526004018080602001828103825260238152602001806111906023913960400191505060405180910390fd5b6000828152606b6020526040902054421115610915576040805162461bcd60e51b815260206004820152600e60248201526d11da5d99585dd85e48195b99195960921b604482015290519081900360640190fd5b33600081815260676020908152604080832086845282528083208054600160ff199182168117909255606884528285208786528452828520805490911682179055606654878552606a84528285205491855260659093527f4d5a9bd2e41301728d41c8e705190becb4e74abe869f75bdb405b63716a35f9e548251630709898b60e51b8152600481019690965260248601919091526044850152516001600160a01b039091169263e131316092606480830193919282900301818387803b1580156109df57600080fd5b505af11580156109f3573d6000803e3d6000fd5b505050505050565b606b6020526000908152604090205481565b6000828152603360205260408120610a2b908363ffffffff610d6b16565b90505b92915050565b6000828152603360205260408120610a2b908363ffffffff610d7716565b600081565b600054610100900460ff1680610a705750610a70610d8c565b80610a7e575060005460ff16155b610ab95760405162461bcd60e51b815260040180806020018281038252602e815260200180611162602e913960400191505060405180910390fd5b600054610100900460ff16158015610ae4576000805460ff1961ff0019909116610100171660011790555b610aec610d9d565b610af76000336105ed565b604080516923a0a6a2afa0a226a4a760b11b8152905190819003600a019020610b2090336105ed565b606680546001600160a01b0319166001600160a01b03841617905560016000526065602052607d7f4d5a9bd2e41301728d41c8e705190becb4e74abe869f75bdb405b63716a35f9e5580156105f7576000805461ff00191690555050565b6000818152603360205260408120610a2e90610e4f565b600082815260336020526040902060020154610bb3906105ad610c89565b6106525760405162461bcd60e51b81526004018080602001828103825260308152602001806111326030913960400191505060405180910390fd5b3360009081526067602090815260408083209483529381528382205460688252848320938352929052919091205460ff91821692911690565b604080516923a0a6a2afa0a226a4a760b11b8152905190819003600a019020610c509033610a34565b610c87576040805162461bcd60e51b81526020600482015260036024820152624e474160e81b604482015290519081900360640190fd5b565b3390565b6000828152603360205260409020610cab908263ffffffff610e5a16565b156105f757610cb8610c89565b6001600160a01b0316816001600160a01b0316837f2f8788117e7eff1d82e926ec794901d17c78024a50270940304540a733656f0d60405160405180910390a45050565b6000828152603360205260409020610d1a908263ffffffff610e6f16565b156105f757610d27610c89565b6001600160a01b0316816001600160a01b0316837ff6391f5c32d9c69d2a47ea670b442974b53935d1edc7fd64eb21e047a839171b60405160405180910390a45050565b6000610a2b8383610e84565b6000610a2b836001600160a01b038416610ee8565b6000610d9730610f00565b15905090565b600054610100900460ff1680610db65750610db6610d8c565b80610dc4575060005460ff16155b610dff5760405162461bcd60e51b815260040180806020018281038252602e815260200180611162602e913960400191505060405180910390fd5b600054610100900460ff16158015610e2a576000805460ff1961ff0019909116610100171660011790555b610e32610f06565b610e3a610f06565b8015610e4c576000805461ff00191690555b50565b6000610a2e82610fa6565b6000610a2b836001600160a01b038416610faa565b6000610a2b836001600160a01b038416610ff4565b81546000908210610ec65760405162461bcd60e51b81526004018080602001828103825260228152602001806110bb6022913960400191505060405180910390fd5b826000018281548110610ed557fe5b9060005260206000200154905092915050565b60009081526001919091016020526040902054151590565b3b151590565b600054610100900460ff1680610f1f5750610f1f610d8c565b80610f2d575060005460ff16155b610f685760405162461bcd60e51b815260040180806020018281038252602e815260200180611162602e913960400191505060405180910390fd5b600054610100900460ff16158015610e3a576000805460ff1961ff0019909116610100171660011790558015610e4c576000805461ff001916905550565b5490565b6000610fb68383610ee8565b610fec57508154600181810184556000848152602080822090930184905584548482528286019093526040902091909155610a2e565b506000610a2e565b600081815260018301602052604081205480156110b0578354600019808301919081019060009087908390811061102757fe5b906000526020600020015490508087600001848154811061104457fe5b60009182526020808320909101929092558281526001898101909252604090209084019055865487908061107457fe5b60019003818190600052602060002001600090559055866001016000878152602001908152602001600020600090556001945050505050610a2e565b6000915050610a2e56fe456e756d657261626c655365743a20696e646578206f7574206f6620626f756e6473416363657373436f6e74726f6c3a2073656e646572206d75737420626520616e2061646d696e20746f206772616e7452657761726420666f7220746869732077616c6c657420616c726561647920636c61696d6564416363657373436f6e74726f6c3a2073656e646572206d75737420626520616e2061646d696e20746f207265766f6b65496e697469616c697a61626c653a20636f6e747261637420697320616c726561647920696e697469616c697a656452657761726420666f722074686973204e465420616c726561647920636c61696d6564416363657373436f6e74726f6c3a2063616e206f6e6c792072656e6f756e636520726f6c657320666f722073656c66a26469706673582212201f5cbc2fd5df0974426c3fdca89eeaf765b645636b9d6609fc72480ede404e5164736f6c63430006050033",
  "immutableReferences": {},
  "source": "pragma solidity ^0.6.2;\r\n\r\nimport \"@openzeppelin/contracts/math/SafeMath.sol\";\r\nimport \"@openzeppelin/contracts/token/ERC721/IERC721.sol\";\r\nimport \"../SpecialWeaponsManager.sol\";\r\n\r\ncontract PartnerGiveaways is Initializable, AccessControlUpgradeable {\r\n    using SafeMath for uint256;\r\n    using ABDKMath64x64 for int128;\r\n\r\n    bytes32 public constant GAME_ADMIN = keccak256(\"GAME_ADMIN\");\r\n    \r\n    mapping(uint256 => uint256) vars;\r\n    uint256 public constant VAR_SHARDS_REWARD = 1;\r\n\r\n    SpecialWeaponsManager public specialWeaponsManager;\r\n\r\n    mapping(address => mapping(uint256 => bool)) public userClaimedAtGiveaway;\r\n    mapping(uint256 => mapping(uint256 => bool)) public nftClaimedAtGiveaway;\r\n\r\n    mapping(uint256 => address) public giveawayIdToAddress;\r\n    mapping(uint256 => uint256) giveawayIdToSpecialEventId;\r\n    mapping(uint256 => uint256) public giveawayEndTime;\r\n\r\n    uint256 public nextGiveawayId;\r\n\r\n    function initialize(SpecialWeaponsManager _specialWeaponsManager)\r\n        public\r\n        initializer\r\n    {\r\n        __AccessControl_init();\r\n        _setupRole(DEFAULT_ADMIN_ROLE, msg.sender);\r\n        _setupRole(GAME_ADMIN, msg.sender);\r\n\r\n        specialWeaponsManager = _specialWeaponsManager;\r\n        vars[VAR_SHARDS_REWARD] = 125;\r\n    }\r\n\r\n    // MODIFIERS\r\n\r\n    modifier restricted() {\r\n        _restricted();\r\n        _;\r\n    }\r\n\r\n    function _restricted() internal view {\r\n        require(hasRole(GAME_ADMIN, msg.sender), \"NGA\");\r\n    }\r\n\r\n    // VIEWS\r\n\r\n    function getGiveawayClaimInfoForUser(uint256 giveawayId, uint256 nftId) external view returns(bool didUserClaim, bool didNftClaim){\r\n        didUserClaim = userClaimedAtGiveaway[msg.sender][giveawayId];\r\n        didNftClaim = nftClaimedAtGiveaway[giveawayId][nftId];\r\n    }\r\n\r\n    // FUNCTIONS\r\n    \r\n    function createGiveawayForNft(address requiredNftAddress, uint256 specialEventId, uint256 giveawayPeriod) external restricted {\r\n        giveawayIdToAddress[nextGiveawayId] = requiredNftAddress;\r\n        giveawayIdToSpecialEventId[nextGiveawayId] = specialEventId;\r\n        giveawayEndTime[nextGiveawayId] = block.timestamp + giveawayPeriod;\r\n        nextGiveawayId++; \r\n    }\r\n\r\n    function claimReward(uint256 giveawayId, uint256 nftId) external {\r\n        require(msg.sender == IERC721(giveawayIdToAddress[giveawayId]).ownerOf(nftId), \"Nft not owned\");\r\n        require(!userClaimedAtGiveaway[msg.sender][giveawayId], \"Reward for this wallet already claimed\");\r\n        require(!nftClaimedAtGiveaway[giveawayId][nftId], \"Reward for this NFT already claimed\");\r\n        require(block.timestamp <= giveawayEndTime[giveawayId], \"Giveaway ended\");\r\n        userClaimedAtGiveaway[msg.sender][giveawayId] = true;\r\n        nftClaimedAtGiveaway[giveawayId][nftId] = true;\r\n        specialWeaponsManager.addShards(msg.sender, giveawayIdToSpecialEventId[giveawayId], vars[VAR_SHARDS_REWARD]);\r\n    }\r\n\r\n    // VAR SETTER\r\n    function setVar(uint256 varField, uint256 value) external restricted {\r\n        vars[varField] = value;\r\n    }\r\n\r\n    function setVars(uint256[] calldata varFields, uint256[] calldata values) external restricted {\r\n        for(uint i = 0; i < varFields.length; i++) {\r\n            vars[varFields[i]] = values[i];\r\n        }\r\n    }\r\n}\r\n",
  "sourcePath": "K:\\\\cryptoblades1\\cryptoblades\\contracts\\partner-giveaways\\PartnerGiveaways.sol",
  "compiler": {
    "name": "solc",
    "version": "0.6.5+commit.f956cc89.Emscripten.clang"
  },
  "schemaVersion": "3.4.5",
  "updatedAt": "2022-09-25T08:05:26.630Z",
  "networkType": "ethereum",
  "devdoc": {
    "methods": {
      "getRoleAdmin(bytes32)": {
        "details": "Returns the admin role that controls `role`. See {grantRole} and {revokeRole}.     * To change a role's admin, use {_setRoleAdmin}."
      },
      "getRoleMember(bytes32,uint256)": {
        "details": "Returns one of the accounts that have `role`. `index` must be a value between 0 and {getRoleMemberCount}, non-inclusive.     * Role bearers are not sorted in any particular way, and their ordering may change at any point.     * WARNING: When using {getRoleMember} and {getRoleMemberCount}, make sure you perform all queries on the same block. See the following https://forum.openzeppelin.com/t/iterating-over-elements-on-enumerableset-in-openzeppelin-contracts/2296[forum post] for more information."
      },
      "getRoleMemberCount(bytes32)": {
        "details": "Returns the number of accounts that have `role`. Can be used together with {getRoleMember} to enumerate all bearers of a role."
      },
      "grantRole(bytes32,address)": {
        "details": "Grants `role` to `account`.     * If `account` had not been already granted `role`, emits a {RoleGranted} event.     * Requirements:     * - the caller must have ``role``'s admin role."
      },
      "hasRole(bytes32,address)": {
        "details": "Returns `true` if `account` has been granted `role`."
      },
      "renounceRole(bytes32,address)": {
        "details": "Revokes `role` from the calling account.     * Roles are often managed via {grantRole} and {revokeRole}: this function's purpose is to provide a mechanism for accounts to lose their privileges if they are compromised (such as when a trusted device is misplaced).     * If the calling account had been granted `role`, emits a {RoleRevoked} event.     * Requirements:     * - the caller must be `account`."
      },
      "revokeRole(bytes32,address)": {
        "details": "Revokes `role` from `account`.     * If `account` had been granted `role`, emits a {RoleRevoked} event.     * Requirements:     * - the caller must have ``role``'s admin role."
      }
    }
  },
  "userdoc": {
    "methods": {}
  }
}