{
  "contractName": "PartnerVault",
  "abi": [
    {
      "anonymous": false,
      "inputs": [
        {
          "indexed": true,
          "internalType": "bytes32",
          "name": "role",
          "type": "bytes32"
        },
        {
          "indexed": true,
          "internalType": "bytes32",
          "name": "previousAdminRole",
          "type": "bytes32"
        },
        {
          "indexed": true,
          "internalType": "bytes32",
          "name": "newAdminRole",
          "type": "bytes32"
        }
      ],
      "name": "RoleAdminChanged",
      "type": "event"
    },
    {
      "anonymous": false,
      "inputs": [
        {
          "indexed": true,
          "internalType": "bytes32",
          "name": "role",
          "type": "bytes32"
        },
        {
          "indexed": true,
          "internalType": "address",
          "name": "account",
          "type": "address"
        },
        {
          "indexed": true,
          "internalType": "address",
          "name": "sender",
          "type": "address"
        }
      ],
      "name": "RoleGranted",
      "type": "event"
    },
    {
      "anonymous": false,
      "inputs": [
        {
          "indexed": true,
          "internalType": "bytes32",
          "name": "role",
          "type": "bytes32"
        },
        {
          "indexed": true,
          "internalType": "address",
          "name": "account",
          "type": "address"
        },
        {
          "indexed": true,
          "internalType": "address",
          "name": "sender",
          "type": "address"
        }
      ],
      "name": "RoleRevoked",
      "type": "event"
    },
    {
      "inputs": [],
      "name": "DEFAULT_ADMIN_ROLE",
      "outputs": [
        {
          "internalType": "bytes32",
          "name": "",
          "type": "bytes32"
        }
      ],
      "stateMutability": "view",
      "type": "function",
      "constant": true
    },
    {
      "inputs": [],
      "name": "GAME_ADMIN",
      "outputs": [
        {
          "internalType": "bytes32",
          "name": "",
          "type": "bytes32"
        }
      ],
      "stateMutability": "view",
      "type": "function",
      "constant": true
    },
    {
      "inputs": [
        {
          "internalType": "address",
          "name": "",
          "type": "address"
        }
      ],
      "name": "currencies",
      "outputs": [
        {
          "internalType": "uint256",
          "name": "",
          "type": "uint256"
        }
      ],
      "stateMutability": "view",
      "type": "function",
      "constant": true
    },
    {
      "inputs": [
        {
          "internalType": "bytes32",
          "name": "role",
          "type": "bytes32"
        }
      ],
      "name": "getRoleAdmin",
      "outputs": [
        {
          "internalType": "bytes32",
          "name": "",
          "type": "bytes32"
        }
      ],
      "stateMutability": "view",
      "type": "function",
      "constant": true
    },
    {
      "inputs": [
        {
          "internalType": "bytes32",
          "name": "role",
          "type": "bytes32"
        },
        {
          "internalType": "uint256",
          "name": "index",
          "type": "uint256"
        }
      ],
      "name": "getRoleMember",
      "outputs": [
        {
          "internalType": "address",
          "name": "",
          "type": "address"
        }
      ],
      "stateMutability": "view",
      "type": "function",
      "constant": true
    },
    {
      "inputs": [
        {
          "internalType": "bytes32",
          "name": "role",
          "type": "bytes32"
        }
      ],
      "name": "getRoleMemberCount",
      "outputs": [
        {
          "internalType": "uint256",
          "name": "",
          "type": "uint256"
        }
      ],
      "stateMutability": "view",
      "type": "function",
      "constant": true
    },
    {
      "inputs": [
        {
          "internalType": "bytes32",
          "name": "role",
          "type": "bytes32"
        },
        {
          "internalType": "address",
          "name": "account",
          "type": "address"
        }
      ],
      "name": "grantRole",
      "outputs": [],
      "stateMutability": "nonpayable",
      "type": "function"
    },
    {
      "inputs": [
        {
          "internalType": "bytes32",
          "name": "role",
          "type": "bytes32"
        },
        {
          "internalType": "address",
          "name": "account",
          "type": "address"
        }
      ],
      "name": "hasRole",
      "outputs": [
        {
          "internalType": "bool",
          "name": "",
          "type": "bool"
        }
      ],
      "stateMutability": "view",
      "type": "function",
      "constant": true
    },
    {
      "inputs": [
        {
          "internalType": "address",
          "name": "",
          "type": "address"
        },
        {
          "internalType": "uint256",
          "name": "",
          "type": "uint256"
        }
      ],
      "name": "nfts",
      "outputs": [
        {
          "internalType": "uint256",
          "name": "",
          "type": "uint256"
        }
      ],
      "stateMutability": "view",
      "type": "function",
      "constant": true
    },
    {
      "inputs": [
        {
          "internalType": "bytes32",
          "name": "role",
          "type": "bytes32"
        },
        {
          "internalType": "address",
          "name": "account",
          "type": "address"
        }
      ],
      "name": "renounceRole",
      "outputs": [],
      "stateMutability": "nonpayable",
      "type": "function"
    },
    {
      "inputs": [
        {
          "internalType": "bytes32",
          "name": "role",
          "type": "bytes32"
        },
        {
          "internalType": "address",
          "name": "account",
          "type": "address"
        }
      ],
      "name": "revokeRole",
      "outputs": [],
      "stateMutability": "nonpayable",
      "type": "function"
    },
    {
      "inputs": [],
      "name": "initialize",
      "outputs": [],
      "stateMutability": "nonpayable",
      "type": "function"
    },
    {
      "inputs": [
        {
          "internalType": "address",
          "name": "",
          "type": "address"
        },
        {
          "internalType": "address",
          "name": "",
          "type": "address"
        },
        {
          "internalType": "uint256",
          "name": "_id",
          "type": "uint256"
        },
        {
          "internalType": "bytes",
          "name": "",
          "type": "bytes"
        }
      ],
      "name": "onERC721Received",
      "outputs": [
        {
          "internalType": "bytes4",
          "name": "",
          "type": "bytes4"
        }
      ],
      "stateMutability": "nonpayable",
      "type": "function"
    },
    {
      "inputs": [
        {
          "internalType": "contract IERC721",
          "name": "tokenAddress",
          "type": "address"
        },
        {
          "internalType": "uint256[]",
          "name": "tokenIds",
          "type": "uint256[]"
        }
      ],
      "name": "storeNfts",
      "outputs": [],
      "stateMutability": "nonpayable",
      "type": "function"
    },
    {
      "inputs": [
        {
          "internalType": "contract IERC721",
          "name": "tokenAddress",
          "type": "address"
        },
        {
          "internalType": "uint256",
          "name": "startId",
          "type": "uint256"
        },
        {
          "internalType": "uint256",
          "name": "endId",
          "type": "uint256"
        }
      ],
      "name": "recordNfts",
      "outputs": [],
      "stateMutability": "nonpayable",
      "type": "function"
    },
    {
      "inputs": [
        {
          "internalType": "contract IERC721",
          "name": "tokenAddress",
          "type": "address"
        },
        {
          "internalType": "uint256[]",
          "name": "tokenIds",
          "type": "uint256[]"
        },
        {
          "internalType": "address",
          "name": "holder",
          "type": "address"
        }
      ],
      "name": "showHeldNfts",
      "outputs": [],
      "stateMutability": "nonpayable",
      "type": "function"
    },
    {
      "inputs": [
        {
          "internalType": "contract IERC20",
          "name": "tokenAddress",
          "type": "address"
        },
        {
          "internalType": "uint256",
          "name": "amount",
          "type": "uint256"
        }
      ],
      "name": "storeCurrency",
      "outputs": [],
      "stateMutability": "nonpayable",
      "type": "function"
    },
    {
      "inputs": [
        {
          "internalType": "address",
          "name": "tokenAddress",
          "type": "address"
        },
        {
          "internalType": "address",
          "name": "to",
          "type": "address"
        },
        {
          "internalType": "uint256",
          "name": "amount",
          "type": "uint256"
        },
        {
          "internalType": "uint256",
          "name": "seed",
          "type": "uint256"
        }
      ],
      "name": "transferReward",
      "outputs": [],
      "stateMutability": "nonpayable",
      "type": "function"
    },
    {
      "inputs": [
        {
          "internalType": "address",
          "name": "tokenAddress",
          "type": "address"
        }
      ],
      "name": "getNftsInVault",
      "outputs": [
        {
          "internalType": "uint256[]",
          "name": "",
          "type": "uint256[]"
        }
      ],
      "stateMutability": "view",
      "type": "function",
      "constant": true
    },
    {
      "inputs": [
        {
          "internalType": "address",
          "name": "tokenAddress",
          "type": "address"
        },
        {
          "internalType": "uint256[]",
          "name": "tokenIds",
          "type": "uint256[]"
        }
      ],
      "name": "haveNftsBeenShown",
      "outputs": [
        {
          "internalType": "bool[]",
          "name": "result",
          "type": "bool[]"
        }
      ],
      "stateMutability": "view",
      "type": "function",
      "constant": true
    }
  ],
  "bytecode": "0x608060405234801561001057600080fd5b50611b48806100206000396000f3fe608060405234801561001057600080fd5b506004361061012c5760003560e01c806383169caf116100ad578063a217fddf11610071578063a217fddf146105a4578063bd34a9cc146105ac578063ca15c873146105d8578063d547741f146105f5578063d6562dc4146106215761012c565b806383169caf146103fa5780639010d07c1461042057806391d148541461045f5780639629a5941461049f5780639d997fb4146105265761012c565b806343af356b116100f457806343af356b146103665780635504d3d2146103925780636036cba31461039a57806367319dd8146103c05780638129fc1c146103f25761012c565b80631190201f14610131578063150b7a0214610232578063248a9ca3146102dd5780632f2ff15d1461030c57806336568abe1461033a575b600080fd5b6101e26004803603604081101561014757600080fd5b6001600160a01b038235169190810190604081016020820135600160201b81111561017157600080fd5b82018360208201111561018357600080fd5b803590602001918460208302840111600160201b831117156101a457600080fd5b91908080602002602001604051908101604052809392919081815260200183836020028082843760009201919091525092955061065d945050505050565b60408051602080825283518183015283519192839290830191858101910280838360005b8381101561021e578181015183820152602001610206565b505050509050019250505060405180910390f35b6102c06004803603608081101561024857600080fd5b6001600160a01b03823581169260208101359091169160408201359190810190608081016060820135600160201b81111561028257600080fd5b82018360208201111561029457600080fd5b803590602001918460018302840111600160201b831117156102b557600080fd5b509092509050610725565b604080516001600160e01b03199092168252519081900360200190f35b6102fa600480360360208110156102f357600080fd5b5035610736565b60408051918252519081900360200190f35b6103386004803603604081101561032257600080fd5b50803590602001356001600160a01b031661074b565b005b6103386004803603604081101561035057600080fd5b50803590602001356001600160a01b03166107b7565b6102fa6004803603604081101561037c57600080fd5b506001600160a01b038135169060200135610818565b6102fa610846565b6102fa600480360360208110156103b057600080fd5b50356001600160a01b0316610868565b610338600480360360608110156103d657600080fd5b506001600160a01b03813516906020810135906040013561087a565b610338610917565b6101e26004803603602081101561041057600080fd5b50356001600160a01b03166109f5565b6104436004803603604081101561043657600080fd5b5080359060200135610a61565b604080516001600160a01b039092168252519081900360200190f35b61048b6004803603604081101561047557600080fd5b50803590602001356001600160a01b0316610a88565b604080519115158252519081900360200190f35b610338600480360360608110156104b557600080fd5b6001600160a01b038235169190810190604081016020820135600160201b8111156104df57600080fd5b8201836020820111156104f157600080fd5b803590602001918460208302840111600160201b8311171561051257600080fd5b9193509150356001600160a01b0316610aa6565b6103386004803603604081101561053c57600080fd5b6001600160a01b038235169190810190604081016020820135600160201b81111561056657600080fd5b82018360208201111561057857600080fd5b803590602001918460208302840111600160201b8311171561059957600080fd5b509092509050610cad565b6102fa610e03565b610338600480360360408110156105c257600080fd5b506001600160a01b038135169060200135610e08565b6102fa600480360360208110156105ee57600080fd5b5035610eda565b6103386004803603604081101561060b57600080fd5b50803590602001356001600160a01b0316610ef1565b6103386004803603608081101561063757600080fd5b506001600160a01b03813581169160208101359091169060408101359060600135610f4a565b6060815167ffffffffffffffff8111801561067757600080fd5b506040519080825280602002602001820160405280156106a1578160200160208202803683370190505b50905060005b825181101561071e576106fa8382815181106106bf57fe5b602002602001015160676000876001600160a01b03166001600160a01b031681526020019081526020016000206111c590919063ffffffff16565b82828151811061070657fe5b911515602092830291909101909101526001016106a7565b5092915050565b630a85bd0160e11b95945050505050565b60009081526033602052604090206002015490565b60008281526033602052604090206002015461076e906107696111d1565b610a88565b6107a95760405162461bcd60e51b815260040180806020018281038252602f815260200180611a57602f913960400191505060405180910390fd5b6107b382826111d5565b5050565b6107bf6111d1565b6001600160a01b0316816001600160a01b03161461080e5760405162461bcd60e51b815260040180806020018281038252602f815260200180611ae4602f913960400191505060405180910390fd5b6107b38282611244565b6065602052816000526040600020818154811061083157fe5b90600052602060002001600091509150505481565b604080516923a0a6a2afa0a226a4a760b11b8152905190819003600a01902081565b60666020526000908152604090205481565b6108826112b3565b82610894816380ac58cd60e01b611314565b6108d3576040805162461bcd60e51b815260206004820152600b60248201526a4e6f74204945524337323160a81b604482015290519081900360640190fd5b825b828111610910576001600160a01b038516600090815260656020908152604082208054600181810183559184529190922001829055016108d5565b5050505050565b600054610100900460ff16806109305750610930611330565b8061093e575060005460ff16155b6109795760405162461bcd60e51b815260040180806020018281038252602e815260200180611ab6602e913960400191505060405180910390fd5b600054610100900460ff161580156109a4576000805460ff1961ff0019909116610100171660011790555b6109ac611341565b6109b76000336107a9565b604080516923a0a6a2afa0a226a4a760b11b8152905190819003600a0190206109e090336107a9565b80156109f2576000805461ff00191690555b50565b6001600160a01b038116600090815260656020908152604091829020805483518184028101840190945280845260609392830182828015610a5557602002820191906000526020600020905b815481526020019060010190808311610a41575b50505050509050919050565b6000828152603360205260408120610a7f908363ffffffff6113e116565b90505b92915050565b6000828152603360205260408120610a7f908363ffffffff6113ed16565b610aae6112b3565b83610ac0816380ac58cd60e01b611314565b610aff576040805162461bcd60e51b815260206004820152600b60248201526a4e6f74204945524337323160a81b604482015290519081900360640190fd5b60005b83811015610ca557826001600160a01b0316866001600160a01b0316636352211e878785818110610b2f57fe5b905060200201356040518263ffffffff1660e01b81526004018082815260200191505060206040518083038186803b158015610b6a57600080fd5b505afa158015610b7e573d6000803e3d6000fd5b505050506040513d6020811015610b9457600080fd5b50516001600160a01b031614610bde576040805162461bcd60e51b815260206004820152600a6024820152692737ba103437b63232b960b11b604482015290519081900360640190fd5b610c1a858583818110610bed57fe5b6001600160a01b038a1660009081526067602090815260409091209391020135905063ffffffff6111c516565b15610c60576040805162461bcd60e51b815260206004820152601160248201527027232a1030b63932b0b23c9039b437bbb760791b604482015290519081900360640190fd5b610c9c858583818110610c6f57fe5b6001600160a01b038a1660009081526067602090815260409091209391020135905063ffffffff61140216565b50600101610b02565b505050505050565b610cb56112b3565b82610cc7816380ac58cd60e01b611314565b610d06576040805162461bcd60e51b815260206004820152600b60248201526a4e6f74204945524337323160a81b604482015290519081900360640190fd5b60005b8281101561091057846001600160a01b03166342842e0e3230878786818110610d2e57fe5b905060200201356040518463ffffffff1660e01b815260040180846001600160a01b03166001600160a01b03168152602001836001600160a01b03166001600160a01b031681526020018281526020019350505050600060405180830381600087803b158015610d9d57600080fd5b505af1158015610db1573d6000803e3d6000fd5b505050506001600160a01b0385166000908152606560205260409020848483818110610dd957fe5b83546001808201865560009586526020958690209290950293909301359201919091555001610d09565b600081565b610e106112b3565b604080516323b872dd60e01b81523260048201523060248201526044810183905290516001600160a01b038416916323b872dd9160648083019260209291908290030181600087803b158015610e6557600080fd5b505af1158015610e79573d6000803e3d6000fd5b505050506040513d6020811015610e8f57600080fd5b50506001600160a01b038216600090815260666020526040902054610eba908263ffffffff61140e16565b6001600160a01b0390921660009081526066602052604090209190915550565b6000818152603360205260408120610a8290611468565b600082815260336020526040902060020154610f0f906107696111d1565b61080e5760405162461bcd60e51b8152600401808060200182810382526030815260200180611a866030913960400191505060405180910390fd5b610f526112b3565b6001600160a01b03841660009081526065602052604090205482111580610f9157506001600160a01b0384166000908152606660205260409020548211155b610fe2576040805162461bcd60e51b815260206004820152601b60248201527f4e6f7420656e6f756768204e465473206f722063757272656e63790000000000604482015290519081900360640190fd5b6001600160a01b0384166000908152606660205260409020548210156110c9576040805163a9059cbb60e01b81526001600160a01b038581166004830152602482018590529151869283169163a9059cbb9160448083019260209291908290030181600087803b15801561105557600080fd5b505af1158015611069573d6000803e3d6000fd5b505050506040513d602081101561107f57600080fd5b50506001600160a01b0385166000908152606660205260409020546110aa908463ffffffff61147316565b6001600160a01b038616600090815260666020526040902055506111bf565b8360005b83811015610ca5576001600160a01b0386166000908152606560205260408120546110fe90829060001901866114d0565b6001600160a01b0388166000908152606560205260408120805492935090918390811061112757fe5b600091825260208220015460408051632142170760e11b81523060048201526001600160a01b038b81166024830152604482018490529151929450908716926342842e0e9260648084019382900301818387803b15801561118757600080fd5b505af115801561119b573d6000803e3d6000fd5b505050506111a98483611546565b6111b38584611654565b945050506001016110cd565b50505050565b6000610a7f8383611680565b3390565b60008281526033602052604090206111f3908263ffffffff61169816565b156107b3576112006111d1565b6001600160a01b0316816001600160a01b0316837f2f8788117e7eff1d82e926ec794901d17c78024a50270940304540a733656f0d60405160405180910390a45050565b6000828152603360205260409020611262908263ffffffff6116ad16565b156107b35761126f6111d1565b6001600160a01b0316816001600160a01b0316837ff6391f5c32d9c69d2a47ea670b442974b53935d1edc7fd64eb21e047a839171b60405160405180910390a45050565b604080516923a0a6a2afa0a226a4a760b11b8152905190819003600a0190206112dc9033610a88565b611312576040805162461bcd60e51b81526020600482015260026024820152614e4160f01b604482015290519081900360640190fd5b565b600061131f836116c2565b8015610a7f5750610a7f83836116f5565b600061133b3061171b565b15905090565b600054610100900460ff168061135a575061135a611330565b80611368575060005460ff16155b6113a35760405162461bcd60e51b815260040180806020018281038252602e815260200180611ab6602e913960400191505060405180910390fd5b600054610100900460ff161580156109e0576000805460ff1961ff00199091166101001716600117905580156109f2576000805461ff001916905550565b6000610a7f8383611721565b6000610a7f836001600160a01b038416611680565b6000610a7f8383611785565b600082820183811015610a7f576040805162461bcd60e51b815260206004820152601b60248201527f536166654d6174683a206164646974696f6e206f766572666c6f770000000000604482015290519081900360640190fd5b6000610a82826117cf565b6000828211156114ca576040805162461bcd60e51b815260206004820152601e60248201527f536166654d6174683a207375627472616374696f6e206f766572666c6f770000604482015290519081900360640190fd5b50900390565b6000806114f460016114e8868863ffffffff61147316565b9063ffffffff61140e16565b604080516020808201879052825180830382018152918301909252805191012090915060009061152a908363ffffffff6117d316565b905061153c818763ffffffff61140e16565b9695505050505050565b6001600160a01b03821660009081526065602052604090205481106115a8576040805162461bcd60e51b8152602060048201526013602482015272496e646578206f7574206f6620626f756e647360681b604482015290519081900360640190fd5b6001600160a01b0382166000908152606560205260409020805460001981019081106115d057fe5b906000526020600020015460656000846001600160a01b03166001600160a01b03168152602001908152602001600020828154811061160b57fe5b60009182526020808320909101929092556001600160a01b038416815260659091526040902080548061163a57fe5b600190038181906000526020600020016000905590555050565b604080516020808201949094528082019290925280518083038201815260609092019052805191012090565b60009081526001919091016020526040902054151590565b6000610a7f836001600160a01b038416611785565b6000610a7f836001600160a01b03841661183a565b60006116d5826301ffc9a760e01b6116f5565b8015610a8257506116ee826001600160e01b03196116f5565b1592915050565b60008060006117048585611900565b915091508180156117125750805b95945050505050565b3b151590565b815460009082106117635760405162461bcd60e51b8152600401808060200182810382526022815260200180611a356022913960400191505060405180910390fd5b82600001828154811061177257fe5b9060005260206000200154905092915050565b60006117918383611680565b6117c757508154600181810184556000848152602080822090930184905584548482528286019093526040902091909155610a82565b506000610a82565b5490565b6000808211611829576040805162461bcd60e51b815260206004820152601860248201527f536166654d6174683a206d6f64756c6f206279207a65726f0000000000000000604482015290519081900360640190fd5b81838161183257fe5b069392505050565b600081815260018301602052604081205480156118f6578354600019808301919081019060009087908390811061186d57fe5b906000526020600020015490508087600001848154811061188a57fe5b6000918252602080832090910192909255828152600189810190925260409020908401905586548790806118ba57fe5b60019003818190600052602060002001600090559055866001016000878152602001908152602001600020600090556001945050505050610a82565b6000915050610a82565b604080516001600160e01b0319831660248083019190915282518083039091018152604490910182526020810180516001600160e01b03166301ffc9a760e01b1781529151815160009384939284926060926001600160a01b038a169261753092879282918083835b602083106119885780518252601f199092019160209182019101611969565b6001836020036101000a0380198251168184511680821785525050505050509050019150506000604051808303818686fa925050503d80600081146119e9576040519150601f19603f3d011682016040523d82523d6000602084013e6119ee565b606091505b5091509150602081511015611a0c5760008094509450505050611a2d565b81818060200190516020811015611a2257600080fd5b505190955093505050505b925092905056fe456e756d657261626c655365743a20696e646578206f7574206f6620626f756e6473416363657373436f6e74726f6c3a2073656e646572206d75737420626520616e2061646d696e20746f206772616e74416363657373436f6e74726f6c3a2073656e646572206d75737420626520616e2061646d696e20746f207265766f6b65496e697469616c697a61626c653a20636f6e747261637420697320616c726561647920696e697469616c697a6564416363657373436f6e74726f6c3a2063616e206f6e6c792072656e6f756e636520726f6c657320666f722073656c66a264697066735822122015c39f527eebfe61282431d89eff0c0f8ebaf3cc50c43da2f2a6dca10a17fe6c64736f6c63430006050033",
  "immutableReferences": {},
  "source": "pragma solidity ^0.6.0;\r\n\r\nimport \"@openzeppelin/contracts-upgradeable/proxy/Initializable.sol\";\r\nimport \"@openzeppelin/contracts-upgradeable/access/AccessControlUpgradeable.sol\";\r\nimport \"@openzeppelin/contracts-upgradeable/token/ERC721/IERC721ReceiverUpgradeable.sol\";\r\nimport \"@openzeppelin/contracts/introspection/ERC165Checker.sol\";\r\nimport \"@openzeppelin/contracts/token/ERC20/IERC20.sol\";\r\nimport \"@openzeppelin/contracts/token/ERC721/IERC721.sol\";\r\nimport \"@openzeppelin/contracts/utils/EnumerableSet.sol\";\r\nimport \"./util.sol\";\r\n\r\ncontract PartnerVault is Initializable, AccessControlUpgradeable, IERC721ReceiverUpgradeable {\r\n    using ABDKMath64x64 for int128;\r\n    using SafeMath for uint256;\r\n    using EnumerableSet for EnumerableSet.UintSet;\r\n\r\n    bytes4 private constant _INTERFACE_ID_ERC721 = 0x80ac58cd;\r\n\r\n    bytes32 public constant GAME_ADMIN = keccak256(\"GAME_ADMIN\");\r\n\r\n    mapping(address => uint256[]) public nfts;\r\n    mapping(address => uint256) public currencies;\r\n    mapping(address => EnumerableSet.UintSet) private shownNfts; // ID confirmed held by a user (private due to limitation)\r\n\r\n    function initialize() public initializer {\r\n        __AccessControl_init_unchained();\r\n        _setupRole(DEFAULT_ADMIN_ROLE, msg.sender);\r\n        _setupRole(GAME_ADMIN, msg.sender);\r\n    }\r\n\r\n    modifier restricted() {\r\n        _restricted();\r\n        _;\r\n    }\r\n\r\n    function _restricted() internal view {\r\n        require(hasRole(GAME_ADMIN, msg.sender), \"NA\");\r\n    }\r\n\r\n    modifier isValidERC721(IERC721 tokenAddress) {\r\n        require(ERC165Checker.supportsInterface(address(tokenAddress), _INTERFACE_ID_ERC721), \"Not IERC721\");\r\n        _;\r\n    }\r\n\r\n    function onERC721Received(address, address, uint256 _id, bytes calldata) external override returns (bytes4) {\r\n        return IERC721ReceiverUpgradeable.onERC721Received.selector;\r\n    }\r\n\r\n    // FUNCTIONS\r\n\r\n    function storeNfts(IERC721 tokenAddress, uint256[] calldata tokenIds) external restricted isValidERC721(tokenAddress) {\r\n        for (uint i = 0; i < tokenIds.length; i++) {\r\n            tokenAddress.safeTransferFrom(tx.origin, address(this), tokenIds[i]);\r\n            nfts[address(tokenAddress)].push(tokenIds[i]);\r\n        }\r\n    }\r\n\r\n    function recordNfts(IERC721 tokenAddress, uint256 startId, uint256 endId) external restricted isValidERC721(tokenAddress) {\r\n        for (uint i = startId; i <= endId; i++) {\r\n            nfts[address(tokenAddress)].push(i);\r\n        }\r\n    }\r\n\r\n    function showHeldNfts(IERC721 tokenAddress, uint256[] calldata tokenIds, address holder) external restricted isValidERC721(tokenAddress) {\r\n        for (uint i = 0; i < tokenIds.length; i++) {\r\n            require(tokenAddress.ownerOf(tokenIds[i]) == holder, \"Not holder\");\r\n            require(shownNfts[address(tokenAddress)].contains(tokenIds[i]) == false, \"NFT already shown\");\r\n            shownNfts[address(tokenAddress)].add(tokenIds[i]);\r\n        }\r\n    }\r\n\r\n    function storeCurrency(IERC20 tokenAddress, uint256 amount) external restricted {\r\n        tokenAddress.transferFrom(tx.origin, address(this), amount);\r\n        currencies[address(tokenAddress)] = currencies[address(tokenAddress)].add(amount);\r\n    }\r\n\r\n    function transferReward(address tokenAddress, address to, uint256 amount, uint256 seed) external restricted {\r\n        require(amount <= nfts[tokenAddress].length || amount <= currencies[tokenAddress], \"Not enough NFTs or currency\");\r\n        if (amount < currencies[tokenAddress]) {\r\n            IERC20 currency = IERC20(tokenAddress);\r\n            currency.transfer(to, amount);\r\n            currencies[tokenAddress] = currencies[tokenAddress].sub(amount);\r\n        } else {\r\n            IERC721 nft = IERC721(tokenAddress);\r\n            for (uint i = 0; i < amount; i++) {\r\n                uint256 index = RandomUtil.randomSeededMinMax(0, nfts[tokenAddress].length - 1, seed);\r\n                uint256 tokenId = nfts[tokenAddress][index];\r\n                nft.safeTransferFrom(address(this), to, tokenId);\r\n                deleteNft(nft, index);\r\n                seed = RandomUtil.combineSeeds(seed, i);\r\n            }\r\n        }\r\n    }\r\n\r\n    function deleteNft(IERC721 tokenAddress, uint256 index) internal {\r\n        require(index < nfts[address(tokenAddress)].length, \"Index out of bounds\");\r\n        nfts[address(tokenAddress)][index] = nfts[address(tokenAddress)][nfts[address(tokenAddress)].length - 1];\r\n        nfts[address(tokenAddress)].pop();\r\n    }\r\n\r\n\r\n    // VIEWS\r\n\r\n    function getNftsInVault(address tokenAddress) public view returns (uint256[] memory) {\r\n        return nfts[tokenAddress];\r\n    }\r\n\r\n    function haveNftsBeenShown(address tokenAddress, uint256[] memory tokenIds) public view returns (bool[] memory result) {\r\n        result = new bool[](tokenIds.length);\r\n        for(uint i = 0; i < tokenIds.length; i++) {\r\n            result[i] = shownNfts[tokenAddress].contains(tokenIds[i]);\r\n        }\r\n    }\r\n}\r\n",
  "sourcePath": "K:\\\\cryptoblades1\\cryptoblades\\contracts\\PartnerVault.sol",
  "compiler": {
    "name": "solc",
    "version": "0.6.5+commit.f956cc89.Emscripten.clang"
  },
  "schemaVersion": "3.4.5",
  "updatedAt": "2022-09-25T08:12:06.496Z",
  "networkType": "ethereum",
  "devdoc": {
    "methods": {
      "getRoleAdmin(bytes32)": {
        "details": "Returns the admin role that controls `role`. See {grantRole} and {revokeRole}.     * To change a role's admin, use {_setRoleAdmin}."
      },
      "getRoleMember(bytes32,uint256)": {
        "details": "Returns one of the accounts that have `role`. `index` must be a value between 0 and {getRoleMemberCount}, non-inclusive.     * Role bearers are not sorted in any particular way, and their ordering may change at any point.     * WARNING: When using {getRoleMember} and {getRoleMemberCount}, make sure you perform all queries on the same block. See the following https://forum.openzeppelin.com/t/iterating-over-elements-on-enumerableset-in-openzeppelin-contracts/2296[forum post] for more information."
      },
      "getRoleMemberCount(bytes32)": {
        "details": "Returns the number of accounts that have `role`. Can be used together with {getRoleMember} to enumerate all bearers of a role."
      },
      "grantRole(bytes32,address)": {
        "details": "Grants `role` to `account`.     * If `account` had not been already granted `role`, emits a {RoleGranted} event.     * Requirements:     * - the caller must have ``role``'s admin role."
      },
      "hasRole(bytes32,address)": {
        "details": "Returns `true` if `account` has been granted `role`."
      },
      "renounceRole(bytes32,address)": {
        "details": "Revokes `role` from the calling account.     * Roles are often managed via {grantRole} and {revokeRole}: this function's purpose is to provide a mechanism for accounts to lose their privileges if they are compromised (such as when a trusted device is misplaced).     * If the calling account had been granted `role`, emits a {RoleRevoked} event.     * Requirements:     * - the caller must be `account`."
      },
      "revokeRole(bytes32,address)": {
        "details": "Revokes `role` from `account`.     * If `account` had been granted `role`, emits a {RoleRevoked} event.     * Requirements:     * - the caller must have ``role``'s admin role."
      }
    }
  },
  "userdoc": {
    "methods": {}
  }
}