{
  "contractName": "PvpCore",
  "abi": [
    {
      "anonymous": false,
      "inputs": [
        {
          "indexed": true,
          "internalType": "uint256",
          "name": "characterID",
          "type": "uint256"
        },
        {
          "indexed": false,
          "internalType": "uint256",
          "name": "kickedBy",
          "type": "uint256"
        },
        {
          "indexed": false,
          "internalType": "uint256",
          "name": "timestamp",
          "type": "uint256"
        }
      ],
      "name": "CharacterKicked",
      "type": "event"
    },
    {
      "anonymous": false,
      "inputs": [
        {
          "indexed": true,
          "internalType": "uint256",
          "name": "attacker",
          "type": "uint256"
        },
        {
          "indexed": true,
          "internalType": "uint256",
          "name": "defender",
          "type": "uint256"
        },
        {
          "indexed": false,
          "internalType": "uint256",
          "name": "timestamp",
          "type": "uint256"
        },
        {
          "indexed": false,
          "internalType": "uint256",
          "name": "attackerRoll",
          "type": "uint256"
        },
        {
          "indexed": false,
          "internalType": "uint256",
          "name": "defenderRoll",
          "type": "uint256"
        },
        {
          "indexed": false,
          "internalType": "bool",
          "name": "attackerWon",
          "type": "bool"
        },
        {
          "indexed": false,
          "internalType": "uint256",
          "name": "bonusRank",
          "type": "uint256"
        }
      ],
      "name": "DuelFinished",
      "type": "event"
    },
    {
      "anonymous": false,
      "inputs": [
        {
          "indexed": true,
          "internalType": "bytes32",
          "name": "role",
          "type": "bytes32"
        },
        {
          "indexed": true,
          "internalType": "bytes32",
          "name": "previousAdminRole",
          "type": "bytes32"
        },
        {
          "indexed": true,
          "internalType": "bytes32",
          "name": "newAdminRole",
          "type": "bytes32"
        }
      ],
      "name": "RoleAdminChanged",
      "type": "event"
    },
    {
      "anonymous": false,
      "inputs": [
        {
          "indexed": true,
          "internalType": "bytes32",
          "name": "role",
          "type": "bytes32"
        },
        {
          "indexed": true,
          "internalType": "address",
          "name": "account",
          "type": "address"
        },
        {
          "indexed": true,
          "internalType": "address",
          "name": "sender",
          "type": "address"
        }
      ],
      "name": "RoleGranted",
      "type": "event"
    },
    {
      "anonymous": false,
      "inputs": [
        {
          "indexed": true,
          "internalType": "bytes32",
          "name": "role",
          "type": "bytes32"
        },
        {
          "indexed": true,
          "internalType": "address",
          "name": "account",
          "type": "address"
        },
        {
          "indexed": true,
          "internalType": "address",
          "name": "sender",
          "type": "address"
        }
      ],
      "name": "RoleRevoked",
      "type": "event"
    },
    {
      "inputs": [],
      "name": "DEFAULT_ADMIN_ROLE",
      "outputs": [
        {
          "internalType": "bytes32",
          "name": "",
          "type": "bytes32"
        }
      ],
      "stateMutability": "view",
      "type": "function",
      "constant": true
    },
    {
      "inputs": [],
      "name": "GAME_ADMIN",
      "outputs": [
        {
          "internalType": "bytes32",
          "name": "",
          "type": "bytes32"
        }
      ],
      "stateMutability": "view",
      "type": "function",
      "constant": true
    },
    {
      "inputs": [],
      "name": "arenaAccess",
      "outputs": [
        {
          "internalType": "uint256",
          "name": "",
          "type": "uint256"
        }
      ],
      "stateMutability": "view",
      "type": "function",
      "constant": true
    },
    {
      "inputs": [],
      "name": "characters",
      "outputs": [
        {
          "internalType": "contract Characters",
          "name": "",
          "type": "address"
        }
      ],
      "stateMutability": "view",
      "type": "function",
      "constant": true
    },
    {
      "inputs": [],
      "name": "decisionSeconds",
      "outputs": [
        {
          "internalType": "uint256",
          "name": "",
          "type": "uint256"
        }
      ],
      "stateMutability": "view",
      "type": "function",
      "constant": true
    },
    {
      "inputs": [],
      "name": "duelOffsetCost",
      "outputs": [
        {
          "internalType": "uint256",
          "name": "",
          "type": "uint256"
        }
      ],
      "stateMutability": "view",
      "type": "function",
      "constant": true
    },
    {
      "inputs": [
        {
          "internalType": "uint256",
          "name": "",
          "type": "uint256"
        }
      ],
      "name": "excessWagerByCharacter",
      "outputs": [
        {
          "internalType": "uint256",
          "name": "",
          "type": "uint256"
        }
      ],
      "stateMutability": "view",
      "type": "function",
      "constant": true
    },
    {
      "inputs": [
        {
          "internalType": "uint256",
          "name": "",
          "type": "uint256"
        }
      ],
      "name": "fighterByCharacter",
      "outputs": [
        {
          "internalType": "uint256",
          "name": "characterID",
          "type": "uint256"
        },
        {
          "internalType": "uint256",
          "name": "weaponID",
          "type": "uint256"
        },
        {
          "internalType": "uint256",
          "name": "shieldID",
          "type": "uint256"
        },
        {
          "internalType": "uint256",
          "name": "wager",
          "type": "uint256"
        },
        {
          "internalType": "bool",
          "name": "useShield",
          "type": "bool"
        }
      ],
      "stateMutability": "view",
      "type": "function",
      "constant": true
    },
    {
      "inputs": [
        {
          "internalType": "uint256",
          "name": "",
          "type": "uint256"
        }
      ],
      "name": "finderByOpponent",
      "outputs": [
        {
          "internalType": "uint256",
          "name": "",
          "type": "uint256"
        }
      ],
      "stateMutability": "view",
      "type": "function",
      "constant": true
    },
    {
      "inputs": [],
      "name": "game",
      "outputs": [
        {
          "internalType": "contract CryptoBlades",
          "name": "",
          "type": "address"
        }
      ],
      "stateMutability": "view",
      "type": "function",
      "constant": true
    },
    {
      "inputs": [
        {
          "internalType": "bytes32",
          "name": "role",
          "type": "bytes32"
        }
      ],
      "name": "getRoleAdmin",
      "outputs": [
        {
          "internalType": "bytes32",
          "name": "",
          "type": "bytes32"
        }
      ],
      "stateMutability": "view",
      "type": "function",
      "constant": true
    },
    {
      "inputs": [
        {
          "internalType": "bytes32",
          "name": "role",
          "type": "bytes32"
        },
        {
          "internalType": "uint256",
          "name": "index",
          "type": "uint256"
        }
      ],
      "name": "getRoleMember",
      "outputs": [
        {
          "internalType": "address",
          "name": "",
          "type": "address"
        }
      ],
      "stateMutability": "view",
      "type": "function",
      "constant": true
    },
    {
      "inputs": [
        {
          "internalType": "bytes32",
          "name": "role",
          "type": "bytes32"
        }
      ],
      "name": "getRoleMemberCount",
      "outputs": [
        {
          "internalType": "uint256",
          "name": "",
          "type": "uint256"
        }
      ],
      "stateMutability": "view",
      "type": "function",
      "constant": true
    },
    {
      "inputs": [
        {
          "internalType": "bytes32",
          "name": "role",
          "type": "bytes32"
        },
        {
          "internalType": "address",
          "name": "account",
          "type": "address"
        }
      ],
      "name": "grantRole",
      "outputs": [],
      "stateMutability": "nonpayable",
      "type": "function"
    },
    {
      "inputs": [
        {
          "internalType": "bytes32",
          "name": "role",
          "type": "bytes32"
        },
        {
          "internalType": "address",
          "name": "account",
          "type": "address"
        }
      ],
      "name": "hasRole",
      "outputs": [
        {
          "internalType": "bool",
          "name": "",
          "type": "bool"
        }
      ],
      "stateMutability": "view",
      "type": "function",
      "constant": true
    },
    {
      "inputs": [
        {
          "internalType": "uint256",
          "name": "",
          "type": "uint256"
        }
      ],
      "name": "isCharacterInArena",
      "outputs": [
        {
          "internalType": "bool",
          "name": "",
          "type": "bool"
        }
      ],
      "stateMutability": "view",
      "type": "function",
      "constant": true
    },
    {
      "inputs": [
        {
          "internalType": "uint256",
          "name": "",
          "type": "uint256"
        }
      ],
      "name": "isDefending",
      "outputs": [
        {
          "internalType": "bool",
          "name": "",
          "type": "bool"
        }
      ],
      "stateMutability": "view",
      "type": "function",
      "constant": true
    },
    {
      "inputs": [
        {
          "internalType": "uint256",
          "name": "",
          "type": "uint256"
        }
      ],
      "name": "isShieldInArena",
      "outputs": [
        {
          "internalType": "bool",
          "name": "",
          "type": "bool"
        }
      ],
      "stateMutability": "view",
      "type": "function",
      "constant": true
    },
    {
      "inputs": [
        {
          "internalType": "uint256",
          "name": "",
          "type": "uint256"
        }
      ],
      "name": "isWeaponInArena",
      "outputs": [
        {
          "internalType": "bool",
          "name": "",
          "type": "bool"
        }
      ],
      "stateMutability": "view",
      "type": "function",
      "constant": true
    },
    {
      "inputs": [
        {
          "internalType": "uint256",
          "name": "",
          "type": "uint256"
        }
      ],
      "name": "matchByFinder",
      "outputs": [
        {
          "internalType": "uint256",
          "name": "attackerID",
          "type": "uint256"
        },
        {
          "internalType": "uint256",
          "name": "defenderID",
          "type": "uint256"
        },
        {
          "internalType": "uint256",
          "name": "createdAt",
          "type": "uint256"
        }
      ],
      "stateMutability": "view",
      "type": "function",
      "constant": true
    },
    {
      "inputs": [
        {
          "internalType": "uint256",
          "name": "",
          "type": "uint256"
        }
      ],
      "name": "previousTierByCharacter",
      "outputs": [
        {
          "internalType": "uint8",
          "name": "",
          "type": "uint8"
        }
      ],
      "stateMutability": "view",
      "type": "function",
      "constant": true
    },
    {
      "inputs": [],
      "name": "pvpBotAddress",
      "outputs": [
        {
          "internalType": "address payable",
          "name": "",
          "type": "address"
        }
      ],
      "stateMutability": "view",
      "type": "function",
      "constant": true
    },
    {
      "inputs": [],
      "name": "pvprankings",
      "outputs": [
        {
          "internalType": "contract PvpRankings",
          "name": "",
          "type": "address"
        }
      ],
      "stateMutability": "view",
      "type": "function",
      "constant": true
    },
    {
      "inputs": [],
      "name": "randoms",
      "outputs": [
        {
          "internalType": "contract IRandoms",
          "name": "",
          "type": "address"
        }
      ],
      "stateMutability": "view",
      "type": "function",
      "constant": true
    },
    {
      "inputs": [],
      "name": "reRollFeePercent",
      "outputs": [
        {
          "internalType": "uint256",
          "name": "",
          "type": "uint256"
        }
      ],
      "stateMutability": "view",
      "type": "function",
      "constant": true
    },
    {
      "inputs": [
        {
          "internalType": "bytes32",
          "name": "role",
          "type": "bytes32"
        },
        {
          "internalType": "address",
          "name": "account",
          "type": "address"
        }
      ],
      "name": "renounceRole",
      "outputs": [],
      "stateMutability": "nonpayable",
      "type": "function"
    },
    {
      "inputs": [
        {
          "internalType": "bytes32",
          "name": "role",
          "type": "bytes32"
        },
        {
          "internalType": "address",
          "name": "account",
          "type": "address"
        }
      ],
      "name": "revokeRole",
      "outputs": [],
      "stateMutability": "nonpayable",
      "type": "function"
    },
    {
      "inputs": [],
      "name": "shields",
      "outputs": [
        {
          "internalType": "contract Shields",
          "name": "",
          "type": "address"
        }
      ],
      "stateMutability": "view",
      "type": "function",
      "constant": true
    },
    {
      "inputs": [],
      "name": "skillToken",
      "outputs": [
        {
          "internalType": "contract IERC20",
          "name": "",
          "type": "address"
        }
      ],
      "stateMutability": "view",
      "type": "function",
      "constant": true
    },
    {
      "inputs": [
        {
          "internalType": "uint256",
          "name": "",
          "type": "uint256"
        }
      ],
      "name": "specialWeaponRerollTimestamp",
      "outputs": [
        {
          "internalType": "uint256",
          "name": "",
          "type": "uint256"
        }
      ],
      "stateMutability": "view",
      "type": "function",
      "constant": true
    },
    {
      "inputs": [],
      "name": "wageringFactor",
      "outputs": [
        {
          "internalType": "uint8",
          "name": "",
          "type": "uint8"
        }
      ],
      "stateMutability": "view",
      "type": "function",
      "constant": true
    },
    {
      "inputs": [],
      "name": "weapons",
      "outputs": [
        {
          "internalType": "contract Weapons",
          "name": "",
          "type": "address"
        }
      ],
      "stateMutability": "view",
      "type": "function",
      "constant": true
    },
    {
      "inputs": [],
      "name": "withdrawFeePercent",
      "outputs": [
        {
          "internalType": "uint256",
          "name": "",
          "type": "uint256"
        }
      ],
      "stateMutability": "view",
      "type": "function",
      "constant": true
    },
    {
      "inputs": [
        {
          "internalType": "address",
          "name": "gameContract",
          "type": "address"
        },
        {
          "internalType": "address",
          "name": "shieldsContract",
          "type": "address"
        },
        {
          "internalType": "address",
          "name": "randomsContract",
          "type": "address"
        },
        {
          "internalType": "address",
          "name": "pvpRankingsContract",
          "type": "address"
        }
      ],
      "name": "initialize",
      "outputs": [],
      "stateMutability": "nonpayable",
      "type": "function"
    },
    {
      "inputs": [
        {
          "internalType": "uint256",
          "name": "characterID",
          "type": "uint256"
        },
        {
          "internalType": "uint256",
          "name": "weaponID",
          "type": "uint256"
        },
        {
          "internalType": "uint256",
          "name": "shieldID",
          "type": "uint256"
        },
        {
          "internalType": "bool",
          "name": "useShield",
          "type": "bool"
        },
        {
          "internalType": "bool",
          "name": "tierless",
          "type": "bool"
        }
      ],
      "name": "enterArena",
      "outputs": [],
      "stateMutability": "nonpayable",
      "type": "function"
    },
    {
      "inputs": [
        {
          "internalType": "uint256",
          "name": "characterID",
          "type": "uint256"
        }
      ],
      "name": "withdrawFromArena",
      "outputs": [],
      "stateMutability": "nonpayable",
      "type": "function"
    },
    {
      "inputs": [
        {
          "internalType": "uint256",
          "name": "characterID",
          "type": "uint256"
        }
      ],
      "name": "findOpponent",
      "outputs": [],
      "stateMutability": "nonpayable",
      "type": "function"
    },
    {
      "inputs": [
        {
          "internalType": "uint256",
          "name": "characterID",
          "type": "uint256"
        }
      ],
      "name": "reRollOpponent",
      "outputs": [],
      "stateMutability": "nonpayable",
      "type": "function"
    },
    {
      "inputs": [
        {
          "internalType": "uint256",
          "name": "attackerID",
          "type": "uint256"
        }
      ],
      "name": "prepareDuel",
      "outputs": [],
      "stateMutability": "payable",
      "type": "function",
      "payable": true
    },
    {
      "inputs": [
        {
          "internalType": "uint256[]",
          "name": "attackerIDs",
          "type": "uint256[]"
        }
      ],
      "name": "performDuels",
      "outputs": [],
      "stateMutability": "nonpayable",
      "type": "function"
    },
    {
      "inputs": [
        {
          "internalType": "uint256",
          "name": "characterID",
          "type": "uint256"
        }
      ],
      "name": "isCharacterUnderAttack",
      "outputs": [
        {
          "internalType": "bool",
          "name": "",
          "type": "bool"
        }
      ],
      "stateMutability": "view",
      "type": "function",
      "constant": true
    },
    {
      "inputs": [
        {
          "internalType": "uint256",
          "name": "characterID",
          "type": "uint256"
        }
      ],
      "name": "getEntryWager",
      "outputs": [
        {
          "internalType": "uint256",
          "name": "",
          "type": "uint256"
        }
      ],
      "stateMutability": "view",
      "type": "function",
      "constant": true
    },
    {
      "inputs": [
        {
          "internalType": "uint8",
          "name": "tier",
          "type": "uint8"
        }
      ],
      "name": "getEntryWagerByTier",
      "outputs": [
        {
          "internalType": "uint256",
          "name": "",
          "type": "uint256"
        }
      ],
      "stateMutability": "view",
      "type": "function",
      "constant": true
    },
    {
      "inputs": [
        {
          "internalType": "uint256",
          "name": "characterID",
          "type": "uint256"
        }
      ],
      "name": "getDuelCost",
      "outputs": [
        {
          "internalType": "uint256",
          "name": "",
          "type": "uint256"
        }
      ],
      "stateMutability": "view",
      "type": "function",
      "constant": true
    },
    {
      "inputs": [
        {
          "internalType": "uint256",
          "name": "characterID",
          "type": "uint256"
        }
      ],
      "name": "getArenaTier",
      "outputs": [
        {
          "internalType": "uint8",
          "name": "",
          "type": "uint8"
        }
      ],
      "stateMutability": "view",
      "type": "function",
      "constant": true
    },
    {
      "inputs": [
        {
          "internalType": "uint256",
          "name": "attackerID",
          "type": "uint256"
        }
      ],
      "name": "getOpponent",
      "outputs": [
        {
          "internalType": "uint256",
          "name": "",
          "type": "uint256"
        }
      ],
      "stateMutability": "view",
      "type": "function",
      "constant": true
    },
    {
      "inputs": [],
      "name": "getDuelQueue",
      "outputs": [
        {
          "internalType": "uint256[]",
          "name": "",
          "type": "uint256[]"
        }
      ],
      "stateMutability": "view",
      "type": "function",
      "constant": true
    },
    {
      "inputs": [
        {
          "internalType": "uint256",
          "name": "characterID",
          "type": "uint256"
        },
        {
          "internalType": "uint8",
          "name": "tier",
          "type": "uint8"
        }
      ],
      "name": "getCharacterPower",
      "outputs": [
        {
          "internalType": "uint24",
          "name": "",
          "type": "uint24"
        }
      ],
      "stateMutability": "view",
      "type": "function",
      "constant": true
    },
    {
      "inputs": [
        {
          "internalType": "uint256",
          "name": "characterID",
          "type": "uint256"
        }
      ],
      "name": "getMatchablePlayerCount",
      "outputs": [
        {
          "internalType": "uint256",
          "name": "",
          "type": "uint256"
        }
      ],
      "stateMutability": "view",
      "type": "function",
      "constant": true
    },
    {
      "inputs": [
        {
          "internalType": "uint256",
          "name": "cents",
          "type": "uint256"
        }
      ],
      "name": "setBaseWagerInCents",
      "outputs": [],
      "stateMutability": "nonpayable",
      "type": "function"
    },
    {
      "inputs": [
        {
          "internalType": "uint256",
          "name": "cents",
          "type": "uint256"
        }
      ],
      "name": "setTierWagerInCents",
      "outputs": [],
      "stateMutability": "nonpayable",
      "type": "function"
    },
    {
      "inputs": [
        {
          "internalType": "uint8",
          "name": "factor",
          "type": "uint8"
        }
      ],
      "name": "setWageringFactor",
      "outputs": [],
      "stateMutability": "nonpayable",
      "type": "function"
    },
    {
      "inputs": [
        {
          "internalType": "uint256",
          "name": "percent",
          "type": "uint256"
        }
      ],
      "name": "setReRollFeePercent",
      "outputs": [],
      "stateMutability": "nonpayable",
      "type": "function"
    },
    {
      "inputs": [
        {
          "internalType": "uint256",
          "name": "percent",
          "type": "uint256"
        }
      ],
      "name": "setWithdrawFeePercent",
      "outputs": [],
      "stateMutability": "nonpayable",
      "type": "function"
    },
    {
      "inputs": [
        {
          "internalType": "uint256",
          "name": "secs",
          "type": "uint256"
        }
      ],
      "name": "setDecisionSeconds",
      "outputs": [],
      "stateMutability": "nonpayable",
      "type": "function"
    },
    {
      "inputs": [
        {
          "internalType": "uint256",
          "name": "accessFlags",
          "type": "uint256"
        }
      ],
      "name": "setArenaAccess",
      "outputs": [],
      "stateMutability": "nonpayable",
      "type": "function"
    },
    {
      "inputs": [
        {
          "internalType": "uint256",
          "name": "cost",
          "type": "uint256"
        }
      ],
      "name": "setDuelOffsetCost",
      "outputs": [],
      "stateMutability": "nonpayable",
      "type": "function"
    },
    {
      "inputs": [
        {
          "internalType": "address payable",
          "name": "botAddress",
          "type": "address"
        }
      ],
      "name": "setPvpBotAddress",
      "outputs": [],
      "stateMutability": "nonpayable",
      "type": "function"
    },
    {
      "inputs": [
        {
          "internalType": "uint256",
          "name": "characterID",
          "type": "uint256"
        }
      ],
      "name": "forceRemoveCharacterFromArena",
      "outputs": [],
      "stateMutability": "nonpayable",
      "type": "function"
    }
  ],
  "bytecode": "0x608060405234801561001057600080fd5b5061506f806100206000396000f3fe60806040526004361061038c5760003560e01c806391d14854116101dc578063ca15c87311610102578063d6714a1b116100a0578063eb5254741161006f578063eb52547414610d25578063f5974a9d14610d3a578063f732731a14610d4f578063f8c8765e14610d795761038c565b8063d6714a1b14610c92578063d698402114610ca7578063d86936c314610cd1578063eae007dc14610cfb5761038c565b8063d070bb54116100dc578063d070bb5414610c05578063d1ebdfd314610c1a578063d344a24414610c2f578063d547741f14610c595761038c565b8063ca15c87314610b6b578063caab2f4d14610b95578063cd11a46414610bbf5761038c565b8063b2b052121161017a578063c347f42211610149578063c347f42214610adc578063c3fe3e2814610b0f578063c6fbbe1c14610b24578063c985131614610b4e5761038c565b8063b2b0521214610a73578063b7e1cd8614610a9d578063b9495bfc14610ab2578063bee666d814610ac75761038c565b8063a217fddf116101b6578063a217fddf146109e0578063a231da3c146109f5578063a6db4e4414610a1f578063a9b97cec14610a495761038c565b806391d1485414610915578063939957c81461094e5780639e00de82146109cb5761038c565b8063406d6cec116102c15780635cd4ca9e1161025f57806387dad82f1161022e57806387dad82f146108605780638972cd8d1461088a5780638ce639cf146108b45780639010d07c146108c95761038c565b80635cd4ca9e146107b557806371fb41af146107df57806379cc60bd1461080957806384399b05146108335761038c565b8063495ef7051161029b578063495ef705146107375780634f6cc3ca1461074c5780635504d3d214610776578063582b6ced1461078b5761038c565b8063406d6cec1461067e5780634177a81f146106e3578063447cb8961461070d5761038c565b8063248a9ca31161032e578063329d026f11610308578063329d026f146105d957806336568abe1461060657806336786e6c1461063f5780633b1f4541146106695761038c565b8063248a9ca31461054b57806329602775146105755780632f2ff15d146105a05761038c565b80631783d0a91161036a5780631783d0a914610452578063180677e41461049d5780631d73beb6146104e557806320eb3940146105215761038c565b8063123b594614610391578063134a897b146103e857806316c9960114610426575b600080fd5b34801561039d57600080fd5b506103bb600480360360208110156103b457600080fd5b5035610dc4565b60408051958652602086019490945284840192909252606084015215156080830152519081900360a00190f35b3480156103f457600080fd5b506104126004803603602081101561040b57600080fd5b5035610df6565b604080519115158252519081900360200190f35b34801561043257600080fd5b506104506004803603602081101561044957600080fd5b5035610e0b565b005b34801561045e57600080fd5b506104856004803603604081101561047557600080fd5b508035906020013560ff16610e18565b6040805162ffffff9092168252519081900360200190f35b3480156104a957600080fd5b506104c7600480360360208110156104c057600080fd5b503561106b565b60408051938452602084019290925282820152519081900360600190f35b3480156104f157600080fd5b5061050f6004803603602081101561050857600080fd5b503561108c565b60408051918252519081900360200190f35b34801561052d57600080fd5b506104506004803603602081101561054457600080fd5b503561109e565b34801561055757600080fd5b5061050f6004803603602081101561056e57600080fd5b50356110ab565b34801561058157600080fd5b5061058a6110c3565b6040805160ff9092168252519081900360200190f35b3480156105ac57600080fd5b50610450600480360360408110156105c357600080fd5b50803590602001356001600160a01b03166110cc565b3480156105e557600080fd5b50610450600480360360208110156105fc57600080fd5b503560ff16611138565b34801561061257600080fd5b506104506004803603604081101561062957600080fd5b50803590602001356001600160a01b0316611156565b34801561064b57600080fd5b506104506004803603602081101561066257600080fd5b50356111b7565b34801561067557600080fd5b5061050f6111c4565b34801561068a57600080fd5b506106936111ca565b60408051602080825283518183015283519192839290830191858101910280838360005b838110156106cf5781810151838201526020016106b7565b505050509050019250505060405180910390f35b3480156106ef57600080fd5b506104506004803603602081101561070657600080fd5b5035611262565b34801561071957600080fd5b506104506004803603602081101561073057600080fd5b503561132d565b34801561074357600080fd5b5061050f61133a565b34801561075857600080fd5b5061050f6004803603602081101561076f57600080fd5b5035611340565b34801561078257600080fd5b5061050f611362565b34801561079757600080fd5b50610450600480360360208110156107ae57600080fd5b5035611384565b3480156107c157600080fd5b5061050f600480360360208110156107d857600080fd5b50356114d8565b3480156107eb57600080fd5b506104126004803603602081101561080257600080fd5b50356114ed565b34801561081557600080fd5b5061050f6004803603602081101561082c57600080fd5b5035611502565b34801561083f57600080fd5b5061050f6004803603602081101561085657600080fd5b503560ff1661167d565b34801561086c57600080fd5b5061058a6004803603602081101561088357600080fd5b5035611693565b34801561089657600080fd5b50610450600480360360208110156108ad57600080fd5b5035611722565b3480156108c057600080fd5b5061050f6118b7565b3480156108d557600080fd5b506108f9600480360360408110156108ec57600080fd5b50803590602001356118bd565b604080516001600160a01b039092168252519081900360200190f35b34801561092157600080fd5b506104126004803603604081101561093857600080fd5b50803590602001356001600160a01b03166118db565b34801561095a57600080fd5b506104506004803603602081101561097157600080fd5b81019060208101813564010000000081111561098c57600080fd5b82018360208201111561099e57600080fd5b803590602001918460208302840111640100000000831117156109c057600080fd5b5090925090506118f9565b3480156109d757600080fd5b506108f961210c565b3480156109ec57600080fd5b5061050f61211b565b348015610a0157600080fd5b5061045060048036036020811015610a1857600080fd5b5035612120565b348015610a2b57600080fd5b5061050f60048036036020811015610a4257600080fd5b503561215f565b348015610a5557600080fd5b5061050f60048036036020811015610a6c57600080fd5b5035612171565b348015610a7f57600080fd5b5061045060048036036020811015610a9657600080fd5b50356121bc565b348015610aa957600080fd5b506108f96121c9565b348015610abe57600080fd5b506108f96121d8565b348015610ad357600080fd5b506108f96121e7565b348015610ae857600080fd5b5061045060048036036020811015610aff57600080fd5b50356001600160a01b03166121f6565b348015610b1b57600080fd5b506108f9612220565b348015610b3057600080fd5b5061045060048036036020811015610b4757600080fd5b503561222f565b61045060048036036020811015610b6457600080fd5b503561226a565b348015610b7757600080fd5b5061050f60048036036020811015610b8e57600080fd5b5035612441565b348015610ba157600080fd5b5061041260048036036020811015610bb857600080fd5b5035612458565b348015610bcb57600080fd5b50610450600480360360a0811015610be257600080fd5b50803590602081013590604081013590606081013515159060800135151561246d565b348015610c1157600080fd5b506108f9612cd6565b348015610c2657600080fd5b506108f9612ce5565b348015610c3b57600080fd5b5061041260048036036020811015610c5257600080fd5b5035612cf4565b348015610c6557600080fd5b5061045060048036036040811015610c7c57600080fd5b50803590602001356001600160a01b0316612d09565b348015610c9e57600080fd5b5061050f612d62565b348015610cb357600080fd5b5061050f60048036036020811015610cca57600080fd5b5035612d68565b348015610cdd57600080fd5b5061041260048036036020811015610cf457600080fd5b5035612d7a565b348015610d0757600080fd5b5061058a60048036036020811015610d1e57600080fd5b5035612df0565b348015610d3157600080fd5b506108f9612e05565b348015610d4657600080fd5b5061050f612e14565b348015610d5b57600080fd5b5061045060048036036020811015610d7257600080fd5b5035612e1a565b348015610d8557600080fd5b5061045060048036036080811015610d9c57600080fd5b506001600160a01b0381358116916020810135821691604082013581169160600135166130a7565b607660205260009081526040902080546001820154600283015460038401546004909401549293919290919060ff1685565b607b6020526000908152604090205460ff1681565b610e136133c5565b607055565b606754600083815260766020908152604080832060010154606654825163acb586df60e01b815260048101899052925194958695869586956001600160a01b039384169563d58227c8959094169263acb586df92602480840193919291829003018186803b158015610e8957600080fd5b505afa158015610e9d573d6000803e3d6000fd5b505050506040513d6020811015610eb357600080fd5b5051604080516001600160e01b031960e086901b168152600481019390935260ff9091166024830152516044808301926080929190829003018186803b158015610efc57600080fd5b505afa158015610f10573d6000803e3d6000fd5b505050506040513d6080811015610f2657600080fd5b5060208082015160409283015160008a81526076909352929091206004015490935090915060ff1615610f9b57610f986064610f896014610f7a6001610f6b8c6133f9565b600f0b9063ffffffff61351316565b600f0b9063ffffffff61354716565b600f0b9063ffffffff61357d16565b92505b60008560ff1660141415610fba57610fb360226135cf565b905061103b565b60665460408051630219207560e61b8152600481018a90529051611038926001600160a01b0316916386481d40916024808301926020929190829003018186803b15801561100757600080fd5b505afa15801561101b573d6000803e3d6000fd5b505050506040513d602081101561103157600080fd5b50516135cf565b90505b61105e62ffffff8216611058600f86900b8763ffffffff61361f16565b84613652565b9450505050505b92915050565b60776020526000908152604090208054600182015460029092015490919083565b607c6020526000908152604090205481565b6110a66133c5565b607155565b6000818152603360205260409020600201545b919050565b606d5460ff1681565b6000828152603360205260409020600201546110ef906110ea613682565b6118db565b61112a5760405162461bcd60e51b815260040180806020018281038252602f815260200180614f0d602f913960400191505060405180910390fd5b6111348282613686565b5050565b6111406133c5565b606d805460ff191660ff92909216919091179055565b61115e613682565b6001600160a01b0316816001600160a01b0316146111ad5760405162461bcd60e51b815260040180806020018281038252602f81526020018061500b602f913960400191505060405180910390fd5b61113482826136f5565b6111bf6133c5565b607255565b60705481565b606060006111d86074613764565b905060608167ffffffffffffffff811180156111f357600080fd5b5060405190808252806020026020018201604052801561121d578160200160208202803683370190505b50905060005b8281101561125b5761123c60748263ffffffff61376f16565b82828151811061124857fe5b6020908102919091010152600101611223565b5091505090565b60008181526081602052604090205481906001600160a01b0316331461128757600080fd5b816112918161377b565b8261129b816137c5565b836112a581613804565b600085815260776020526040902060020154156112ed576040805162461bcd60e51b81526020600482015260016024820152604d60f81b604482015290519081900360640190fd5b6000858152607d602052604081205460ff166014141561130f5750601461131b565b61131886611693565b90505b6113258682613843565b505050505050565b6113356133c5565b606f55565b606f5481565b606d546000906110659060ff1661135684611502565b9063ffffffff613abf16565b604080516923a0a6a2afa0a226a4a760b11b8152905190819003600a01902081565b60008181526081602052604090205481906001600160a01b031633146113a957600080fd5b816113b38161377b565b826113bd816137c5565b836113c781613804565b60008581526076602090815260408083206003810154607d9093529083205490929060ff16601414156113fc57506014611408565b61140588611693565b90505b600061141389611340565b60008a81526077602052604090206002015490915015611490576114536064611447606f5484613abf90919063ffffffff16565b9063ffffffff613b1816565b8310156114635760009250611490565b61148d6114806064611447606f5485613abf90919063ffffffff16565b849063ffffffff613b7f16565b92505b61149a8983613bdc565b6000898152607e6020526040812081905560038501556069546114cd906001600160a01b0316338563ffffffff613e4016565b505050505050505050565b60009081526077602052604090206001015490565b60796020526000908152604090205460ff1681565b6000818152607d602052604081205460ff16601414156115a557606554606c5460408051630a8a921560e01b8152600f92830b830b90920b6004830152516001600160a01b0390921691630a8a921591602480820192602092909190829003018186803b15801561157257600080fd5b505afa158015611586573d6000803e3d6000fd5b505050506040513d602081101561159c57600080fd5b505190506110be565b606c546000906115e090600160801b9004600f0b610f7a6115d960646115ca88611693565b60ff169063ffffffff613abf16565b6064613e92565b606554606c549192506001600160a01b031690630a8a92159061161090600f90810b900b8463ffffffff61361f16565b6040518263ffffffff1660e01b81526004018082600f0b600f0b815260200191505060206040518083038186803b15801561164a57600080fd5b505afa15801561165e573d6000803e3d6000fd5b505050506040513d602081101561167457600080fd5b50519392505050565b606d546000906110659060ff1661135684613ec9565b60665460408051630219207560e61b815260048101849052905160009283926001600160a01b03909116916386481d4091602480820192602092909190829003018186803b1580156116e457600080fd5b505afa1580156116f8573d6000803e3d6000fd5b505050506040513d602081101561170e57600080fd5b5051905061171b81613f58565b9392505050565b61172a6133c5565b80611734816137c5565b8161173e81613804565b6000838152607660209081526040808320607d90925282205490919060ff166014141561176d57506014611779565b61177685611693565b90505b6003820154600061178987611340565b600088815260776020526040902060020154909150156117fa576117bd6064611447606f5484613abf90919063ffffffff16565b8210156117cd57600091506117fa565b6117f76117ea6064611447606f5485613abf90919063ffffffff16565b839063ffffffff613b7f16565b91505b6118048784613bdc565b6000878152607e60209081526040808320839055600387019290925560665482516331a9108f60e11b8152600481018b905292516118ae936001600160a01b0390921692636352211e9260248082019391829003018186803b15801561186957600080fd5b505afa15801561187d573d6000803e3d6000fd5b505050506040513d602081101561189357600080fd5b50516069546001600160a01b0316908463ffffffff613e4016565b50505050505050565b60715481565b600082815260336020526040812061171b908363ffffffff61376f16565b600082815260336020526040812061171b908363ffffffff613f6e16565b6119016133c5565b60005b8181101561210757611914614e49565b61192f84848481811061192357fe5b90506020020135613f83565b808252516119459060749063ffffffff61402c16565b61194f57506120ff565b8051516119649061195f906114d8565b613f83565b6020828101919091528151516000908152607d909152604090205460ff166014141561199657601460408201526119ae565b8051602001516119a590613f58565b60ff1660408201525b6119bb8160400151613ec9565b606082015280515160408201516119d29190610e18565b815162ffffff9190911660809091015260208101515160408201516119f79190610e18565b62ffffff1681602001516080018181525050611a2481600001518260200151604001518360400151614038565b815162ffffff9091166060909101526020810151815160409081015190830151611a4f929190614038565b60208083015162ffffff90921660609092019190915281515160009081526076909152604090206004015460ff1615611b7a57606854815151600090815260766020908152604080832060020154815163acb586df60e01b8152600481019190915290516003946001600160a01b03169263acb586df9260248082019391829003018186803b158015611ae157600080fd5b505afa158015611af5573d6000803e3d6000fd5b505050506040513d6020811015611b0b57600080fd5b5051602084015160400151909150611b249082906141fc565b15611b2e57600a91505b611b656064611447611b4b8262ffffff871663ffffffff613b7f16565b60208701516060015162ffffff169063ffffffff613abf16565b602084015162ffffff90911660609091015250505b6020808201515160009081526076909152604090206004015460ff1615611c8f5760685460208083015151600090815260768252604080822060020154815163acb586df60e01b81526004810191909152905160039492936001600160a01b039093169263acb586df9260248082019391829003018186803b158015611bff57600080fd5b505afa158015611c13573d6000803e3d6000fd5b505050506040513d6020811015611c2957600080fd5b5051835160400151909150611c3f9082906141fc565b15611c4957600a91505b611c7d6064611447611c668262ffffff871663ffffffff613b7f16565b86516060015162ffffff169063ffffffff613abf16565b835162ffffff90911660609091015250505b602081015160609081015182519091015162ffffff9182169116101560808201819052600090611cc457602082015151611cc8565b8151515b905060008260800151611cdd57825151611ce4565b6020830151515b83515190915082148015611d075750826020015160800151836000015160800151105b15611d3057611d2683600001516080015184602001516080015161421f565b60a0840152611d78565b60208301515182148015611d535750826020015160800151836000015160800151115b15611d7857611d7283602001516080015184600001516080015161421f565b60a08401525b602080840151805185518051606091820151938201516080808a015160a0808c01516040805142815262ffffff9a8b169b81019b909b52989094168989015290151594880194909452860152925191937fd5e813a6e9b83d4a4a28930587fae27babef1714015ee302198e9019b4740691929081900390910190a3606b546060840151604080516358c2b0bf60e11b81526004810192909252805160009384936001600160a01b039091169263b185617e92602480840193829003018186803b158015611e4457600080fd5b505afa158015611e58573d6000803e3d6000fd5b505050506040513d6040811015611e6e57600080fd5b50805160209182015160008781526076909352604090922060030154909350909150611ea0908363ffffffff61435c16565b60008581526076602052604080822060039081019390935560608801518683529082209092015490911115611ed757506000611f00565b6060860151600085815260766020526040902060030154611efd9163ffffffff613b7f16565b90505b60008481526076602081815260408084206003018581558a5151855260778352818520858155600181018690556002018590558a83018051518652607c845282862086905551518552607b8352908420805460ff1916905560608a015193889052919052541080611f985750611f846064611447606f546113568a6040015161167d565b600085815260766020526040902060030154105b15611fe957611fab848760400151613bdc565b60408051868152426020820152815186927fcbcc502324fd245cc282fbc26877f3c608e64f5c640e8664669bf8b09b15264b928290030190a261200f565b60408087015160ff166000908152607f6020522061200d908563ffffffff6143b616565b505b60408087015160ff166000908152607f60205220612033908663ffffffff6143b616565b50606b5460a087015160408089015181516303dca99960e01b8152600481018a905260248101899052604481019390935260ff16606483015260848201859052516001600160a01b03909216916303dca9999160a48082019260009290919082900301818387803b1580156120a757600080fd5b505af11580156120bb573d6000803e3d6000fd5b5050606b546069546120e293506001600160a01b039081169250168463ffffffff613e4016565b8551516120f79060749063ffffffff6143c216565b505050505050505b600101611904565b505050565b6068546001600160a01b031681565b600081565b6121286133c5565b612133816064613e92565b606c60106101000a8154816001600160801b030219169083600f0b6001600160801b0316021790555050565b607e6020526000908152604090205481565b6000818152607d6020526040812054819060ff1660141415612195575060146121a1565b61219e83611693565b90505b60ff81166000908152607f6020526040902061171b90613764565b6121c46133c5565b606e55565b6067546001600160a01b031681565b606b546001600160a01b031681565b606a546001600160a01b031681565b6121fe6133c5565b607380546001600160a01b0319166001600160a01b0392909216919091179055565b6065546001600160a01b031681565b6122376133c5565b612242816064613e92565b606c8054600f9290920b6001600160801b03166001600160801b031990921691909117905550565b60008181526081602052604090205481906001600160a01b0316331461228f57600080fd5b816122998161377b565b826122a3816143ce565b836122ad81613804565b6071546001166001146122bf57600080fd5b60725434146122f9576040805162461bcd60e51b81526020600482015260016024820152604f60f81b604482015290519081900360640190fd5b6000612304866114d8565b606b546040805163172766fb60e21b8152336004820152602481018a905290519293506001600160a01b0390911691635c9d9bec9160448082019260009290919082900301818387803b15801561235a57600080fd5b505af115801561236e573d6000803e3d6000fd5b5050606b546040805163172766fb60e21b81523360048201526024810186905290516001600160a01b039092169350635c9d9bec925060448082019260009290919082900301818387803b1580156123c557600080fd5b505af11580156123d9573d6000803e3d6000fd5b5050506000828152607b60205260409020805460ff191660011790555061240760748763ffffffff6143b616565b506073546040516001600160a01b03909116903480156108fc02916000818181858888f193505050501580156118ae573d6000803e3d6000fd5b600081815260336020526040812061106590613764565b60786020526000908152604090205460ff1681565b606654604080516331a9108f60e11b815260048101889052905133926001600160a01b031691636352211e916024808301926020929190829003018186803b1580156124b857600080fd5b505afa1580156124cc573d6000803e3d6000fd5b505050506040513d60208110156124e257600080fd5b50516001600160a01b03161480156125775750606754604080516331a9108f60e11b815260048101879052905133926001600160a01b031691636352211e916024808301926020929190829003018186803b15801561254057600080fd5b505afa158015612554573d6000803e3d6000fd5b505050506040513d602081101561256a57600080fd5b50516001600160a01b0316145b61258057600080fd5b6066546040805163783efb2560e01b8152600481018890526001602482015290516001600160a01b039092169163783efb2591604480820192602092909190829003018186803b1580156125d357600080fd5b505afa1580156125e7573d6000803e3d6000fd5b505050506040513d60208110156125fd57600080fd5b505115801561268857506067546040805163783efb2560e01b8152600481018790526001602482015290516001600160a01b039092169163783efb2591604480820192602092909190829003018186803b15801561265a57600080fd5b505afa15801561266e573d6000803e3d6000fd5b505050506040513d602081101561268457600080fd5b5051155b6126bd576040805162461bcd60e51b81526020600482015260016024820152602160f91b604482015290519081900360640190fd5b811561280257606854604080516331a9108f60e11b815260048101869052905133926001600160a01b031691636352211e916024808301926020929190829003018186803b15801561270e57600080fd5b505afa158015612722573d6000803e3d6000fd5b505050506040513d602081101561273857600080fd5b50516001600160a01b03161461274d57600080fd5b6068546040805163783efb2560e01b8152600481018690526001602482015290516001600160a01b039092169163783efb2591604480820192602092909190829003018186803b1580156127a057600080fd5b505afa1580156127b4573d6000803e3d6000fd5b505050506040513d60208110156127ca57600080fd5b505115612802576040805162461bcd60e51b81526020600482015260016024820152605360f81b604482015290519081900360640190fd5b607154600116600114612840576040805162461bcd60e51b81526020600482015260016024820152601360fa1b604482015290519081900360640190fd5b600081156128505750601461285c565b61285986611693565b90505b60006128678261167d565b6000888152608160205260409020549091506001600160a01b031633146128a757600087815260816020526040902080546001600160a01b031916331790555b6000878152607d602052604090205460ff83811691161461292e57606b5460408051636166c2b960e01b8152600481018a905260006024820181905291516001600160a01b0390931692636166c2b99260448084019391929182900301818387803b15801561291557600080fd5b505af1158015612929573d6000803e3d6000fd5b505050505b606b546040805163733a485b60e01b8152336004820152602481018a905260ff8516604482015290516001600160a01b039092169163733a485b9160648082019260009290919082900301818387803b15801561298a57600080fd5b505af115801561299e573d6000803e3d6000fd5b505050600088815260786020526040808220805460ff191660019081179091556066548251631f771def60e31b8152600481018d905260248101839052604481019290925291516001600160a01b03909216935063fbb8ef7892606480830193919282900301818387803b158015612a1557600080fd5b505af1158015612a29573d6000803e3d6000fd5b505050600087815260796020526040808220805460ff191660019081179091556067548251631f771def60e31b8152600481018c905260248101839052604481019290925291516001600160a01b03909216935063fbb8ef7892606480830193919282900301818387803b158015612aa057600080fd5b505af1158015612ab4573d6000803e3d6000fd5b505050508315612b48576000858152607a6020526040808220805460ff191660019081179091556068548251631f771def60e31b8152600481018a905260248101839052604481019290925291516001600160a01b039092169263fbb8ef789260648084019382900301818387803b158015612b2f57600080fd5b505af1158015612b43573d6000803e3d6000fd5b505050505b6000878152607e602052604081205415612b7157506000878152607e6020526040902054612b85565b506000878152607660205260409020600301545b60ff83166000908152607f60205260409020612ba7908963ffffffff6143b616565b506040518060a00160405280898152602001888152602001878152602001612bd8838561435c90919063ffffffff16565b815286151560209182015260008a815260768252604080822084518155848401516001820155848201516002820155606085015160038201556080909401516004948501805491151560ff19928316179055607d8452818320805460ff8a169216919091179055607e835280822082905560695481516323b872dd60e01b815233958101959095523060248601526044850187905290516001600160a01b03909116936323b872dd936064808301949193928390030190829087803b158015612ca057600080fd5b505af1158015612cb4573d6000803e3d6000fd5b505050506040513d6020811015612cca57600080fd5b50505050505050505050565b6066546001600160a01b031681565b6069546001600160a01b031681565b607a6020526000908152604090205460ff1681565b600082815260336020526040902060020154612d27906110ea613682565b6111ad5760405162461bcd60e51b8152600401808060200182810382526030815260200180614f626030913960400191505060405180910390fd5b606e5481565b60806020526000908152604090205481565b6000818152607c6020526040812054612dd8576000805260776020527f5bc4dfdf00d266d79007b974fdf03467b7a6429c65a950cd7d967e8c7af65da754821415612dd057612dc9600061440c565b90506110be565b5060006110be565b6000828152607c60205260409020546110659061440c565b607d6020526000908152604090205460ff1681565b6073546001600160a01b031681565b60725481565b80612e248161377b565b81612e2e816137c5565b60008381526081602052604090205483906001600160a01b03163314612e5357600080fd5b83612e5d81613804565b6000612e68866114d8565b6000878152607d60205260408120549192509060ff1660141415612e8e57506014612e9a565b612e9787611693565b90505b600087815260776020526040902060020154612ee1576040805162461bcd60e51b81526020600482015260016024820152602960f91b604482015290519081900360640190fd5b6000828152607c60209081526040808320839055607890915290205460ff1615612f295760ff81166000908152607f60205260409020612f27908363ffffffff6143b616565b505b612f338782613843565b6000878152607660209081526040808320600101546067548251633d76f98960e21b81526004810183905292519194936001600160a01b039091169263f5dbe6249260248083019392829003018186803b158015612f9057600080fd5b505afa158015612fa4573d6000803e3d6000fd5b505050506040513d6020811015612fba57600080fd5b505162ffffff16118015612fdb575060008181526080602052604090205442115b15612ffb576000818152608060205260409020620151804201905561309d565b606960009054906101000a90046001600160a01b03166001600160a01b03166323b872dd33306130356064611447606e546113568a613ec9565b6040518463ffffffff1660e01b815260040180846001600160a01b03166001600160a01b03168152602001836001600160a01b03166001600160a01b031681526020018281526020019350505050602060405180830381600087803b158015612ca057600080fd5b5050505050505050565b600054610100900460ff16806130c057506130c061443b565b806130ce575060005460ff16155b6131095760405162461bcd60e51b815260040180806020018281038252602e815260200180614f92602e913960400191505060405180910390fd5b600054610100900460ff16158015613134576000805460ff1961ff0019909116610100171660011790555b61313c61444c565b61314760003361112a565b606580546001600160a01b0319166001600160a01b0387811691909117918290556040805163341c2ed560e21b81529051929091169163d070bb5491600480820192602092909190829003018186803b1580156131a357600080fd5b505afa1580156131b7573d6000803e3d6000fd5b505050506040513d60208110156131cd57600080fd5b5051606680546001600160a01b0319166001600160a01b0392831617905560655460408051635bf0e6c360e11b81529051919092169163b7e1cd86916004808301926020929190829003018186803b15801561322857600080fd5b505afa15801561323c573d6000803e3d6000fd5b505050506040513d602081101561325257600080fd5b5051606780546001600160a01b03199081166001600160a01b0393841617909155606880549091168683161790556065546040805163d1ebdfd360e01b81529051919092169163d1ebdfd3916004808301926020929190829003018186803b1580156132bd57600080fd5b505afa1580156132d1573d6000803e3d6000fd5b505050506040513d60208110156132e757600080fd5b5051606980546001600160a01b03199081166001600160a01b0393841617909155606a80548216868416179055606b80549091169184169190911790556133316101f46064613e92565b606c8054600f9290920b6001600160801b03166001600160801b031990921691909117905561336260326064613e92565b606c8054600f9290920b6001600160801b03908116600160801b029216919091179055606d805460ff191660031790556019606e819055606f5560786070556611c37937e0800060725580156133be576000805461ff00191690555b5050505050565b604080516923a0a6a2afa0a226a4a760b11b8152905190819003600a0190206133ee90336118db565b6133f757600080fd5b565b6066546040805163acb586df60e01b815260048101849052905160009283926001600160a01b039091169163acb586df91602480820192602092909190829003018186803b15801561344a57600080fd5b505afa15801561345e573d6000803e3d6000fd5b505050506040513d602081101561347457600080fd5b5051600084815260766020908152604080832060020154606854825163f5de8f4b60e01b81526004810183905260ff87166024820152925195965090946001600160a01b039091169263f5de8f4b9260448082019391829003018186803b1580156134de57600080fd5b505afa1580156134f2573d6000803e3d6000fd5b505050506040513d602081101561350857600080fd5b505195945050505050565b6000600f82810b9084900b0360016001607f1b0319811280159061353e575060016001607f1b038113155b61171b57600080fd5b6000600f83810b9083900b0260401d60016001607f1b0319811280159061353e575060016001607f1b0381131561171b57600080fd5b600081600f0b6000141561359057600080fd5b600082600f0b604085600f0b901b816135a557fe5b05905060016001607f1b0319811280159061353e575060016001607f1b0381131561171b57600080fd5b60006110656135f960016135ed60ff8616600a63ffffffff613b1816565b9063ffffffff61435c16565b61135661361060ff8616600a63ffffffff613abf16565b6103e89063ffffffff61435c16565b6000600f83810b9083900b0160016001607f1b0319811280159061353e575060016001607f1b0381131561171b57600080fd5b600061367a6103e86135ed606461144762ffffff871683600f8a900b8b63ffffffff6144ed16565b949350505050565b3390565b60008281526033602052604090206136a4908263ffffffff61455516565b15611134576136b1613682565b6001600160a01b0316816001600160a01b0316837f2f8788117e7eff1d82e926ec794901d17c78024a50270940304540a733656f0d60405160405180910390a45050565b6000828152603360205260409020613713908263ffffffff61456a16565b1561113457613720613682565b6001600160a01b0316816001600160a01b0316837ff6391f5c32d9c69d2a47ea670b442974b53935d1edc7fd64eb21e047a839171b60405160405180910390a45050565b60006110658261457f565b600061171b8383614583565b60008181526078602052604090205460ff166137c2576040805162461bcd60e51b81526020600482015260016024820152602760f91b604482015290519081900360640190fd5b50565b6137ce81612d7a565b156137c2576040805162461bcd60e51b81526020600482015260016024820152605560f81b604482015290519081900360640190fd5b61380d816145e7565b156137c2576040805162461bcd60e51b81526020600482015260016024820152605160f81b604482015290519081900360640190fd5b60ff81166000908152607f6020526040902061385e81613764565b613893576040805162461bcd60e51b81526020600482015260016024820152601360fa1b604482015290519081900360640190fd5b606a5460408051630e20f61560e21b815233600482015290516000926001600160a01b031691633883d854916024808301926020929190829003018186803b1580156138de57600080fd5b505afa1580156138f2573d6000803e3d6000fd5b505050506040513d602081101561390857600080fd5b50519050600061392481600161391d86613764565b0384614616565b905060008061393285613764565b90506000805b82811015613a00576000838287018161394d57fe5b0690506000613962898363ffffffff61376f16565b90508a8114156139c557846001141561397c575050613a00565b806139918a600019880163ffffffff61376f16565b14156139af576139a889600063ffffffff61376f16565b90506139c5565b6139c2896001840163ffffffff61376f16565b90505b6000818152608160205260409020546001600160a01b03163314156139eb5750506139f8565b945060019250613a009050565b600101613938565b5080613a37576040805162461bcd60e51b81526020600482015260016024820152604560f81b604482015290519081900360640190fd5b6040805160608101825289815260208082018681524283850190815260008d815260778452858120945185559151600185015551600290930192909255858252607c81528282208b905560ff8a168252607f905220613a9c908963ffffffff6143c216565b5060ff87166000908152607f602052604090206114cd908463ffffffff6143c216565b600082613ace57506000611065565b82820282848281613adb57fe5b041461171b5760405162461bcd60e51b8152600401808060200182810382526021815260200180614fc06021913960400191505060405180910390fd5b6000808211613b6e576040805162461bcd60e51b815260206004820152601a60248201527f536166654d6174683a206469766973696f6e206279207a65726f000000000000604482015290519081900360640190fd5b818381613b7757fe5b049392505050565b600082821115613bd6576040805162461bcd60e51b815260206004820152601e60248201527f536166654d6174683a207375627472616374696f6e206f766572666c6f770000604482015290519081900360640190fd5b50900390565b81613be68161377b565b6000838152607660209081526040808320600181015460028201546003830154607e9095529290942092909255600482015491929160ff1615613ca7576000818152607a6020526040808220805460ff191690556068548151631f771def60e31b815260048101859052600160248201526044810184905291516001600160a01b039091169263fbb8ef78926064808201939182900301818387803b158015613c8e57600080fd5b505af1158015613ca2573d6000803e3d6000fd5b505050505b600086815260766020908152604080832083815560018082018590556002808301869055600383018690556004909201805460ff19169055607784528285208581559081018590550183905560ff88168352607f9091529020613d10908763ffffffff61402c16565b15613d395760ff85166000908152607f60205260409020613d37908763ffffffff6143c216565b505b6000868152607860209081526040808320805460ff19908116909155858452607990925280832080549092169091556066548151631f771def60e31b8152600481018a9052600160248201526044810184905291516001600160a01b039091169263fbb8ef78926064808201939182900301818387803b158015613dbc57600080fd5b505af1158015613dd0573d6000803e3d6000fd5b505060675460408051631f771def60e31b8152600481018790526001602482015260006044820181905291516001600160a01b03909316945063fbb8ef7893506064808201939182900301818387803b158015613e2c57600080fd5b505af1158015612cca573d6000803e3d6000fd5b604080516001600160a01b038416602482015260448082018490528251808303909101815260649091019091526020810180516001600160e01b031663a9059cbb60e01b179052612107908490614680565b600081613e9e57600080fd5b6000613eaa8484614731565b905060016001607f1b036001600160801b038216111561171b57600080fd5b60008160ff1660141415613f2d57606554606c5460408051630a8a921560e01b8152600f92830b830b90920b6004830152516001600160a01b0390921691630a8a921591602480820192602092909190829003018186803b15801561157257600080fd5b606c546000906115e090600160801b9004600f0b610f7a6115d960ff8716606463ffffffff613abf16565b600061106560ff8316600a63ffffffff613b1816565b600061171b836001600160a01b03841661487b565b613f8b614e8b565b81815260665460408051634a83e9cd60e11b81526004810185905290516001600160a01b0390921691639507d39a9160248082019261014092909190829003018186803b158015613fdb57600080fd5b505afa158015613fef573d6000803e3d6000fd5b505050506040513d61014081101561400657600080fd5b5060208082015160409283015160ff908116938501939093529190911690820152919050565b600061171b838361487b565b600080614049856000015184610e18565b9050614053614eb9565b5084516000908152607660209081526040808320815160a0810183528154815260018201548185018190526002830154828501526003830154606083015260049283015460ff1615156080830152606a548b5187526081865284872054855163319b22a760e01b81526001600160a01b039182169581019590955260001943014060248601529451929691959194169263319b22a79260448083019392829003018186803b15801561410457600080fd5b505afa158015614118573d6000803e3d6000fd5b505050506040513d602081101561412e57600080fd5b50516067546040805163acb586df60e01b81526004810186905290519293506000926001600160a01b039092169163acb586df91602480820192602092909190829003018186803b15801561418257600080fd5b505afa158015614196573d6000803e3d6000fd5b505050506040513d60208110156141ac57600080fd5b505160408a01519091506000906141c490838b614893565b905060006141d78762ffffff16856149dc565b90506141ed600f83900b8263ffffffff6144ed16565b9b9a5050505050505050505050565b60008160ff1660048460010160ff168161421257fe5b0660ff1614905092915050565b60008080614239606461144786605a63ffffffff613abf16565b90506000614253606461144787606e63ffffffff613abf16565b9050600061426d606461144789605a63ffffffff613abf16565b9050600061428760646114478a606e63ffffffff613abf16565b9050600061429b848663ffffffff613b7f16565b905060006142af838563ffffffff613b7f16565b905060006142c3848863ffffffff613b7f16565b905060006142dc8461144784606463ffffffff613abf16565b905060006142f58461144785606463ffffffff613abf16565b90506000614314614e206114476064611356878763ffffffff613abf16565b9050603281101561434b5761433861433360328363ffffffff613b7f16565b614a21565b9b506110659a5050505050505050505050565b505050505050505050505092915050565b60008282018381101561171b576040805162461bcd60e51b815260206004820152601b60248201527f536166654d6174683a206164646974696f6e206f766572666c6f770000000000604482015290519081900360640190fd5b600061171b8383614a9f565b600061171b8383614ae9565b6143d78161440c565b6137c2576040805162461bcd60e51b81526020600482015260016024820152601160fa1b604482015290519081900360640190fd5b607054600082815260776020526040812060020154909142916144349163ffffffff61435c16565b1192915050565b600061444630614baf565b15905090565b600054610100900460ff1680614465575061446561443b565b80614473575060005460ff16155b6144ae5760405162461bcd60e51b815260040180806020018281038252602e815260200180614f92602e913960400191505060405180910390fd5b600054610100900460ff161580156144d9576000805460ff1961ff0019909116610100171660011790555b80156137c2576000805461ff001916905550565b6000816144fc57506000611065565b600083600f0b121561450d57600080fd5b600f83900b6001600160801b038316810260401c90608084901c026001600160c01b0381111561453c57600080fd5b60401b811981111561454d57600080fd5b019392505050565b600061171b836001600160a01b038416614a9f565b600061171b836001600160a01b038416614ae9565b5490565b815460009082106145c55760405162461bcd60e51b8152600401808060200182810382526022815260200180614eeb6022913960400191505060405180910390fd5b8260000182815481106145d457fe5b9060005260206000200154905092915050565b60006145fa60748363ffffffff61402c16565b806110655750506000908152607b602052604090205460ff1690565b60008061462e60016135ed868863ffffffff613b7f16565b6040805160208082018790528251808303820181529183019092528051910120909150600090614664908363ffffffff614bb516565b9050614676818763ffffffff61435c16565b9695505050505050565b60606146d5826040518060400160405280602081526020017f5361666545524332303a206c6f772d6c6576656c2063616c6c206661696c6564815250856001600160a01b0316614c1c9092919063ffffffff16565b805190915015612107578080602001905160208110156146f457600080fd5b50516121075760405162461bcd60e51b815260040180806020018281038252602a815260200180614fe1602a913960400191505060405180910390fd5b60008161473d57600080fd5b60006001600160c01b0384116147625782604085901b8161475a57fe5b049050614867565b60c084811c640100000000811061477b576020918201911c5b62010000811061478d576010918201911c5b610100811061479e576008918201911c5b601081106147ae576004918201911c5b600481106147be576002918201911c5b600281106147cd576001820191505b60bf820360018603901c6001018260ff0387901b816147e857fe5b0492506001600160801b038311156147ff57600080fd5b608085901c83026001600160801b038616840260c088901c604089901b8281101561482b576001820391505b608084901b92900382811015614842576001820391505b829003608084901c821461485257fe5b88818161485b57fe5b04870196505050505050505b6001600160801b0381111561171b57600080fd5b60009081526001919091016020526040902054151590565b6000806148a06001614c2b565b90506000606560009054906101000a90046001600160a01b03166001600160a01b0316637d3eb7d36040518163ffffffff1660e01b815260040160206040518083038186803b1580156148f257600080fd5b505afa158015614906573d6000803e3d6000fd5b505050506040513d602081101561491c57600080fd5b50519050600061492e60326064613e92565b90508560ff168760ff16141561496a57614967614956600f84900b600363ffffffff61354716565b600f85900b9063ffffffff61361f16565b92505b61497487866141fc565b1561499757614990614956600f84900b8363ffffffff61354716565b92506149d1565b6149a185886141fc565b156149d1576149ce6149bd600f84900b8363ffffffff61354716565b600f85900b9063ffffffff61351316565b92505b509095945050505050565b6000806149f084600a63ffffffff613b1816565b905061367a614a116000614a0b84600263ffffffff613abf16565b86614616565b6135ed868463ffffffff613b7f16565b600060288211614a4357612dc9603583900a603284900a63ffffffff613b1816565b612dc960076135ed614a726030614a66600a61144789600d63ffffffff613abf16565b9063ffffffff613b7f16565b60020a614a906030614a66600a6114478a600d63ffffffff613abf16565b60030a9063ffffffff613b1816565b6000614aab838361487b565b614ae157508154600181810184556000848152602080822090930184905584548482528286019093526040902091909155611065565b506000611065565b60008181526001830160205260408120548015614ba55783546000198083019190810190600090879083908110614b1c57fe5b9060005260206000200154905080876000018481548110614b3957fe5b600091825260208083209091019290925582815260018981019092526040902090840190558654879080614b6957fe5b60019003818190600052602060002001600090559055866001016000878152602001908152602001600020600090556001945050505050611065565b6000915050611065565b3b151590565b6000808211614c0b576040805162461bcd60e51b815260206004820152601860248201527f536166654d6174683a206d6f64756c6f206279207a65726f0000000000000000604482015290519081900360640190fd5b818381614c1457fe5b069392505050565b606061367a8484600085614c49565b6000677fffffffffffffff821115614c4257600080fd5b5060401b90565b606082471015614c8a5760405162461bcd60e51b8152600401808060200182810382526026815260200180614f3c6026913960400191505060405180910390fd5b614c9385614baf565b614ce4576040805162461bcd60e51b815260206004820152601d60248201527f416464726573733a2063616c6c20746f206e6f6e2d636f6e7472616374000000604482015290519081900360640190fd5b60006060866001600160a01b031685876040518082805190602001908083835b60208310614d235780518252601f199092019160209182019101614d04565b6001836020036101000a03801982511681845116808217855250505050505090500191505060006040518083038185875af1925050503d8060008114614d85576040519150601f19603f3d011682016040523d82523d6000602084013e614d8a565b606091505b5091509150614d9a828286614da5565b979650505050505050565b60608315614db457508161171b565b825115614dc45782518084602001fd5b8160405162461bcd60e51b81526004018080602001828103825283818151815260200191508051906020019080838360005b83811015614e0e578181015183820152602001614df6565b50505050905090810190601f168015614e3b5780820380516001836020036101000a031916815260200191505b509250505060405180910390fd5b6040518060c00160405280614e5c614e8b565b8152602001614e69614e8b565b8152600060208201819052604082018190526060820181905260809091015290565b6040805160a08101825260008082526020820181905291810182905260608101829052608081019190915290565b6040518060a0016040528060008152602001600081526020016000815260200160008152602001600015158152509056fe456e756d657261626c655365743a20696e646578206f7574206f6620626f756e6473416363657373436f6e74726f6c3a2073656e646572206d75737420626520616e2061646d696e20746f206772616e74416464726573733a20696e73756666696369656e742062616c616e636520666f722063616c6c416363657373436f6e74726f6c3a2073656e646572206d75737420626520616e2061646d696e20746f207265766f6b65496e697469616c697a61626c653a20636f6e747261637420697320616c726561647920696e697469616c697a6564536166654d6174683a206d756c7469706c69636174696f6e206f766572666c6f775361666545524332303a204552433230206f7065726174696f6e20646964206e6f742073756363656564416363657373436f6e74726f6c3a2063616e206f6e6c792072656e6f756e636520726f6c657320666f722073656c66a2646970667358221220a98cfde15dd5c002a57c9a5203b3114e130d57685d72867ccf1a07989842def764736f6c63430006050033",
  "immutableReferences": {},
  "source": "pragma solidity ^0.6.0;\r\nimport \"@openzeppelin/contracts-upgradeable/proxy/Initializable.sol\";\r\nimport \"@openzeppelin/contracts-upgradeable/access/AccessControlUpgradeable.sol\";\r\nimport \"@openzeppelin/contracts/math/SafeMath.sol\";\r\nimport \"@openzeppelin/contracts/token/ERC20/IERC20.sol\";\r\nimport \"@openzeppelin/contracts/token/ERC20/SafeERC20.sol\";\r\nimport \"@openzeppelin/contracts/utils/EnumerableSet.sol\";\r\nimport \"./interfaces/IRandoms.sol\";\r\nimport \"./cryptoblades.sol\";\r\nimport \"./characters.sol\";\r\nimport \"./weapons.sol\";\r\nimport \"./shields.sol\";\r\nimport \"./common.sol\";\r\nimport \"./PvpRankings.sol\";\r\n\r\ncontract PvpCore is Initializable, AccessControlUpgradeable {\r\n    using EnumerableSet for EnumerableSet.UintSet;\r\n    using SafeMath for uint8;\r\n    using SafeMath for uint24;\r\n    using SafeMath for uint256;\r\n    using ABDKMath64x64 for int128;\r\n    using SafeERC20 for IERC20;\r\n\r\n    struct Fighter {\r\n        uint256 characterID;\r\n        uint256 weaponID;\r\n        uint256 shieldID;\r\n        uint256 wager;\r\n        bool useShield;\r\n    }\r\n\r\n    struct Match {\r\n        uint256 attackerID;\r\n        uint256 defenderID;\r\n        uint256 createdAt;\r\n    }\r\n\r\n    struct Duelist {\r\n        uint256 ID;\r\n        uint8 level;\r\n        uint8 trait;\r\n        uint24 roll;\r\n        uint256 power;\r\n    }\r\n\r\n    struct Duel {\r\n        Duelist attacker;\r\n        Duelist defender;\r\n        uint8 tier;\r\n        uint256 cost;\r\n        bool attackerWon;\r\n        uint256 bonusRank;\r\n    }\r\n\r\n    bytes32 public constant GAME_ADMIN = keccak256(\"GAME_ADMIN\");\r\n\r\n    CryptoBlades public game;\r\n    Characters public characters;\r\n    Weapons public weapons;\r\n    Shields public shields;\r\n    IERC20 public skillToken;\r\n    IRandoms public randoms;\r\n    PvpRankings public pvprankings;\r\n\r\n    /// @dev the base amount wagered per duel in dollars\r\n    int128 private _baseWagerUSD;\r\n    /// @dev how much extra USD is wagered per level tier\r\n    int128 private _tierWagerUSD;\r\n    /// @dev how many times the cost of battling must be wagered to enter the arena\r\n    uint8 public wageringFactor;\r\n    /// @dev percentage of duel cost charged when rerolling opponent\r\n    uint256 public reRollFeePercent;\r\n    /// @dev percentage of entry wager charged when withdrawing from arena with pending duel\r\n    uint256 public withdrawFeePercent;\r\n    /// @dev amount of time a match finder has to make a decision\r\n    uint256 public decisionSeconds;\r\n    /// @dev allows or blocks entering arena (we can extend later to disable other parts such as rerolls)\r\n    uint256 public arenaAccess; // 0 = cannot join, 1 = can join\r\n    /// @dev value sent by players to offset bot's duel costs\r\n    uint256 public duelOffsetCost;\r\n    /// @dev PvP bot address\r\n    address payable public pvpBotAddress;\r\n    /// @dev characters by id that are on queue to perform a duel\r\n    EnumerableSet.UintSet private _duelQueue;\r\n\r\n    /// @dev Fighter by characterID\r\n    mapping(uint256 => Fighter) public fighterByCharacter;\r\n    /// @dev Active match by characterID of the finder\r\n    mapping(uint256 => Match) public matchByFinder;\r\n    /// @dev if character is currently in the arena\r\n    mapping(uint256 => bool) public isCharacterInArena;\r\n    /// @dev if weapon is currently in the arena\r\n    mapping(uint256 => bool) public isWeaponInArena;\r\n    /// @dev if shield is currently in the arena\r\n    mapping(uint256 => bool) public isShieldInArena;\r\n    /// @dev if defender is in a duel that has not finished processing\r\n    mapping(uint256 => bool) public isDefending;\r\n    /// @dev if a character is someone else's opponent\r\n    mapping(uint256 => uint256) public finderByOpponent;\r\n    /// @dev character's tier when it last entered arena. Used to reset rank if it changes\r\n    mapping(uint256 => uint8) public previousTierByCharacter;\r\n    /// @dev excess wager by character for when they re-enter the arena\r\n    mapping(uint256 => uint256) public excessWagerByCharacter;\r\n    /// @dev IDs of characters available for matchmaking by tier\r\n    mapping(uint8 => EnumerableSet.UintSet) private _matchableCharactersByTier;\r\n    /// @dev special weapon reroll timestamp\r\n    mapping(uint256 => uint256) public specialWeaponRerollTimestamp;\r\n    /// @dev owner's address by character ID\r\n    mapping(uint256 => address) private _ownerByCharacter;\r\n    \r\n    event DuelFinished(\r\n        uint256 indexed attacker,\r\n        uint256 indexed defender,\r\n        uint256 timestamp,\r\n        uint256 attackerRoll,\r\n        uint256 defenderRoll,\r\n        bool attackerWon,\r\n        uint256 bonusRank\r\n    );\r\n\r\n    event CharacterKicked(\r\n        uint256 indexed characterID,\r\n        uint256 kickedBy,\r\n        uint256 timestamp\r\n    );\r\n\r\n    modifier characterInArena(uint256 characterID) {\r\n        _characterInArena(characterID);\r\n        _;\r\n    }\r\n\r\n    function _characterInArena(uint256 characterID) internal view {\r\n        require(isCharacterInArena[characterID], \"N\");\r\n    }\r\n\r\n    modifier characterWithinDecisionTime(uint256 characterID) {\r\n        _characterWithinDecisionTime(characterID);\r\n        _;\r\n    }\r\n\r\n    function _characterWithinDecisionTime(uint256 characterID) internal view {\r\n        require(\r\n            isCharacterWithinDecisionTime(characterID),\r\n            \"D\"\r\n        );\r\n    }\r\n\r\n    modifier characterNotUnderAttack(uint256 characterID) {\r\n        _characterNotUnderAttack(characterID);\r\n        _;\r\n    }\r\n\r\n    function _characterNotUnderAttack(uint256 characterID) internal view {\r\n        require(!isCharacterUnderAttack(characterID), \"U\");\r\n    }\r\n\r\n    modifier characterNotInDuel(uint256 characterID) {\r\n        _characterNotInDuel(characterID);\r\n        _;\r\n    }\r\n\r\n    function _characterNotInDuel(uint256 characterID) internal view {\r\n        require(!isCharacterInDuel(characterID), \"Q\");\r\n    }\r\n\r\n    modifier isOwnedCharacter(uint256 characterID) {\r\n        require(_ownerByCharacter[characterID] == msg.sender);\r\n        _;\r\n    }\r\n\r\n    modifier restricted() {\r\n        _restricted();\r\n        _;\r\n    }\r\n\r\n    function _restricted() internal view {\r\n        require(hasRole(GAME_ADMIN, msg.sender));\r\n    }\r\n\r\n    function initialize(\r\n        address gameContract,\r\n        address shieldsContract,\r\n        address randomsContract,\r\n        address pvpRankingsContract\r\n    ) public initializer {\r\n        __AccessControl_init_unchained();\r\n        _setupRole(DEFAULT_ADMIN_ROLE, msg.sender);\r\n\r\n        game = CryptoBlades(gameContract);\r\n        characters = Characters(game.characters());\r\n        weapons = Weapons(game.weapons());\r\n        shields = Shields(shieldsContract);\r\n        skillToken = IERC20(game.skillToken());\r\n        randoms = IRandoms(randomsContract);\r\n        pvprankings = PvpRankings(pvpRankingsContract);\r\n\r\n        _baseWagerUSD = ABDKMath64x64.divu(500, 100); // $5\r\n        _tierWagerUSD = ABDKMath64x64.divu(50, 100); // $0.5\r\n        wageringFactor = 3;\r\n        reRollFeePercent = 25;\r\n        withdrawFeePercent = 25;\r\n        decisionSeconds = 2 minutes;\r\n        duelOffsetCost = 0.005 ether;\r\n    }\r\n\r\n    /// @dev enter the arena with a character, a weapon and optionally a shield\r\n    function enterArena(\r\n        uint256 characterID,\r\n        uint256 weaponID,\r\n        uint256 shieldID,\r\n        bool useShield,\r\n        bool tierless\r\n    ) external {\r\n        require(\r\n            characters.ownerOf(characterID) == msg.sender &&\r\n                weapons.ownerOf(weaponID) == msg.sender\r\n        );\r\n\r\n        require(characters.getNftVar(characterID, 1) == 0 && weapons.getNftVar(weaponID, 1) == 0, \"B\");\r\n\r\n        if (useShield) {\r\n            require(shields.ownerOf(shieldID) == msg.sender);\r\n            require(shields.getNftVar(shieldID, 1) == 0, \"S\");\r\n        }\r\n\r\n        require((arenaAccess & 1) == 1, \"L\");\r\n\r\n        uint8 tier;\r\n        if (tierless) {\r\n            tier = 20;\r\n        } else {\r\n            tier = getArenaTier(characterID);\r\n        }\r\n\r\n        uint256 wager = getEntryWagerByTier(tier);\r\n\r\n        if (_ownerByCharacter[characterID] != msg.sender) {\r\n            _ownerByCharacter[characterID] = msg.sender;\r\n        }\r\n\r\n        if (previousTierByCharacter[characterID] != tier) {\r\n            pvprankings.changeRankingPoints(characterID, 0);\r\n        }\r\n\r\n        pvprankings.handleEnterArena(msg.sender, characterID, tier);\r\n\r\n        isCharacterInArena[characterID] = true;\r\n        characters.setNftVar(characterID, 1, 1);\r\n\r\n        isWeaponInArena[weaponID] = true;\r\n        weapons.setNftVar(weaponID, 1, 1);\r\n\r\n        if (useShield) {\r\n            isShieldInArena[shieldID] = true;\r\n            shields.setNftVar(shieldID, 1, 1);\r\n        }\r\n\r\n        uint256 characterWager;\r\n\r\n        if (excessWagerByCharacter[characterID] != 0) {\r\n            characterWager = excessWagerByCharacter[characterID];\r\n        } else {\r\n            characterWager = fighterByCharacter[characterID].wager;\r\n        }\r\n\r\n        _matchableCharactersByTier[tier].add(characterID);\r\n        fighterByCharacter[characterID] = Fighter(\r\n            characterID,\r\n            weaponID,\r\n            shieldID,\r\n            wager.add(characterWager),\r\n            useShield\r\n        );\r\n        previousTierByCharacter[characterID] = tier;\r\n        excessWagerByCharacter[characterID] = 0;\r\n\r\n        skillToken.transferFrom(msg.sender, address(this), wager);\r\n    }\r\n\r\n    /// @dev withdraws a character and its items from the arena.\r\n    /// if the character is in a battle, a penalty is charged\r\n    function withdrawFromArena(uint256 characterID)\r\n        external\r\n        isOwnedCharacter(characterID)\r\n        characterInArena(characterID)\r\n        characterNotUnderAttack(characterID)\r\n        characterNotInDuel(characterID)\r\n    {\r\n        Fighter storage fighter = fighterByCharacter[characterID];\r\n        uint256 wager = fighter.wager;\r\n\r\n        uint8 tier;\r\n        \r\n        if (previousTierByCharacter[characterID] == 20) {\r\n            tier = 20;\r\n        } else {\r\n            tier = getArenaTier(characterID);\r\n        }\r\n\r\n        uint256 entryWager = getEntryWager(characterID);\r\n\r\n        if (matchByFinder[characterID].createdAt != 0) {\r\n            if (wager < entryWager.mul(withdrawFeePercent).div(100)) {\r\n                wager = 0;\r\n            } else {\r\n                wager = wager.sub(entryWager.mul(withdrawFeePercent).div(100));\r\n            }\r\n        }\r\n\r\n        _removeCharacterFromArena(characterID, tier);\r\n\r\n        excessWagerByCharacter[characterID] = 0;\r\n        fighter.wager = 0;\r\n\r\n        skillToken.safeTransfer(msg.sender, wager);\r\n    }\r\n\r\n    /// @dev attempts to find an opponent for a character\r\n    function findOpponent(uint256 characterID)\r\n        external\r\n        isOwnedCharacter(characterID)\r\n        characterInArena(characterID)\r\n        characterNotUnderAttack(characterID)\r\n        characterNotInDuel(characterID)\r\n    {\r\n        require(matchByFinder[characterID].createdAt == 0, \"M\");\r\n\r\n        uint8 tier;\r\n\r\n        if (previousTierByCharacter[characterID] == 20) {\r\n            tier = 20;\r\n        } else {\r\n            tier = getArenaTier(characterID);\r\n        }\r\n\r\n        _assignOpponent(characterID, tier);\r\n    }\r\n\r\n    /// @dev attempts to find a new opponent for a fee\r\n    function reRollOpponent(uint256 characterID)\r\n        external\r\n        characterInArena(characterID)\r\n        characterNotUnderAttack(characterID)\r\n        isOwnedCharacter(characterID)\r\n        characterNotInDuel(characterID)\r\n    {\r\n        uint256 opponentID = getOpponent(characterID);\r\n        uint8 tier;\r\n        \r\n        if (previousTierByCharacter[characterID] == 20) {\r\n            tier = 20;\r\n        } else {\r\n            tier = getArenaTier(characterID);\r\n        }\r\n\r\n        require(matchByFinder[characterID].createdAt != 0, \"R\");\r\n\r\n        delete finderByOpponent[opponentID];\r\n        if (isCharacterInArena[opponentID]) {\r\n            _matchableCharactersByTier[tier].add(opponentID);\r\n        }\r\n\r\n        _assignOpponent(characterID, tier);\r\n\r\n        uint256 weaponID = fighterByCharacter[characterID].weaponID;\r\n        if(weapons.getWeaponType(weaponID) > 0 && specialWeaponRerollTimestamp[weaponID] < block.timestamp) {\r\n            specialWeaponRerollTimestamp[weaponID] = block.timestamp + 24 hours;\r\n        }\r\n        else {\r\n            skillToken.transferFrom(\r\n                msg.sender,\r\n                address(this),\r\n                getDuelCostByTier(tier).mul(reRollFeePercent).div(100)\r\n            );\r\n        }\r\n    }\r\n\r\n    /// @dev adds a character to the duel queue\r\n    function prepareDuel(uint256 attackerID)\r\n        external\r\n        payable\r\n        isOwnedCharacter(attackerID)\r\n        characterInArena(attackerID)\r\n        characterWithinDecisionTime(attackerID)\r\n        characterNotInDuel(attackerID)\r\n    {\r\n        require((arenaAccess & 1) == 1);\r\n        require(msg.value == duelOffsetCost, \"O\");\r\n\r\n        uint256 defenderID = getOpponent(attackerID);\r\n\r\n        pvprankings.handlePrepareDuel(msg.sender, attackerID);\r\n\r\n        pvprankings.handlePrepareDuel(msg.sender, defenderID);\r\n\r\n        isDefending[defenderID] = true;\r\n\r\n        _duelQueue.add(attackerID);\r\n\r\n        pvpBotAddress.transfer(msg.value);\r\n    }\r\n\r\n    function createDuelist(uint256 id) internal view returns (Duelist memory duelist) {\r\n        duelist.ID = id;\r\n\r\n        (\r\n            , // xp\r\n            duelist.level,\r\n            duelist.trait,\r\n            , // staminaTimestamp\r\n            , // head\r\n            , // torso\r\n            , // legs\r\n            , // boots\r\n            , // race\r\n        ) = characters.get(id);\r\n    }\r\n\r\n    /// @dev performs a list of duels\r\n    function performDuels(uint256[] calldata attackerIDs) external restricted {\r\n        for (uint256 i = 0; i < attackerIDs.length; i++) {\r\n            Duel memory duel;\r\n            duel.attacker = createDuelist(attackerIDs[i]);\r\n\r\n            if (!_duelQueue.contains(duel.attacker.ID)) continue;\r\n\r\n            duel.defender = createDuelist(getOpponent(duel.attacker.ID));\r\n\r\n            if (previousTierByCharacter[duel.attacker.ID] == 20) {\r\n                duel.tier = 20;\r\n            } else {\r\n                duel.tier = getArenaTierForLevel(duel.attacker.level);\r\n            }\r\n\r\n            duel.cost = getDuelCostByTier(duel.tier);\r\n\r\n            duel.attacker.power = getCharacterPower(duel.attacker.ID, duel.tier);\r\n            duel.defender.power = getCharacterPower(duel.defender.ID, duel.tier);\r\n\r\n            duel.attacker.roll = _getCharacterPowerRoll(duel.attacker, duel.defender.trait, duel.tier);\r\n            duel.defender.roll = _getCharacterPowerRoll(duel.defender, duel.attacker.trait, duel.tier);\r\n\r\n            // Reduce defender roll if attacker has a shield\r\n            if (fighterByCharacter[duel.attacker.ID].useShield) {\r\n                uint24 attackerShieldDefense = 3;\r\n\r\n                uint8 attackerShieldTrait = shields.getTrait(\r\n                    fighterByCharacter[duel.attacker.ID].shieldID\r\n                );\r\n\r\n                if (\r\n                    Common.isTraitEffectiveAgainst(attackerShieldTrait, duel.defender.trait)\r\n                ) {\r\n                    attackerShieldDefense = 10;\r\n                }\r\n\r\n                duel.defender.roll = uint24(\r\n                    (duel.defender.roll.mul(uint24(100).sub(attackerShieldDefense)))\r\n                        .div(100)\r\n                );\r\n            }\r\n\r\n            // Reduce attacker roll if defender has a shield\r\n            if (fighterByCharacter[duel.defender.ID].useShield) {\r\n                uint24 defenderShieldDefense = 3;\r\n\r\n                uint8 defenderShieldTrait = shields.getTrait(\r\n                    fighterByCharacter[duel.defender.ID].shieldID\r\n                );\r\n\r\n                if (\r\n                    Common.isTraitEffectiveAgainst(defenderShieldTrait, duel.attacker.trait)\r\n                ) {\r\n                    defenderShieldDefense = 10;\r\n                }\r\n\r\n                duel.attacker.roll = uint24(\r\n                    (duel.attacker.roll.mul(uint24(100).sub(defenderShieldDefense)))\r\n                        .div(100)\r\n                );\r\n            }\r\n\r\n            duel.attackerWon = (duel.attacker.roll >= duel.defender.roll);\r\n\r\n            uint256 winnerID = duel.attackerWon\r\n                ? duel.attacker.ID\r\n                : duel.defender.ID;\r\n            uint256 loserID = duel.attackerWon\r\n                ? duel.defender.ID\r\n                : duel.attacker.ID;\r\n\r\n            if (winnerID == duel.attacker.ID && duel.attacker.power < duel.defender.power) {\r\n                duel.bonusRank = Common.getBonusRankingPoints(duel.attacker.power, duel.defender.power);\r\n            } else if (winnerID == duel.defender.ID && duel.attacker.power > duel.defender.power) {\r\n                duel.bonusRank = Common.getBonusRankingPoints(duel.defender.power, duel.attacker.power);           \r\n            }\r\n\r\n            emit DuelFinished(\r\n                duel.attacker.ID,\r\n                duel.defender.ID,\r\n                block.timestamp,\r\n                duel.attacker.roll,\r\n                duel.defender.roll,\r\n                duel.attackerWon,\r\n                duel.bonusRank\r\n            );\r\n\r\n            (\r\n                uint256 reward,\r\n                uint256 poolTax\r\n            ) = pvprankings.getDuelBountyDistribution(duel.cost);\r\n\r\n            fighterByCharacter[winnerID].wager = fighterByCharacter[winnerID]\r\n                .wager\r\n                .add(reward);\r\n\r\n            uint256 loserWager;\r\n\r\n            if (\r\n                fighterByCharacter[loserID].wager <\r\n                duel.cost\r\n            ) {\r\n                loserWager = 0;\r\n            } else {\r\n                loserWager = fighterByCharacter[loserID].wager.sub(\r\n                    duel.cost\r\n                );\r\n            }\r\n\r\n            fighterByCharacter[loserID].wager = loserWager;\r\n\r\n            delete matchByFinder[duel.attacker.ID];\r\n            delete finderByOpponent[duel.defender.ID];\r\n            isDefending[duel.defender.ID] = false;\r\n\r\n            if (\r\n                fighterByCharacter[loserID].wager < duel.cost ||\r\n                fighterByCharacter[loserID].wager <\r\n                getEntryWagerByTier(duel.tier).mul(withdrawFeePercent).div(100)\r\n            ) {\r\n                _removeCharacterFromArena(loserID, duel.tier);\r\n                emit CharacterKicked(\r\n                    loserID,\r\n                    winnerID,\r\n                    block.timestamp\r\n                );\r\n            } else {\r\n                _matchableCharactersByTier[duel.tier].add(loserID);\r\n            }\r\n\r\n            _matchableCharactersByTier[duel.tier].add(winnerID);\r\n\r\n            pvprankings.handlePerformDuel(winnerID, loserID, duel.bonusRank, duel.tier, poolTax);\r\n\r\n            skillToken.safeTransfer(address(pvprankings), poolTax);\r\n\r\n            _duelQueue.remove(duel.attacker.ID);\r\n        }\r\n    }\r\n\r\n    /// @dev wether or not the character is still in time to start a duel\r\n    function isCharacterWithinDecisionTime(uint256 characterID)\r\n        internal\r\n        view\r\n        returns (bool)\r\n    {\r\n        return\r\n            matchByFinder[characterID].createdAt.add(decisionSeconds) >\r\n            block.timestamp;\r\n    }\r\n\r\n    /// @dev checks wether or not the character is actively someone else's opponent\r\n    function isCharacterUnderAttack(uint256 characterID)\r\n        public\r\n        view\r\n        returns (bool)\r\n    {\r\n        if (finderByOpponent[characterID] == 0) {\r\n            if (matchByFinder[0].defenderID == characterID) {\r\n                return isCharacterWithinDecisionTime(0);\r\n            }\r\n            return false;\r\n        }\r\n\r\n        return isCharacterWithinDecisionTime(finderByOpponent[characterID]);\r\n    }\r\n\r\n    /// @dev checks wether or not the character is currently in the duel queue\r\n    function isCharacterInDuel(uint256 characterID)\r\n        internal\r\n        view\r\n        returns (bool)\r\n    {\r\n        return _duelQueue.contains(characterID) || isDefending[characterID];\r\n    }\r\n\r\n    /// @dev gets the amount of SKILL required to enter the arena\r\n    function getEntryWager(uint256 characterID) public view returns (uint256) {\r\n        return getDuelCost(characterID).mul(wageringFactor);\r\n    }\r\n\r\n    /// @dev gets the amount of SKILL required to enter the arena by tier\r\n    function getEntryWagerByTier(uint8 tier) public view returns (uint256) {\r\n        return getDuelCostByTier(tier).mul(wageringFactor);\r\n    }\r\n\r\n    /// @dev gets the amount of SKILL that is risked per duel\r\n    function getDuelCost(uint256 characterID) public view returns (uint256) {\r\n        if (previousTierByCharacter[characterID] == 20) {\r\n            return  game.usdToSkill(_baseWagerUSD);\r\n        }\r\n\r\n        int128 tierExtra = ABDKMath64x64\r\n            .divu(getArenaTier(characterID).mul(100), 100)\r\n            .mul(_tierWagerUSD);\r\n\r\n        return game.usdToSkill(_baseWagerUSD.add(tierExtra));\r\n    }\r\n\r\n    /// @dev gets the amount of SKILL that is risked per duel by tier\r\n    function getDuelCostByTier(uint8 tier) internal view returns (uint256) {\r\n        if (tier == 20) {\r\n            return game.usdToSkill(_baseWagerUSD);\r\n        }\r\n\r\n        int128 tierExtra = ABDKMath64x64\r\n            .divu(tier.mul(100), 100)\r\n            .mul(_tierWagerUSD);\r\n\r\n        return game.usdToSkill(_baseWagerUSD.add(tierExtra));\r\n    }\r\n\r\n    /// @dev gets the arena tier of a character (tiers are 1-10, 11-20, etc...)\r\n    function getArenaTier(uint256 characterID) public view returns (uint8) {\r\n        uint8 level = characters.getLevel(characterID);\r\n        return getArenaTierForLevel(level);\r\n    }\r\n\r\n    function getArenaTierForLevel(uint8 level) internal pure returns (uint8) {\r\n        return uint8(level.div(10));\r\n    }\r\n\r\n    /// @dev get an attacker's opponent\r\n    function getOpponent(uint256 attackerID) public view returns (uint256) {\r\n        return matchByFinder[attackerID].defenderID;\r\n    }\r\n\r\n    /// @dev returns the current duel queue\r\n    function getDuelQueue() public view returns (uint256[] memory) {\r\n        uint256 length = _duelQueue.length();\r\n        uint256[] memory values = new uint256[](length);\r\n\r\n        for (uint256 i = 0; i < length; i++) {\r\n            values[i] = _duelQueue.at(i);\r\n        }\r\n\r\n        return values;\r\n    }\r\n\r\n    /// @dev assigns an opponent to a character\r\n    function _assignOpponent(uint256 characterID, uint8 tier) private {\r\n        EnumerableSet.UintSet\r\n            storage matchableCharacters = _matchableCharactersByTier[tier];\r\n\r\n        require(matchableCharacters.length() != 0, \"L\");\r\n\r\n        uint256 seed = randoms.getRandomSeed(msg.sender);\r\n        uint256 randomIndex = RandomUtil.randomSeededMinMax(\r\n            0,\r\n            matchableCharacters.length() - 1,\r\n            seed\r\n        );\r\n        uint256 opponentID;\r\n        uint256 matchableCharactersCount = matchableCharacters.length();\r\n        bool foundOpponent = false;\r\n\r\n        for (uint256 i = 0; i < matchableCharactersCount; i++) {\r\n            uint256 index = (randomIndex + i) % matchableCharactersCount;\r\n            uint256 candidateID = matchableCharacters.at(index);\r\n\r\n            if (candidateID == characterID) {\r\n                if (matchableCharactersCount == 1) {\r\n                    break;\r\n                }\r\n                if (\r\n                    matchableCharacters.at(matchableCharactersCount - 1) ==\r\n                    candidateID\r\n                ) {\r\n                    candidateID = matchableCharacters.at(0);\r\n                } else {\r\n                    candidateID = matchableCharacters.at(index + 1);\r\n                }\r\n            }\r\n            if (\r\n                _ownerByCharacter[candidateID] == msg.sender\r\n            ) {\r\n                continue;\r\n            }\r\n\r\n            foundOpponent = true;\r\n            opponentID = candidateID;\r\n            break;\r\n        }\r\n\r\n        require(foundOpponent, \"E\");\r\n\r\n        matchByFinder[characterID] = Match(\r\n            characterID,\r\n            opponentID,\r\n            block.timestamp\r\n        );\r\n        finderByOpponent[opponentID] = characterID;\r\n        _matchableCharactersByTier[tier].remove(characterID);\r\n        _matchableCharactersByTier[tier].remove(opponentID);\r\n    }\r\n\r\n    /// @dev removes a character from arena and clears it's matches\r\n    function _removeCharacterFromArena(uint256 characterID, uint8 tier)\r\n        private\r\n        characterInArena(characterID)\r\n    {\r\n        Fighter storage fighter = fighterByCharacter[characterID];\r\n\r\n        uint256 weaponID = fighter.weaponID;\r\n        uint256 shieldID = fighter.shieldID;\r\n\r\n        excessWagerByCharacter[characterID] = fighter.wager;\r\n\r\n        // Shield removed first before the fighter is deleted\r\n        if (fighter.useShield) {\r\n            isShieldInArena[shieldID] = false;\r\n            shields.setNftVar(shieldID, 1, 0);\r\n        }\r\n\r\n        delete fighterByCharacter[characterID];\r\n        delete matchByFinder[characterID];\r\n\r\n        if (_matchableCharactersByTier[tier].contains(characterID)) {\r\n            _matchableCharactersByTier[tier].remove(characterID);\r\n        }\r\n\r\n        isCharacterInArena[characterID] = false;\r\n        isWeaponInArena[weaponID] = false;\r\n\r\n        characters.setNftVar(characterID, 1, 0);\r\n        weapons.setNftVar(weaponID, 1, 0);\r\n    }\r\n\r\n    function _getCharacterPowerRoll(Duelist memory character, uint8 opponentTrait, uint8 tier)\r\n        private\r\n        view\r\n        returns (uint24)\r\n    {\r\n        uint24 playerFightPower = getCharacterPower(character.ID, tier);\r\n\r\n        Fighter memory fighter = fighterByCharacter[character.ID];\r\n        uint256 weaponID = fighter.weaponID;\r\n        uint256 seed = randoms.getRandomSeedUsingHash(\r\n            _ownerByCharacter[character.ID],\r\n            blockhash(block.number - 1)\r\n        );\r\n\r\n        uint8 weaponTrait = weapons.getTrait(weaponID);\r\n\r\n        int128 playerTraitBonus = _getPVPTraitBonusAgainst(\r\n            character.trait,\r\n            weaponTrait,\r\n            opponentTrait\r\n        );\r\n\r\n        uint256 playerPower = RandomUtil.plusMinus10PercentSeeded(\r\n            playerFightPower,\r\n            seed\r\n        );\r\n\r\n        return uint24(playerTraitBonus.mulu(playerPower));\r\n    }\r\n\r\n    function getCharacterPower(uint256 characterID, uint8 tier)\r\n        public\r\n        view\r\n        returns (uint24) \r\n    {\r\n        int128 bonusShieldStats;\r\n        \r\n        (\r\n            ,\r\n            int128 weaponMultFight,\r\n            uint24 weaponBonusPower,\r\n            \r\n        ) = weapons.getFightData(fighterByCharacter[characterID].weaponID, characters.getTrait(characterID));\r\n\r\n        if (fighterByCharacter[characterID].useShield) {\r\n            // we set bonus shield stats as 0.2\r\n            bonusShieldStats = _getShieldStats(characterID).sub(1).mul(20).div(100);\r\n        }\r\n\r\n        uint24 power;\r\n\r\n        if (tier == 20) {\r\n            power = Common.getPowerAtLevel(34);\r\n        } else {\r\n            power = Common.getPowerAtLevel(characters.getLevel(characterID));\r\n        }\r\n\r\n        return (   \r\n            Common.getPlayerPowerBase100(\r\n                power,\r\n                (weaponMultFight.add(bonusShieldStats)),\r\n                weaponBonusPower)\r\n        );\r\n    }\r\n\r\n    /// @dev returns the amount of matcheable characters\r\n    function getMatchablePlayerCount(uint256 characterID) external view returns(uint) {\r\n        uint8 tier;\r\n        \r\n        if (previousTierByCharacter[characterID] == 20) {\r\n            tier = 20;\r\n        } else {\r\n            tier = getArenaTier(characterID);\r\n        }\r\n        return _matchableCharactersByTier[tier].length();   \r\n    }\r\n\r\n    function _getPVPTraitBonusAgainst(\r\n        uint8 characterTrait,\r\n        uint8 weaponTrait,\r\n        uint8 opponentTrait\r\n    ) private view returns (int128) {\r\n        int128 traitBonus = ABDKMath64x64.fromUInt(1);\r\n        int128 fightTraitBonus = game.fightTraitBonus();\r\n        int128 charTraitFactor = ABDKMath64x64.divu(50, 100);\r\n        if (characterTrait == weaponTrait) {\r\n            traitBonus = traitBonus.add(fightTraitBonus.mul(3));\r\n        }\r\n\r\n        // We apply 50% of char trait bonuses because they are applied twice (once per fighter)\r\n        if (\r\n            Common.isTraitEffectiveAgainst(characterTrait, opponentTrait)\r\n        ) {\r\n            traitBonus = traitBonus.add(fightTraitBonus.mul(charTraitFactor));\r\n        } else if (\r\n            Common.isTraitEffectiveAgainst(opponentTrait, characterTrait)\r\n        ) {\r\n            traitBonus = traitBonus.sub(fightTraitBonus.mul(charTraitFactor));\r\n        }\r\n        return traitBonus;\r\n    }\r\n\r\n    function _getShieldStats(uint256 characterID)\r\n        private\r\n        view\r\n        returns (int128)\r\n    {\r\n        uint8 trait = characters.getTrait(characterID);\r\n        uint256 shieldID = fighterByCharacter[characterID].shieldID;\r\n        int128 shieldMultFight = shields.getDefenseMultiplierForTrait(shieldID, trait);\r\n        return (shieldMultFight);\r\n    }\r\n\r\n    function setBaseWagerInCents(uint256 cents) external restricted {\r\n        _baseWagerUSD = ABDKMath64x64.divu(cents, 100);\r\n    }\r\n\r\n    function setTierWagerInCents(uint256 cents) external restricted {\r\n        _tierWagerUSD = ABDKMath64x64.divu(cents, 100);\r\n    }\r\n\r\n    function setWageringFactor(uint8 factor) external restricted {\r\n        wageringFactor = factor;\r\n    }\r\n\r\n    function setReRollFeePercent(uint256 percent) external restricted {\r\n        reRollFeePercent = percent;\r\n    }\r\n\r\n    function setWithdrawFeePercent(uint256 percent) external restricted {\r\n        withdrawFeePercent = percent;\r\n    }\r\n\r\n    function setDecisionSeconds(uint256 secs) external restricted {\r\n        decisionSeconds = secs;\r\n    }\r\n\r\n    function setArenaAccess(uint256 accessFlags) external restricted {\r\n        arenaAccess = accessFlags;\r\n    }\r\n\r\n    function setDuelOffsetCost(uint256 cost) external restricted {\r\n        duelOffsetCost = cost;\r\n    }\r\n\r\n    function setPvpBotAddress(address payable botAddress) external restricted {\r\n        pvpBotAddress = botAddress;\r\n    }\r\n\r\n    // Note: The following are debugging functions, they can be muted to save contract size\r\n\r\n    function forceRemoveCharacterFromArena(uint256 characterID)\r\n        external \r\n        restricted\r\n        characterNotUnderAttack(characterID)\r\n        characterNotInDuel(characterID)\r\n    {\r\n        Fighter storage fighter = fighterByCharacter[characterID];\r\n        uint8 tier;\r\n        \r\n        if (previousTierByCharacter[characterID] == 20) {\r\n            tier = 20;\r\n        } else {\r\n            tier = getArenaTier(characterID);\r\n        }\r\n\r\n        uint256 wager = fighter.wager;\r\n        uint256 entryWager = getEntryWager(characterID);\r\n\r\n        if (matchByFinder[characterID].createdAt != 0) {\r\n            if (wager < entryWager.mul(withdrawFeePercent).div(100)) {\r\n                wager = 0;\r\n            } else {\r\n                wager = wager.sub(entryWager.mul(withdrawFeePercent).div(100));\r\n            }\r\n        }\r\n\r\n        _removeCharacterFromArena(characterID, tier);\r\n\r\n        excessWagerByCharacter[characterID] = 0;\r\n        fighter.wager = 0;\r\n\r\n        skillToken.safeTransfer(characters.ownerOf(characterID), wager);\r\n    }\r\n\r\n    // function clearDuelQueue(uint256 length) external restricted {\r\n    //     for (uint256 i = 0; i < length; i++) {\r\n    //         if (matchByFinder[_duelQueue.at(i)].defenderID > 0) {\r\n    //             isDefending[matchByFinder[_duelQueue.at(i)].defenderID] = false;\r\n    //         }\r\n\r\n    //         _duelQueue.remove(_duelQueue.at(i));\r\n    //     }\r\n\r\n    //     isDefending[0] = false;\r\n    // }\r\n}\r\n",
  "sourcePath": "K:\\\\cryptoblades1\\cryptoblades\\contracts\\PvpCore.sol",
  "compiler": {
    "name": "solc",
    "version": "0.6.5+commit.f956cc89.Emscripten.clang"
  },
  "schemaVersion": "3.4.5",
  "updatedAt": "2022-09-25T08:11:23.098Z",
  "networkType": "ethereum",
  "devdoc": {
    "methods": {
      "enterArena(uint256,uint256,uint256,bool,bool)": {
        "details": "enter the arena with a character, a weapon and optionally a shield"
      },
      "findOpponent(uint256)": {
        "details": "attempts to find an opponent for a character"
      },
      "getArenaTier(uint256)": {
        "details": "gets the arena tier of a character (tiers are 1-10, 11-20, etc...)"
      },
      "getDuelCost(uint256)": {
        "details": "gets the amount of SKILL that is risked per duel"
      },
      "getDuelQueue()": {
        "details": "returns the current duel queue"
      },
      "getEntryWager(uint256)": {
        "details": "gets the amount of SKILL required to enter the arena"
      },
      "getEntryWagerByTier(uint8)": {
        "details": "gets the amount of SKILL required to enter the arena by tier"
      },
      "getMatchablePlayerCount(uint256)": {
        "details": "returns the amount of matcheable characters"
      },
      "getOpponent(uint256)": {
        "details": "get an attacker's opponent"
      },
      "getRoleAdmin(bytes32)": {
        "details": "Returns the admin role that controls `role`. See {grantRole} and {revokeRole}.     * To change a role's admin, use {_setRoleAdmin}."
      },
      "getRoleMember(bytes32,uint256)": {
        "details": "Returns one of the accounts that have `role`. `index` must be a value between 0 and {getRoleMemberCount}, non-inclusive.     * Role bearers are not sorted in any particular way, and their ordering may change at any point.     * WARNING: When using {getRoleMember} and {getRoleMemberCount}, make sure you perform all queries on the same block. See the following https://forum.openzeppelin.com/t/iterating-over-elements-on-enumerableset-in-openzeppelin-contracts/2296[forum post] for more information."
      },
      "getRoleMemberCount(bytes32)": {
        "details": "Returns the number of accounts that have `role`. Can be used together with {getRoleMember} to enumerate all bearers of a role."
      },
      "grantRole(bytes32,address)": {
        "details": "Grants `role` to `account`.     * If `account` had not been already granted `role`, emits a {RoleGranted} event.     * Requirements:     * - the caller must have ``role``'s admin role."
      },
      "hasRole(bytes32,address)": {
        "details": "Returns `true` if `account` has been granted `role`."
      },
      "isCharacterUnderAttack(uint256)": {
        "details": "checks wether or not the character is actively someone else's opponent"
      },
      "performDuels(uint256[])": {
        "details": "performs a list of duels"
      },
      "prepareDuel(uint256)": {
        "details": "adds a character to the duel queue"
      },
      "reRollOpponent(uint256)": {
        "details": "attempts to find a new opponent for a fee"
      },
      "renounceRole(bytes32,address)": {
        "details": "Revokes `role` from the calling account.     * Roles are often managed via {grantRole} and {revokeRole}: this function's purpose is to provide a mechanism for accounts to lose their privileges if they are compromised (such as when a trusted device is misplaced).     * If the calling account had been granted `role`, emits a {RoleRevoked} event.     * Requirements:     * - the caller must be `account`."
      },
      "revokeRole(bytes32,address)": {
        "details": "Revokes `role` from `account`.     * If `account` had been granted `role`, emits a {RoleRevoked} event.     * Requirements:     * - the caller must have ``role``'s admin role."
      },
      "withdrawFromArena(uint256)": {
        "details": "withdraws a character and its items from the arena. if the character is in a battle, a penalty is charged"
      }
    }
  },
  "userdoc": {
    "methods": {}
  }
}