{
  "contractName": "RaidTrinket",
  "abi": [
    {
      "anonymous": false,
      "inputs": [
        {
          "indexed": true,
          "internalType": "address",
          "name": "owner",
          "type": "address"
        },
        {
          "indexed": true,
          "internalType": "address",
          "name": "approved",
          "type": "address"
        },
        {
          "indexed": true,
          "internalType": "uint256",
          "name": "tokenId",
          "type": "uint256"
        }
      ],
      "name": "Approval",
      "type": "event"
    },
    {
      "anonymous": false,
      "inputs": [
        {
          "indexed": true,
          "internalType": "address",
          "name": "owner",
          "type": "address"
        },
        {
          "indexed": true,
          "internalType": "address",
          "name": "operator",
          "type": "address"
        },
        {
          "indexed": false,
          "internalType": "bool",
          "name": "approved",
          "type": "bool"
        }
      ],
      "name": "ApprovalForAll",
      "type": "event"
    },
    {
      "anonymous": false,
      "inputs": [
        {
          "indexed": true,
          "internalType": "uint256",
          "name": "id",
          "type": "uint256"
        },
        {
          "indexed": true,
          "internalType": "address",
          "name": "burner",
          "type": "address"
        }
      ],
      "name": "Burned",
      "type": "event"
    },
    {
      "anonymous": false,
      "inputs": [
        {
          "indexed": true,
          "internalType": "uint256",
          "name": "id",
          "type": "uint256"
        },
        {
          "indexed": true,
          "internalType": "address",
          "name": "minter",
          "type": "address"
        }
      ],
      "name": "Minted",
      "type": "event"
    },
    {
      "anonymous": false,
      "inputs": [
        {
          "indexed": true,
          "internalType": "bytes32",
          "name": "role",
          "type": "bytes32"
        },
        {
          "indexed": true,
          "internalType": "bytes32",
          "name": "previousAdminRole",
          "type": "bytes32"
        },
        {
          "indexed": true,
          "internalType": "bytes32",
          "name": "newAdminRole",
          "type": "bytes32"
        }
      ],
      "name": "RoleAdminChanged",
      "type": "event"
    },
    {
      "anonymous": false,
      "inputs": [
        {
          "indexed": true,
          "internalType": "bytes32",
          "name": "role",
          "type": "bytes32"
        },
        {
          "indexed": true,
          "internalType": "address",
          "name": "account",
          "type": "address"
        },
        {
          "indexed": true,
          "internalType": "address",
          "name": "sender",
          "type": "address"
        }
      ],
      "name": "RoleGranted",
      "type": "event"
    },
    {
      "anonymous": false,
      "inputs": [
        {
          "indexed": true,
          "internalType": "bytes32",
          "name": "role",
          "type": "bytes32"
        },
        {
          "indexed": true,
          "internalType": "address",
          "name": "account",
          "type": "address"
        },
        {
          "indexed": true,
          "internalType": "address",
          "name": "sender",
          "type": "address"
        }
      ],
      "name": "RoleRevoked",
      "type": "event"
    },
    {
      "anonymous": false,
      "inputs": [
        {
          "indexed": true,
          "internalType": "address",
          "name": "from",
          "type": "address"
        },
        {
          "indexed": true,
          "internalType": "address",
          "name": "to",
          "type": "address"
        },
        {
          "indexed": true,
          "internalType": "uint256",
          "name": "tokenId",
          "type": "uint256"
        }
      ],
      "name": "Transfer",
      "type": "event"
    },
    {
      "inputs": [],
      "name": "DEFAULT_ADMIN_ROLE",
      "outputs": [
        {
          "internalType": "bytes32",
          "name": "",
          "type": "bytes32"
        }
      ],
      "stateMutability": "view",
      "type": "function",
      "constant": true
    },
    {
      "inputs": [],
      "name": "GAME_ADMIN",
      "outputs": [
        {
          "internalType": "bytes32",
          "name": "",
          "type": "bytes32"
        }
      ],
      "stateMutability": "view",
      "type": "function",
      "constant": true
    },
    {
      "inputs": [
        {
          "internalType": "address",
          "name": "to",
          "type": "address"
        },
        {
          "internalType": "uint256",
          "name": "tokenId",
          "type": "uint256"
        }
      ],
      "name": "approve",
      "outputs": [],
      "stateMutability": "nonpayable",
      "type": "function"
    },
    {
      "inputs": [
        {
          "internalType": "address",
          "name": "owner",
          "type": "address"
        }
      ],
      "name": "balanceOf",
      "outputs": [
        {
          "internalType": "uint256",
          "name": "",
          "type": "uint256"
        }
      ],
      "stateMutability": "view",
      "type": "function",
      "constant": true
    },
    {
      "inputs": [],
      "name": "baseURI",
      "outputs": [
        {
          "internalType": "string",
          "name": "",
          "type": "string"
        }
      ],
      "stateMutability": "view",
      "type": "function",
      "constant": true
    },
    {
      "inputs": [
        {
          "internalType": "uint256",
          "name": "tokenId",
          "type": "uint256"
        }
      ],
      "name": "getApproved",
      "outputs": [
        {
          "internalType": "address",
          "name": "",
          "type": "address"
        }
      ],
      "stateMutability": "view",
      "type": "function",
      "constant": true
    },
    {
      "inputs": [
        {
          "internalType": "bytes32",
          "name": "role",
          "type": "bytes32"
        }
      ],
      "name": "getRoleAdmin",
      "outputs": [
        {
          "internalType": "bytes32",
          "name": "",
          "type": "bytes32"
        }
      ],
      "stateMutability": "view",
      "type": "function",
      "constant": true
    },
    {
      "inputs": [
        {
          "internalType": "bytes32",
          "name": "role",
          "type": "bytes32"
        },
        {
          "internalType": "uint256",
          "name": "index",
          "type": "uint256"
        }
      ],
      "name": "getRoleMember",
      "outputs": [
        {
          "internalType": "address",
          "name": "",
          "type": "address"
        }
      ],
      "stateMutability": "view",
      "type": "function",
      "constant": true
    },
    {
      "inputs": [
        {
          "internalType": "bytes32",
          "name": "role",
          "type": "bytes32"
        }
      ],
      "name": "getRoleMemberCount",
      "outputs": [
        {
          "internalType": "uint256",
          "name": "",
          "type": "uint256"
        }
      ],
      "stateMutability": "view",
      "type": "function",
      "constant": true
    },
    {
      "inputs": [
        {
          "internalType": "bytes32",
          "name": "role",
          "type": "bytes32"
        },
        {
          "internalType": "address",
          "name": "account",
          "type": "address"
        }
      ],
      "name": "grantRole",
      "outputs": [],
      "stateMutability": "nonpayable",
      "type": "function"
    },
    {
      "inputs": [
        {
          "internalType": "bytes32",
          "name": "role",
          "type": "bytes32"
        },
        {
          "internalType": "address",
          "name": "account",
          "type": "address"
        }
      ],
      "name": "hasRole",
      "outputs": [
        {
          "internalType": "bool",
          "name": "",
          "type": "bool"
        }
      ],
      "stateMutability": "view",
      "type": "function",
      "constant": true
    },
    {
      "inputs": [
        {
          "internalType": "address",
          "name": "owner",
          "type": "address"
        },
        {
          "internalType": "address",
          "name": "operator",
          "type": "address"
        }
      ],
      "name": "isApprovedForAll",
      "outputs": [
        {
          "internalType": "bool",
          "name": "",
          "type": "bool"
        }
      ],
      "stateMutability": "view",
      "type": "function",
      "constant": true
    },
    {
      "inputs": [],
      "name": "name",
      "outputs": [
        {
          "internalType": "string",
          "name": "",
          "type": "string"
        }
      ],
      "stateMutability": "view",
      "type": "function",
      "constant": true
    },
    {
      "inputs": [],
      "name": "nextTokenID",
      "outputs": [
        {
          "internalType": "uint256",
          "name": "",
          "type": "uint256"
        }
      ],
      "stateMutability": "view",
      "type": "function",
      "constant": true
    },
    {
      "inputs": [
        {
          "internalType": "uint256",
          "name": "tokenId",
          "type": "uint256"
        }
      ],
      "name": "ownerOf",
      "outputs": [
        {
          "internalType": "address",
          "name": "",
          "type": "address"
        }
      ],
      "stateMutability": "view",
      "type": "function",
      "constant": true
    },
    {
      "inputs": [],
      "name": "promos",
      "outputs": [
        {
          "internalType": "contract Promos",
          "name": "",
          "type": "address"
        }
      ],
      "stateMutability": "view",
      "type": "function",
      "constant": true
    },
    {
      "inputs": [
        {
          "internalType": "bytes32",
          "name": "role",
          "type": "bytes32"
        },
        {
          "internalType": "address",
          "name": "account",
          "type": "address"
        }
      ],
      "name": "renounceRole",
      "outputs": [],
      "stateMutability": "nonpayable",
      "type": "function"
    },
    {
      "inputs": [
        {
          "internalType": "bytes32",
          "name": "role",
          "type": "bytes32"
        },
        {
          "internalType": "address",
          "name": "account",
          "type": "address"
        }
      ],
      "name": "revokeRole",
      "outputs": [],
      "stateMutability": "nonpayable",
      "type": "function"
    },
    {
      "inputs": [
        {
          "internalType": "address",
          "name": "from",
          "type": "address"
        },
        {
          "internalType": "address",
          "name": "to",
          "type": "address"
        },
        {
          "internalType": "uint256",
          "name": "tokenId",
          "type": "uint256"
        }
      ],
      "name": "safeTransferFrom",
      "outputs": [],
      "stateMutability": "nonpayable",
      "type": "function"
    },
    {
      "inputs": [
        {
          "internalType": "address",
          "name": "from",
          "type": "address"
        },
        {
          "internalType": "address",
          "name": "to",
          "type": "address"
        },
        {
          "internalType": "uint256",
          "name": "tokenId",
          "type": "uint256"
        },
        {
          "internalType": "bytes",
          "name": "_data",
          "type": "bytes"
        }
      ],
      "name": "safeTransferFrom",
      "outputs": [],
      "stateMutability": "nonpayable",
      "type": "function"
    },
    {
      "inputs": [
        {
          "internalType": "address",
          "name": "operator",
          "type": "address"
        },
        {
          "internalType": "bool",
          "name": "approved",
          "type": "bool"
        }
      ],
      "name": "setApprovalForAll",
      "outputs": [],
      "stateMutability": "nonpayable",
      "type": "function"
    },
    {
      "inputs": [
        {
          "internalType": "bytes4",
          "name": "interfaceId",
          "type": "bytes4"
        }
      ],
      "name": "supportsInterface",
      "outputs": [
        {
          "internalType": "bool",
          "name": "",
          "type": "bool"
        }
      ],
      "stateMutability": "view",
      "type": "function",
      "constant": true
    },
    {
      "inputs": [],
      "name": "symbol",
      "outputs": [
        {
          "internalType": "string",
          "name": "",
          "type": "string"
        }
      ],
      "stateMutability": "view",
      "type": "function",
      "constant": true
    },
    {
      "inputs": [
        {
          "internalType": "uint256",
          "name": "index",
          "type": "uint256"
        }
      ],
      "name": "tokenByIndex",
      "outputs": [
        {
          "internalType": "uint256",
          "name": "",
          "type": "uint256"
        }
      ],
      "stateMutability": "view",
      "type": "function",
      "constant": true
    },
    {
      "inputs": [
        {
          "internalType": "uint256",
          "name": "",
          "type": "uint256"
        }
      ],
      "name": "tokenEffect",
      "outputs": [
        {
          "internalType": "uint256",
          "name": "",
          "type": "uint256"
        }
      ],
      "stateMutability": "view",
      "type": "function",
      "constant": true
    },
    {
      "inputs": [
        {
          "internalType": "address",
          "name": "owner",
          "type": "address"
        },
        {
          "internalType": "uint256",
          "name": "index",
          "type": "uint256"
        }
      ],
      "name": "tokenOfOwnerByIndex",
      "outputs": [
        {
          "internalType": "uint256",
          "name": "",
          "type": "uint256"
        }
      ],
      "stateMutability": "view",
      "type": "function",
      "constant": true
    },
    {
      "inputs": [
        {
          "internalType": "uint256",
          "name": "",
          "type": "uint256"
        }
      ],
      "name": "tokenStars",
      "outputs": [
        {
          "internalType": "uint8",
          "name": "",
          "type": "uint8"
        }
      ],
      "stateMutability": "view",
      "type": "function",
      "constant": true
    },
    {
      "inputs": [
        {
          "internalType": "uint256",
          "name": "tokenId",
          "type": "uint256"
        }
      ],
      "name": "tokenURI",
      "outputs": [
        {
          "internalType": "string",
          "name": "",
          "type": "string"
        }
      ],
      "stateMutability": "view",
      "type": "function",
      "constant": true
    },
    {
      "inputs": [],
      "name": "totalSupply",
      "outputs": [
        {
          "internalType": "uint256",
          "name": "",
          "type": "uint256"
        }
      ],
      "stateMutability": "view",
      "type": "function",
      "constant": true
    },
    {
      "inputs": [
        {
          "internalType": "address",
          "name": "from",
          "type": "address"
        },
        {
          "internalType": "address",
          "name": "to",
          "type": "address"
        },
        {
          "internalType": "uint256",
          "name": "tokenId",
          "type": "uint256"
        }
      ],
      "name": "transferFrom",
      "outputs": [],
      "stateMutability": "nonpayable",
      "type": "function"
    },
    {
      "inputs": [
        {
          "internalType": "contract Promos",
          "name": "_promos",
          "type": "address"
        }
      ],
      "name": "initialize",
      "outputs": [],
      "stateMutability": "nonpayable",
      "type": "function"
    },
    {
      "inputs": [
        {
          "internalType": "uint256",
          "name": "id",
          "type": "uint256"
        }
      ],
      "name": "get",
      "outputs": [
        {
          "internalType": "uint8",
          "name": "_stars",
          "type": "uint8"
        },
        {
          "internalType": "uint256",
          "name": "_effect",
          "type": "uint256"
        }
      ],
      "stateMutability": "view",
      "type": "function",
      "constant": true
    },
    {
      "inputs": [],
      "name": "getOwned",
      "outputs": [
        {
          "internalType": "uint256[]",
          "name": "",
          "type": "uint256[]"
        }
      ],
      "stateMutability": "view",
      "type": "function",
      "constant": true
    },
    {
      "inputs": [
        {
          "internalType": "address",
          "name": "owner",
          "type": "address"
        }
      ],
      "name": "getOwnedBy",
      "outputs": [
        {
          "internalType": "uint256[]",
          "name": "tokens",
          "type": "uint256[]"
        }
      ],
      "stateMutability": "view",
      "type": "function",
      "constant": true
    },
    {
      "inputs": [
        {
          "internalType": "uint256[]",
          "name": "ids",
          "type": "uint256[]"
        }
      ],
      "name": "getStars",
      "outputs": [
        {
          "internalType": "uint8[]",
          "name": "stars",
          "type": "uint8[]"
        }
      ],
      "stateMutability": "view",
      "type": "function",
      "constant": true
    },
    {
      "inputs": [
        {
          "internalType": "address",
          "name": "minter",
          "type": "address"
        },
        {
          "internalType": "uint8",
          "name": "mintStars",
          "type": "uint8"
        },
        {
          "internalType": "uint256",
          "name": "seed",
          "type": "uint256"
        }
      ],
      "name": "mint",
      "outputs": [
        {
          "internalType": "uint256",
          "name": "tokenID",
          "type": "uint256"
        }
      ],
      "stateMutability": "nonpayable",
      "type": "function"
    },
    {
      "inputs": [
        {
          "internalType": "address",
          "name": "minter",
          "type": "address"
        },
        {
          "internalType": "uint8",
          "name": "mintStars",
          "type": "uint8"
        },
        {
          "internalType": "uint32",
          "name": "amount",
          "type": "uint32"
        },
        {
          "internalType": "uint256",
          "name": "seed",
          "type": "uint256"
        }
      ],
      "name": "mintN",
      "outputs": [
        {
          "internalType": "uint256[]",
          "name": "tokenIDs",
          "type": "uint256[]"
        }
      ],
      "stateMutability": "nonpayable",
      "type": "function"
    },
    {
      "inputs": [
        {
          "internalType": "uint256",
          "name": "tokenID",
          "type": "uint256"
        }
      ],
      "name": "burn",
      "outputs": [],
      "stateMutability": "nonpayable",
      "type": "function"
    },
    {
      "inputs": [
        {
          "internalType": "uint256[]",
          "name": "tokenIDs",
          "type": "uint256[]"
        }
      ],
      "name": "burn",
      "outputs": [],
      "stateMutability": "nonpayable",
      "type": "function"
    },
    {
      "inputs": [
        {
          "internalType": "uint256",
          "name": "to",
          "type": "uint256"
        }
      ],
      "name": "setNextTokenID",
      "outputs": [],
      "stateMutability": "nonpayable",
      "type": "function"
    },
    {
      "inputs": [
        {
          "internalType": "string",
          "name": "baseUri",
          "type": "string"
        }
      ],
      "name": "setBaseURI",
      "outputs": [],
      "stateMutability": "nonpayable",
      "type": "function"
    }
  ],
  "bytecode": "0x608060405234801561001057600080fd5b50613391806100206000396000f3fe608060405234801561001057600080fd5b50600436106102535760003560e01c80636352211e11610146578063b80f55c9116100c3578063ca15c87311610087578063ca15c87314610a05578063d547741f14610a22578063e291298f14610a4e578063e985e9c514610a74578063ebd2b30914610aa2578063f101e48114610abf57610253565b8063b80f55c914610855578063b88d4fde146108f6578063c3027525146109ba578063c4d66de8146109c2578063c87b56dd146109e857610253565b806391d148541161010a57806391d14854146107b15780639507d39a146107dd57806395d89b4114610817578063a217fddf1461081f578063a22cb4651461082757610253565b80636352211e1461072657806365bb214c146107435780636c0360eb1461076057806370a08231146107685780639010d07c1461078e57610253565b806336568abe116101d45780634f6ccce7116101985780634f6ccce71461061457806351e717ac146106315780635504d3d21461063957806355f804b314610641578063615ce1c9146106e557610253565b806336568abe1461046f57806338b003541461049b57806342842e0e1461058c57806342966c68146105c25780634ed387b2146105df57610253565b80631cfb777e1161021b5780631cfb777e1461039157806323b872dd146103c4578063248a9ca3146103fa5780632f2ff15d146104175780632f745c591461044357610253565b806301ffc9a71461025857806306fdde0314610293578063081812fc14610310578063095ea7b31461034957806318160ddd14610377575b600080fd5b61027f6004803603602081101561026e57600080fd5b50356001600160e01b031916610ac7565b604080519115158252519081900360200190f35b61029b610aea565b6040805160208082528351818301528351919283929083019185019080838360005b838110156102d55781810151838201526020016102bd565b50505050905090810190601f1680156103025780820380516001836020036101000a031916815260200191505b509250505060405180910390f35b61032d6004803603602081101561032657600080fd5b5035610b81565b604080516001600160a01b039092168252519081900360200190f35b6103756004803603604081101561035f57600080fd5b506001600160a01b038135169060200135610be3565b005b61037f610cbe565b60408051918252519081900360200190f35b6103ae600480360360208110156103a757600080fd5b5035610ccf565b6040805160ff9092168252519081900360200190f35b610375600480360360608110156103da57600080fd5b506001600160a01b03813581169160208101359091169060400135610ce4565b61037f6004803603602081101561041057600080fd5b5035610d3b565b6103756004803603604081101561042d57600080fd5b50803590602001356001600160a01b0316610d50565b61037f6004803603604081101561045957600080fd5b506001600160a01b038135169060200135610dbc565b6103756004803603604081101561048557600080fd5b50803590602001356001600160a01b0316610ded565b61053c600480360360208110156104b157600080fd5b810190602081018135600160201b8111156104cb57600080fd5b8201836020820111156104dd57600080fd5b803590602001918460208302840111600160201b831117156104fe57600080fd5b919080806020026020016040519081016040528093929190818152602001838360200280828437600092019190915250929550610e4e945050505050565b60408051602080825283518183015283519192839290830191858101910280838360005b83811015610578578181015183820152602001610560565b505050509050019250505060405180910390f35b610375600480360360608110156105a257600080fd5b506001600160a01b03813581169160208101359091169060400135610f01565b610375600480360360208110156105d857600080fd5b5035610f1c565b61037f600480360360608110156105f557600080fd5b506001600160a01b038135169060ff6020820135169060400135610fd7565b61037f6004803603602081101561062a57600080fd5b50356110c9565b61032d6110e5565b61037f6110f4565b6103756004803603602081101561065757600080fd5b810190602081018135600160201b81111561067157600080fd5b82018360208201111561068357600080fd5b803590602001918460018302840111600160201b831117156106a457600080fd5b91908080601f016020809104026020016040519081016040528093929190818152602001838380828437600092019190915250929550611116945050505050565b61053c600480360360808110156106fb57600080fd5b506001600160a01b038135169060ff6020820135169063ffffffff604082013516906060013561118d565b61032d6004803603602081101561073c57600080fd5b5035611296565b6103756004803603602081101561075957600080fd5b50356112c4565b61029b611334565b61037f6004803603602081101561077e57600080fd5b50356001600160a01b0316611395565b61032d600480360360408110156107a457600080fd5b50803590602001356113fd565b61027f600480360360408110156107c757600080fd5b50803590602001356001600160a01b031661141b565b6107fa600480360360208110156107f357600080fd5b5035611439565b6040805160ff909316835260208301919091528051918290030190f35b61029b61145c565b61037f6114bd565b6103756004803603604081101561083d57600080fd5b506001600160a01b03813516906020013515156114c2565b6103756004803603602081101561086b57600080fd5b810190602081018135600160201b81111561088557600080fd5b82018360208201111561089757600080fd5b803590602001918460208302840111600160201b831117156108b857600080fd5b9190808060200260200160405190810160405280939291908181526020018383602002808284376000920191909152509295506115c7945050505050565b6103756004803603608081101561090c57600080fd5b6001600160a01b03823581169260208101359091169160408201359190810190608081016060820135600160201b81111561094657600080fd5b82018360208201111561095857600080fd5b803590602001918460018302840111600160201b8311171561097957600080fd5b91908080601f016020809104026020016040519081016040528093929190818152602001838380828437600092019190915250929550611662945050505050565b61053c6116c0565b610375600480360360208110156109d857600080fd5b50356001600160a01b03166116cb565b61029b600480360360208110156109fe57600080fd5b50356117ed565b61037f60048036036020811015610a1b57600080fd5b5035611a70565b61037560048036036040811015610a3857600080fd5b50803590602001356001600160a01b0316611a87565b61053c60048036036020811015610a6457600080fd5b50356001600160a01b0316611ae0565b61027f60048036036040811015610a8a57600080fd5b506001600160a01b0381358116916020013516611b63565b61037f60048036036020811015610ab857600080fd5b5035611b91565b61037f611ba3565b6001600160e01b0319811660009081526033602052604090205460ff165b919050565b606a8054604080516020601f6002600019610100600188161502019095169490940493840181900481028201810190925282815260609390929091830182828015610b765780601f10610b4b57610100808354040283529160200191610b76565b820191906000526020600020905b815481529060010190602001808311610b5957829003601f168201915b505050505090505b90565b6000610b8c82611ba9565b610bc75760405162461bcd60e51b815260040180806020018281038252602c815260200180613257602c913960400191505060405180910390fd5b506000908152606860205260409020546001600160a01b031690565b6000610bee82611296565b9050806001600160a01b0316836001600160a01b03161415610c415760405162461bcd60e51b81526004018080602001828103825260218152602001806132db6021913960400191505060405180910390fd5b806001600160a01b0316610c53611bbc565b6001600160a01b03161480610c745750610c7481610c6f611bbc565b611b63565b610caf5760405162461bcd60e51b815260040180806020018281038252603881526020018061317c6038913960400191505060405180910390fd5b610cb98383611bc0565b505050565b6000610cca6066611c2e565b905090565b60ca6020526000908152604090205460ff1681565b610cf5610cef611bbc565b82611c39565b610d305760405162461bcd60e51b81526004018080602001828103825260318152602001806132fc6031913960400191505060405180910390fd5b610cb9838383611cdd565b60009081526097602052604090206002015490565b600082815260976020526040902060020154610d7390610d6e611bbc565b61141b565b610dae5760405162461bcd60e51b815260040180806020018281038252602f815260200180613075602f913960400191505060405180910390fd5b610db88282611e3b565b5050565b6001600160a01b0382166000908152606560205260408120610de4908363ffffffff611eaa16565b90505b92915050565b610df5611bbc565b6001600160a01b0316816001600160a01b031614610e445760405162461bcd60e51b815260040180806020018281038252602f81526020018061332d602f913960400191505060405180910390fd5b610db88282611eb6565b6060815167ffffffffffffffff81118015610e6857600080fd5b50604051908082528060200260200182016040528015610e92578160200160208202803683370190505b50905060005b8251811015610efb5760ca6000848381518110610eb157fe5b6020026020010151815260200190815260200160002060009054906101000a900460ff16828281518110610ee157fe5b60ff90921660209283029190910190910152600101610e98565b50919050565b610cb983838360405180602001604052806000815250611662565b604080516923a0a6a2afa0a226a4a760b11b8152905190819003600a019020610f45903361141b565b610f87576040805162461bcd60e51b815260206004820152600e60248201526d2737ba1033b0b6b29030b236b4b760911b604482015290519081900360640190fd5b6000610f9282611296565b9050610f9d82611f25565b6040516001600160a01b0382169083907fe861e0b12c283de7ca3f4d68d33f3bfc6fc01e4896cddf05e52b8f2a1e548e2490600090a35050565b604080516923a0a6a2afa0a226a4a760b11b8152905190819003600a019020600090611003903361141b565b611045576040805162461bcd60e51b815260206004820152600e60248201526d2737ba1033b0b6b29030b236b4b760911b604482015290519081900360640190fd5b5060cc805460018101909155600081815260ca60209081526040808320805460ff191660ff881617905560cb9091529020600560648404069081905561108b8583611ffe565b6040516001600160a01b0386169083907fb9203d657e9c0ec8274c818292ab0f58b04e1970050716891770eb1bab5d655e90600090a3509392505050565b6000806110dd60668463ffffffff61213816565b509392505050565b60c9546001600160a01b031681565b604080516923a0a6a2afa0a226a4a760b11b8152905190819003600a01902081565b604080516923a0a6a2afa0a226a4a760b11b8152905190819003600a01902061113f903361141b565b611181576040805162461bcd60e51b815260206004820152600e60248201526d2737ba1033b0b6b29030b236b4b760911b604482015290519081900360640190fd5b61118a81612154565b50565b604080516923a0a6a2afa0a226a4a760b11b8152905190819003600a0190206060906111b9903361141b565b6111fb576040805162461bcd60e51b815260206004820152600e60248201526d2737ba1033b0b6b29030b236b4b760911b604482015290519081900360640190fd5b8263ffffffff1667ffffffffffffffff8111801561121857600080fd5b50604051908082528060200260200182016040528015611242578160200160208202803683370190505b50905060005b8363ffffffff1681101561128d57611261868685610fd7565b82828151811061126d57fe5b6020026020010181815250506112838382612167565b9250600101611248565b50949350505050565b6000610de7826040518060600160405280602981526020016131de602991396066919063ffffffff61219316565b604080516923a0a6a2afa0a226a4a760b11b8152905190819003600a0190206112ed903361141b565b61132f576040805162461bcd60e51b815260206004820152600e60248201526d2737ba1033b0b6b29030b236b4b760911b604482015290519081900360640190fd5b60cc55565b606d8054604080516020601f6002600019610100600188161502019095169490940493840181900481028201810190925282815260609390929091830182828015610b765780601f10610b4b57610100808354040283529160200191610b76565b60006001600160a01b0382166113dc5760405162461bcd60e51b815260040180806020018281038252602a8152602001806131b4602a913960400191505060405180910390fd5b6001600160a01b0382166000908152606560205260409020610de790611c2e565b6000828152609760205260408120610de4908363ffffffff611eaa16565b6000828152609760205260408120610de4908363ffffffff6121aa16565b600090815260ca602090815260408083205460cb9092529091205460ff90911691565b606b8054604080516020601f6002600019610100600188161502019095169490940493840181900481028201810190925282815260609390929091830182828015610b765780601f10610b4b57610100808354040283529160200191610b76565b600081565b6114ca611bbc565b6001600160a01b0316826001600160a01b03161415611530576040805162461bcd60e51b815260206004820152601960248201527f4552433732313a20617070726f766520746f2063616c6c657200000000000000604482015290519081900360640190fd5b806069600061153d611bbc565b6001600160a01b03908116825260208083019390935260409182016000908120918716808252919093529120805460ff191692151592909217909155611581611bbc565b60408051841515815290516001600160a01b0392909216917f17307eab39ab6107e8899845ad3d59bd9653f200f220920489ca2b5937696c319181900360200190a35050565b604080516923a0a6a2afa0a226a4a760b11b8152905190819003600a0190206115f0903361141b565b611632576040805162461bcd60e51b815260206004820152600e60248201526d2737ba1033b0b6b29030b236b4b760911b604482015290519081900360640190fd5b60005b8151811015610db85761165a82828151811061164d57fe5b6020026020010151610f1c565b600101611635565b61167361166d611bbc565b83611c39565b6116ae5760405162461bcd60e51b81526004018080602001828103825260318152602001806132fc6031913960400191505060405180910390fd5b6116ba848484846121bf565b50505050565b6060610cca33611ae0565b600054610100900460ff16806116e457506116e4612211565b806116f2575060005460ff16155b61172d5760405162461bcd60e51b815260040180806020018281038252602e815260200180613207602e913960400191505060405180910390fd5b600054610100900460ff16158015611758576000805460ff1961ff0019909116610100171660011790555b6117aa6040518060400160405280601481526020017310dc9e5c1d1bd09b1859195cc8151c9a5b9ad95d60621b8152506040518060400160405280600481526020016310d0949560e21b815250612222565b6117b26122df565b6117bd600033610dae565b60c980546001600160a01b0319166001600160a01b0384161790558015610db8576000805461ff00191690555050565b60606117f882611ba9565b6118335760405162461bcd60e51b815260040180806020018281038252602f8152602001806132ac602f913960400191505060405180910390fd5b6000828152606c602090815260409182902080548351601f60026000196101006001861615020190931692909204918201849004840281018401909452808452606093928301828280156118c85780601f1061189d576101008083540402835291602001916118c8565b820191906000526020600020905b8154815290600101906020018083116118ab57829003601f168201915b5050505050905060606118d9611334565b90508051600014156118ed57509050610ae5565b8151156119ae5780826040516020018083805190602001908083835b602083106119285780518252601f199092019160209182019101611909565b51815160209384036101000a600019018019909216911617905285519190930192850191508083835b602083106119705780518252601f199092019160209182019101611951565b6001836020036101000a0380198251168184511680821785525050505050509050019250505060405160208183030381529060405292505050610ae5565b806119b885612380565b6040516020018083805190602001908083835b602083106119ea5780518252601f1990920191602091820191016119cb565b51815160209384036101000a600019018019909216911617905285519190930192850191508083835b60208310611a325780518252601f199092019160209182019101611a13565b6001836020036101000a0380198251168184511680821785525050505050509050019250505060405160208183030381529060405292505050919050565b6000818152609760205260408120610de790611c2e565b600082815260976020526040902060020154611aa590610d6e611bbc565b610e445760405162461bcd60e51b815260040180806020018281038252603081526020018061314c6030913960400191505060405180910390fd5b6060611aeb82611395565b67ffffffffffffffff81118015611b0157600080fd5b50604051908082528060200260200182016040528015611b2b578160200160208202803683370190505b50905060005b8151811015610efb57611b448382610dbc565b828281518110611b5057fe5b6020908102919091010152600101611b31565b6001600160a01b03918216600090815260696020908152604080832093909416825291909152205460ff1690565b60cb6020526000908152604090205481565b60cc5481565b6000610de760668363ffffffff61245216565b3390565b600081815260686020526040902080546001600160a01b0319166001600160a01b0384169081179091558190611bf582611296565b6001600160a01b03167f8c5be1e5ebec7d5bd14f71427d1e84f3dd0314c0f7b2291e5b200ac8c7c3b92560405160405180910390a45050565b6000610de78261245e565b6000611c4482611ba9565b611c7f5760405162461bcd60e51b815260040180806020018281038252602c815260200180613120602c913960400191505060405180910390fd5b6000611c8a83611296565b9050806001600160a01b0316846001600160a01b03161480611cc55750836001600160a01b0316611cba84610b81565b6001600160a01b0316145b80611cd55750611cd58185611b63565b949350505050565b826001600160a01b0316611cf082611296565b6001600160a01b031614611d355760405162461bcd60e51b81526004018080602001828103825260298152602001806132836029913960400191505060405180910390fd5b6001600160a01b038216611d7a5760405162461bcd60e51b81526004018080602001828103825260248152602001806130d66024913960400191505060405180910390fd5b611d85838383612462565b611d90600082611bc0565b6001600160a01b0383166000908152606560205260409020611db8908263ffffffff61257916565b506001600160a01b0382166000908152606560205260409020611de1908263ffffffff61258516565b50611df46066828463ffffffff61259116565b5080826001600160a01b0316846001600160a01b03167fddf252ad1be2c89b69c2b068fc378daa952ba7f163c4a11628f55a4df523b3ef60405160405180910390a4505050565b6000828152609760205260409020611e59908263ffffffff6125a716565b15610db857611e66611bbc565b6001600160a01b0316816001600160a01b0316837f2f8788117e7eff1d82e926ec794901d17c78024a50270940304540a733656f0d60405160405180910390a45050565b6000610de483836125bc565b6000828152609760205260409020611ed4908263ffffffff61262016565b15610db857611ee1611bbc565b6001600160a01b0316816001600160a01b0316837ff6391f5c32d9c69d2a47ea670b442974b53935d1edc7fd64eb21e047a839171b60405160405180910390a45050565b6000611f3082611296565b9050611f3e81600084612462565b611f49600083611bc0565b6000828152606c60205260409020546002600019610100600184161502019091160415611f87576000828152606c60205260408120611f8791612f76565b6001600160a01b0381166000908152606560205260409020611faf908363ffffffff61257916565b50611fc160668363ffffffff61263516565b5060405182906000906001600160a01b038416907fddf252ad1be2c89b69c2b068fc378daa952ba7f163c4a11628f55a4df523b3ef908390a45050565b6001600160a01b038216612059576040805162461bcd60e51b815260206004820181905260248201527f4552433732313a206d696e7420746f20746865207a65726f2061646472657373604482015290519081900360640190fd5b61206281611ba9565b156120b4576040805162461bcd60e51b815260206004820152601c60248201527f4552433732313a20746f6b656e20616c7265616479206d696e74656400000000604482015290519081900360640190fd5b6120c060008383612462565b6001600160a01b03821660009081526065602052604090206120e8908263ffffffff61258516565b506120fb6066828463ffffffff61259116565b5060405181906001600160a01b038416906000907fddf252ad1be2c89b69c2b068fc378daa952ba7f163c4a11628f55a4df523b3ef908290a45050565b60008080806121478686612641565b9097909650945050505050565b8051610db890606d906020840190612fba565b604080516020808201949094528082019290925280518083038201815260609092019052805191012090565b60006121a08484846126bc565b90505b9392505050565b6000610de4836001600160a01b038416612786565b6121ca848484611cdd565b6121d68484848461279e565b6116ba5760405162461bcd60e51b81526004018080602001828103825260328152602001806130a46032913960400191505060405180910390fd5b600061221c3061291e565b15905090565b600054610100900460ff168061223b575061223b612211565b80612249575060005460ff16155b6122845760405162461bcd60e51b815260040180806020018281038252602e815260200180613207602e913960400191505060405180910390fd5b600054610100900460ff161580156122af576000805460ff1961ff0019909116610100171660011790555b6122b76122df565b6122bf612924565b6122c983836129c1565b8015610cb9576000805461ff0019169055505050565b600054610100900460ff16806122f857506122f8612211565b80612306575060005460ff16155b6123415760405162461bcd60e51b815260040180806020018281038252602e815260200180613207602e913960400191505060405180910390fd5b600054610100900460ff1615801561236c576000805460ff1961ff0019909116610100171660011790555b801561118a576000805461ff001916905550565b6060816123a557506040805180820190915260018152600360fc1b6020820152610ae5565b8160005b81156123bd57600101600a820491506123a9565b60608167ffffffffffffffff811180156123d657600080fd5b506040519080825280601f01601f191660200182016040528015612401576020820181803683370190505b50859350905060001982015b831561128d57600a840660300160f81b8282806001900393508151811061243057fe5b60200101906001600160f81b031916908160001a905350600a8404935061240d565b6000610de48383612786565b5490565b60c9546040805163434d82a360e01b81526001600160a01b0386811660048381019190915260248301529151919092169163434d82a3916044808301926020929190829003018186803b1580156124b857600080fd5b505afa1580156124cc573d6000803e3d6000fd5b505050506040513d60208110156124e257600080fd5b5051158015612570575060c9546040805163434d82a360e01b81526001600160a01b0385811660048381019190915260248301529151919092169163434d82a3916044808301926020929190829003018186803b15801561254257600080fd5b505afa158015612556573d6000803e3d6000fd5b505050506040513d602081101561256c57600080fd5b5051155b610cb957600080fd5b6000610de48383612aa6565b6000610de48383612b6c565b60006121a084846001600160a01b038516612bb6565b6000610de4836001600160a01b038416612b6c565b815460009082106125fe5760405162461bcd60e51b81526004018080602001828103825260228152602001806130536022913960400191505060405180910390fd5b82600001828154811061260d57fe5b9060005260206000200154905092915050565b6000610de4836001600160a01b038416612aa6565b6000610de48383612c4d565b8154600090819083106126855760405162461bcd60e51b81526004018080602001828103825260228152602001806132356022913960400191505060405180910390fd5b600084600001848154811061269657fe5b906000526020600020906002020190508060000154816001015492509250509250929050565b600082815260018401602052604081205482816127575760405162461bcd60e51b81526004018080602001828103825283818151815260200191508051906020019080838360005b8381101561271c578181015183820152602001612704565b50505050905090810190601f1680156127495780820380516001836020036101000a031916815260200191505b509250505060405180910390fd5b5084600001600182038154811061276a57fe5b9060005260206000209060020201600101549150509392505050565b60009081526001919091016020526040902054151590565b60006127b2846001600160a01b031661291e565b6127be57506001611cd5565b60606128e4630a85bd0160e11b6127d3611bbc565b88878760405160240180856001600160a01b03166001600160a01b03168152602001846001600160a01b03166001600160a01b0316815260200183815260200180602001828103825283818151815260200191508051906020019080838360005b8381101561284c578181015183820152602001612834565b50505050905090810190601f1680156128795780820380516001836020036101000a031916815260200191505b5095505050505050604051602081830303815290604052906001600160e01b0319166020820180516001600160e01b0383818316178352505050506040518060600160405280603281526020016130a4603291396001600160a01b038816919063ffffffff612d2116565b905060008180602001905160208110156128fd57600080fd5b50516001600160e01b031916630a85bd0160e11b1492505050949350505050565b3b151590565b600054610100900460ff168061293d575061293d612211565b8061294b575060005460ff16155b6129865760405162461bcd60e51b815260040180806020018281038252602e815260200180613207602e913960400191505060405180910390fd5b600054610100900460ff161580156129b1576000805460ff1961ff0019909116610100171660011790555b61236c6301ffc9a760e01b612d30565b600054610100900460ff16806129da57506129da612211565b806129e8575060005460ff16155b612a235760405162461bcd60e51b815260040180806020018281038252602e815260200180613207602e913960400191505060405180910390fd5b600054610100900460ff16158015612a4e576000805460ff1961ff0019909116610100171660011790555b8251612a6190606a906020860190612fba565b508151612a7590606b906020850190612fba565b50612a866380ac58cd60e01b612d30565b612a96635b5e139f60e01b612d30565b6122c963780e9d6360e01b612d30565b60008181526001830160205260408120548015612b625783546000198083019190810190600090879083908110612ad957fe5b9060005260206000200154905080876000018481548110612af657fe5b600091825260208083209091019290925582815260018981019092526040902090840190558654879080612b2657fe5b60019003818190600052602060002001600090559055866001016000878152602001908152602001600020600090556001945050505050610de7565b6000915050610de7565b6000612b788383612786565b612bae57508154600181810184556000848152602080822090930184905584548482528286019093526040902091909155610de7565b506000610de7565b600082815260018401602052604081205480612c1b5750506040805180820182528381526020808201848152865460018181018955600089815284812095516002909302909501918255915190820155865486845281880190925292909120556121a3565b82856000016001830381548110612c2e57fe5b90600052602060002090600202016001018190555060009150506121a3565b60008181526001830160205260408120548015612b625783546000198083019190810190600090879083908110612c8057fe5b9060005260206000209060020201905080876000018481548110612ca057fe5b600091825260208083208454600290930201918255600193840154918401919091558354825289830190526040902090840190558654879080612cdf57fe5b6000828152602080822060026000199094019384020182815560019081018390559290935588815289820190925260408220919091559450610de79350505050565b60606121a08484600085612db4565b6001600160e01b03198082161415612d8f576040805162461bcd60e51b815260206004820152601c60248201527f4552433136353a20696e76616c696420696e7465726661636520696400000000604482015290519081900360640190fd5b6001600160e01b0319166000908152603360205260409020805460ff19166001179055565b606082471015612df55760405162461bcd60e51b81526004018080602001828103825260268152602001806130fa6026913960400191505060405180910390fd5b612dfe8561291e565b612e4f576040805162461bcd60e51b815260206004820152601d60248201527f416464726573733a2063616c6c20746f206e6f6e2d636f6e7472616374000000604482015290519081900360640190fd5b60006060866001600160a01b031685876040518082805190602001908083835b60208310612e8e5780518252601f199092019160209182019101612e6f565b6001836020036101000a03801982511681845116808217855250505050505090500191505060006040518083038185875af1925050503d8060008114612ef0576040519150601f19603f3d011682016040523d82523d6000602084013e612ef5565b606091505b5091509150612f05828286612f10565b979650505050505050565b60608315612f1f5750816121a3565b825115612f2f5782518084602001fd5b60405162461bcd60e51b815260206004820181815284516024840152845185939192839260440191908501908083836000831561271c578181015183820152602001612704565b50805460018160011615610100020316600290046000825580601f10612f9c575061118a565b601f01602090049060005260206000209081019061118a9190613038565b828054600181600116156101000203166002900490600052602060002090601f016020900481019282601f10612ffb57805160ff1916838001178555613028565b82800160010185558215613028579182015b8281111561302857825182559160200191906001019061300d565b50613034929150613038565b5090565b610b7e91905b80821115613034576000815560010161303e56fe456e756d657261626c655365743a20696e646578206f7574206f6620626f756e6473416363657373436f6e74726f6c3a2073656e646572206d75737420626520616e2061646d696e20746f206772616e744552433732313a207472616e7366657220746f206e6f6e20455243373231526563656976657220696d706c656d656e7465724552433732313a207472616e7366657220746f20746865207a65726f2061646472657373416464726573733a20696e73756666696369656e742062616c616e636520666f722063616c6c4552433732313a206f70657261746f7220717565727920666f72206e6f6e6578697374656e7420746f6b656e416363657373436f6e74726f6c3a2073656e646572206d75737420626520616e2061646d696e20746f207265766f6b654552433732313a20617070726f76652063616c6c6572206973206e6f74206f776e6572206e6f7220617070726f76656420666f7220616c6c4552433732313a2062616c616e636520717565727920666f7220746865207a65726f20616464726573734552433732313a206f776e657220717565727920666f72206e6f6e6578697374656e7420746f6b656e496e697469616c697a61626c653a20636f6e747261637420697320616c726561647920696e697469616c697a6564456e756d657261626c654d61703a20696e646578206f7574206f6620626f756e64734552433732313a20617070726f76656420717565727920666f72206e6f6e6578697374656e7420746f6b656e4552433732313a207472616e73666572206f6620746f6b656e2074686174206973206e6f74206f776e4552433732314d657461646174613a2055524920717565727920666f72206e6f6e6578697374656e7420746f6b656e4552433732313a20617070726f76616c20746f2063757272656e74206f776e65724552433732313a207472616e736665722063616c6c6572206973206e6f74206f776e6572206e6f7220617070726f766564416363657373436f6e74726f6c3a2063616e206f6e6c792072656e6f756e636520726f6c657320666f722073656c66a2646970667358221220cce26da3ddff054f1420998c85250f196d966c29ce449eb78cff37e77e6b3d8464736f6c63430006050033",
  "immutableReferences": {},
  "source": "pragma solidity ^0.6.0;\r\n\r\nimport \"@openzeppelin/contracts-upgradeable/proxy/Initializable.sol\";\r\nimport \"@openzeppelin/contracts-upgradeable/token/ERC721/ERC721Upgradeable.sol\";\r\nimport \"@openzeppelin/contracts-upgradeable/access/AccessControlUpgradeable.sol\";\r\nimport \"@openzeppelin/contracts/math/SafeMath.sol\";\r\nimport \"abdk-libraries-solidity/ABDKMath64x64.sol\";\r\nimport \"../Promos.sol\";\r\nimport \"../util.sol\";\r\n\r\ncontract RaidTrinket is Initializable, ERC721Upgradeable, AccessControlUpgradeable {\r\n\r\n    bytes32 public constant GAME_ADMIN = keccak256(\"GAME_ADMIN\");\r\n\r\n    function initialize (Promos _promos) public initializer {\r\n        __ERC721_init(\"CryptoBlades Trinket\", \"CBRT\");\r\n        __AccessControl_init_unchained();\r\n\r\n        _setupRole(DEFAULT_ADMIN_ROLE, msg.sender);\r\n\r\n        promos = _promos;\r\n    }\r\n\r\n    Promos public promos;\r\n\r\n    mapping(uint256 => uint8) public tokenStars;\r\n    mapping(uint256 => uint256) public tokenEffect;\r\n\r\n    uint256 public nextTokenID;\r\n\r\n    event Minted(uint256 indexed id, address indexed minter);\r\n    event Burned(uint256 indexed id, address indexed burner);\r\n\r\n    modifier restricted() {\r\n        require(hasRole(GAME_ADMIN, msg.sender), \"Not game admin\");\r\n        _;\r\n    }\r\n\r\n    function get(uint256 id) public view\r\n        returns (\r\n            uint8 _stars, uint256 _effect\r\n    ) {\r\n        _stars = tokenStars[id];\r\n        _effect = tokenEffect[id];\r\n    }\r\n\r\n    function getOwned() public view returns(uint256[] memory) {\r\n        return getOwnedBy(msg.sender);\r\n    }\r\n\r\n    function getOwnedBy(address owner) public view returns(uint256[] memory tokens) {\r\n        tokens = new uint256[](balanceOf(owner));\r\n        for(uint256 i = 0; i < tokens.length; i++) {\r\n            tokens[i] = tokenOfOwnerByIndex(owner, i);\r\n        }\r\n    }\r\n\r\n    function getStars(uint256[] memory ids) public view returns (uint8[] memory stars) {\r\n        stars = new uint8[](ids.length);\r\n        for(uint256 i = 0; i < ids.length; i++) {\r\n            stars[i] = tokenStars[ids[i]];\r\n        }\r\n    }\r\n\r\n    function mint(address minter, uint8 mintStars, uint256 seed) public restricted returns(uint256 tokenID) {\r\n        tokenID = nextTokenID++;\r\n        uint256 mintEffect = (seed / 100) % 5;\r\n        tokenStars[tokenID] = mintStars;\r\n        tokenEffect[tokenID] = mintEffect;\r\n        _mint(minter, tokenID);\r\n        emit Minted(tokenID, minter);\r\n    }\r\n\r\n    function mintN(address minter, uint8 mintStars, uint32 amount, uint256 seed) public restricted returns(uint256[] memory tokenIDs) {\r\n        tokenIDs = new uint256[](amount);\r\n        for(uint256 i = 0; i < amount; i++) {\r\n            tokenIDs[i] = mint(minter, mintStars, seed);\r\n            seed = RandomUtil.combineSeeds(seed,i);\r\n        }\r\n    }\r\n\r\n    function burn(uint256 tokenID) public restricted {\r\n        address burner = ownerOf(tokenID);\r\n        _burn(tokenID);\r\n        emit Burned(tokenID, burner);\r\n    }\r\n\r\n    function burn(uint256[] memory tokenIDs) public restricted {\r\n        for(uint i = 0; i < tokenIDs.length; i++) {\r\n            burn(tokenIDs[i]);\r\n        }\r\n    }\r\n\r\n    function _beforeTokenTransfer(address from, address to, uint256 tokenId) internal override {\r\n        require(promos.getBit(from, 4) == false && promos.getBit(to, 4) == false);\r\n    }\r\n\r\n    function setNextTokenID(uint to) public restricted {\r\n        nextTokenID = to;\r\n    }\r\n\r\n    function setBaseURI(string memory baseUri) public restricted {\r\n        _setBaseURI(baseUri);\r\n    }\r\n}\r\n",
  "sourcePath": "K:\\\\cryptoblades1\\cryptoblades\\contracts\\items\\RaidTrinket.sol",
  "compiler": {
    "name": "solc",
    "version": "0.6.5+commit.f956cc89.Emscripten.clang"
  },
  "schemaVersion": "3.4.5",
  "updatedAt": "2022-09-25T08:03:24.412Z",
  "networkType": "ethereum",
  "devdoc": {
    "methods": {
      "approve(address,uint256)": {
        "details": "See {IERC721-approve}."
      },
      "balanceOf(address)": {
        "details": "See {IERC721-balanceOf}."
      },
      "baseURI()": {
        "details": "Returns the base URI set via {_setBaseURI}. This will be automatically added as a prefix in {tokenURI} to each token's URI, or to the token ID if no specific URI is set for that token ID."
      },
      "getApproved(uint256)": {
        "details": "See {IERC721-getApproved}."
      },
      "getRoleAdmin(bytes32)": {
        "details": "Returns the admin role that controls `role`. See {grantRole} and {revokeRole}.     * To change a role's admin, use {_setRoleAdmin}."
      },
      "getRoleMember(bytes32,uint256)": {
        "details": "Returns one of the accounts that have `role`. `index` must be a value between 0 and {getRoleMemberCount}, non-inclusive.     * Role bearers are not sorted in any particular way, and their ordering may change at any point.     * WARNING: When using {getRoleMember} and {getRoleMemberCount}, make sure you perform all queries on the same block. See the following https://forum.openzeppelin.com/t/iterating-over-elements-on-enumerableset-in-openzeppelin-contracts/2296[forum post] for more information."
      },
      "getRoleMemberCount(bytes32)": {
        "details": "Returns the number of accounts that have `role`. Can be used together with {getRoleMember} to enumerate all bearers of a role."
      },
      "grantRole(bytes32,address)": {
        "details": "Grants `role` to `account`.     * If `account` had not been already granted `role`, emits a {RoleGranted} event.     * Requirements:     * - the caller must have ``role``'s admin role."
      },
      "hasRole(bytes32,address)": {
        "details": "Returns `true` if `account` has been granted `role`."
      },
      "isApprovedForAll(address,address)": {
        "details": "See {IERC721-isApprovedForAll}."
      },
      "name()": {
        "details": "See {IERC721Metadata-name}."
      },
      "ownerOf(uint256)": {
        "details": "See {IERC721-ownerOf}."
      },
      "renounceRole(bytes32,address)": {
        "details": "Revokes `role` from the calling account.     * Roles are often managed via {grantRole} and {revokeRole}: this function's purpose is to provide a mechanism for accounts to lose their privileges if they are compromised (such as when a trusted device is misplaced).     * If the calling account had been granted `role`, emits a {RoleRevoked} event.     * Requirements:     * - the caller must be `account`."
      },
      "revokeRole(bytes32,address)": {
        "details": "Revokes `role` from `account`.     * If `account` had been granted `role`, emits a {RoleRevoked} event.     * Requirements:     * - the caller must have ``role``'s admin role."
      },
      "safeTransferFrom(address,address,uint256)": {
        "details": "See {IERC721-safeTransferFrom}."
      },
      "safeTransferFrom(address,address,uint256,bytes)": {
        "details": "See {IERC721-safeTransferFrom}."
      },
      "setApprovalForAll(address,bool)": {
        "details": "See {IERC721-setApprovalForAll}."
      },
      "supportsInterface(bytes4)": {
        "details": "See {IERC165-supportsInterface}.     * Time complexity O(1), guaranteed to always use less than 30 000 gas."
      },
      "symbol()": {
        "details": "See {IERC721Metadata-symbol}."
      },
      "tokenByIndex(uint256)": {
        "details": "See {IERC721Enumerable-tokenByIndex}."
      },
      "tokenOfOwnerByIndex(address,uint256)": {
        "details": "See {IERC721Enumerable-tokenOfOwnerByIndex}."
      },
      "tokenURI(uint256)": {
        "details": "See {IERC721Metadata-tokenURI}."
      },
      "totalSupply()": {
        "details": "See {IERC721Enumerable-totalSupply}."
      },
      "transferFrom(address,address,uint256)": {
        "details": "See {IERC721-transferFrom}."
      }
    }
  },
  "userdoc": {
    "methods": {}
  }
}