{
  "contractName": "Raid1",
  "abi": [
    {
      "anonymous": false,
      "inputs": [
        {
          "indexed": true,
          "internalType": "uint256",
          "name": "raidIndex",
          "type": "uint256"
        },
        {
          "indexed": false,
          "internalType": "uint8",
          "name": "outcome",
          "type": "uint8"
        },
        {
          "indexed": false,
          "internalType": "uint256",
          "name": "bossRoll",
          "type": "uint256"
        },
        {
          "indexed": false,
          "internalType": "uint256",
          "name": "playerRoll",
          "type": "uint256"
        }
      ],
      "name": "RaidCompleted",
      "type": "event"
    },
    {
      "anonymous": false,
      "inputs": [
        {
          "indexed": false,
          "internalType": "uint256",
          "name": "raidIndex",
          "type": "uint256"
        },
        {
          "indexed": true,
          "internalType": "address",
          "name": "user",
          "type": "address"
        },
        {
          "indexed": true,
          "internalType": "uint256",
          "name": "character",
          "type": "uint256"
        },
        {
          "indexed": true,
          "internalType": "uint256",
          "name": "weapon",
          "type": "uint256"
        },
        {
          "indexed": false,
          "internalType": "uint256",
          "name": "skillPaid",
          "type": "uint256"
        }
      ],
      "name": "RaidJoined",
      "type": "event"
    },
    {
      "anonymous": false,
      "inputs": [
        {
          "indexed": true,
          "internalType": "uint256",
          "name": "raidIndex",
          "type": "uint256"
        },
        {
          "indexed": false,
          "internalType": "uint8",
          "name": "bossTrait",
          "type": "uint8"
        },
        {
          "indexed": false,
          "internalType": "uint256",
          "name": "bossPower",
          "type": "uint256"
        },
        {
          "indexed": false,
          "internalType": "uint256",
          "name": "endTime",
          "type": "uint256"
        }
      ],
      "name": "RaidStarted",
      "type": "event"
    },
    {
      "anonymous": false,
      "inputs": [
        {
          "indexed": true,
          "internalType": "uint256",
          "name": "raidIndex",
          "type": "uint256"
        },
        {
          "indexed": true,
          "internalType": "address",
          "name": "user",
          "type": "address"
        },
        {
          "indexed": false,
          "internalType": "uint256",
          "name": "characterCount",
          "type": "uint256"
        }
      ],
      "name": "RewardClaimed",
      "type": "event"
    },
    {
      "anonymous": false,
      "inputs": [
        {
          "indexed": true,
          "internalType": "uint256",
          "name": "raidIndex",
          "type": "uint256"
        },
        {
          "indexed": true,
          "internalType": "address",
          "name": "user",
          "type": "address"
        },
        {
          "indexed": false,
          "internalType": "uint32",
          "name": "amount",
          "type": "uint32"
        }
      ],
      "name": "RewardedDust4B",
      "type": "event"
    },
    {
      "anonymous": false,
      "inputs": [
        {
          "indexed": true,
          "internalType": "uint256",
          "name": "raidIndex",
          "type": "uint256"
        },
        {
          "indexed": true,
          "internalType": "address",
          "name": "user",
          "type": "address"
        },
        {
          "indexed": false,
          "internalType": "uint32",
          "name": "amount",
          "type": "uint32"
        }
      ],
      "name": "RewardedDust5B",
      "type": "event"
    },
    {
      "anonymous": false,
      "inputs": [
        {
          "indexed": true,
          "internalType": "uint256",
          "name": "raidIndex",
          "type": "uint256"
        },
        {
          "indexed": true,
          "internalType": "address",
          "name": "user",
          "type": "address"
        },
        {
          "indexed": false,
          "internalType": "uint32",
          "name": "amount",
          "type": "uint32"
        }
      ],
      "name": "RewardedDustLB",
      "type": "event"
    },
    {
      "anonymous": false,
      "inputs": [
        {
          "indexed": true,
          "internalType": "uint256",
          "name": "raidIndex",
          "type": "uint256"
        },
        {
          "indexed": true,
          "internalType": "address",
          "name": "user",
          "type": "address"
        },
        {
          "indexed": false,
          "internalType": "uint8",
          "name": "stars",
          "type": "uint8"
        },
        {
          "indexed": true,
          "internalType": "uint256",
          "name": "tokenID",
          "type": "uint256"
        }
      ],
      "name": "RewardedJunk",
      "type": "event"
    },
    {
      "anonymous": false,
      "inputs": [
        {
          "indexed": true,
          "internalType": "uint256",
          "name": "raidIndex",
          "type": "uint256"
        },
        {
          "indexed": true,
          "internalType": "address",
          "name": "user",
          "type": "address"
        },
        {
          "indexed": true,
          "internalType": "uint256",
          "name": "tokenID",
          "type": "uint256"
        }
      ],
      "name": "RewardedKeyBox",
      "type": "event"
    },
    {
      "anonymous": false,
      "inputs": [
        {
          "indexed": true,
          "internalType": "uint256",
          "name": "raidIndex",
          "type": "uint256"
        },
        {
          "indexed": true,
          "internalType": "address",
          "name": "user",
          "type": "address"
        },
        {
          "indexed": false,
          "internalType": "uint8",
          "name": "stars",
          "type": "uint8"
        },
        {
          "indexed": false,
          "internalType": "uint256",
          "name": "effect",
          "type": "uint256"
        },
        {
          "indexed": true,
          "internalType": "uint256",
          "name": "tokenID",
          "type": "uint256"
        }
      ],
      "name": "RewardedTrinket",
      "type": "event"
    },
    {
      "anonymous": false,
      "inputs": [
        {
          "indexed": true,
          "internalType": "uint256",
          "name": "raidIndex",
          "type": "uint256"
        },
        {
          "indexed": true,
          "internalType": "address",
          "name": "user",
          "type": "address"
        },
        {
          "indexed": false,
          "internalType": "uint8",
          "name": "stars",
          "type": "uint8"
        },
        {
          "indexed": true,
          "internalType": "uint256",
          "name": "tokenID",
          "type": "uint256"
        }
      ],
      "name": "RewardedWeapon",
      "type": "event"
    },
    {
      "anonymous": false,
      "inputs": [
        {
          "indexed": true,
          "internalType": "uint256",
          "name": "raidIndex",
          "type": "uint256"
        },
        {
          "indexed": true,
          "internalType": "address",
          "name": "user",
          "type": "address"
        },
        {
          "indexed": true,
          "internalType": "uint256",
          "name": "charID",
          "type": "uint256"
        },
        {
          "indexed": false,
          "internalType": "uint16",
          "name": "amount",
          "type": "uint16"
        }
      ],
      "name": "RewardedXpBonus",
      "type": "event"
    },
    {
      "anonymous": false,
      "inputs": [
        {
          "indexed": true,
          "internalType": "bytes32",
          "name": "role",
          "type": "bytes32"
        },
        {
          "indexed": true,
          "internalType": "bytes32",
          "name": "previousAdminRole",
          "type": "bytes32"
        },
        {
          "indexed": true,
          "internalType": "bytes32",
          "name": "newAdminRole",
          "type": "bytes32"
        }
      ],
      "name": "RoleAdminChanged",
      "type": "event"
    },
    {
      "anonymous": false,
      "inputs": [
        {
          "indexed": true,
          "internalType": "bytes32",
          "name": "role",
          "type": "bytes32"
        },
        {
          "indexed": true,
          "internalType": "address",
          "name": "account",
          "type": "address"
        },
        {
          "indexed": true,
          "internalType": "address",
          "name": "sender",
          "type": "address"
        }
      ],
      "name": "RoleGranted",
      "type": "event"
    },
    {
      "anonymous": false,
      "inputs": [
        {
          "indexed": true,
          "internalType": "bytes32",
          "name": "role",
          "type": "bytes32"
        },
        {
          "indexed": true,
          "internalType": "address",
          "name": "account",
          "type": "address"
        },
        {
          "indexed": true,
          "internalType": "address",
          "name": "sender",
          "type": "address"
        }
      ],
      "name": "RoleRevoked",
      "type": "event"
    },
    {
      "inputs": [],
      "name": "DEFAULT_ADMIN_ROLE",
      "outputs": [
        {
          "internalType": "bytes32",
          "name": "",
          "type": "bytes32"
        }
      ],
      "stateMutability": "view",
      "type": "function",
      "constant": true
    },
    {
      "inputs": [],
      "name": "GAME_ADMIN",
      "outputs": [
        {
          "internalType": "bytes32",
          "name": "",
          "type": "bytes32"
        }
      ],
      "stateMutability": "view",
      "type": "function",
      "constant": true
    },
    {
      "inputs": [],
      "name": "LINK_JUNK",
      "outputs": [
        {
          "internalType": "uint256",
          "name": "",
          "type": "uint256"
        }
      ],
      "stateMutability": "view",
      "type": "function",
      "constant": true
    },
    {
      "inputs": [],
      "name": "LINK_KEYBOX",
      "outputs": [
        {
          "internalType": "uint256",
          "name": "",
          "type": "uint256"
        }
      ],
      "stateMutability": "view",
      "type": "function",
      "constant": true
    },
    {
      "inputs": [],
      "name": "LINK_TRINKET",
      "outputs": [
        {
          "internalType": "uint256",
          "name": "",
          "type": "uint256"
        }
      ],
      "stateMutability": "view",
      "type": "function",
      "constant": true
    },
    {
      "inputs": [],
      "name": "NUMBERPARAMETER_AUTO_BOSSPOWER_PERCENT",
      "outputs": [
        {
          "internalType": "uint256",
          "name": "",
          "type": "uint256"
        }
      ],
      "stateMutability": "view",
      "type": "function",
      "constant": true
    },
    {
      "inputs": [],
      "name": "NUMBERPARAMETER_AUTO_DURATION",
      "outputs": [
        {
          "internalType": "uint256",
          "name": "",
          "type": "uint256"
        }
      ],
      "stateMutability": "view",
      "type": "function",
      "constant": true
    },
    {
      "inputs": [],
      "name": "STATUS_LOST",
      "outputs": [
        {
          "internalType": "uint8",
          "name": "",
          "type": "uint8"
        }
      ],
      "stateMutability": "view",
      "type": "function",
      "constant": true
    },
    {
      "inputs": [],
      "name": "STATUS_PAUSED",
      "outputs": [
        {
          "internalType": "uint8",
          "name": "",
          "type": "uint8"
        }
      ],
      "stateMutability": "view",
      "type": "function",
      "constant": true
    },
    {
      "inputs": [],
      "name": "STATUS_STARTED",
      "outputs": [
        {
          "internalType": "uint8",
          "name": "",
          "type": "uint8"
        }
      ],
      "stateMutability": "view",
      "type": "function",
      "constant": true
    },
    {
      "inputs": [],
      "name": "STATUS_UNSTARTED",
      "outputs": [
        {
          "internalType": "uint8",
          "name": "",
          "type": "uint8"
        }
      ],
      "stateMutability": "view",
      "type": "function",
      "constant": true
    },
    {
      "inputs": [],
      "name": "STATUS_WON",
      "outputs": [
        {
          "internalType": "uint8",
          "name": "",
          "type": "uint8"
        }
      ],
      "stateMutability": "view",
      "type": "function",
      "constant": true
    },
    {
      "inputs": [],
      "name": "characters",
      "outputs": [
        {
          "internalType": "contract Characters",
          "name": "",
          "type": "address"
        }
      ],
      "stateMutability": "view",
      "type": "function",
      "constant": true
    },
    {
      "inputs": [],
      "name": "durabilityCost",
      "outputs": [
        {
          "internalType": "uint64",
          "name": "",
          "type": "uint64"
        }
      ],
      "stateMutability": "view",
      "type": "function",
      "constant": true
    },
    {
      "inputs": [],
      "name": "game",
      "outputs": [
        {
          "internalType": "contract CryptoBlades",
          "name": "",
          "type": "address"
        }
      ],
      "stateMutability": "view",
      "type": "function",
      "constant": true
    },
    {
      "inputs": [
        {
          "internalType": "bytes32",
          "name": "role",
          "type": "bytes32"
        }
      ],
      "name": "getRoleAdmin",
      "outputs": [
        {
          "internalType": "bytes32",
          "name": "",
          "type": "bytes32"
        }
      ],
      "stateMutability": "view",
      "type": "function",
      "constant": true
    },
    {
      "inputs": [
        {
          "internalType": "bytes32",
          "name": "role",
          "type": "bytes32"
        },
        {
          "internalType": "uint256",
          "name": "index",
          "type": "uint256"
        }
      ],
      "name": "getRoleMember",
      "outputs": [
        {
          "internalType": "address",
          "name": "",
          "type": "address"
        }
      ],
      "stateMutability": "view",
      "type": "function",
      "constant": true
    },
    {
      "inputs": [
        {
          "internalType": "bytes32",
          "name": "role",
          "type": "bytes32"
        }
      ],
      "name": "getRoleMemberCount",
      "outputs": [
        {
          "internalType": "uint256",
          "name": "",
          "type": "uint256"
        }
      ],
      "stateMutability": "view",
      "type": "function",
      "constant": true
    },
    {
      "inputs": [
        {
          "internalType": "bytes32",
          "name": "role",
          "type": "bytes32"
        },
        {
          "internalType": "address",
          "name": "account",
          "type": "address"
        }
      ],
      "name": "grantRole",
      "outputs": [],
      "stateMutability": "nonpayable",
      "type": "function"
    },
    {
      "inputs": [
        {
          "internalType": "bytes32",
          "name": "role",
          "type": "bytes32"
        },
        {
          "internalType": "address",
          "name": "account",
          "type": "address"
        }
      ],
      "name": "hasRole",
      "outputs": [
        {
          "internalType": "bool",
          "name": "",
          "type": "bool"
        }
      ],
      "stateMutability": "view",
      "type": "function",
      "constant": true
    },
    {
      "inputs": [],
      "name": "joinCost",
      "outputs": [
        {
          "internalType": "int128",
          "name": "",
          "type": "int128"
        }
      ],
      "stateMutability": "view",
      "type": "function",
      "constant": true
    },
    {
      "inputs": [
        {
          "internalType": "uint256",
          "name": "",
          "type": "uint256"
        }
      ],
      "name": "links",
      "outputs": [
        {
          "internalType": "address",
          "name": "",
          "type": "address"
        }
      ],
      "stateMutability": "view",
      "type": "function",
      "constant": true
    },
    {
      "inputs": [
        {
          "internalType": "uint256",
          "name": "",
          "type": "uint256"
        }
      ],
      "name": "numberParameters",
      "outputs": [
        {
          "internalType": "uint256",
          "name": "",
          "type": "uint256"
        }
      ],
      "stateMutability": "view",
      "type": "function",
      "constant": true
    },
    {
      "inputs": [],
      "name": "promos",
      "outputs": [
        {
          "internalType": "contract Promos",
          "name": "",
          "type": "address"
        }
      ],
      "stateMutability": "view",
      "type": "function",
      "constant": true
    },
    {
      "inputs": [
        {
          "internalType": "uint256",
          "name": "",
          "type": "uint256"
        }
      ],
      "name": "raidBossPower",
      "outputs": [
        {
          "internalType": "uint256",
          "name": "",
          "type": "uint256"
        }
      ],
      "stateMutability": "view",
      "type": "function",
      "constant": true
    },
    {
      "inputs": [
        {
          "internalType": "uint256",
          "name": "",
          "type": "uint256"
        }
      ],
      "name": "raidBossTrait",
      "outputs": [
        {
          "internalType": "uint8",
          "name": "",
          "type": "uint8"
        }
      ],
      "stateMutability": "view",
      "type": "function",
      "constant": true
    },
    {
      "inputs": [
        {
          "internalType": "uint256",
          "name": "",
          "type": "uint256"
        }
      ],
      "name": "raidEndTime",
      "outputs": [
        {
          "internalType": "uint256",
          "name": "",
          "type": "uint256"
        }
      ],
      "stateMutability": "view",
      "type": "function",
      "constant": true
    },
    {
      "inputs": [],
      "name": "raidIndex",
      "outputs": [
        {
          "internalType": "uint256",
          "name": "",
          "type": "uint256"
        }
      ],
      "stateMutability": "view",
      "type": "function",
      "constant": true
    },
    {
      "inputs": [
        {
          "internalType": "uint256",
          "name": "",
          "type": "uint256"
        },
        {
          "internalType": "address",
          "name": "",
          "type": "address"
        },
        {
          "internalType": "uint256",
          "name": "",
          "type": "uint256"
        }
      ],
      "name": "raidParticipantIndices",
      "outputs": [
        {
          "internalType": "uint256",
          "name": "",
          "type": "uint256"
        }
      ],
      "stateMutability": "view",
      "type": "function",
      "constant": true
    },
    {
      "inputs": [
        {
          "internalType": "uint256",
          "name": "",
          "type": "uint256"
        },
        {
          "internalType": "uint256",
          "name": "",
          "type": "uint256"
        }
      ],
      "name": "raidParticipants",
      "outputs": [
        {
          "internalType": "address",
          "name": "owner",
          "type": "address"
        },
        {
          "internalType": "uint256",
          "name": "charID",
          "type": "uint256"
        },
        {
          "internalType": "uint256",
          "name": "wepID",
          "type": "uint256"
        },
        {
          "internalType": "uint24",
          "name": "power",
          "type": "uint24"
        },
        {
          "internalType": "uint24",
          "name": "traitsCWS",
          "type": "uint24"
        }
      ],
      "stateMutability": "view",
      "type": "function",
      "constant": true
    },
    {
      "inputs": [
        {
          "internalType": "uint256",
          "name": "",
          "type": "uint256"
        }
      ],
      "name": "raidPlayerPower",
      "outputs": [
        {
          "internalType": "uint256",
          "name": "",
          "type": "uint256"
        }
      ],
      "stateMutability": "view",
      "type": "function",
      "constant": true
    },
    {
      "inputs": [
        {
          "internalType": "uint256",
          "name": "",
          "type": "uint256"
        },
        {
          "internalType": "address",
          "name": "",
          "type": "address"
        }
      ],
      "name": "raidRewardClaimed",
      "outputs": [
        {
          "internalType": "bool",
          "name": "",
          "type": "bool"
        }
      ],
      "stateMutability": "view",
      "type": "function",
      "constant": true
    },
    {
      "inputs": [
        {
          "internalType": "uint256",
          "name": "",
          "type": "uint256"
        }
      ],
      "name": "raidSeed",
      "outputs": [
        {
          "internalType": "uint256",
          "name": "",
          "type": "uint256"
        }
      ],
      "stateMutability": "view",
      "type": "function",
      "constant": true
    },
    {
      "inputs": [
        {
          "internalType": "uint256",
          "name": "",
          "type": "uint256"
        }
      ],
      "name": "raidStatus",
      "outputs": [
        {
          "internalType": "uint8",
          "name": "",
          "type": "uint8"
        }
      ],
      "stateMutability": "view",
      "type": "function",
      "constant": true
    },
    {
      "inputs": [
        {
          "internalType": "bytes32",
          "name": "role",
          "type": "bytes32"
        },
        {
          "internalType": "address",
          "name": "account",
          "type": "address"
        }
      ],
      "name": "renounceRole",
      "outputs": [],
      "stateMutability": "nonpayable",
      "type": "function"
    },
    {
      "inputs": [
        {
          "internalType": "bytes32",
          "name": "role",
          "type": "bytes32"
        },
        {
          "internalType": "address",
          "name": "account",
          "type": "address"
        }
      ],
      "name": "revokeRole",
      "outputs": [],
      "stateMutability": "nonpayable",
      "type": "function"
    },
    {
      "inputs": [],
      "name": "staminaCost",
      "outputs": [
        {
          "internalType": "uint64",
          "name": "",
          "type": "uint64"
        }
      ],
      "stateMutability": "view",
      "type": "function",
      "constant": true
    },
    {
      "inputs": [],
      "name": "weapons",
      "outputs": [
        {
          "internalType": "contract Weapons",
          "name": "",
          "type": "address"
        }
      ],
      "stateMutability": "view",
      "type": "function",
      "constant": true
    },
    {
      "inputs": [],
      "name": "xpReward",
      "outputs": [
        {
          "internalType": "uint16",
          "name": "",
          "type": "uint16"
        }
      ],
      "stateMutability": "view",
      "type": "function",
      "constant": true
    },
    {
      "inputs": [
        {
          "internalType": "address",
          "name": "gameContract",
          "type": "address"
        }
      ],
      "name": "initialize",
      "outputs": [],
      "stateMutability": "nonpayable",
      "type": "function"
    },
    {
      "inputs": [],
      "name": "doRaidAuto",
      "outputs": [],
      "stateMutability": "nonpayable",
      "type": "function"
    },
    {
      "inputs": [
        {
          "internalType": "uint256",
          "name": "bossPower",
          "type": "uint256"
        },
        {
          "internalType": "uint8",
          "name": "bossTrait",
          "type": "uint8"
        },
        {
          "internalType": "uint256",
          "name": "durationMinutes",
          "type": "uint256"
        }
      ],
      "name": "doRaid",
      "outputs": [],
      "stateMutability": "nonpayable",
      "type": "function"
    },
    {
      "inputs": [
        {
          "internalType": "uint256",
          "name": "bossPower",
          "type": "uint256"
        },
        {
          "internalType": "uint8",
          "name": "bossTrait",
          "type": "uint8"
        },
        {
          "internalType": "uint256",
          "name": "durationMinutes",
          "type": "uint256"
        },
        {
          "internalType": "uint256",
          "name": "seed",
          "type": "uint256"
        }
      ],
      "name": "doRaidWithSeed",
      "outputs": [],
      "stateMutability": "nonpayable",
      "type": "function"
    },
    {
      "inputs": [
        {
          "internalType": "uint256",
          "name": "bossPower",
          "type": "uint256"
        },
        {
          "internalType": "uint8",
          "name": "bossTrait",
          "type": "uint8"
        },
        {
          "internalType": "uint256",
          "name": "durationMinutes",
          "type": "uint256"
        }
      ],
      "name": "startRaid",
      "outputs": [],
      "stateMutability": "nonpayable",
      "type": "function"
    },
    {
      "inputs": [
        {
          "internalType": "uint256",
          "name": "characterID",
          "type": "uint256"
        },
        {
          "internalType": "uint256",
          "name": "weaponID",
          "type": "uint256"
        }
      ],
      "name": "joinRaid",
      "outputs": [],
      "stateMutability": "nonpayable",
      "type": "function"
    },
    {
      "inputs": [
        {
          "internalType": "uint256",
          "name": "index",
          "type": "uint256"
        },
        {
          "internalType": "uint8",
          "name": "status",
          "type": "uint8"
        }
      ],
      "name": "setRaidStatus",
      "outputs": [],
      "stateMutability": "nonpayable",
      "type": "function"
    },
    {
      "inputs": [],
      "name": "completeRaid",
      "outputs": [],
      "stateMutability": "nonpayable",
      "type": "function"
    },
    {
      "inputs": [
        {
          "internalType": "uint96",
          "name": "playerData",
          "type": "uint96"
        }
      ],
      "name": "unpackFightData",
      "outputs": [
        {
          "internalType": "uint8",
          "name": "charTrait",
          "type": "uint8"
        },
        {
          "internalType": "uint24",
          "name": "basePowerLevel",
          "type": "uint24"
        },
        {
          "internalType": "uint64",
          "name": "timestamp",
          "type": "uint64"
        }
      ],
      "stateMutability": "pure",
      "type": "function",
      "constant": true
    },
    {
      "inputs": [
        {
          "internalType": "uint24",
          "name": "playerPower",
          "type": "uint24"
        },
        {
          "internalType": "uint8",
          "name": "charTrait",
          "type": "uint8"
        },
        {
          "internalType": "uint8",
          "name": "bossTrait",
          "type": "uint8"
        }
      ],
      "name": "getPlayerFinalPower",
      "outputs": [
        {
          "internalType": "uint24",
          "name": "",
          "type": "uint24"
        }
      ],
      "stateMutability": "pure",
      "type": "function",
      "constant": true
    },
    {
      "inputs": [
        {
          "internalType": "uint256",
          "name": "claimRaidIndex",
          "type": "uint256"
        }
      ],
      "name": "claimReward",
      "outputs": [],
      "stateMutability": "nonpayable",
      "type": "function"
    },
    {
      "inputs": [
        {
          "internalType": "address",
          "name": "addr",
          "type": "address"
        },
        {
          "internalType": "uint256",
          "name": "index",
          "type": "uint256"
        }
      ],
      "name": "registerLink",
      "outputs": [],
      "stateMutability": "nonpayable",
      "type": "function"
    },
    {
      "inputs": [
        {
          "internalType": "uint8",
          "name": "points",
          "type": "uint8"
        }
      ],
      "name": "setStaminaPointCost",
      "outputs": [],
      "stateMutability": "nonpayable",
      "type": "function"
    },
    {
      "inputs": [
        {
          "internalType": "uint8",
          "name": "points",
          "type": "uint8"
        }
      ],
      "name": "setDurabilityPointCost",
      "outputs": [],
      "stateMutability": "nonpayable",
      "type": "function"
    },
    {
      "inputs": [
        {
          "internalType": "uint256",
          "name": "cents",
          "type": "uint256"
        }
      ],
      "name": "setJoinCostInCents",
      "outputs": [],
      "stateMutability": "nonpayable",
      "type": "function"
    },
    {
      "inputs": [],
      "name": "getJoinCostInSkill",
      "outputs": [
        {
          "internalType": "uint256",
          "name": "",
          "type": "uint256"
        }
      ],
      "stateMutability": "view",
      "type": "function",
      "constant": true
    },
    {
      "inputs": [
        {
          "internalType": "uint16",
          "name": "xp",
          "type": "uint16"
        }
      ],
      "name": "setXpReward",
      "outputs": [],
      "stateMutability": "nonpayable",
      "type": "function"
    },
    {
      "inputs": [
        {
          "internalType": "uint256",
          "name": "paramIndex",
          "type": "uint256"
        },
        {
          "internalType": "uint256",
          "name": "value",
          "type": "uint256"
        }
      ],
      "name": "setNumberParameter",
      "outputs": [],
      "stateMutability": "nonpayable",
      "type": "function"
    },
    {
      "inputs": [
        {
          "internalType": "uint256",
          "name": "paramIndex",
          "type": "uint256"
        }
      ],
      "name": "getNumberParameter",
      "outputs": [
        {
          "internalType": "uint256",
          "name": "",
          "type": "uint256"
        }
      ],
      "stateMutability": "view",
      "type": "function",
      "constant": true
    },
    {
      "inputs": [
        {
          "internalType": "uint256",
          "name": "index",
          "type": "uint256"
        }
      ],
      "name": "getRaidStatus",
      "outputs": [
        {
          "internalType": "uint8",
          "name": "",
          "type": "uint8"
        }
      ],
      "stateMutability": "view",
      "type": "function",
      "constant": true
    },
    {
      "inputs": [
        {
          "internalType": "uint256",
          "name": "index",
          "type": "uint256"
        }
      ],
      "name": "getRaidEndTime",
      "outputs": [
        {
          "internalType": "uint256",
          "name": "",
          "type": "uint256"
        }
      ],
      "stateMutability": "view",
      "type": "function",
      "constant": true
    },
    {
      "inputs": [
        {
          "internalType": "uint256",
          "name": "index",
          "type": "uint256"
        }
      ],
      "name": "getRaidBossTrait",
      "outputs": [
        {
          "internalType": "uint8",
          "name": "",
          "type": "uint8"
        }
      ],
      "stateMutability": "view",
      "type": "function",
      "constant": true
    },
    {
      "inputs": [
        {
          "internalType": "uint256",
          "name": "index",
          "type": "uint256"
        }
      ],
      "name": "getRaidBossPower",
      "outputs": [
        {
          "internalType": "uint256",
          "name": "",
          "type": "uint256"
        }
      ],
      "stateMutability": "view",
      "type": "function",
      "constant": true
    },
    {
      "inputs": [
        {
          "internalType": "uint256",
          "name": "index",
          "type": "uint256"
        }
      ],
      "name": "getRaidPlayerPower",
      "outputs": [
        {
          "internalType": "uint256",
          "name": "",
          "type": "uint256"
        }
      ],
      "stateMutability": "view",
      "type": "function",
      "constant": true
    },
    {
      "inputs": [
        {
          "internalType": "uint256",
          "name": "index",
          "type": "uint256"
        }
      ],
      "name": "getRaidParticipantCount",
      "outputs": [
        {
          "internalType": "uint256",
          "name": "",
          "type": "uint256"
        }
      ],
      "stateMutability": "view",
      "type": "function",
      "constant": true
    },
    {
      "inputs": [
        {
          "internalType": "uint256",
          "name": "startIndex",
          "type": "uint256"
        },
        {
          "internalType": "uint256",
          "name": "endIndex",
          "type": "uint256"
        }
      ],
      "name": "getEligibleRewardIndexes",
      "outputs": [
        {
          "internalType": "uint256[]",
          "name": "",
          "type": "uint256[]"
        }
      ],
      "stateMutability": "view",
      "type": "function",
      "constant": true
    },
    {
      "inputs": [
        {
          "internalType": "uint256",
          "name": "index",
          "type": "uint256"
        }
      ],
      "name": "isEligibleForReward",
      "outputs": [
        {
          "internalType": "bool",
          "name": "",
          "type": "bool"
        }
      ],
      "stateMutability": "view",
      "type": "function",
      "constant": true
    },
    {
      "inputs": [],
      "name": "getParticipatingCharacters",
      "outputs": [
        {
          "internalType": "uint256[]",
          "name": "",
          "type": "uint256[]"
        }
      ],
      "stateMutability": "view",
      "type": "function",
      "constant": true
    },
    {
      "inputs": [],
      "name": "getParticipatingWeapons",
      "outputs": [
        {
          "internalType": "uint256[]",
          "name": "",
          "type": "uint256[]"
        }
      ],
      "stateMutability": "view",
      "type": "function",
      "constant": true
    },
    {
      "inputs": [
        {
          "internalType": "uint256",
          "name": "index",
          "type": "uint256"
        }
      ],
      "name": "getAccountsRaiderIndexes",
      "outputs": [
        {
          "internalType": "uint256[]",
          "name": "",
          "type": "uint256[]"
        }
      ],
      "stateMutability": "view",
      "type": "function",
      "constant": true
    },
    {
      "inputs": [
        {
          "internalType": "uint256",
          "name": "index",
          "type": "uint256"
        }
      ],
      "name": "getAccountsPower",
      "outputs": [
        {
          "internalType": "uint256",
          "name": "",
          "type": "uint256"
        }
      ],
      "stateMutability": "view",
      "type": "function",
      "constant": true
    },
    {
      "inputs": [
        {
          "internalType": "uint256",
          "name": "characterID",
          "type": "uint256"
        },
        {
          "internalType": "uint256",
          "name": "weaponID",
          "type": "uint256"
        }
      ],
      "name": "canJoinRaid",
      "outputs": [
        {
          "internalType": "bool",
          "name": "",
          "type": "bool"
        }
      ],
      "stateMutability": "view",
      "type": "function",
      "constant": true
    },
    {
      "inputs": [
        {
          "internalType": "uint256",
          "name": "characterID",
          "type": "uint256"
        },
        {
          "internalType": "uint256",
          "name": "weaponID",
          "type": "uint256"
        }
      ],
      "name": "haveEnoughEnergy",
      "outputs": [
        {
          "internalType": "bool",
          "name": "",
          "type": "bool"
        }
      ],
      "stateMutability": "view",
      "type": "function",
      "constant": true
    },
    {
      "inputs": [],
      "name": "isRaidStarted",
      "outputs": [
        {
          "internalType": "bool",
          "name": "",
          "type": "bool"
        }
      ],
      "stateMutability": "view",
      "type": "function",
      "constant": true
    },
    {
      "inputs": [
        {
          "internalType": "uint256",
          "name": "weaponID",
          "type": "uint256"
        }
      ],
      "name": "isWeaponRaiding",
      "outputs": [
        {
          "internalType": "bool",
          "name": "",
          "type": "bool"
        }
      ],
      "stateMutability": "view",
      "type": "function",
      "constant": true
    },
    {
      "inputs": [
        {
          "internalType": "uint256",
          "name": "characterID",
          "type": "uint256"
        }
      ],
      "name": "isCharacterRaiding",
      "outputs": [
        {
          "internalType": "bool",
          "name": "",
          "type": "bool"
        }
      ],
      "stateMutability": "view",
      "type": "function",
      "constant": true
    },
    {
      "inputs": [
        {
          "internalType": "uint256",
          "name": "linkIndex",
          "type": "uint256"
        }
      ],
      "name": "getLinkAddress",
      "outputs": [
        {
          "internalType": "address",
          "name": "",
          "type": "address"
        }
      ],
      "stateMutability": "view",
      "type": "function",
      "constant": true
    },
    {
      "inputs": [],
      "name": "getRaidData",
      "outputs": [
        {
          "internalType": "uint256",
          "name": "index",
          "type": "uint256"
        },
        {
          "internalType": "uint256",
          "name": "endTime",
          "type": "uint256"
        },
        {
          "internalType": "uint256",
          "name": "raiderCount",
          "type": "uint256"
        },
        {
          "internalType": "uint256",
          "name": "playerPower",
          "type": "uint256"
        },
        {
          "internalType": "uint256",
          "name": "bossPower",
          "type": "uint256"
        },
        {
          "internalType": "uint8",
          "name": "trait",
          "type": "uint8"
        },
        {
          "internalType": "uint8",
          "name": "status",
          "type": "uint8"
        },
        {
          "internalType": "uint256",
          "name": "joinSkill",
          "type": "uint256"
        },
        {
          "internalType": "uint64",
          "name": "stamina",
          "type": "uint64"
        },
        {
          "internalType": "uint64",
          "name": "durability",
          "type": "uint64"
        },
        {
          "internalType": "uint64",
          "name": "xp",
          "type": "uint64"
        },
        {
          "internalType": "uint256",
          "name": "accountPower",
          "type": "uint256"
        }
      ],
      "stateMutability": "view",
      "type": "function",
      "constant": true
    }
  ],
  "bytecode": "0x608060405234801561001057600080fd5b5061434b806100206000396000f3fe608060405234801561001057600080fd5b506004361061045f5760003560e01c8063881d8a401161024c578063c1be6bda11610146578063d547741f116100c3578063e8d554c911610087578063e8d554c914610d78578063e969370614610d95578063f76f2b6814610db6578063ff33bf4314610839578063ff71891814610dbe5761045f565b8063d547741f14610cd8578063d9d453bc14610d04578063e0fb078d14610d21578063e2511dde14610d3e578063e2c85d9314610d5b5761045f565b8063c85a85b71161010a578063c85a85b714610c2e578063c947f00e14610c4b578063ca15c87314610cab578063d054fe0014610cc8578063d070bb5414610cd05761045f565b8063c1be6bda14610bd3578063c3fe3e2814610bf0578063c4941d6014610bf8578063c4d66de814610c00578063c6fd469014610c265761045f565b8063a0bd6040116101d4578063aca4828611610198578063aca4828614610b48578063ae169a5014610b65578063affb481414610b82578063b6585e4514610ba5578063b7e1cd8614610bcb5761045f565b8063a0bd604014610b09578063a0f30b8814610b11578063a217fddf14610b19578063a28b9c0914610b21578063a320707314610b405761045f565b806391d148541161021b57806391d1485414610a3457806392beb91c14610a60578063934b57d614610a835780639df8a15714610a8b5780639f6b232e14610aae5761045f565b8063881d8a40146109cf5780638d31c41c146109ec5780638e3dc0cf146109f45780639010d07c14610a115761045f565b806343fd09041161035d57806357d9c95b116102e55780636efbe8bf116102a95780636efbe8bf1461092557806370405c5d1461097057806378b76e241461098d5780637a597ebd146109955780638257e6c9146109b25761045f565b806357d9c95b1461086e5780635818142514610876578063618f1f85146108935780636850a6ce146108c557806369318389146108cd5761045f565b80634b3521e01161032c5780634b3521e0146108185780634c9f7f2f1461083957806351e717ac1461084157806353e18e7c146108495780635504d3d2146108665761045f565b806343fd09041461071957806348437e541461074557806348ea70021461077e5780634a0b4ce4146107fb5761045f565b806325a153b5116103eb57806336a4535d116103af57806336a4535d1461067f578063386161821461069c57806338d785ad146106b95780633aff35c4146106dc578063428d9df9146106f95761045f565b806325a153b5146105c057806329f83e64146105ec5780632f2ff15d1461061f5780633158ad6a1461064b57806336568abe146106535761045f565b80631a145068116104325780631a1450681461050357806322d418f914610520578063242e7bf6146105575780632437322a14610583578063248a9ca3146105a35761045f565b8063044ca30214610464578063087d43f9146104925780630bffe8fc146104d657806313871f0e146104de575b600080fd5b6104906004803603606081101561047a57600080fd5b5080359060ff6020820135169060400135610dc6565b005b6104c4600480360360608110156104a857600080fd5b508035906001600160a01b036020820135169060400135610e73565b60408051918252519081900360200190f35b610490610eae565b6104e6610f90565b6040805167ffffffffffffffff9092168252519081900360200190f35b6104c46004803603602081101561051957600080fd5b5035610fa0565b6105436004803603604081101561053657600080fd5b5080359060200135610fb5565b604080519115158252519081900360200190f35b6104906004803603604081101561056d57600080fd5b506001600160a01b0381351690602001356110c3565b6104906004803603602081101561059957600080fd5b503560ff166110f9565b6104c4600480360360208110156105b957600080fd5b503561111d565b610490600480360360608110156105d657600080fd5b5080359060ff6020820135169060400135611132565b6106096004803603602081101561060257600080fd5b5035611178565b6040805160ff9092168252519081900360200190f35b6104906004803603604081101561063557600080fd5b50803590602001356001600160a01b031661118d565b6104c46111f9565b6104906004803603604081101561066957600080fd5b50803590602001356001600160a01b0316611222565b6106096004803603602081101561069557600080fd5b5035611283565b6104c4600480360360208110156106b257600080fd5b5035611298565b610490600480360360408110156106cf57600080fd5b50803590602001356112aa565b610543600480360360208110156106f257600080fd5b50356112c4565b6104906004803603602081101561070f57600080fd5b503560ff166113a1565b6105436004803603604081101561072f57600080fd5b50803590602001356001600160a01b03166113cf565b6107626004803603602081101561075b57600080fd5b50356113ef565b604080516001600160a01b039092168252519081900360200190f35b61078661140a565b604080519c8d5260208d019b909b528b8b019990995260608b019790975260808a019590955260ff93841660a08a01529190921660c088015260e087019190915267ffffffffffffffff9081166101008701529081166101208601521661014084015261016083015251908190036101800190f35b6105436004803603602081101561081157600080fd5b50356114b9565b61082061152e565b60408051600f92830b90920b8252519081900360200190f35b6104c461153e565b610762611543565b6104c46004803603602081101561085f57600080fd5b5035611552565b6104c4611564565b61060961153e565b6104c46004803603602081101561088c57600080fd5b5035611586565b610490600480360360808110156108a957600080fd5b5080359060ff6020820135169060408101359060600135611598565b610490611645565b6108d561167f565b60408051602080825283518183015283519192839290830191858101910280838360005b838110156109115781810151838201526020016108f9565b505050509050019250505060405180910390f35b6109586004803603606081101561093b57600080fd5b5062ffffff8135169060ff602082013581169160400135166117a8565b6040805162ffffff9092168252519081900360200190f35b6104c46004803603602081101561098657600080fd5b50356117df565b6105436117f1565b610490600480360360208110156109ab57600080fd5b503561182a565b6108d5600480360360208110156109c857600080fd5b5035611869565b610762600480360360208110156109e557600080fd5b50356118d3565b6108d56118ee565b6104c460048036036020811015610a0a57600080fd5b5035611a10565b61076260048036036040811015610a2757600080fd5b5080359060200135611a22565b61054360048036036040811015610a4a57600080fd5b50803590602001356001600160a01b0316611a40565b6108d560048036036040811015610a7657600080fd5b5080359060200135611a5e565b610609611b1b565b61054360048036036040811015610aa157600080fd5b5080359060200135611b20565b610ad960048036036020811015610ac457600080fd5b50356bffffffffffffffffffffffff16611b65565b6040805160ff909416845262ffffff909216602084015267ffffffffffffffff1682820152519081900360600190f35b610609611b85565b610609611b8a565b6104c4611b8f565b610b29611b94565b6040805161ffff9092168252519081900360200190f35b610609611b8f565b6104c460048036036020811015610b5e57600080fd5b5035611ba5565b61049060048036036020811015610b7b57600080fd5b5035611bb7565b61049060048036036040811015610b9857600080fd5b5080359060200135611fb8565b61049060048036036040811015610bbb57600080fd5b508035906020013560ff1661269a565b6107626126c4565b61054360048036036020811015610be957600080fd5b50356126d3565b6107626127a6565b6104c4611b8a565b61049060048036036020811015610c1657600080fd5b50356001600160a01b03166127b5565b6104c4611b85565b61060960048036036020811015610c4457600080fd5b5035612a91565b610c6e60048036036040811015610c6157600080fd5b5080359060200135612aa6565b604080516001600160a01b03909616865260208601949094528484019290925262ffffff9081166060850152166080830152519081900360a00190f35b6104c460048036036020811015610cc157600080fd5b5035612b03565b6104e6612b1a565b610762612b31565b61049060048036036040811015610cee57600080fd5b50803590602001356001600160a01b0316612b40565b6104c460048036036020811015610d1a57600080fd5b5035612b99565b6104c460048036036020811015610d3757600080fd5b5035612bab565b6104c460048036036020811015610d5457600080fd5b5035612bbd565b6104c460048036036020811015610d7157600080fd5b5035612bcf565b61060960048036036020811015610d8e57600080fd5b5035612c48565b61049060048036036020811015610dab57600080fd5b503561ffff16612c5d565b6104c4612c87565b6104c4612d15565b610dce612d1b565b606a80546000908152606b60209081526040808320805460ff1990811660011790915584548452606f835281842088905584548452606e8352818420805460ff891692168217905584548452606c83529281902042603c87020190819055935481519384529183018790528281018490525190917f88b3d009b82cefd3c4b19ccc376acc25d432469fca3c5a3effaa101e8997dd15919081900360600190a250505050565b60726020528260005260406000206020528160005260406000208181548110610e9857fe5b9060005260206000200160009250925050505481565b610eb6612d1b565b60408051600019430140602080830191909152825180830382018152828401808552815191830191909120606a5460009081526070845285812054701093d4d4d413d5d15497d4115490d15395607a1b90935285519485900360510190942084526075909252928220549092610f4091610f31906064612d86565b600f0b9063ffffffff612dbd16565b600160005260756020527feb79622860583465ba0fa298cf2c34dc562a8c4a7eddc9cb6176342e350cc83954909150600383169080610f7e57506101e05b610f8a83838387611598565b50505050565b60695467ffffffffffffffff1681565b6000818152607560205260409020545b919050565b606654604080516302e9ec9d60e11b815260048101859052905160009283926001600160a01b03909116916305d3d93a91602480820192602092909190829003018186803b15801561100657600080fd5b505afa15801561101a573d6000803e3d6000fd5b505050506040513d602081101561103057600080fd5b505160ff161180156110ba57506067546040805163295e2cf560e11b81526004810185905290516000926001600160a01b0316916352bc59ea916024808301926020929190829003018186803b15801561108957600080fd5b505afa15801561109d573d6000803e3d6000fd5b505050506040513d60208110156110b357600080fd5b505160ff16115b90505b92915050565b6110cb612d1b565b600090815260746020526040902080546001600160a01b0319166001600160a01b0392909216919091179055565b611101612d1b565b6069805467ffffffffffffffff191660ff909216919091179055565b60009081526033602052604090206002015490565b61113a612d1b565b6111738383836001430340604051602001808281526020019150506040516020818303038152906040528051906020012060001c611598565b505050565b6000908152606e602052604090205460ff1690565b6000828152603360205260409020600201546111b0906111ab612e25565b611a40565b6111eb5760405162461bcd60e51b815260040180806020018281038252602f8152602001806141c7602f913960400191505060405180910390fd5b6111f58282612e29565b5050565b60408051701093d4d4d413d5d15497d4115490d15395607a1b8152905190819003601101902081565b61122a612e25565b6001600160a01b0316816001600160a01b0316146112795760405162461bcd60e51b815260040180806020018281038252602f8152602001806142e7602f913960400191505060405180910390fd5b6111f58282612e98565b606e6020526000908152604090205460ff1681565b60706020526000908152604090205481565b6112b2612d1b565b60009182526075602052604090912055565b606a5460009081526072602090815260408083203384528252808320805482518185028101850190935280835260609383018282801561132357602002820191906000526020600020905b81548152602001906001019080831161130f575b50939450600093505050505b8151811015611397578360716000606a54815260200190815260200160002083838151811061135a57fe5b60200260200101518154811061136c57fe5b906000526020600020906004020160010154141561138f57600192505050610fb0565b60010161132f565b5060009392505050565b6113a9612d1b565b6068805467ffffffffffffffff60a01b191660ff92909216600160a01b02919091179055565b607360209081526000928352604080842090915290825290205460ff1681565b6000908152607460205260409020546001600160a01b031690565b606a546000818152606c60205260408120549080808080808080808061142f8c6117df565b995061143c606a54612bbd565b9850611449606a54611ba5565b9750611456606a54611178565b9650611463606a54612c48565b955061146d612c87565b606854606954606a54929750600160a01b90910467ffffffffffffffff908116965081169450600160c01b900461ffff1692506114a990612bcf565b9050909192939495969798999a9b565b6000818152606b602052604081205460ff1660028114806114dd575060ff81166003145b80156115015750600083815260726020908152604080832033845290915290205415155b80156115275750600083815260736020908152604080832033845290915290205460ff16155b9392505050565b606954600160401b9004600f0b81565b600181565b6068546001600160a01b031681565b606c6020526000908152604090205481565b604080516923a0a6a2afa0a226a4a760b11b8152905190819003600a01902081565b60756020526000908152604090205481565b6115a0612d1b565b606a546000908152606b602052604090205460ff16600414156115f8576040805162461bcd60e51b815260206004820152600b60248201526a14985a59081c185d5cd95960aa1b604482015290519081900360640190fd5b606a546000908152606b602052604090205460ff16600114801561162c5750606a5460009081526071602052604090205415155b1561163a5761163a81612f07565b610f8a848484610dc6565b61164d612d1b565b60408051600019430140602080830191909152825180830382018152918301909252805191012061167d90612f07565b565b606a54600090815260726020908152604080832033845282529182902080548351818402810184019094528084526060938493909291908301828280156116e557602002820191906000526020600020905b8154815260200190600101908083116116d1575b505050505090506060815167ffffffffffffffff8111801561170657600080fd5b50604051908082528060200260200182016040528015611730578160200160208202803683370190505b50905060005b82518110156117a157606a546000908152607160205260409020835184908390811061175e57fe5b60200260200101518154811061177057fe5b90600052602060002090600402016002015482828151811061178e57fe5b6020908102919091010152600101611736565b5091505090565b60006117b48383613192565b156117d7576117d08462ffffff16610f316104336103e8612d86565b9050611527565b509192915050565b60009081526071602052604090205490565b606a546000908152606b602052604081205460ff1660011480156118255750606a546000908152606c602052604090205442105b905090565b611832612d1b565b61183d816064612d86565b606960086101000a8154816001600160801b030219169083600f0b6001600160801b0316021790555050565b60008181526072602090815260408083203384528252918290208054835181840281018401909452808452606093928301828280156118c757602002820191906000526020600020905b8154815260200190600101908083116118b3575b50505050509050919050565b6074602052600090815260409020546001600160a01b031681565b606a546000908152607260209081526040808320338452825291829020805483518184028101840190945280845260609384939092919083018282801561195457602002820191906000526020600020905b815481526020019060010190808311611940575b505050505090506060815167ffffffffffffffff8111801561197557600080fd5b5060405190808252806020026020018201604052801561199f578160200160208202803683370190505b50905060005b82518110156117a157606a54600090815260716020526040902083518490839081106119cd57fe5b6020026020010151815481106119df57fe5b9060005260206000209060040201600101548282815181106119fd57fe5b60209081029190910101526001016119a5565b606f6020526000908152604090205481565b60008281526033602052604081206110ba908363ffffffff6131b516565b60008281526033602052604081206110ba908363ffffffff6131c116565b60606000835b838111611a8857611a74816114b9565b15611a80576001909101905b600101611a64565b5060608167ffffffffffffffff81118015611aa257600080fd5b50604051908082528060200260200182016040528015611acc578160200160208202803683370190505b5090506000855b858111611b1057611ae3816114b9565b15611b085780838380600101945081518110611afb57fe5b6020026020010181815250505b600101611ad3565b509095945050505050565b600481565b6000611b2a6117f1565b8015611b3b5750611b3b8383610fb5565b8015611b4d5750611b4b836112c4565b155b80156110ba5750611b5d826126d3565b159392505050565b60ff811691600882901c62ffffff169160201c67ffffffffffffffff1690565b600381565b600281565b600081565b606954600160c01b900461ffff1681565b6000908152606f602052604090205490565b6000818152606b602052604090205460ff166002148080611be957506000828152606b602052604090205460ff166003145b611c2a576040805162461bcd60e51b815260206004820152600d60248201526c2930b4b2103737ba1037bb32b960991b604482015290519081900360640190fd5b600082815260736020908152604080832033845290915290205460ff1615611c8b576040805162461bcd60e51b815260206004820152600f60248201526e105b1c9958591e4818db185a5b5959608a1b604482015290519081900360640190fd5b6000828152607260209081526040808320338452825291829020805483518184028101840190945280845260609392830182828015611ce957602002820191906000526020600020905b815481526020019060010190808311611cd5575b505050505090506000815111611d305760405162461bcd60e51b815260040180806020018281038252602481526020018061421d6024913960400191505060405180910390fd5b60008381526071602052604081205460029004600101905b8251811015611f57576000838281518110611d5f57fe5b60200260200101519050611d71614176565b6000878152607160205260409020805483908110611d8b57fe5b600091825260208083206040805160a081018252600490940290910180546001600160a01b031684526001810154928401929092526002820154908301526003015462ffffff808216606084015263010000009091041660808201529150611e4b858410611e0257611dfd60006131d6565b611e32565b611e32611e178588038863ffffffff612d8616565b611e236001600a612d86565b600f0b9063ffffffff6131f416565b611e3c60016131d6565b600f0b9063ffffffff61322b16565b90508615611ea757611ea78884611ea2611e7a866060015162ffffff1686600f0b612dbd90919063ffffffff16565b60008d81526071602090815260408083205460709092529091205481611e9c57fe5b04612d86565b61325e565b60665460208301516069546001600160a01b039092169163da1f8e7791908a90611ee190600f87900b90600160c01b900461ffff16612dbd565b604080516001600160e01b031960e087901b1681526004810194909452911515602484015261ffff16604483015251606480830192600092919082900301818387803b158015611f3057600080fd5b505af1158015611f44573d6000803e3d6000fd5b505060019095019450611d489350505050565b5060008481526073602090815260408083203380855290835292819020805460ff1916600117905584518151908152905187927f24b5efa61dd1cfc659205a97fb8ed868f3cb8c81922bab2b96423e5de1de2cb7928290030190a350505050565b606a546000908152606b602052604090205460ff16600114612021576040805162461bcd60e51b815260206004820152601b60248201527f43616e6e6f74206a6f696e2072616964207269676874206e6f77210000000000604482015290519081900360640190fd5b606a546000908152606c602052604090205442106120705760405162461bcd60e51b81526004018080602001828103825260218152602001806142c66021913960400191505060405180910390fd5b606a5460009081526072602090815260408083203384528252918290208054835181840281018401909452808452606093928301828280156120d157602002820191906000526020600020905b8154815260200190600101908083116120bd575b50939450600093505050505b81518110156121f4578260716000606a54815260200190815260200160002083838151811061210857fe5b60200260200101518154811061211a57fe5b90600052602060002090600402016002015414156121695760405162461bcd60e51b81526004018080602001828103825260278152602001806141f66027913960400191505060405180910390fd5b8360716000606a54815260200190815260200160002083838151811061218b57fe5b60200260200101518154811061219d57fe5b90600052602060002090600402016001015414156121ec5760405162461bcd60e51b81526004018080602001828103825260278152602001806142716027913960400191505060405180910390fd5b6001016120dd565b5060665460685460408051634946e9cb60e01b815233600482015260248101879052600160a01b90920460ff166044830152600160648301526000608483018190529051909283926122a4926001600160a01b0390921691634946e9cb9160a48082019260209290919082900301818887803b15801561227357600080fd5b505af1158015612287573d6000803e3d6000fd5b505050506040513d602081101561229d57600080fd5b5051611b65565b506067546069546040805163f006e8d760e01b8152336004820152602481018a905260ff8087166044830152909216606483015260016084830152600060a483018190529051949650929450919283926001600160a01b039092169163f006e8d79160c480830192608092919082900301818787803b15801561232657600080fd5b505af115801561233a573d6000803e3d6000fd5b505050506040513d608081101561235057600080fd5b5060208101516040909101519092509050600061238d612371858585613590565b606a546000908152606e6020526040902054879060ff166117a8565b90508062ffffff1660706000606a5481526020019081526020016000206000828254019250508190555060726000606a5481526020019081526020016000206000336001600160a01b03166001600160a01b0316815260200190815260200160002060716000606a54815260200190815260200160002080549050908060018154018082558091505060019003906000526020600020016000909190919091505560716000606a5481526020019081526020016000206040518060a00160405280336001600160a01b031681526020018a81526020018981526020018362ffffff168152602001600062ffffff16815250908060018154018082558091505060019003906000526020600020906004020160009091909190915060008201518160000160006101000a8154816001600160a01b0302191690836001600160a01b03160217905550602082015181600101556040820151816002015560608201518160030160006101000a81548162ffffff021916908362ffffff16021790555060808201518160030160036101000a81548162ffffff021916908362ffffff160217905550505060008090506000606960089054906101000a9004600f0b600f0b131561264c5760655460695460408051630a8a921560e01b8152600160401b909204600f90810b810b900b6004830152516001600160a01b0390921691630a8a921591602480820192602092909190829003018186803b1580156125b157600080fd5b505afa1580156125c5573d6000803e3d6000fd5b505050506040513d60208110156125db57600080fd5b50516065546040805163466cec3360e01b81523360048201526024810184905290519293506001600160a01b039091169163466cec339160448082019260009290919082900301818387803b15801561263357600080fd5b505af1158015612647573d6000803e3d6000fd5b505050505b606a54604080519182526020820183905280518a928c9233927fb263b1196da723ec972d211488cb0e401e4eb791510c0d48550166d2f5b2e1b29281900390910190a4505050505050505050565b6126a2612d1b565b6000918252606b6020526040909120805460ff191660ff909216919091179055565b6067546001600160a01b031681565b606a5460009081526072602090815260408083203384528252808320805482518185028101850190935280835260609383018282801561273257602002820191906000526020600020905b81548152602001906001019080831161271e575b50939450600093505050505b8151811015611397578360716000606a54815260200190815260200160002083838151811061276957fe5b60200260200101518154811061277b57fe5b906000526020600020906004020160020154141561279e57600192505050610fb0565b60010161273e565b6065546001600160a01b031681565b600054610100900460ff16806127ce57506127ce6135ca565b806127dc575060005460ff16155b6128175760405162461bcd60e51b815260040180806020018281038252602e815260200180614298602e913960400191505060405180910390fd5b600054610100900460ff16158015612842576000805460ff1961ff0019909116610100171660011790555b61284a6135db565b6128556000336111eb565b604080516923a0a6a2afa0a226a4a760b11b8152905190819003600a01902061287e90336111eb565b606580546001600160a01b0319166001600160a01b0384811691909117918290556040805163341c2ed560e21b81529051929091169163d070bb5491600480820192602092909190829003018186803b1580156128da57600080fd5b505afa1580156128ee573d6000803e3d6000fd5b505050506040513d602081101561290457600080fd5b5051606680546001600160a01b0319166001600160a01b0392831617905560655460408051635bf0e6c360e11b81529051919092169163b7e1cd86916004808301926020929190829003018186803b15801561295f57600080fd5b505afa158015612973573d6000803e3d6000fd5b505050506040513d602081101561298957600080fd5b5051606780546001600160a01b0319166001600160a01b0392831617905560655460408051631479c5eb60e21b8152905191909216916351e717ac916004808301926020929190829003018186803b1580156129e457600080fd5b505afa1580156129f8573d6000803e3d6000fd5b505050506040513d6020811015612a0e57600080fd5b5051606880546001600160a01b0319166001600160a01b039092169190911767ffffffffffffffff60a01b1916601960a31b17905560698054601467ffffffffffffffff199091161779ffffffffffffffffffffffffffffffffffff00000000000000001916600160c81b17905580156111f5576000805461ff00191690555050565b606b6020526000908152604090205460ff1681565b60716020528160005260406000208181548110612abf57fe5b600091825260209091206004909102018054600182015460028301546003909301546001600160a01b039092169450925062ffffff80821691630100000090041685565b60008181526033602052604081206110bd9061367d565b606854600160a01b900467ffffffffffffffff1681565b6066546001600160a01b031681565b600082815260336020526040902060020154612b5e906111ab612e25565b6112795760405162461bcd60e51b81526004018080602001828103825260308152602001806142416030913960400191505060405180910390fd5b6000908152606c602052604090205490565b606d6020526000908152604090205481565b60009081526070602052604090205490565b6000806060612bdd84611869565b905060005b8151811015612c3f5760008581526071602052604090208251839083908110612c0757fe5b602002602001015181548110612c1957fe5b600091825260209091206003600490920201015462ffffff169290920191600101612be2565b50909392505050565b6000908152606b602052604090205460ff1690565b612c65612d1b565b6069805461ffff909216600160c01b0261ffff60c01b19909216919091179055565b60655460695460408051630a8a921560e01b8152600160401b909204600f90810b810b900b6004830152516000926001600160a01b031691630a8a9215916024808301926020929190829003018186803b158015612ce457600080fd5b505afa158015612cf8573d6000803e3d6000fd5b505050506040513d6020811015612d0e57600080fd5b5051905090565b606a5481565b604080516923a0a6a2afa0a226a4a760b11b8152905190819003600a019020612d449033611a40565b61167d576040805162461bcd60e51b815260206004820152600e60248201526d2737ba1033b0b6b29030b236b4b760911b604482015290519081900360640190fd5b600081612d9257600080fd5b6000612d9e8484613688565b905060016001607f1b036001600160801b03821611156110ba57600080fd5b600081612dcc575060006110bd565b600083600f0b1215612ddd57600080fd5b600f83900b6001600160801b038316810260401c90608084901c026001600160c01b03811115612e0c57600080fd5b60401b8119811115612e1d57600080fd5b019392505050565b3390565b6000828152603360205260409020612e47908263ffffffff6137d216565b156111f557612e54612e25565b6001600160a01b0316816001600160a01b0316837f2f8788117e7eff1d82e926ec794901d17c78024a50270940304540a733656f0d60405160405180910390a45050565b6000828152603360205260409020612eb6908263ffffffff6137e716565b156111f557612ec3612e25565b6001600160a01b0316816001600160a01b0316837ff6391f5c32d9c69d2a47ea670b442974b53935d1edc7fd64eb21e047a839171b60405160405180910390a45050565b606a80546000908152606d6020908152604080832085905583548352606c825280832042905592548252606f815282822054607090915291812054612f509082908401856137fc565b9050600082821015612f63576003612f66565b60025b606a546000908152606b60205260409020805460ff191660ff83169081179091559091506002141561313d57612f9a614176565b606a54600090815260716020526040902080548681612fb557fe5b0681548110612fc057fe5b600091825260208083206040805160a081018252600490940290910180546001600160a01b031684526001810154928401929092526002820154908301526003015462ffffff80821660608401526301000000909104166080820152915061302786613866565b60016000908152607460209081527ff83d01c2b52626dc3c2e1555c273eea8900424c2c33f28b73359c960ee7130c154855160408051632769c3d960e11b81526001600160a01b03928316600482015260ff87166024820152604481018d905290519596509394911692634ed387b292606480830193919282900301818787803b1580156130b457600080fd5b505af11580156130c8573d6000803e3d6000fd5b505050506040513d60208110156130de57600080fd5b50518351606a546040805160ff87168152600560648d04066020820181905282519596509486946001600160a01b031693927ff1ad1849e77903836653f1a4bb1d699f530d41fc80964d9d89223ac3ffae72ca928290030190a4505050505b606a546040805160ff841681526020810186905280820185905290517f1a2d794b0b12d2a72c8e17e61187bd8d9dffbe923238d8119def782a90b368af9181900360600190a25050606a805460010190555050565b60008160ff1660048460010160ff16816131a857fe5b0660ff1614905092915050565b60006110ba83836138c2565b60006110ba836001600160a01b038416613926565b6000677fffffffffffffff8211156131ed57600080fd5b5060401b90565b6000600f83810b9083900b0260401d60016001607f1b03198112801590613222575060016001607f1b038113155b6110ba57600080fd5b6000600f83810b9083900b0160016001607f1b03198112801590613222575060016001607f1b038113156110ba57600080fd5b6000838152606d6020908152604080832054815180840191909152808201869052336060808301919091528251808303909101815260809091019091528051910120906132c460016132bb600f86900b605563ffffffff612dbd16565b600f01846137fc565b9050601481111561336657600a820660028110156132ed576132e83387600061393e565b613364565b6004811015613302576132e83387600161393e565b6006811015613318576132e83387856001613a38565b806006141561332d576132e83387600261393e565b8060071415613342576132e833876001613b1c565b8060081415613357576132e833876002613b1c565b6133643387856002613a38565b505b600061338f6001613382600f87900b603263ffffffff612dbd16565b6103b601856001016137fc565b90506103b6811115613433576014600a84040660088110156133ba576133b53388613be5565b613431565b80600814156133d0576133b53388866004613a38565b80600914156133e5576133b53388600461393e565b600e8110156133fb576133b53388866003613a38565b80600e1415613410576133b533886001613cc8565b80600f1415613425576133b533886001613d91565b6134313388600361393e565b505b600061344660016107d0866002016137fc565b90506064811161358757603281111561348d57613488338888613483606960189054906101000a900461ffff1661ffff16610f3160196064612d86565b613e5a565b613587565b60148111156134c057613488338888613483606960189054906101000a900461ffff1661ffff16610f3160966064612d86565b600a8111156134f457613488338888613483606960189054906101000a900461ffff1661ffff16610f316101136064612d86565b600481111561352857613488338888613483606960189054906101000a900461ffff1661ffff16610f3161020d6064612d86565b600181111561355c57613488338888613483606960189054906101000a900461ffff1661ffff16610f3161047e6064612d86565b613587338888613483606960189054906101000a900461ffff1661ffff16610f316109606064612d86565b50505050505050565b60006135c28262ffffff166135b68662ffffff1686600f0b612dbd90919063ffffffff16565b9063ffffffff613f3e16565b949350505050565b60006135d530613f98565b15905090565b600054610100900460ff16806135f457506135f46135ca565b80613602575060005460ff16155b61363d5760405162461bcd60e51b815260040180806020018281038252602e815260200180614298602e913960400191505060405180910390fd5b600054610100900460ff16158015613668576000805460ff1961ff0019909116610100171660011790555b801561367a576000805461ff00191690555b50565b60006110bd82613f9e565b60008161369457600080fd5b60006001600160c01b0384116136b95782604085901b816136b157fe5b0490506137be565b60c084811c64010000000081106136d2576020918201911c5b6201000081106136e4576010918201911c5b61010081106136f5576008918201911c5b60108110613705576004918201911c5b60048110613715576002918201911c5b60028110613724576001820191505b60bf820360018603901c6001018260ff0387901b8161373f57fe5b0492506001600160801b0383111561375657600080fd5b608085901c83026001600160801b038616840260c088901c604089901b82811015613782576001820391505b608084901b92900382811015613799576001820391505b829003608084901c82146137a957fe5b8881816137b257fe5b04870196505050505050505b6001600160801b038111156110ba57600080fd5b60006110ba836001600160a01b038416613fa2565b60006110ba836001600160a01b038416613fec565b60008061381460016135b6868863ffffffff6140b216565b604080516020808201879052825180830382018152918301909252805191012090915060009061384a908363ffffffff61410f16565b905061385c818763ffffffff613f3e16565b9695505050505050565b600060648206600181101561387f576004915050610fb0565b6006811015613892576003915050610fb0565b60158110156138a5576002915050610fb0565b60388110156138b8576001915050610fb0565b6000915050610fb0565b815460009082106139045760405162461bcd60e51b81526004018080602001828103825260228152602001806141a56022913960400191505060405180910390fd5b82600001828154811061391357fe5b9060005260206000200154905092915050565b60009081526001919091016020526040902054151590565b60036000908152607460209081527f2727f07e5197d97fe18fb9ccc0d66458914dc7168b5c9ef06b237a6115a2dc1d5460408051630348ab1560e51b81526001600160a01b03888116600483015260ff871660248301529151919092169263691562a0926044808201939182900301818787803b1580156139be57600080fd5b505af11580156139d2573d6000803e3d6000fd5b505050506040513d60208110156139e857600080fd5b50516040805160ff85168152905191925082916001600160a01b0387169186917f744138229824ee73e48cb7b6282b7bcd02edd1b2deb5f2c587086a06166b58679181900360200190a450505050565b60675460408051633137ee2960e01b81526001600160a01b03878116600483015260ff85166024830152606480870460448401528281015291516000939290921691633137ee299160848082019260209290919082900301818787803b158015613aa157600080fd5b505af1158015613ab5573d6000803e3d6000fd5b505050506040513d6020811015613acb57600080fd5b50516040805160ff85168152905191925082916001600160a01b0388169187917f73e022bb57f8f9bfe6397d0dad77344f8d24bf4c7fd0a43dc6e7befb74ac13d99181900360200190a45050505050565b60675460408051637a39589360e01b81526001600160a01b03868116600483015263ffffffff85166024830152600060448301819052606483018190529251931692637a3958939260848084019391929182900301818387803b158015613b8257600080fd5b505af1158015613b96573d6000803e3d6000fd5b50506040805163ffffffff8516815290516001600160a01b03871693508592507fe2d75320517b658d92614beed8079f77d8005b938408da68a0980f9a17443e679181900360200190a3505050565b60026000908152607460209081527f6682ec7d01f27599ce789688f09278cfefbe231146e0a71df5d9a69d5a0414f954604080516335313c2160e11b81526001600160a01b03878116600483015291519190921692636a627842926024808201939182900301818787803b158015613c5c57600080fd5b505af1158015613c70573d6000803e3d6000fd5b505050506040513d6020811015613c8657600080fd5b505160405190915081906001600160a01b0385169084907f4f2411592d74df10f92c656a55658c50df2ee0548c0a485fc35cdd1e723235be90600090a4505050565b60675460408051637a39589360e01b81526001600160a01b03868116600483015260006024830181905263ffffffff86166044840152606483018190529251931692637a3958939260848084019391929182900301818387803b158015613d2e57600080fd5b505af1158015613d42573d6000803e3d6000fd5b50506040805163ffffffff8516815290516001600160a01b03871693508592507f67527fae1161e68eac66de51f5914708c054438e99db574d2f213ce554c35fd79181900360200190a3505050565b60675460408051637a39589360e01b81526001600160a01b0386811660048301526000602483018190526044830181905263ffffffff861660648401529251931692637a3958939260848084019391929182900301818387803b158015613df757600080fd5b505af1158015613e0b573d6000803e3d6000fd5b50506040805163ffffffff8516815290516001600160a01b03871693508592507ff4c339fde59e20da6a3d53f483bece04a188f406c5c26dbc1ab6361d8cee173e9181900360200190a3505050565b6000838152607160205260408120805484908110613e7457fe5b6000918252602082206004918202016001015460665460408051630fc0057560e01b815293840183905261ffff87166024850152519194506001600160a01b031692630fc00575926044808201939182900301818387803b158015613ed857600080fd5b505af1158015613eec573d6000803e3d6000fd5b50506040805161ffff8616815290518493506001600160a01b038916925087917f49a4c899cf558cf38f474066c410dbb59a1a5950a13df9a79eeb884144eeaa40919081900360200190a45050505050565b6000828201838110156110ba576040805162461bcd60e51b815260206004820152601b60248201527f536166654d6174683a206164646974696f6e206f766572666c6f770000000000604482015290519081900360640190fd5b3b151590565b5490565b6000613fae8383613926565b613fe4575081546001818101845560008481526020808220909301849055845484825282860190935260409020919091556110bd565b5060006110bd565b600081815260018301602052604081205480156140a8578354600019808301919081019060009087908390811061401f57fe5b906000526020600020015490508087600001848154811061403c57fe5b60009182526020808320909101929092558281526001898101909252604090209084019055865487908061406c57fe5b600190038181906000526020600020016000905590558660010160008781526020019081526020016000206000905560019450505050506110bd565b60009150506110bd565b600082821115614109576040805162461bcd60e51b815260206004820152601e60248201527f536166654d6174683a207375627472616374696f6e206f766572666c6f770000604482015290519081900360640190fd5b50900390565b6000808211614165576040805162461bcd60e51b815260206004820152601860248201527f536166654d6174683a206d6f64756c6f206279207a65726f0000000000000000604482015290519081900360640190fd5b81838161416e57fe5b069392505050565b6040805160a0810182526000808252602082018190529181018290526060810182905260808101919091529056fe456e756d657261626c655365743a20696e646578206f7574206f6620626f756e6473416363657373436f6e74726f6c3a2073656e646572206d75737420626520616e2061646d696e20746f206772616e745468697320776561706f6e20697320616c7265616479207573656420696e2074686520726169644e6f6e65206f6620796f7572206368617261637465727320706172746963697061746564416363657373436f6e74726f6c3a2073656e646572206d75737420626520616e2061646d696e20746f207265766f6b65546869732063686172616374657220697320616c72656164792070617274696369706174696e67496e697469616c697a61626c653a20636f6e747261637420697320616c726561647920696e697469616c697a6564497420697320746f6f206c61746520746f206a6f696e2074686973207261696421416363657373436f6e74726f6c3a2063616e206f6e6c792072656e6f756e636520726f6c657320666f722073656c66a2646970667358221220e6f2953452a10199bf040f20184c4edfaf04a8447130075dc2e0abdb05c4a2b764736f6c63430006050033",
  "immutableReferences": {},
  "source": "pragma solidity ^0.6.0;\r\n\r\nimport \"@openzeppelin/contracts-upgradeable/proxy/Initializable.sol\";\r\nimport \"@openzeppelin/contracts-upgradeable/access/AccessControlUpgradeable.sol\";\r\nimport \"./cryptoblades.sol\";\r\nimport \"./characters.sol\";\r\nimport \"./weapons.sol\";\r\nimport \"./Promos.sol\";\r\nimport \"./util.sol\";\r\nimport \"./items/RaidTrinket.sol\";\r\nimport \"./items/KeyLootbox.sol\";\r\nimport \"./items/Junk.sol\";\r\nimport \"./common.sol\";\r\n\r\n\r\ncontract Raid1 is Initializable, AccessControlUpgradeable {\r\n\r\n    /*\r\n        Actual raids reimplementation\r\n        Figured the old contract may have a lot of redundant variables and it's already deployed\r\n        Maybe the raid interface isn't the way to go\r\n        Either way it's probably fine to lay out the new one in a single file and compare\r\n        The idea is to store all participants and raid details using an indexed mapping system\r\n        And players get to claim their rewards as a derivative of a raid completion seed that\r\n            a safe verifiable random source will provide (ideally)\r\n        It may be better to convert the mappings using raidIndex into a struct\r\n        Need to test gas impact or if stack limits are any different\r\n    */\r\n\r\n    using ABDKMath64x64 for int128;\r\n    using ABDKMath64x64 for uint256;\r\n\r\n    bytes32 public constant GAME_ADMIN = keccak256(\"GAME_ADMIN\");\r\n\r\n    uint8 public constant STATUS_UNSTARTED = 0;\r\n    uint8 public constant STATUS_STARTED = 1;\r\n    uint8 public constant STATUS_WON = 2;\r\n    uint8 public constant STATUS_LOST = 3;\r\n    uint8 public constant STATUS_PAUSED = 4; // in case of emergency\r\n\r\n    // leaving link 0 empty intentionally\r\n    uint256 public constant LINK_TRINKET = 1;\r\n    uint256 public constant LINK_KEYBOX = 2;\r\n    uint256 public constant LINK_JUNK = 3;\r\n\r\n    uint256 public constant NUMBERPARAMETER_AUTO_DURATION = 1;\r\n    uint256 public constant NUMBERPARAMETER_AUTO_BOSSPOWER_PERCENT = uint256(keccak256(\"BOSSPOWER_PERCENT\"));\r\n\r\n    CryptoBlades public game;\r\n    Characters public characters;\r\n    Weapons public weapons;\r\n    Promos public promos;\r\n\r\n    struct Raider {\r\n        address owner;\r\n        uint256 charID;\r\n        uint256 wepID;\r\n        uint24 power;\r\n        uint24 traitsCWS;//char trait, wep trait, wep statpattern, unused for now\r\n    }\r\n\r\n    uint64 public staminaCost;\r\n    uint64 public durabilityCost;\r\n    int128 public joinCost;\r\n    uint16 public xpReward;\r\n\r\n    uint256 public raidIndex;\r\n    // all (first) keys are raidIndex\r\n    mapping(uint256 => uint8) public raidStatus;\r\n    mapping(uint256 => uint256) public raidEndTime;\r\n    mapping(uint256 => uint256) public raidSeed;\r\n    mapping(uint256 => uint8) public raidBossTrait;\r\n    mapping(uint256 => uint256) public raidBossPower;\r\n    mapping(uint256 => uint256) public raidPlayerPower;\r\n    mapping(uint256 => Raider[]) public raidParticipants;\r\n    mapping(uint256 => mapping(address => uint256[])) public raidParticipantIndices;\r\n    mapping(uint256 => mapping(address => bool)) public raidRewardClaimed;\r\n\r\n    // link interface\r\n    // the idea is to avoid littering the contract with variables for each type of reward\r\n    mapping(uint256 => address) public links;\r\n    // parameters to avoid littering the contract with more state vars\r\n    mapping(uint256 => uint256) public numberParameters;\r\n\r\n    event RaidStarted(uint256 indexed raidIndex,\r\n        uint8 bossTrait,\r\n        uint256 bossPower,\r\n        uint256 endTime);\r\n    event RaidJoined(uint256 raidIndex,\r\n        address indexed user,\r\n        uint256 indexed character,\r\n        uint256 indexed weapon,\r\n        uint256 skillPaid);\r\n    event RaidCompleted(uint256 indexed raidIndex,\r\n        uint8 outcome,\r\n        uint256 bossRoll,\r\n        uint256 playerRoll);\r\n\r\n    // reward specific events for analytics\r\n    event RewardClaimed(uint256 indexed raidIndex, address indexed user, uint256 characterCount);\r\n    event RewardedXpBonus(uint256 indexed raidIndex, address indexed user, uint256 indexed charID, uint16 amount);\r\n    event RewardedDustLB(uint256 indexed raidIndex, address indexed user, uint32 amount);\r\n    event RewardedDust4B(uint256 indexed raidIndex, address indexed user, uint32 amount);\r\n    event RewardedDust5B(uint256 indexed raidIndex, address indexed user, uint32 amount);\r\n    event RewardedWeapon(uint256 indexed raidIndex, address indexed user, uint8 stars, uint256 indexed tokenID);\r\n    event RewardedJunk(uint256 indexed raidIndex, address indexed user, uint8 stars, uint256 indexed tokenID);\r\n    event RewardedTrinket(uint256 indexed raidIndex, address indexed user, uint8 stars, uint256 effect, uint256 indexed tokenID);\r\n    event RewardedKeyBox(uint256 indexed raidIndex, address indexed user, uint256 indexed tokenID);\r\n\r\n    function initialize(address gameContract) public initializer {\r\n\r\n        __AccessControl_init_unchained();\r\n        _setupRole(DEFAULT_ADMIN_ROLE, msg.sender);\r\n        _setupRole(GAME_ADMIN, msg.sender);\r\n\r\n        game = CryptoBlades(gameContract);\r\n        characters = Characters(game.characters());\r\n        weapons = Weapons(game.weapons());\r\n        promos = Promos(game.promos());\r\n\r\n        staminaCost = 200; // 5 mins each, or 16.666 hours\r\n        durabilityCost = 20; // 50 mins each, or 16.666 hours\r\n        joinCost = 0;// free (was going to be 10 USD)\r\n        xpReward = 128 * 2; // 13 hour 20 min worth of fight xp, but we had double xp active on launch\r\n    }\r\n\r\n    modifier restricted() {\r\n        _restricted();\r\n        _;\r\n    }\r\n\r\n    function _restricted() internal view {\r\n        require(hasRole(GAME_ADMIN, msg.sender), \"Not game admin\");\r\n    }\r\n\r\n    function doRaidAuto() public restricted {\r\n        uint256 seed = uint256(keccak256(abi.encodePacked(blockhash(block.number - 1))));\r\n        uint256 power = ABDKMath64x64.divu(numberParameters[NUMBERPARAMETER_AUTO_BOSSPOWER_PERCENT],100)\r\n            .mulu(raidPlayerPower[raidIndex]);\r\n        uint8 trait = uint8(seed % 4);\r\n        uint256 duration = numberParameters[NUMBERPARAMETER_AUTO_DURATION];\r\n        if(duration == 0) {\r\n            duration = 480; // 8 hrs\r\n        }\r\n        doRaidWithSeed(power, trait, duration, seed);\r\n    }\r\n\r\n    function doRaid(uint256 bossPower, uint8 bossTrait, uint256 durationMinutes) public restricted {\r\n        doRaidWithSeed(bossPower, bossTrait, durationMinutes, uint256(keccak256(abi.encodePacked(blockhash(block.number - 1)))));\r\n    }\r\n\r\n    function doRaidWithSeed(uint256 bossPower, uint8 bossTrait, uint256 durationMinutes, uint256 seed) public restricted {\r\n        require(raidStatus[raidIndex] != STATUS_PAUSED, \"Raid paused\");\r\n\r\n        if(raidStatus[raidIndex] == STATUS_STARTED\r\n        && raidParticipants[raidIndex].length > 0) {\r\n            completeRaidWithSeed(seed);\r\n        }\r\n        startRaid(bossPower, bossTrait, durationMinutes);\r\n    }\r\n\r\n    function startRaid(uint256 bossPower, uint8 bossTrait, uint256 durationMinutes) public restricted {\r\n        raidStatus[raidIndex] = STATUS_STARTED;\r\n        raidBossPower[raidIndex] = bossPower;\r\n        raidBossTrait[raidIndex] = bossTrait;\r\n\r\n        uint256 endTime = now + (durationMinutes * 1 minutes);\r\n        raidEndTime[raidIndex] = endTime;\r\n\r\n        emit RaidStarted(raidIndex, bossTrait, bossPower, endTime);\r\n    }\r\n\r\n    function joinRaid(uint256 characterID, uint256 weaponID) public {\r\n        // owner and stamina/durability checks in the fightdata functions\r\n        require(raidStatus[raidIndex] == STATUS_STARTED, \"Cannot join raid right now!\");\r\n        require(raidEndTime[raidIndex] > now, \"It is too late to join this raid!\");\r\n\r\n        uint256[] memory raiderIndices = raidParticipantIndices[raidIndex][msg.sender];\r\n        for(uint i = 0; i < raiderIndices.length; i++) {\r\n            require(raidParticipants[raidIndex][raiderIndices[i]].wepID != weaponID,\r\n                \"This weapon is already used in the raid\");\r\n            require(raidParticipants[raidIndex][raiderIndices[i]].charID != characterID,\r\n                \"This character is already participating\");\r\n        }\r\n\r\n        (uint8 charTrait, uint24 basePowerLevel, /*uint64 timestamp*/) =\r\n            unpackFightData(characters.getFightDataAndDrainStamina(msg.sender,\r\n                                    characterID,\r\n                                    uint8(staminaCost),\r\n                                    true,\r\n                                    0) // no busy flag for raids for now\r\n                                );\r\n\r\n        (/*int128 weaponMultTarget*/,\r\n            int128 weaponMultFight,\r\n            uint24 weaponBonusPower,\r\n            /*uint8 weaponTrait*/) = weapons.getFightDataAndDrainDurability(msg.sender,\r\n                weaponID, charTrait, uint8(durabilityCost), true, 0); // no busy flag for raids for now\r\n\r\n        uint24 power = getPlayerFinalPower(\r\n            Common.getPlayerPower(basePowerLevel, weaponMultFight, weaponBonusPower),\r\n            charTrait,\r\n            raidBossTrait[raidIndex]\r\n        );\r\n        raidPlayerPower[raidIndex] += power;\r\n\r\n        //uint8 wepStatPattern = weapons.getStatPattern(weaponID);\r\n        raidParticipantIndices[raidIndex][msg.sender].push(raidParticipants[raidIndex].length);\r\n        raidParticipants[raidIndex].push(Raider(\r\n            msg.sender,\r\n            characterID,\r\n            weaponID,\r\n            power,\r\n            0//uint24(charTrait) | (uint24(weaponTrait) << 8) | ((uint24(wepStatPattern)) << 16)//traitCWS\r\n        ));\r\n\r\n        uint256 joinCostPaid = 0;\r\n        if(joinCost > 0) {\r\n            joinCostPaid = game.usdToSkill(joinCost);\r\n            game.payContractTokenOnly(msg.sender, joinCostPaid);\r\n        }\r\n        emit RaidJoined(raidIndex,\r\n            msg.sender,\r\n            characterID,\r\n            weaponID,\r\n            joinCostPaid);\r\n    }\r\n\r\n    function setRaidStatus(uint256 index, uint8 status) public restricted {\r\n        // only use if absolutely necessary\r\n        raidStatus[index] = status;\r\n    }\r\n\r\n    function completeRaid() public restricted {\r\n        completeRaidWithSeed(uint256(keccak256(abi.encodePacked(blockhash(block.number - 1)))));\r\n    }\r\n\r\n    function completeRaidWithSeed(uint256 seed) internal {\r\n\r\n        raidSeed[raidIndex] = seed;\r\n        raidEndTime[raidIndex] = now;\r\n\r\n        uint256 bossPower = raidBossPower[raidIndex];\r\n        // we could also not include bossPower in the roll to have slightly higher chances of failure\r\n        // with bosspower added to roll ceiling the likelyhood of a win is: playerPower / bossPower\r\n        uint256 roll = RandomUtil.randomSeededMinMax(0,raidPlayerPower[raidIndex]+bossPower, seed);\r\n        uint8 outcome = roll >= bossPower ? STATUS_WON : STATUS_LOST;\r\n        raidStatus[raidIndex] = outcome;\r\n\r\n        if(outcome == STATUS_WON) {\r\n            // since we pay out exactly one trinket per raid, we might as well do it here\r\n            Raider memory trinketWinner = raidParticipants[raidIndex][seed % raidParticipants[raidIndex].length];\r\n            uint8 trinketStars = getTrinketStarsFromSeed(seed);\r\n            uint tokenID =\r\n                RaidTrinket(links[LINK_TRINKET]).mint(\r\n                    trinketWinner.owner, trinketStars, seed\r\n                );\r\n            uint256 trinketEffect = (seed / 100) % 5;\r\n            emit RewardedTrinket(raidIndex, trinketWinner.owner, trinketStars, trinketEffect, tokenID);\r\n        }\r\n        emit RaidCompleted(raidIndex, outcome, bossPower, roll);\r\n        raidIndex++;\r\n    }\r\n\r\n    function getTrinketStarsFromSeed(uint256 seed) private pure returns(uint8 stars) {\r\n        uint256 roll = seed % 100;\r\n        if(roll < 1) {\r\n            return 4; // 5* at 1%\r\n        }\r\n        else if(roll < 6) { // 4* at 5%\r\n            return 3;\r\n        }\r\n        else if(roll < 21) { // 3* at 15%\r\n            return 2;\r\n        }\r\n        else if(roll < 56) { // 2* at 35%\r\n            return 1;\r\n        }\r\n        else {\r\n            return 0; // 1* at 44%\r\n        }\r\n    }\r\n\r\n    function unpackFightData(uint96 playerData)\r\n        public pure returns (uint8 charTrait, uint24 basePowerLevel, uint64 timestamp) {\r\n\r\n        charTrait = uint8(playerData & 0xFF);\r\n        basePowerLevel = uint24((playerData >> 8) & 0xFFFFFF);\r\n        timestamp = uint64((playerData >> 32) & 0xFFFFFFFFFFFFFFFF);\r\n    }\r\n\r\n    function getPlayerFinalPower(uint24 playerPower, uint8 charTrait, uint8 bossTrait) public pure returns(uint24) {\r\n        if(Common.isTraitEffectiveAgainst(charTrait, bossTrait))\r\n            return uint24(ABDKMath64x64.divu(1075,1000).mulu(uint256(playerPower)));\r\n        return playerPower;\r\n    }\r\n\r\n    function claimReward(uint256 claimRaidIndex) public {\r\n        // NOTE: this function is stack limited\r\n        //claimRaidIndex can act as a version integer if future rewards change\r\n        bool victory = raidStatus[claimRaidIndex] == STATUS_WON;\r\n        require(victory || raidStatus[claimRaidIndex] == STATUS_LOST, \"Raid not over\");\r\n        require(raidRewardClaimed[claimRaidIndex][msg.sender] == false, \"Already claimed\");\r\n\r\n        uint256[] memory raiderIndices = raidParticipantIndices[claimRaidIndex][msg.sender];\r\n        require(raiderIndices.length > 0, \"None of your characters participated\");\r\n\r\n        uint256 earlyBonusCutoff = raidParticipants[claimRaidIndex].length/2+1; // first half of players\r\n        // we grab raider info (power) and give out xp and raid stats\r\n        for(uint i = 0; i < raiderIndices.length; i++) {\r\n            uint256 raiderIndex = raiderIndices[i];\r\n            Raider memory raider = raidParticipants[claimRaidIndex][raiderIndex];\r\n            int128 earlyMultiplier = ABDKMath64x64.fromUInt(1).add(\r\n                raiderIndex < earlyBonusCutoff ?\r\n                    ABDKMath64x64.divu(1,10).mul( // early bonus, 10%\r\n                        (earlyBonusCutoff-raiderIndex).divu(earlyBonusCutoff)\r\n                    )\r\n                    : ABDKMath64x64.fromUInt(0)\r\n            );\r\n            if(victory) {\r\n                distributeRewards(\r\n                    claimRaidIndex,\r\n                    raiderIndex,\r\n                    ABDKMath64x64.divu(earlyMultiplier.mulu(raider.power),\r\n                        raidPlayerPower[claimRaidIndex]/raidParticipants[claimRaidIndex].length)\r\n                );\r\n            }\r\n            //weapons.setNftVar(raider.wepID, 1, 0); // NFTVAR_BUSY // no busy flag for raids for now\r\n            characters.processRaidParticipation(raider.charID, victory, uint16(earlyMultiplier.mulu(xpReward)));\r\n        }\r\n\r\n        raidRewardClaimed[claimRaidIndex][msg.sender] = true;\r\n        emit RewardClaimed(claimRaidIndex, msg.sender, raiderIndices.length);\r\n    }\r\n\r\n    function distributeRewards(\r\n        uint256 claimRaidIndex,\r\n        uint256 raiderIndex,\r\n        int128 comparedToAverage\r\n    ) private {\r\n        // at most 2 types of rewards\r\n        // common: Lb dust, 1-3 star junk, 3 star wep\r\n        // rare: 4-5b dust, 4-5 star wep, 4-5 star junk, keybox\r\n        // chances are a bit generous compared to weapon mints because stamina cost equals lost skill\r\n        // That being said these rates stink if the oracle is 3x lower than real value.\r\n        uint256 seed = uint256(keccak256(abi.encodePacked(raidSeed[claimRaidIndex], raiderIndex, uint256(msg.sender))));\r\n\r\n        uint256 commonRoll = RandomUtil.randomSeededMinMax(1, 15 + comparedToAverage.mulu(85), seed);\r\n        if(commonRoll > 20) { // Expected: ~75% (at least 25% at bottom, 90+% past 65% power)\r\n            uint mod = seed % 10;\r\n            if(mod < 2) { // 1 star junk, 2 out of 10 (20%)\r\n                distributeJunk(msg.sender, claimRaidIndex, 0);\r\n            }\r\n            else if(mod < 4) { // 2 star junk, 2 out of 10 (20%)\r\n                distributeJunk(msg.sender, claimRaidIndex, 1);\r\n            }\r\n            else if(mod < 6) { // 2 star weapon, 2 out of 10 (20%)\r\n                distributeWeapon(msg.sender, claimRaidIndex, seed, 1);\r\n            }\r\n            else if(mod == 6) { // 3 star junk, 1 out of 10 (10%)\r\n                distributeJunk(msg.sender, claimRaidIndex, 2);\r\n            }\r\n            else if(mod == 7) { // 1x LB Dust, 1 out of 10 (10%)\r\n                distributeLBDust(msg.sender, claimRaidIndex, 1);\r\n            }\r\n            else if(mod == 8) { // 2x LB Dust, 1 out of 10 (10%)\r\n                distributeLBDust(msg.sender, claimRaidIndex, 2);\r\n            }\r\n            else { // 3 star weapon, 1 out of 10 (10%)\r\n                distributeWeapon(msg.sender, claimRaidIndex, seed, 2);\r\n            }\r\n        }\r\n\r\n        uint256 rareRoll = RandomUtil.randomSeededMinMax(1, 950 + comparedToAverage.mulu(50), seed + 1);\r\n        if(rareRoll > 950) { // Expected: ~5% (0.72% at bottom, 15% at top, 8.43% middle)\r\n            uint mod = (seed / 10) % 20;\r\n            if(mod < 8) { // key box, 8 out of 20 (40%)\r\n                distributeKeyBox(msg.sender, claimRaidIndex);\r\n            }\r\n            else if(mod == 8) { // 5 star sword, 1 out of 20 (5%)\r\n                distributeWeapon(msg.sender, claimRaidIndex, seed, 4);\r\n            }\r\n            else if(mod == 9) { // 5 star junk, 1 out of 20 (5%)\r\n                distributeJunk(msg.sender, claimRaidIndex, 4);\r\n            }\r\n            else if(mod < 14) { // 4 star sword, 4 out of 20 (20%)\r\n                distributeWeapon(msg.sender, claimRaidIndex, seed, 3);\r\n            }\r\n            else if(mod == 14) { // 1x 4B Dust, 1 out of 20 (5%)\r\n                distribute4BDust(msg.sender, claimRaidIndex, 1);\r\n            }\r\n            else if(mod == 15) { // 1x 5B Dust, 1 out of 20 (5%)\r\n                distribute5BDust(msg.sender, claimRaidIndex, 1);\r\n            }\r\n            else { // 4 star junk, 4 out of 20 (20%)\r\n                distributeJunk(msg.sender, claimRaidIndex, 3);\r\n            }\r\n        }\r\n\r\n        uint256 bonusXpRoll = RandomUtil.randomSeededMinMax(1, 2000, seed + 2); // 0.05% per point\r\n        if(bonusXpRoll <= 100) { // 5% for any bonus xp result\r\n            if(bonusXpRoll > 50) { // 2.5% for +25% xp\r\n                distributeBonusXp(msg.sender, claimRaidIndex, raiderIndex, uint16(ABDKMath64x64.divu(25,100).mulu(xpReward)));\r\n            }\r\n            else if(bonusXpRoll > 20) { // 1.5% for +150% xp\r\n                distributeBonusXp(msg.sender, claimRaidIndex, raiderIndex, uint16(ABDKMath64x64.divu(150,100).mulu(xpReward)));\r\n            }\r\n            else if(bonusXpRoll > 10) { // 0.5% for +275% xp\r\n                distributeBonusXp(msg.sender, claimRaidIndex, raiderIndex, uint16(ABDKMath64x64.divu(275,100).mulu(xpReward)));\r\n            }\r\n            else if(bonusXpRoll > 4) { // 0.3% for +525% xp\r\n                distributeBonusXp(msg.sender, claimRaidIndex, raiderIndex, uint16(ABDKMath64x64.divu(525,100).mulu(xpReward)));\r\n            }\r\n            else if(bonusXpRoll > 1) { // 0.15% for +1150% xp\r\n                distributeBonusXp(msg.sender, claimRaidIndex, raiderIndex, uint16(ABDKMath64x64.divu(1150,100).mulu(xpReward)));\r\n            }\r\n            else { // 0.05% for +2400% xp\r\n                distributeBonusXp(msg.sender, claimRaidIndex, raiderIndex, uint16(ABDKMath64x64.divu(2400,100).mulu(xpReward)));\r\n            }\r\n        }\r\n    }\r\n\r\n    function distributeBonusXp(address claimant, uint256 claimRaidIndex, uint256 raiderIndex, uint16 amount) private {\r\n        uint256 charID = raidParticipants[claimRaidIndex][raiderIndex].charID;\r\n        characters.gainXp(charID, amount);\r\n        emit RewardedXpBonus(claimRaidIndex, claimant, charID, amount);\r\n    }\r\n\r\n    function distributeKeyBox(address claimant, uint256 claimRaidIndex) private {\r\n        uint tokenID = KeyLootbox(links[LINK_KEYBOX]).mint(claimant);\r\n        emit RewardedKeyBox(claimRaidIndex, claimant, tokenID);\r\n    }\r\n\r\n    function distributeJunk(address claimant, uint256 claimRaidIndex, uint8 stars) private {\r\n        uint tokenID = Junk(links[LINK_JUNK]).mint(claimant, stars);\r\n        emit RewardedJunk(claimRaidIndex, claimant, stars, tokenID);\r\n    }\r\n\r\n    function distributeWeapon(address claimant, uint256 claimRaidIndex, uint256 seed, uint8 stars) private {\r\n        uint tokenID = weapons.mintWeaponWithStars(claimant, stars, seed / 100, 100);\r\n        emit RewardedWeapon(claimRaidIndex, claimant, stars, tokenID);\r\n    }\r\n\r\n    function distributeLBDust(address claimant, uint256 claimRaidIndex, uint32 amount) private {\r\n        weapons.incrementDustSupplies(claimant, amount, 0, 0);\r\n        emit RewardedDustLB(claimRaidIndex, claimant, amount);\r\n    }\r\n\r\n    function distribute4BDust(address claimant, uint256 claimRaidIndex, uint32 amount) private {\r\n        weapons.incrementDustSupplies(claimant, 0, amount, 0);\r\n        emit RewardedDust4B(claimRaidIndex, claimant, amount);\r\n    }\r\n\r\n    function distribute5BDust(address claimant, uint256 claimRaidIndex, uint32 amount) private {\r\n        weapons.incrementDustSupplies(claimant, 0, 0, amount);\r\n        emit RewardedDust5B(claimRaidIndex, claimant, amount);\r\n    }\r\n\r\n    function registerLink(address addr, uint256 index) public restricted {\r\n        links[index] = addr;\r\n    }\r\n\r\n    function setStaminaPointCost(uint8 points) public restricted {\r\n        staminaCost = points;\r\n    }\r\n\r\n    function setDurabilityPointCost(uint8 points) public restricted {\r\n        durabilityCost = points;\r\n    }\r\n\r\n    function setJoinCostInCents(uint256 cents) public restricted {\r\n        joinCost = ABDKMath64x64.divu(cents, 100);\r\n    }\r\n\r\n    function getJoinCostInSkill() public view returns(uint256) {\r\n        return game.usdToSkill(joinCost);\r\n    }\r\n\r\n    function setXpReward(uint16 xp) public restricted {\r\n        xpReward = xp;\r\n    }\r\n\r\n    function setNumberParameter(uint256 paramIndex, uint256 value) public restricted {\r\n        numberParameters[paramIndex] = value;\r\n    }\r\n\r\n    function getNumberParameter(uint256 paramIndex) public view returns(uint256) {\r\n        return numberParameters[paramIndex];\r\n    }\r\n\r\n    function getRaidStatus(uint256 index) public view returns(uint8) {\r\n        return raidStatus[index];\r\n    }\r\n\r\n    function getRaidEndTime(uint256 index) public view returns(uint256) {\r\n        return raidEndTime[index];\r\n    }\r\n\r\n    function getRaidBossTrait(uint256 index) public view returns(uint8) {\r\n        return raidBossTrait[index];\r\n    }\r\n\r\n    function getRaidBossPower(uint256 index) public view returns(uint256) {\r\n        return raidBossPower[index];\r\n    }\r\n\r\n    function getRaidPlayerPower(uint256 index) public view returns(uint256) {\r\n        return raidPlayerPower[index];\r\n    }\r\n\r\n    function getRaidParticipantCount(uint256 index) public view returns(uint256) {\r\n        return raidParticipants[index].length;\r\n    }\r\n\r\n    function getEligibleRewardIndexes(uint256 startIndex, uint256 endIndex) public view returns(uint256[] memory) {\r\n        uint indexCount = 0;\r\n        for(uint i = startIndex; i <= endIndex; i++) {\r\n            if(isEligibleForReward(i)) {\r\n                indexCount++;\r\n            }\r\n        }\r\n        uint256[] memory result = new uint256[](indexCount);\r\n        uint currentIndex = 0;\r\n        for(uint i = startIndex; i <= endIndex; i++) {\r\n            if(isEligibleForReward(i)) {\r\n                result[currentIndex++] = i;\r\n            }\r\n        }\r\n        return result;\r\n    }\r\n\r\n    function isEligibleForReward(uint256 index) public view returns(bool) {\r\n        uint8 status = raidStatus[index];\r\n        return (status == STATUS_WON || status == STATUS_LOST)\r\n            && raidParticipantIndices[index][msg.sender].length > 0\r\n            && raidRewardClaimed[index][msg.sender] == false;\r\n    }\r\n\r\n    function getParticipatingCharacters() public view returns(uint256[] memory) {\r\n        uint256[] memory indices = raidParticipantIndices[raidIndex][msg.sender];\r\n        uint256[] memory chars = new uint256[](indices.length);\r\n        for(uint i = 0; i < indices.length; i++) {\r\n            chars[i] = raidParticipants[raidIndex][indices[i]].charID;\r\n        }\r\n        return chars;\r\n    }\r\n\r\n    function getParticipatingWeapons() public view returns(uint256[] memory) {\r\n        uint256[] memory indices = raidParticipantIndices[raidIndex][msg.sender];\r\n        uint256[] memory weps = new uint256[](indices.length);\r\n        for(uint i = 0; i < indices.length; i++) {\r\n            weps[i] = raidParticipants[raidIndex][indices[i]].wepID;\r\n        }\r\n        return weps;\r\n    }\r\n\r\n    function getAccountsRaiderIndexes(uint256 index) public view returns(uint256[] memory){\r\n        return raidParticipantIndices[index][msg.sender];\r\n    }\r\n\r\n    function getAccountsPower(uint256 index) public view returns(uint256) {\r\n        uint256 totalAccountPower = 0;\r\n        uint256[] memory raiderIndexes = getAccountsRaiderIndexes(index);\r\n        for(uint256 i = 0; i < raiderIndexes.length; i++) {\r\n            totalAccountPower += raidParticipants[index][raiderIndexes[i]].power;\r\n        }\r\n        return totalAccountPower;\r\n    }\r\n\r\n    function canJoinRaid(uint256 characterID, uint256 weaponID) public view returns(bool) {\r\n        return isRaidStarted()\r\n            && haveEnoughEnergy(characterID, weaponID)\r\n            && !isCharacterRaiding(characterID)\r\n            && !isWeaponRaiding(weaponID);\r\n    }\r\n\r\n    function haveEnoughEnergy(uint256 characterID, uint256 weaponID) public view returns(bool) {\r\n        return characters.getStaminaPoints(characterID) > 0 && weapons.getDurabilityPoints(weaponID) > 0;\r\n    }\r\n\r\n    function isRaidStarted() public view returns(bool) {\r\n        return raidStatus[raidIndex] == STATUS_STARTED && raidEndTime[raidIndex] > now;\r\n    }\r\n\r\n    function isWeaponRaiding(uint256 weaponID) public view returns(bool) {\r\n        uint256[] memory raiderIndices = raidParticipantIndices[raidIndex][msg.sender];\r\n        for(uint i = 0; i < raiderIndices.length; i++) {\r\n            if(raidParticipants[raidIndex][raiderIndices[i]].wepID == weaponID) {\r\n                return true;\r\n            }\r\n        }\r\n\r\n        return false;\r\n    }\r\n\r\n    function isCharacterRaiding(uint256 characterID) public view returns(bool) {\r\n        uint256[] memory raiderIndices = raidParticipantIndices[raidIndex][msg.sender];\r\n        for(uint i = 0; i < raiderIndices.length; i++) {\r\n            if(raidParticipants[raidIndex][raiderIndices[i]].charID == characterID) {\r\n                return true;\r\n            }\r\n        }\r\n\r\n        return false;\r\n    }\r\n\r\n    function getLinkAddress(uint256 linkIndex) public view returns (address) {\r\n        return links[linkIndex];\r\n    }\r\n\r\n    function getRaidData() public view returns(\r\n        uint256 index, uint256 endTime, uint256 raiderCount, uint256 playerPower, uint256 bossPower,\r\n        uint8 trait, uint8 status, uint256 joinSkill, uint64 stamina, uint64 durability, uint64 xp, uint256 accountPower\r\n    ) {\r\n        index = raidIndex;\r\n        endTime = raidEndTime[raidIndex];\r\n        raiderCount = getRaidParticipantCount(raidIndex);\r\n        playerPower = getRaidPlayerPower(raidIndex);\r\n        bossPower = getRaidBossPower(raidIndex);\r\n        trait = getRaidBossTrait(raidIndex);\r\n        status = getRaidStatus(raidIndex);\r\n        joinSkill = getJoinCostInSkill();\r\n        stamina = staminaCost;\r\n        durability = durabilityCost;\r\n        xp = xpReward;\r\n        accountPower = getAccountsPower(raidIndex);\r\n    }\r\n}\r\n",
  "sourcePath": "K:\\\\cryptoblades1\\cryptoblades\\contracts\\raid1.sol",
  "compiler": {
    "name": "solc",
    "version": "0.6.5+commit.f956cc89.Emscripten.clang"
  },
  "schemaVersion": "3.4.5",
  "updatedAt": "2022-09-25T08:01:33.616Z",
  "networkType": "ethereum",
  "devdoc": {
    "methods": {
      "getRoleAdmin(bytes32)": {
        "details": "Returns the admin role that controls `role`. See {grantRole} and {revokeRole}.     * To change a role's admin, use {_setRoleAdmin}."
      },
      "getRoleMember(bytes32,uint256)": {
        "details": "Returns one of the accounts that have `role`. `index` must be a value between 0 and {getRoleMemberCount}, non-inclusive.     * Role bearers are not sorted in any particular way, and their ordering may change at any point.     * WARNING: When using {getRoleMember} and {getRoleMemberCount}, make sure you perform all queries on the same block. See the following https://forum.openzeppelin.com/t/iterating-over-elements-on-enumerableset-in-openzeppelin-contracts/2296[forum post] for more information."
      },
      "getRoleMemberCount(bytes32)": {
        "details": "Returns the number of accounts that have `role`. Can be used together with {getRoleMember} to enumerate all bearers of a role."
      },
      "grantRole(bytes32,address)": {
        "details": "Grants `role` to `account`.     * If `account` had not been already granted `role`, emits a {RoleGranted} event.     * Requirements:     * - the caller must have ``role``'s admin role."
      },
      "hasRole(bytes32,address)": {
        "details": "Returns `true` if `account` has been granted `role`."
      },
      "renounceRole(bytes32,address)": {
        "details": "Revokes `role` from the calling account.     * Roles are often managed via {grantRole} and {revokeRole}: this function's purpose is to provide a mechanism for accounts to lose their privileges if they are compromised (such as when a trusted device is misplaced).     * If the calling account had been granted `role`, emits a {RoleRevoked} event.     * Requirements:     * - the caller must be `account`."
      },
      "revokeRole(bytes32,address)": {
        "details": "Revokes `role` from `account`.     * If `account` had been granted `role`, emits a {RoleRevoked} event.     * Requirements:     * - the caller must have ``role``'s admin role."
      }
    }
  },
  "userdoc": {
    "methods": {}
  }
}