{
  "contractName": "ShieldBridgeProxyContract",
  "abi": [
    {
      "anonymous": false,
      "inputs": [
        {
          "indexed": true,
          "internalType": "bytes32",
          "name": "role",
          "type": "bytes32"
        },
        {
          "indexed": true,
          "internalType": "bytes32",
          "name": "previousAdminRole",
          "type": "bytes32"
        },
        {
          "indexed": true,
          "internalType": "bytes32",
          "name": "newAdminRole",
          "type": "bytes32"
        }
      ],
      "name": "RoleAdminChanged",
      "type": "event"
    },
    {
      "anonymous": false,
      "inputs": [
        {
          "indexed": true,
          "internalType": "bytes32",
          "name": "role",
          "type": "bytes32"
        },
        {
          "indexed": true,
          "internalType": "address",
          "name": "account",
          "type": "address"
        },
        {
          "indexed": true,
          "internalType": "address",
          "name": "sender",
          "type": "address"
        }
      ],
      "name": "RoleGranted",
      "type": "event"
    },
    {
      "anonymous": false,
      "inputs": [
        {
          "indexed": true,
          "internalType": "bytes32",
          "name": "role",
          "type": "bytes32"
        },
        {
          "indexed": true,
          "internalType": "address",
          "name": "account",
          "type": "address"
        },
        {
          "indexed": true,
          "internalType": "address",
          "name": "sender",
          "type": "address"
        }
      ],
      "name": "RoleRevoked",
      "type": "event"
    },
    {
      "inputs": [],
      "name": "DEFAULT_ADMIN_ROLE",
      "outputs": [
        {
          "internalType": "bytes32",
          "name": "",
          "type": "bytes32"
        }
      ],
      "stateMutability": "view",
      "type": "function",
      "constant": true
    },
    {
      "inputs": [],
      "name": "GAME_ADMIN",
      "outputs": [
        {
          "internalType": "bytes32",
          "name": "",
          "type": "bytes32"
        }
      ],
      "stateMutability": "view",
      "type": "function",
      "constant": true
    },
    {
      "inputs": [],
      "name": "UINT_NFT_VAR_META",
      "outputs": [
        {
          "internalType": "uint8",
          "name": "",
          "type": "uint8"
        }
      ],
      "stateMutability": "view",
      "type": "function",
      "constant": true
    },
    {
      "inputs": [],
      "name": "UINT_NFT_VAR_SEED3DCOSMETIC",
      "outputs": [
        {
          "internalType": "uint8",
          "name": "",
          "type": "uint8"
        }
      ],
      "stateMutability": "view",
      "type": "function",
      "constant": true
    },
    {
      "inputs": [
        {
          "internalType": "bytes32",
          "name": "role",
          "type": "bytes32"
        }
      ],
      "name": "getRoleAdmin",
      "outputs": [
        {
          "internalType": "bytes32",
          "name": "",
          "type": "bytes32"
        }
      ],
      "stateMutability": "view",
      "type": "function",
      "constant": true
    },
    {
      "inputs": [
        {
          "internalType": "bytes32",
          "name": "role",
          "type": "bytes32"
        },
        {
          "internalType": "uint256",
          "name": "index",
          "type": "uint256"
        }
      ],
      "name": "getRoleMember",
      "outputs": [
        {
          "internalType": "address",
          "name": "",
          "type": "address"
        }
      ],
      "stateMutability": "view",
      "type": "function",
      "constant": true
    },
    {
      "inputs": [
        {
          "internalType": "bytes32",
          "name": "role",
          "type": "bytes32"
        }
      ],
      "name": "getRoleMemberCount",
      "outputs": [
        {
          "internalType": "uint256",
          "name": "",
          "type": "uint256"
        }
      ],
      "stateMutability": "view",
      "type": "function",
      "constant": true
    },
    {
      "inputs": [
        {
          "internalType": "bytes32",
          "name": "role",
          "type": "bytes32"
        },
        {
          "internalType": "address",
          "name": "account",
          "type": "address"
        }
      ],
      "name": "grantRole",
      "outputs": [],
      "stateMutability": "nonpayable",
      "type": "function"
    },
    {
      "inputs": [
        {
          "internalType": "bytes32",
          "name": "role",
          "type": "bytes32"
        },
        {
          "internalType": "address",
          "name": "account",
          "type": "address"
        }
      ],
      "name": "hasRole",
      "outputs": [
        {
          "internalType": "bool",
          "name": "",
          "type": "bool"
        }
      ],
      "stateMutability": "view",
      "type": "function",
      "constant": true
    },
    {
      "inputs": [
        {
          "internalType": "bytes32",
          "name": "role",
          "type": "bytes32"
        },
        {
          "internalType": "address",
          "name": "account",
          "type": "address"
        }
      ],
      "name": "renounceRole",
      "outputs": [],
      "stateMutability": "nonpayable",
      "type": "function"
    },
    {
      "inputs": [
        {
          "internalType": "bytes32",
          "name": "role",
          "type": "bytes32"
        },
        {
          "internalType": "address",
          "name": "account",
          "type": "address"
        }
      ],
      "name": "revokeRole",
      "outputs": [],
      "stateMutability": "nonpayable",
      "type": "function"
    },
    {
      "inputs": [
        {
          "internalType": "address",
          "name": "_nftStorageAddress",
          "type": "address"
        },
        {
          "internalType": "address",
          "name": "_shields",
          "type": "address"
        }
      ],
      "name": "initialize",
      "outputs": [],
      "stateMutability": "nonpayable",
      "type": "function"
    },
    {
      "inputs": [
        {
          "internalType": "uint256",
          "name": "tokenId",
          "type": "uint256"
        }
      ],
      "name": "collectData",
      "outputs": [
        {
          "internalType": "uint256[]",
          "name": "uintVars",
          "type": "uint256[]"
        },
        {
          "internalType": "string",
          "name": "stringVar",
          "type": "string"
        }
      ],
      "stateMutability": "view",
      "type": "function",
      "constant": true
    },
    {
      "inputs": [],
      "name": "sigVersion",
      "outputs": [
        {
          "internalType": "uint256",
          "name": "",
          "type": "uint256"
        }
      ],
      "stateMutability": "view",
      "type": "function",
      "constant": true
    },
    {
      "inputs": [],
      "name": "isEnabled",
      "outputs": [
        {
          "internalType": "bool",
          "name": "",
          "type": "bool"
        }
      ],
      "stateMutability": "view",
      "type": "function",
      "constant": true
    },
    {
      "inputs": [
        {
          "internalType": "bool",
          "name": "_enabled",
          "type": "bool"
        }
      ],
      "name": "setEnabled",
      "outputs": [],
      "stateMutability": "nonpayable",
      "type": "function"
    },
    {
      "inputs": [
        {
          "internalType": "uint256",
          "name": "tokenId",
          "type": "uint256"
        },
        {
          "internalType": "uint256[]",
          "name": "uintVars",
          "type": "uint256[]"
        },
        {
          "internalType": "string",
          "name": "stringVar",
          "type": "string"
        }
      ],
      "name": "mintOrUpdate",
      "outputs": [
        {
          "internalType": "uint256",
          "name": "",
          "type": "uint256"
        }
      ],
      "stateMutability": "nonpayable",
      "type": "function"
    },
    {
      "inputs": [
        {
          "internalType": "uint32",
          "name": "appliedCosmetic",
          "type": "uint32"
        },
        {
          "internalType": "uint16",
          "name": "properties",
          "type": "uint16"
        },
        {
          "internalType": "uint16",
          "name": "stat1",
          "type": "uint16"
        },
        {
          "internalType": "uint16",
          "name": "stat2",
          "type": "uint16"
        },
        {
          "internalType": "uint16",
          "name": "stat3",
          "type": "uint16"
        },
        {
          "internalType": "uint8",
          "name": "shieldType",
          "type": "uint8"
        }
      ],
      "name": "_packShieldsData",
      "outputs": [
        {
          "internalType": "uint256",
          "name": "",
          "type": "uint256"
        }
      ],
      "stateMutability": "pure",
      "type": "function",
      "constant": true
    }
  ],
  "bytecode": "0x608060405234801561001057600080fd5b50611132806100206000396000f3fe608060405234801561001057600080fd5b50600436106101165760003560e01c80636aa633b6116100a2578063a71ba79511610071578063a71ba79514610388578063ca15c873146103d9578063cf17d1b4146103f6578063d547741f146103fe578063f95194071461042a57610116565b80636aa633b6146102f95780639010d07c1461031557806391d1485414610354578063a217fddf1461038057610116565b8063328d8f72116100e9578063328d8f721461027057806336568abe1461028f5780634594fac4146102bb578063485cc955146102c35780635504d3d2146102f157610116565b8063135701f71461011b57806319dd746a14610139578063248a9ca3146102135780632f2ff15d14610242575b600080fd5b6101236104f3565b6040805160ff9092168252519081900360200190f35b6101566004803603602081101561014f57600080fd5b50356104f8565b604051808060200180602001838103835285818151815260200191508051906020019060200280838360005b8381101561019a578181015183820152602001610182565b50505050905001838103825284818151815260200191508051906020019080838360005b838110156101d65781810151838201526020016101be565b50505050905090810190601f1680156102035780820380516001836020036101000a031916815260200191505b5094505050505060405180910390f35b6102306004803603602081101561022957600080fd5b5035610716565b60408051918252519081900360200190f35b61026e6004803603604081101561025857600080fd5b50803590602001356001600160a01b031661072b565b005b61026e6004803603602081101561028657600080fd5b50351515610797565b61026e600480360360408110156102a557600080fd5b50803590602001356001600160a01b03166107bd565b61023061081e565b61026e600480360360408110156102d957600080fd5b506001600160a01b0381358116916020013516610823565b61023061090a565b61030161092c565b604080519115158252519081900360200190f35b6103386004803603604081101561032b57600080fd5b508035906020013561093c565b604080516001600160a01b039092168252519081900360200190f35b6103016004803603604081101561036a57600080fd5b50803590602001356001600160a01b0316610963565b6102306104f3565b610230600480360360c081101561039e57600080fd5b50803563ffffffff1690602081013561ffff908116916040810135821691606082013581169160808101359091169060a0013560ff16610981565b610230600480360360208110156103ef57600080fd5b50356109da565b6101236109f1565b61026e6004803603604081101561041457600080fd5b50803590602001356001600160a01b03166109f6565b6102306004803603606081101561044057600080fd5b8135919081019060408101602082013564010000000081111561046257600080fd5b82018360208201111561047457600080fd5b8035906020019184602083028401116401000000008311171561049657600080fd5b9193909290916020810190356401000000008111156104b457600080fd5b8201836020820111156104c657600080fd5b803590602001918460018302840111640100000000831117156104e857600080fd5b509092509050610a4f565b600081565b606080600080600080606560009054906101000a90046001600160a01b03166001600160a01b0316639507d39a886040518263ffffffff1660e01b81526004018082815260200191505060806040518083038186803b15801561055a57600080fd5b505afa15801561056e573d6000803e3d6000fd5b505050506040513d608081101561058457600080fd5b508051602080830151604080850151606090950151606554825163783efb2560e01b8152600481018f9052600260248201529251959a509298509496509394506000936001600160a01b039091169263783efb2592604480840193919291829003018186803b1580156105f657600080fd5b505afa15801561060a573d6000803e3d6000fd5b505050506040513d602081101561062057600080fd5b50516065546040805163098ad60560e21b8152600481018c905290519293506000926001600160a01b039092169163262b581491602480820192602092909190829003018186803b15801561067457600080fd5b505afa158015610688573d6000803e3d6000fd5b505050506040513d602081101561069e57600080fd5b505160408051600280825260608201835292935091906020830190803683370190505097506106d260008787878787610981565b88600060ff16815181106106e257fe5b6020026020010181815250508088600160ff16815181106106ff57fe5b602002602001018181525050505050505050915091565b60009081526033602052604090206002015490565b60008281526033602052604090206002015461074e90610749610b7b565b610963565b6107895760405162461bcd60e51b815260040180806020018281038252602f815260200180611041602f913960400191505060405180910390fd5b6107938282610b7f565b5050565b61079f610bee565b60668054911515600160a01b0260ff60a01b19909216919091179055565b6107c5610b7b565b6001600160a01b0316816001600160a01b0316146108145760405162461bcd60e51b815260040180806020018281038252602f8152602001806110ce602f913960400191505060405180910390fd5b6107938282610c60565b600190565b600054610100900460ff168061083c575061083c610ccf565b8061084a575060005460ff16155b6108855760405162461bcd60e51b815260040180806020018281038252602e8152602001806110a0602e913960400191505060405180910390fd5b600054610100900460ff161580156108b0576000805460ff1961ff0019909116610100171660011790555b6108b8610ce0565b6108c3600033610789565b606680546001600160a01b038086166001600160a01b03199283161790925560658054928516929091169190911790558015610905576000805461ff00191690555b505050565b604080516923a0a6a2afa0a226a4a760b11b8152905190819003600a01902081565b606654600160a01b900460ff1690565b600082815260336020526040812061095a908363ffffffff610d9216565b90505b92915050565b600082815260336020526040812061095a908363ffffffff610d9e16565b60ff811663ffff0000601084901b161765ffff00000000602085901b161767ffff000000000000603086901b161769ffff0000000000000000604087901b161763ffffffff60501b605088901b16179695505050505050565b600081815260336020526040812061095d90610db3565b600181565b600082815260336020526040902060020154610a1490610749610b7b565b6108145760405162461bcd60e51b81526004018080602001828103825260308152602001806110706030913960400191505060405180910390fd5b6000610a59610bee565b606654600160a01b900460ff16610aa5576040805162461bcd60e51b815260206004820152600b60248201526a1b9bdd08195b98589b195960aa1b604482015290519081900360640190fd5b6065546066546001600160a01b03918216916348b1b41c91168787600081610ac957fe5b905060200201358888600160ff16818110610ae057fe5b905060200201358a6040518563ffffffff1660e01b815260040180856001600160a01b03166001600160a01b03168152602001848152602001838152602001828152602001945050505050602060405180830381600087803b158015610b4557600080fd5b505af1158015610b59573d6000803e3d6000fd5b505050506040513d6020811015610b6f57600080fd5b50519695505050505050565b3390565b6000828152603360205260409020610b9d908263ffffffff610dbe16565b1561079357610baa610b7b565b6001600160a01b0316816001600160a01b0316837f2f8788117e7eff1d82e926ec794901d17c78024a50270940304540a733656f0d60405160405180910390a45050565b604080516923a0a6a2afa0a226a4a760b11b8152905190819003600a019020610c179033610963565b80610c285750610c28600033610963565b610c5e576040805162461bcd60e51b81526020600482015260026024820152614e4160f01b604482015290519081900360640190fd5b565b6000828152603360205260409020610c7e908263ffffffff610dd316565b1561079357610c8b610b7b565b6001600160a01b0316816001600160a01b0316837ff6391f5c32d9c69d2a47ea670b442974b53935d1edc7fd64eb21e047a839171b60405160405180910390a45050565b6000610cda30610de8565b15905090565b600054610100900460ff1680610cf95750610cf9610ccf565b80610d07575060005460ff16155b610d425760405162461bcd60e51b815260040180806020018281038252602e8152602001806110a0602e913960400191505060405180910390fd5b600054610100900460ff16158015610d6d576000805460ff1961ff0019909116610100171660011790555b610d75610dee565b610d7d610dee565b8015610d8f576000805461ff00191690555b50565b600061095a8383610e8e565b600061095a836001600160a01b038416610ef2565b600061095d82610f0a565b600061095a836001600160a01b038416610f0e565b600061095a836001600160a01b038416610f58565b3b151590565b600054610100900460ff1680610e075750610e07610ccf565b80610e15575060005460ff16155b610e505760405162461bcd60e51b815260040180806020018281038252602e8152602001806110a0602e913960400191505060405180910390fd5b600054610100900460ff16158015610d7d576000805460ff1961ff0019909116610100171660011790558015610d8f576000805461ff001916905550565b81546000908210610ed05760405162461bcd60e51b815260040180806020018281038252602281526020018061101f6022913960400191505060405180910390fd5b826000018281548110610edf57fe5b9060005260206000200154905092915050565b60009081526001919091016020526040902054151590565b5490565b6000610f1a8383610ef2565b610f505750815460018181018455600084815260208082209093018490558454848252828601909352604090209190915561095d565b50600061095d565b600081815260018301602052604081205480156110145783546000198083019190810190600090879083908110610f8b57fe5b9060005260206000200154905080876000018481548110610fa857fe5b600091825260208083209091019290925582815260018981019092526040902090840190558654879080610fd857fe5b6001900381819060005260206000200160009055905586600101600087815260200190815260200160002060009055600194505050505061095d565b600091505061095d56fe456e756d657261626c655365743a20696e646578206f7574206f6620626f756e6473416363657373436f6e74726f6c3a2073656e646572206d75737420626520616e2061646d696e20746f206772616e74416363657373436f6e74726f6c3a2073656e646572206d75737420626520616e2061646d696e20746f207265766f6b65496e697469616c697a61626c653a20636f6e747261637420697320616c726561647920696e697469616c697a6564416363657373436f6e74726f6c3a2063616e206f6e6c792072656e6f756e636520726f6c657320666f722073656c66a264697066735822122014dd51a319dadeb23bb090177da4c6b479dfc620b48e905f7ffad13c8a79291a64736f6c63430006050033",
  "immutableReferences": {},
  "source": "pragma solidity ^0.6.0;\r\n\r\nimport \"@openzeppelin/contracts-upgradeable/proxy/Initializable.sol\";\r\nimport \"@openzeppelin/contracts-upgradeable/access/AccessControlUpgradeable.sol\";\r\nimport \"./shields.sol\";\r\nimport \"./interfaces/IBridgeProxy.sol\";\r\n\r\n\r\ncontract ShieldBridgeProxyContract is Initializable, AccessControlUpgradeable, IBridgeProxy {\r\n  \r\n    bytes32 public constant GAME_ADMIN = keccak256(\"GAME_ADMIN\");\r\n\r\n    Shields shields;\r\n    address nftStorageAddress;\r\n    bool enabled;\r\n\r\n    uint8 public constant UINT_NFT_VAR_META = 0;\r\n    uint8 public constant UINT_NFT_VAR_SEED3DCOSMETIC = 1;\r\n\r\n    modifier restricted() {\r\n        _restricted();\r\n        _;\r\n    }\r\n\r\n    function _restricted() internal view {\r\n        require(hasRole(GAME_ADMIN, msg.sender) || hasRole(DEFAULT_ADMIN_ROLE, msg.sender), \"NA\");\r\n    }\r\n\r\n    function initialize(address _nftStorageAddress, address _shields) public initializer {\r\n        __AccessControl_init();\r\n\r\n        _setupRole(DEFAULT_ADMIN_ROLE, msg.sender);\r\n\r\n        nftStorageAddress = _nftStorageAddress;\r\n        shields = Shields(_shields);\r\n    }\r\n\r\n \r\n    function collectData(uint256 tokenId) external view override returns (uint256[] memory uintVars, string memory stringVar) {\r\n        \r\n        (uint16 _properties, uint16 _stat1, uint16 _stat2, uint16 _stat3) = shields.get(tokenId);\r\n        uint8 _type = uint8(shields.getNftVar(tokenId, 2)); // 2 => shield type\r\n        uint256 seed3dCosmetics = shields.getCosmeticsSeed(tokenId);\r\n\r\n        uintVars = new uint256[](2);\r\n        uintVars[UINT_NFT_VAR_META] = _packShieldsData(0, _properties, _stat1, _stat2, _stat3, _type);\r\n        uintVars[UINT_NFT_VAR_SEED3DCOSMETIC] = seed3dCosmetics;\r\n    }\r\n\r\n    // for future use, bot will probe the returned value to know if the proxy contract has proper signature behavior\r\n    function sigVersion() external view override returns (uint256) {\r\n        return 1;\r\n    }\r\n\r\n    function isEnabled() external view override returns (bool) {\r\n        return enabled;\r\n    }\r\n\r\n    function setEnabled(bool _enabled) external restricted {\r\n        enabled = _enabled;\r\n    }\r\n\r\n    function mintOrUpdate(uint256 tokenId, uint256[] calldata uintVars, string calldata stringVar) external restricted override returns (uint256) {\r\n        require(enabled, \"not enabled\");\r\n\r\n         tokenId = \r\n            shields.performMintShieldDetailed(nftStorageAddress, uintVars[UINT_NFT_VAR_META], uintVars[UINT_NFT_VAR_SEED3DCOSMETIC], tokenId);\r\n\r\n        return tokenId;\r\n    }\r\n\r\n    function _packShieldsData(uint32 appliedCosmetic, uint16 properties, uint16 stat1, uint16 stat2, uint16 stat3, uint8 shieldType) public pure returns (uint256) {\r\n        return  uint256(uint256(shieldType) | uint256(stat3) << 16| (uint256(stat2) << 32) | (uint256(stat1) << 48) | (uint256(properties) << 64) | (uint256(appliedCosmetic) << 80));\r\n    }\r\n}\r\n",
  "sourcePath": "K:\\\\cryptoblades1\\cryptoblades\\contracts\\ShieldBridgeProxyContract.sol",
  "compiler": {
    "name": "solc",
    "version": "0.6.5+commit.f956cc89.Emscripten.clang"
  },
  "schemaVersion": "3.4.5",
  "updatedAt": "2022-09-25T08:06:25.544Z",
  "networkType": "ethereum",
  "devdoc": {
    "methods": {
      "getRoleAdmin(bytes32)": {
        "details": "Returns the admin role that controls `role`. See {grantRole} and {revokeRole}.     * To change a role's admin, use {_setRoleAdmin}."
      },
      "getRoleMember(bytes32,uint256)": {
        "details": "Returns one of the accounts that have `role`. `index` must be a value between 0 and {getRoleMemberCount}, non-inclusive.     * Role bearers are not sorted in any particular way, and their ordering may change at any point.     * WARNING: When using {getRoleMember} and {getRoleMemberCount}, make sure you perform all queries on the same block. See the following https://forum.openzeppelin.com/t/iterating-over-elements-on-enumerableset-in-openzeppelin-contracts/2296[forum post] for more information."
      },
      "getRoleMemberCount(bytes32)": {
        "details": "Returns the number of accounts that have `role`. Can be used together with {getRoleMember} to enumerate all bearers of a role."
      },
      "grantRole(bytes32,address)": {
        "details": "Grants `role` to `account`.     * If `account` had not been already granted `role`, emits a {RoleGranted} event.     * Requirements:     * - the caller must have ``role``'s admin role."
      },
      "hasRole(bytes32,address)": {
        "details": "Returns `true` if `account` has been granted `role`."
      },
      "renounceRole(bytes32,address)": {
        "details": "Revokes `role` from the calling account.     * Roles are often managed via {grantRole} and {revokeRole}: this function's purpose is to provide a mechanism for accounts to lose their privileges if they are compromised (such as when a trusted device is misplaced).     * If the calling account had been granted `role`, emits a {RoleRevoked} event.     * Requirements:     * - the caller must be `account`."
      },
      "revokeRole(bytes32,address)": {
        "details": "Revokes `role` from `account`.     * If `account` had been granted `role`, emits a {RoleRevoked} event.     * Requirements:     * - the caller must have ``role``'s admin role."
      }
    }
  },
  "userdoc": {
    "methods": {}
  }
}