{
  "contractName": "SpecialWeaponsManager",
  "abi": [
    {
      "anonymous": false,
      "inputs": [
        {
          "indexed": true,
          "internalType": "bytes32",
          "name": "role",
          "type": "bytes32"
        },
        {
          "indexed": true,
          "internalType": "bytes32",
          "name": "previousAdminRole",
          "type": "bytes32"
        },
        {
          "indexed": true,
          "internalType": "bytes32",
          "name": "newAdminRole",
          "type": "bytes32"
        }
      ],
      "name": "RoleAdminChanged",
      "type": "event"
    },
    {
      "anonymous": false,
      "inputs": [
        {
          "indexed": true,
          "internalType": "bytes32",
          "name": "role",
          "type": "bytes32"
        },
        {
          "indexed": true,
          "internalType": "address",
          "name": "account",
          "type": "address"
        },
        {
          "indexed": true,
          "internalType": "address",
          "name": "sender",
          "type": "address"
        }
      ],
      "name": "RoleGranted",
      "type": "event"
    },
    {
      "anonymous": false,
      "inputs": [
        {
          "indexed": true,
          "internalType": "bytes32",
          "name": "role",
          "type": "bytes32"
        },
        {
          "indexed": true,
          "internalType": "address",
          "name": "account",
          "type": "address"
        },
        {
          "indexed": true,
          "internalType": "address",
          "name": "sender",
          "type": "address"
        }
      ],
      "name": "RoleRevoked",
      "type": "event"
    },
    {
      "inputs": [],
      "name": "DEFAULT_ADMIN_ROLE",
      "outputs": [
        {
          "internalType": "bytes32",
          "name": "",
          "type": "bytes32"
        }
      ],
      "stateMutability": "view",
      "type": "function",
      "constant": true
    },
    {
      "inputs": [],
      "name": "GAME_ADMIN",
      "outputs": [
        {
          "internalType": "bytes32",
          "name": "",
          "type": "bytes32"
        }
      ],
      "stateMutability": "view",
      "type": "function",
      "constant": true
    },
    {
      "inputs": [],
      "name": "MINTER_ROLE",
      "outputs": [
        {
          "internalType": "bytes32",
          "name": "",
          "type": "bytes32"
        }
      ],
      "stateMutability": "view",
      "type": "function",
      "constant": true
    },
    {
      "inputs": [],
      "name": "SPECIAL_WEAPON_SEED",
      "outputs": [
        {
          "internalType": "bytes32",
          "name": "",
          "type": "bytes32"
        }
      ],
      "stateMutability": "view",
      "type": "function",
      "constant": true
    },
    {
      "inputs": [],
      "name": "VAR_CONVERT_RATIO_DENOMINATOR",
      "outputs": [
        {
          "internalType": "uint256",
          "name": "",
          "type": "uint256"
        }
      ],
      "stateMutability": "view",
      "type": "function",
      "constant": true
    },
    {
      "inputs": [],
      "name": "VAR_DAILY_SHARDS_PER_SKILL_STAKED",
      "outputs": [
        {
          "internalType": "uint256",
          "name": "",
          "type": "uint256"
        }
      ],
      "stateMutability": "view",
      "type": "function",
      "constant": true
    },
    {
      "inputs": [],
      "name": "VAR_SHARD_COST_HIGH",
      "outputs": [
        {
          "internalType": "uint256",
          "name": "",
          "type": "uint256"
        }
      ],
      "stateMutability": "view",
      "type": "function",
      "constant": true
    },
    {
      "inputs": [],
      "name": "VAR_SHARD_COST_LOW",
      "outputs": [
        {
          "internalType": "uint256",
          "name": "",
          "type": "uint256"
        }
      ],
      "stateMutability": "view",
      "type": "function",
      "constant": true
    },
    {
      "inputs": [],
      "name": "VAR_SHARD_COST_MEDIUM",
      "outputs": [
        {
          "internalType": "uint256",
          "name": "",
          "type": "uint256"
        }
      ],
      "stateMutability": "view",
      "type": "function",
      "constant": true
    },
    {
      "inputs": [],
      "name": "VAR_SKILL_USD_COST_HIGH",
      "outputs": [
        {
          "internalType": "uint256",
          "name": "",
          "type": "uint256"
        }
      ],
      "stateMutability": "view",
      "type": "function",
      "constant": true
    },
    {
      "inputs": [],
      "name": "VAR_SKILL_USD_COST_LOW",
      "outputs": [
        {
          "internalType": "uint256",
          "name": "",
          "type": "uint256"
        }
      ],
      "stateMutability": "view",
      "type": "function",
      "constant": true
    },
    {
      "inputs": [],
      "name": "VAR_SKILL_USD_COST_MEDIUM",
      "outputs": [
        {
          "internalType": "uint256",
          "name": "",
          "type": "uint256"
        }
      ],
      "stateMutability": "view",
      "type": "function",
      "constant": true
    },
    {
      "inputs": [],
      "name": "eventCount",
      "outputs": [
        {
          "internalType": "uint256",
          "name": "",
          "type": "uint256"
        }
      ],
      "stateMutability": "view",
      "type": "function",
      "constant": true
    },
    {
      "inputs": [
        {
          "internalType": "uint256",
          "name": "",
          "type": "uint256"
        }
      ],
      "name": "eventInfo",
      "outputs": [
        {
          "internalType": "string",
          "name": "name",
          "type": "string"
        },
        {
          "internalType": "uint8",
          "name": "weaponElement",
          "type": "uint8"
        },
        {
          "internalType": "uint256",
          "name": "endTime",
          "type": "uint256"
        },
        {
          "internalType": "uint256",
          "name": "supply",
          "type": "uint256"
        },
        {
          "internalType": "uint256",
          "name": "orderedCount",
          "type": "uint256"
        }
      ],
      "stateMutability": "view",
      "type": "function",
      "constant": true
    },
    {
      "inputs": [],
      "name": "game",
      "outputs": [
        {
          "internalType": "contract CryptoBlades",
          "name": "",
          "type": "address"
        }
      ],
      "stateMutability": "view",
      "type": "function",
      "constant": true
    },
    {
      "inputs": [
        {
          "internalType": "bytes32",
          "name": "role",
          "type": "bytes32"
        }
      ],
      "name": "getRoleAdmin",
      "outputs": [
        {
          "internalType": "bytes32",
          "name": "",
          "type": "bytes32"
        }
      ],
      "stateMutability": "view",
      "type": "function",
      "constant": true
    },
    {
      "inputs": [
        {
          "internalType": "bytes32",
          "name": "role",
          "type": "bytes32"
        },
        {
          "internalType": "uint256",
          "name": "index",
          "type": "uint256"
        }
      ],
      "name": "getRoleMember",
      "outputs": [
        {
          "internalType": "address",
          "name": "",
          "type": "address"
        }
      ],
      "stateMutability": "view",
      "type": "function",
      "constant": true
    },
    {
      "inputs": [
        {
          "internalType": "bytes32",
          "name": "role",
          "type": "bytes32"
        }
      ],
      "name": "getRoleMemberCount",
      "outputs": [
        {
          "internalType": "uint256",
          "name": "",
          "type": "uint256"
        }
      ],
      "stateMutability": "view",
      "type": "function",
      "constant": true
    },
    {
      "inputs": [
        {
          "internalType": "bytes32",
          "name": "role",
          "type": "bytes32"
        },
        {
          "internalType": "address",
          "name": "account",
          "type": "address"
        }
      ],
      "name": "grantRole",
      "outputs": [],
      "stateMutability": "nonpayable",
      "type": "function"
    },
    {
      "inputs": [
        {
          "internalType": "bytes32",
          "name": "role",
          "type": "bytes32"
        },
        {
          "internalType": "address",
          "name": "account",
          "type": "address"
        }
      ],
      "name": "hasRole",
      "outputs": [
        {
          "internalType": "bool",
          "name": "",
          "type": "bool"
        }
      ],
      "stateMutability": "view",
      "type": "function",
      "constant": true
    },
    {
      "inputs": [],
      "name": "priceOracleSkillPerUsd",
      "outputs": [
        {
          "internalType": "contract IPriceOracle",
          "name": "",
          "type": "address"
        }
      ],
      "stateMutability": "view",
      "type": "function",
      "constant": true
    },
    {
      "inputs": [],
      "name": "promos",
      "outputs": [
        {
          "internalType": "contract Promos",
          "name": "",
          "type": "address"
        }
      ],
      "stateMutability": "view",
      "type": "function",
      "constant": true
    },
    {
      "inputs": [
        {
          "internalType": "bytes32",
          "name": "role",
          "type": "bytes32"
        },
        {
          "internalType": "address",
          "name": "account",
          "type": "address"
        }
      ],
      "name": "renounceRole",
      "outputs": [],
      "stateMutability": "nonpayable",
      "type": "function"
    },
    {
      "inputs": [
        {
          "internalType": "bytes32",
          "name": "role",
          "type": "bytes32"
        },
        {
          "internalType": "address",
          "name": "account",
          "type": "address"
        }
      ],
      "name": "revokeRole",
      "outputs": [],
      "stateMutability": "nonpayable",
      "type": "function"
    },
    {
      "inputs": [],
      "name": "safeRandoms",
      "outputs": [
        {
          "internalType": "contract SafeRandoms",
          "name": "",
          "type": "address"
        }
      ],
      "stateMutability": "view",
      "type": "function",
      "constant": true
    },
    {
      "inputs": [
        {
          "internalType": "uint256",
          "name": "",
          "type": "uint256"
        }
      ],
      "name": "specialWeaponArt",
      "outputs": [
        {
          "internalType": "string",
          "name": "",
          "type": "string"
        }
      ],
      "stateMutability": "view",
      "type": "function",
      "constant": true
    },
    {
      "inputs": [
        {
          "internalType": "uint256",
          "name": "",
          "type": "uint256"
        }
      ],
      "name": "specialWeaponDetails",
      "outputs": [
        {
          "internalType": "string",
          "name": "",
          "type": "string"
        }
      ],
      "stateMutability": "view",
      "type": "function",
      "constant": true
    },
    {
      "inputs": [
        {
          "internalType": "uint256",
          "name": "",
          "type": "uint256"
        }
      ],
      "name": "specialWeaponNote",
      "outputs": [
        {
          "internalType": "string",
          "name": "",
          "type": "string"
        }
      ],
      "stateMutability": "view",
      "type": "function",
      "constant": true
    },
    {
      "inputs": [
        {
          "internalType": "uint256",
          "name": "",
          "type": "uint256"
        }
      ],
      "name": "specialWeaponWebsite",
      "outputs": [
        {
          "internalType": "string",
          "name": "",
          "type": "string"
        }
      ],
      "stateMutability": "view",
      "type": "function",
      "constant": true
    },
    {
      "inputs": [
        {
          "internalType": "address",
          "name": "",
          "type": "address"
        },
        {
          "internalType": "uint256",
          "name": "",
          "type": "uint256"
        }
      ],
      "name": "userEventShardSupply",
      "outputs": [
        {
          "internalType": "uint256",
          "name": "",
          "type": "uint256"
        }
      ],
      "stateMutability": "view",
      "type": "function",
      "constant": true
    },
    {
      "inputs": [
        {
          "internalType": "address",
          "name": "",
          "type": "address"
        },
        {
          "internalType": "uint256",
          "name": "",
          "type": "uint256"
        }
      ],
      "name": "userForgedAtEvent",
      "outputs": [
        {
          "internalType": "bool",
          "name": "",
          "type": "bool"
        }
      ],
      "stateMutability": "view",
      "type": "function",
      "constant": true
    },
    {
      "inputs": [
        {
          "internalType": "address",
          "name": "",
          "type": "address"
        },
        {
          "internalType": "uint256",
          "name": "",
          "type": "uint256"
        }
      ],
      "name": "userOrderOptionForEvent",
      "outputs": [
        {
          "internalType": "uint256",
          "name": "",
          "type": "uint256"
        }
      ],
      "stateMutability": "view",
      "type": "function",
      "constant": true
    },
    {
      "inputs": [
        {
          "internalType": "uint256",
          "name": "",
          "type": "uint256"
        }
      ],
      "name": "vars",
      "outputs": [
        {
          "internalType": "uint256",
          "name": "",
          "type": "uint256"
        }
      ],
      "stateMutability": "view",
      "type": "function",
      "constant": true
    },
    {
      "inputs": [],
      "name": "weapons",
      "outputs": [
        {
          "internalType": "contract Weapons",
          "name": "",
          "type": "address"
        }
      ],
      "stateMutability": "view",
      "type": "function",
      "constant": true
    },
    {
      "inputs": [
        {
          "internalType": "contract Promos",
          "name": "_promos",
          "type": "address"
        },
        {
          "internalType": "contract Weapons",
          "name": "_weapons",
          "type": "address"
        },
        {
          "internalType": "contract SafeRandoms",
          "name": "_safeRandoms",
          "type": "address"
        },
        {
          "internalType": "contract CryptoBlades",
          "name": "_game",
          "type": "address"
        },
        {
          "internalType": "contract IPriceOracle",
          "name": "_priceOracleSkillPerUsd",
          "type": "address"
        }
      ],
      "name": "initialize",
      "outputs": [],
      "stateMutability": "nonpayable",
      "type": "function"
    },
    {
      "inputs": [
        {
          "internalType": "uint256",
          "name": "varField",
          "type": "uint256"
        },
        {
          "internalType": "uint256",
          "name": "value",
          "type": "uint256"
        }
      ],
      "name": "setVar",
      "outputs": [],
      "stateMutability": "nonpayable",
      "type": "function"
    },
    {
      "inputs": [
        {
          "internalType": "uint256[]",
          "name": "varFields",
          "type": "uint256[]"
        },
        {
          "internalType": "uint256[]",
          "name": "values",
          "type": "uint256[]"
        }
      ],
      "name": "setVars",
      "outputs": [],
      "stateMutability": "nonpayable",
      "type": "function"
    },
    {
      "inputs": [],
      "name": "getActiveEventsIds",
      "outputs": [
        {
          "internalType": "uint256[]",
          "name": "",
          "type": "uint256[]"
        }
      ],
      "stateMutability": "view",
      "type": "function",
      "constant": true
    },
    {
      "inputs": [],
      "name": "getActiveEventsCount",
      "outputs": [
        {
          "internalType": "uint256",
          "name": "activeEventsCount",
          "type": "uint256"
        }
      ],
      "stateMutability": "view",
      "type": "function",
      "constant": true
    },
    {
      "inputs": [
        {
          "internalType": "uint256",
          "name": "eventId",
          "type": "uint256"
        }
      ],
      "name": "getIsEventActive",
      "outputs": [
        {
          "internalType": "bool",
          "name": "",
          "type": "bool"
        }
      ],
      "stateMutability": "view",
      "type": "function",
      "constant": true
    },
    {
      "inputs": [
        {
          "internalType": "uint256",
          "name": "eventId",
          "type": "uint256"
        }
      ],
      "name": "hasRemainingSupply",
      "outputs": [
        {
          "internalType": "bool",
          "name": "",
          "type": "bool"
        }
      ],
      "stateMutability": "view",
      "type": "function",
      "constant": true
    },
    {
      "inputs": [
        {
          "internalType": "uint256",
          "name": "eventId",
          "type": "uint256"
        }
      ],
      "name": "getTotalOrderedCount",
      "outputs": [
        {
          "internalType": "uint256",
          "name": "",
          "type": "uint256"
        }
      ],
      "stateMutability": "view",
      "type": "function",
      "constant": true
    },
    {
      "inputs": [
        {
          "internalType": "uint256",
          "name": "eventId",
          "type": "uint256"
        }
      ],
      "name": "getEventInfo",
      "outputs": [
        {
          "internalType": "string",
          "name": "",
          "type": "string"
        },
        {
          "internalType": "uint8",
          "name": "",
          "type": "uint8"
        },
        {
          "internalType": "uint256",
          "name": "",
          "type": "uint256"
        },
        {
          "internalType": "uint256",
          "name": "",
          "type": "uint256"
        },
        {
          "internalType": "uint256",
          "name": "",
          "type": "uint256"
        }
      ],
      "stateMutability": "view",
      "type": "function",
      "constant": true
    },
    {
      "inputs": [
        {
          "internalType": "address",
          "name": "user",
          "type": "address"
        },
        {
          "internalType": "uint256",
          "name": "eventId",
          "type": "uint256"
        }
      ],
      "name": "getUserSpecialShardsSupply",
      "outputs": [
        {
          "internalType": "uint256",
          "name": "",
          "type": "uint256"
        }
      ],
      "stateMutability": "view",
      "type": "function",
      "constant": true
    },
    {
      "inputs": [
        {
          "internalType": "address",
          "name": "user",
          "type": "address"
        }
      ],
      "name": "getUserShardsRewards",
      "outputs": [
        {
          "internalType": "uint256",
          "name": "",
          "type": "uint256"
        }
      ],
      "stateMutability": "view",
      "type": "function",
      "constant": true
    },
    {
      "inputs": [
        {
          "internalType": "uint256",
          "name": "orderOption",
          "type": "uint256"
        }
      ],
      "name": "getSkillForgeCost",
      "outputs": [
        {
          "internalType": "uint256",
          "name": "",
          "type": "uint256"
        }
      ],
      "stateMutability": "view",
      "type": "function",
      "constant": true
    },
    {
      "inputs": [
        {
          "internalType": "int128",
          "name": "usdAmount",
          "type": "int128"
        }
      ],
      "name": "usdToSkill",
      "outputs": [
        {
          "internalType": "uint256",
          "name": "",
          "type": "uint256"
        }
      ],
      "stateMutability": "view",
      "type": "function",
      "constant": true
    },
    {
      "inputs": [
        {
          "internalType": "uint256",
          "name": "eventId",
          "type": "uint256"
        }
      ],
      "name": "getSpecialWeaponData",
      "outputs": [
        {
          "internalType": "string",
          "name": "",
          "type": "string"
        },
        {
          "internalType": "string",
          "name": "",
          "type": "string"
        },
        {
          "internalType": "string",
          "name": "",
          "type": "string"
        },
        {
          "internalType": "string",
          "name": "",
          "type": "string"
        }
      ],
      "stateMutability": "view",
      "type": "function",
      "constant": true
    },
    {
      "inputs": [
        {
          "internalType": "string",
          "name": "name",
          "type": "string"
        },
        {
          "internalType": "uint8",
          "name": "element",
          "type": "uint8"
        },
        {
          "internalType": "uint256",
          "name": "period",
          "type": "uint256"
        },
        {
          "internalType": "uint256",
          "name": "supply",
          "type": "uint256"
        },
        {
          "internalType": "string",
          "name": "art",
          "type": "string"
        },
        {
          "internalType": "string",
          "name": "details",
          "type": "string"
        },
        {
          "internalType": "string",
          "name": "website",
          "type": "string"
        },
        {
          "internalType": "string",
          "name": "note",
          "type": "string"
        }
      ],
      "name": "startNewEvent",
      "outputs": [],
      "stateMutability": "nonpayable",
      "type": "function"
    },
    {
      "inputs": [],
      "name": "incrementEventCount",
      "outputs": [],
      "stateMutability": "nonpayable",
      "type": "function"
    },
    {
      "inputs": [
        {
          "internalType": "address",
          "name": "user",
          "type": "address"
        },
        {
          "internalType": "uint256",
          "name": "stakingAmount",
          "type": "uint256"
        }
      ],
      "name": "updateStakingReward",
      "outputs": [],
      "stateMutability": "nonpayable",
      "type": "function"
    },
    {
      "inputs": [
        {
          "internalType": "uint256",
          "name": "eventId",
          "type": "uint256"
        },
        {
          "internalType": "uint256",
          "name": "amount",
          "type": "uint256"
        }
      ],
      "name": "claimShardRewards",
      "outputs": [],
      "stateMutability": "nonpayable",
      "type": "function"
    },
    {
      "inputs": [
        {
          "internalType": "uint256",
          "name": "eventId",
          "type": "uint256"
        },
        {
          "internalType": "uint256",
          "name": "orderOption",
          "type": "uint256"
        }
      ],
      "name": "orderSpecialWeaponWithShards",
      "outputs": [],
      "stateMutability": "nonpayable",
      "type": "function"
    },
    {
      "inputs": [
        {
          "internalType": "uint256",
          "name": "eventId",
          "type": "uint256"
        },
        {
          "internalType": "uint256",
          "name": "orderOption",
          "type": "uint256"
        }
      ],
      "name": "orderSpecialWeaponWithSkill",
      "outputs": [],
      "stateMutability": "nonpayable",
      "type": "function"
    },
    {
      "inputs": [
        {
          "internalType": "uint256",
          "name": "eventId",
          "type": "uint256"
        }
      ],
      "name": "forgeSpecialWeapon",
      "outputs": [],
      "stateMutability": "nonpayable",
      "type": "function"
    },
    {
      "inputs": [
        {
          "internalType": "address",
          "name": "user",
          "type": "address"
        },
        {
          "internalType": "uint256",
          "name": "eventId",
          "type": "uint256"
        },
        {
          "internalType": "uint256",
          "name": "shardsAmount",
          "type": "uint256"
        }
      ],
      "name": "addShards",
      "outputs": [],
      "stateMutability": "nonpayable",
      "type": "function"
    },
    {
      "inputs": [
        {
          "internalType": "uint256",
          "name": "eventIdFrom",
          "type": "uint256"
        },
        {
          "internalType": "uint256",
          "name": "eventIdTo",
          "type": "uint256"
        },
        {
          "internalType": "uint256",
          "name": "amount",
          "type": "uint256"
        }
      ],
      "name": "convertShards",
      "outputs": [],
      "stateMutability": "nonpayable",
      "type": "function"
    },
    {
      "inputs": [
        {
          "internalType": "uint256",
          "name": "eventId",
          "type": "uint256"
        },
        {
          "internalType": "uint256",
          "name": "endTime",
          "type": "uint256"
        }
      ],
      "name": "updateEventEndTime",
      "outputs": [],
      "stateMutability": "nonpayable",
      "type": "function"
    },
    {
      "inputs": [
        {
          "internalType": "address[]",
          "name": "receivers",
          "type": "address[]"
        },
        {
          "internalType": "uint256",
          "name": "eventId",
          "type": "uint256"
        },
        {
          "internalType": "uint256",
          "name": "orderOption",
          "type": "uint256"
        }
      ],
      "name": "privatePartnerOrder",
      "outputs": [],
      "stateMutability": "nonpayable",
      "type": "function"
    },
    {
      "inputs": [
        {
          "internalType": "address[]",
          "name": "receivers",
          "type": "address[]"
        },
        {
          "internalType": "uint256",
          "name": "eventId",
          "type": "uint256"
        },
        {
          "internalType": "uint256",
          "name": "orderOption",
          "type": "uint256"
        }
      ],
      "name": "privatePartnerMint",
      "outputs": [],
      "stateMutability": "nonpayable",
      "type": "function"
    },
    {
      "inputs": [
        {
          "internalType": "address",
          "name": "reservingAddress",
          "type": "address"
        },
        {
          "internalType": "uint256",
          "name": "eventId",
          "type": "uint256"
        },
        {
          "internalType": "uint256",
          "name": "orderOption",
          "type": "uint256"
        },
        {
          "internalType": "uint256",
          "name": "amount",
          "type": "uint256"
        }
      ],
      "name": "reserveForGiveaways",
      "outputs": [],
      "stateMutability": "nonpayable",
      "type": "function"
    },
    {
      "inputs": [
        {
          "internalType": "string",
          "name": "name",
          "type": "string"
        },
        {
          "internalType": "uint8",
          "name": "element",
          "type": "uint8"
        }
      ],
      "name": "createManualEvent",
      "outputs": [],
      "stateMutability": "nonpayable",
      "type": "function"
    },
    {
      "inputs": [
        {
          "internalType": "address[]",
          "name": "receivers",
          "type": "address[]"
        },
        {
          "internalType": "uint256",
          "name": "eventId",
          "type": "uint256"
        },
        {
          "internalType": "uint256",
          "name": "orderOption",
          "type": "uint256"
        }
      ],
      "name": "mintOrderOptionForManualEvent",
      "outputs": [],
      "stateMutability": "nonpayable",
      "type": "function"
    },
    {
      "inputs": [
        {
          "internalType": "address[]",
          "name": "receivers",
          "type": "address[]"
        },
        {
          "internalType": "uint256",
          "name": "eventId",
          "type": "uint256"
        },
        {
          "internalType": "uint256",
          "name": "stars",
          "type": "uint256"
        }
      ],
      "name": "mintStarsForManualEvent",
      "outputs": [],
      "stateMutability": "nonpayable",
      "type": "function"
    },
    {
      "inputs": [
        {
          "internalType": "uint256",
          "name": "eventId",
          "type": "uint256"
        },
        {
          "internalType": "string",
          "name": "art",
          "type": "string"
        }
      ],
      "name": "setSpecialWeaponArt",
      "outputs": [],
      "stateMutability": "nonpayable",
      "type": "function"
    },
    {
      "inputs": [
        {
          "internalType": "uint256",
          "name": "eventId",
          "type": "uint256"
        },
        {
          "internalType": "string",
          "name": "details",
          "type": "string"
        }
      ],
      "name": "setSpecialWeaponDetails",
      "outputs": [],
      "stateMutability": "nonpayable",
      "type": "function"
    },
    {
      "inputs": [
        {
          "internalType": "uint256",
          "name": "eventId",
          "type": "uint256"
        },
        {
          "internalType": "string",
          "name": "website",
          "type": "string"
        }
      ],
      "name": "setSpecialWeaponWebsite",
      "outputs": [],
      "stateMutability": "nonpayable",
      "type": "function"
    },
    {
      "inputs": [
        {
          "internalType": "uint256",
          "name": "eventId",
          "type": "uint256"
        },
        {
          "internalType": "string",
          "name": "note",
          "type": "string"
        }
      ],
      "name": "setSpecialWeaponNote",
      "outputs": [],
      "stateMutability": "nonpayable",
      "type": "function"
    }
  ],
  "bytecode": "0x608060405234801561001057600080fd5b50614124806100206000396000f3fe608060405234801561001057600080fd5b50600436106103fb5760003560e01c806372fa90bd11610215578063b065b9f611610125578063ce0c9cd3116100b8578063d74b801811610087578063d74b801814611315578063e0b5616e1461133b578063e131316014611343578063e71a136a14611375578063eddf97d314611392576103fb565b8063ce0c9cd314611298578063d0c0590d146112c4578063d5391393146112e1578063d547741f146112e9576103fb565b8063c1dbdcd0116100f4578063c1dbdcd0146111f7578063c3fe3e281461126b578063c5312bf914611273578063ca15c8731461127b576103fb565b8063b065b9f614611186578063b4a46a1e146111a9578063b7e1cd86146111c6578063bbd16dbb146111ce576103fb565b8063949a5481116101a8578063a217fddf11610177578063a217fddf14610f20578063a26830c614610f28578063a3aac61514610f45578063a4b1d7ca14610fba578063a4feef7714610fc2576103fb565b8063949a548114610eb257806397d14caa14610eba5780639d0c025b14610ee65780639e6948e814610f03576103fb565b806387e44bb7116101e457806387e44bb714610dcb5780639010d07c14610dee578063910ecaf314610e1157806391d1485414610e86576103fb565b806372fa90bd14610cd65780637d859e4514610cf35780637f72c3f014610d6757806385b4c9d714610d93576103fb565b80633f7e1dd5116103105780635eaf6daf116102a357806368625cdc1161027257806368625cdc14610be55780636c992a5514610bed5780636ce3d47214610c105780636f8f215914610ca257806371be2e4a14610cce576103fb565b80635eaf6daf14610b595780636073175014610b615780636273a69414610b69578063631f3cab14610b71576103fb565b80635504d3d2116102df5780635504d3d21461095f57806357a81bab1461096757806359f3ced41461096f5780635a7d642514610b36576103fb565b80633f7e1dd5146108f35780634057cd65146109175780634ec174a91461093a57806351e717ac14610957576103fb565b80631459457a11610393578063260e5f4a11610362578063260e5f4a146107ae5780632f2ff15d146107b657806336568abe146107e2578063378734091461080e5780633c9263141461087f576103fb565b80631459457a1461066157806316aed10c146106a95780631d645b12146106da578063248a9ca314610791576103fb565b80630a24a26b116103cf5780630a24a26b146105065780630a7501bb1461050e5780630a8a9215146105cc5780631030c933146105ec576103fb565b8062c5d85e14610400578063054aafb514610458578063093ae457146104725780630a1bc22e146104e9575b600080fd5b6104086113be565b60408051602080825283518183015283519192839290830191858101910280838360005b8381101561044457818101518382015260200161042c565b505050509050019250505060405180910390f35b610460611464565b60408051918252519081900360200190f35b6104e76004803603604081101561048857600080fd5b81359190810190604081016020820135600160201b8111156104a957600080fd5b8201836020820111156104bb57600080fd5b803590602001918460018302840111600160201b831117156104dc57600080fd5b509092509050611469565b005b6104e7600480360360208110156104ff57600080fd5b5035611490565b610460611657565b6104e76004803603604081101561052457600080fd5b810190602081018135600160201b81111561053e57600080fd5b82018360208201111561055057600080fd5b803590602001918460208302840111600160201b8311171561057157600080fd5b919390929091602081019035600160201b81111561058e57600080fd5b8201836020820111156105a057600080fd5b803590602001918460208302840111600160201b831117156105c157600080fd5b509092509050611682565b610460600480360360208110156105e257600080fd5b5035600f0b6116e1565b6104e76004803603604081101561060257600080fd5b81359190810190604081016020820135600160201b81111561062357600080fd5b82018360208201111561063557600080fd5b803590602001918460018302840111600160201b8311171561065657600080fd5b509092509050611777565b6104e7600480360360a081101561067757600080fd5b506001600160a01b03813581169160208101358216916040820135811691606081013582169160809091013516611798565b6106c6600480360360208110156106bf57600080fd5b50356118d6565b604080519115158252519081900360200190f35b6106f7600480360360208110156106f057600080fd5b503561190d565b60405180806020018660ff1660ff168152602001858152602001848152602001838152602001828103825287818151815260200191508051906020019080838360005b8381101561075257818101518382015260200161073a565b50505050905090810190601f16801561077f5780820380516001836020036101000a031916815260200191505b50965050505050505060405180910390f35b610460600480360360208110156107a757600080fd5b5035611a22565b6104e7611a37565b6104e7600480360360408110156107cc57600080fd5b50803590602001356001600160a01b0316611a4a565b6104e7600480360360408110156107f857600080fd5b50803590602001356001600160a01b0316611ab2565b6104e76004803603604081101561082457600080fd5b810190602081018135600160201b81111561083e57600080fd5b82018360208201111561085057600080fd5b803590602001918460018302840111600160201b8311171561087157600080fd5b91935091503560ff16611b13565b6104e76004803603606081101561089557600080fd5b810190602081018135600160201b8111156108af57600080fd5b8201836020820111156108c157600080fd5b803590602001918460208302840111600160201b831117156108e257600080fd5b919350915080359060200135611bed565b6108fb611dec565b604080516001600160a01b039092168252519081900360200190f35b6104e76004803603604081101561092d57600080fd5b5080359060200135611dfb565b6106c66004803603602081101561095057600080fd5b5035611ece565b6108fb611ee5565b610460611ef4565b610460611f16565b61098c6004803603602081101561098557600080fd5b5035611f1b565b6040518080602001806020018060200180602001858103855289818151815260200191508051906020019080838360005b838110156109d55781810151838201526020016109bd565b50505050905090810190601f168015610a025780820380516001836020036101000a031916815260200191505b5085810384528851815288516020918201918a019080838360005b83811015610a35578181015183820152602001610a1d565b50505050905090810190601f168015610a625780820380516001836020036101000a031916815260200191505b50858103835287518152875160209182019189019080838360005b83811015610a95578181015183820152602001610a7d565b50505050905090810190601f168015610ac25780820380516001836020036101000a031916815260200191505b50858103825286518152865160209182019188019080838360005b83811015610af5578181015183820152602001610add565b50505050905090810190601f168015610b225780820380516001836020036101000a031916815260200191505b509850505050505050505060405180910390f35b6104e760048036036040811015610b4c57600080fd5b5080359060200135612191565b6104606122e9565b6104606122ee565b6104606122f3565b6104e760048036036060811015610b8757600080fd5b810190602081018135600160201b811115610ba157600080fd5b820183602082011115610bb357600080fd5b803590602001918460208302840111600160201b83111715610bd457600080fd5b9193509150803590602001356122f8565b6104606125d0565b6104e760048036036040811015610c0357600080fd5b50803590602001356125d5565b610c2d60048036036020811015610c2657600080fd5b50356125ef565b6040805160208082528351818301528351919283929083019185019080838360005b83811015610c67578181015183820152602001610c4f565b50505050905090810190601f168015610c945780820380516001836020036101000a031916815260200191505b509250505060405180910390f35b61046060048036036040811015610cb857600080fd5b506001600160a01b03813516906020013561268a565b6104606126a7565b610c2d60048036036020811015610cec57600080fd5b50356126ad565b6104e760048036036060811015610d0957600080fd5b810190602081018135600160201b811115610d2357600080fd5b820183602082011115610d3557600080fd5b803590602001918460208302840111600160201b83111715610d5657600080fd5b919350915080359060200135612715565b61046060048036036040811015610d7d57600080fd5b506001600160a01b038135169060200135612837565b6104e760048036036080811015610da957600080fd5b506001600160a01b03813516906020810135906040810135906060013561285f565b6104e760048036036040811015610de157600080fd5b5080359060200135612989565b6108fb60048036036040811015610e0457600080fd5b5080359060200135612a85565b6104e760048036036040811015610e2757600080fd5b81359190810190604081016020820135600160201b811115610e4857600080fd5b820183602082011115610e5a57600080fd5b803590602001918460018302840111600160201b83111715610e7b57600080fd5b509092509050612aaa565b6106c660048036036040811015610e9c57600080fd5b50803590602001356001600160a01b0316612acb565b610460612ae9565b61046060048036036040811015610ed057600080fd5b506001600160a01b038135169060200135612aee565b6106f760048036036020811015610efc57600080fd5b5035612b0b565b610c2d60048036036020811015610f1957600080fd5b5035612bc9565b610460612c31565b610c2d60048036036020811015610f3e57600080fd5b5035612c36565b6104e760048036036040811015610f5b57600080fd5b81359190810190604081016020820135600160201b811115610f7c57600080fd5b820183602082011115610f8e57600080fd5b803590602001918460018302840111600160201b83111715610faf57600080fd5b509092509050612c9e565b6108fb612cbf565b6104e76004803603610100811015610fd957600080fd5b810190602081018135600160201b811115610ff357600080fd5b82018360208201111561100557600080fd5b803590602001918460018302840111600160201b8311171561102657600080fd5b9193909260ff833516926020810135926040820135929091608081019060600135600160201b81111561105857600080fd5b82018360208201111561106a57600080fd5b803590602001918460018302840111600160201b8311171561108b57600080fd5b919390929091602081019035600160201b8111156110a857600080fd5b8201836020820111156110ba57600080fd5b803590602001918460018302840111600160201b831117156110db57600080fd5b919390929091602081019035600160201b8111156110f857600080fd5b82018360208201111561110a57600080fd5b803590602001918460018302840111600160201b8311171561112b57600080fd5b919390929091602081019035600160201b81111561114857600080fd5b82018360208201111561115a57600080fd5b803590602001918460018302840111600160201b8311171561117b57600080fd5b509092509050612cce565b6104e76004803603604081101561119c57600080fd5b5080359060200135612e28565b610460600480360360208110156111bf57600080fd5b5035612e45565b6108fb612e6c565b6104e7600480360360608110156111e457600080fd5b5080359060208101359060400135612e7b565b6104e76004803603606081101561120d57600080fd5b810190602081018135600160201b81111561122757600080fd5b82018360208201111561123957600080fd5b803590602001918460208302840111600160201b8311171561125a57600080fd5b919350915080359060200135612fe2565b6108fb61314a565b610460613159565b6104606004803603602081101561129157600080fd5b503561315e565b6106c6600480360360408110156112ae57600080fd5b506001600160a01b038135169060200135613175565b610460600480360360208110156112da57600080fd5b5035613195565b6104606131aa565b6104e7600480360360408110156112ff57600080fd5b50803590602001356001600160a01b03166131cd565b6104606004803603602081101561132b57600080fd5b50356001600160a01b0316613226565b6104606132d7565b6104e76004803603606081101561135957600080fd5b506001600160a01b038135169060208101359060400135613305565b6104606004803603602081101561138b57600080fd5b5035613344565b6104e7600480360360408110156113a857600080fd5b506001600160a01b038135169060200135613356565b6060806113c96132d7565b67ffffffffffffffff811180156113df57600080fd5b50604051908082528060200260200182016040528015611409578160200160208202803683370190505b509050600060015b606c54811161145b576000818152606d6020526040902060020154421015611453578083838060010194508151811061144657fe5b6020026020010181815250505b600101611411565b50909150505b90565b600181565b61147161339d565b600083815260766020526040902061148a908383613ebb565b50505050565b336000908152606f602090815260408083208484529091529020546114ef576040805162461bcd60e51b815260206004820152601060248201526f4e6f7468696e6720746f20666f72676560801b604482015290519081900360640190fd5b336000908152606e6020908152604080832084845290915290205460ff1615611550576040805162461bcd60e51b815260206004820152600e60248201526d105b1c9958591e48199bdc99d95960921b604482015290519081900360640190fd5b336000818152606e602090815260408083208584529091529020805460ff19166001179055606754611653919083906001600160a01b031663fd4cc5c483611597846133ff565b604080516001600160e01b031960e086901b1681526001600160a01b03909316600484015260248301919091526001604483015260006064830181905290516084808401936020939083900390910190829087803b1580156115f857600080fd5b505af115801561160c573d6000803e3d6000fd5b505050506040513d602081101561162257600080fd5b5051336000908152606f60209081526040808320888452825280832054606d9092529091206001015460ff16613459565b5050565b604080517214d41150d2505317d5d1505413d397d4d15151606a1b8152905190819003601301902081565b61168a61339d565b60005b838110156116da578282828181106116a157fe5b90506020020135606b60008787858181106116b857fe5b602090810292909201358352508101919091526040016000205560010161168d565b5050505050565b6000611771606960009054906101000a90046001600160a01b03166001600160a01b0316639d1b464a6040518163ffffffff1660e01b815260040160206040518083038186803b15801561173457600080fd5b505afa158015611748573d6000803e3d6000fd5b505050506040513d602081101561175e57600080fd5b5051600f84900b9063ffffffff6134d916565b92915050565b61177f61339d565b600083815260756020526040902061148a908383613ebb565b600054610100900460ff16806117b157506117b1613541565b806117bf575060005460ff16155b6117fa5760405162461bcd60e51b815260040180806020018281038252602e815260200180614071602e913960400191505060405180910390fd5b600054610100900460ff16158015611825576000805460ff1961ff0019909116610100171660011790555b61182d613552565b611838600033611aa8565b604080516923a0a6a2afa0a226a4a760b11b8152905190819003600a0190206118619033611aa8565b606580546001600160a01b03199081166001600160a01b0389811691909117909255606680548216888416179055606780548216878416179055606880548216868416179055606980549091169184169190911790556000606c5580156118ce576000805461ff00191690555b505050505050565b6000818152606d602052604081206003015415806117715750506000908152606d6020526040902060038101546004909101541090565b606060008060008061191d613f35565b6000878152606d60209081526040918290208251815460026001821615610100026000190190911604601f8101849004909302810160c090810190945260a081018381529093919284928491908401828280156119bb5780601f10611990576101008083540402835291602001916119bb565b820191906000526020600020905b81548152906001019060200180831161199e57829003601f168201915b5050509183525050600182015460ff166020808301919091526002830154604080840191909152600384015460608085019190915260049094015460809384015284519185015190850151938501519490920151909b919a50919850919650945092505050565b60009081526033602052604090206002015490565b611a3f61339d565b606c80546001019055565b600082815260336020526040902060020154611a6d90611a68613604565b612acb565b611aa85760405162461bcd60e51b815260040180806020018281038252602f815260200180614012602f913960400191505060405180910390fd5b6116538282613608565b611aba613604565b6001600160a01b0316816001600160a01b031614611b095760405162461bcd60e51b815260040180806020018281038252602f8152602001806140c0602f913960400191505060405180910390fd5b6116538282613677565b611b1b61339d565b6040518060a0016040528084848080601f016020809104026020016040519081016040528093929190818152602001838380828437600092018290525093855250505060ff841660208084019190915260016040808501829052606085018490526080909401839052606c8054909101908190558252606d8152919020825180519192611bad92849290910190613f67565b50602082015160018201805460ff191660ff9092169190911790556040820151600282015560608201516003820155608090910151600490910155505050565b611bf56136e6565b80611bff8161374e565b82611c09816137a2565b6000848152606d60205260409020600301541580611c4057506000848152606d602052604090206003810154600490910154860111155b611c85576040805162461bcd60e51b81526020600482015260116024820152704e6f7420656e6f75676820737570706c7960781b604482015290519081900360640190fd5b60005b85811015611de357606f6000888884818110611ca057fe5b905060200201356001600160a01b03166001600160a01b03166001600160a01b03168152602001908152602001600020600086815260200190815260200160002054600014611cee57611ddb565b83606f6000898985818110611cff57fe5b6001600160a01b0360209182029390930135831684528381019490945250604091820160009081208a8252845282812094909455606d909252909120600401805460010190556067541663775eb0e2888884818110611d5a57fe5b905060200201356001600160a01b0316611d73886133ff565b6040518363ffffffff1660e01b815260040180836001600160a01b03166001600160a01b0316815260200182815260200192505050600060405180830381600087803b158015611dc257600080fd5b505af1158015611dd6573d6000803e3d6000fd5b505050505b600101611c88565b50505050505050565b6069546001600160a01b031681565b611e0433613226565b611e1c82670de0b6b3a764000063ffffffff6137ed16565b1115611e64576040805162461bcd60e51b81526020600482015260126024820152714e6f7420656e6f756768207265776172647360701b604482015290519081900360640190fd5b611e94611e7f82670de0b6b3a764000063ffffffff6137ed16565b611e8833613226565b9063ffffffff61384616565b3360009081526072602090815260408083209390935560718152828220429055606a81528282209482529390935290912080549091019055565b6000908152606d6020526040902060020154421090565b6065546001600160a01b031681565b604080516923a0a6a2afa0a226a4a760b11b8152905190819003600a01902081565b600481565b6000818152607360209081526040808320607483528184206075845282852060768552948390208254845160026001831615610100026000190190921691909104601f81018790048702820187019095528481526060968796879687969594929391869190830182828015611fd15780601f10611fa657610100808354040283529160200191611fd1565b820191906000526020600020905b815481529060010190602001808311611fb457829003601f168201915b5050865460408051602060026001851615610100026000190190941693909304601f81018490048402820184019092528181529599508894509250840190508282801561205f5780601f106120345761010080835404028352916020019161205f565b820191906000526020600020905b81548152906001019060200180831161204257829003601f168201915b5050855460408051602060026001851615610100026000190190941693909304601f8101849004840282018401909252818152959850879450925084019050828280156120ed5780601f106120c2576101008083540402835291602001916120ed565b820191906000526020600020905b8154815290600101906020018083116120d057829003601f168201915b5050845460408051602060026001851615610100026000190190941693909304601f81018490048402820184019092528181529597508694509250840190508282801561217b5780601f106121505761010080835404028352916020019161217b565b820191906000526020600020905b81548152906001019060200180831161215e57829003601f168201915b5050505050905093509350935093509193509193565b8161219b816138a3565b826121a5816137a2565b826121af8161374e565b6068546001600160a01b031663466cec33336121ca87612e45565b6040518363ffffffff1660e01b815260040180836001600160a01b03166001600160a01b0316815260200182815260200192505050600060405180830381600087803b15801561221957600080fd5b505af115801561222d573d6000803e3d6000fd5b5050336000818152606f602090815260408083208b845282528083208a9055606d9091529020600401805460010190556067546001600160a01b0316925063775eb0e2915061227b886133ff565b6040518363ffffffff1660e01b815260040180836001600160a01b03166001600160a01b0316815260200182815260200192505050600060405180830381600087803b1580156122ca57600080fd5b505af11580156122de573d6000803e3d6000fd5b505050505050505050565b600681565b600381565b600581565b6123006136e6565b8061230a8161374e565b82612314816137a2565b6000848152606d6020526040902060030154158061234b57506000848152606d602052604090206003810154600490910154860111155b612390576040805162461bcd60e51b81526020600482015260116024820152704e6f7420656e6f75676820737570706c7960781b604482015290519081900360640190fd5b60005b85811015611de357606f60008888848181106123ab57fe5b905060200201356001600160a01b03166001600160a01b03166001600160a01b03168152602001908152602001600020600086815260200190815260200160002054600014158061243b5750606e600088888481811061240757fe5b602090810292909201356001600160a01b0316835250818101929092526040908101600090812088825290925290205460ff165b15612445576125c8565b83606f600089898581811061245657fe5b602090810292909201356001600160a01b03168352508181019290925260409081016000908120898252835281812093909355606d90915281206004018054600190810190915590606e908989858181106124ad57fe5b905060200201356001600160a01b03166001600160a01b03166001600160a01b03168152602001908152602001600020600087815260200190815260200160002060006101000a81548160ff0219169083151502179055506125c687878381811061251457fe5b905060200201356001600160a01b03168660014303408a8a8681811061253657fe5b60408051602080820196909652918502939093013560601b6001600160601b03191681840152825180820360340181526054909101909252508051910120606f60008c8c8881811061258457fe5b602090810292909201356001600160a01b031683525081810192909252604090810160009081208c8252835281812054606d909352206001015460ff16613459565b505b600101612393565b600a81565b6125dd61339d565b6000918252606b602052604090912055565b60736020908152600091825260409182902080548351601f6002600019610100600186161502019093169290920491820184900484028101840190945280845290918301828280156126825780601f1061265757610100808354040283529160200191612682565b820191906000526020600020905b81548152906001019060200180831161266557829003601f168201915b505050505081565b606a60209081526000928352604080842090915290825290205481565b606c5481565b60766020908152600091825260409182902080548351601f6002600019610100600186161502019093169290920491820184900484028101840190945280845290918301828280156126825780601f1061265757610100808354040283529160200191612682565b61271d6136e6565b806127278161374e565b6000838152606d602052604090206002015460011461277e576040805162461bcd60e51b815260206004820152600e60248201526d15dc9bdb99c8195d995b9d081a5960921b604482015290519081900360640190fd5b60005b848110156118ce576000848152606d602052604090206004018054600101905561282e8686838181106127b057fe5b905060200201356001600160a01b03168560014303408989868181106127d257fe5b60408051602080820196909652918502939093013560601b6001600160601b03191681840152825180820360340181526054909101835280519084012060008b8152606d9094529190922060010154909150879060ff16613459565b50600101612781565b6001600160a01b03919091166000908152606a60209081526040808320938352929052205490565b6128676136e6565b816128718161374e565b8361287b816137a2565b6000858152606d602052604090206003015415806128b257506000858152606d602052604090206003810154600490910154840111155b6128f7576040805162461bcd60e51b81526020600482015260116024820152704e6f7420656e6f75676820737570706c7960781b604482015290519081900360640190fd5b60005b83811015611de3576000868152606d6020818152604080842060048101805460019081019091558251600019430140818601526001600160601b031960608f901b16818501526054808201899052845180830390910181526074909101909352825192840192909220948b9052929091520154612980918991899190899060ff16613459565b506001016128fa565b81612993816138a3565b8261299d816137a2565b826129a78161374e565b6000848152606b6020908152604080832054338452606a8352818420898552909252909120541015612a14576040805162461bcd60e51b81526020600482015260116024820152704e6f7420656e6f7567682073686172647360781b604482015290519081900360640190fd5b6000848152606b602090815260408083205433808552606a84528285208a86528452828520805492909203909155808452606f83528184208985528352818420889055606d909252909120600401805460010190556067546001600160a01b03169063775eb0e29061227b886133ff565b6000828152603360205260408120612aa3908363ffffffff61393f16565b9392505050565b612ab261339d565b600083815260736020526040902061148a908383613ebb565b6000828152603360205260408120612aa3908363ffffffff61394b16565b600281565b606f60209081526000928352604080842090915290825290205481565b606d6020908152600091825260409182902080548351601f60026000196101006001861615020190931692909204918201849004840281018401909452808452909291839190830182828015612ba25780601f10612b7757610100808354040283529160200191612ba2565b820191906000526020600020905b815481529060010190602001808311612b8557829003601f168201915b50505050600183015460028401546003850154600490950154939460ff9092169390925085565b60756020908152600091825260409182902080548351601f6002600019610100600186161502019093169290920491820184900484028101840190945280845290918301828280156126825780601f1061265757610100808354040283529160200191612682565b600081565b60746020908152600091825260409182902080548351601f6002600019610100600186161502019093169290920491820184900484028101840190945280845290918301828280156126825780601f1061265757610100808354040283529160200191612682565b612ca661339d565b600083815260746020526040902061148a908383613ebb565b6067546001600160a01b031681565b612cd661339d565b6000606c6000815460010191905081905590506040518060a001604052808f8f8080601f016020809104026020016040519081016040528093929190818152602001838380828437600092018290525093855250505060ff8f16602080840191909152428f01604080850191909152606084018f90526080909301829052848252606d8152919020825180519192612d7392849290910190613f67565b5060208281015160018301805460ff191660ff9092169190911790556040808401516002840155606084015160038401556080909301516004909201919091556000838152607390915220612dc9908a8a613ebb565b506000818152607460205260409020612de3908888613ebb565b506000818152607560205260409020612dfd908686613ebb565b506000818152607660205260409020612e17908484613ebb565b505050505050505050505050505050565b612e3061339d565b6000918252606d602052604090912060020155565b600381016000908152606b602052604081205461177190612e67906001613960565b6116e1565b6066546001600160a01b031681565b81612e85816137a2565b336000908152606a60209081526040808320878452909152902054821115612ee8576040805162461bcd60e51b81526020600482015260116024820152704e6f7420656e6f7567682073686172647360781b604482015290519081900360640190fd5b336000908152606a602090815260408083208784528252822080548590039055600a8252606b90527f4ee07615c93438712b740e52935337d5397f55fe799db708da0093ae21f7019354612f4390849063ffffffff6139a016565b336000908152606a60209081526040808320898452909152902054909150158015612fa25750600a6000908152606b6020527f4ee07615c93438712b740e52935337d5397f55fe799db708da0093ae21f70193548481612f9f57fe5b06115b612fad576000612fb0565b60015b336000908152606a6020908152604080832097835296905294909420805460ff90951691909101909301909255505050565b612fea6136e6565b6000828152606d6020526040902060020154600114613041576040805162461bcd60e51b815260206004820152600e60248201526d15dc9bdb99c8195d995b9d081a5960921b604482015290519081900360640190fd5b60028110158015613053575060048111155b613092576040805162461bcd60e51b815260206004820152600b60248201526a57726f6e6720737461727360a81b604482015290519081900360640190fd5b60005b838110156116da576000838152606d60205260409020600401805460010190556131418585838181106130c457fe5b905060200201356001600160a01b0316848460014303408989878181106130e757fe5b60408051602080820196909652918502939093013560601b6001600160601b03191681840152825180820360340181526054909101835280519084012060008b8152606d909452919092206001015490915060ff16613a07565b50600101613095565b6068546001600160a01b031681565b600b81565b600081815260336020526040812061177190613aad565b606e60209081526000928352604080842090915290825290205460ff1681565b6000908152606d602052604090206004015490565b604080516a4d494e5445525f524f4c4560a81b8152905190819003600b01902081565b6000828152603360205260409020600201546131eb90611a68613604565b611b095760405162461bcd60e51b81526004018080602001828103825260308152602001806140416030913960400191505060405180910390fd5b6001600160a01b0381166000908152607160209081526040808320547f64f2a9e68d09cbdc762dc5970c49ed6445a10a8c648c6d6b7403c1f86c44322254607090935290832054611771926132b292670de0b6b3a7640000926132a6926201518092849242919091039161329a91906137ed565b9063ffffffff6137ed16565b9063ffffffff6139a016565b6001600160a01b0384166000908152607260205260409020549063ffffffff613ab816565b6000805b606c548111613301576132ed81611ece565b156132f9576001909101905b6001016132db565b5090565b61330d61339d565b81613317816137a2565b506001600160a01b039092166000908152606a602090815260408083209383529290522080549091019055565b606b6020526000908152604090205481565b61335e61339d565b61336782613226565b6001600160a01b039092166000908152607260209081526040808320949094556070815283822092909255607190915220429055565b604080516923a0a6a2afa0a226a4a760b11b8152905190819003600a0190206133c69033612acb565b6133fd576040805162461bcd60e51b81526020600482015260036024820152624e474160e81b604482015290519081900360640190fd5b565b604080517214d41150d2505317d5d1505413d397d4d15151606a1b81528151908190036013018120602080830191909152600182840152606080830194909452825180830390940184526080909101909152815191012090565b60008060648506600385141561347257600491506134c0565b846002141561349757601081101561348d5760049150613492565b600391505b6134c0565b60058110156134a957600491506134c0565b601c8110156134bb57600391506134c0565b600291505b6134cd8888848988613a07565b98975050505050505050565b6000816134e857506000611771565b600083600f0b12156134f957600080fd5b600f83900b6001600160801b038316810260401c90608084901c026001600160c01b0381111561352857600080fd5b60401b811981111561353957600080fd5b019392505050565b600061354c30613b12565b15905090565b600054610100900460ff168061356b575061356b613541565b80613579575060005460ff16155b6135b45760405162461bcd60e51b815260040180806020018281038252602e815260200180614071602e913960400191505060405180910390fd5b600054610100900460ff161580156135df576000805460ff1961ff0019909116610100171660011790555b6135e7613b18565b6135ef613b18565b8015613601576000805461ff00191690555b50565b3390565b6000828152603360205260409020613626908263ffffffff613bb816565b1561165357613633613604565b6001600160a01b0316816001600160a01b0316837f2f8788117e7eff1d82e926ec794901d17c78024a50270940304540a733656f0d60405160405180910390a45050565b6000828152603360205260409020613695908263ffffffff613bcd16565b15611653576136a2613604565b6001600160a01b0316816001600160a01b0316837ff6391f5c32d9c69d2a47ea670b442974b53935d1edc7fd64eb21e047a839171b60405160405180910390a45050565b604080516a4d494e5445525f524f4c4560a81b8152905190819003600b0190206137109033612acb565b6133fd576040805162461bcd60e51b815260206004820152600a6024820152692737ba1036b4b73a32b960b11b604482015290519081900360640190fd5b60018110158015613760575060038111155b613601576040805162461bcd60e51b815260206004820152600e60248201526d24b73b30b634b21037b83a34b7b760911b604482015290519081900360640190fd5b6137ab81611ece565b613601576040805162461bcd60e51b815260206004820152600e60248201526d4576656e7420696e61637469766560901b604482015290519081900360640190fd5b6000826137fc57506000611771565b8282028284828161380957fe5b0414612aa35760405162461bcd60e51b815260040180806020018281038252602181526020018061409f6021913960400191505060405180910390fd5b60008282111561389d576040805162461bcd60e51b815260206004820152601e60248201527f536166654d6174683a207375627472616374696f6e206f766572666c6f770000604482015290519081900360640190fd5b50900390565b336000908152606f60209081526040808320848452909152902054156138fa576040805162461bcd60e51b81526020600482015260076024820152664c696d6974203160c81b604482015290519081900360640190fd5b613903816118d6565b613601576040805162461bcd60e51b815260206004820152600860248201526714dbdb19081bdd5d60c21b604482015290519081900360640190fd5b6000612aa38383613be2565b6000612aa3836001600160a01b038416613c46565b60008161396c57600080fd5b60006139788484613c5e565b90506f7fffffffffffffffffffffffffffffff6001600160801b0382161115612aa357600080fd5b60008082116139f6576040805162461bcd60e51b815260206004820152601a60248201527f536166654d6174683a206469766973696f6e206279207a65726f000000000000604482015290519081900360640190fd5b8183816139ff57fe5b049392505050565b6066546040805163469ec84360e11b81526001600160a01b03888116600483015260248201889052604482018790526064820186905260ff8516608483015291516000939290921691638d3d90869160a48082019260209290919082900301818787803b158015613a7757600080fd5b505af1158015613a8b573d6000803e3d6000fd5b505050506040513d6020811015613aa157600080fd5b50519695505050505050565b600061177182613da7565b600082820183811015612aa3576040805162461bcd60e51b815260206004820152601b60248201527f536166654d6174683a206164646974696f6e206f766572666c6f770000000000604482015290519081900360640190fd5b3b151590565b600054610100900460ff1680613b315750613b31613541565b80613b3f575060005460ff16155b613b7a5760405162461bcd60e51b815260040180806020018281038252602e815260200180614071602e913960400191505060405180910390fd5b600054610100900460ff161580156135ef576000805460ff1961ff0019909116610100171660011790558015613601576000805461ff001916905550565b6000612aa3836001600160a01b038416613dab565b6000612aa3836001600160a01b038416613df5565b81546000908210613c245760405162461bcd60e51b8152600401808060200182810382526022815260200180613ff06022913960400191505060405180910390fd5b826000018281548110613c3357fe5b9060005260206000200154905092915050565b60009081526001919091016020526040902054151590565b600081613c6a57600080fd5b60006001600160c01b038411613c8f5782604085901b81613c8757fe5b049050613d93565b60c084811c600160201b8110613ca7576020918201911c5b620100008110613cb9576010918201911c5b6101008110613cca576008918201911c5b60108110613cda576004918201911c5b60048110613cea576002918201911c5b60028110613cf9576001820191505b60bf820360018603901c6001018260ff0387901b81613d1457fe5b0492506001600160801b03831115613d2b57600080fd5b608085901c83026001600160801b038616840260c088901c604089901b82811015613d57576001820391505b608084901b92900382811015613d6e576001820391505b829003608084901c8214613d7e57fe5b888181613d8757fe5b04870196505050505050505b6001600160801b03811115612aa357600080fd5b5490565b6000613db78383613c46565b613ded57508154600181810184556000848152602080822090930184905584548482528286019093526040902091909155611771565b506000611771565b60008181526001830160205260408120548015613eb15783546000198083019190810190600090879083908110613e2857fe5b9060005260206000200154905080876000018481548110613e4557fe5b600091825260208083209091019290925582815260018981019092526040902090840190558654879080613e7557fe5b60019003818190600052602060002001600090559055866001016000878152602001908152602001600020600090556001945050505050611771565b6000915050611771565b828054600181600116156101000203166002900490600052602060002090601f016020900481019282601f10613efc5782800160ff19823516178555613f29565b82800160010185558215613f29579182015b82811115613f29578235825591602001919060010190613f0e565b50613301929150613fd5565b6040518060a0016040528060608152602001600060ff1681526020016000815260200160008152602001600081525090565b828054600181600116156101000203166002900490600052602060002090601f016020900481019282601f10613fa857805160ff1916838001178555613f29565b82800160010185558215613f29579182015b82811115613f29578251825591602001919060010190613fba565b61146191905b808211156133015760008155600101613fdb56fe456e756d657261626c655365743a20696e646578206f7574206f6620626f756e6473416363657373436f6e74726f6c3a2073656e646572206d75737420626520616e2061646d696e20746f206772616e74416363657373436f6e74726f6c3a2073656e646572206d75737420626520616e2061646d696e20746f207265766f6b65496e697469616c697a61626c653a20636f6e747261637420697320616c726561647920696e697469616c697a6564536166654d6174683a206d756c7469706c69636174696f6e206f766572666c6f77416363657373436f6e74726f6c3a2063616e206f6e6c792072656e6f756e636520726f6c657320666f722073656c66a264697066735822122060b0d3049cdf0fd43d2aa3dcacfd52e536ab6f43022949a347c37844930f0da864736f6c63430006050033",
  "immutableReferences": {},
  "source": "pragma solidity ^0.6.2;\r\n\r\nimport \"@openzeppelin/contracts/math/SafeMath.sol\";\r\nimport \"./Promos.sol\";\r\nimport \"./weapons.sol\";\r\nimport \"./SafeRandoms.sol\";\r\nimport \"./util.sol\";\r\nimport \"./staking/StakingRewardsUpgradeable.sol\";\r\nimport \"./interfaces/IPriceOracle.sol\";\r\n\r\ncontract SpecialWeaponsManager is Initializable, AccessControlUpgradeable {\r\n    using SafeMath for uint256;\r\n    using ABDKMath64x64 for int128;\r\n\r\n    bytes32 public constant GAME_ADMIN = keccak256(\"GAME_ADMIN\");\r\n    bytes32 public constant MINTER_ROLE = keccak256(\"MINTER_ROLE\");\r\n    bytes32 public constant SPECIAL_WEAPON_SEED = keccak256(\"SPECIAL_WEAPON_SEED\");\r\n\r\n    // STATE\r\n    Promos public promos;\r\n    Weapons public weapons;\r\n    SafeRandoms public safeRandoms;\r\n    CryptoBlades public game;\r\n    IPriceOracle public priceOracleSkillPerUsd;\r\n\r\n    struct EventInfo {\r\n        string name;\r\n        uint8 weaponElement;\r\n        uint256 endTime;\r\n        uint256 supply;\r\n        uint256 orderedCount;\r\n    }\r\n\r\n    mapping(address => mapping(uint256 => uint256)) public userEventShardSupply;\r\n    mapping(uint256 => uint256) public vars;\r\n    uint256 public constant VAR_SHARD_COST_LOW = 1;\r\n    uint256 public constant VAR_SHARD_COST_MEDIUM = 2;\r\n    uint256 public constant VAR_SHARD_COST_HIGH = 3;\r\n    uint256 public constant VAR_SKILL_USD_COST_LOW = 4;\r\n    uint256 public constant VAR_SKILL_USD_COST_MEDIUM = 5;\r\n    uint256 public constant VAR_SKILL_USD_COST_HIGH = 6;\r\n    uint256 public constant VAR_CONVERT_RATIO_DENOMINATOR = 10;\r\n    uint256 public constant VAR_DAILY_SHARDS_PER_SKILL_STAKED = 11;\r\n    uint256 public eventCount;\r\n\r\n    mapping(uint256 => EventInfo) public eventInfo;\r\n    mapping(address => mapping(uint256 => bool)) public userForgedAtEvent;\r\n    mapping(address => mapping(uint256 => uint256)) public userOrderOptionForEvent;\r\n    mapping(address => uint256) userStakedSkill;\r\n    mapping(address => uint256) userStakedSkillUpdatedTimestamp;\r\n    mapping(address => uint256) userSkillStakingShardsRewards;\r\n    mapping(uint256 => string) public specialWeaponArt;\r\n    mapping(uint256 => string) public specialWeaponDetails;\r\n    mapping(uint256 => string) public specialWeaponWebsite;\r\n    mapping(uint256 => string) public specialWeaponNote;\r\n\r\n\r\n    function initialize(Promos _promos, Weapons _weapons, SafeRandoms _safeRandoms, CryptoBlades _game, IPriceOracle _priceOracleSkillPerUsd)\r\n        public\r\n        initializer\r\n    {\r\n        __AccessControl_init();\r\n        _setupRole(DEFAULT_ADMIN_ROLE, msg.sender);\r\n        _setupRole(GAME_ADMIN, msg.sender);\r\n\r\n        promos = _promos;\r\n        weapons = _weapons;\r\n        safeRandoms = _safeRandoms;\r\n        game = _game;\r\n        priceOracleSkillPerUsd = _priceOracleSkillPerUsd;\r\n        eventCount = 0;\r\n    }\r\n\r\n    // MODIFIERS\r\n\r\n    modifier restricted() {\r\n        _restricted();\r\n        _;\r\n    }\r\n\r\n    function _restricted() internal view {\r\n        require(hasRole(GAME_ADMIN, msg.sender), \"NGA\");\r\n    }\r\n\r\n    modifier hasMinterRole() {\r\n        _hasMinterRole();\r\n        _;\r\n    }\r\n\r\n    function _hasMinterRole() internal view {\r\n        require(hasRole(MINTER_ROLE, msg.sender), \"Not minter\");\r\n    }\r\n\r\n    modifier isValidOption(uint256 orderOption) {\r\n        _isValidOption(orderOption);\r\n        _;\r\n    }\r\n\r\n    function _isValidOption(uint256 orderOption) internal pure {\r\n        require(orderOption >= 1 && orderOption <= 3, \"Invalid option\");\r\n    }\r\n\r\n    modifier isEventActive(uint256 eventId) {\r\n        _isEventActive(eventId);\r\n        _;\r\n    }\r\n\r\n    function _isEventActive(uint256 eventId) internal view {\r\n        require(getIsEventActive(eventId), \"Event inactive\");\r\n    }\r\n\r\n    modifier canBeOrdered(uint256 eventId) {\r\n        _canBeOrdered(eventId);\r\n        _;\r\n    }\r\n\r\n    function _canBeOrdered(uint256 eventId) internal view {\r\n        require(userOrderOptionForEvent[msg.sender][eventId] == 0, \"Limit 1\");\r\n        require(hasRemainingSupply(eventId), \"Sold out\");\r\n    }\r\n\r\n    // VARS\r\n\r\n    function setVar(uint256 varField, uint256 value) external restricted {\r\n        vars[varField] = value;\r\n    }\r\n\r\n    function setVars(uint256[] calldata varFields, uint256[] calldata values) external restricted {\r\n        for(uint i = 0; i < varFields.length; i++) {\r\n            vars[varFields[i]] = values[i];\r\n        }\r\n    }\r\n\r\n    // VIEWS\r\n\r\n    function getSeed(uint256 eventId) internal pure returns(uint256 seed) {\r\n        seed = uint(keccak256(abi.encodePacked(SPECIAL_WEAPON_SEED, uint(1), eventId)));\r\n    }\r\n\r\n    function getActiveEventsIds() public view returns(uint256[] memory) {\r\n        uint256[] memory activeEventIds = new uint256[](getActiveEventsCount());\r\n        uint256 arrayIterator = 0;\r\n        for(uint i = 1; i <= eventCount; i++) {\r\n            if(eventInfo[i].endTime > block.timestamp) {\r\n                activeEventIds[arrayIterator++] = i;\r\n            }\r\n        }\r\n\r\n        return activeEventIds;\r\n    }\r\n\r\n    function getActiveEventsCount() public view returns(uint256 activeEventsCount) {\r\n        for(uint i = 0; i <= eventCount; i++) {\r\n            if(getIsEventActive(i)) {\r\n                activeEventsCount++;\r\n            }\r\n        }\r\n    }\r\n\r\n    function getIsEventActive(uint256 eventId) public view returns(bool) {\r\n        return eventInfo[eventId].endTime > block.timestamp;\r\n    }\r\n\r\n    function hasRemainingSupply(uint256 eventId) public view returns(bool) {\r\n        return eventInfo[eventId].supply == 0 || eventInfo[eventId].orderedCount < eventInfo[eventId].supply;\r\n    }\r\n\r\n    function getTotalOrderedCount(uint256 eventId) public view returns(uint256) {\r\n        return eventInfo[eventId].orderedCount;\r\n    }\r\n\r\n    function getEventInfo(uint256 eventId) public view returns(string memory, uint8, uint256, uint256, uint256) {\r\n        EventInfo memory info = eventInfo[eventId];\r\n        return (info.name, info.weaponElement, info.endTime, info.supply, info.orderedCount);\r\n    }\r\n\r\n    function getUserSpecialShardsSupply(address user, uint256 eventId) public view returns(uint256) {\r\n        return userEventShardSupply[user][eventId];\r\n    }\r\n\r\n    function getUserShardsRewards(address user) public view returns(uint256) {\r\n        return userSkillStakingShardsRewards[user]\r\n            .add(userStakedSkill[user]\r\n                .mul(vars[VAR_DAILY_SHARDS_PER_SKILL_STAKED])\r\n                .mul(block.timestamp - userStakedSkillUpdatedTimestamp[user])\r\n                .div(60 * 60 * 24)\r\n                .div(1e18)\r\n            );\r\n    }\r\n\r\n    function getSkillForgeCost(uint256 orderOption) public view returns(uint256) {\r\n        return usdToSkill(ABDKMath64x64.divu(vars[orderOption + 3], 1));\r\n    }\r\n\r\n    function usdToSkill(int128 usdAmount) public view returns (uint256) {\r\n        return usdAmount.mulu(priceOracleSkillPerUsd.currentPrice());\r\n    }\r\n\r\n    function getSpecialWeaponData(uint256 eventId) public view returns (string memory, string memory, string memory, string memory) {\r\n        return (specialWeaponArt[eventId], specialWeaponDetails[eventId], specialWeaponWebsite[eventId], specialWeaponNote[eventId]);\r\n    }\r\n\r\n    // FUNCTIONS\r\n\r\n    // supply 0 = unlimited\r\n    function startNewEvent(string calldata name, uint8 element, uint256 period, uint256 supply, string calldata art, string calldata details, string calldata website, string calldata note) external restricted {\r\n        uint eventId = ++eventCount;\r\n        eventInfo[eventId] = EventInfo(\r\n            name,\r\n            element,\r\n            block.timestamp + period,\r\n            supply,\r\n            0\r\n        );\r\n        specialWeaponArt[eventId] = art;\r\n        specialWeaponDetails[eventId] = details;\r\n        specialWeaponWebsite[eventId] = website;\r\n        specialWeaponNote[eventId] = note;\r\n    }\r\n\r\n    function incrementEventCount() external restricted {\r\n        eventCount++;\r\n    }\r\n\r\n    function updateStakingReward(address user, uint256 stakingAmount) external restricted {\r\n        userSkillStakingShardsRewards[user] = getUserShardsRewards(user);\r\n        userStakedSkill[user] = stakingAmount;\r\n        userStakedSkillUpdatedTimestamp[user] = block.timestamp;\r\n    }\r\n\r\n    function claimShardRewards(uint256 eventId, uint256 amount) external {\r\n        require(amount.mul(1e18) <= getUserShardsRewards(msg.sender), \"Not enough rewards\");\r\n        userSkillStakingShardsRewards[msg.sender] = getUserShardsRewards(msg.sender).sub(amount.mul(1e18));\r\n        userStakedSkillUpdatedTimestamp[msg.sender] = block.timestamp;\r\n        userEventShardSupply[msg.sender][eventId] += amount;\r\n    }\r\n\r\n    function orderSpecialWeaponWithShards(uint256 eventId, uint256 orderOption) public canBeOrdered(eventId) isEventActive(eventId) isValidOption(orderOption) {\r\n        require(userEventShardSupply[msg.sender][eventId] >= vars[orderOption], \"Not enough shards\");\r\n        userEventShardSupply[msg.sender][eventId] -= vars[orderOption];\r\n        userOrderOptionForEvent[msg.sender][eventId] = orderOption;\r\n        eventInfo[eventId].orderedCount++;\r\n        safeRandoms.requestSingleSeed(msg.sender, getSeed(eventId));\r\n    }\r\n\r\n    function orderSpecialWeaponWithSkill(uint256 eventId, uint256 orderOption) public canBeOrdered(eventId) isEventActive(eventId) isValidOption(orderOption) {\r\n        game.payContractTokenOnly(msg.sender, getSkillForgeCost(orderOption));\r\n        userOrderOptionForEvent[msg.sender][eventId] = orderOption;\r\n        eventInfo[eventId].orderedCount++;\r\n        safeRandoms.requestSingleSeed(msg.sender, getSeed(eventId));\r\n    }\r\n\r\n    function forgeSpecialWeapon(uint256 eventId) public {\r\n        require(userOrderOptionForEvent[msg.sender][eventId] > 0, 'Nothing to forge');\r\n        require(!userForgedAtEvent[msg.sender][eventId], 'Already forged');\r\n        userForgedAtEvent[msg.sender][eventId] = true;\r\n        mintSpecial(\r\n            msg.sender,\r\n            eventId,\r\n            safeRandoms.popSingleSeed(msg.sender, getSeed(eventId), true, false),\r\n            userOrderOptionForEvent[msg.sender][eventId],\r\n            eventInfo[eventId].weaponElement\r\n        );\r\n    }\r\n\r\n    function addShards(address user, uint256 eventId, uint256 shardsAmount) external restricted isEventActive(eventId){\r\n        userEventShardSupply[user][eventId] += shardsAmount;\r\n    }\r\n\r\n    function mintSpecial(address minter, uint256 eventId, uint256 seed, uint256 orderOption, uint8 element) private returns(uint256) {\r\n        uint256 stars;\r\n        uint256 roll = seed % 100;\r\n        if(orderOption == 3) {\r\n            stars = 4;\r\n        }\r\n        else if(orderOption == 2) {\r\n            if(roll < 16) {\r\n                stars = 4;\r\n            }\r\n            else {\r\n                stars = 3;\r\n            }\r\n        }\r\n        else {\r\n            if(roll < 5) {\r\n                stars = 4;\r\n            }\r\n            else if (roll < 28) {\r\n                stars = 3;\r\n            }\r\n            else {\r\n                stars = 2;\r\n            }\r\n        }\r\n\r\n        return mintSpecialWeaponWithStars(minter, eventId, stars, seed, element);\r\n    }\r\n\r\n    function mintSpecialWeaponWithStars(address minter, uint256 eventId, uint256 stars, uint256 seed, uint8 element) private returns(uint256) {\r\n        return weapons.mintSpecialWeapon(minter, eventId, stars, seed, element);\r\n    }\r\n\r\n    function convertShards(uint256 eventIdFrom, uint256 eventIdTo, uint256 amount) external isEventActive(eventIdTo) {\r\n        require(userEventShardSupply[msg.sender][eventIdFrom] >= amount, 'Not enough shards');\r\n        userEventShardSupply[msg.sender][eventIdFrom] -= amount;\r\n        uint256 convertedAmount = amount.div(vars[VAR_CONVERT_RATIO_DENOMINATOR]);\r\n        convertedAmount += userEventShardSupply[msg.sender][eventIdFrom] == 0 && amount % vars[VAR_CONVERT_RATIO_DENOMINATOR] > 0 ? 1 : 0;\r\n        userEventShardSupply[msg.sender][eventIdTo] += convertedAmount;\r\n    }\r\n\r\n    function updateEventEndTime(uint256 eventId, uint256 endTime) external restricted {\r\n        eventInfo[eventId].endTime = endTime;\r\n    }\r\n\r\n    // MANUAL USE ONLY; DO NOT USE IN CONTRACTS!\r\n    function privatePartnerOrder(address[] calldata receivers, uint256 eventId, uint256 orderOption) external hasMinterRole isValidOption(orderOption) isEventActive(eventId) {\r\n        require(eventInfo[eventId].supply == 0 || receivers.length + eventInfo[eventId].orderedCount <= eventInfo[eventId].supply, \"Not enough supply\");\r\n        for(uint i = 0; i < receivers.length; i++) {\r\n            if(userOrderOptionForEvent[receivers[i]][eventId] != 0) continue;\r\n            userOrderOptionForEvent[receivers[i]][eventId] = orderOption;\r\n            eventInfo[eventId].orderedCount++;\r\n            safeRandoms.requestSingleSeed(receivers[i], getSeed(eventId));\r\n        }\r\n    }\r\n\r\n    // MANUAL USE ONLY; DO NOT USE IN CONTRACTS!\r\n    function privatePartnerMint(address[] calldata receivers, uint256 eventId, uint256 orderOption) external hasMinterRole isValidOption(orderOption) isEventActive(eventId) {\r\n        require(eventInfo[eventId].supply == 0 || receivers.length + eventInfo[eventId].orderedCount <= eventInfo[eventId].supply, \"Not enough supply\");\r\n        for(uint i = 0; i < receivers.length; i++) {\r\n            if(userOrderOptionForEvent[receivers[i]][eventId] != 0 || userForgedAtEvent[receivers[i]][eventId]) continue;\r\n            userOrderOptionForEvent[receivers[i]][eventId] = orderOption;\r\n            eventInfo[eventId].orderedCount++;\r\n            userForgedAtEvent[receivers[i]][eventId] = true;\r\n            mintSpecial(\r\n                receivers[i],\r\n                eventId,\r\n                uint256(keccak256(abi.encodePacked(blockhash(block.number - 1), receivers[i]))),\r\n                userOrderOptionForEvent[receivers[i]][eventId],\r\n                eventInfo[eventId].weaponElement\r\n            );\r\n        }\r\n    }\r\n\r\n    // MANUAL USE ONLY; DO NOT USE IN CONTRACTS!\r\n    function reserveForGiveaways(address reservingAddress, uint256 eventId, uint256 orderOption, uint256 amount) external hasMinterRole isValidOption(orderOption) isEventActive(eventId) {\r\n        require(eventInfo[eventId].supply == 0 || amount + eventInfo[eventId].orderedCount <= eventInfo[eventId].supply, \"Not enough supply\");\r\n        for(uint i = 0; i < amount; i++) {\r\n            eventInfo[eventId].orderedCount++;\r\n            mintSpecial(\r\n                reservingAddress,\r\n                eventId,\r\n                uint256(keccak256(abi.encodePacked(blockhash(block.number - 1), reservingAddress, i))),\r\n                orderOption,\r\n                eventInfo[eventId].weaponElement\r\n            );\r\n        }\r\n    }\r\n\r\n    // MANUAL USE ONLY; DO NOT USE IN CONTRACTS!\r\n    function createManualEvent(string calldata name, uint8 element) external restricted {\r\n        eventInfo[++eventCount] = EventInfo(\r\n            name,\r\n            element,\r\n            1, // end time 1 to differentiate from non existing events\r\n            0,\r\n            0\r\n        );\r\n    }\r\n\r\n    // MANUAL USE ONLY; DO NOT USE IN CONTRACTS!\r\n    function mintOrderOptionForManualEvent(address[] calldata receivers, uint256 eventId, uint256 orderOption) external hasMinterRole isValidOption(orderOption) {\r\n        require(eventInfo[eventId].endTime == 1, \"Wrong event id\");\r\n        for(uint i = 0; i < receivers.length; i++) {\r\n            eventInfo[eventId].orderedCount++;\r\n            mintSpecial(\r\n                receivers[i],\r\n                eventId,\r\n                uint256(keccak256(abi.encodePacked(blockhash(block.number - 1), receivers[i]))),\r\n                orderOption,\r\n                eventInfo[eventId].weaponElement\r\n            );\r\n        }\r\n    }\r\n\r\n    // MANUAL USE ONLY; DO NOT USE IN CONTRACTS!\r\n    function mintStarsForManualEvent(address[] calldata receivers, uint256 eventId, uint256 stars) external hasMinterRole {\r\n        require(eventInfo[eventId].endTime == 1, \"Wrong event id\");\r\n        require(stars >= 2 && stars <= 4, \"Wrong stars\");\r\n        for(uint i = 0; i < receivers.length; i++) {\r\n            eventInfo[eventId].orderedCount++;\r\n            mintSpecialWeaponWithStars(\r\n                receivers[i],\r\n                eventId,\r\n                stars,\r\n                uint256(keccak256(abi.encodePacked(blockhash(block.number - 1), receivers[i]))),\r\n                eventInfo[eventId].weaponElement\r\n            );\r\n        }\r\n    }\r\n\r\n    // SETTERS\r\n\r\n    function setSpecialWeaponArt(uint256 eventId, string calldata art) external restricted {\r\n        specialWeaponArt[eventId] = art;\r\n    }\r\n\r\n    function setSpecialWeaponDetails(uint256 eventId, string calldata details) external restricted {\r\n        specialWeaponDetails[eventId] = details;\r\n    }\r\n\r\n    function setSpecialWeaponWebsite(uint256 eventId, string calldata website) external restricted {\r\n        specialWeaponWebsite[eventId] = website;\r\n    }\r\n\r\n    function setSpecialWeaponNote(uint256 eventId, string calldata note) external restricted {\r\n        specialWeaponNote[eventId] = note;\r\n    }\r\n\r\n}\r\n",
  "sourcePath": "K:\\\\cryptoblades1\\cryptoblades\\contracts\\SpecialWeaponsManager.sol",
  "compiler": {
    "name": "solc",
    "version": "0.6.5+commit.f956cc89.Emscripten.clang"
  },
  "schemaVersion": "3.4.5",
  "updatedAt": "2022-09-25T08:07:36.594Z",
  "networkType": "ethereum",
  "devdoc": {
    "methods": {
      "getRoleAdmin(bytes32)": {
        "details": "Returns the admin role that controls `role`. See {grantRole} and {revokeRole}.     * To change a role's admin, use {_setRoleAdmin}."
      },
      "getRoleMember(bytes32,uint256)": {
        "details": "Returns one of the accounts that have `role`. `index` must be a value between 0 and {getRoleMemberCount}, non-inclusive.     * Role bearers are not sorted in any particular way, and their ordering may change at any point.     * WARNING: When using {getRoleMember} and {getRoleMemberCount}, make sure you perform all queries on the same block. See the following https://forum.openzeppelin.com/t/iterating-over-elements-on-enumerableset-in-openzeppelin-contracts/2296[forum post] for more information."
      },
      "getRoleMemberCount(bytes32)": {
        "details": "Returns the number of accounts that have `role`. Can be used together with {getRoleMember} to enumerate all bearers of a role."
      },
      "grantRole(bytes32,address)": {
        "details": "Grants `role` to `account`.     * If `account` had not been already granted `role`, emits a {RoleGranted} event.     * Requirements:     * - the caller must have ``role``'s admin role."
      },
      "hasRole(bytes32,address)": {
        "details": "Returns `true` if `account` has been granted `role`."
      },
      "renounceRole(bytes32,address)": {
        "details": "Revokes `role` from the calling account.     * Roles are often managed via {grantRole} and {revokeRole}: this function's purpose is to provide a mechanism for accounts to lose their privileges if they are compromised (such as when a trusted device is misplaced).     * If the calling account had been granted `role`, emits a {RoleRevoked} event.     * Requirements:     * - the caller must be `account`."
      },
      "revokeRole(bytes32,address)": {
        "details": "Revokes `role` from `account`.     * If `account` had been granted `role`, emits a {RoleRevoked} event.     * Requirements:     * - the caller must have ``role``'s admin role."
      }
    }
  },
  "userdoc": {
    "methods": {}
  }
}