{
  "contractName": "TokensManager",
  "abi": [
    {
      "anonymous": false,
      "inputs": [
        {
          "indexed": true,
          "internalType": "bytes32",
          "name": "role",
          "type": "bytes32"
        },
        {
          "indexed": true,
          "internalType": "bytes32",
          "name": "previousAdminRole",
          "type": "bytes32"
        },
        {
          "indexed": true,
          "internalType": "bytes32",
          "name": "newAdminRole",
          "type": "bytes32"
        }
      ],
      "name": "RoleAdminChanged",
      "type": "event"
    },
    {
      "anonymous": false,
      "inputs": [
        {
          "indexed": true,
          "internalType": "bytes32",
          "name": "role",
          "type": "bytes32"
        },
        {
          "indexed": true,
          "internalType": "address",
          "name": "account",
          "type": "address"
        },
        {
          "indexed": true,
          "internalType": "address",
          "name": "sender",
          "type": "address"
        }
      ],
      "name": "RoleGranted",
      "type": "event"
    },
    {
      "anonymous": false,
      "inputs": [
        {
          "indexed": true,
          "internalType": "bytes32",
          "name": "role",
          "type": "bytes32"
        },
        {
          "indexed": true,
          "internalType": "address",
          "name": "account",
          "type": "address"
        },
        {
          "indexed": true,
          "internalType": "address",
          "name": "sender",
          "type": "address"
        }
      ],
      "name": "RoleRevoked",
      "type": "event"
    },
    {
      "inputs": [],
      "name": "DEFAULT_ADMIN_ROLE",
      "outputs": [
        {
          "internalType": "bytes32",
          "name": "",
          "type": "bytes32"
        }
      ],
      "stateMutability": "view",
      "type": "function",
      "constant": true
    },
    {
      "inputs": [],
      "name": "GAME_ADMIN",
      "outputs": [
        {
          "internalType": "bytes32",
          "name": "",
          "type": "bytes32"
        }
      ],
      "stateMutability": "view",
      "type": "function",
      "constant": true
    },
    {
      "inputs": [],
      "name": "combatTokenChargePercent",
      "outputs": [
        {
          "internalType": "uint256",
          "name": "",
          "type": "uint256"
        }
      ],
      "stateMutability": "view",
      "type": "function",
      "constant": true
    },
    {
      "inputs": [],
      "name": "game",
      "outputs": [
        {
          "internalType": "contract CryptoBlades",
          "name": "",
          "type": "address"
        }
      ],
      "stateMutability": "view",
      "type": "function",
      "constant": true
    },
    {
      "inputs": [
        {
          "internalType": "bytes32",
          "name": "role",
          "type": "bytes32"
        }
      ],
      "name": "getRoleAdmin",
      "outputs": [
        {
          "internalType": "bytes32",
          "name": "",
          "type": "bytes32"
        }
      ],
      "stateMutability": "view",
      "type": "function",
      "constant": true
    },
    {
      "inputs": [
        {
          "internalType": "bytes32",
          "name": "role",
          "type": "bytes32"
        },
        {
          "internalType": "uint256",
          "name": "index",
          "type": "uint256"
        }
      ],
      "name": "getRoleMember",
      "outputs": [
        {
          "internalType": "address",
          "name": "",
          "type": "address"
        }
      ],
      "stateMutability": "view",
      "type": "function",
      "constant": true
    },
    {
      "inputs": [
        {
          "internalType": "bytes32",
          "name": "role",
          "type": "bytes32"
        }
      ],
      "name": "getRoleMemberCount",
      "outputs": [
        {
          "internalType": "uint256",
          "name": "",
          "type": "uint256"
        }
      ],
      "stateMutability": "view",
      "type": "function",
      "constant": true
    },
    {
      "inputs": [
        {
          "internalType": "bytes32",
          "name": "role",
          "type": "bytes32"
        },
        {
          "internalType": "address",
          "name": "account",
          "type": "address"
        }
      ],
      "name": "grantRole",
      "outputs": [],
      "stateMutability": "nonpayable",
      "type": "function"
    },
    {
      "inputs": [
        {
          "internalType": "bytes32",
          "name": "role",
          "type": "bytes32"
        },
        {
          "internalType": "address",
          "name": "account",
          "type": "address"
        }
      ],
      "name": "hasRole",
      "outputs": [
        {
          "internalType": "bool",
          "name": "",
          "type": "bool"
        }
      ],
      "stateMutability": "view",
      "type": "function",
      "constant": true
    },
    {
      "inputs": [],
      "name": "offsetSlippage",
      "outputs": [
        {
          "internalType": "uint8",
          "name": "",
          "type": "uint8"
        }
      ],
      "stateMutability": "view",
      "type": "function",
      "constant": true
    },
    {
      "inputs": [
        {
          "internalType": "bytes32",
          "name": "role",
          "type": "bytes32"
        },
        {
          "internalType": "address",
          "name": "account",
          "type": "address"
        }
      ],
      "name": "renounceRole",
      "outputs": [],
      "stateMutability": "nonpayable",
      "type": "function"
    },
    {
      "inputs": [
        {
          "internalType": "bytes32",
          "name": "role",
          "type": "bytes32"
        },
        {
          "internalType": "address",
          "name": "account",
          "type": "address"
        }
      ],
      "name": "revokeRole",
      "outputs": [],
      "stateMutability": "nonpayable",
      "type": "function"
    },
    {
      "inputs": [],
      "name": "skillTokenPrice",
      "outputs": [
        {
          "internalType": "uint256",
          "name": "",
          "type": "uint256"
        }
      ],
      "stateMutability": "view",
      "type": "function",
      "constant": true
    },
    {
      "inputs": [],
      "name": "tokenPrice",
      "outputs": [
        {
          "internalType": "uint256",
          "name": "",
          "type": "uint256"
        }
      ],
      "stateMutability": "view",
      "type": "function",
      "constant": true
    },
    {
      "stateMutability": "payable",
      "type": "receive",
      "payable": true
    },
    {
      "inputs": [
        {
          "internalType": "address",
          "name": "gameContract",
          "type": "address"
        }
      ],
      "name": "initialize",
      "outputs": [],
      "stateMutability": "nonpayable",
      "type": "function"
    },
    {
      "inputs": [
        {
          "internalType": "uint256",
          "name": "char",
          "type": "uint256"
        },
        {
          "internalType": "uint256",
          "name": "wep",
          "type": "uint256"
        },
        {
          "internalType": "uint32",
          "name": "target",
          "type": "uint32"
        },
        {
          "internalType": "uint8",
          "name": "fightMultiplier",
          "type": "uint8"
        }
      ],
      "name": "fight",
      "outputs": [],
      "stateMutability": "payable",
      "type": "function",
      "payable": true
    },
    {
      "inputs": [
        {
          "internalType": "address",
          "name": "addressToTransferTo",
          "type": "address"
        },
        {
          "internalType": "uint256",
          "name": "amount",
          "type": "uint256"
        }
      ],
      "name": "retrieve",
      "outputs": [],
      "stateMutability": "nonpayable",
      "type": "function"
    },
    {
      "inputs": [],
      "name": "getSkillToNativeRatio",
      "outputs": [
        {
          "internalType": "int128",
          "name": "",
          "type": "int128"
        }
      ],
      "stateMutability": "view",
      "type": "function",
      "constant": true
    },
    {
      "inputs": [
        {
          "internalType": "uint256",
          "name": "price",
          "type": "uint256"
        }
      ],
      "name": "setTokenPrice",
      "outputs": [],
      "stateMutability": "nonpayable",
      "type": "function"
    },
    {
      "inputs": [
        {
          "internalType": "uint256",
          "name": "price",
          "type": "uint256"
        }
      ],
      "name": "setSkillTokenPrice",
      "outputs": [],
      "stateMutability": "nonpayable",
      "type": "function"
    },
    {
      "inputs": [
        {
          "internalType": "uint256",
          "name": "percent",
          "type": "uint256"
        }
      ],
      "name": "setCombatTokenChargePercent",
      "outputs": [],
      "stateMutability": "nonpayable",
      "type": "function"
    },
    {
      "inputs": [
        {
          "internalType": "uint8",
          "name": "slippage",
          "type": "uint8"
        }
      ],
      "name": "setOffsetSlippage",
      "outputs": [],
      "stateMutability": "nonpayable",
      "type": "function"
    }
  ],
  "bytecode": "0x608060405234801561001057600080fd5b506111d2806100206000396000f3fe6080604052600436106101395760003560e01c80639010d07c116100ab578063c3fe3e281161006f578063c3fe3e2814610419578063c4d66de81461042e578063ca15c87314610461578063d1b44f6e1461048b578063d547741f146104b9578063ef4d235a146104f257610148565b80639010d07c1461031d57806391d1485414610369578063a217fddf146103b6578063ad43c293146103cb578063c3a2a665146103e057610148565b806336568abe116100fd57806336568abe1461022e5780635504d3d21461026757806363617b8b1461027c5780636a61e5fc146102a65780637ff9b596146102d05780638ae541cb146102e557610148565b80630283d9a81461014d5780630c37ccfb146101745780631e44da9b146101a1578063248a9ca3146101cb5780632f2ff15d146101f557610148565b366101485761014661051d565b005b600080fd5b34801561015957600080fd5b50610162610551565b60408051918252519081900360200190f35b34801561018057600080fd5b506101466004803603602081101561019757600080fd5b503560ff16610557565b3480156101ad57600080fd5b50610146600480360360208110156101c457600080fd5b5035610575565b3480156101d757600080fd5b50610162600480360360208110156101ee57600080fd5b5035610582565b34801561020157600080fd5b506101466004803603604081101561021857600080fd5b50803590602001356001600160a01b0316610597565b34801561023a57600080fd5b506101466004803603604081101561025157600080fd5b50803590602001356001600160a01b0316610603565b34801561027357600080fd5b50610162610664565b34801561028857600080fd5b506101466004803603602081101561029f57600080fd5b5035610686565b3480156102b257600080fd5b50610146600480360360208110156102c957600080fd5b5035610693565b3480156102dc57600080fd5b506101626106a0565b610146600480360360808110156102fb57600080fd5b50803590602081013590604081013563ffffffff16906060013560ff166106a6565b34801561032957600080fd5b5061034d6004803603604081101561034057600080fd5b5080359060200135610856565b604080516001600160a01b039092168252519081900360200190f35b34801561037557600080fd5b506103a26004803603604081101561038c57600080fd5b50803590602001356001600160a01b031661087d565b604080519115158252519081900360200190f35b3480156103c257600080fd5b5061016261089b565b3480156103d757600080fd5b506101626108a0565b3480156103ec57600080fd5b506101466004803603604081101561040357600080fd5b506001600160a01b0381351690602001356108a6565b34801561042557600080fd5b5061034d6108e9565b34801561043a57600080fd5b506101466004803603602081101561045157600080fd5b50356001600160a01b03166108f8565b34801561046d57600080fd5b506101626004803603602081101561048457600080fd5b50356109dc565b34801561049757600080fd5b506104a06109f3565b60408051600f92830b90920b8252519081900360200190f35b3480156104c557600080fd5b50610146600480360360408110156104dc57600080fd5b50803590602001356001600160a01b0316610a08565b3480156104fe57600080fd5b50610507610a61565b6040805160ff9092168252519081900360200190f35b604080516923a0a6a2afa0a226a4a760b11b8152905190819003600a019020610546903361087d565b61054f57600080fd5b565b60685481565b61055f61051d565b6069805460ff191660ff92909216919091179055565b61057d61051d565b606855565b60009081526033602052604090206002015490565b6000828152603360205260409020600201546105ba906105b5610a6a565b61087d565b6105f55760405162461bcd60e51b815260040180806020018281038252602f8152602001806110c0602f913960400191505060405180910390fd5b6105ff8282610a6e565b5050565b61060b610a6a565b6001600160a01b0316816001600160a01b03161461065a5760405162461bcd60e51b815260040180806020018281038252602f81526020018061116e602f913960400191505060405180910390fd5b6105ff8282610add565b604080516923a0a6a2afa0a226a4a760b11b8152905190819003600a01902081565b61068e61051d565b606655565b61069b61051d565b606755565b60675481565b6065546040805163a9f9a60b60e01b8152336004820152602481018790526044810186905263ffffffff8516606482015260ff84166084820152815160009384936001600160a01b039091169263a9f9a60b9260a4808301939282900301818787803b15801561071557600080fd5b505af1158015610729573d6000803e3d6000fd5b505050506040513d604081101561073f57600080fd5b5080516020909101519092509050600061078561075a6109f3565b610780606461077460665487610b4c90919063ffffffff16565b9063ffffffff610ba516565b610c0c565b6069549091506107ab9060649061077490849060ff90811684031663ffffffff610b4c16565b341180156107da57506069546107d79060649061077490849060ff90811684011663ffffffff610b4c16565b34105b61081a576040805162461bcd60e51b815260206004820152600c60248201526b27b33339b2ba1032b93937b960a11b604482015290519081900360640190fd5b8261084d5760405133903480156108fc02916000818181858888f1935050505015801561084b573d6000803e3d6000fd5b505b50505050505050565b6000828152603360205260408120610874908363ffffffff610c7416565b90505b92915050565b6000828152603360205260408120610874908363ffffffff610c8016565b600081565b60665481565b6108ae61051d565b6040516001600160a01b0383169082156108fc029083906000818181858888f193505050501580156108e4573d6000803e3d6000fd5b505050565b6065546001600160a01b031681565b600054610100900460ff16806109115750610911610c95565b8061091f575060005460ff16155b61095a5760405162461bcd60e51b815260040180806020018281038252602e81526020018061111f602e913960400191505060405180910390fd5b600054610100900460ff16158015610985576000805460ff1961ff0019909116610100171660011790555b61098d610ca6565b6109986000336105f5565b606580546001600160a01b0384166001600160a01b031990911617905560196066556069805460ff1916600517905580156105ff576000805461ff00191690555050565b600081815260336020526040812061087790610d48565b6000610a03606854606754610d53565b905090565b600082815260336020526040902060020154610a26906105b5610a6a565b61065a5760405162461bcd60e51b81526004018080602001828103825260308152602001806110ef6030913960400191505060405180910390fd5b60695460ff1681565b3390565b6000828152603360205260409020610a8c908263ffffffff610d9316565b156105ff57610a99610a6a565b6001600160a01b0316816001600160a01b0316837f2f8788117e7eff1d82e926ec794901d17c78024a50270940304540a733656f0d60405160405180910390a45050565b6000828152603360205260409020610afb908263ffffffff610da816565b156105ff57610b08610a6a565b6001600160a01b0316816001600160a01b0316837ff6391f5c32d9c69d2a47ea670b442974b53935d1edc7fd64eb21e047a839171b60405160405180910390a45050565b600082610b5b57506000610877565b82820282848281610b6857fe5b04146108745760405162461bcd60e51b815260040180806020018281038252602181526020018061114d6021913960400191505060405180910390fd5b6000808211610bfb576040805162461bcd60e51b815260206004820152601a60248201527f536166654d6174683a206469766973696f6e206279207a65726f000000000000604482015290519081900360640190fd5b818381610c0457fe5b049392505050565b600081610c1b57506000610877565b600083600f0b1215610c2c57600080fd5b600f83900b6001600160801b038316810260401c90608084901c026001600160c01b03811115610c5b57600080fd5b60401b8119811115610c6c57600080fd5b019392505050565b60006108748383610dbd565b6000610874836001600160a01b038416610e21565b6000610ca030610e39565b15905090565b600054610100900460ff1680610cbf5750610cbf610c95565b80610ccd575060005460ff16155b610d085760405162461bcd60e51b815260040180806020018281038252602e81526020018061111f602e913960400191505060405180910390fd5b600054610100900460ff16158015610d33576000805460ff1961ff0019909116610100171660011790555b8015610d45576000805461ff00191690555b50565b600061087782610e3f565b600081610d5f57600080fd5b6000610d6b8484610e43565b90506f7fffffffffffffffffffffffffffffff6001600160801b038216111561087457600080fd5b6000610874836001600160a01b038416610f8d565b6000610874836001600160a01b038416610fd7565b81546000908210610dff5760405162461bcd60e51b815260040180806020018281038252602281526020018061109e6022913960400191505060405180910390fd5b826000018281548110610e0e57fe5b9060005260206000200154905092915050565b60009081526001919091016020526040902054151590565b3b151590565b5490565b600081610e4f57600080fd5b60006001600160c01b038411610e745782604085901b81610e6c57fe5b049050610f79565b60c084811c6401000000008110610e8d576020918201911c5b620100008110610e9f576010918201911c5b6101008110610eb0576008918201911c5b60108110610ec0576004918201911c5b60048110610ed0576002918201911c5b60028110610edf576001820191505b60bf820360018603901c6001018260ff0387901b81610efa57fe5b0492506001600160801b03831115610f1157600080fd5b608085901c83026001600160801b038616840260c088901c604089901b82811015610f3d576001820391505b608084901b92900382811015610f54576001820391505b829003608084901c8214610f6457fe5b888181610f6d57fe5b04870196505050505050505b6001600160801b0381111561087457600080fd5b6000610f998383610e21565b610fcf57508154600181810184556000848152602080822090930184905584548482528286019093526040902091909155610877565b506000610877565b60008181526001830160205260408120548015611093578354600019808301919081019060009087908390811061100a57fe5b906000526020600020015490508087600001848154811061102757fe5b60009182526020808320909101929092558281526001898101909252604090209084019055865487908061105757fe5b60019003818190600052602060002001600090559055866001016000878152602001908152602001600020600090556001945050505050610877565b600091505061087756fe456e756d657261626c655365743a20696e646578206f7574206f6620626f756e6473416363657373436f6e74726f6c3a2073656e646572206d75737420626520616e2061646d696e20746f206772616e74416363657373436f6e74726f6c3a2073656e646572206d75737420626520616e2061646d696e20746f207265766f6b65496e697469616c697a61626c653a20636f6e747261637420697320616c726561647920696e697469616c697a6564536166654d6174683a206d756c7469706c69636174696f6e206f766572666c6f77416363657373436f6e74726f6c3a2063616e206f6e6c792072656e6f756e636520726f6c657320666f722073656c66a2646970667358221220e8c74914df64ee1de6830a89ba24e9e120e9da6042416a5a7a9f079d7dcbe61764736f6c63430006050033",
  "immutableReferences": {},
  "source": "pragma solidity ^0.6.0;\r\nimport \"@openzeppelin/contracts-upgradeable/proxy/Initializable.sol\";\r\nimport \"@openzeppelin/contracts-upgradeable/access/AccessControlUpgradeable.sol\";\r\nimport \"@openzeppelin/contracts/math/SafeMath.sol\";\r\nimport \"abdk-libraries-solidity/ABDKMath64x64.sol\";\r\nimport \"./cryptoblades.sol\";\r\n\r\ncontract TokensManager is Initializable, AccessControlUpgradeable {\r\n    using SafeMath for uint256;\r\n    using ABDKMath64x64 for int128;\r\n\r\n    bytes32 public constant GAME_ADMIN = keccak256(\"GAME_ADMIN\");\r\n\r\n    CryptoBlades public game;\r\n\r\n    uint256 public combatTokenChargePercent;\r\n    // Note: All prices are multiplied by 100\r\n    uint256 public tokenPrice;\r\n    uint256 public skillTokenPrice;\r\n    uint8 public offsetSlippage;\r\n\r\n    modifier restricted() {\r\n        _restricted();\r\n        _;\r\n    }\r\n\r\n    function _restricted() internal view {\r\n        require(hasRole(GAME_ADMIN, msg.sender));\r\n    }\r\n\r\n    function initialize(\r\n        address gameContract\r\n    ) public initializer {\r\n        __AccessControl_init_unchained();\r\n        _setupRole(DEFAULT_ADMIN_ROLE, msg.sender);\r\n\r\n        game = CryptoBlades(gameContract);\r\n        combatTokenChargePercent = 25;\r\n        offsetSlippage = 5;\r\n    }\r\n\r\n    receive() external payable restricted {\r\n    }\r\n\r\n    function fight(uint256 char, uint256 wep, uint32 target, uint8 fightMultiplier) external payable {\r\n        (uint256 tokens, uint256 expectedTokens) = game.fight(msg.sender, char, wep, target, fightMultiplier);\r\n\r\n        uint256 offset = ABDKMath64x64.mulu(getSkillToNativeRatio(), expectedTokens.mul(combatTokenChargePercent).div(100));\r\n\r\n        require(\r\n            msg.value > offset.mul(100 - offsetSlippage).div(100) && msg.value < offset.mul(100 + offsetSlippage).div(100),\r\n            'Offset error'\r\n            );\r\n\r\n        if (tokens == 0) {\r\n            payable(msg.sender).transfer(msg.value);\r\n        }\r\n    }\r\n\r\n    function retrieve(address addressToTransferTo, uint256 amount) external restricted {\r\n        payable(addressToTransferTo).transfer(amount);\r\n    }\r\n\r\n    function getSkillToNativeRatio() public view returns (int128) {\r\n        return ABDKMath64x64.divu(skillTokenPrice, tokenPrice);\r\n    }\r\n\r\n    function setTokenPrice(uint256 price) external restricted {\r\n        tokenPrice = price;\r\n    }\r\n\r\n    function setSkillTokenPrice(uint256 price) external restricted {\r\n        skillTokenPrice = price;\r\n    }\r\n\r\n    function setCombatTokenChargePercent(uint256 percent) external restricted {\r\n        combatTokenChargePercent = percent;\r\n    }\r\n\r\n    function setOffsetSlippage(uint8 slippage) external restricted {\r\n        offsetSlippage = slippage;\r\n    }\r\n}",
  "sourcePath": "K:\\\\cryptoblades1\\cryptoblades\\contracts\\TokensManager.sol",
  "compiler": {
    "name": "solc",
    "version": "0.6.5+commit.f956cc89.Emscripten.clang"
  },
  "schemaVersion": "3.4.5",
  "updatedAt": "2022-09-25T08:11:23.014Z",
  "networkType": "ethereum",
  "devdoc": {
    "methods": {
      "getRoleAdmin(bytes32)": {
        "details": "Returns the admin role that controls `role`. See {grantRole} and {revokeRole}.     * To change a role's admin, use {_setRoleAdmin}."
      },
      "getRoleMember(bytes32,uint256)": {
        "details": "Returns one of the accounts that have `role`. `index` must be a value between 0 and {getRoleMemberCount}, non-inclusive.     * Role bearers are not sorted in any particular way, and their ordering may change at any point.     * WARNING: When using {getRoleMember} and {getRoleMemberCount}, make sure you perform all queries on the same block. See the following https://forum.openzeppelin.com/t/iterating-over-elements-on-enumerableset-in-openzeppelin-contracts/2296[forum post] for more information."
      },
      "getRoleMemberCount(bytes32)": {
        "details": "Returns the number of accounts that have `role`. Can be used together with {getRoleMember} to enumerate all bearers of a role."
      },
      "grantRole(bytes32,address)": {
        "details": "Grants `role` to `account`.     * If `account` had not been already granted `role`, emits a {RoleGranted} event.     * Requirements:     * - the caller must have ``role``'s admin role."
      },
      "hasRole(bytes32,address)": {
        "details": "Returns `true` if `account` has been granted `role`."
      },
      "renounceRole(bytes32,address)": {
        "details": "Revokes `role` from the calling account.     * Roles are often managed via {grantRole} and {revokeRole}: this function's purpose is to provide a mechanism for accounts to lose their privileges if they are compromised (such as when a trusted device is misplaced).     * If the calling account had been granted `role`, emits a {RoleRevoked} event.     * Requirements:     * - the caller must be `account`."
      },
      "revokeRole(bytes32,address)": {
        "details": "Revokes `role` from `account`.     * If `account` had been granted `role`, emits a {RoleRevoked} event.     * Requirements:     * - the caller must have ``role``'s admin role."
      }
    }
  },
  "userdoc": {
    "methods": {}
  }
}