{
  "contractName": "Treasury",
  "abi": [
    {
      "anonymous": false,
      "inputs": [
        {
          "indexed": true,
          "internalType": "bytes32",
          "name": "role",
          "type": "bytes32"
        },
        {
          "indexed": true,
          "internalType": "bytes32",
          "name": "previousAdminRole",
          "type": "bytes32"
        },
        {
          "indexed": true,
          "internalType": "bytes32",
          "name": "newAdminRole",
          "type": "bytes32"
        }
      ],
      "name": "RoleAdminChanged",
      "type": "event"
    },
    {
      "anonymous": false,
      "inputs": [
        {
          "indexed": true,
          "internalType": "bytes32",
          "name": "role",
          "type": "bytes32"
        },
        {
          "indexed": true,
          "internalType": "address",
          "name": "account",
          "type": "address"
        },
        {
          "indexed": true,
          "internalType": "address",
          "name": "sender",
          "type": "address"
        }
      ],
      "name": "RoleGranted",
      "type": "event"
    },
    {
      "anonymous": false,
      "inputs": [
        {
          "indexed": true,
          "internalType": "bytes32",
          "name": "role",
          "type": "bytes32"
        },
        {
          "indexed": true,
          "internalType": "address",
          "name": "account",
          "type": "address"
        },
        {
          "indexed": true,
          "internalType": "address",
          "name": "sender",
          "type": "address"
        }
      ],
      "name": "RoleRevoked",
      "type": "event"
    },
    {
      "anonymous": false,
      "inputs": [
        {
          "indexed": true,
          "internalType": "address",
          "name": "sender",
          "type": "address"
        },
        {
          "indexed": true,
          "internalType": "uint256",
          "name": "partnerId",
          "type": "uint256"
        },
        {
          "indexed": false,
          "internalType": "uint256",
          "name": "claimedAmount",
          "type": "uint256"
        },
        {
          "indexed": false,
          "internalType": "uint256",
          "name": "currentMultiplier",
          "type": "uint256"
        }
      ],
      "name": "TreasuryClaimed",
      "type": "event"
    },
    {
      "inputs": [],
      "name": "DEFAULT_ADMIN_ROLE",
      "outputs": [
        {
          "internalType": "bytes32",
          "name": "",
          "type": "bytes32"
        }
      ],
      "stateMutability": "view",
      "type": "function",
      "constant": true
    },
    {
      "inputs": [],
      "name": "GAME_ADMIN",
      "outputs": [
        {
          "internalType": "bytes32",
          "name": "",
          "type": "bytes32"
        }
      ],
      "stateMutability": "view",
      "type": "function",
      "constant": true
    },
    {
      "inputs": [],
      "name": "defaultSlippage",
      "outputs": [
        {
          "internalType": "uint256",
          "name": "",
          "type": "uint256"
        }
      ],
      "stateMutability": "view",
      "type": "function",
      "constant": true
    },
    {
      "inputs": [],
      "name": "game",
      "outputs": [
        {
          "internalType": "contract CryptoBlades",
          "name": "",
          "type": "address"
        }
      ],
      "stateMutability": "view",
      "type": "function",
      "constant": true
    },
    {
      "inputs": [
        {
          "internalType": "bytes32",
          "name": "role",
          "type": "bytes32"
        }
      ],
      "name": "getRoleAdmin",
      "outputs": [
        {
          "internalType": "bytes32",
          "name": "",
          "type": "bytes32"
        }
      ],
      "stateMutability": "view",
      "type": "function",
      "constant": true
    },
    {
      "inputs": [
        {
          "internalType": "bytes32",
          "name": "role",
          "type": "bytes32"
        },
        {
          "internalType": "uint256",
          "name": "index",
          "type": "uint256"
        }
      ],
      "name": "getRoleMember",
      "outputs": [
        {
          "internalType": "address",
          "name": "",
          "type": "address"
        }
      ],
      "stateMutability": "view",
      "type": "function",
      "constant": true
    },
    {
      "inputs": [
        {
          "internalType": "bytes32",
          "name": "role",
          "type": "bytes32"
        }
      ],
      "name": "getRoleMemberCount",
      "outputs": [
        {
          "internalType": "uint256",
          "name": "",
          "type": "uint256"
        }
      ],
      "stateMutability": "view",
      "type": "function",
      "constant": true
    },
    {
      "inputs": [
        {
          "internalType": "bytes32",
          "name": "role",
          "type": "bytes32"
        },
        {
          "internalType": "address",
          "name": "account",
          "type": "address"
        }
      ],
      "name": "grantRole",
      "outputs": [],
      "stateMutability": "nonpayable",
      "type": "function"
    },
    {
      "inputs": [
        {
          "internalType": "bytes32",
          "name": "role",
          "type": "bytes32"
        },
        {
          "internalType": "address",
          "name": "account",
          "type": "address"
        }
      ],
      "name": "hasRole",
      "outputs": [
        {
          "internalType": "bool",
          "name": "",
          "type": "bool"
        }
      ],
      "stateMutability": "view",
      "type": "function",
      "constant": true
    },
    {
      "inputs": [],
      "name": "multiplierUnit",
      "outputs": [
        {
          "internalType": "uint256",
          "name": "",
          "type": "uint256"
        }
      ],
      "stateMutability": "view",
      "type": "function",
      "constant": true
    },
    {
      "inputs": [
        {
          "internalType": "uint256",
          "name": "",
          "type": "uint256"
        }
      ],
      "name": "partneredProjects",
      "outputs": [
        {
          "internalType": "uint256",
          "name": "id",
          "type": "uint256"
        },
        {
          "internalType": "string",
          "name": "name",
          "type": "string"
        },
        {
          "internalType": "string",
          "name": "tokenSymbol",
          "type": "string"
        },
        {
          "internalType": "address",
          "name": "tokenAddress",
          "type": "address"
        },
        {
          "internalType": "uint256",
          "name": "tokenSupply",
          "type": "uint256"
        },
        {
          "internalType": "uint256",
          "name": "tokenPrice",
          "type": "uint256"
        },
        {
          "internalType": "bool",
          "name": "isActive",
          "type": "bool"
        }
      ],
      "stateMutability": "view",
      "type": "function",
      "constant": true
    },
    {
      "inputs": [
        {
          "internalType": "uint256",
          "name": "",
          "type": "uint256"
        }
      ],
      "name": "projectDetails",
      "outputs": [
        {
          "internalType": "string",
          "name": "",
          "type": "string"
        }
      ],
      "stateMutability": "view",
      "type": "function",
      "constant": true
    },
    {
      "inputs": [
        {
          "internalType": "uint256",
          "name": "",
          "type": "uint256"
        }
      ],
      "name": "projectDistributionTime",
      "outputs": [
        {
          "internalType": "uint256",
          "name": "",
          "type": "uint256"
        }
      ],
      "stateMutability": "view",
      "type": "function",
      "constant": true
    },
    {
      "inputs": [
        {
          "internalType": "uint256",
          "name": "",
          "type": "uint256"
        }
      ],
      "name": "projectLogo",
      "outputs": [
        {
          "internalType": "string",
          "name": "",
          "type": "string"
        }
      ],
      "stateMutability": "view",
      "type": "function",
      "constant": true
    },
    {
      "inputs": [
        {
          "internalType": "uint256",
          "name": "",
          "type": "uint256"
        }
      ],
      "name": "projectNote",
      "outputs": [
        {
          "internalType": "string",
          "name": "",
          "type": "string"
        }
      ],
      "stateMutability": "view",
      "type": "function",
      "constant": true
    },
    {
      "inputs": [
        {
          "internalType": "uint256",
          "name": "",
          "type": "uint256"
        }
      ],
      "name": "projectWebsite",
      "outputs": [
        {
          "internalType": "string",
          "name": "",
          "type": "string"
        }
      ],
      "stateMutability": "view",
      "type": "function",
      "constant": true
    },
    {
      "inputs": [
        {
          "internalType": "bytes32",
          "name": "role",
          "type": "bytes32"
        },
        {
          "internalType": "address",
          "name": "account",
          "type": "address"
        }
      ],
      "name": "renounceRole",
      "outputs": [],
      "stateMutability": "nonpayable",
      "type": "function"
    },
    {
      "inputs": [
        {
          "internalType": "bytes32",
          "name": "role",
          "type": "bytes32"
        },
        {
          "internalType": "address",
          "name": "account",
          "type": "address"
        }
      ],
      "name": "revokeRole",
      "outputs": [],
      "stateMutability": "nonpayable",
      "type": "function"
    },
    {
      "inputs": [],
      "name": "skillPrice",
      "outputs": [
        {
          "internalType": "uint256",
          "name": "",
          "type": "uint256"
        }
      ],
      "stateMutability": "view",
      "type": "function",
      "constant": true
    },
    {
      "inputs": [
        {
          "internalType": "uint256",
          "name": "",
          "type": "uint256"
        }
      ],
      "name": "tokensClaimed",
      "outputs": [
        {
          "internalType": "uint256",
          "name": "",
          "type": "uint256"
        }
      ],
      "stateMutability": "view",
      "type": "function",
      "constant": true
    },
    {
      "inputs": [
        {
          "internalType": "contract CryptoBlades",
          "name": "_game",
          "type": "address"
        }
      ],
      "name": "initialize",
      "outputs": [],
      "stateMutability": "nonpayable",
      "type": "function"
    },
    {
      "inputs": [],
      "name": "getAmountOfActiveProjects",
      "outputs": [
        {
          "internalType": "uint256",
          "name": "activeCount",
          "type": "uint256"
        }
      ],
      "stateMutability": "view",
      "type": "function",
      "constant": true
    },
    {
      "inputs": [],
      "name": "getActivePartnerProjectsIds",
      "outputs": [
        {
          "internalType": "uint256[]",
          "name": "activeProjectsIds",
          "type": "uint256[]"
        }
      ],
      "stateMutability": "view",
      "type": "function",
      "constant": true
    },
    {
      "inputs": [
        {
          "internalType": "uint256",
          "name": "partnerId",
          "type": "uint256"
        }
      ],
      "name": "getProjectMultiplier",
      "outputs": [
        {
          "internalType": "uint256",
          "name": "",
          "type": "uint256"
        }
      ],
      "stateMutability": "view",
      "type": "function",
      "constant": true
    },
    {
      "inputs": [
        {
          "internalType": "uint256",
          "name": "partnerId",
          "type": "uint256"
        }
      ],
      "name": "getSkillToPartnerRatio",
      "outputs": [
        {
          "internalType": "int128",
          "name": "",
          "type": "int128"
        }
      ],
      "stateMutability": "view",
      "type": "function",
      "constant": true
    },
    {
      "inputs": [
        {
          "internalType": "uint256",
          "name": "partnerId",
          "type": "uint256"
        }
      ],
      "name": "getRemainingPartnerTokenSupply",
      "outputs": [
        {
          "internalType": "uint256",
          "name": "",
          "type": "uint256"
        }
      ],
      "stateMutability": "view",
      "type": "function",
      "constant": true
    },
    {
      "inputs": [
        {
          "internalType": "uint256",
          "name": "partnerId",
          "type": "uint256"
        },
        {
          "internalType": "uint256",
          "name": "skillAmount",
          "type": "uint256"
        }
      ],
      "name": "getAmountInPartnerToken",
      "outputs": [
        {
          "internalType": "uint256",
          "name": "amountWithMultiplier",
          "type": "uint256"
        }
      ],
      "stateMutability": "view",
      "type": "function",
      "constant": true
    },
    {
      "inputs": [
        {
          "internalType": "uint256",
          "name": "partnerId",
          "type": "uint256"
        }
      ],
      "name": "getProjectData",
      "outputs": [
        {
          "internalType": "string",
          "name": "",
          "type": "string"
        },
        {
          "internalType": "string",
          "name": "",
          "type": "string"
        },
        {
          "internalType": "string",
          "name": "",
          "type": "string"
        },
        {
          "internalType": "string",
          "name": "",
          "type": "string"
        }
      ],
      "stateMutability": "view",
      "type": "function",
      "constant": true
    },
    {
      "inputs": [
        {
          "internalType": "string",
          "name": "name",
          "type": "string"
        },
        {
          "internalType": "string",
          "name": "tokenSymbol",
          "type": "string"
        },
        {
          "internalType": "address",
          "name": "tokenAddress",
          "type": "address"
        },
        {
          "internalType": "uint256",
          "name": "tokenSupply",
          "type": "uint256"
        },
        {
          "internalType": "uint256",
          "name": "tokenPrice",
          "type": "uint256"
        },
        {
          "internalType": "uint256",
          "name": "distributionTime",
          "type": "uint256"
        },
        {
          "internalType": "bool",
          "name": "isActive",
          "type": "bool"
        },
        {
          "internalType": "string",
          "name": "logo",
          "type": "string"
        },
        {
          "internalType": "string",
          "name": "details",
          "type": "string"
        },
        {
          "internalType": "string",
          "name": "website",
          "type": "string"
        },
        {
          "internalType": "string",
          "name": "note",
          "type": "string"
        }
      ],
      "name": "addPartnerProject",
      "outputs": [],
      "stateMutability": "nonpayable",
      "type": "function"
    },
    {
      "inputs": [
        {
          "internalType": "uint256",
          "name": "partnerId",
          "type": "uint256"
        }
      ],
      "name": "claim",
      "outputs": [],
      "stateMutability": "nonpayable",
      "type": "function"
    },
    {
      "inputs": [
        {
          "internalType": "uint256",
          "name": "partnerId",
          "type": "uint256"
        },
        {
          "internalType": "uint256",
          "name": "skillClaimingAmount",
          "type": "uint256"
        },
        {
          "internalType": "uint256",
          "name": "currentMultiplier",
          "type": "uint256"
        },
        {
          "internalType": "uint256",
          "name": "slippage",
          "type": "uint256"
        }
      ],
      "name": "claim",
      "outputs": [],
      "stateMutability": "nonpayable",
      "type": "function"
    },
    {
      "inputs": [
        {
          "internalType": "uint256",
          "name": "unit",
          "type": "uint256"
        }
      ],
      "name": "setMultiplierUnit",
      "outputs": [],
      "stateMutability": "nonpayable",
      "type": "function"
    },
    {
      "inputs": [
        {
          "internalType": "uint256",
          "name": "id",
          "type": "uint256"
        },
        {
          "internalType": "bool",
          "name": "isActive",
          "type": "bool"
        }
      ],
      "name": "setIsActive",
      "outputs": [],
      "stateMutability": "nonpayable",
      "type": "function"
    },
    {
      "inputs": [
        {
          "internalType": "uint256",
          "name": "newPrice",
          "type": "uint256"
        }
      ],
      "name": "setSkillPrice",
      "outputs": [],
      "stateMutability": "nonpayable",
      "type": "function"
    },
    {
      "inputs": [
        {
          "internalType": "uint256",
          "name": "partnerId",
          "type": "uint256"
        },
        {
          "internalType": "uint256",
          "name": "newPrice",
          "type": "uint256"
        }
      ],
      "name": "setPartnerTokenPrice",
      "outputs": [],
      "stateMutability": "nonpayable",
      "type": "function"
    },
    {
      "inputs": [
        {
          "internalType": "uint256",
          "name": "partnerId",
          "type": "uint256"
        },
        {
          "internalType": "uint256",
          "name": "distributionTime",
          "type": "uint256"
        }
      ],
      "name": "setDistributionTime",
      "outputs": [],
      "stateMutability": "nonpayable",
      "type": "function"
    },
    {
      "inputs": [
        {
          "internalType": "uint256",
          "name": "newSlippage",
          "type": "uint256"
        }
      ],
      "name": "setDefaultSlippage",
      "outputs": [],
      "stateMutability": "nonpayable",
      "type": "function"
    },
    {
      "inputs": [
        {
          "internalType": "uint256",
          "name": "partnerId",
          "type": "uint256"
        },
        {
          "internalType": "string",
          "name": "logo",
          "type": "string"
        }
      ],
      "name": "setProjectLogo",
      "outputs": [],
      "stateMutability": "nonpayable",
      "type": "function"
    },
    {
      "inputs": [
        {
          "internalType": "uint256",
          "name": "partnerId",
          "type": "uint256"
        },
        {
          "internalType": "string",
          "name": "details",
          "type": "string"
        }
      ],
      "name": "setProjectDetails",
      "outputs": [],
      "stateMutability": "nonpayable",
      "type": "function"
    },
    {
      "inputs": [
        {
          "internalType": "uint256",
          "name": "partnerId",
          "type": "uint256"
        },
        {
          "internalType": "string",
          "name": "website",
          "type": "string"
        }
      ],
      "name": "setProjectWebsite",
      "outputs": [],
      "stateMutability": "nonpayable",
      "type": "function"
    },
    {
      "inputs": [
        {
          "internalType": "uint256",
          "name": "partnerId",
          "type": "uint256"
        },
        {
          "internalType": "string",
          "name": "note",
          "type": "string"
        }
      ],
      "name": "setProjectNote",
      "outputs": [],
      "stateMutability": "nonpayable",
      "type": "function"
    }
  ],
  "bytecode": "0x608060405234801561001057600080fd5b50612fc2806100206000396000f3fe608060405234801561001057600080fd5b50600436106102535760003560e01c80639010d07c11610146578063d5c26c4a116100c3578063e2356f0b11610087578063e2356f0b14610d46578063ea52e8ca14610d6b578063ec753e7b14610d73578063ed25e8cf14610d90578063f6acc34c14610e05578063f949cdd614610e2257610253565b8063d5c26c4a14610cc4578063d83cedef14610ce7578063dcdb525a14610d04578063dd45240b14610d21578063e1408cee14610d2957610253565b8063c3fe3e281161010a578063c3fe3e2814610bd8578063c4d66de814610be0578063ca15c87314610c06578063d075066b14610c23578063d547741f14610c9857610253565b80639010d07c14610b1a57806391d1485414610b59578063a217fddf14610b99578063b523595914610ba1578063b5add71714610ba957610253565b80633f522c8a116101d457806358f36c131161019857806358f36c13146107d757806360f1d89d1461099e578063757c9dff146109f65780637b3b7c2414610a6b5780638dd91a5614610a8857610253565b80633f522c8a1461076a57806344bd1afd14610787578063485cf437146107a45780635487404a146107c75780635504d3d2146107cf57610253565b8063248a9ca31161021b578063248a9ca3146106bb57806328052c92146106d85780632f2ff15d146106f557806336568abe14610721578063379607f51461074d57610253565b806302a7efcc14610258578063032a56091461027d5780631364c2c7146102f2578063138ac0ac146106565780631640b7fd14610685575b600080fd5b61027b6004803603604081101561026e57600080fd5b5080359060200135610f56565b005b61027b6004803603604081101561029357600080fd5b81359190810190604081016020820135600160201b8111156102b457600080fd5b8201836020820111156102c657600080fd5b803590602001918460018302840111600160201b831117156102e757600080fd5b509092509050610f92565b61027b600480360361016081101561030957600080fd5b810190602081018135600160201b81111561032357600080fd5b82018360208201111561033557600080fd5b803590602001918460018302840111600160201b8311171561035657600080fd5b91908080601f0160208091040260200160405190810160405280939291908181526020018383808284376000920191909152509295949360208101935035915050600160201b8111156103a857600080fd5b8201836020820111156103ba57600080fd5b803590602001918460018302840111600160201b831117156103db57600080fd5b91908080601f01602080910402602001604051908101604052809392919081815260200183838082843760009201919091525092956001600160a01b0385351695602086013595604081013595506060810135945060808101351515935060c081019060a00135600160201b81111561045357600080fd5b82018360208201111561046557600080fd5b803590602001918460018302840111600160201b8311171561048657600080fd5b91908080601f0160208091040260200160405190810160405280939291908181526020018383808284376000920191909152509295949360208101935035915050600160201b8111156104d857600080fd5b8201836020820111156104ea57600080fd5b803590602001918460018302840111600160201b8311171561050b57600080fd5b91908080601f0160208091040260200160405190810160405280939291908181526020018383808284376000920191909152509295949360208101935035915050600160201b81111561055d57600080fd5b82018360208201111561056f57600080fd5b803590602001918460018302840111600160201b8311171561059057600080fd5b91908080601f0160208091040260200160405190810160405280939291908181526020018383808284376000920191909152509295949360208101935035915050600160201b8111156105e257600080fd5b8201836020820111156105f457600080fd5b803590602001918460018302840111600160201b8311171561061557600080fd5b91908080601f016020809104026020016040519081016040528093929190818152602001838380828437600092019190915250929550610fb9945050505050565b6106736004803603602081101561066c57600080fd5b5035611194565b60408051918252519081900360200190f35b6106a26004803603602081101561069b57600080fd5b5035611276565b60408051600f92830b90920b8252519081900360200190f35b610673600480360360208110156106d157600080fd5b50356112a8565b610673600480360360208110156106ee57600080fd5b50356112bd565b61027b6004803603604081101561070b57600080fd5b50803590602001356001600160a01b031661131b565b61027b6004803603604081101561073757600080fd5b50803590602001356001600160a01b0316611387565b61027b6004803603602081101561076357600080fd5b50356113e8565b6106736004803603602081101561078057600080fd5b5035611479565b61027b6004803603602081101561079d57600080fd5b503561148b565b61027b600480360360408110156107ba57600080fd5b5080359060200135611498565b6106736114b2565b6106736114b8565b6107f4600480360360208110156107ed57600080fd5b50356114da565b6040518080602001806020018060200180602001858103855289818151815260200191508051906020019080838360005b8381101561083d578181015183820152602001610825565b50505050905090810190601f16801561086a5780820380516001836020036101000a031916815260200191505b5085810384528851815288516020918201918a019080838360005b8381101561089d578181015183820152602001610885565b50505050905090810190601f1680156108ca5780820380516001836020036101000a031916815260200191505b50858103835287518152875160209182019189019080838360005b838110156108fd5781810151838201526020016108e5565b50505050905090810190601f16801561092a5780820380516001836020036101000a031916815260200191505b50858103825286518152865160209182019188019080838360005b8381101561095d578181015183820152602001610945565b50505050905090810190601f16801561098a5780820380516001836020036101000a031916815260200191505b509850505050505050505060405180910390f35b6109a6611750565b60408051602080825283518183015283519192839290830191858101910280838360005b838110156109e25781810151838201526020016109ca565b505050509050019250505060405180910390f35b61027b60048036036040811015610a0c57600080fd5b81359190810190604081016020820135600160201b811115610a2d57600080fd5b820183602082011115610a3f57600080fd5b803590602001918460018302840111600160201b83111715610a6057600080fd5b509092509050611807565b61027b60048036036020811015610a8157600080fd5b5035611828565b610aa560048036036020811015610a9e57600080fd5b5035611835565b6040805160208082528351818301528351919283929083019185019080838360005b83811015610adf578181015183820152602001610ac7565b50505050905090810190601f168015610b0c5780820380516001836020036101000a031916815260200191505b509250505060405180910390f35b610b3d60048036036040811015610b3057600080fd5b50803590602001356118d0565b604080516001600160a01b039092168252519081900360200190f35b610b8560048036036040811015610b6f57600080fd5b50803590602001356001600160a01b03166118f5565b604080519115158252519081900360200190f35b610673611913565b610673611918565b61027b60048036036080811015610bbf57600080fd5b508035906020810135906040810135906060013561191e565b610b3d611d4c565b61027b60048036036020811015610bf657600080fd5b50356001600160a01b0316611d5b565b61067360048036036020811015610c1c57600080fd5b5035611e5a565b61027b60048036036040811015610c3957600080fd5b81359190810190604081016020820135600160201b811115610c5a57600080fd5b820183602082011115610c6c57600080fd5b803590602001918460018302840111600160201b83111715610c8d57600080fd5b509092509050611e71565b61027b60048036036040811015610cae57600080fd5b50803590602001356001600160a01b0316611e92565b61067360048036036040811015610cda57600080fd5b5080359060200135611eeb565b61027b60048036036020811015610cfd57600080fd5b5035611f39565b610aa560048036036020811015610d1a57600080fd5b5035611f53565b610673611fbb565b610aa560048036036020811015610d3f57600080fd5b5035612005565b61027b60048036036040811015610d5c57600080fd5b5080359060200135151561206d565b6106736120a9565b610aa560048036036020811015610d8957600080fd5b50356120af565b61027b60048036036040811015610da657600080fd5b81359190810190604081016020820135600160201b811115610dc757600080fd5b820183602082011115610dd957600080fd5b803590602001918460018302840111600160201b83111715610dfa57600080fd5b509092509050612117565b61067360048036036020811015610e1b57600080fd5b5035612138565b610e3f60048036036020811015610e3857600080fd5b503561214a565b604051808881526020018060200180602001876001600160a01b03166001600160a01b0316815260200186815260200185815260200184151515158152602001838103835289818151815260200191508051906020019080838360005b83811015610eb4578181015183820152602001610e9c565b50505050905090810190601f168015610ee15780820380516001836020036101000a031916815260200191505b5083810382528851815288516020918201918a019080838360005b83811015610f14578181015183820152602001610efc565b50505050905090810190601f168015610f415780820380516001836020036101000a031916815260200191505b50995050505050505050505060405180910390f35b610f5e6122cb565b60008111610f6b57600080fd5b8060668381548110610f7957fe5b9060005260206000209060070201600501819055505050565b610f9a6122cb565b6000838152606f60205260409020610fb3908383612d33565b50505050565b610fc16122cb565b6000606680549050905042606c6000838152602001908152602001600020819055506000606860008381526020019081526020016000208190555060666040518060e001604052808381526020018e81526020018d81526020018c6001600160a01b031681526020018b81526020018a8152602001881515815250908060018154018082558091505060019003906000526020600020906007020160009091909190915060008201518160000155602082015181600101908051906020019061108b929190612dad565b50604082015180516110a7916002840191602090910190612dad565b5060608201516003820180546001600160a01b0319166001600160a01b039092169190911790556080820151600482015560a0820151600582015560c0909101516006909101805460ff19169115159190911790556000818152606b602090815260408083208a9055606e8252909120865161112592880190612dad565b506000818152606f60209081526040909120855161114592870190612dad565b506000818152607060209081526040909120845161116592860190612dad565b506000818152607160209081526040909120835161118592850190612dad565b50505050505050505050505050565b6000818152606c60205260408120544210611216576000828152606c602052604090205461120f90670de0b6b3a764000090611203906111db90429063ffffffff61233816565b6065546111f790670de0b6b3a76400009063ffffffff61239516565b9063ffffffff6123fc16565b9063ffffffff61245516565b9050611271565b6000828152606c6020526040812054611239906111db904263ffffffff61233816565b9050670de0b6b3a7640000811115611255576000915050611271565b61126d670de0b6b3a76400008263ffffffff61233816565b9150505b919050565b60006112a26069546066848154811061128b57fe5b9060005260206000209060070201600501546124af565b92915050565b60009081526033602052604090206002015490565b60006112a2606860008481526020019081526020016000205461130f670de0b6b3a7640000606686815481106112ef57fe5b9060005260206000209060070201600401546123fc90919063ffffffff16565b9063ffffffff61233816565b60008281526033602052604090206002015461133e906113396124ef565b6118f5565b6113795760405162461bcd60e51b815260040180806020018281038252602f815260200180612e58602f913960400191505060405180910390fd5b61138382826124f4565b5050565b61138f6124ef565b6001600160a01b0316816001600160a01b0316146113de5760405162461bcd60e51b815260040180806020018281038252602f815260200180612f5e602f913960400191505060405180910390fd5b6113838282612563565b606a5460408051637998b3fd60e01b815233600482015290516114769284926001600160a01b0390911691637998b3fd91602480820192602092909190829003018186803b15801561143957600080fd5b505afa15801561144d573d6000803e3d6000fd5b505050506040513d602081101561146357600080fd5b505161146e84611194565b606d5461191e565b50565b60686020526000908152604090205481565b6114936122cb565b606d55565b6114a06122cb565b6000918252606b602052604090912055565b606d5481565b604080516923a0a6a2afa0a226a4a760b11b8152905190819003600a01902081565b6000818152606e60209081526040808320606f83528184206070845282852060718552948390208254845160026001831615610100026000190190921691909104601f810187900487028201870190955284815260609687968796879695949293918691908301828280156115905780601f1061156557610100808354040283529160200191611590565b820191906000526020600020905b81548152906001019060200180831161157357829003601f168201915b5050865460408051602060026001851615610100026000190190941693909304601f81018490048402820184019092528181529599508894509250840190508282801561161e5780601f106115f35761010080835404028352916020019161161e565b820191906000526020600020905b81548152906001019060200180831161160157829003601f168201915b5050855460408051602060026001851615610100026000190190941693909304601f8101849004840282018401909252818152959850879450925084019050828280156116ac5780601f10611681576101008083540402835291602001916116ac565b820191906000526020600020905b81548152906001019060200180831161168f57829003601f168201915b5050845460408051602060026001851615610100026000190190941693909304601f81018490048402820184019092528181529597508694509250840190508282801561173a5780601f1061170f5761010080835404028352916020019161173a565b820191906000526020600020905b81548152906001019060200180831161171d57829003601f168201915b5050505050905093509350935093509193509193565b6060600061175c611fbb565b905060008167ffffffffffffffff8111801561177757600080fd5b506040519080825280602002602001820160405280156117a1578160200160208202803683370190505b50925060005b60665481101561180157606681815481106117be57fe5b600091825260209091206006600790920201015460ff16156117f957808483815181106117e757fe5b60209081029190910101526001909101905b6001016117a7565b50505090565b61180f6122cb565b6000838152607160205260409020610fb3908383612d33565b6118306122cb565b606555565b606f6020908152600091825260409182902080548351601f6002600019610100600186161502019093169290920491820184900484028101840190945280845290918301828280156118c85780601f1061189d576101008083540402835291602001916118c8565b820191906000526020600020905b8154815290600101906020018083116118ab57829003601f168201915b505050505081565b60008281526033602052604081206118ee908363ffffffff6125d216565b9392505050565b60008281526033602052604081206118ee908363ffffffff6125de16565b600081565b60695481565b606a5460408051637998b3fd60e01b8152336004820152905185926001600160a01b031691637998b3fd916024808301926020929190829003018186803b15801561196857600080fd5b505afa15801561197c573d6000803e3d6000fd5b505050506040513d602081101561199257600080fd5b505110156119d15760405162461bcd60e51b815260040180806020018281038252602e815260200180612e87602e913960400191505060405180910390fd5b60006119dc85611194565b905080611a17670de0b6b3a7640000611a0b6119fe828763ffffffff61233816565b879063ffffffff6123fc16565b9063ffffffff61239516565b10611a5d576040805162461bcd60e51b815260206004820152601160248201527014db1a5c1c1859d948195e18d959591959607a1b604482015290519081900360640190fd5b60668581548110611a6a57fe5b600091825260209091206006600790920201015460ff161515600114611aca576040805162461bcd60e51b815260206004820152601060248201526f50726f6a65637420696e61637469766560801b604482015290519081900360640190fd5b6000611ad68686611eeb565b90506000611ae3876112bd565b90508581831115611b0857611b0283611a0b838563ffffffff6123fc16565b90508192505b606a54604080516305243e7960e11b81526004810184905233602482015290516001600160a01b0390921691630a487cf29160448082019260009290919082900301818387803b158015611b5b57600080fd5b505af1158015611b6f573d6000803e3d6000fd5b505050600089815260686020526040812080548601905560668054919250908a908110611b9857fe5b6000918252602091829020600360079092020101546040805163313ce56760e01b815290516001600160a01b039092169263313ce56792600480840193829003018186803b158015611be957600080fd5b505afa158015611bfd573d6000803e3d6000fd5b505050506040513d6020811015611c1357600080fd5b505160ff169050611c5f33611c2886846125f3565b60668c81548110611c3557fe5b60009182526020909120600360079092020101546001600160a01b0316919063ffffffff61263316565b611cf1611cd6611c82606554670de0b6b3a764000061239590919063ffffffff16565b611a0b611cc9606b60008f81526020019081526020016000205460668f81548110611ca957fe5b90600052602060002090600702016004015461239590919063ffffffff16565b889063ffffffff61239516565b60008b8152606c60205260409020549063ffffffff61245516565b60008a8152606c602090815260409182902092909255805186815291820187905280518b9233927f28a3ea4d199e72c2f5ac0a033b6a76c586656dd17ef9aeac769874b9a1104b5492918290030190a3505050505050505050565b606a546001600160a01b031681565b600054610100900460ff1680611d745750611d7461268a565b80611d82575060005460ff16155b611dbd5760405162461bcd60e51b815260040180806020018281038252602e815260200180612ee5602e913960400191505060405180910390fd5b600054610100900460ff16158015611de8576000805460ff1961ff0019909116610100171660011790555b611df061269b565b611dfb600033611379565b604080516923a0a6a2afa0a226a4a760b11b8152905190819003600a019020611e249033611379565b606a80546001600160a01b0319166001600160a01b0384161790556127106065558015611383576000805461ff00191690555050565b60008181526033602052604081206112a29061273c565b611e796122cb565b6000838152606e60205260409020610fb3908383612d33565b600082815260336020526040902060020154611eb0906113396124ef565b6113de5760405162461bcd60e51b8152600401808060200182810382526030815260200180612eb56030913960400191505060405180910390fd5b600080611f0a83611efb86611276565b600f0b9063ffffffff61274716565b9050611f31670de0b6b3a7640000611a0b611f2487611194565b849063ffffffff6123fc16565b949350505050565b611f416122cb565b60008111611f4e57600080fd5b606955565b606e6020908152600091825260409182902080548351601f6002600019610100600186161502019093169290920491820184900484028101840190945280845290918301828280156118c85780601f1061189d576101008083540402835291602001916118c8565b6000805b6066548110156120015760668181548110611fd657fe5b600091825260209091206006600790920201015460ff1615611ff9576001820191505b600101611fbf565b5090565b60716020908152600091825260409182902080548351601f6002600019610100600186161502019093169290920491820184900484028101840190945280845290918301828280156118c85780601f1061189d576101008083540402835291602001916118c8565b6120756122cb565b806066838154811061208357fe5b60009182526020909120600790910201600601805460ff19169115159190911790555050565b60655481565b60706020908152600091825260409182902080548351601f6002600019610100600186161502019093169290920491820184900484028101840190945280845290918301828280156118c85780601f1061189d576101008083540402835291602001916118c8565b61211f6122cb565b6000838152607060205260409020610fb3908383612d33565b606b6020526000908152604090205481565b6066818154811061215757fe5b9060005260206000209060070201600091509050806000015490806001018054600181600116156101000203166002900480601f0160208091040260200160405190810160405280929190818152602001828054600181600116156101000203166002900480156122095780601f106121de57610100808354040283529160200191612209565b820191906000526020600020905b8154815290600101906020018083116121ec57829003601f168201915b50505060028085018054604080516020601f600019610100600187161502019094169590950492830185900485028101850190915281815295969594509092509083018282801561229b5780601f106122705761010080835404028352916020019161229b565b820191906000526020600020905b81548152906001019060200180831161227e57829003601f168201915b5050505060038301546004840154600585015460069095015493946001600160a01b039092169390925060ff1687565b604080516923a0a6a2afa0a226a4a760b11b8152905190819003600a0190206122f490336118f5565b612336576040805162461bcd60e51b815260206004820152600e60248201526d2737ba1033b0b6b29030b236b4b760911b604482015290519081900360640190fd5b565b60008282111561238f576040805162461bcd60e51b815260206004820152601e60248201527f536166654d6174683a207375627472616374696f6e206f766572666c6f770000604482015290519081900360640190fd5b50900390565b60008082116123eb576040805162461bcd60e51b815260206004820152601a60248201527f536166654d6174683a206469766973696f6e206279207a65726f000000000000604482015290519081900360640190fd5b8183816123f457fe5b049392505050565b60008261240b575060006112a2565b8282028284828161241857fe5b04146118ee5760405162461bcd60e51b8152600401808060200182810382526021815260200180612f136021913960400191505060405180910390fd5b6000828201838110156118ee576040805162461bcd60e51b815260206004820152601b60248201527f536166654d6174683a206164646974696f6e206f766572666c6f770000000000604482015290519081900360640190fd5b6000816124bb57600080fd5b60006124c784846127af565b90506f7fffffffffffffffffffffffffffffff6001600160801b03821611156118ee57600080fd5b335b90565b6000828152603360205260409020612512908263ffffffff6128f816565b156113835761251f6124ef565b6001600160a01b0316816001600160a01b0316837f2f8788117e7eff1d82e926ec794901d17c78024a50270940304540a733656f0d60405160405180910390a45050565b6000828152603360205260409020612581908263ffffffff61290d16565b156113835761258e6124ef565b6001600160a01b0316816001600160a01b0316837ff6391f5c32d9c69d2a47ea670b442974b53935d1edc7fd64eb21e047a839171b60405160405180910390a45050565b60006118ee8383612922565b60006118ee836001600160a01b038416612986565b6000601282111561261c57612615836011198401600a0a63ffffffff6123fc16565b90506112a2565b6118ee836012849003600a0a63ffffffff61239516565b604080516001600160a01b038416602482015260448082018490528251808303909101815260649091019091526020810180516001600160e01b031663a9059cbb60e01b17905261268590849061299e565b505050565b600061269530612a4f565b15905090565b600054610100900460ff16806126b457506126b461268a565b806126c2575060005460ff16155b6126fd5760405162461bcd60e51b815260040180806020018281038252602e815260200180612ee5602e913960400191505060405180910390fd5b600054610100900460ff16158015612728576000805460ff1961ff0019909116610100171660011790555b8015611476576000805461ff001916905550565b60006112a282612a55565b600081612756575060006112a2565b600083600f0b121561276757600080fd5b600f83900b6001600160801b038316810260401c90608084901c026001600160c01b0381111561279657600080fd5b60401b81198111156127a757600080fd5b019392505050565b6000816127bb57600080fd5b60006001600160c01b0384116127e05782604085901b816127d857fe5b0490506128e4565b60c084811c600160201b81106127f8576020918201911c5b62010000811061280a576010918201911c5b610100811061281b576008918201911c5b6010811061282b576004918201911c5b6004811061283b576002918201911c5b6002811061284a576001820191505b60bf820360018603901c6001018260ff0387901b8161286557fe5b0492506001600160801b0383111561287c57600080fd5b608085901c83026001600160801b038616840260c088901c604089901b828110156128a8576001820391505b608084901b929003828110156128bf576001820391505b829003608084901c82146128cf57fe5b8881816128d857fe5b04870196505050505050505b6001600160801b038111156118ee57600080fd5b60006118ee836001600160a01b038416612a59565b60006118ee836001600160a01b038416612aa3565b815460009082106129645760405162461bcd60e51b8152600401808060200182810382526022815260200180612e366022913960400191505060405180910390fd5b82600001828154811061297357fe5b9060005260206000200154905092915050565b60009081526001919091016020526040902054151590565b60606129f3826040518060400160405280602081526020017f5361666545524332303a206c6f772d6c6576656c2063616c6c206661696c6564815250856001600160a01b0316612b699092919063ffffffff16565b80519091501561268557808060200190516020811015612a1257600080fd5b50516126855760405162461bcd60e51b815260040180806020018281038252602a815260200180612f34602a913960400191505060405180910390fd5b3b151590565b5490565b6000612a658383612986565b612a9b575081546001818101845560008481526020808220909301849055845484825282860190935260409020919091556112a2565b5060006112a2565b60008181526001830160205260408120548015612b5f5783546000198083019190810190600090879083908110612ad657fe5b9060005260206000200154905080876000018481548110612af357fe5b600091825260208083209091019290925582815260018981019092526040902090840190558654879080612b2357fe5b600190038181906000526020600020016000905590558660010160008781526020019081526020016000206000905560019450505050506112a2565b60009150506112a2565b6060611f31848460008585612b7d85612a4f565b612bce576040805162461bcd60e51b815260206004820152601d60248201527f416464726573733a2063616c6c20746f206e6f6e2d636f6e7472616374000000604482015290519081900360640190fd5b60006060866001600160a01b031685876040518082805190602001908083835b60208310612c0d5780518252601f199092019160209182019101612bee565b6001836020036101000a03801982511681845116808217855250505050505090500191505060006040518083038185875af1925050503d8060008114612c6f576040519150601f19603f3d011682016040523d82523d6000602084013e612c74565b606091505b5091509150612c84828286612c8f565b979650505050505050565b60608315612c9e5750816118ee565b825115612cae5782518084602001fd5b8160405162461bcd60e51b81526004018080602001828103825283818151815260200191508051906020019080838360005b83811015612cf8578181015183820152602001612ce0565b50505050905090810190601f168015612d255780820380516001836020036101000a031916815260200191505b509250505060405180910390fd5b828054600181600116156101000203166002900490600052602060002090601f016020900481019282601f10612d745782800160ff19823516178555612da1565b82800160010185558215612da1579182015b82811115612da1578235825591602001919060010190612d86565b50612001929150612e1b565b828054600181600116156101000203166002900490600052602060002090601f016020900481019282601f10612dee57805160ff1916838001178555612da1565b82800160010185558215612da1579182015b82811115612da1578251825591602001919060010190612e00565b6124f191905b808211156120015760008155600101612e2156fe456e756d657261626c655365743a20696e646578206f7574206f6620626f756e6473416363657373436f6e74726f6c3a2073656e646572206d75737420626520616e2061646d696e20746f206772616e74436c61696d20616d6f756e74206578636565647320617661696c61626c6520726577617264732062616c616e6365416363657373436f6e74726f6c3a2073656e646572206d75737420626520616e2061646d696e20746f207265766f6b65496e697469616c697a61626c653a20636f6e747261637420697320616c726561647920696e697469616c697a6564536166654d6174683a206d756c7469706c69636174696f6e206f766572666c6f775361666545524332303a204552433230206f7065726174696f6e20646964206e6f742073756363656564416363657373436f6e74726f6c3a2063616e206f6e6c792072656e6f756e636520726f6c657320666f722073656c66a26469706673582212204e47d05fe18f37a91c061f6e4c03e71ec17d8334459e86ffd7767c5bb747172864736f6c63430006050033",
  "immutableReferences": {},
  "source": "pragma solidity ^0.6.5;\r\n\r\nimport \"@openzeppelin/contracts-upgradeable/proxy/Initializable.sol\";\r\nimport \"@openzeppelin/contracts-upgradeable/access/AccessControlUpgradeable.sol\";\r\nimport \"@openzeppelin/contracts/token/ERC20/IERC20.sol\";\r\nimport \"@openzeppelin/contracts/token/ERC20/ERC20.sol\";\r\nimport \"@openzeppelin/contracts/token/ERC20/SafeERC20.sol\";\r\nimport \"abdk-libraries-solidity/ABDKMath64x64.sol\";\r\nimport \"@openzeppelin/contracts/math/SafeMath.sol\";\r\nimport \"./cryptoblades.sol\";\r\n\r\ncontract Treasury is Initializable, AccessControlUpgradeable {\r\n    using SafeMath for uint256;\r\n    using ABDKMath64x64 for int128;\r\n    using SafeERC20 for IERC20;\r\n\r\n    bytes32 public constant GAME_ADMIN = keccak256(\"GAME_ADMIN\");\r\n\r\n    uint256 public multiplierUnit;\r\n\r\n    PartnerProject[] public partneredProjects;\r\n    mapping(uint256 => uint256) projectAddedBlockNumber;\r\n    mapping(uint256 => uint256) public tokensClaimed;\r\n    uint256 public skillPrice;\r\n\r\n    event TreasuryClaimed(address indexed sender, uint256 indexed partnerId, uint256 claimedAmount, uint256 currentMultiplier);\r\n\r\n    struct PartnerProject {\r\n        uint256 id;\r\n        string name;\r\n        string tokenSymbol;\r\n        address tokenAddress;\r\n        uint256 tokenSupply;\r\n        uint256 tokenPrice;\r\n        bool isActive;\r\n    }\r\n\r\n    CryptoBlades public game;\r\n\r\n    mapping(uint256 => uint256) public projectDistributionTime;\r\n    mapping(uint256 => uint256) multiplierTimestamp;\r\n    uint256 public defaultSlippage;\r\n    mapping(uint256 => string) public projectLogo;\r\n    mapping(uint256 => string) public projectDetails;\r\n    mapping(uint256 => string) public projectWebsite;\r\n    mapping(uint256 => string) public projectNote;\r\n\r\n    function initialize(CryptoBlades _game) public initializer {\r\n        __AccessControl_init_unchained();\r\n        _setupRole(DEFAULT_ADMIN_ROLE, msg.sender);\r\n        _setupRole(GAME_ADMIN, msg.sender);\r\n\r\n        game = _game;\r\n        // multiplier increases every second by 1e18/multiplierUnit\r\n        multiplierUnit = 1e4;\r\n    }\r\n\r\n    modifier restricted() {\r\n        _restricted();\r\n        _;\r\n    }\r\n\r\n    function _restricted() internal view {\r\n        require(hasRole(GAME_ADMIN, msg.sender), \"Not game admin\");\r\n    }\r\n\r\n    // Views\r\n\r\n    function getAmountOfActiveProjects() public view returns (uint256 activeCount) {\r\n        activeCount = 0;\r\n        for (uint i; i < partneredProjects.length; i++) {\r\n            if (partneredProjects[i].isActive) {\r\n                activeCount += 1;\r\n            }\r\n        }\r\n    }\r\n\r\n    function getActivePartnerProjectsIds() public view returns (uint256[] memory activeProjectsIds){\r\n        uint256 activeCount = getAmountOfActiveProjects();\r\n        uint256 counter = 0;\r\n\r\n        activeProjectsIds = new uint256[](activeCount);\r\n        for (uint i = 0; i < partneredProjects.length; i++) {\r\n            if (partneredProjects[i].isActive) {\r\n                activeProjectsIds[counter] = i;\r\n                counter++;\r\n            }\r\n        }\r\n    }\r\n\r\n    function getProjectMultiplier(uint256 partnerId) public view returns (uint256) {\r\n        if (block.timestamp >= multiplierTimestamp[partnerId]) {\r\n            return uint(1e18).div(multiplierUnit).mul(block.timestamp.sub(multiplierTimestamp[partnerId])).add(1e18);\r\n        }\r\n        uint256 multiplierDecrease = uint(1e18).div(multiplierUnit).mul(multiplierTimestamp[partnerId].sub(block.timestamp));\r\n        if (multiplierDecrease > 1e18) {\r\n            return 0;\r\n        }\r\n        return uint(1e18).sub(multiplierDecrease);\r\n    }\r\n\r\n    function getSkillToPartnerRatio(uint256 partnerId) public view returns (int128) {\r\n        return ABDKMath64x64.divu(skillPrice, partneredProjects[partnerId].tokenPrice);\r\n    }\r\n\r\n    function getRemainingPartnerTokenSupply(uint256 partnerId) public view returns (uint256) {\r\n        return partneredProjects[partnerId].tokenSupply.mul(1e18).sub(tokensClaimed[partnerId]);\r\n    }\r\n\r\n    function getAmountInPartnerToken(uint256 partnerId, uint256 skillAmount) public view returns (uint256 amountWithMultiplier) {\r\n        uint256 baseAmount = getSkillToPartnerRatio(partnerId).mulu(skillAmount);\r\n        amountWithMultiplier = baseAmount.mul(getProjectMultiplier(partnerId)).div(1e18);\r\n    }\r\n\r\n    function getAmountWithAdjustedDecimals(uint256 partnerTokenAmount, uint256 partnerTokenDecimals) internal pure returns (uint256 partnerTokenAmountAdjusted) {\r\n        if (partnerTokenDecimals > 18) {\r\n            partnerTokenAmountAdjusted = partnerTokenAmount.mul(10 ** uint(partnerTokenDecimals - 18));\r\n        } else {\r\n            partnerTokenAmountAdjusted = partnerTokenAmount.div(10 ** uint(18 - partnerTokenDecimals));\r\n        }\r\n    }\r\n\r\n    function getProjectData(uint256 partnerId) public view returns (string memory, string memory, string memory, string memory) {\r\n        return (projectLogo[partnerId], projectDetails[partnerId], projectWebsite[partnerId], projectNote[partnerId]);\r\n    }\r\n\r\n    // Mutative\r\n\r\n    function addPartnerProject(\r\n        string memory name,\r\n        string memory tokenSymbol,\r\n        address tokenAddress,\r\n        uint256 tokenSupply,\r\n        uint256 tokenPrice,\r\n        uint256 distributionTime,\r\n        bool isActive,\r\n        string memory logo,\r\n        string memory details,\r\n        string memory website,\r\n        string memory note)\r\n    public restricted {\r\n        uint256 id = partneredProjects.length;\r\n        multiplierTimestamp[id] = block.timestamp;\r\n        tokensClaimed[id] = 0;\r\n        partneredProjects.push(PartnerProject(\r\n                id,\r\n                name,\r\n                tokenSymbol,\r\n                tokenAddress,\r\n                tokenSupply,\r\n                tokenPrice,\r\n                isActive\r\n            ));\r\n        projectDistributionTime[id] = distributionTime;\r\n        projectLogo[id] = logo;\r\n        projectDetails[id] = details;\r\n        projectWebsite[id] = website;\r\n        projectNote[id] = note;\r\n    }\r\n\r\n    function claim(uint256 partnerId) public {\r\n        claim(partnerId, game.getTokenRewardsFor(msg.sender), getProjectMultiplier(partnerId), defaultSlippage);\r\n    }\r\n\r\n    function claim(uint256 partnerId, uint256 skillClaimingAmount, uint256 currentMultiplier, uint256 slippage) public {\r\n        require(game.getTokenRewardsFor(msg.sender) >= skillClaimingAmount, 'Claim amount exceeds available rewards balance');\r\n        uint256 effectiveMultiplier = getProjectMultiplier(partnerId);\r\n        require(currentMultiplier.mul(uint(1e18).sub(slippage)).div(1e18) < effectiveMultiplier, 'Slippage exceeded');\r\n        require(partneredProjects[partnerId].isActive == true, 'Project inactive');\r\n\r\n        uint256 partnerTokenAmount = getAmountInPartnerToken(partnerId, skillClaimingAmount);\r\n        uint256 remainingPartnerTokenSupply = getRemainingPartnerTokenSupply(partnerId);\r\n        uint256 skillToDeduct = skillClaimingAmount;\r\n\r\n        if (partnerTokenAmount > remainingPartnerTokenSupply) {\r\n            skillToDeduct = skillToDeduct.mul(remainingPartnerTokenSupply).div(partnerTokenAmount);\r\n            partnerTokenAmount = remainingPartnerTokenSupply;\r\n        }\r\n\r\n        game.deductAfterPartnerClaim(skillToDeduct, msg.sender);\r\n        tokensClaimed[partnerId] += partnerTokenAmount;\r\n\r\n        uint256 partnerTokenDecimals = ERC20(partneredProjects[partnerId].tokenAddress).decimals();\r\n        IERC20(partneredProjects[partnerId].tokenAddress).safeTransfer(msg.sender, getAmountWithAdjustedDecimals(partnerTokenAmount, partnerTokenDecimals));\r\n\r\n        multiplierTimestamp[partnerId] = multiplierTimestamp[partnerId].add(partnerTokenAmount.div(partneredProjects[partnerId].tokenSupply.div(projectDistributionTime[partnerId])).div(uint(1e18).div(multiplierUnit)));\r\n\r\n        emit TreasuryClaimed(msg.sender, partnerId, partnerTokenAmount, effectiveMultiplier);\r\n    }\r\n\r\n    // Setters\r\n\r\n    function setMultiplierUnit(uint256 unit) external restricted {\r\n        multiplierUnit = unit;\r\n    }\r\n\r\n    function setIsActive(uint256 id, bool isActive) public restricted {\r\n        partneredProjects[id].isActive = isActive;\r\n    }\r\n\r\n    function setSkillPrice(uint256 newPrice) external restricted {\r\n        require(newPrice > 0);\r\n        skillPrice = newPrice;\r\n    }\r\n\r\n    function setPartnerTokenPrice(uint256 partnerId, uint256 newPrice) external restricted {\r\n        require(newPrice > 0);\r\n        partneredProjects[partnerId].tokenPrice = newPrice;\r\n    }\r\n\r\n    function setDistributionTime(uint256 partnerId, uint256 distributionTime) external restricted {\r\n        projectDistributionTime[partnerId] = distributionTime;\r\n    }\r\n\r\n    function setDefaultSlippage(uint256 newSlippage) external restricted {\r\n        defaultSlippage = newSlippage;\r\n    }\r\n\r\n    function setProjectLogo(uint256 partnerId, string calldata logo) external restricted {\r\n        projectLogo[partnerId] = logo;\r\n    }\r\n\r\n    function setProjectDetails(uint256 partnerId, string calldata details) external restricted {\r\n        projectDetails[partnerId] = details;\r\n    }\r\n\r\n    function setProjectWebsite(uint256 partnerId, string calldata website) external restricted {\r\n        projectWebsite[partnerId] = website;\r\n    }\r\n\r\n    function setProjectNote(uint256 partnerId, string calldata note) external restricted {\r\n        projectNote[partnerId] = note;\r\n    }\r\n\r\n}\r\n",
  "sourcePath": "K:\\\\cryptoblades1\\cryptoblades\\contracts\\Treasury.sol",
  "compiler": {
    "name": "solc",
    "version": "0.6.5+commit.f956cc89.Emscripten.clang"
  },
  "schemaVersion": "3.4.5",
  "updatedAt": "2022-09-25T08:10:55.733Z",
  "networkType": "ethereum",
  "devdoc": {
    "methods": {
      "getRoleAdmin(bytes32)": {
        "details": "Returns the admin role that controls `role`. See {grantRole} and {revokeRole}.     * To change a role's admin, use {_setRoleAdmin}."
      },
      "getRoleMember(bytes32,uint256)": {
        "details": "Returns one of the accounts that have `role`. `index` must be a value between 0 and {getRoleMemberCount}, non-inclusive.     * Role bearers are not sorted in any particular way, and their ordering may change at any point.     * WARNING: When using {getRoleMember} and {getRoleMemberCount}, make sure you perform all queries on the same block. See the following https://forum.openzeppelin.com/t/iterating-over-elements-on-enumerableset-in-openzeppelin-contracts/2296[forum post] for more information."
      },
      "getRoleMemberCount(bytes32)": {
        "details": "Returns the number of accounts that have `role`. Can be used together with {getRoleMember} to enumerate all bearers of a role."
      },
      "grantRole(bytes32,address)": {
        "details": "Grants `role` to `account`.     * If `account` had not been already granted `role`, emits a {RoleGranted} event.     * Requirements:     * - the caller must have ``role``'s admin role."
      },
      "hasRole(bytes32,address)": {
        "details": "Returns `true` if `account` has been granted `role`."
      },
      "renounceRole(bytes32,address)": {
        "details": "Revokes `role` from the calling account.     * Roles are often managed via {grantRole} and {revokeRole}: this function's purpose is to provide a mechanism for accounts to lose their privileges if they are compromised (such as when a trusted device is misplaced).     * If the calling account had been granted `role`, emits a {RoleRevoked} event.     * Requirements:     * - the caller must be `account`."
      },
      "revokeRole(bytes32,address)": {
        "details": "Revokes `role` from `account`.     * If `account` had been granted `role`, emits a {RoleRevoked} event.     * Requirements:     * - the caller must have ``role``'s admin role."
      }
    }
  },
  "userdoc": {
    "methods": {}
  }
}