{
  "contractName": "WaxBridge",
  "abi": [
    {
      "anonymous": false,
      "inputs": [
        {
          "indexed": true,
          "internalType": "bytes32",
          "name": "role",
          "type": "bytes32"
        },
        {
          "indexed": true,
          "internalType": "bytes32",
          "name": "previousAdminRole",
          "type": "bytes32"
        },
        {
          "indexed": true,
          "internalType": "bytes32",
          "name": "newAdminRole",
          "type": "bytes32"
        }
      ],
      "name": "RoleAdminChanged",
      "type": "event"
    },
    {
      "anonymous": false,
      "inputs": [
        {
          "indexed": true,
          "internalType": "bytes32",
          "name": "role",
          "type": "bytes32"
        },
        {
          "indexed": true,
          "internalType": "address",
          "name": "account",
          "type": "address"
        },
        {
          "indexed": true,
          "internalType": "address",
          "name": "sender",
          "type": "address"
        }
      ],
      "name": "RoleGranted",
      "type": "event"
    },
    {
      "anonymous": false,
      "inputs": [
        {
          "indexed": true,
          "internalType": "bytes32",
          "name": "role",
          "type": "bytes32"
        },
        {
          "indexed": true,
          "internalType": "address",
          "name": "account",
          "type": "address"
        },
        {
          "indexed": true,
          "internalType": "address",
          "name": "sender",
          "type": "address"
        }
      ],
      "name": "RoleRevoked",
      "type": "event"
    },
    {
      "inputs": [],
      "name": "DEFAULT_ADMIN_ROLE",
      "outputs": [
        {
          "internalType": "bytes32",
          "name": "",
          "type": "bytes32"
        }
      ],
      "stateMutability": "view",
      "type": "function",
      "constant": true
    },
    {
      "inputs": [],
      "name": "LIMIT_PERIOD",
      "outputs": [
        {
          "internalType": "uint256",
          "name": "",
          "type": "uint256"
        }
      ],
      "stateMutability": "view",
      "type": "function",
      "constant": true
    },
    {
      "inputs": [],
      "name": "WAX_BRIDGE",
      "outputs": [
        {
          "internalType": "bytes32",
          "name": "",
          "type": "bytes32"
        }
      ],
      "stateMutability": "view",
      "type": "function",
      "constant": true
    },
    {
      "inputs": [],
      "name": "bnbLimitPerPeriod",
      "outputs": [
        {
          "internalType": "uint256",
          "name": "",
          "type": "uint256"
        }
      ],
      "stateMutability": "view",
      "type": "function",
      "constant": true
    },
    {
      "inputs": [
        {
          "internalType": "address",
          "name": "",
          "type": "address"
        }
      ],
      "name": "bnbLimitTimestamp",
      "outputs": [
        {
          "internalType": "uint256",
          "name": "",
          "type": "uint256"
        }
      ],
      "stateMutability": "view",
      "type": "function",
      "constant": true
    },
    {
      "inputs": [
        {
          "internalType": "bytes32",
          "name": "role",
          "type": "bytes32"
        }
      ],
      "name": "getRoleAdmin",
      "outputs": [
        {
          "internalType": "bytes32",
          "name": "",
          "type": "bytes32"
        }
      ],
      "stateMutability": "view",
      "type": "function",
      "constant": true
    },
    {
      "inputs": [
        {
          "internalType": "bytes32",
          "name": "role",
          "type": "bytes32"
        },
        {
          "internalType": "uint256",
          "name": "index",
          "type": "uint256"
        }
      ],
      "name": "getRoleMember",
      "outputs": [
        {
          "internalType": "address",
          "name": "",
          "type": "address"
        }
      ],
      "stateMutability": "view",
      "type": "function",
      "constant": true
    },
    {
      "inputs": [
        {
          "internalType": "bytes32",
          "name": "role",
          "type": "bytes32"
        }
      ],
      "name": "getRoleMemberCount",
      "outputs": [
        {
          "internalType": "uint256",
          "name": "",
          "type": "uint256"
        }
      ],
      "stateMutability": "view",
      "type": "function",
      "constant": true
    },
    {
      "inputs": [
        {
          "internalType": "bytes32",
          "name": "role",
          "type": "bytes32"
        },
        {
          "internalType": "address",
          "name": "account",
          "type": "address"
        }
      ],
      "name": "grantRole",
      "outputs": [],
      "stateMutability": "nonpayable",
      "type": "function"
    },
    {
      "inputs": [
        {
          "internalType": "bytes32",
          "name": "role",
          "type": "bytes32"
        },
        {
          "internalType": "address",
          "name": "account",
          "type": "address"
        }
      ],
      "name": "hasRole",
      "outputs": [
        {
          "internalType": "bool",
          "name": "",
          "type": "bool"
        }
      ],
      "stateMutability": "view",
      "type": "function",
      "constant": true
    },
    {
      "inputs": [],
      "name": "latestWaxChainBlockNumberProcessed",
      "outputs": [
        {
          "internalType": "uint256",
          "name": "",
          "type": "uint256"
        }
      ],
      "stateMutability": "view",
      "type": "function",
      "constant": true
    },
    {
      "inputs": [
        {
          "internalType": "bytes32",
          "name": "role",
          "type": "bytes32"
        },
        {
          "internalType": "address",
          "name": "account",
          "type": "address"
        }
      ],
      "name": "renounceRole",
      "outputs": [],
      "stateMutability": "nonpayable",
      "type": "function"
    },
    {
      "inputs": [
        {
          "internalType": "bytes32",
          "name": "role",
          "type": "bytes32"
        },
        {
          "internalType": "address",
          "name": "account",
          "type": "address"
        }
      ],
      "name": "revokeRole",
      "outputs": [],
      "stateMutability": "nonpayable",
      "type": "function"
    },
    {
      "inputs": [],
      "name": "totalOwedBnb",
      "outputs": [
        {
          "internalType": "uint256",
          "name": "",
          "type": "uint256"
        }
      ],
      "stateMutability": "view",
      "type": "function",
      "constant": true
    },
    {
      "inputs": [
        {
          "internalType": "address",
          "name": "",
          "type": "address"
        }
      ],
      "name": "withdrawableBnb",
      "outputs": [
        {
          "internalType": "uint256",
          "name": "",
          "type": "uint256"
        }
      ],
      "stateMutability": "view",
      "type": "function",
      "constant": true
    },
    {
      "stateMutability": "payable",
      "type": "receive",
      "payable": true
    },
    {
      "inputs": [],
      "name": "initialize",
      "outputs": [],
      "stateMutability": "nonpayable",
      "type": "function"
    },
    {
      "inputs": [],
      "name": "getWithdrawnBnbDuringPeriod",
      "outputs": [
        {
          "internalType": "uint256",
          "name": "",
          "type": "uint256"
        }
      ],
      "stateMutability": "view",
      "type": "function",
      "constant": true
    },
    {
      "inputs": [],
      "name": "getRemainingWithdrawableBnbDuringPeriod",
      "outputs": [
        {
          "internalType": "uint256",
          "name": "",
          "type": "uint256"
        }
      ],
      "stateMutability": "view",
      "type": "function",
      "constant": true
    },
    {
      "inputs": [],
      "name": "getTimeUntilLimitExpires",
      "outputs": [
        {
          "internalType": "uint256",
          "name": "",
          "type": "uint256"
        }
      ],
      "stateMutability": "view",
      "type": "function",
      "constant": true
    },
    {
      "inputs": [
        {
          "internalType": "uint256",
          "name": "_dailyBnbWeiLimit",
          "type": "uint256"
        }
      ],
      "name": "setDailyBnbWeiLimit",
      "outputs": [],
      "stateMutability": "nonpayable",
      "type": "function"
    },
    {
      "inputs": [
        {
          "internalType": "uint256",
          "name": "_latestWaxChainBlockNumberProcessed",
          "type": "uint256"
        },
        {
          "internalType": "address[]",
          "name": "_to",
          "type": "address[]"
        },
        {
          "internalType": "uint256[]",
          "name": "_value",
          "type": "uint256[]"
        }
      ],
      "name": "processWaxConversions",
      "outputs": [],
      "stateMutability": "payable",
      "type": "function",
      "payable": true
    },
    {
      "inputs": [
        {
          "internalType": "uint256",
          "name": "_maxAmount",
          "type": "uint256"
        }
      ],
      "name": "withdraw",
      "outputs": [
        {
          "internalType": "uint256",
          "name": "",
          "type": "uint256"
        }
      ],
      "stateMutability": "nonpayable",
      "type": "function"
    }
  ],
  "bytecode": "0x608060405234801561001057600080fd5b50611351806100206000396000f3fe6080604052600436106101395760003560e01c80636749cb14116100ab578063a20f35141161006f578063a20f3514146104cb578063a217fddf146104e0578063a3b34bed146104f5578063ca15c87314610528578063d547741f14610552578063edd991311461058b5761019c565b80636749cb14146103f35780638129fc1c146104085780639010d07c1461041d57806391d148541461046957806398f42a0b146104b65761019c565b806336568abe116100fd57806336568abe1461026a57806336ff0abc146102a35780633b8706b71461036c57806345bb31ea1461039657806350d895b5146103c957806355b2eb7c146103de5761019c565b806304d72af5146101a1578063248a9ca3146101c85780632e1a7d4d146101f25780632f2ff15d1461021c57806333289d10146102555761019c565b3661019c576101496000336105a0565b61019a576040805162461bcd60e51b815260206004820152601f60248201527f4d697373696e672044454641554c545f41444d494e5f524f4c4520726f6c6500604482015290519081900360640190fd5b005b600080fd5b3480156101ad57600080fd5b506101b66105c7565b60408051918252519081900360200190f35b3480156101d457600080fd5b506101b6600480360360208110156101eb57600080fd5b5035610602565b3480156101fe57600080fd5b506101b66004803603602081101561021557600080fd5b5035610617565b34801561022857600080fd5b5061019a6004803603604081101561023f57600080fd5b50803590602001356001600160a01b0316610790565b34801561026157600080fd5b506101b66107fc565b34801561027657600080fd5b5061019a6004803603604081101561028d57600080fd5b50803590602001356001600160a01b031661081d565b61019a600480360360608110156102b957600080fd5b813591908101906040810160208201356401000000008111156102db57600080fd5b8201836020820111156102ed57600080fd5b8035906020019184602083028401116401000000008311171561030f57600080fd5b91939092909160208101903564010000000081111561032d57600080fd5b82018360208201111561033f57600080fd5b8035906020019184602083028401116401000000008311171561036157600080fd5b50909250905061087e565b34801561037857600080fd5b5061019a6004803603602081101561038f57600080fd5b5035610ae5565b3480156103a257600080fd5b506101b6600480360360208110156103b957600080fd5b50356001600160a01b0316610b46565b3480156103d557600080fd5b506101b6610b58565b3480156103ea57600080fd5b506101b6610b5f565b3480156103ff57600080fd5b506101b6610b81565b34801561041457600080fd5b5061019a610baf565b34801561042957600080fd5b5061044d6004803603604081101561044057600080fd5b5080359060200135610c79565b604080516001600160a01b039092168252519081900360200190f35b34801561047557600080fd5b506104a26004803603604081101561048c57600080fd5b50803590602001356001600160a01b03166105a0565b604080519115158252519081900360200190f35b3480156104c257600080fd5b506101b6610c97565b3480156104d757600080fd5b506101b6610c9d565b3480156104ec57600080fd5b506101b6610ca3565b34801561050157600080fd5b506101b66004803603602081101561051857600080fd5b50356001600160a01b0316610ca8565b34801561053457600080fd5b506101b66004803603602081101561054b57600080fd5b5035610cba565b34801561055e57600080fd5b5061019a6004803603604081101561057557600080fd5b50803590602001356001600160a01b0316610cd1565b34801561059757600080fd5b506101b6610d2a565b60008281526033602052604081206105be908363ffffffff610d3016565b90505b92915050565b33600090815260686020526040812054426201518090910110156105ed575060006105ff565b50336000908152606a60205260409020545b90565b60009081526033602052604090206002015490565b336000908152606860205260408120544262015180909101101561065357336000908152606860209081526040808320429055606a9091528120555b336000908152606a60205260408120546067546106759163ffffffff610d4516565b3360009081526069602052604090205490915083908111156106a35750336000908152606960205260409020545b818111156106ae5750805b33600090815260696020908152604080832080548590039055606680548590039055606a9091529020546106e8908263ffffffff610da216565b336000818152606a602052604080822093909355915183908381818185875af1925050503d8060008114610738576040519150601f19603f3d011682016040523d82523d6000602084013e61073d565b606091505b5050905080610788576040805162461bcd60e51b81526020600482015260126024820152712330b4b632b2103a379039b2b7321021272160711b604482015290519081900360640190fd5b505050919050565b6000828152603360205260409020600201546107b3906107ae610dfc565b6105a0565b6107ee5760405162461bcd60e51b815260040180806020018281038252602f815260200180611260602f913960400191505060405180910390fd5b6107f88282610e00565b5050565b60006108186108096105c7565b6067549063ffffffff610d4516565b905090565b610825610dfc565b6001600160a01b0316816001600160a01b0316146108745760405162461bcd60e51b815260040180806020018281038252602f8152602001806112ed602f913960400191505060405180910390fd5b6107f88282610e6f565b60408051695741585f42524944474560b01b8152905190819003600a0190206108a790336105a0565b6108f8576040805162461bcd60e51b815260206004820152601760248201527f4d697373696e67205741585f42524944474520726f6c65000000000000000000604482015290519081900360640190fd5b606554851161094e576040805162461bcd60e51b815260206004820152601e60248201527f57415820636861696e20626c6f636b206e756d206d7573742062652067740000604482015290519081900360640190fd5b8281146109a2576040805162461bcd60e51b815260206004820152601860248201527f4d69736d617463686564206172726179206c656e677468730000000000000000604482015290519081900360640190fd5b610bb883106109ee576040805162461bcd60e51b8152602060048201526013602482015272546f6f206d616e7920726563697069656e747360681b604482015290519081900360640190fd5b60658590556000805b84811015610ac657610a24848483818110610a0e57fe5b9050602002013583610da290919063ffffffff16565b9150610a8b848483818110610a3557fe5b9050602002013560696000898986818110610a4c57fe5b905060200201356001600160a01b03166001600160a01b03166001600160a01b0316815260200190815260200160002054610da290919063ffffffff16565b60696000888885818110610a9b57fe5b602090810292909201356001600160a01b0316835250810191909152604001600020556001016109f7565b50606654610ada908263ffffffff610da216565b606655505050505050565b610af06000336105a0565b610b41576040805162461bcd60e51b815260206004820152601f60248201527f4d697373696e672044454641554c545f41444d494e5f524f4c4520726f6c6500604482015290519081900360640190fd5b606755565b60696020526000908152604090205481565b6201518081565b60408051695741585f42524944474560b01b8152905190819003600a01902081565b33600090815260686020526040812054620151800181610ba7824263ffffffff610ede16565b935050505090565b600054610100900460ff1680610bc85750610bc8610f04565b80610bd6575060005460ff16155b610c115760405162461bcd60e51b815260040180806020018281038252602e8152602001806112bf602e913960400191505060405180910390fd5b600054610100900460ff16158015610c3c576000805460ff1961ff0019909116610100171660011790555b610c44610f15565b610c4f6000336107ee565b60006065819055606655667f1d39a38f8bac6067558015610c76576000805461ff00191690555b50565b60008281526033602052604081206105be908363ffffffff610fc616565b60655481565b60665481565b600081565b60686020526000908152604090205481565b60008181526033602052604081206105c190610fd2565b600082815260336020526040902060020154610cef906107ae610dfc565b6108745760405162461bcd60e51b815260040180806020018281038252603081526020018061128f6030913960400191505060405180910390fd5b60675481565b60006105be836001600160a01b038416610fdd565b600082821115610d9c576040805162461bcd60e51b815260206004820152601e60248201527f536166654d6174683a207375627472616374696f6e206f766572666c6f770000604482015290519081900360640190fd5b50900390565b6000828201838110156105be576040805162461bcd60e51b815260206004820152601b60248201527f536166654d6174683a206164646974696f6e206f766572666c6f770000000000604482015290519081900360640190fd5b3390565b6000828152603360205260409020610e1e908263ffffffff610ff516565b156107f857610e2b610dfc565b6001600160a01b0316816001600160a01b0316837f2f8788117e7eff1d82e926ec794901d17c78024a50270940304540a733656f0d60405160405180910390a45050565b6000828152603360205260409020610e8d908263ffffffff61100a16565b156107f857610e9a610dfc565b6001600160a01b0316816001600160a01b0316837ff6391f5c32d9c69d2a47ea670b442974b53935d1edc7fd64eb21e047a839171b60405160405180910390a45050565b60008083831115610ef457506000905080610efd565b50600190508183035b9250929050565b6000610f0f3061101f565b15905090565b600054610100900460ff1680610f2e5750610f2e610f04565b80610f3c575060005460ff16155b610f775760405162461bcd60e51b815260040180806020018281038252602e8152602001806112bf602e913960400191505060405180910390fd5b600054610100900460ff16158015610fa2576000805460ff1961ff0019909116610100171660011790555b610faa611025565b610fb2611025565b8015610c76576000805461ff001916905550565b60006105be83836110c5565b60006105c182611129565b60009081526001919091016020526040902054151590565b60006105be836001600160a01b03841661112d565b60006105be836001600160a01b038416611177565b3b151590565b600054610100900460ff168061103e575061103e610f04565b8061104c575060005460ff16155b6110875760405162461bcd60e51b815260040180806020018281038252602e8152602001806112bf602e913960400191505060405180910390fd5b600054610100900460ff16158015610fb2576000805460ff1961ff0019909116610100171660011790558015610c76576000805461ff001916905550565b815460009082106111075760405162461bcd60e51b815260040180806020018281038252602281526020018061123e6022913960400191505060405180910390fd5b82600001828154811061111657fe5b9060005260206000200154905092915050565b5490565b60006111398383610fdd565b61116f575081546001818101845560008481526020808220909301849055845484825282860190935260409020919091556105c1565b5060006105c1565b6000818152600183016020526040812054801561123357835460001980830191908101906000908790839081106111aa57fe5b90600052602060002001549050808760000184815481106111c757fe5b6000918252602080832090910192909255828152600189810190925260409020908401905586548790806111f757fe5b600190038181906000526020600020016000905590558660010160008781526020019081526020016000206000905560019450505050506105c1565b60009150506105c156fe456e756d657261626c655365743a20696e646578206f7574206f6620626f756e6473416363657373436f6e74726f6c3a2073656e646572206d75737420626520616e2061646d696e20746f206772616e74416363657373436f6e74726f6c3a2073656e646572206d75737420626520616e2061646d696e20746f207265766f6b65496e697469616c697a61626c653a20636f6e747261637420697320616c726561647920696e697469616c697a6564416363657373436f6e74726f6c3a2063616e206f6e6c792072656e6f756e636520726f6c657320666f722073656c66a2646970667358221220849886a36cc0cedeb1b93c32b2798036b328404e9a47b3948c3f807b2da588bd64736f6c63430006050033",
  "immutableReferences": {},
  "source": "pragma solidity ^0.6.0;\r\n\r\nimport \"@openzeppelin/contracts-upgradeable/proxy/Initializable.sol\";\r\nimport \"@openzeppelin/contracts-upgradeable/access/AccessControlUpgradeable.sol\";\r\nimport \"@openzeppelin/contracts/math/SafeMath.sol\";\r\nimport \"abdk-libraries-solidity/ABDKMath64x64.sol\";\r\n\r\ncontract WaxBridge is Initializable, AccessControlUpgradeable {\r\n\r\n    using ABDKMath64x64 for int128;\r\n    using SafeMath for uint256;\r\n\r\n    bytes32 public constant WAX_BRIDGE = keccak256(\"WAX_BRIDGE\");\r\n\r\n    uint256 public constant LIMIT_PERIOD = 1 days;\r\n\r\n    function initialize() public initializer {\r\n        __AccessControl_init();\r\n\r\n        _setupRole(DEFAULT_ADMIN_ROLE, msg.sender);\r\n\r\n        latestWaxChainBlockNumberProcessed = 0;\r\n        totalOwedBnb = 0;\r\n        bnbLimitPerPeriod = 35779455436688300;// 0.03577 or about $10\r\n    }\r\n\r\n    uint256 public latestWaxChainBlockNumberProcessed;\r\n    uint256 public totalOwedBnb;\r\n    uint256 public bnbLimitPerPeriod;\r\n    mapping(address => uint256) public bnbLimitTimestamp;\r\n    mapping(address => uint256) public withdrawableBnb;\r\n    mapping(address => uint256) private withdrawnBnbDuringPeriod;\r\n\r\n    function getWithdrawnBnbDuringPeriod() public view returns (uint256) {\r\n        if(bnbLimitTimestamp[msg.sender] + LIMIT_PERIOD < block.timestamp) {\r\n            return 0;\r\n        }\r\n\r\n        return withdrawnBnbDuringPeriod[msg.sender];\r\n    }\r\n\r\n    function getRemainingWithdrawableBnbDuringPeriod() external view returns(uint256) {\r\n        return bnbLimitPerPeriod.sub(getWithdrawnBnbDuringPeriod());\r\n    }\r\n\r\n    function getTimeUntilLimitExpires() external view returns(uint256) {\r\n        uint256 limitExpirationTime = bnbLimitTimestamp[msg.sender] + LIMIT_PERIOD;\r\n        (, uint256 result) = limitExpirationTime.trySub(block.timestamp);\r\n        return result;\r\n    }\r\n\r\n    function setDailyBnbWeiLimit(uint256 _dailyBnbWeiLimit) external restricted {\r\n        bnbLimitPerPeriod = _dailyBnbWeiLimit;\r\n    }\r\n\r\n    receive() external payable restricted {\r\n    }\r\n\r\n    function processWaxConversions(uint256 _latestWaxChainBlockNumberProcessed, address[] calldata _to, uint256[] calldata _value) external payable {\r\n        require(hasRole(WAX_BRIDGE, msg.sender), \"Missing WAX_BRIDGE role\");\r\n        require(_latestWaxChainBlockNumberProcessed > latestWaxChainBlockNumberProcessed, \"WAX chain block num must be gt\");\r\n        require(_to.length == _value.length, \"Mismatched array lengths\");\r\n        require(_to.length < 3000, \"Too many recipients\");\r\n\r\n        // assume they're holding enough skill (bot will check through main contract)\r\n\r\n        latestWaxChainBlockNumberProcessed = _latestWaxChainBlockNumberProcessed;\r\n\r\n        uint256 _totalOwedBnb = 0;\r\n        for (uint256 i = 0; i < _to.length; i++) {\r\n            _totalOwedBnb = _totalOwedBnb.add(_value[i]);\r\n            withdrawableBnb[_to[i]] = withdrawableBnb[_to[i]].add(_value[i]);\r\n        }\r\n\r\n        totalOwedBnb = totalOwedBnb.add(_totalOwedBnb);\r\n    }\r\n\r\n    function withdraw(uint256 _maxAmount) external returns (uint256) {\r\n        if(bnbLimitTimestamp[msg.sender] + LIMIT_PERIOD < block.timestamp) {\r\n            bnbLimitTimestamp[msg.sender] = block.timestamp;\r\n            withdrawnBnbDuringPeriod[msg.sender] = 0;\r\n        }\r\n\r\n        uint256 withdrawableBnbDuringPeriod = bnbLimitPerPeriod.sub(withdrawnBnbDuringPeriod[msg.sender]);\r\n\r\n        uint256 bnbToSend = _maxAmount;\r\n        if(bnbToSend > withdrawableBnb[msg.sender]) {\r\n            bnbToSend = withdrawableBnb[msg.sender];\r\n        }\r\n        if(bnbToSend > withdrawableBnbDuringPeriod) {\r\n            bnbToSend = withdrawableBnbDuringPeriod;\r\n        }\r\n\r\n        // because of if statement above, 'bnbToSend' is guaranteed to be lte 'withdrawableBnb[msg.sender]'\r\n        // this saves gas\r\n        withdrawableBnb[msg.sender] -= bnbToSend;\r\n        totalOwedBnb -= bnbToSend;\r\n        withdrawnBnbDuringPeriod[msg.sender] = withdrawnBnbDuringPeriod[msg.sender].add(bnbToSend);\r\n\r\n        // supposedly, send and transfer are discouraged since ether istanbul update\r\n        (bool sent,) = msg.sender.call{value: bnbToSend}(\"\");\r\n        require(sent, \"Failed to send BNB\");\r\n    }\r\n\r\n    modifier restricted() {\r\n        require(hasRole(DEFAULT_ADMIN_ROLE, msg.sender), \"Missing DEFAULT_ADMIN_ROLE role\");\r\n        _;\r\n    }\r\n\r\n}",
  "sourcePath": "K:\\\\cryptoblades1\\cryptoblades\\contracts\\WaxBridge.sol",
  "compiler": {
    "name": "solc",
    "version": "0.6.5+commit.f956cc89.Emscripten.clang"
  },
  "schemaVersion": "3.4.5",
  "updatedAt": "2022-09-25T07:47:10.477Z",
  "networkType": "ethereum",
  "devdoc": {
    "methods": {
      "getRoleAdmin(bytes32)": {
        "details": "Returns the admin role that controls `role`. See {grantRole} and {revokeRole}.     * To change a role's admin, use {_setRoleAdmin}."
      },
      "getRoleMember(bytes32,uint256)": {
        "details": "Returns one of the accounts that have `role`. `index` must be a value between 0 and {getRoleMemberCount}, non-inclusive.     * Role bearers are not sorted in any particular way, and their ordering may change at any point.     * WARNING: When using {getRoleMember} and {getRoleMemberCount}, make sure you perform all queries on the same block. See the following https://forum.openzeppelin.com/t/iterating-over-elements-on-enumerableset-in-openzeppelin-contracts/2296[forum post] for more information."
      },
      "getRoleMemberCount(bytes32)": {
        "details": "Returns the number of accounts that have `role`. Can be used together with {getRoleMember} to enumerate all bearers of a role."
      },
      "grantRole(bytes32,address)": {
        "details": "Grants `role` to `account`.     * If `account` had not been already granted `role`, emits a {RoleGranted} event.     * Requirements:     * - the caller must have ``role``'s admin role."
      },
      "hasRole(bytes32,address)": {
        "details": "Returns `true` if `account` has been granted `role`."
      },
      "renounceRole(bytes32,address)": {
        "details": "Revokes `role` from the calling account.     * Roles are often managed via {grantRole} and {revokeRole}: this function's purpose is to provide a mechanism for accounts to lose their privileges if they are compromised (such as when a trusted device is misplaced).     * If the calling account had been granted `role`, emits a {RoleRevoked} event.     * Requirements:     * - the caller must be `account`."
      },
      "revokeRole(bytes32,address)": {
        "details": "Revokes `role` from `account`.     * If `account` had been granted `role`, emits a {RoleRevoked} event.     * Requirements:     * - the caller must have ``role``'s admin role."
      }
    }
  },
  "userdoc": {
    "methods": {}
  }
}