{
  "contractName": "WeaponBridgeProxyContract",
  "abi": [
    {
      "anonymous": false,
      "inputs": [
        {
          "indexed": true,
          "internalType": "bytes32",
          "name": "role",
          "type": "bytes32"
        },
        {
          "indexed": true,
          "internalType": "bytes32",
          "name": "previousAdminRole",
          "type": "bytes32"
        },
        {
          "indexed": true,
          "internalType": "bytes32",
          "name": "newAdminRole",
          "type": "bytes32"
        }
      ],
      "name": "RoleAdminChanged",
      "type": "event"
    },
    {
      "anonymous": false,
      "inputs": [
        {
          "indexed": true,
          "internalType": "bytes32",
          "name": "role",
          "type": "bytes32"
        },
        {
          "indexed": true,
          "internalType": "address",
          "name": "account",
          "type": "address"
        },
        {
          "indexed": true,
          "internalType": "address",
          "name": "sender",
          "type": "address"
        }
      ],
      "name": "RoleGranted",
      "type": "event"
    },
    {
      "anonymous": false,
      "inputs": [
        {
          "indexed": true,
          "internalType": "bytes32",
          "name": "role",
          "type": "bytes32"
        },
        {
          "indexed": true,
          "internalType": "address",
          "name": "account",
          "type": "address"
        },
        {
          "indexed": true,
          "internalType": "address",
          "name": "sender",
          "type": "address"
        }
      ],
      "name": "RoleRevoked",
      "type": "event"
    },
    {
      "inputs": [],
      "name": "DEFAULT_ADMIN_ROLE",
      "outputs": [
        {
          "internalType": "bytes32",
          "name": "",
          "type": "bytes32"
        }
      ],
      "stateMutability": "view",
      "type": "function",
      "constant": true
    },
    {
      "inputs": [],
      "name": "GAME_ADMIN",
      "outputs": [
        {
          "internalType": "bytes32",
          "name": "",
          "type": "bytes32"
        }
      ],
      "stateMutability": "view",
      "type": "function",
      "constant": true
    },
    {
      "inputs": [],
      "name": "UINT_NFT_VAR_META",
      "outputs": [
        {
          "internalType": "uint8",
          "name": "",
          "type": "uint8"
        }
      ],
      "stateMutability": "view",
      "type": "function",
      "constant": true
    },
    {
      "inputs": [],
      "name": "UINT_NFT_VAR_SEED3DCOSMETIC",
      "outputs": [
        {
          "internalType": "uint8",
          "name": "",
          "type": "uint8"
        }
      ],
      "stateMutability": "view",
      "type": "function",
      "constant": true
    },
    {
      "inputs": [
        {
          "internalType": "bytes32",
          "name": "role",
          "type": "bytes32"
        }
      ],
      "name": "getRoleAdmin",
      "outputs": [
        {
          "internalType": "bytes32",
          "name": "",
          "type": "bytes32"
        }
      ],
      "stateMutability": "view",
      "type": "function",
      "constant": true
    },
    {
      "inputs": [
        {
          "internalType": "bytes32",
          "name": "role",
          "type": "bytes32"
        },
        {
          "internalType": "uint256",
          "name": "index",
          "type": "uint256"
        }
      ],
      "name": "getRoleMember",
      "outputs": [
        {
          "internalType": "address",
          "name": "",
          "type": "address"
        }
      ],
      "stateMutability": "view",
      "type": "function",
      "constant": true
    },
    {
      "inputs": [
        {
          "internalType": "bytes32",
          "name": "role",
          "type": "bytes32"
        }
      ],
      "name": "getRoleMemberCount",
      "outputs": [
        {
          "internalType": "uint256",
          "name": "",
          "type": "uint256"
        }
      ],
      "stateMutability": "view",
      "type": "function",
      "constant": true
    },
    {
      "inputs": [
        {
          "internalType": "bytes32",
          "name": "role",
          "type": "bytes32"
        },
        {
          "internalType": "address",
          "name": "account",
          "type": "address"
        }
      ],
      "name": "grantRole",
      "outputs": [],
      "stateMutability": "nonpayable",
      "type": "function"
    },
    {
      "inputs": [
        {
          "internalType": "bytes32",
          "name": "role",
          "type": "bytes32"
        },
        {
          "internalType": "address",
          "name": "account",
          "type": "address"
        }
      ],
      "name": "hasRole",
      "outputs": [
        {
          "internalType": "bool",
          "name": "",
          "type": "bool"
        }
      ],
      "stateMutability": "view",
      "type": "function",
      "constant": true
    },
    {
      "inputs": [
        {
          "internalType": "bytes32",
          "name": "role",
          "type": "bytes32"
        },
        {
          "internalType": "address",
          "name": "account",
          "type": "address"
        }
      ],
      "name": "renounceRole",
      "outputs": [],
      "stateMutability": "nonpayable",
      "type": "function"
    },
    {
      "inputs": [
        {
          "internalType": "bytes32",
          "name": "role",
          "type": "bytes32"
        },
        {
          "internalType": "address",
          "name": "account",
          "type": "address"
        }
      ],
      "name": "revokeRole",
      "outputs": [],
      "stateMutability": "nonpayable",
      "type": "function"
    },
    {
      "inputs": [
        {
          "internalType": "address",
          "name": "_nftStorageAddress",
          "type": "address"
        },
        {
          "internalType": "address",
          "name": "_weapons",
          "type": "address"
        },
        {
          "internalType": "address",
          "name": "_weaponCosmetics",
          "type": "address"
        },
        {
          "internalType": "address",
          "name": "_weaponRenameTagConsumables",
          "type": "address"
        }
      ],
      "name": "initialize",
      "outputs": [],
      "stateMutability": "nonpayable",
      "type": "function"
    },
    {
      "inputs": [
        {
          "internalType": "uint256",
          "name": "tokenId",
          "type": "uint256"
        }
      ],
      "name": "collectData",
      "outputs": [
        {
          "internalType": "uint256[]",
          "name": "uintVars",
          "type": "uint256[]"
        },
        {
          "internalType": "string",
          "name": "stringVar",
          "type": "string"
        }
      ],
      "stateMutability": "view",
      "type": "function",
      "constant": true
    },
    {
      "inputs": [],
      "name": "sigVersion",
      "outputs": [
        {
          "internalType": "uint256",
          "name": "",
          "type": "uint256"
        }
      ],
      "stateMutability": "view",
      "type": "function",
      "constant": true
    },
    {
      "inputs": [],
      "name": "isEnabled",
      "outputs": [
        {
          "internalType": "bool",
          "name": "",
          "type": "bool"
        }
      ],
      "stateMutability": "view",
      "type": "function",
      "constant": true
    },
    {
      "inputs": [
        {
          "internalType": "bool",
          "name": "_enabled",
          "type": "bool"
        }
      ],
      "name": "setEnabled",
      "outputs": [],
      "stateMutability": "nonpayable",
      "type": "function"
    },
    {
      "inputs": [
        {
          "internalType": "uint256",
          "name": "tokenId",
          "type": "uint256"
        },
        {
          "internalType": "uint256[]",
          "name": "uintVars",
          "type": "uint256[]"
        },
        {
          "internalType": "string",
          "name": "stringVar",
          "type": "string"
        }
      ],
      "name": "mintOrUpdate",
      "outputs": [
        {
          "internalType": "uint256",
          "name": "",
          "type": "uint256"
        }
      ],
      "stateMutability": "nonpayable",
      "type": "function"
    }
  ],
  "bytecode": "0x608060405234801561001057600080fd5b5061143b806100206000396000f3fe608060405234801561001057600080fd5b506004361061010b5760003560e01c80636aa633b6116100a2578063ca15c87311610071578063ca15c8731461034f578063cf17d1b41461036c578063d547741f14610374578063f8c8765e146103a0578063f9519407146103de5761010b565b80636aa633b6146102c05780639010d07c146102dc57806391d148541461031b578063a217fddf146103475761010b565b8063328d8f72116100de578063328d8f721461026557806336568abe146102845780634594fac4146102b05780635504d3d2146102b85761010b565b8063135701f71461011057806319dd746a1461012e578063248a9ca3146102085780632f2ff15d14610237575b600080fd5b6101186104a7565b6040805160ff9092168252519081900360200190f35b61014b6004803603602081101561014457600080fd5b50356104ac565b604051808060200180602001838103835285818151815260200191508051906020019060200280838360005b8381101561018f578181015183820152602001610177565b50505050905001838103825284818151815260200191508051906020019080838360005b838110156101cb5781810151838201526020016101b3565b50505050905090810190601f1680156101f85780820380516001836020036101000a031916815260200191505b5094505050505060405180910390f35b6102256004803603602081101561021e57600080fd5b503561088e565b60408051918252519081900360200190f35b6102636004803603604081101561024d57600080fd5b50803590602001356001600160a01b03166108a3565b005b6102636004803603602081101561027b57600080fd5b5035151561090f565b6102636004803603604081101561029a57600080fd5b50803590602001356001600160a01b0316610935565b610225610996565b61022561099b565b6102c86109bd565b604080519115158252519081900360200190f35b6102ff600480360360408110156102f257600080fd5b50803590602001356109cd565b604080516001600160a01b039092168252519081900360200190f35b6102c86004803603604081101561033157600080fd5b50803590602001356001600160a01b03166109f4565b6102256104a7565b6102256004803603602081101561036557600080fd5b5035610a12565b610118610a29565b6102636004803603604081101561038a57600080fd5b50803590602001356001600160a01b0316610a2e565b610263600480360360808110156103b657600080fd5b506001600160a01b038135811691602081013582169160408201358116916060013516610a87565b610225600480360360608110156103f457600080fd5b8135919081019060408101602082013564010000000081111561041657600080fd5b82018360208201111561042857600080fd5b8035906020019184602083028401116401000000008311171561044a57600080fd5b91939092909160208101903564010000000081111561046857600080fd5b82018360208201111561047a57600080fd5b8035906020019184600183028401116401000000008311171561049c57600080fd5b509092509050610b8a565b600081565b6060806000806000806000806000606560009054906101000a90046001600160a01b03166001600160a01b0316639507d39a8b6040518263ffffffff1660e01b8152600401808281526020019150506101206040518083038186803b15801561051457600080fd5b505afa158015610528573d6000803e3d6000fd5b505050506040513d61012081101561053f57600080fd5b81019080805190602001909291908051906020019092919080519060200190929190805190602001909291908051906020019092919080519060200190929190805190602001909291908051906020019092919080519060200190929190505050985050975050965096509650965096506000606660009054906101000a90046001600160a01b03166001600160a01b031663d6f7b0938c6040518263ffffffff1660e01b81526004018082815260200191505060206040518083038186803b15801561060b57600080fd5b505afa15801561061f573d6000803e3d6000fd5b505050506040513d602081101561063557600080fd5b505160675460408051634257fb5560e01b8152600481018f905290519293506060926001600160a01b0390921691634257fb5591602480820192600092909190829003018186803b15801561068957600080fd5b505afa15801561069d573d6000803e3d6000fd5b505050506040513d6000823e601f3d908101601f1916820160405260208110156106c657600080fd5b81019080805160405193929190846401000000008211156106e657600080fd5b9083019060208201858111156106fb57600080fd5b825164010000000081118282018810171561071557600080fd5b82525081516020918201929091019080838360005b8381101561074257818101518382015260200161072a565b50505050905090810190601f16801561076f5780820380516001836020036101000a031916815260200191505b5060405250505090506000606560009054906101000a90046001600160a01b03166001600160a01b031663262b58148e6040518263ffffffff1660e01b81526004018082815260200191505060206040518083038186803b1580156107d357600080fd5b505afa1580156107e7573d6000803e3d6000fd5b505050506040513d60208110156107fd57600080fd5b50516040805160028082526060820183529293509190602083019080368337019050509b50610845838b8b8b8b8b60ff808d169060088e901c81169060108f901c168d610dfa565b8c600060ff168151811061085557fe5b602002602001018181525050808c600160ff168151811061087257fe5b602090810291909101015250999b999a50505050505050505050565b60009081526033602052604090206002015490565b6000828152603360205260409020600201546108c6906108c1610e84565b6109f4565b6109015760405162461bcd60e51b815260040180806020018281038252602f81526020018061134a602f913960400191505060405180910390fd5b61090b8282610e88565b5050565b610917610ef7565b60688054911515600160a01b0260ff60a01b19909216919091179055565b61093d610e84565b6001600160a01b0316816001600160a01b03161461098c5760405162461bcd60e51b815260040180806020018281038252602f8152602001806113d7602f913960400191505060405180910390fd5b61090b8282610f69565b600190565b604080516923a0a6a2afa0a226a4a760b11b8152905190819003600a01902081565b606854600160a01b900460ff1690565b60008281526033602052604081206109eb908363ffffffff610fd816565b90505b92915050565b60008281526033602052604081206109eb908363ffffffff610fe416565b60008181526033602052604081206109ee90610ff9565b600181565b600082815260336020526040902060020154610a4c906108c1610e84565b61098c5760405162461bcd60e51b81526004018080602001828103825260308152602001806113796030913960400191505060405180910390fd5b600054610100900460ff1680610aa05750610aa0611004565b80610aae575060005460ff16155b610ae95760405162461bcd60e51b815260040180806020018281038252602e8152602001806113a9602e913960400191505060405180910390fd5b600054610100900460ff16158015610b14576000805460ff1961ff0019909116610100171660011790555b610b1c611015565b610b27600033610901565b606880546001600160a01b038088166001600160a01b031992831617909255606580548784169083161790556066805486841690831617905560678054928516929091169190911790558015610b83576000805461ff00191690555b5050505050565b6000610b94610ef7565b606854600160a01b900460ff16610be0576040805162461bcd60e51b815260206004820152600b60248201526a1b9bdd08195b98589b195960aa1b604482015290519081900360640190fd5b6000606086868381610bee57fe5b60655460685463ffffffff6020909302949094013590941c169350506001600160a01b0391821691632499bb0991168888600081610c2857fe5b905060200201358989600160ff16818110610c3f57fe5b905060200201358b6040518563ffffffff1660e01b815260040180856001600160a01b03166001600160a01b03168152602001848152602001838152602001828152602001945050505050602060405180830381600087803b158015610ca457600080fd5b505af1158015610cb8573d6000803e3d6000fd5b505050506040513d6020811015610cce57600080fd5b5051965063ffffffff811615610d5057606654604080516303bb877560e11b8152600481018a905263ffffffff8416602482015290516001600160a01b03909216916307770eea9160448082019260009290919082900301818387803b158015610d3757600080fd5b505af1158015610d4b573d6000803e3d6000fd5b505050505b8215610def5760675460408051637f2ac99560e11b8152600481018a815260248201928352604482018790526001600160a01b039093169263fe55932a928b92899289929091606401848480828437600081840152601f19601f820116905080830192505050945050505050600060405180830381600087803b158015610dd657600080fd5b505af1158015610dea573d6000803e3d6000fd5b505050505b509495945050505050565b60801b62ffffff60801b1660609990991b63ffffffff60601b1660509890981b61ffff60501b1660409790971b69ffff00000000000000001660309690961b67ffff0000000000001660209590951b65ffff000000001660189490941b63ff0000001660109390931b62ff00001660089290921b61ff001660ff9190911617171717171717171790565b3390565b6000828152603360205260409020610ea6908263ffffffff6110c716565b1561090b57610eb3610e84565b6001600160a01b0316816001600160a01b0316837f2f8788117e7eff1d82e926ec794901d17c78024a50270940304540a733656f0d60405160405180910390a45050565b604080516923a0a6a2afa0a226a4a760b11b8152905190819003600a019020610f2090336109f4565b80610f315750610f316000336109f4565b610f67576040805162461bcd60e51b81526020600482015260026024820152614e4160f01b604482015290519081900360640190fd5b565b6000828152603360205260409020610f87908263ffffffff6110dc16565b1561090b57610f94610e84565b6001600160a01b0316816001600160a01b0316837ff6391f5c32d9c69d2a47ea670b442974b53935d1edc7fd64eb21e047a839171b60405160405180910390a45050565b60006109eb83836110f1565b60006109eb836001600160a01b038416611155565b60006109ee8261116d565b600061100f30611171565b15905090565b600054610100900460ff168061102e575061102e611004565b8061103c575060005460ff16155b6110775760405162461bcd60e51b815260040180806020018281038252602e8152602001806113a9602e913960400191505060405180910390fd5b600054610100900460ff161580156110a2576000805460ff1961ff0019909116610100171660011790555b6110aa611177565b6110b2611177565b80156110c4576000805461ff00191690555b50565b60006109eb836001600160a01b038416611217565b60006109eb836001600160a01b038416611261565b815460009082106111335760405162461bcd60e51b81526004018080602001828103825260228152602001806113286022913960400191505060405180910390fd5b82600001828154811061114257fe5b9060005260206000200154905092915050565b60009081526001919091016020526040902054151590565b5490565b3b151590565b600054610100900460ff16806111905750611190611004565b8061119e575060005460ff16155b6111d95760405162461bcd60e51b815260040180806020018281038252602e8152602001806113a9602e913960400191505060405180910390fd5b600054610100900460ff161580156110b2576000805460ff1961ff00199091166101001716600117905580156110c4576000805461ff001916905550565b60006112238383611155565b611259575081546001818101845560008481526020808220909301849055845484825282860190935260409020919091556109ee565b5060006109ee565b6000818152600183016020526040812054801561131d578354600019808301919081019060009087908390811061129457fe5b90600052602060002001549050808760000184815481106112b157fe5b6000918252602080832090910192909255828152600189810190925260409020908401905586548790806112e157fe5b600190038181906000526020600020016000905590558660010160008781526020019081526020016000206000905560019450505050506109ee565b60009150506109ee56fe456e756d657261626c655365743a20696e646578206f7574206f6620626f756e6473416363657373436f6e74726f6c3a2073656e646572206d75737420626520616e2061646d696e20746f206772616e74416363657373436f6e74726f6c3a2073656e646572206d75737420626520616e2061646d696e20746f207265766f6b65496e697469616c697a61626c653a20636f6e747261637420697320616c726561647920696e697469616c697a6564416363657373436f6e74726f6c3a2063616e206f6e6c792072656e6f756e636520726f6c657320666f722073656c66a26469706673582212204a6c51da265f214a7fc07c6230a2bcb9a7acea151edcdb8ced9398c4aca718a964736f6c63430006050033",
  "immutableReferences": {},
  "source": "pragma solidity ^0.6.0;\r\n\r\nimport \"@openzeppelin/contracts-upgradeable/proxy/Initializable.sol\";\r\nimport \"@openzeppelin/contracts-upgradeable/access/AccessControlUpgradeable.sol\";\r\nimport \"./WeaponCosmetics.sol\";\r\nimport \"./WeaponRenameTagConsumables.sol\";\r\nimport \"./weapons.sol\";\r\nimport \"./interfaces/IBridgeProxy.sol\";\r\n\r\n\r\ncontract WeaponBridgeProxyContract is Initializable, AccessControlUpgradeable, IBridgeProxy {\r\n  \r\n    bytes32 public constant GAME_ADMIN = keccak256(\"GAME_ADMIN\");\r\n\r\n    Weapons weapons;\r\n    WeaponCosmetics weaponCosmetics;\r\n    WeaponRenameTagConsumables weaponRenameTagConsumables;\r\n    address nftStorageAddress;\r\n    bool enabled;\r\n\r\n    uint8 public constant UINT_NFT_VAR_META = 0;\r\n    uint8 public constant UINT_NFT_VAR_SEED3DCOSMETIC = 1;\r\n\r\n    modifier restricted() {\r\n        _restricted();\r\n        _;\r\n    }\r\n\r\n    function _restricted() internal view {\r\n        require(hasRole(GAME_ADMIN, msg.sender) || hasRole(DEFAULT_ADMIN_ROLE, msg.sender), \"NA\");\r\n    }\r\n\r\n    function initialize(address _nftStorageAddress, address _weapons, address _weaponCosmetics, address _weaponRenameTagConsumables) public initializer {\r\n        __AccessControl_init();\r\n\r\n        _setupRole(DEFAULT_ADMIN_ROLE, msg.sender);\r\n\r\n        nftStorageAddress = _nftStorageAddress;\r\n        weapons = Weapons(_weapons);\r\n        weaponCosmetics = WeaponCosmetics(_weaponCosmetics);\r\n        weaponRenameTagConsumables = WeaponRenameTagConsumables(_weaponRenameTagConsumables);\r\n    }\r\n\r\n \r\n    function collectData(uint256 tokenId) external view override returns (uint256[] memory uintVars, string memory stringVar) {\r\n        \r\n        (uint16 _properties, uint16 _stat1, uint16 _stat2, uint16 _stat3, uint8 _level,, uint24 _burnPoints,, uint24 _weaponType) = weapons.get(tokenId);\r\n        uint32 appliedCosmetic = weaponCosmetics.getWeaponCosmetic(tokenId);\r\n        string memory rename = weaponRenameTagConsumables.getWeaponRename(tokenId);\r\n        uint256 seed3dCosmetics = weapons.getCosmeticsSeed(tokenId);\r\n\r\n        uintVars = new uint256[](2);\r\n        uintVars[UINT_NFT_VAR_META] = _packWeaponsData(appliedCosmetic, _properties, _stat1, _stat2, _stat3, _level, uint8(_burnPoints & 0xFF), uint8((_burnPoints >> 8) & 0xFF), uint8((_burnPoints >> 16) & 0xFF), _weaponType);\r\n        uintVars[UINT_NFT_VAR_SEED3DCOSMETIC] = seed3dCosmetics;\r\n\r\n        stringVar = rename;\r\n    }\r\n\r\n    // for future use, bot will probe the returned value to know if the proxy contract has proper signature behavior\r\n    function sigVersion() external view override returns (uint256) {\r\n        return 1;\r\n    }\r\n\r\n    function isEnabled() external view override returns (bool) {\r\n        return enabled;\r\n    }\r\n\r\n    function setEnabled(bool _enabled) external restricted {\r\n        enabled = _enabled;\r\n    }\r\n\r\n    function mintOrUpdate(uint256 tokenId, uint256[] calldata uintVars, string calldata stringVar) external restricted override returns (uint256) {\r\n        require(enabled, \"not enabled\");\r\n\r\n        uint32 appliedCosmetic = uint32((uintVars[UINT_NFT_VAR_META] >> 96) & 0xFFFFFFFF);\r\n\r\n         tokenId = \r\n            weapons.performMintWeaponDetailed(nftStorageAddress, uintVars[UINT_NFT_VAR_META], uintVars[UINT_NFT_VAR_SEED3DCOSMETIC], tokenId);\r\n\r\n        if(appliedCosmetic > 0) {\r\n            weaponCosmetics.setWeaponCosmetic(tokenId, appliedCosmetic);\r\n        }\r\n\r\n        if(bytes(stringVar).length > 0) {\r\n            weaponRenameTagConsumables.setName(tokenId, stringVar);\r\n        }\r\n\r\n        return tokenId;\r\n    }\r\n\r\n    function _packWeaponsData(uint32 appliedCosmetic, uint16 properties, uint16 stat1, uint16 stat2, uint16 stat3, uint8 weaponLevel, uint8 lowStarBurnPoints, uint8 fourStarBurnPoints, uint8 fiveStarBurnPoints, uint24 weaponType) internal pure returns (uint256) {\r\n        return  uint256(fiveStarBurnPoints | (uint256(fourStarBurnPoints) << 8) | (uint256(lowStarBurnPoints) << 16) | (uint256(weaponLevel) << 24) | (uint256(stat3) << 32) | (uint256(stat2) << 48) | (uint256(stat1) << 64) | (uint256(properties) << 80) | (uint256(appliedCosmetic) << 96) | (uint256(weaponType) << 128));\r\n    }\r\n}\r\n",
  "sourcePath": "K:\\\\cryptoblades1\\cryptoblades\\contracts\\WeaponBridgeProxyContract.sol",
  "compiler": {
    "name": "solc",
    "version": "0.6.5+commit.f956cc89.Emscripten.clang"
  },
  "schemaVersion": "3.4.5",
  "updatedAt": "2022-09-25T08:06:25.514Z",
  "networkType": "ethereum",
  "devdoc": {
    "methods": {
      "getRoleAdmin(bytes32)": {
        "details": "Returns the admin role that controls `role`. See {grantRole} and {revokeRole}.     * To change a role's admin, use {_setRoleAdmin}."
      },
      "getRoleMember(bytes32,uint256)": {
        "details": "Returns one of the accounts that have `role`. `index` must be a value between 0 and {getRoleMemberCount}, non-inclusive.     * Role bearers are not sorted in any particular way, and their ordering may change at any point.     * WARNING: When using {getRoleMember} and {getRoleMemberCount}, make sure you perform all queries on the same block. See the following https://forum.openzeppelin.com/t/iterating-over-elements-on-enumerableset-in-openzeppelin-contracts/2296[forum post] for more information."
      },
      "getRoleMemberCount(bytes32)": {
        "details": "Returns the number of accounts that have `role`. Can be used together with {getRoleMember} to enumerate all bearers of a role."
      },
      "grantRole(bytes32,address)": {
        "details": "Grants `role` to `account`.     * If `account` had not been already granted `role`, emits a {RoleGranted} event.     * Requirements:     * - the caller must have ``role``'s admin role."
      },
      "hasRole(bytes32,address)": {
        "details": "Returns `true` if `account` has been granted `role`."
      },
      "renounceRole(bytes32,address)": {
        "details": "Revokes `role` from the calling account.     * Roles are often managed via {grantRole} and {revokeRole}: this function's purpose is to provide a mechanism for accounts to lose their privileges if they are compromised (such as when a trusted device is misplaced).     * If the calling account had been granted `role`, emits a {RoleRevoked} event.     * Requirements:     * - the caller must be `account`."
      },
      "revokeRole(bytes32,address)": {
        "details": "Revokes `role` from `account`.     * If `account` had been granted `role`, emits a {RoleRevoked} event.     * Requirements:     * - the caller must have ``role``'s admin role."
      }
    }
  },
  "userdoc": {
    "methods": {}
  }
}