{
  "contractName": "WeaponRenameTagConsumables",
  "abi": [
    {
      "anonymous": false,
      "inputs": [
        {
          "indexed": true,
          "internalType": "address",
          "name": "owner",
          "type": "address"
        },
        {
          "indexed": false,
          "internalType": "uint32",
          "name": "amount",
          "type": "uint32"
        }
      ],
      "name": "ConsumableGiven",
      "type": "event"
    },
    {
      "anonymous": false,
      "inputs": [
        {
          "indexed": true,
          "internalType": "bytes32",
          "name": "role",
          "type": "bytes32"
        },
        {
          "indexed": true,
          "internalType": "bytes32",
          "name": "previousAdminRole",
          "type": "bytes32"
        },
        {
          "indexed": true,
          "internalType": "bytes32",
          "name": "newAdminRole",
          "type": "bytes32"
        }
      ],
      "name": "RoleAdminChanged",
      "type": "event"
    },
    {
      "anonymous": false,
      "inputs": [
        {
          "indexed": true,
          "internalType": "bytes32",
          "name": "role",
          "type": "bytes32"
        },
        {
          "indexed": true,
          "internalType": "address",
          "name": "account",
          "type": "address"
        },
        {
          "indexed": true,
          "internalType": "address",
          "name": "sender",
          "type": "address"
        }
      ],
      "name": "RoleGranted",
      "type": "event"
    },
    {
      "anonymous": false,
      "inputs": [
        {
          "indexed": true,
          "internalType": "bytes32",
          "name": "role",
          "type": "bytes32"
        },
        {
          "indexed": true,
          "internalType": "address",
          "name": "account",
          "type": "address"
        },
        {
          "indexed": true,
          "internalType": "address",
          "name": "sender",
          "type": "address"
        }
      ],
      "name": "RoleRevoked",
      "type": "event"
    },
    {
      "anonymous": false,
      "inputs": [
        {
          "indexed": true,
          "internalType": "address",
          "name": "owner",
          "type": "address"
        },
        {
          "indexed": true,
          "internalType": "uint256",
          "name": "weapon",
          "type": "uint256"
        }
      ],
      "name": "WeaponRenamed",
      "type": "event"
    },
    {
      "inputs": [],
      "name": "DEFAULT_ADMIN_ROLE",
      "outputs": [
        {
          "internalType": "bytes32",
          "name": "",
          "type": "bytes32"
        }
      ],
      "stateMutability": "view",
      "type": "function",
      "constant": true
    },
    {
      "inputs": [],
      "name": "GAME_ADMIN",
      "outputs": [
        {
          "internalType": "bytes32",
          "name": "",
          "type": "bytes32"
        }
      ],
      "stateMutability": "view",
      "type": "function",
      "constant": true
    },
    {
      "inputs": [],
      "name": "getItemCount",
      "outputs": [
        {
          "internalType": "uint32",
          "name": "",
          "type": "uint32"
        }
      ],
      "stateMutability": "view",
      "type": "function",
      "constant": true
    },
    {
      "inputs": [
        {
          "internalType": "bytes32",
          "name": "role",
          "type": "bytes32"
        }
      ],
      "name": "getRoleAdmin",
      "outputs": [
        {
          "internalType": "bytes32",
          "name": "",
          "type": "bytes32"
        }
      ],
      "stateMutability": "view",
      "type": "function",
      "constant": true
    },
    {
      "inputs": [
        {
          "internalType": "bytes32",
          "name": "role",
          "type": "bytes32"
        },
        {
          "internalType": "uint256",
          "name": "index",
          "type": "uint256"
        }
      ],
      "name": "getRoleMember",
      "outputs": [
        {
          "internalType": "address",
          "name": "",
          "type": "address"
        }
      ],
      "stateMutability": "view",
      "type": "function",
      "constant": true
    },
    {
      "inputs": [
        {
          "internalType": "bytes32",
          "name": "role",
          "type": "bytes32"
        }
      ],
      "name": "getRoleMemberCount",
      "outputs": [
        {
          "internalType": "uint256",
          "name": "",
          "type": "uint256"
        }
      ],
      "stateMutability": "view",
      "type": "function",
      "constant": true
    },
    {
      "inputs": [
        {
          "internalType": "address",
          "name": "buyer",
          "type": "address"
        },
        {
          "internalType": "uint32",
          "name": "amount",
          "type": "uint32"
        }
      ],
      "name": "giveItem",
      "outputs": [],
      "stateMutability": "nonpayable",
      "type": "function"
    },
    {
      "inputs": [
        {
          "internalType": "address",
          "name": "receiver",
          "type": "address"
        },
        {
          "internalType": "uint32",
          "name": "amount",
          "type": "uint32"
        }
      ],
      "name": "giveItemByAdmin",
      "outputs": [],
      "stateMutability": "nonpayable",
      "type": "function"
    },
    {
      "inputs": [
        {
          "internalType": "bytes32",
          "name": "role",
          "type": "bytes32"
        },
        {
          "internalType": "address",
          "name": "account",
          "type": "address"
        }
      ],
      "name": "grantRole",
      "outputs": [],
      "stateMutability": "nonpayable",
      "type": "function"
    },
    {
      "inputs": [
        {
          "internalType": "bytes32",
          "name": "role",
          "type": "bytes32"
        },
        {
          "internalType": "address",
          "name": "account",
          "type": "address"
        }
      ],
      "name": "hasRole",
      "outputs": [
        {
          "internalType": "bool",
          "name": "",
          "type": "bool"
        }
      ],
      "stateMutability": "view",
      "type": "function",
      "constant": true
    },
    {
      "inputs": [],
      "name": "itemEnabled",
      "outputs": [
        {
          "internalType": "bool",
          "name": "",
          "type": "bool"
        }
      ],
      "stateMutability": "view",
      "type": "function",
      "constant": true
    },
    {
      "inputs": [
        {
          "internalType": "address",
          "name": "",
          "type": "address"
        }
      ],
      "name": "owned",
      "outputs": [
        {
          "internalType": "uint32",
          "name": "",
          "type": "uint32"
        }
      ],
      "stateMutability": "view",
      "type": "function",
      "constant": true
    },
    {
      "inputs": [
        {
          "internalType": "uint256",
          "name": "",
          "type": "uint256"
        }
      ],
      "name": "renames",
      "outputs": [
        {
          "internalType": "string",
          "name": "",
          "type": "string"
        }
      ],
      "stateMutability": "view",
      "type": "function",
      "constant": true
    },
    {
      "inputs": [
        {
          "internalType": "bytes32",
          "name": "role",
          "type": "bytes32"
        },
        {
          "internalType": "address",
          "name": "account",
          "type": "address"
        }
      ],
      "name": "renounceRole",
      "outputs": [],
      "stateMutability": "nonpayable",
      "type": "function"
    },
    {
      "inputs": [
        {
          "internalType": "bytes32",
          "name": "role",
          "type": "bytes32"
        },
        {
          "internalType": "address",
          "name": "account",
          "type": "address"
        }
      ],
      "name": "revokeRole",
      "outputs": [],
      "stateMutability": "nonpayable",
      "type": "function"
    },
    {
      "inputs": [
        {
          "internalType": "address",
          "name": "target",
          "type": "address"
        },
        {
          "internalType": "uint32",
          "name": "amount",
          "type": "uint32"
        }
      ],
      "name": "takeItemByAdmin",
      "outputs": [],
      "stateMutability": "nonpayable",
      "type": "function"
    },
    {
      "inputs": [
        {
          "internalType": "bool",
          "name": "canUse",
          "type": "bool"
        }
      ],
      "name": "toggleItemCanUse",
      "outputs": [],
      "stateMutability": "nonpayable",
      "type": "function"
    },
    {
      "inputs": [],
      "name": "weapons",
      "outputs": [
        {
          "internalType": "contract Weapons",
          "name": "",
          "type": "address"
        }
      ],
      "stateMutability": "view",
      "type": "function",
      "constant": true
    },
    {
      "inputs": [],
      "name": "initialize",
      "outputs": [],
      "stateMutability": "nonpayable",
      "type": "function"
    },
    {
      "inputs": [
        {
          "internalType": "contract Weapons",
          "name": "_weapons",
          "type": "address"
        }
      ],
      "name": "initialize",
      "outputs": [],
      "stateMutability": "nonpayable",
      "type": "function"
    },
    {
      "inputs": [
        {
          "internalType": "uint256",
          "name": "weaponId",
          "type": "uint256"
        },
        {
          "internalType": "string",
          "name": "newName",
          "type": "string"
        }
      ],
      "name": "renameWeapon",
      "outputs": [],
      "stateMutability": "nonpayable",
      "type": "function"
    },
    {
      "inputs": [
        {
          "internalType": "uint256",
          "name": "weaponId",
          "type": "uint256"
        }
      ],
      "name": "getWeaponRename",
      "outputs": [
        {
          "internalType": "string",
          "name": "",
          "type": "string"
        }
      ],
      "stateMutability": "view",
      "type": "function",
      "constant": true
    },
    {
      "inputs": [
        {
          "internalType": "uint8",
          "name": "newMinSize",
          "type": "uint8"
        }
      ],
      "name": "setMinSize",
      "outputs": [],
      "stateMutability": "nonpayable",
      "type": "function"
    },
    {
      "inputs": [
        {
          "internalType": "uint8",
          "name": "newMaxSize",
          "type": "uint8"
        }
      ],
      "name": "setMaxSize",
      "outputs": [],
      "stateMutability": "nonpayable",
      "type": "function"
    },
    {
      "inputs": [],
      "name": "getMinSize",
      "outputs": [
        {
          "internalType": "uint8",
          "name": "",
          "type": "uint8"
        }
      ],
      "stateMutability": "view",
      "type": "function",
      "constant": true
    },
    {
      "inputs": [],
      "name": "getMaxSize",
      "outputs": [
        {
          "internalType": "uint8",
          "name": "",
          "type": "uint8"
        }
      ],
      "stateMutability": "view",
      "type": "function",
      "constant": true
    },
    {
      "inputs": [
        {
          "internalType": "uint256",
          "name": "weaponId",
          "type": "uint256"
        },
        {
          "internalType": "string",
          "name": "newName",
          "type": "string"
        }
      ],
      "name": "setName",
      "outputs": [],
      "stateMutability": "nonpayable",
      "type": "function"
    }
  ],
  "bytecode": "0x608060405234801561001057600080fd5b506117a0806100206000396000f3fe608060405234801561001057600080fd5b50600436106101a95760003560e01c806391d14854116100f9578063d07041e011610097578063ec36f84911610071578063ec36f849146105c4578063f9e54cb4146105e3578063fe55932a146105eb578063ff5e1d7214610698576101a9565b8063d07041e0146104e3578063d547741f146104eb578063e693d61014610517576101a9565b8063b7e1cd86116100d3578063b7e1cd8614610466578063c4d66de81461046e578063c59284ee14610494578063ca15c873146104c6576101a9565b806391d14854146103f8578063a217fddf14610438578063b1ab931714610440576101a9565b80634d3751281161016657806363e1d57c1161014057806363e1d57c146103725780637749cf23146103905780638129fc1c146103b15780639010d07c146103b9576101a9565b80634d3751281461031b5780635504d3d21461034d57806362cbcec114610355576101a9565b8063248a9ca3146101ae5780632f2ff15d146101dd5780632ff6a0441461020b57806336568abe1461023d5780634257fb55146102695780634b725bbe146102fb575b600080fd5b6101cb600480360360208110156101c457600080fd5b50356106b8565b60408051918252519081900360200190f35b610209600480360360408110156101f357600080fd5b50803590602001356001600160a01b03166106cd565b005b6102096004803603604081101561022157600080fd5b5080356001600160a01b0316906020013563ffffffff16610739565b6102096004803603604081101561025357600080fd5b50803590602001356001600160a01b03166107b9565b6102866004803603602081101561027f57600080fd5b503561081a565b6040805160208082528351818301528351919283929083019185019080838360005b838110156102c05781810151838201526020016102a8565b50505050905090810190601f1680156102ed5780820380516001836020036101000a031916815260200191505b509250505060405180910390f35b6102096004803603602081101561031157600080fd5b503560ff166108bb565b6102096004803603604081101561033157600080fd5b5080356001600160a01b0316906020013563ffffffff1661096a565b6101cb6109df565b6102866004803603602081101561036b57600080fd5b5035610a01565b61037a610a9c565b6040805160ff9092168252519081900360200190f35b610398610aad565b6040805163ffffffff9092168252519081900360200190f35b610209610ac6565b6103dc600480360360408110156103cf57600080fd5b5080359060200135610b88565b604080516001600160a01b039092168252519081900360200190f35b6104246004803603604081101561040e57600080fd5b50803590602001356001600160a01b0316610baf565b604080519115158252519081900360200190f35b6101cb610bcd565b6103986004803603602081101561045657600080fd5b50356001600160a01b0316610bd2565b6103dc610bea565b6102096004803603602081101561048457600080fd5b50356001600160a01b0316610bfe565b610209600480360360408110156104aa57600080fd5b5080356001600160a01b0316906020013563ffffffff16610cf9565b6101cb600480360360208110156104dc57600080fd5b5035610de2565b61037a610df9565b6102096004803603604081101561050157600080fd5b50803590602001356001600160a01b0316610e09565b6102096004803603604081101561052d57600080fd5b8135919081019060408101602082013564010000000081111561054f57600080fd5b82018360208201111561056157600080fd5b8035906020019184600183028401116401000000008311171561058357600080fd5b91908080601f016020809104026020016040519081016040528093929190818152602001838380828437600092019190915250929550610e62945050505050565b610209600480360360208110156105da57600080fd5b50351515610ff9565b610424611054565b6102096004803603604081101561060157600080fd5b8135919081019060408101602082013564010000000081111561062357600080fd5b82018360208201111561063557600080fd5b8035906020019184600183028401116401000000008311171561065757600080fd5b91908080601f01602080910402602001604051908101604052809392919081815260200183838082843760009201919091525092955061105d945050505050565b610209600480360360208110156106ae57600080fd5b503560ff16611089565b60009081526033602052604090206002015490565b6000828152603360205260409020600201546106f0906106eb611138565b610baf565b61072b5760405162461bcd60e51b815260040180806020018281038252602f8152602001806116af602f913960400191505060405180910390fd5b610735828261113c565b5050565b610744600033610baf565b610781576040805162461bcd60e51b81526020600482015260096024820152682737ba1030b236b4b760b91b604482015290519081900360640190fd5b6001600160a01b03919091166000908152606560205260409020805463ffffffff19811663ffffffff91821690930116919091179055565b6107c1611138565b6001600160a01b0316816001600160a01b0316146108105760405162461bcd60e51b815260040180806020018281038252602f81526020018061173c602f913960400191505060405180910390fd5b61073582826111ab565b60008181526067602090815260409182902080548351601f60026000196101006001861615020190931692909204918201849004840281018401909452808452606093928301828280156108af5780601f10610884576101008083540402835291602001916108af565b820191906000526020600020905b81548152906001019060200180831161089257829003601f168201915b50505050509050919050565b6108c6600033610baf565b610903576040805162461bcd60e51b81526020600482015260096024820152682737ba1030b236b4b760b91b604482015290519081900360640190fd5b60008160ff161161094a576040805162461bcd60e51b815260206004820152600c60248201526b696e76616c69642073697a6560a01b604482015290519081900360640190fd5b6066805460ff909216600160a81b0260ff60a81b19909216919091179055565b61097261121a565b6001600160a01b038216600081815260656020908152604091829020805463ffffffff19811663ffffffff91821687018216179091558251908516815291517f90a3437fc374e1839a62ff1148f9bdb4f02dc5e02e8393ff6cbc68b1fcec49a19281900390910190a25050565b604080516923a0a6a2afa0a226a4a760b11b8152905190819003600a01902081565b60676020908152600091825260409182902080548351601f600260001961010060018616150201909316929092049182018490048402810184019094528084529091830182828015610a945780601f10610a6957610100808354040283529160200191610a94565b820191906000526020600020905b815481529060010190602001808311610a7757829003601f168201915b505050505081565b606654600160b01b900460ff165b90565b3360009081526065602052604090205463ffffffff1690565b600054610100900460ff1680610adf5750610adf611287565b80610aed575060005460ff16155b610b285760405162461bcd60e51b815260040180806020018281038252602e81526020018061170e602e913960400191505060405180910390fd5b600054610100900460ff16158015610b53576000805460ff1961ff0019909116610100171660011790555b610b5b611298565b610b6660003361072b565b6066805460ff191660011790558015610b85576000805461ff00191690555b50565b6000828152603360205260408120610ba6908363ffffffff61133916565b90505b92915050565b6000828152603360205260408120610ba6908363ffffffff61134516565b600081565b60656020526000908152604090205463ffffffff1681565b60665461010090046001600160a01b031681565b600054610100900460ff1680610c175750610c17611287565b80610c25575060005460ff16155b610c605760405162461bcd60e51b815260040180806020018281038252602e81526020018061170e602e913960400191505060405180910390fd5b600054610100900460ff16158015610c8b576000805460ff1961ff0019909116610100171660011790555b610c93611298565b610c9e60003361072b565b60668054600160a81b600160ff1990921691909117610100600160a81b0319166101006001600160a01b038616021760ff60a81b19161760ff60b01b1916600360b31b1790558015610735576000805461ff00191690555050565b610d04600033610baf565b610d41576040805162461bcd60e51b81526020600482015260096024820152682737ba1030b236b4b760b91b604482015290519081900360640190fd5b6001600160a01b03821660009081526065602052604090205463ffffffff80831691161015610da9576040805162461bcd60e51b815260206004820152600f60248201526e4e6f7420656e6f756768206974656d60881b604482015290519081900360640190fd5b6001600160a01b03919091166000908152606560205260409020805463ffffffff19811663ffffffff9182169390930316919091179055565b6000818152603360205260408120610ba99061135a565b606654600160a81b900460ff1690565b600082815260336020526040902060020154610e27906106eb611138565b6108105760405162461bcd60e51b81526004018080602001828103825260308152602001806116de6030913960400191505060405180910390fd5b6066548151600160a81b90910460ff1611801590610e8e57506066548151600160b01b90910460ff1610155b610ed0576040805162461bcd60e51b815260206004820152600e60248201526d1cda5e99481b9bdd081d985b1a5960921b604482015290519081900360640190fd5b606654604080516331a9108f60e11b8152600481018590529051339261010090046001600160a01b031691636352211e916024808301926020929190829003018186803b158015610f2057600080fd5b505afa158015610f34573d6000803e3d6000fd5b505050506040513d6020811015610f4a57600080fd5b50516001600160a01b031614610f9e576040805162461bcd60e51b81526020600482015260146024820152732737ba103a3432903bb2b0b837b71037bbb732b960611b604482015290519081900360640190fd5b610fa86001611365565b60008281526067602090815260409091208251610fc7928401906115f4565b50604051829033907f9d14e43b6a7db6794b1aaef1acc749400eb05d00f76489eb82e677b5396151ef90600090a35050565b611004600033610baf565b611041576040805162461bcd60e51b81526020600482015260096024820152682737ba1030b236b4b760b91b604482015290519081900360640190fd5b6066805460ff1916911515919091179055565b60665460ff1690565b61106561121a565b60008281526067602090815260409091208251611084928401906115f4565b505050565b611094600033610baf565b6110d1576040805162461bcd60e51b81526020600482015260096024820152682737ba1030b236b4b760b91b604482015290519081900360640190fd5b60008160ff1611611118576040805162461bcd60e51b815260206004820152600c60248201526b696e76616c69642073697a6560a01b604482015290519081900360640190fd5b6066805460ff909216600160b01b0260ff60b01b19909216919091179055565b3390565b600082815260336020526040902061115a908263ffffffff61143416565b1561073557611167611138565b6001600160a01b0316816001600160a01b0316837f2f8788117e7eff1d82e926ec794901d17c78024a50270940304540a733656f0d60405160405180910390a45050565b60008281526033602052604090206111c9908263ffffffff61144916565b15610735576111d6611138565b6001600160a01b0316816001600160a01b0316837ff6391f5c32d9c69d2a47ea670b442974b53935d1edc7fd64eb21e047a839171b60405160405180910390a45050565b604080516923a0a6a2afa0a226a4a760b11b8152905190819003600a0190206112439033610baf565b611285576040805162461bcd60e51b815260206004820152600e60248201526d2737ba1033b0b6b29030b236b4b760911b604482015290519081900360640190fd5b565b60006112923061145e565b15905090565b600054610100900460ff16806112b157506112b1611287565b806112bf575060005460ff16155b6112fa5760405162461bcd60e51b815260040180806020018281038252602e81526020018061170e602e913960400191505060405180910390fd5b600054610100900460ff16158015611325576000805460ff1961ff0019909116610100171660011790555b8015610b85576000805461ff001916905550565b6000610ba68383611464565b6000610ba6836001600160a01b0384166114c8565b6000610ba9826114e0565b33600090815260656020526040902054819063ffffffff808316911610156113be576040805162461bcd60e51b81526020600482015260076024820152664e6f206974656d60c81b604482015290519081900360640190fd5b60665460ff16611405576040805162461bcd60e51b815260206004820152600d60248201526c125d195b48191a5cd8589b1959609a1b604482015290519081900360640190fd5b50336000908152606560205260409020805463ffffffff19811663ffffffff9182169390930316919091179055565b6000610ba6836001600160a01b0384166114e4565b6000610ba6836001600160a01b03841661152e565b3b151590565b815460009082106114a65760405162461bcd60e51b815260040180806020018281038252602281526020018061168d6022913960400191505060405180910390fd5b8260000182815481106114b557fe5b9060005260206000200154905092915050565b60009081526001919091016020526040902054151590565b5490565b60006114f083836114c8565b61152657508154600181810184556000848152602080822090930184905584548482528286019093526040902091909155610ba9565b506000610ba9565b600081815260018301602052604081205480156115ea578354600019808301919081019060009087908390811061156157fe5b906000526020600020015490508087600001848154811061157e57fe5b6000918252602080832090910192909255828152600189810190925260409020908401905586548790806115ae57fe5b60019003818190600052602060002001600090559055866001016000878152602001908152602001600020600090556001945050505050610ba9565b6000915050610ba9565b828054600181600116156101000203166002900490600052602060002090601f016020900481019282601f1061163557805160ff1916838001178555611662565b82800160010185558215611662579182015b82811115611662578251825591602001919060010190611647565b5061166e929150611672565b5090565b610aaa91905b8082111561166e576000815560010161167856fe456e756d657261626c655365743a20696e646578206f7574206f6620626f756e6473416363657373436f6e74726f6c3a2073656e646572206d75737420626520616e2061646d696e20746f206772616e74416363657373436f6e74726f6c3a2073656e646572206d75737420626520616e2061646d696e20746f207265766f6b65496e697469616c697a61626c653a20636f6e747261637420697320616c726561647920696e697469616c697a6564416363657373436f6e74726f6c3a2063616e206f6e6c792072656e6f756e636520726f6c657320666f722073656c66a2646970667358221220e2d378de17028e09b6eb7405a8d9504913053578a3f644f5540e195232b3793364736f6c63430006050033",
  "immutableReferences": {},
  "source": "pragma solidity ^0.6.5;\r\n\r\nimport \"./Consumables.sol\";\r\nimport \"./weapons.sol\";\r\n\r\ncontract WeaponRenameTagConsumables is Consumables {\r\n\r\n    Weapons public weapons;\r\n\r\n    uint8 private _minSize;\r\n    uint8 private _maxSize;\r\n\r\n    mapping(uint256 => string) public renames;\r\n\r\n    event WeaponRenamed(address indexed owner, uint256 indexed weapon);\r\n\r\n    function initialize(Weapons _weapons)\r\n        public\r\n        initializer\r\n    {\r\n        __AccessControl_init_unchained();\r\n\r\n        _setupRole(DEFAULT_ADMIN_ROLE, msg.sender);\r\n\r\n        _enabled = true;\r\n\r\n        weapons = _weapons;\r\n        _minSize = 1;\r\n        _maxSize = 24;\r\n    }\r\n\r\n    function renameWeapon(uint256 weaponId, string memory newName) public {\r\n        require(bytes(newName).length >= _minSize && bytes(newName).length <= _maxSize, 'size not valid');\r\n        require(weapons.ownerOf(weaponId) == msg.sender, \"Not the weapon owner\");\r\n        consumeItem(1);\r\n        renames[weaponId] = newName;\r\n        emit WeaponRenamed(msg.sender, weaponId);\r\n    }\r\n\r\n    function getWeaponRename(uint256 weaponId) public view returns (string memory) {\r\n        return renames[weaponId];\r\n    }\r\n\r\n    function setMinSize(uint8 newMinSize) external isAdmin {\r\n        require(newMinSize > 0, 'invalid size');\r\n        _minSize = newMinSize;\r\n    }\r\n\r\n    function setMaxSize(uint8 newMaxSize) external isAdmin {\r\n        require(newMaxSize > 0, 'invalid size');\r\n        _maxSize = newMaxSize;\r\n    }\r\n\r\n    function getMinSize() public view returns (uint8){\r\n        return _minSize;\r\n    }\r\n\r\n    function getMaxSize() public view returns (uint8){\r\n        return _maxSize;\r\n    }\r\n\r\n    function setName(uint256 weaponId, string memory newName) public restricted {\r\n        renames[weaponId] = newName;\r\n    }\r\n}",
  "sourcePath": "K:\\\\cryptoblades1\\cryptoblades\\contracts\\WeaponRenameTagConsumables.sol",
  "compiler": {
    "name": "solc",
    "version": "0.6.5+commit.f956cc89.Emscripten.clang"
  },
  "schemaVersion": "3.4.5",
  "updatedAt": "2022-09-25T08:06:25.847Z",
  "networkType": "ethereum",
  "devdoc": {
    "methods": {
      "getRoleAdmin(bytes32)": {
        "details": "Returns the admin role that controls `role`. See {grantRole} and {revokeRole}.     * To change a role's admin, use {_setRoleAdmin}."
      },
      "getRoleMember(bytes32,uint256)": {
        "details": "Returns one of the accounts that have `role`. `index` must be a value between 0 and {getRoleMemberCount}, non-inclusive.     * Role bearers are not sorted in any particular way, and their ordering may change at any point.     * WARNING: When using {getRoleMember} and {getRoleMemberCount}, make sure you perform all queries on the same block. See the following https://forum.openzeppelin.com/t/iterating-over-elements-on-enumerableset-in-openzeppelin-contracts/2296[forum post] for more information."
      },
      "getRoleMemberCount(bytes32)": {
        "details": "Returns the number of accounts that have `role`. Can be used together with {getRoleMember} to enumerate all bearers of a role."
      },
      "grantRole(bytes32,address)": {
        "details": "Grants `role` to `account`.     * If `account` had not been already granted `role`, emits a {RoleGranted} event.     * Requirements:     * - the caller must have ``role``'s admin role."
      },
      "hasRole(bytes32,address)": {
        "details": "Returns `true` if `account` has been granted `role`."
      },
      "renounceRole(bytes32,address)": {
        "details": "Revokes `role` from the calling account.     * Roles are often managed via {grantRole} and {revokeRole}: this function's purpose is to provide a mechanism for accounts to lose their privileges if they are compromised (such as when a trusted device is misplaced).     * If the calling account had been granted `role`, emits a {RoleRevoked} event.     * Requirements:     * - the caller must be `account`."
      },
      "revokeRole(bytes32,address)": {
        "details": "Revokes `role` from `account`.     * If `account` had been granted `role`, emits a {RoleRevoked} event.     * Requirements:     * - the caller must have ``role``'s admin role."
      }
    }
  },
  "userdoc": {
    "methods": {}
  }
}