{
    "contractName": "CharactersBridgeProxyContract",
    "abi": [
        {
            "anonymous": false,
            "inputs": [
                {
                    "indexed": true,
                    "internalType": "bytes32",
                    "name": "role",
                    "type": "bytes32"
                },
                {
                    "indexed": true,
                    "internalType": "bytes32",
                    "name": "previousAdminRole",
                    "type": "bytes32"
                },
                {
                    "indexed": true,
                    "internalType": "bytes32",
                    "name": "newAdminRole",
                    "type": "bytes32"
                }
            ],
            "name": "RoleAdminChanged",
            "type": "event"
        },
        {
            "anonymous": false,
            "inputs": [
                {
                    "indexed": true,
                    "internalType": "bytes32",
                    "name": "role",
                    "type": "bytes32"
                },
                {
                    "indexed": true,
                    "internalType": "address",
                    "name": "account",
                    "type": "address"
                },
                {
                    "indexed": true,
                    "internalType": "address",
                    "name": "sender",
                    "type": "address"
                }
            ],
            "name": "RoleGranted",
            "type": "event"
        },
        {
            "anonymous": false,
            "inputs": [
                {
                    "indexed": true,
                    "internalType": "bytes32",
                    "name": "role",
                    "type": "bytes32"
                },
                {
                    "indexed": true,
                    "internalType": "address",
                    "name": "account",
                    "type": "address"
                },
                {
                    "indexed": true,
                    "internalType": "address",
                    "name": "sender",
                    "type": "address"
                }
            ],
            "name": "RoleRevoked",
            "type": "event"
        },
        {
            "inputs": [],
            "name": "DEFAULT_ADMIN_ROLE",
            "outputs": [
                {
                    "internalType": "bytes32",
                    "name": "",
                    "type": "bytes32"
                }
            ],
            "stateMutability": "view",
            "type": "function"
        },
        {
            "inputs": [],
            "name": "GAME_ADMIN",
            "outputs": [
                {
                    "internalType": "bytes32",
                    "name": "",
                    "type": "bytes32"
                }
            ],
            "stateMutability": "view",
            "type": "function"
        },
        {
            "inputs": [],
            "name": "UINT_NFT_VAR_META",
            "outputs": [
                {
                    "internalType": "uint8",
                    "name": "",
                    "type": "uint8"
                }
            ],
            "stateMutability": "view",
            "type": "function"
        },
        {
            "inputs": [],
            "name": "UINT_NFT_VAR_SEED3DCOSMETIC",
            "outputs": [
                {
                    "internalType": "uint8",
                    "name": "",
                    "type": "uint8"
                }
            ],
            "stateMutability": "view",
            "type": "function"
        },
        {
            "inputs": [
                {
                    "internalType": "uint256",
                    "name": "tokenId",
                    "type": "uint256"
                }
            ],
            "name": "collectData",
            "outputs": [
                {
                    "internalType": "uint256[]",
                    "name": "uintVars",
                    "type": "uint256[]"
                },
                {
                    "internalType": "string",
                    "name": "stringVar",
                    "type": "string"
                }
            ],
            "stateMutability": "view",
            "type": "function"
        },
        {
            "inputs": [
                {
                    "internalType": "bytes32",
                    "name": "role",
                    "type": "bytes32"
                }
            ],
            "name": "getRoleAdmin",
            "outputs": [
                {
                    "internalType": "bytes32",
                    "name": "",
                    "type": "bytes32"
                }
            ],
            "stateMutability": "view",
            "type": "function"
        },
        {
            "inputs": [
                {
                    "internalType": "bytes32",
                    "name": "role",
                    "type": "bytes32"
                },
                {
                    "internalType": "uint256",
                    "name": "index",
                    "type": "uint256"
                }
            ],
            "name": "getRoleMember",
            "outputs": [
                {
                    "internalType": "address",
                    "name": "",
                    "type": "address"
                }
            ],
            "stateMutability": "view",
            "type": "function"
        },
        {
            "inputs": [
                {
                    "internalType": "bytes32",
                    "name": "role",
                    "type": "bytes32"
                }
            ],
            "name": "getRoleMemberCount",
            "outputs": [
                {
                    "internalType": "uint256",
                    "name": "",
                    "type": "uint256"
                }
            ],
            "stateMutability": "view",
            "type": "function"
        },
        {
            "inputs": [
                {
                    "internalType": "bytes32",
                    "name": "role",
                    "type": "bytes32"
                },
                {
                    "internalType": "address",
                    "name": "account",
                    "type": "address"
                }
            ],
            "name": "grantRole",
            "outputs": [],
            "stateMutability": "nonpayable",
            "type": "function"
        },
        {
            "inputs": [
                {
                    "internalType": "bytes32",
                    "name": "role",
                    "type": "bytes32"
                },
                {
                    "internalType": "address",
                    "name": "account",
                    "type": "address"
                }
            ],
            "name": "hasRole",
            "outputs": [
                {
                    "internalType": "bool",
                    "name": "",
                    "type": "bool"
                }
            ],
            "stateMutability": "view",
            "type": "function"
        },
        {
            "inputs": [
                {
                    "internalType": "address",
                    "name": "_nftStorageAddress",
                    "type": "address"
                },
                {
                    "internalType": "address",
                    "name": "_characters",
                    "type": "address"
                },
                {
                    "internalType": "address",
                    "name": "_characterCosmetics",
                    "type": "address"
                },
                {
                    "internalType": "address",
                    "name": "_characterRenameTagConsumables",
                    "type": "address"
                }
            ],
            "name": "initialize",
            "outputs": [],
            "stateMutability": "nonpayable",
            "type": "function"
        },
        {
            "inputs": [],
            "name": "isEnabled",
            "outputs": [
                {
                    "internalType": "bool",
                    "name": "",
                    "type": "bool"
                }
            ],
            "stateMutability": "view",
            "type": "function"
        },
        {
            "inputs": [
                {
                    "internalType": "uint256",
                    "name": "tokenId",
                    "type": "uint256"
                },
                {
                    "internalType": "uint256[]",
                    "name": "uintVars",
                    "type": "uint256[]"
                },
                {
                    "internalType": "string",
                    "name": "stringVar",
                    "type": "string"
                }
            ],
            "name": "mintOrUpdate",
            "outputs": [
                {
                    "internalType": "uint256",
                    "name": "",
                    "type": "uint256"
                }
            ],
            "stateMutability": "nonpayable",
            "type": "function"
        },
        {
            "inputs": [
                {
                    "internalType": "bytes32",
                    "name": "role",
                    "type": "bytes32"
                },
                {
                    "internalType": "address",
                    "name": "account",
                    "type": "address"
                }
            ],
            "name": "renounceRole",
            "outputs": [],
            "stateMutability": "nonpayable",
            "type": "function"
        },
        {
            "inputs": [
                {
                    "internalType": "bytes32",
                    "name": "role",
                    "type": "bytes32"
                },
                {
                    "internalType": "address",
                    "name": "account",
                    "type": "address"
                }
            ],
            "name": "revokeRole",
            "outputs": [],
            "stateMutability": "nonpayable",
            "type": "function"
        },
        {
            "inputs": [
                {
                    "internalType": "bool",
                    "name": "_enabled",
                    "type": "bool"
                }
            ],
            "name": "setEnabled",
            "outputs": [],
            "stateMutability": "nonpayable",
            "type": "function"
        },
        {
            "inputs": [],
            "name": "sigVersion",
            "outputs": [
                {
                    "internalType": "uint256",
                    "name": "",
                    "type": "uint256"
                }
            ],
            "stateMutability": "view",
            "type": "function"
        }
    ],
    "bytecode": "608060405234801561001057600080fd5b506117cb806100206000396000f3fe608060405234801561001057600080fd5b506004361061010b5760003560e01c80636aa633b6116100a2578063ca15c87311610071578063ca15c8731461034f578063cf17d1b41461036c578063d547741f14610374578063f8c8765e146103a0578063f9519407146103de5761010b565b80636aa633b6146102c05780639010d07c146102dc57806391d148541461031b578063a217fddf146103475761010b565b8063328d8f72116100de578063328d8f721461026557806336568abe146102845780634594fac4146102b05780635504d3d2146102b85761010b565b8063135701f71461011057806319dd746a1461012e578063248a9ca3146102085780632f2ff15d14610237575b600080fd5b6101186104a3565b6040805160ff9092168252519081900360200190f35b61014b6004803603602081101561014457600080fd5b50356104a8565b604051808060200180602001838103835285818151815260200191508051906020019060200280838360005b8381101561018f578181015183820152602001610177565b50505050905001838103825284818151815260200191508051906020019080838360005b838110156101cb5781810151838201526020016101b3565b50505050905090810190601f1680156101f85780820380516001836020036101000a031916815260200191505b5094505050505060405180910390f35b6102256004803603602081101561021e57600080fd5b50356107e8565b60408051918252519081900360200190f35b6102636004803603604081101561024d57600080fd5b50803590602001356001600160a01b03166107fd565b005b6102636004803603602081101561027b57600080fd5b50351515610869565b6102636004803603604081101561029a57600080fd5b50803590602001356001600160a01b031661088f565b6102256108f0565b6102256108f5565b6102c8610917565b604080519115158252519081900360200190f35b6102ff600480360360408110156102f257600080fd5b5080359060200135610927565b604080516001600160a01b039092168252519081900360200190f35b6102c86004803603604081101561033157600080fd5b50803590602001356001600160a01b031661094e565b6102256104a3565b6102256004803603602081101561036557600080fd5b503561096c565b610118610983565b6102636004803603604081101561038a57600080fd5b50803590602001356001600160a01b0316610988565b610263600480360360808110156103b657600080fd5b506001600160a01b0381358116916020810135821691604082013581169160600135166109e1565b610225600480360360608110156103f457600080fd5b81359190810190604081016020820135600160201b81111561041557600080fd5b82018360208201111561042757600080fd5b803590602001918460208302840111600160201b8311171561044857600080fd5b919390929091602081019035600160201b81111561046557600080fd5b82018360208201111561047757600080fd5b803590602001918460018302840111600160201b8311171561049857600080fd5b509092509050610ae4565b600081565b6060806000806000606560009054906101000a90046001600160a01b03166001600160a01b0316639507d39a876040518263ffffffff1660e01b8152600401808281526020019150506101406040518083038186803b15801561050a57600080fd5b505afa15801561051e573d6000803e3d6000fd5b505050506040513d61014081101561053557600080fd5b50805160208083015160409384015160665485516319b1756360e31b8152600481018d9052955194985091965094506000936001600160a01b039091169263cd8bab1892602480840193919291829003018186803b15801561059657600080fd5b505afa1580156105aa573d6000803e3d6000fd5b505050506040513d60208110156105c057600080fd5b505160675460408051633715665760e01b8152600481018b905290519293506060926001600160a01b0390921691633715665791602480820192600092909190829003018186803b15801561061457600080fd5b505afa158015610628573d6000803e3d6000fd5b505050506040513d6000823e601f3d908101601f19168201604052602081101561065157600080fd5b8101908080516040519392919084600160201b82111561067057600080fd5b90830190602082018581111561068557600080fd5b8251600160201b81118282018810171561069e57600080fd5b82525081516020918201929091019080838360005b838110156106cb5781810151838201526020016106b3565b50505050905090810190601f1680156106f85780820380516001836020036101000a031916815260200191505b50604081815260655463098ad60560e21b8352600483018f905290519596506000956001600160a01b03909116945063262b5814935060248083019350602092829003018186803b15801561074c57600080fd5b505afa158015610760573d6000803e3d6000fd5b505050506040513d602081101561077657600080fd5b505160408051600280825260608201835292935091906020830190803683370190505097506107a489610cc9565b8a600060ff16815181106107b457fe5b602002602001018b600160ff16815181106107cb57fe5b602090810291909101019290925250525095979596505050505050565b60009081526033602052604090206002015490565b6000828152603360205260409020600201546108209061081b6110be565b61094e565b61085b5760405162461bcd60e51b815260040180806020018281038252602f8152602001806116da602f913960400191505060405180910390fd5b61086582826110c2565b5050565b610871611131565b60688054911515600160a01b0260ff60a01b19909216919091179055565b6108976110be565b6001600160a01b0316816001600160a01b0316146108e65760405162461bcd60e51b815260040180806020018281038252602f815260200180611767602f913960400191505060405180910390fd5b61086582826111a3565b600190565b604080516923a0a6a2afa0a226a4a760b11b8152905190819003600a01902081565b606854600160a01b900460ff1690565b6000828152603360205260408120610945908363ffffffff61121216565b90505b92915050565b6000828152603360205260408120610945908363ffffffff61121e16565b600081815260336020526040812061094890611233565b600181565b6000828152603360205260409020600201546109a69061081b6110be565b6108e65760405162461bcd60e51b81526004018080602001828103825260308152602001806117096030913960400191505060405180910390fd5b600054610100900460ff16806109fa57506109fa61123e565b80610a08575060005460ff16155b610a435760405162461bcd60e51b815260040180806020018281038252602e815260200180611739602e913960400191505060405180910390fd5b600054610100900460ff16158015610a6e576000805460ff1961ff0019909116610100171660011790555b610a7661124f565b610a8160003361085b565b606880546001600160a01b038088166001600160a01b031992831617909255606580548784169083161790556066805486841690831617905560678054928516929091169190911790558015610add576000805461ff00191690555b5050505050565b6000610aee611131565b606854600160a01b900460ff16610b3a576040805162461bcd60e51b815260206004820152600b60248201526a1b9bdd08195b98589b195960aa1b604482015290519081900360640190fd5b60008080808080610b5a8b8b8381610b4e57fe5b90506020020135611301565b955095509550955095509550610b8b8c8686868f8f600160ff16818110610b7d57fe5b905060200201358787611339565b9b5063ffffffff861615610c0b5760665460408051630244b00760e41b8152600481018f905263ffffffff8916602482015290516001600160a01b039092169163244b00709160448082019260009290919082900301818387803b158015610bf257600080fd5b505af1158015610c06573d6000803e3d6000fd5b505050505b8715610cb957606760009054906101000a90046001600160a01b03166001600160a01b031663fe55932a8d8b8b6040518463ffffffff1660e01b815260040180848152602001806020018281038252848482818152602001925080828437600081840152601f19601f820116905080830192505050945050505050600060405180830381600087803b158015610ca057600080fd5b505af1158015610cb4573d6000803e3d6000fd5b505050505b50999a9950505050505050505050565b60008060606000806000606560009054906101000a90046001600160a01b03166001600160a01b0316639507d39a886040518263ffffffff1660e01b8152600401808281526020019150506101406040518083038186803b158015610d2d57600080fd5b505afa158015610d41573d6000803e3d6000fd5b505050506040513d610140811015610d5857600080fd5b50805160208083015160409384015160665485516319b1756360e31b8152600481018e9052955194985091965094506000936001600160a01b039091169263cd8bab1892602480840193919291829003018186803b158015610db957600080fd5b505afa158015610dcd573d6000803e3d6000fd5b505050506040513d6020811015610de357600080fd5b505160675460408051633715665760e01b8152600481018c905290519293506001600160a01b0390911691633715665791602480820192600092909190829003018186803b158015610e3457600080fd5b505afa158015610e48573d6000803e3d6000fd5b505050506040513d6000823e601f3d908101601f191682016040526020811015610e7157600080fd5b8101908080516040519392919084600160201b821115610e9057600080fd5b908301906020820185811115610ea557600080fd5b8251600160201b811182820188101715610ebe57600080fd5b82525081516020918201929091019080838360005b83811015610eeb578181015183820152602001610ed3565b50505050905090810190601f168015610f185780820380516001836020036101000a031916815260200191505b50604081815260655463098ad60560e21b8352600483018f90529051959a506001600160a01b03169463262b5814945060248083019450602093509091829003018186803b158015610f6957600080fd5b505afa158015610f7d573d6000803e3d6000fd5b505050506040513d6020811015610f9357600080fd5b50516065546040805163783efb2560e01b8152600481018c90526002602482015290519298506000926001600160a01b039092169163783efb2591604480820192602092909190829003018186803b158015610fee57600080fd5b505afa158015611002573d6000803e3d6000fd5b505050506040513d602081101561101857600080fd5b50516065546040805163783efb2560e01b8152600481018d90526067602482015290519293506000926001600160a01b039092169163783efb2591604480820192602092909190829003018186803b15801561107357600080fd5b505afa158015611087573d6000803e3d6000fd5b505050506040513d602081101561109d57600080fd5b505190506110af838787878686611403565b98505050505050509193909250565b3390565b60008281526033602052604090206110e0908263ffffffff61145716565b15610865576110ed6110be565b6001600160a01b0316816001600160a01b0316837f2f8788117e7eff1d82e926ec794901d17c78024a50270940304540a733656f0d60405160405180910390a45050565b604080516923a0a6a2afa0a226a4a760b11b8152905190819003600a01902061115a903361094e565b8061116b575061116b60003361094e565b6111a1576040805162461bcd60e51b81526020600482015260026024820152614e4160f01b604482015290519081900360640190fd5b565b60008281526033602052604090206111c1908263ffffffff61146c16565b15610865576111ce6110be565b6001600160a01b0316816001600160a01b0316837ff6391f5c32d9c69d2a47ea670b442974b53935d1edc7fd64eb21e047a839171b60405160405180910390a45050565b60006109458383611481565b6000610945836001600160a01b0384166114e5565b6000610948826114fd565b600061124930611501565b15905090565b600054610100900460ff1680611268575061126861123e565b80611276575060005460ff16155b6112b15760405162461bcd60e51b815260040180806020018281038252602e815260200180611739602e913960400191505060405180910390fd5b600054610100900460ff161580156112dc576000805460ff1961ff0019909116610100171660011790555b6112e4611507565b6112ec611507565b80156112fe576000805461ff00191690555b50565b63ffffffff602082901c169161ffff601083901c811692600881901c60ff908116939082169262ffffff604084901c169260581c1690565b6065546068546040805163502c4abd60e11b81526001600160a01b03928316600482015261ffff808b16602483015260ff808b166044840152891660648301526084820188905260a482018c905262ffffff871660c4830152851660e48201529051600093929092169163a058957a916101048082019260209290919082900301818787803b1580156113cb57600080fd5b505af11580156113df573d6000803e3d6000fd5b505050506040513d60208110156113f557600080fd5b505198975050505050505050565b60ff831661ff00600886901b161763ffff0000601087901b161767ffffffff00000000602088901b16176affffff0000000000000000604084901b161761ffff60581b605883901b16179695505050505050565b6000610945836001600160a01b0384166115a7565b6000610945836001600160a01b0384166115f1565b815460009082106114c35760405162461bcd60e51b81526004018080602001828103825260228152602001806116b86022913960400191505060405180910390fd5b8260000182815481106114d257fe5b9060005260206000200154905092915050565b60009081526001919091016020526040902054151590565b5490565b3b151590565b600054610100900460ff1680611520575061152061123e565b8061152e575060005460ff16155b6115695760405162461bcd60e51b815260040180806020018281038252602e815260200180611739602e913960400191505060405180910390fd5b600054610100900460ff161580156112ec576000805460ff1961ff00199091166101001716600117905580156112fe576000805461ff001916905550565b60006115b383836114e5565b6115e957508154600181810184556000848152602080822090930184905584548482528286019093526040902091909155610948565b506000610948565b600081815260018301602052604081205480156116ad578354600019808301919081019060009087908390811061162457fe5b906000526020600020015490508087600001848154811061164157fe5b60009182526020808320909101929092558281526001898101909252604090209084019055865487908061167157fe5b60019003818190600052602060002001600090559055866001016000878152602001908152602001600020600090556001945050505050610948565b600091505061094856fe456e756d657261626c655365743a20696e646578206f7574206f6620626f756e6473416363657373436f6e74726f6c3a2073656e646572206d75737420626520616e2061646d696e20746f206772616e74416363657373436f6e74726f6c3a2073656e646572206d75737420626520616e2061646d696e20746f207265766f6b65496e697469616c697a61626c653a20636f6e747261637420697320616c726561647920696e697469616c697a6564416363657373436f6e74726f6c3a2063616e206f6e6c792072656e6f756e636520726f6c657320666f722073656c66a26469706673582212200bf4d42396c89b2bd4545eb7c9005d7d5db50b83b236d54e00208713f10324a064736f6c63430006050033",
    "sourcePath": "k://cryptoblades1/cryptoblades/contracts/CharactersBridgeProxyContract.sol",
    "compiler": {
        "name": "solc",
        "version": "0.6.5+commit.f956cc89"
    },
    "functionHashes": {
        "DEFAULT_ADMIN_ROLE()": "a217fddf",
        "GAME_ADMIN()": "5504d3d2",
        "UINT_NFT_VAR_META()": "135701f7",
        "UINT_NFT_VAR_SEED3DCOSMETIC()": "cf17d1b4",
        "collectData(uint256)": "19dd746a",
        "getRoleAdmin(bytes32)": "248a9ca3",
        "getRoleMember(bytes32,uint256)": "9010d07c",
        "getRoleMemberCount(bytes32)": "ca15c873",
        "grantRole(bytes32,address)": "2f2ff15d",
        "hasRole(bytes32,address)": "91d14854",
        "initialize(address,address,address,address)": "f8c8765e",
        "isEnabled()": "6aa633b6",
        "mintOrUpdate(uint256,uint256[],string)": "f9519407",
        "renounceRole(bytes32,address)": "36568abe",
        "revokeRole(bytes32,address)": "d547741f",
        "setEnabled(bool)": "328d8f72",
        "sigVersion()": "4594fac4"
    },
    "gasEstimates": {
        "creation": {
            "codeDepositCost": "1218200",
            "executionCost": "1268",
            "totalCost": "1219468"
        },
        "external": {
            "DEFAULT_ADMIN_ROLE()": "287",
            "GAME_ADMIN()": "371",
            "UINT_NFT_VAR_META()": "231",
            "UINT_NFT_VAR_SEED3DCOSMETIC()": "251",
            "collectData(uint256)": "infinite",
            "getRoleAdmin(bytes32)": "1180",
            "getRoleMember(bytes32,uint256)": "infinite",
            "getRoleMemberCount(bytes32)": "infinite",
            "grantRole(bytes32,address)": "infinite",
            "hasRole(bytes32,address)": "infinite",
            "initialize(address,address,address,address)": "infinite",
            "isEnabled()": "1050",
            "mintOrUpdate(uint256,uint256[],string)": "infinite",
            "renounceRole(bytes32,address)": "infinite",
            "revokeRole(bytes32,address)": "infinite",
            "setEnabled(bool)": "infinite",
            "sigVersion()": "265"
        },
        "internal": {
            "_mintOrUpdate(uint256,uint16,uint8,uint8,uint256,uint24,uint16)": "infinite",
            "_packCharactersData(uint32,uint16,uint8,uint8,uint24,uint16)": "147",
            "_packedCharacterData(uint256)": "infinite",
            "_restricted()": "infinite",
            "_unpackCharactersData(uint256)": "126"
        }
    }
}